:020000040802F0
:1000000038520120A1040208A9040208AB04020826
:10001000AD040208AF040208B104020800000000A9
:10002000000000000000000000000000890302083A
:10003000B504020800000000290402088D0402082B
:10004000BB040208BB040208BB040208BB0402088C
:10005000BB040208BB040208BB040208BB0402087C
:10006000BB040208BB040208BB040208BB0402086C
:10007000BB040208BB040208BB040208BB0402085C
:10008000BB040208BB040208BB0402088B20020860
:1000900005200208BB04020885200208BB040208F0
:1000A000592E0208A92E0208812E0208BB0402085C
:1000B000F12E0208152F02083D2F0208BB0402088A
:1000C000BB040208BB040208BB0402081D2B020883
:1000D000232B0208BB040208BB040208BB0402086D
:1000E000BB040208BB040208BB040208DD2F02089F
:1000F0002D30020805300208BB040208BB040208C8
:10010000BB040208BB040208652F0208292B020861
:10011000BB040208BB0402088D2F0208B52F020899
:10012000BB040208BB040208BB040208BB040208AB
:10013000BB040208ED250208BB04020817210208CF
:1001400091200208BB04020811210208BB04020826
:10015000BB040208BB040208BB040208BB0402087B
:10016000BB040208BB040208BB040208BB0402086B
:10017000BB040208BB040208BB040208BB0402085B
:10018000BB040208BB04020800F002F800F0ADF85E
:100190000AA090E8000C82448344AAF10107DA45E2
:1001A00001D100F0A2F8AFF2090EBAE80F0013F087
:1001B000010F18BFFB1A43F001031847604A020001
:1001C000804A02000023002400250026103A28BFA0
:1001D00078C1FBD8520728BF30C148BF0B607047B9
:1001E000642901F07582782901F0AE82732901F04B
:1001F00016860020704710B510BD0000704770478C
:1002000002020131DF175D02000002080000040055
:1002100000000020C0FF01000000000000000000FE
:100220000761454D53303276326D65630000000042
:1002300001000100010000004558540000000000CA
:100240004A616E20323920323031352031383A312E
:10025000383A3339000000000000000000000000C0
:10026000000000000000000000000000000000008E
:10027000000000000000000000000000000000007E
:100280000A444FF0000C10F8013B13F0070408BFBC
:1002900010F8014B1D1108BF10F8015B641E05D05A
:1002A00010F8016B641E01F8016BF9D113F0080F0F
:1002B0001EBF10F8014BAD1C0C1B09D16D1E58BFA1
:1002C00001F801CBFAD505E014F8016B01F8016BD8
:1002D0006D1EF9D59142D6D370471FB521F083FC2E
:1002E0009DE8030001F08CFC1FBD01F008FE1146E3
:1002F000FFF7F3FF16F026F901F026FE03B4FFF72F
:100300007AFF03BC01F054FE004870470020000053
:100310000048704700000100401EFDD170470000FA
:1003200080F309887047EFF309807047684680F3CF
:10033000098804480078C00714BF0220032080F316
:1003400014887047B0050020DFF818C0EFF305836C
:100350001B0618BF6047EFF31483DB0708BF604735
:1003600000DF704771880308DFF818C0EFF30583DA
:100370001B0618BF6047EFF31483DB0708BF604715
:1003800000DF7047E9880308EFF30980816911F8FD
:10039000021C99BB90E80F1010B5E047BDE8104073
:1003A000EFF3098C8CE807001C4B93E806009142A0
:1003B00008BF704781B11EF0100F06BF2CED108AE8
:1003C0000120002081F838002CE9F00FC1F83CC072
:1003D0000CB419F067FE0CBC1A60D2F83CC0BCE843
:1003E000F00F92F8380000281ABFBCEC108A6FF0AA
:1003F000120E6FF0020E8CF30988704710B5084A90
:100400001268914209D8074C54F8214090E80F1027
:10041000A047EFF3098C8CE80F0010BD7804002092
:10042000002002080020020810B519F039FDBDE8CF
:100430001040154B93E80600914208BF7047EFF358
:10044000098C1EF0100F06BF2CED108A0120002031
:1004500081F838002CE9F00FC1F83CC00CB419F059
:1004600021FE0CBC1A60D2F83CC0BCE8F00F92F838
:10047000380000281ABFBCEC108A6FF0120E6FF023
:10048000020E8CF3098870477804002010B519F02B
:100490002DFECCE710B516F0AFFF19F027FEC6E72A
:1004A0000948804709480047FEE7FEE7FEE7FEE708
:1004B000FEE7FEE7FEE7FEE7FEE7FEE70448054944
:1004C000054A064B70470000F12D02088901020819
:1004D00038320020385201203832012038320120D1
:1004E000F7B514466E46002914BF0125002588483B
:1004F0000078E8B100F07AFA2946304603F094F823
:10050000C5B2012C0DD183480099834CC0F8261048
:10051000014620684022001D01F00AFA206800F020
:100520003DFE00F06DFA012D02BF002003B0F0BDCA
:100530004FF0FF3003B0F0BD38B56C460090002995
:1005400014BF012500257248007860B100F04EFA12
:100550002946204603F068F8C4B200F051FA012C95
:1005600004BF002038BD4FF0FF3038BD2DE9F34700
:1005700067480D46E94600784FF0FF37F0B1674E07
:100580003088D8B100F032FA30880024002888BFC3
:10059000DFF88C810FD900BFC4EBC40008EB40002A
:1005A000042249460A3001F097F960B1601CC4B2D8
:1005B00030888442F0D300F023FA11E002B04FF00B
:1005C000FF30BDE8F087C4EBC40008EB4000041D19
:1005D00000F016FA00271DB120682860A088A880C6
:1005E00002B03846BDE8F0872DE9F1434848E846B7
:1005F0004FF0FF360078E8B1484D2888D0B100F0C0
:10060000F5F928880024002888BF454F0FD900BF7E
:10061000C4EBC40007EB4000042241460A3001F05D
:100620005BF958B1601CC4B228888442F0D300F052
:10063000E7F919E04FF0FF30BDE8F883C4EBC400E0
:1006400007EB4000041D00F0DBF906223549204687
:1006500001F042F958B106223349204601F03CF935
:10066000002818BF002602D03046BDE8F8834FF0BE
:10067000FF36F9E7002070470020704710B5254C81
:10068000FF21204602F025FE28484FF4C1634FF0B9
:10069000080C0169C4F80610828A6281A3814FF4B4
:1006A0008073E381A4F810C04FF0060C84F812C0E8
:1006B0004FF0040C84F813C0A382C4F816106283B0
:1006C0008069E06104F1200002F0FFFD0020C4F821
:1006D0002600C4F82A00C4F82E00C4F83200C4F87A
:1006E00036000D4AC4F83A00E08704F14001116079
:1006F0002A220A80488010BD90F82010202984BF4B
:100700004FF0FF30704710B500F0F3FC002010BD33
:10071000D003002094110020C80300202E040020E4
:10072000F01400202C360408323604081812002079
:10073000B84A126F02B11047FEE770B50C46B8B167
:100740000546FFF797FF0646284600F091FC064451
:10075000284600F029FA0644284600F06CFA0644C0
:10076000284600F067FC3044002C18BF206070BDA4
:10077000E120A84AA8A1126F12B19047002070BDD5
:10078000FEE710B5A34C606F002808BF10BD80477E
:100790000028AB49086018BF10BDE020226FA9A156
:1007A00012B1BDE810401047FEE770B5A44D416F8F
:1007B00081B1816F974C00291FBFC16F0029D0F80C
:1007C000800000280DD0606F002818D08047286076
:1007D00080B114E000218167C167C0F880102960F2
:1007E0000DE0226FE320A7A11AB190474FF0FF3030
:1007F00070BDFEE7226FE02092A112B19047002069
:1008000070BDFEE710B5D821824801F074F98C491B
:100810000020086010BD2DE9F0417E4C884605009F
:1008200007D02A6F2267287850B1E420A0A132B106
:100830002EE0226FE120ABA1002A29D1FEE7FEE7DE
:10084000B1480078012804D02846FFF755FF20B1B1
:100850001AE0E020ADA1DAB9FEE7D8216D4801F039
:100860004AF9774F002628463E6000F01EFC58B932
:10087000284600F09FF938B9284600F0E2F918B987
:10088000284600F0DDFB40B1AA49226FE3205AB1AF
:1008900090474FF0FF30BDE8F08141462846FFF712
:1008A000EBFE002875D100E0FEE72846FFF7E2FEE8
:1008B00020F0030080444146284600F0DBFB00287E
:1008C00067D1284600F0D4FB20F003008044414665
:1008D000284600F06BF900285BD1284600F064F947
:1008E00020F0030080444146284600F0A6F9002885
:1008F0004FD1284600F09FF920F0030000EB0801DB
:10090000284600F099FB002843D1284600F092FBCE
:10091000D82229463F4801F092F83E4D2846FFF77D
:10092000ADFE002835D1686F60B1A96F00291FBFE7
:10093000E96F0029D5F88010002909D08047386078
:1009400068B111E0AE67EE67C5F880603E600BE00D
:10095000226FE3204BA10AB190471AE0FEE7226F15
:10096000E02038A12AB19047284600F085FB80B9E5
:1009700000E0FEE7284600F01BF950B9284600F0D9
:100980005EF930B9284600F059FB002808BFBDE8E1
:10099000F0814FF0FF30BDE8F08170B504000D46E6
:1009A00016D0FFF767FE0646204600F061FB0644BE
:1009B000204600F0F9F80644204600F03CF90644D1
:1009C000204600F037FB3044002D18BF286070BD72
:1009D000E120104A10A1126F12B19047002070BDA3
:1009E000FEE718E7002070470020704714480068B1
:1009F000002808BF7047074AD2F88010926F10474E
:100A00000F480068002808BF70470249C96F0847AF
:100A100000687047181200206970616C5F62617332
:100A2000655F6D656D6F72795F67657473697A650F
:100A30002829206E65656473206120636667000065
:100A4000CC0300206970616C5F626173655F6869E7
:100A5000645F7468726561647361666574795F6907
:100A60006E697428293A2063616E6E6F7420616C20
:100A70006C6F6361746520746865206D757465784A
:100A8000000000006970616C5F626173655F696E90
:100A9000697469616C6973652829206E6565647382
:100AA000206F73616C2066756E6374696F6E73007E
:100AB0006970616C5F626173655F696E69746961B9
:100AC0006C69736528293A20756E737570706F7242
:100AD000746564207463702F697020737461636B34
:100AE000000000006970616C5F626173655F696E30
:100AF000697469616C69736528293A206D6973733B
:100B0000696E672063666700D00300206970616CBE
:100B10005F626173655F696E697469616C69736551
:100B200028293A20616C726561647920737461725E
:100B300074656400FC4A040831B524486C460078AA
:100B400038B1234890F82C0018B19DF80000EF2828
:100B500002D04FF0FF3038BDFFF748FF204615F0B8
:100B600047F8002814BF00244FF0FF34FFF748FF78
:100B7000204638BD31B515486C46007888B1144818
:100B800090F82C0068B1FFF731FF204615F058F8B7
:100B900000280CBF4FF0FF340024FFF731FF204640
:100BA00038BD4FF0FF3038BD00207047002070473F
:100BB0000020704790F82D10062984BF4FF0FF30B9
:100BC000704710B500F016FB002010BDD0030020C8
:100BD00018120020224810B5406848B12148017819
:100BE00001290CD00121017015F094FA002010BDEC
:100BF0001DA1E120FFF79CFD4FF0FF3010BD24A1A7
:100C0000E020FFF795FD4FF0FF3010BD10B5FFF766
:100C1000EDFE15F0ABFCBDE81040FFF7F1BE10B5DE
:100C2000FFF7E4FE20F060FBBDE81040FFF7E8BEF0
:100C30000B48406870470020704700207047002034
:100C400070470189B1F5C05F84BF4FF0FF30704736
:100C500010B50021034A117000F024FB002010BDE4
:100C600018120020D00300206970616C5F737973E3
:100C70005F737461727428293A206D697373696EA9
:100C80006720636F6E66696775726174696F6E0065
:100C90006970616C5F7379735F7374617274282912
:100CA0003A2063616E6E6F74207374617274206198
:100CB0006761696E0000000008B1062801D90020B4
:100CC0007047F0B515460A46E64900EB400085B08E
:100CD00001EBC000A0F1180450F8080C0A9F1E4652
:100CE00098B11046FFF794FE0346E06820B19842A1
:100CF00004BF2089A84208D10396ADF8087000957A
:100D0000D4E904C002AA2146E04705B00020F0BDA6
:100D10004107090EC0F3C00241EA0211C0F30012FC
:100D200010B541EAC201C0F3401041EA8004CE4848
:100D30000078002808BF10BDFFF758FECB4A0121FC
:100D4000204620F001FBC0B1C64900EB400201EB98
:100D5000C20404F8180C002024F8160C44F8140CF3
:100D600024F8100C44F80C0C44F8080C44F8040C5B
:100D7000FFF746FEA4F1180010BDFFF741FE00206A
:100D800010BD70B504001CBF2078002821D0FFF7EB
:100D90002DFE6088002518B1207820F0B7FA658014
:100DA000207820F033FB06462078AE4900EB400067
:100DB00001EBC00000F8185C257065806560258136
:100DC000E56025616561FFF71BFE002E1CBF00205A
:100DD00070BD4FF0FF3070BD70B515460E46040073
:100DE0001DBF20780028002D4FF0FF3008BF70BDD8
:100DF000FFF7FCFD608820B1207820F087FA002002
:100E000060809849002000BF00EB400201EBC20265
:100E10005288AA4210D0401CC0B20628F4D32078D1
:100E2000294620F0B5FA10F0FF0F05D06580666006
:100E3000FFF7E6FD002070BDFFF7E2FD4FF0FF3049
:100E400070BD2DE9F04790460F46040019BF207889
:100E500000284FF0FF30BDE8F087FFF7C7FD60883E
:100E600050BB207800264546002818BF002D2DD005
:100E7000FFF7BCFD60884FF0000920B1207820F01A
:100E800045FAA4F802907749002000BF00EB400229
:100E900001EBC2025288AA4216D0401CC0B20628FA
:100EA000F4D32078294620F073FA10F0FF0F0BD00E
:100EB00065806660FFF7A4FDA4F80880E760FFF78F
:100EC0009FFD0020BDE8F087FFF79AFDFFF798FD32
:100ED0004FF0FF30BDE8F08710B5040019BF20784F
:100EE00000284FF0FF3010BDFFF780FD002020816B
:100EF000E060FFF785FD002010BD2DE9FF4182B0C5
:100F000098460C46050004AF1CBF2878002828D05E
:100F10006888002818BF002C23D0606800281CBFF8
:100F2000208800281DD0FFF761FD208820F004FAFA
:100F300006001BD02288616800F0FAFC208800902F
:100F4000287833464246394620F078FA00280CBF0C
:100F50004FF0FF340024FFF753FD06B02046BDE8F4
:100F6000F08106B04FF0FF30BDE8F081FFF748FD9B
:100F700006B04FF0FF30BDE8F0812DE9F04383B0BB
:100F80000C4605001CBF688800283CD0E868002893
:100F90001CBF2889002836D0FFF728FDE86801909B
:100FA0002878B5F808900DF104084FF0FF360028B6
:100FB0001CBF6888002820D0002C1FBF6068002854
:100FC0002088002819D0FFF711FD208820F0B4F9FF
:100FD000070010D02288616800F0AAFC20880090E9
:100FE00028783B464A46414620F028FA00280CBFA4
:100FF0004FF0FF360026FFF703FDFFF701FD03B0BA
:101000003046BDE8F08303B04FF0FF30BDE8F08319
:10101000002812BF00294FF0FF30704770B5164608
:101020000D460446FFF7E2FCC4E90456FFF7E8FC6E
:10103000002070BD002070470020704700207047DE
:1010400010B5044690F83000062884BF4FF0FF30FA
:1010500010BD9021034800F04EFD204600F087F9B6
:10106000002010BDF0120020D0030020B90C0208AF
:10107000002070470020704710B5D0F88C10002970
:101080001CBFD0F89010002908D0D0F89410002987
:101090001FBFD0F898000028002010BD05A1E12056
:1010A000FFF746FB4FF0FF3010BD10B500F093F88E
:1010B000002010BD6970616C5F6574685F68696469
:1010C0005F696E697428293A206D697373696E6768
:1010D000206574682066756E6374696F6E730000B6
:1010E000A94890F82200012818BF7047002002F09C
:1010F000BDBB10B504464FF4E071A44800F0FBFC02
:10110000A34894F82010C180A249626AB2FBF1F2B0
:10111000028194F821200270A26AB2FBF1F14170C1
:10112000002010BD9848D0F89C00002808BF7047E8
:10113000004700291CBF0020704710F02BB810B5E5
:10114000954A84B09069D2E90812CDE902128E4A1C
:101150000090907A8DF8000090480190904890F8A7
:1011600003C081884FEA1C230B4381784FEA0C6C43
:101170004CEA014C4478007843EA11414CEA042CD3
:1011800041EA14614CEA0000CDE90201D2F88C106A
:10119000684688477E49487104B010BD7A49D1F845
:1011A0009810084710B5784CD4F890008047D4F8D0
:1011B0008800002808BF10BDBDE81040004710B5EA
:1011C000714CD4F88400002818BF8047D4F89400EC
:1011D000BDE8104000476E4902694A61808A088371
:1011E00000207047684991F82C10012918BF7047FA
:1011F00017F04CBA654A0021664BC2F8C011C2F81C
:10120000C411C2F8C811C2F8CC11C2F8D011C2F88A
:10121000D411C2F8D811C2F8DC11C2F8E01142684A
:101220005B49B3FBF2F290F82D00488192B24CF684
:10123000CD405043800C887000207047062806D2AD
:10124000584901EB4011F030C0B2FFF771BA56A116
:10125000E020FFF76DBA10B514F08CFF4A4C94F8FB
:101260002C00012808BF14F097FF94F82F000128E4
:1012700008BF14F0B9FF94F82200012818BF10BD70
:101280000020BDE8104002F0F1BA10B518F0F4FFEC
:101290003D4890F82C00012818BF10BDBDE8104053
:1012A00019F042B82DE9F041384D00260446C5F842
:1012B000E461C5F8E861C5F8EC61C5F8F061C5F80E
:1012C000F461C5F8F861C5F8FC61C5F80062C5F8BD
:1012D0000462C5F80862C5F80C62C5F81062C5F86A
:1012E0001462C5F818624FF4C05105F50870C5F8CE
:1012F0001C6200F000FC05F5C0572548C7F82862BD
:10130000C7F82C62C681A169C5F8E411E169C5F886
:10131000EC1105F5F271C0220A73A8234B738E738A
:101320004FF0FE0C81F80FC00A744B748E7481F874
:1013300013C00A714B71184A8E7181F807C0D2E947
:101340000012C7E988120121C17021890161114A87
:101350006168B2FBF1F181810020BDE8F0810A49AA
:1013600091F82F10012918BF704717F0CFB910B5A9
:1013700004464821124800F0BEFB054894F830109E
:101380000171002010BD000018120020F014002090
:101390002804002040420F00D0360408D836040844
:1013A0003C040020F8360408756E6B6E6F776E2073
:1013B00073797374656D206572726F72000000003E
:1013C000202F002000487047D431002070B5A0FBCA
:1013D0000140B4F1805170F1000024BF002070BDC5
:1013E000204600F081FC05001CBF214600F061FB97
:1013F000284670BD70B516460D46041F002808BF6C
:1014000070BD002E1CBF05F10C00AFF300802B4611
:101410005868002818BFA04238BF0346F8D319689F
:10142000CA18A24218BF5C6003D122681C4611444E
:10143000196021680A19824218BF606004D14268AD
:101440006260006808442060002E1CBF05F10C009B
:10145000AFF3008070BD10B5044600F0B6FB016824
:101460002046BDE810400122C4E70B3020F0070001
:1014700070472DE9F0410F460546041F00F0A5FB1B
:101480000668F7B1384615B3FFF7EFFFB8420546D7
:101490003CBF0020BDE8F08106F10C00AFF30080F6
:1014A0002268AA4238BF314615D3511B082931D3CF
:1014B0006019002240F8041B31462560FFF79AFFAF
:1014C00028E02846FFF7C7FF0020BDE8F081BDE80F
:1014D000F04100F009BC4868002818BFA04238BF9E
:1014E0000146F8D3131983421BD103681A4495426D
:1014F00017D8531B082B0AD343686219536023681B
:1015000000681844401B106025604A6002E02260B9
:101510004068486006F10C00AFF30080201DBDE874
:10152000F08100223146281F00F09DFB05000AD003
:101530002068211D021F284600F081FA0022314652
:10154000201DFFF757FF06F10C00AFF3008028467F
:10155000BDE8F08153EA020C00F069802DE9F04B00
:101560004FF00006002B1FBFB3FA83F503FA05F412
:1015700024FA05F65E4012BF1643B2FA82F502FA6B
:1015800005F4C5F120051EBF22FA05FC44EA0C044F
:10159000203556EA044C4FEA144418BF641C4FF03F
:1015A00000084FF00009904271EB030C39D3002979
:1015B00019BFB1FA81F701FA07F6B0FA80F700FA1D
:1015C00007F6C7F120071EBF20FA07FC46EA0C0603
:1015D0002037B6FBF4FCA7EB0507103F07F01F0B05
:1015E000CBF120060CFA0BFB2CFA06F644BFB346EF
:1015F0000026202FA4BF5E464FF0000B5BEA060CCE
:1016000008BF4FF0010B19EB0B09ABFB027C48EB59
:101610000608C01B06FB02CC0BFB03CC71EB0C01D4
:10162000C1E70B46024641464846BDE8F08B13B57C
:101630004FF000004FF00001AFF30080BDE81C4008
:10164000704700000FB47CB50C0009AA009001D0CF
:101650002044401E084B7B4469460190089800F0E6
:10166000ACFB05461CB10020694600F0B9FB2846DA
:101670007CBC5DF814FB00009107000070B50C46BF
:101680000546012A05D02878800600D5EA6900239E
:1016900002E0012305E05B1C934202D2E05C0028DB
:1016A000F9D1A869E618C01AA861286A1844286206
:1016B0002846AFF3008004E0D5E9012114F8010BBE
:1016C0009047B442F8D32846AFF3008070BD0000C5
:1016D0002DE9F0410646002410687529314616A50B
:1016E00010D0AFF30080002802DA404213A507E0D3
:1016F00031688A0701D512A502E0490704D511A572
:10170000012401E0AFF3008000210A2206F1240742
:1017100009E0B0FBF2FCB0FBF2F302FB1C0030303E
:1017200078541846491C0028F3D123462A463046EF
:10173000BDE8F04100F0E2BA000000002D0000001A
:101740002B0000002000000070B504460D46214625
:101750001068AFF300802188090502D50F4A7A444A
:1017600002E00E4A7A440E32002104F1240305E01F
:1017700000F00F060009965D5E54491C0028F7D161
:1017800020780023000704D5702D02D009B1022370
:1017900011322046BDE8704000F0B0BA3C2602008D
:1017A0002DE9F05F894604464FF0000ADFF824B1C6
:1017B000FB44C0F820A02046E168884700287DD07F
:1017C000252806D0D4E901219047206A401C2062D8
:1017D000F1E700255F462046E16888472028064655
:1017E00007DB312E05D2B81910F8200C08B10543DB
:1017F000F1E7A80701D525F00405C4F81CA00027CF
:10180000C4F818A02A2E09D0304601F08EFD38B356
:1018100004EB8708303EC8F8186019E059F8041B3B
:10182000204604EB87029161E1688847012F064654
:1018300018D1E069002820DA25F020051DE0D8F84D
:10184000180000EB800006EB40003038C8F81800A4
:101850002046E1688847064601F067FD0028EED182
:10186000012F0AD02E2E08D12046E16888477F1C20
:101870000646022F45F02005C4DBA069002803DAE4
:10188000404245F00105A061E80701D025F01005B0
:10189000A6B1A6F14100192802D8203645F400650A
:1018A0004A463146204625604D46FEF799FC60B118
:1018B000012807D0ED1D25F0070000E007E000F14A
:1018C000080978E705F1040975E730467AE7206AE8
:1018D000BDE8F09F1226020040EA010310B59B0705
:1018E0000FD1042A0DD310C808C9121F9C42F8D08A
:1018F00020BA19BA884201D9012010BD4FF0FF303B
:1019000010BD1AB1D30703D0521C07E0002010BD50
:1019100010F8013B11F8014B1B1B07D110F8013BDC
:1019200011F8014B1B1B01D1921EF1D1184610BDBD
:10193000032A40F2308010F0030C00F0158011F8FB
:10194000013BBCF1020F624498BF11F801CB00F8D3
:10195000013B38BF11F8013BA2F1040298BF00F827
:1019600001CB38BF00F8013B11F0030300F06780A2
:10197000083AC0F0088051F8043B083A51F804CB0B
:10198000A0E80810F5E7121D5CBF51F8043B40F8D1
:10199000043BAFF30080D20724BF11F8013B11F8DC
:1019A00001CB48BF11F8012B24BF00F8013B00F820
:1019B00001CB48BF00F8012B7047431A28BF9A4259
:1019C0007FF6B6AF032A1044114440F2268010F08F
:1019D000030F1EBF11F8013D521E00F8013D10F02B
:1019E000030F7FF4F6AF11F0030300F02F82083AE3
:1019F000C0F00B8051F8043D083A51F804CD40F88E
:101A0000043D40F804CDFFF7F3BF121D5CBF51F851
:101A1000043D40F8043DAFF30080D20724BF11F825
:101A2000013D11F801CD48BF11F8012C24BF00F889
:101A3000013D00F801CD48BF00F8012C704710B5FA
:101A4000203AC0F00B80B1E81850203AA0E81850B6
:101A5000B1E81850A0E81850BFF4F5AF5FEA027C77
:101A600024BFB1E81850A0E8185044BF18C918C0E6
:101A7000BDE810405FEA827C24BF51F8043B40F887
:101A8000043B08BF7047D20728BF31F8023B48BF6C
:101A900011F8012B28BF20F8023B48BF00F8012BAA
:101AA000704702F0FF0343EA032242EA024200F0D9
:101AB00002B84FF000020429C0F0128010F0030CAD
:101AC00000F01B80CCF1040CBCF1020F18BF00F831
:101AD000012BA8BF20F8022BA1EB0C0100F00DB8E0
:101AE0005FEAC17C24BF00F8012B00F8012B48BF3E
:101AF00000F8012B70474FF0000200B513469446E2
:101B00009646203922BFA0E80C50A0E80C50B1F155
:101B10002001BFF4F7AF090728BFA0E80C5048BF69
:101B20000CC05DF804EB890028BF40F8042B08BF07
:101B3000704748BF20F8022B11F0804F18BF00F803
:101B4000012B70474FF0013C50F8042B51F8043B37
:101B50009A4221D1A2EB0C03934313EACC1317D181
:101B600050F8042B51F8043B9A4215D1A2EB0C0318
:101B7000934313EACC130BD150F8042B51F8043BD8
:101B80009A4209D1A2EB0C03934313EACC13DBD0A6
:101B90004FF00000704700BFD01A01BAB1FA81F1CE
:101BA00001F0180122FA01F0CB40C1F12001DBB2B3
:101BB000C0B2C01A2CFA01F3D11A914311EAC31131
:101BC000E6D1704770477047704710B5FFF7FAFBD2
:101BD000083010BD7047704738B504460A460020EB
:101BE0006946AFF30080002808BF38BD024600995F
:101BF000204600F05EF9012038BD012000F078B9E0
:101C0000F8B5AFF30080054600200C46102000BF59
:101C10000646A819A0420DD9324669460020AFF306
:101C20000080070008BF00F063F90098A04218BFC9
:101C30000546C419FFF7C9FF05600746F01D20F0EF
:101C400007004619284600F02BF9B44208BFF8BD3A
:101C5000A21B31463868BDE8F84000F02AB90B30C5
:101C600020F0070070472DE9F04117460E46044664
:101C7000FFF7F5FFA042054633D9002F1CBF06F140
:101C80000C00AFF3008030467468F4B12168A942BB
:101C900017D305F1080291423CBF6168416007D348
:101CA000626861194A602268521B0A6041602560BF
:101CB000002F1CBF06F10C00AFF30080201DBDE813
:101CC000F08120466468002CE0D129463046FFF7B9
:101CD00083FF0028D7D1002F1CBF06F10C00AFF303
:101CE00000800020BDE8F08110B50446FFF76DFFCD
:101CF00001682046BDE810400122B4E72DE9F04715
:101D00000D4699469246044600F12408016888066B
:101D100004D5E06921F01001216000E00120A84213
:101D200001DD471B00E00027A1697A1902EB0900D9
:101D3000081AA0612078C00602D42046AFF30080C4
:101D4000002608E0D4E901211AF806009047206A2D
:101D5000401C761C20624E45F4DB2078C0060AD574
:101D60002046AFF3008006E0D4E9012130209047FF
:101D7000206A401C2062381EA7F10107F4DC07E04E
:101D8000D4E9012118F805009047206A401C206220
:101D9000281EA5F10105F3DC2046AFF30080207872
:101DA000000602D50220BDE8F0870120FBE7000015
:101DB00001694A1C02610878704700B58FB0CDE90F
:101DC00001310021059105497944CDE903101146FF
:101DD0006846FFF7E5FC0FB000BD0000E5FFFFFF20
:101DE0000A6802F8010B0A607047D1E900239A42A1
:101DF00002D2531C0B601070704710B5436913B1C9
:101E0000AFF3008001E0FFF739FC012010BD12782C
:101E100000F124010A7000224A700122EDE71168E6
:101E20004FF0FF32E9E7431A28BF9A427FF607AE28
:101E3000104410F0030F11441EBF11F8013D521E53
:101E400000F8013D10F0030F7FF4F6AF103AC0F038
:101E50000A8010B531E91850103A20E91850BFF443
:101E6000F9AFBDE81040530724BF31E9081020E95D
:101E7000081044BF51F8043D40F8043D12F0030F30
:101E800008BF7047D20728BF31F8023D48BF11F89C
:101E9000012C28BF20F8023D48BF00F8012C7047F4
:101EA00000210160C0E901100C3001F045BA10209A
:101EB000704730B404468C464368002B18BF634516
:101EC00038BF1846F8D303681844604507D0C81CCB
:101ED00020F0070000F1040CACEB0100121A2146BF
:101EE000CCF8002030BC00220CF10400FFF782BACD
:101EF00010B500F035F8BDE8104000F02BB875467D
:101F0000FFF760FAAE4605006946534620F0070029
:101F1000854618B020B5FEF7D1FABDE820404FF055
:101F200000064FF000074FF000084FF0000B21F0C3
:101F30000701AC46ACE8C009ACE8C009ACE8C00990
:101F4000ACE8C0098D4670470446AFF300802046D8
:101F5000FEF7D4F9002801D000F02AB8704700003D
:101F600010B5012805D0002103A000F028F80120B9
:101F700010BD09A1F8E7000053494752544D454DA3
:101F80003A204F7574206F662068656170206D651A
:101F90006D6F7279000000003A2048656170206D15
:101FA000656D6F727920636F72727570746564000D
:101FB00001491820ABBEFEE726000200704770B54D
:101FC00005460C460A2000E06D1C00F011F835B102
:101FD00028780028F8D102E0641C00F009F814B158
:101FE00020780028F8D1BDE870400A20AFF30080C7
:101FF00008B569468DF800000320ABBE08BD00009F
:1020000000000000F0B589B0002600960196029607
:1020100003961A481A4D4468E868A76A10F0100F32
:102020001CBF30461DF038FB384612F070FB01280B
:1020300008D1384612F03EFC012084F82E003046CC
:102040001DF02AFB284604AA002100F0C8F90498D4
:1020500000909DF81A008DF80600DDF81B00029034
:10206000DDF81F0003906946384612F05AFC61689B
:1020700000291CBFA068884709B0F0BD743000205B
:102080000064004000201DF007BB00201DF040BB95
:1020900070B58AB001200021009101910291039155
:1020A00019491A4D8C68E968A66A11F0100F18BF1B
:1020B0001DF0F2FA304612F02AFB012807D1304613
:1020C00012F0F8FB012084F82E001DF0E5FA2846F6
:1020D00004AA002100F083F9049800909DF81A00EA
:1020E0008DF80600DDF81B000290DDF81F0003905C
:1020F0006946304612F015FC616800291CBFA068D3
:1021000088470AB070BD00007430002000680040AD
:1021100001201DF0C1BA01201DF0FABA10B4082345
:1021200004224FF0100CB1F5007F40D021DC2029B3
:1021300002BF036110BC704710DC012901BF1D49BB
:10214000816010BC7047042902BFC36010BC704797
:10215000082908BFC0F80CC010BC7047402902BF56
:10216000C0F810C010BC7047B1F5807F1FD010BC04
:1021700070470024B1F5004F08D00BDCB1F5806F3B
:1021800015D0B1F5006F1CBF10BC70478461426070
:1021900010BC7047B1F5803F02BF436010BC704770
:1021A000B1F5003F08BFC0F804C010BC70474260E2
:1021B00010BC704701010100A0F1804110B5B1F5DC
:1021C000C8414FF0010109D0880600F02DFCBDE8A0
:1021D000104000214FF0806000F026BC4FF00070EE
:1021E00000F022FCBDE8104000214FF0007000F02C
:1021F0001BBC000030B4817A354B012202FA01F198
:102200001A6842F001021A60DFF8C8C0DCF800204A
:102210008A43CCF80020047B2F4AD4B914688C433D
:1022200014604488C58844EA0544857AED0005F1C8
:10223000804505F5C045C5F840460488858844EAD0
:102240000544857AED0005F1804505F5C045C5F8E2
:102250004446047B012C18D114680C431460847A22
:102260000268E40004F1804404F5C0444FEA3242BD
:10227000C4F84026847A4268E40004F1804404F5FE
:10228000C0444FEA3242C4F84426C47A134A002CB0
:1022900014680CBF8C430C4314600489104A14B9B1
:1022A00014688C4314600489012C02D114680C4317
:1022B0001460407B012804D1DCF800000843CCF80E
:1022C0000000186820F00100186030BC7047000062
:1022D000006600401C6600400C660040046600403A
:1022E00014660040002A426914BF114322EA01012A
:1022F000416170470268002322F002020260026816
:1023000042F0010202604FF6FF7200BFD0F804C035
:102310001CF0010F03D1934218BF5B1CF6D1436838
:1023200013F0010F59D08B79012B03680CBF43F0D8
:10233000800323F080030360CB79012B03680CBF7B
:1023400043F0400323F0400303600B7A012B036842
:102350000CBF43F0200323F0200303604B7A012BD2
:1023600003680CBF43F0100323F0100303608B7A63
:10237000012B03680CBF43F0080323F0080303603C
:10238000CB7A012B03680CBF43F0040323F0040352
:1023900003608B7891F803C09B0743EA0C6391F8C4
:1023A00004C043EA0C4391F805C0098843EA0C5382
:1023B000491E1943C161016821F00101016000213A
:1023C000436813F0010F1CBF9142491CF8D14068CB
:1023D00010F0010F04BF012070470020704700EB90
:1023E0000113D3F8B0C11CF0040C82F808C0D3F874
:1023F000B0C107BF4FEA5C5CC2F800C04FEADC0C1A
:10240000C2F804C0D3F8B0C10CF0020C82F809C0C5
:10241000D3F8B4C10CF00F0C82F80AC0D3F8B4C1E1
:102420004FEA1C2C82F813C0D3F8B8C182F80BC055
:10243000D3F8B8C14FEA1C2C82F80CC0D3F8B8C14D
:102440004FEA1C4C82F80DC0D3F8B8C14FEA1C6C9F
:1024500082F80EC0D3F8BCC182F80FC0D3F8BCC15B
:102460004FEA1C2C82F810C0D3F8BCC14FEA1C4CB8
:1024700082F811C0D3F8BC311B0E937421B10169ED
:1024800041F0200101617047C16841F02001C16045
:102490007047000009490A6842F001020A600A68B0
:1024A00022F4877222F478520A600A6842EA002015
:1024B0000860086820F0010008607047006600406E
:1024C00000218171C171017241728172C17281708A
:1024D000C170032101710221417101210180704706
:1024E00010B402460020936813F0806F3FD000BF05
:1024F00002EB0012D2F8803103F00103C2F8803100
:102500000B7A002B42D0D2F880C14C684CEA03030E
:1025100091F809C04CEAC40C43EA0C03C2F88031BC
:102520008B7A03F00F038B72D2F8843123F00F0300
:10253000C2F88431D2F8843191F80AC043EA0C031E
:10254000C2F88431CB7AD1F80CC043EA0C23C2F82C
:102550008831CB7B096943EA0121C2F88C11D2F89A
:10256000801141F00101C2F8801110BC70479068E1
:1025700010F0006F18BF0120BAD1906810F0805F92
:1025800014BF02200420B3D110BC7047D2F88031B0
:1025900091F809C043EA0C03B1F800C043EA4C5378
:1025A000BCE700B5002200F007F8C04380B201028A
:1025B00041EA102080B200BD05E000BF30F8023BC8
:1025C000891E5BBA1A440129F8DC11B1007802EBCC
:1025D000002290B200EB124000EB104080B2704736
:1025E000084400EB104080B2704700002DE9F04F26
:1025F00042484FF0000B93B046685F4649F21A0814
:10260000357C4FF4407A4FF00049706900EB0510BB
:102610000168C1F30D410C1F016811EA080F18BFD2
:10262000012732D100683AEA000018BF02272CD1F6
:102630003348001988BF032727D844F0004011F021
:102640005DFC44F000410090002808BF04271CD026
:102650000820726900EB0510E31C105820F00302FB
:102660000098001D9C0805D052F8043B40F8043B3C
:10267000641EF9D12348026812B10098001D9047EA
:10268000009811F0B9FE4FF0010B706900EB0510D6
:10269000C0F8009077B1022F08BF4FF0FF343B46DF
:1026A00019A2402102A80094FEF7CCFF02A9F02055
:1026B00012F0EAFFF07A6D1C854208BF00253574E0
:1026C000706900EB0510006810F0004F9DD0194CA8
:1026D0006069194D10F0800F06D065610020A06080
:1026E00016A1F02012F0D0FF6561BBF1000F18BFFA
:1026F00011F0D4FB13B0BDE8F08F0000A40400205B
:1027000016FAFFFFA00400204554485F4952514883
:10271000616E646C657228293A206572726F72204E
:10272000256420666F72206672616D655B25645D4D
:102730000000000000900240C08001004554485F46
:1027400049525148616E646C657228293A2065725D
:10275000726F7220350000002DE9F0010022012582
:102760005FF00306D1F800C005FA02F30CEA030C8F
:102770009C4533D107684FEA420C06FA0CF4A74394
:1027800007600F79D0F8008007FA0CF747EA0807CE
:1027900007600F79012F18BF022F14D18768A74354
:1027A00087604F79D0F8088007FA0CF747EA0807E6
:1027B0008760476827EA0303436043688F7997403F
:1027C000BFB23B434360C368A343C360CB7903FA02
:1027D0000CF3D0F80CC043EA0C03C360521C102A5F
:1027E000C0D3BDE8F00170474B07DB0E9A40C90823
:1027F00000EB8100016A4FF00F0C0CFA03F39943D0
:102800000162016A114301627047024600201269A9
:102810000A4218BF012070470246002052690A424E
:1028200018BF012070474269514041617047002A3A
:1028300014BF0183418370470029018814BF41F40C
:10284000806121F4806101807047838A0022008BBF
:1028500043EA004020F07F4031EA000008BF012237
:1028600010467047C943818270470029018814BF10
:1028700041F0010121F00101018070470029018828
:1028800014BF41F4807121F48071018070470029E8
:10289000018814BF41F4007121F400710180704778
:1028A00082B00246002000920A0F21F07F4101927F
:1028B00008BF090C009A14BF143218320092126833
:1028C0000A4218BF012002B07047818A008B41EA9A
:1028D000004020F07F40704770B50446808884B087
:1028E0000D4620F03F06684600F0C2F829490298DC
:1028F000B0FBF1F189B246EA0102A280228822F0FF
:1029000001022280244B2A689A421DD85200B0FB53
:10291000F2F080B2042838BF0420491C2184A0832F
:10292000208840F0010020802088A9886A8920F052
:102930000A0020F48060114308432080A889298977
:102940000843208104B070BDEB88A3F53F4CBCF177
:10295000FF0C19D002EBC20303EB0212B0FBF2F042
:1029600080B240F480400205120D08BF40F0010023
:1029700040F400404FF4967251434FF47A72B1FB29
:10298000F2F1491C2184CAE702EB4202B0FBF2F0EB
:1029900080B2E8E740420F00A0860100002A14BF81
:1029A00041F0010101F0FE01018270470182704790
:1029B000034940F0FD7040F08060086070470000FF
:1029C0000CED00E021F07F0121F060410843014956
:1029D0000860704708ED00E0004870479C03002045
:1029E000044A0029116814BF084321EA000010605E
:1029F0007047000030380240044A0029116814BFB3
:102A0000084321EA000010607047000010380240BF
:102A1000044A0029116814BF084321EA000010602D
:102A20007047000040380240044A0029116814BF72
:102A3000084321EA0000106070470000203802407F
:102A4000044A0029116814BF084321EA00001060FD
:102A50007047000044380240044A0029116814BF3E
:102A6000084321EA0000106070470000243802404B
:102A7000254A30B41168254B11F00C0106D0244CC6
:102A8000042908BF046002D008291ED00360116821
:102A90000F2303EA11111F4B595CD0F800C02CFA28
:102AA00001F14160D2F800C0072404EA9C2C13F81D
:102AB0000CC021FA0CFCC0F808C0126804EA5232BB
:102AC0009A5CD140C16030BC70471349D1F800C056
:102AD000CCF38055D1F800C0002D0CF03F0C14BF92
:102AE000B4FBFCF3B3FBFCF3D1F800C00968CCF3F2
:102AF000881C03FB0CF3C1F30141491C4900B3FBE3
:102B0000F1F10160C3E70000083802400024F4003E
:102B100080F0FA02BC0500200438024000201CF0BE
:102B20005FBD01201CF05CBD02201CF059BD0029D6
:102B3000018814BF41F0400121F04001018070473D
:102B400010B5A0F18041B1F598311AD011F5784156
:102B500022D0B1F580612AD0B1F5784132D0B1F5FB
:102B6000E0513AD0B1F5806118BF10BD0121480590
:102B7000FFF772FFBDE8104000214FF40010FFF78F
:102B80006BBF01210803FFF767FFBDE8104000217C
:102B90004FF48050FFF760BF01218803FFF744FF27
:102BA000BDE8104000214FF48040FFF73DBF0121F8
:102BB000C803FFF739FFBDE8104000214FF4004083
:102BC000FFF732BF01214803FFF746FFBDE8104081
:102BD00000214FF40050FFF73FBF01210805FFF728
:102BE0003BFFBDE8104000214FF48010FFF734BFD9
:102BF0000246002012890A4218BF012070470909C5
:102C0000012303FA01F1002A828889B214BF11431B
:102C100022EA010181807047808970478181704775
:102C200010B402880B88B1F802C0CC8843EA0C03C8
:102C3000B1F804C002F441524CEA040C43EA0C031C
:102C4000B1F808C043EA0C03B1F80AC043EA0C0328
:102C5000B1F80CC043EA0C03B1F80EC043EA0C0310
:102C60001A430280828B22F400628283098A0182E5
:102C700010BC70470021018041808180C1800181AA
:102C800041818181C1810721018270470149C1F8D9
:102C9000DC0070470000274282B0002229490192DF
:102CA0000092086840F480200860086840F4803092
:102CB0000860086800F4003000900198401C019002
:102CC000009818B90198B0F5A04FF2D1086810F437
:102CD000003F02BF009202B07047012000901A48E6
:102CE000026842F0805202601848026842F4404292
:102CF0000260174802680260026842F40042026003
:102D0000026842F4A0520260031F124A1A600A6865
:102D100042F080720A600A6812F0007FFBD00E4A0F
:102D200040F205711160016821F003010160016842
:102D300041F002010160016801F00C010829FAD19B
:102D400002B0704700380240403802400070004036
:102D50000838024032544007003C0240010241EA78
:102D6000102080B270470000DFF86CC030B4DCF88F
:102D700000001A4B10F00C01194806D0194C042918
:102D800008BF046002D008290CD00360DCF80010F2
:102D9000154AC1F30311515C026822FA01F1016086
:102DA00030BC704711490A68C2F380550A68002D8B
:102DB00002F03F0214BFB4FBF2F2B3FBF2F20B6875
:102DC0000968C3F388135A43C1F30141491C490000
:102DD000B2FBF1F10160D9E7083802400024F400A9
:102DE000FC03002080F0FA02403604080438024058
:102DF000134810B5016841F4700101601148016881
:102E000041F001010160104A00211160026822F4C2
:102E1000102222F080720260031D0C4A1A600268C0
:102E200022F4802202600A48016012F085FCFFF75C
:102E300033FF08494FF000600860FFF795FF10BDB1
:102E400088ED00E0003802400838024010300024CD
:102E50000C38024008ED00E010B5084C0121204676
:102E600000F0D8F9012818BF10BD0121204600F05C
:102E700004F9BDE8104008201CF04ABE00400140A3
:102E800010B5084C0121204600F0C4F9012818BFF4
:102E900010BD0121204600F0F0F8BDE810400A20E6
:102EA0001CF036BE0048014010B50F4C01212046F1
:102EB00000F0B0F9012806D10121204600F0DDF82C
:102EC00000201CF025FE094C0121204600F0A2F94B
:102ED000012818BF10BD0121204600F0CEF8BDE842
:102EE000104009201CF014BE0000014000440140C5
:102EF00010B50121880700F08DF9012818BF10BD19
:102F00000121880700F0B9F8BDE8104001201CF04D
:102F1000FFBD000010B5084C0121204600F07AF9F1
:102F2000012818BF10BD0121204600F0A6F8BDE819
:102F3000104002201CF0ECBD0004004010B5084C0D
:102F40000121204600F066F9012818BF10BD0121BB
:102F5000204600F092F8BDE8104003201CF0D8BDD8
:102F60000008004010B5084C0121204600F052F93D
:102F7000012818BF10BD0121204600F07EF8BDE8F1
:102F8000104004201CF0C4BD000C004010B5084CDB
:102F90000121204600F03EF9012818BF10BD012193
:102FA000204600F06AF8BDE8104005201CF0B0BDD6
:102FB0000010004010B5084C0121204600F02AF90D
:102FC000012818BF10BD0121204600F056F8BDE8C9
:102FD000104006201CF09CBD0014004010B5084CA9
:102FE0000121204600F016F9012818BF10BD01216B
:102FF000204600F042F8BDE810400B201CF088BDD0
:103000000018004010B5084C0121204600F002F9DC
:10301000012818BF10BD0121204600F02EF8BDE8A0
:1030200010400D201CF074BD0020004010B50F4C66
:103030000121204600F0EEF8012806D101212046AA
:1030400000F01BF807201CF063FD094C012120460D
:1030500000F0E0F8012818BF10BD0121204600F063
:103060000CF8BDE810400C201CF052BD00040140DB
:10307000001C0040C94301827047C9430182704768
:103080000029018814BF41F0010121F001010180F4
:10309000704710B5A0F18041B1F5803132D0B0F168
:1030A000804F43D011F57C4136D0B1F5806147D0D7
:1030B000B1F580614ED0B1F5806155D0B1F5806138
:1030C0005CD0B1F5704163D0B1F570516AD0B1F503
:1030D000806172D0B1F580617AD011F598317DD0E0
:1030E000B1F580617BD0B1F5806118BF10BD0121C1
:1030F0000802FFF799FCBDE8104000214FF48070F2
:10310000FFF792BC01210846FFF7A6FC0021BDE8AD
:1031100010400120FFF7A0BC01210220FFF784FC32
:103120000021BDE810400220FFF77EBC01210846C7
:10313000FFF77AFC0021BDE810400120FFF774BCC6
:1031400001210420FFF770FC0021BDE8104004209D
:10315000FFF76ABC01210820FFF766FC0021BDE8EB
:1031600010400820FFF760BC01211020FFF75CFC35
:103170000021BDE810401020FFF756BC012120209F
:10318000FFF752FC0021BDE810402020FFF74CBCA7
:1031900001210220FFF760FC0021BDE81040022061
:1031A000FFF75ABC01210804FFF756FCBDE81040A8
:1031B00000214FF48030FFF74FBC01214804FFF796
:1031C0004BFCBDE8104000214FF40030FFF744BC39
:1031D00001218804FFF740FC002101E006E00FE038
:1031E000BDE810404FF48020FFF736BC012140209D
:1031F000FFF71AFC0021BDE810404020FFF714BC87
:1032000001218020FFF710FC0021BDE81040802044
:10321000FFF70ABC02460020128A0A4218BF0120AA
:103220007047002A828914BF114322EA010181817B
:10323000704701858282704710B402881C4BDFF80A
:1032400074C0984218BF604511D0B0F1804F1CBFC8
:10325000A0F18044B4F5806409D0A0F18044B4F5B5
:1032600000641CBFA0F18044B4F5406403D14C88D5
:1032700022F070022243A0F18044B4F580541CBFB8
:10328000A0F18044B4F5A05403D00C8922F440721C
:10329000224302804A68C2620A880285984212BFAD
:1032A0006045897A01860121818210BC7047000047
:1032B00000000140000401404FF0FF314160002157
:1032C000018001814180817270470021016081800D
:1032D0007047C9B241EA012141EA014101608180A0
:1032E000704712F0004F1FBF22F00042D21D22F0A3
:1032F0000703102202BFD21C22F003030C221BB1D1
:1033000003EB020C8C4501D90120704702440144B3
:103310008360C0E90021C91AD01888429CBF1060A0
:103320000246F9D900201060704730380A2801D2CF
:10333000012070470020704714F060B82DE9F04775
:103340000027DFF8909000280CDA2349D9F80020F4
:1033500020F000400968024401EB4101B2EB910FFB
:1033600018D8012705460F3020F003060FB9FDF7E6
:1033700026FF1A4CD4E90002011B891AB1420CD273
:10338000044600680028F5D127B9FDF70BFF00209F
:10339000FDF754FF0020BDE8F08772B110192168D5
:1033A0000160206000F10808C0F80460D9F800103E
:1033B0003144C9F8001027B105E004F1080866603F
:1033C000F4E7FDF7EFFEA8F800500020A8F802008F
:1033D0004046E0E70C0500203804002010170020CC
:1033E0002DE9F0470746894690460026284C294D8E
:1033F0000BE0207838B10422394604F10A0013F0BA
:10340000D3F8012835D00E34761C28888642F0DBAC
:103410002149384612F0F2FFD0B91F48042200219A
:10342000001D13F0E7F810B10020BDE8F08700267A
:10343000174C0AE0207830B106224946201D13F0CF
:10344000B3F801281AD00E34761C28888642F1DBA6
:10345000404600F027F80028E7D00D49C0EBC00037
:1034600001EB40040E3C0422394604F10A0013F03B
:10347000ABF806224946201D13F0A6F8074800883D
:10348000E07007480078A070032020700120CCE78E
:10349000F01400202E040020B4140020300400207A
:1034A00028040020F0B50546012116480E46164AAC
:1034B00003E0037853B10E30491C13889942F8DDBC
:1034C0001248104B0488002001210DE00670457061
:1034D0000846F0BD5F78012F04D1DF78A74201D8FC
:1034E0003C4608460E33491C1788B942F2DD0028D5
:1034F000EFD0044AC0EBC00102EB410101F80E6DB0
:103500004D70F0BDF01400202E0400203004002087
:103510002DE9F04781460F4600253D4C3D4E0BE01E
:10352000207838B10422494604F10A0013F03CF82F
:10353000012815D00E346D1C30888542F0DB3649E9
:10354000484612F05BFFDFF8C880334D01284FF08A
:10355000040209D00021281D13F04CF8E8BB1DE03F
:10356000207803284ED350E04946281D13F01CF85C
:10357000012806D104220021281D13F03BF800B9D0
:1035800000273846FFF78EFF06003CD0C6EBC60189
:1035900008EB41040E3C042249461DE000271C4C68
:1035A0000BE0207838B10422291D04F10A0012F042
:1035B000FBFF0128D4D00E347F1C30888742F0DB1B
:1035C0000020FFF76FFF06001DD0C6EBC60108EB19
:1035D00041040E3C0422291D00E013E004F10A001E
:1035E00012F0F2FF06220D49201D12F0EDFF0C48EB
:1035F0000078A0700B480078E070304600F036F993
:10360000022020700020BDE8F0872046FBE7000084
:10361000F01400202E040020B4140020A83C04085C
:10362000280400202904002070B50D460646042217
:103630000E4912F0B9FF012814D0304612F0F0FE06
:1036400001280FD029463046FFF762FF040008D05A
:103650000422314604F10A0012F0A6FF012802D02C
:1036600002E0002070BD6570012070BDA43C04081C
:103670002DE9F0470026DFF8D480DFF8D490B24679
:10368000344F5DE0B9F80050691C89B2A9F8001008
:103690003A88914201D3A9F800A02F49C5EBC50093
:1036A00001EB40042078C8B3E07820B1401E10F050
:1036B000FF00E07043D1607801280AD10422274935
:1036C00004F10A0012F070FF012806D0607801288A
:1036D00018D010F0FF0F02D031E084F801A00422CE
:1036E0001F4904F10A0012F05FFF012817D020786B
:1036F000032818D0A07800B3401E10F0FF00A0707F
:103700001BD012E02078032817D0A078A8B1401E63
:1037100010F0FF00A07010D0022005E00FE011486B
:103720000088E0700BE00420207098F80000E07042
:10373000681CBDE8F04700F099B884F800A0761C3A
:10374000388886429EDBBDE8F0870000290400200F
:10375000180400202E040020F0140020B8140020CB
:10376000A43C0408300400202DE9F0410646002561
:10377000134C00F10E08134F0DE0207848B10128DA
:1037800007D0042204F10A01404612F00DFF01287F
:1037900006D00E346D1C38888542EEDBBDE8F08122
:1037A000062206F10801201D12F00EFF06480088CF
:1037B000E07006480078A07003202070EEE700005B
:1037C000F01400202E0400203004002028040020E3
:1037D0002DE9F04105460E462A20FFF7AFFD0446CD
:1037E00005F1080106220F46001D12F0EDFE06222B
:1037F0001C4904F10A0012F0E7FE4FF4C160208278
:103800004FF4807060820820A0820620A0750420FA
:10381000E075268304F1240006223946064612F09C
:10382000D3FE05F10E0104F12A000422054612F030
:10383000CBFE06220B4904F11A0012F0C5FE042249
:10384000094904F1200012F0BFFE0122314628464A
:10385000FFF7C6FD2046FDF7A1FC2046BDE8F0417C
:103860000DF04EBD3C040020B414002070B5054698
:103870002A20FFF763FD044606222349001D12F0AB
:10388000A3FE0622214904F10A0012F09DFE4FF426
:10389000C16020824FF4807161820820A0820620DE
:1038A000A0750420E07521830622184904F11A004E
:1038B00012F08AFE0422164904F1200012F084FE60
:1038C0004FF0060265B1002104F1240012F08AFED7
:1038D0001049C5EBC50001EB40010422091F06E0B9
:1038E000094904F1240012F06FFE0949042204F191
:1038F0002A0012F069FE2046FDF750FC2046BDE884
:1039000070400DF0FDBC0000A83C04083C04002001
:10391000B4140020F014002010B50446006806F02E
:10392000E1FA606806F0DEFA2169A06807F0BAFFE4
:1039300000206063A063606210BD70B58AB0054668
:1039400002F098FD02F088FD0446002601F06EF8B2
:10395000002301AA294601F08AF89DF8040006F523
:10396000CA43C0F34301C0F3411241EA0225C0211A
:10397000ADF808108021ADF80A104FF45451ADF89D
:103980000C1002A9009100F001011E462A462046B3
:1039900000F0BCFB4FF42770ADF8220042F6E06067
:1039A000ADF8200008A800909DF80400F3B203F5DC
:1039B000E04300F001011E462A46204600F0A6FB27
:1039C00041F28830ADF8240009A800909DF8040069
:1039D000F3B200F001012A46204603F5904300F0BF
:1039E00095FB0AB070BD00000648016891F82010F0
:1039F000002905D0406803224168022013F068BF07
:103A00007047000050060020C0F3033003490C2823
:103A100001D90868704751F8200070474001002024
:103A200018B152EA030103D004E04FF0FF307047B1
:103A300042F2222222F07F42110A120642F00202D2
:103A4000C0E90021034981606FF07F41C16000201F
:103A5000704700000A00016310B54FF0FF3428B131
:103A600003A13830FEF76EF8002800D0204610BDC4
:103A7000455854001DF096B81DF0CEB81DF0DBB8C7
:103A800070B5040000D1194C18484022184908307C
:103A90001DF026F816481CF009FF01280CD0134928
:103AA00040221031A1F108001DF045F80F484022D6
:103AB0000F4908301DF014F820791CF0E5FF4FF095
:103AC000FF3510B1206870B180471DF027F910B1A3
:103AD000206840B180471DF0E3F810B1206810B1B4
:103AE0008047002070BD284670BD0000301F0408CC
:103AF000940700201CF0E6BF002070471DF05BB962
:103B00001DF066B91DF074B91DF0ABB91DF0B9B95F
:103B10001DF03FB870B50446C0680D46002863D05C
:103B200000204AB1D10717D0618B322911D9217EEB
:103B300041F04001217610E021696D1A02D505F5AA
:103B4000803504E0B5F5803F01DBA5F58035608365
:103B500010E0491C618300E0608391070AD5A18BC6
:103B6000322904D9217E41F08001217603E0491CED
:103B7000A18300E0A083217E890719D58CB32AB9DF
:103B8000617E01B965606168A94201D0607628E074
:103B9000617E491CCAB26276032A22D36560A560A1
:103BA000256060616076207E20F00201217618E0B9
:103BB000BAB96068281A12F02DFD303065606028AF
:103BC0000FD8A068281A12F025FD08B9616941B123
:103BD000A560616960610144491002D02068084411
:103BE00020602168E068484370BD10B505F0CEFA4A
:103BF00001232022042105F0D3FA00280BD0002154
:103C00000160416081600161C160416141838183E4
:103C100041760721017610BD18B1002101700846D8
:103C200070476FF00100704710B528B121B11EC96F
:103C300080E81E00002010BD6FF0010010BD7FB5B0
:103C40000D46002106464C1E019100F079F801282E
:103C500004D002280ED003282ED118E0009101AA2A
:103C60006946304600F044F8019808B300990DF019
:103C700098F91CE0009101AA6946304600F04CF822
:103C80000198A8B12A4600990DF07AF90FE0039146
:103C9000009101AB6A4603A9304600F010F8039981
:103CA00031B1019828B12B46009A0DF053F9044622
:103CB00002E000240098884704B0204670BD10B58B
:103CC00058B151B14AB143B10478032C08D0002057
:103CD000086018601060401E10BD6FF0010010BD3C
:103CE00044680C60C168196080681060002010BDD5
:103CF00048B141B13AB10378012B07D000200860E8
:103D00001060401E70476FF00100704743680B6001
:103D1000806810600020704748B141B13AB1037823
:103D2000022B07D0002008601060401E70476FF023
:103D30000100704743680B60806810600020704786
:103D4000002800D00078704710B505F01FFA012355
:103D50001022042105F024FA0021017010BD10B5D5
:103D600030B1032400F8044B80E80E00002010BDA1
:103D70006FF0010010BD28B101230370C0E90112EA
:103D8000002070476FF001007047002800D04068A5
:103D90007047002800D00068704700002DE9F04708
:103DA00017460C4605001E461DD0E4B1DEB118468C
:103DB00006F033FB204606F0D7FA8146204606F08F
:103DC000D7FA8046484606F0BBFB78B1B8F1000F41
:103DD0000FD0686820B104F13802394601F0AAFE1C
:103DE0000020BDE8F0876FF00100FAE74FF0FF30E8
:103DF000F7E700221146484606F06EFB626888B17C
:103E00004FEA070104F120031F46286805F0AEFDC4
:103E100010B1384605F0F4FB31462046AA6816F08A
:103E200095FFDDE701480168ECE70000601D04082C
:103E300038B5104D040007D102F09CFC0E4B0FA2C8
:103E40000421009502F06AFC02F094FC00952168C0
:103E500001B10121084B10A202F056FC05F096F9C1
:103E600001230C22042105F09BF994E80E0080E860
:103E70000E0038BD941D040880270408656F5F613B
:103E800067656E745F4E657728293A204E554C4C15
:103E90002063666700000000656F5F6167656E7490
:103EA0005F4E657728293A204E554C4C2063666753
:103EB0002D3E6E76736574002DE9FE431C460A9D07
:103EC0001646884658B354B3B8F1000F27D036B31E
:103ED000184606F0A2FA307820F0C3008DF80400EE
:103EE00070788DF805007088ADF806007068029053
:103EF000707806F025FB4FF0FF37A0B1182241463D
:103F000004F12000FDF79BFDDDE90101C4E900019A
:103F100001A806F0D3FA012807D0002016E06FF0C0
:103F20000100BDE8FE833846FBE7B06830B1728817
:103F30006280B168A068FDF7FBFC08E06B460021D9
:103F40004046A26805F06CFBBDF800006080307848
:103F5000000700D5F768E7603078400703D44FF0DA
:103F6000FF30014603E00CF069FE0CF074FEC4E97A
:103F700004012DB162886178206806F06BFA288010
:103F80000020CEE738B50C4605466A4600F05EF8DC
:103F9000002806D100239DF800202146284600F085
:103FA0005EF938BDF0B587B00D46040043D0E5B3E7
:103FB0003F2738460EF026FE02A928460DF0C0FB2A
:103FC0009DF8080078B304EBC506012030769DF813
:103FD0000800707638460EF017FE1A48006800EBAD
:103FE0008001F06913F012FF0024C0B1039417217F
:103FF0000020049408F0BCFB03900DB35FF00200B6
:10400000ADF810008DF812408DF8134002F0B2FBAD
:1040100003A900910C4B0022032102F07FFB3846DC
:104020000EF0F0FD3476384600E007E00EF0ECFDCF
:10403000002007B0F0BD6FF00100FAE71327B8E7E2
:104040000120DDE738360408082404080B4618B1BF
:10405000114618460DF0A6BB6FF001007047000036
:10406000F8B5060000D1274E274800680090684642
:1040700002F056FD05002CD005F088F801234422FB
:10408000042105F08DF8044696E80F0084E82F001F
:1040900000252575657684F82150257684F8205012
:1040A0002946FF2013F002FF0200E26111D0002137
:1040B000104613F057FF0021FF2013F0F7FE606257
:1040C000002807D0002113F04DFF204616F016FF00
:1040D00008B10020F8BD84F8285084F82950002148
:1040E000FF2013F0E3FEE0620028F3D00021FF2060
:1040F00013F0DCFE206384F82A500028EAD0204622
:10410000F8BD0000000D00206C24040838B5049CA4
:1041100018B1009416F052FF38BD6FF0010038BDA1
:104120002DE9FC411C4616460F46050019D000F04B
:104130007DFC002301AA394600F099FC00280ED12D
:104140009DF804103346C1F34300C1F3411240EA25
:10415000022201F001012846009416F02FFFBDE86D
:10416000FC816FF00100FAE72DE9FC411C46164680
:104170000F46050019D000F059FC002301AA39466A
:1041800000F0E1FC00280ED19DF804103346C1F385
:104190004300C1F3411240EA022201F00101284626
:1041A000009416F00BFFBDE8FC816FF00100FAE708
:1041B0002DE9FC4105004FF000001C4616460F4655
:1041C000019014D000F032FC01AA394600F090FDB5
:1041D00000280AD19DF804003346C0F3430200F0E2
:1041E00001012846009416F0E9FEBDE8FC816FF05D
:1041F0000100FAE72DE9FC4105004FF000001C46E4
:1042000016460F46019014D000F010FC01AA394662
:1042100000F0DEFD00280AD19DF804003346C0F30B
:10422000430200F001012846009416F0C7FEBDE8E5
:10423000FC816FF00100FAE750B1002201750276AF
:1042400080F82020012906D080F82820002070471F
:104250006FF001007047012180F82810F6E72DE982
:10426000FF4706004FF000001F4690468A46009028
:10427000019002900546039002D0002481461BE085
:104280006FF0010004B0BDE8F087CDF80090CDF8E4
:104290000490CDF80890002269465046CDF80C9065
:1042A0000DF07AF950B96D1CEDB25246694630698D
:1042B00002F045FC641CE4B24445E6D307B13D700E
:1042C00006EBCA0090F8380070B15146304616F03F
:1042D00011FF06F045FE4FF47A72032106F084FECA
:1042E0005146304616F062FE0020CBE7F8B5054691
:1042F0004FF0000016460C008DF8000033D03F2729
:1043000085B338460EF07EFC694620460DF018FA5B
:1043100017499DF800000855291981F829003846E9
:104320000EF072FC9DF8000010B120460DF050FA1E
:1043300005EBC40090F8380070B12146284616F00D
:10434000D9FE06F00DFE4FF47A72032106F04CFE02
:104350002146284616F02AFE16B19DF8000030705E
:104360000020F8BD01E01327CAE76FF00100F8E76D
:10437000A5030020FEB50D46002450B3411991F865
:10438000291021B3154900EB85000968C06A01EBCB
:10439000410113F03BFD040019D0002601961721BE
:1043A0003046029608F0E4F90190ADB15FF00200EA
:1043B000ADF808008DF80A608DF80B6002F0DAF9AC
:1043C00001A90091064B0022032102F0A7F9204623
:1043D000FEBD6FF00100FEBD0120E9E7383604089C
:1043E00008240408002800D0283070472DE9F8433D
:1043F000DFF8A8900E461F4619F8063000F11805A0
:1044000090465A5D06EB46044FF0FF3100EB440442
:1044100072BB3A46694618460DF09AFB010002D07D
:10442000A08D401CA0850023009A184622FA00FCAB
:10443000401C8CEA030CC0B20CF0FF031228F5D329
:10444000DB074FF0000004D1C2F3C2030120042BAC
:1044500008D004EB4000038D5B1C0385387840F0E6
:10446000020038704FF6F07000EA9202C8F800209F
:1044700019F80600425D012A0DD13A4669460DF051
:1044800067FB010002D0A08D401CA0850098C0F3FE
:104490000F12C8F800200846BDE8F883132404086A
:1044A0002DE9F04105004FF0000051D004F06EFE00
:1044B00001239022042104F073FE044618222946A9
:1044C000FDF7BDFA0323002220461146154600E001
:1044D000002100EBC2067718BF78FF2F05D096F9B0
:1044E0000060BEB3012E01D006E0FF2602FB030CE4
:1044F00001F118070CF80760491CC9B29942E8D3CA
:10450000521CD2B2022AE3D304F11E01022300227C
:104510000F46204616F0CFFE04F1230105230322A7
:104520000E46204616F0C7FE3B46022200212046DA
:1045300016F042FE334605220321204616F03CFECB
:10454000262104F12800FDF7D6FA256520462567C7
:10455000BDE8F081FFE702FB030701F11806BD5536
:10456000CAE770B5040023D016F0ECFD94F82100E2
:1045700000250126FF280AD0256513F011FDC4E9A6
:10458000140184F8226094F821000DF0E5FB94F802
:104590002600FF280AD0256713F002FDC4E91C019C
:1045A00084F8276094F826000DF0D6FB002070BD3B
:1045B0006FF0010070BD90F82110FF2908D090F82D
:1045C0002610FF290AD090F82710022906D003E010
:1045D00090F82700022804D00020704790F82200AD
:1045E000F8E70120704790F82200022801D000204F
:1045F00070470120704790F82700022801D0002062
:10460000704701207047000038B505004FF00000EA
:1046100011D004F0BBFD01230C22042104F0C0FDE5
:1046200004462878207000F001FA6A46002100F064
:1046300009FB08B1002038BD00990968C4F80110D1
:1046400000F0F4F900F0F2FAA0800028F3D004F0B2
:104650009DFDA3880822042104F0A2FDA060002093
:104660000421B7EE000ADFED0A0A0CE0A26801EBB4
:10467000C00302EBC002401C82ED000AA268C0B277
:104680001A44C2ED000AA2888242EFD8204638BD03
:1046900000000000806800EBC10080ED000A0020EF
:1046A00070478068042202EBC101084480ED000AD3
:1046B00000207047B2F1004F01D36FF000428068D4
:1046C00000EE102A00EBC100B8EEC00AD0ED000ADF
:1046D00080EE201ABDEEC10A10EE100A00B270473B
:1046E000806800EE102A00EBC100B8EE400AD0ED61
:1046F000000A20EE800ABCEEC00A10EE100A7047D5
:104700008068B2F1004F00EBC10090ED000A01D3C8
:104710006FF0004200EE902AF8EEE00A80EE801A78
:104720009FED040AC1EE000ABDEEE00A10EE100A89
:1047300000B2704700007A44806800EE102A00EB57
:10474000C100B8EE400AD0ED000A20EE800ADFED8D
:10475000040A20EE200ABCEEC00A10EE100A7047D0
:1047600000007A44806800EE102A00EBC100B8EE29
:10477000C00AD0ED000A80EE201ABDEEC10A10EE8C
:10478000100A704710B52DED028B8378806802FA0D
:1047900003F450F831001DF0B5F908EE100A21F0CD
:1047A000004118EE100A41EC180B20461DF081F86C
:1047B00053EC182B1DF0A8F81DF01EF8044908440E
:1047C000490090FBF1F0BDEC028B00B210BD00007F
:1047D00020A10700806800EE102A00EBC10304222C
:1047E000B8EEC00AD3ED000A02EBC101084480EE26
:1047F000201A90ED000A31EE400ABDEEC00A10EE1C
:10480000100A70478068042300EE102A03EBC103EE
:104810000344B8EEC00AD3ED000A00EBC10070EE0D
:10482000800A90ED000A20EE800ABDEEC00A10EE6C
:10483000100A7047806800EE102A00EBC100B8EE45
:10484000C00AD0ED000A80EE201ABDEEC10A10EEBB
:10485000100A7047836800EE102A03EBC1018078CC
:10486000B8EEC00AD1ED000A20EE800ABDEEC00A03
:1048700010EE101A81404FF47A7001F5FA7191FB35
:10488000F0F000B2704710B514462DED028B806831
:1048900050F831001DF036F908EE100A21F0004101
:1048A00018EE100A41EC180B20461DF002F853ECEC
:1048B000182B1DF029F81CF09FFF0A2190FBF1F046
:1048C000BDEC028B00B210BD104670471046704719
:1048D000002802D0002180F8481070472DE9F047E9
:1048E00017468846050000D01FB16FF00100BDE8F3
:1048F000F087E86900F042FD06464046002408F0D3
:104900000108C0F3430915E0E1B2E86900F0BEFC1C
:10491000018801F0010343450AD1C1F343024A452E
:1049200006D13968C0F80210B988C1800020DEE7DE
:10493000641CA4B2B442E7D36FF00400D7E72DE9BA
:10494000F0471746884605000BD057B1E86900F0DC
:1049500015FD06464046002408F00108C0F343094F
:1049600015E06FF00100BDE8F087E1B2E86900F002
:104970008DFC008800F00102424506D1C0F34301DE
:10498000494502D13C700020EDE7641CA4B2B4425A
:10499000EBD36FF00400E6E770B515460E46040051
:1049A00008D03DB1E06900F0E9FCB04205D86FF0F5
:1049B000040070BD6FF0010070BD3146E06900F089
:1049C00065FC2860002070BD2DE9F0411D46069E63
:1049D0001446884607000CD05CB155B14EB1F86959
:1049E00000F0CCFC4146404506D86FF00400BDE81D
:1049F000F0816FF00100FAE7F86900F047FC0278F7
:104A0000217862F3000121700278520862F34401B8
:104A100021F0E00121700188090A2970D0F8021004
:104A20003160C088B0800020E1E700000248007ECD
:104A3000002800D000487047100D002070B51546C2
:104A40000E46040008D03DB1206A00F097FCB04249
:104A500005D86FF0040070BD6FF0010070BD3146E5
:104A6000206A00F013FC80682860002070BD2DE9EA
:104A7000F047984614460E46050017D0B4B1286A90
:104A800000F07CFC6FF00409B0420CD93146286A72
:104A900000F0FCFB0746007800F03F06E86900F0F4
:104AA0006DFCB04205D84846BDE8F0876FF00100C4
:104AB000FAE73146E86900F0E9FB39788A0921789C
:104AC00062F3461121700278520862F344012170AA
:104AD0000278B8F1000F62F30001217003D0008862
:104AE000010A88F800100020DEE72DE9F0411746A2
:104AF000040004D01FB1CEB2F00709D103E06FF07B
:104B00000100BDE8F081A18EC6F34300884202D3C4
:104B10004FF0FF30F5E7A16B0D5CE06900F02EFC73
:104B20006FF00408A8420CD92946E06900F0AEFBFA
:104B3000C6F341110844007A3870FF2801D00020E4
:104B4000DFE74046DDE72DE9F047984614460E467C
:104B5000050017D0B4B1686A00F010FC6FF00409CA
:104B6000B0420CD93146686A00F090FB07460078E5
:104B700000F03F06E86900F001FCB04205D8484665
:104B8000BDE8F0876FF00100FAE73146E86900F010
:104B90007DFB39788A09217862F346112170027809
:104BA000520862F3440121700278B8F1000F62F3F9
:104BB0000001217003D00088010A88F8001000204D
:104BC000DEE72DE9F0411746040004D01FB1CEB254
:104BD000F00709D103E06FF00100BDE8F081A18E7C
:104BE000C6F34300884202D34FF0FF30F5E7A16BD4
:104BF0000D5CE06900F0C2FB6FF00408A8420CD91C
:104C00002946E06900F042FBC6F341110844807A6E
:104C10003870FF2801D00020DFE74046DDE70000C4
:104C20000148C06900F0AABB100D00200148006ACD
:104C300000F0A4BB100D00200148406A00F09EBBAC
:104C4000100D002070B515460E46040008D03DB189
:104C5000206A00F093FBB04205D86FF0040070BDED
:104C60006FF0010070BD3146206A00F00FFB406814
:104C70002860002070BD70B515460E46040008D0AF
:104C80003DB1206B00F07AFBB04205D86FF0040014
:104C900070BD6FF0010070BD3146206B00F0F6FA78
:104CA00000682860002070BD2DE9F041164605001F
:104CB00004D01EB1002401F0010711E06FF00100E3
:104CC000BDE8F081E1B2286B00F0E0FA006828B19D
:104CD0000078874202D134700020F1E7641CA4B24E
:104CE000286B00F04BFBA042ECD86FF00400E7E724
:104CF0002DE9F04116460D46040018D0BEB1A06A59
:104D000000F03CFB6FF00407A8420DD92946A06AC9
:104D100000F0BCFA006838B1007800F03F05E069A7
:104D200000F02CFBA84205D83846BDE8F0816FF0B2
:104D30000100FAE72946E06900F0A8FA0278317824
:104D400062F3000131700078400860F3440121F003
:104D5000E00030700020E8E72DE9F0471646050036
:104D600005D026B100246FF00409CFB229E06FF01E
:104D70000100BDE8F087E1B2A86A00F087FA006898
:104D800020B3007800F03F08E86900F0F7FA014628
:104D9000404641451AD90146E86900F077FA008893
:104DA00007F0010100F00102914208D1C7F343016D
:104DB000C0F34300814202D134700020D9E7641C63
:104DC000A4B2A86A00F0DAFAA042D4D84846D0E7E4
:104DD0002DE9F04115460E46040019D0C5B1E06A30
:104DE00000F0CCFA6FF00408B0420ED93146E06A08
:104DF00000F04CFA0646006838B1007800F03F0732
:104E0000E06900F0BBFAB84205D84046BDE8F08141
:104E10006FF00100FAE73068007800F03F01E069C8
:104E200000F034FA0278297862F3000129700078E2
:104E3000400860F3440121F0E00028700020E5E71D
:104E40002DE9F0471646050005D026B100246FF085
:104E50000409CFB229E06FF00100BDE8F087E1B2AC
:104E6000E86A00F013FA006820B3007800F03F0809
:104E7000E86900F083FA0146404641451AD90146E7
:104E8000E86900F003FA008807F0010100F0010270
:104E9000914208D1C7F34301C0F34300814202D1DC
:104EA00034700020D9E7641CA4B2E86A00F066FA06
:104EB000A042D4D84846D0E720B119B13C300860B0
:104EC000002070476FF0010070470000F8B5454CB6
:104ED000050018D015F01EFB002815D01822294611
:104EE0002046FCF7ACFD204615F0A9FA58B920463B
:104EF00015F054FA38B9204615F0CDFB18B9204604
:104F000015F035FC08B10020F8BDE06800F06CFE3B
:104F1000002550B1E06800F067FEC0B20022042115
:104F200000F0C7F90026A0620CE0A5620FE0314650
:104F3000E06800F04DFE00906946A06A00F0D8F9E4
:104F4000761CB6B2E06800F04FFEB042EFD82069A0
:104F500000F04AFE50B1206900F046FEC0B20022C7
:104F6000042100F0A6F90026E0620CE0E5620FE003
:104F70003146206900F02CFE00906946E06A00F09E
:104F8000B7F9761CB6B2206900F02EFEB042EFD819
:104F9000606900F029FE50B1606900F025FEC0B2E2
:104FA0000022042100F085F9002520630CE0256330
:104FB0000FE02946606900F00BFE00906946206B07
:104FC00000F096F96D1CADB2606900F00DFEA842CC
:104FD000EFD80E2104F13C00FCF78DFD0120207676
:104FE0002046F8BD100D0020002801D090F84800A0
:104FF000704730B1012339B1012909D002290CD100
:1050000008E06FF00100704720F8442F037104E0BE
:10501000828700E0C28780F8483000207047000097
:1050200070B51D4660B113460A46012115F012FB0A
:10503000040008D003F06CFF40B16FF0050070BDB4
:105040006FF0010070BD6FF0040070BD2A46094981
:10505000204603F01BFF010006D0204603F09EFE11
:1050600000214172002070BD2946204604F009F855
:10507000F8E700000DA803082DE9F0470F460646A3
:105080000125924638432FD0002004464FF00109F5
:10509000386023E0E1B2F06900F0F8F8804601F0F2
:1050A000E9F90246B8F80000010A104607F008FCCA
:1050B00090B1BAF1000F06D0DAF8001009FA04F046
:1050C0000143CAF8001098F80C00054020B1396877
:1050D00009FA04F001433960641CA4B2F06900F0DD
:1050E0004DF9A042D6D82846BDE8F08710B51C4639
:1050F00013460A46012115F0ADFA214603F06AFE77
:10510000002010BDF8B50C46050015D020460094CF
:1051100009F0B6FD204609F0B5FD0646204609F027
:10512000B4FD034632460121284615F093FA6A463B
:10513000024903F0ABFEF8BD0020F8BD0DA803083E
:105140002DE9F0471746884605000AD0E86900F0C7
:1051500015F906464046002408F00108C0F343094B
:105160001CE06FF00100BDE8F087E1B2E86900F0F3
:105170008DF8018801F0010343450DD1C1F34302CD
:105180004A4509D10121017327B13968C0F80210DD
:10519000B988C1800020E6E7641CA4B2B442E4D31D
:1051A0006FF00400DFE7000002480068002800D02C
:1051B0000048704724010020F8B5104C05460E4603
:1051C0002068C0B901F0D6FA0D4900910DB1012156
:1051D00000E000210B4B0CA201F096FA3146284664
:1051E00016F0F8F812480090124B134A134914486D
:1051F0000BF0C0FA20600148F8BD00002401002037
:10520000941D0408081F0408656F5F61726D656E68
:10521000765F496E697469616C69736528293A2003
:105220004E554C4C206D6F64696E666F0000000037
:10523000C5B303088DB403080DB50308B5B303085F
:1052400081B503082DE9F0411D4617460E460400BE
:105250001AD0002F18D0002D16D071192278481EB0
:10526000904211DAA278904203DBC9B2204600F0E6
:1052700069F86178201D16FB010011FB05F2394623
:10528000BDE8F041FCF754BBBDE8F08110B10278F5
:105290008A4201D8002070474278001D11FB0200AD
:1052A0007047002800D000787047002800D0407870
:1052B00070472DE9F04106460D46002712B114460D
:1052C000D7700CE003F062FF16FB05F1091D8AB2EE
:1052D0000123042103F064FF04460120E0702670DE
:1052E0006570A770204600F01CF82046BDE8F081EC
:1052F00010B5040007D031B1A0782278904205D1D2
:105300004FF0FF3010BD6FF0010010BD6278231D1B
:1053100010FB0230FCF70CFBA078401CA0700020B2
:1053200010BD10B558B10021817010F8011B10F8A4
:10533000032B11FB02F1FCF7BCFB002010BD6FF04A
:10534000010010BD30B4002816D083788B4213D0F2
:1053500002788A4210D38B4201D90A4601E01A46EC
:105360000B468170041D4078991A11FB00F112FB65
:10537000004030BCFCF79DBB30BC7047002800D01B
:10538000807870472DE9F041054690F94E000C46B3
:105390004FF00008B0B150281ED004F108073E1DA0
:1053A000032822D095F84F000128A86822D006F0E3
:1053B000C9F8C4E9000828683A463146BDE8F0411A
:1053C00004F0FABCC4F80080C4F80480C4F80C806F
:1053D000C1F80880BDE8F081C4F80080C4F80480FA
:1053E000B5F94C10C4E90281F4E7C4F80080A86B59
:1053F000486004E006F0A6F82060A86B606068686A
:10540000DAE700280ED090F84F2081F8202090F89D
:105410004E20CA7302690A6042694A6000228A60AB
:10542000008D8881704790F94E10012903D008291A
:1054300001D000207047806806F0BCB890F84E009C
:105440000A2801D00020704701207047B0F85000B2
:10545000C0F38030704770B5054603F097FE012316
:105460005422042103F09CFE040028D0257304F08C
:10547000B1FC206004F0AEFC606006F0ABF8A06008
:10548000002084F8200020634FF40041E161606354
:10549000A063E0632064A161A062642184F82C1001
:1054A0006064A064A4F84C000B2184F84E1084F8CA
:1054B0004F006062206160616720A4F850002046C0
:1054C00070BD2DE9FE4F04460026D4E90450814604
:1054D00094F94E000F464FF00A0A4FF001080328D6
:1054E0007DD008DC10F1020F0ED028B301284DD07A
:1054F00002282DD142E0082840D0092846D00A28A9
:1055000026D0502824D126E094F85000C0070ED1B0
:10551000206804F0E7FC00234A462946A06806F00C
:105520001FF82169A06806F0BDF984F84E8084F860
:105530004F6087F800800AE000234A462946A068A9
:1055400006F00EF894F84F0018B10020387066622B
:1055500072E00120FAE700234A462946A06805F0D8
:10556000FFFF87F800806662A069A84264DAE069FC
:10557000A84261DDB4F94C00BDE8FE8F206B10B18C
:10558000401E206302E0A06806F08EF902AB01AA7B
:105590006946A06806F07EF800EE105ADDED000ABC
:1055A00094F84F10B8EEC00A30EEC00ABDEEC00A43
:1055B00010EE100A49B33E7094F82C1089B3491EBE
:1055C00084F82C10616C4FF47A72414391FBF2F134
:1055D000666AA36C226C861B03FB062200E046E091
:1055E0001144A1636062A0690026A84226DD401B29
:1055F00000EE100A2068B8EEC00A04F01DFC00B2EC
:10560000002829DC314652DB54E000EE100A87F80E
:1056100000806062B8EEC00A206804F01FFC00B28F
:10562000AAE7FFE734F8500F40F4804024F8280937
:1056300084F826A02660266100209DE7E069A84244
:105640004DDA401B00EE100A2068B8EEC00A04F0E4
:10565000F3FB00B2002802DD4FF001012AE04FF019
:10566000000124DB26E0914239D0064637E00E7077
:10567000666294F82C000028D4D0401E84F82C00D8
:10568000606B10B1401E606300E0A663A069002655
:10569000A84212DD401B00EE100A2068B8EEC00AD6
:1056A00004F0CAFB00B20028D6DC314602DA4FF023
:1056B0000102D8E74FF00002D5E7E069A8420EDA10
:1056C000401B00EE100A2068B8EEC00A04F0B4FBDC
:1056D00000B20028C0DC4FF00001EBDAE7E730460B
:1056E0004AE770B5044690F84E0000250A2803D01A
:1056F000B4F85000C0B906E00D2915D194F8500057
:10570000A4F8500012E0082927D007DC71B1012964
:1057100014D002291FD0032906D120E009290BD07B
:105720000D2903D0502929D0002070BD2046FEF756
:10573000F3F884F84E501FE0092000E0012084F8BF
:105740004E00206804F0CEFB2169A06806F0AAF89C
:105750002563656210E00220F1E70820EFE760684A
:1057600004F0C0FB6420656384F82C00A563A56287
:105770000320656284F84E00012070BD502084F83B
:105780004E00A4F84C50E4E7002800D001617047B7
:10579000002800D041617047F0B5046901610E1B1B
:1057A00044690778151BC4681FB15B424360631BE3
:1057B00001E0436063196FF01804664303EB86034E
:1057C0004FF4C864C360A34202DC6442A34200DA1F
:1057D000C46042618160F0BD806870474068704776
:1057E00010B503F0D3FC01231822042103F0D8FCE8
:1057F000002804D00021017041610161C16010BD29
:1058000002480068002800D000487047B803002014
:10581000002801D00148006870470000B80300204C
:1058200070B58CB004462C22364901A8FCF707F964
:10583000354D286810B10CB0334870BD04B9334CF5
:10584000334E206840B900F095FF304B31A2183B31
:105850000421009600F062FF608948B1A08938B148
:10586000E08928B1208A18B1608A08B1A08A40B9BD
:1058700000F080FF254B34A2183B0421009600F075
:105880004DFF686888B9617F0120A26904F0C6F8FD
:1058900006463C480090002319463046226803F033
:1058A000A3FF304603F0D2FF3046686021680978D4
:1058B00029726189ADF80410A189ADF80610E1895B
:1058C000ADF80810218AADF80A10618AADF80C1005
:1058D000A18AADF80E10616804912189069000201C
:1058E000ADF814100790206A0890A0690990207FF5
:1058F0008DF82800606A0B9001A805F0F9FF286078
:1059000099E700002C280408B803002004280408A4
:10591000941D0408656F5F626F6172647472616EDA
:10592000736365697665725F496E697469616C69F4
:10593000736528293A204E554C4C206E7673657459
:105940006465766366670000656F5F626F617264AD
:105950007472616E736365697665725F496E6974AE
:1059600069616C69736528293A2061206366672D37
:105970003E73697A65732E6669656C64206973206D
:10598000300000007F00000100487047E02004085C
:10599000704700001FB507F08FFB07F095FB02462C
:1059A00001216846FEF7E7F908F0ACF900226946E4
:1059B00008F018FA08F0A6F908F002FA30B107F07A
:1059C0007BFB07F081FB012109F0A8F8014807F0F3
:1059D000B5F81FBD740100201FB507F043FD07F0A7
:1059E00049FD024601216846FEF7C5F908F08AF92B
:1059F0000022694608F0F6F908F084F908F0E0F9A9
:105A000030B107F02FFD07F035FD012109F086F8D0
:105A1000014807F0AFF81FBD740100201FB507F063
:105A200093FD0246002309496846FEF798F908F0FD
:105A300069F96A46002108F0D5F907F085FD07F0FD
:105A400005FF034807F0AAF81FBD000001D80208AF
:105A50007401002010B5024807F0C6F810BD000020
:105A60007401002010B5024807F0C5F810BD000011
:105A70007401002010B507F067FD07F00BFF024826
:105A800007F0BAF810BD000074010020704770479D
:105A9000704770477047000000EE100ADFED030A00
:105AA000B8EEC00A20EE200A7047000000008038DF
:105AB000002800D00068704750F8040C704770B59B
:105AC0000D4604004FF0FF3608D03DB1287880061F
:105AD0000AD5206940B106F034FD08B1304670BDEA
