:020000040806EC
:1000000070BB0224790606088106060883060608E6
:10001000850606088706060889060608000000000F
:100020000000000000000000000000004905060874
:100030008D06060800000000010606086506060891
:100040009306060893060608930606089306060814
:100050009306060893060608930606089306060804
:1000600093060608930606089306060893060608F4
:1000700093060608930606089306060893060608E4
:1000800093060608930606089306060829740608D0
:1000900041740608357406084D7406089306060870
:1000A00093060608930606089306060893060608B4
:1000B00093060608930606089306060893060608A4
:1000C0009306060893060608930606084F130708CA
:1000D0005B130708930606089306060893060608AE
:1000E000930606089306060800000000930606081B
:1000F000C51E070893060608930606089306060819
:100100009306060893060608930606086713070871
:100110009306060893060608930606089306060843
:100120009306060893060608930606089306060833
:1001300093060608296A0608F5730608930606085A
:100140009306060893060608000000000000000061
:100150009306060893060608930606089306060803
:1001600093060608930606089306060893060608F3
:10017000930606089306060893060608000000008A
:1001800093060608930606089306060893060608D3
:1001900093060608731307087F13070893060608DB
:1001A00093060608930606089306060893060608B3
:1001B00093060608930606089306060893060608A3
:1001C0009306060893060608930606089306060893
:1001D0009306060893060608930606089306060883
:1001E0009306060893060608930606089306060873
:1001F0009306060893060608930606089306060863
:100200009306060893060608930606089306060852
:100210007D1E0708A11E0708930606089306060818
:1002200093060608930606089306060800000000D9
:100230009306060831F8060835F8060893060608FE
:100240009306060893060608930606089306060812
:100250009306060893060608930606089306060802
:1002600093060608930606089306060893060608F2
:1002700093060608930606089306060893060608E2
:100280009306060893060608930606080000000079
:10029000930606089306060800F002F800F00DF930
:1002A0000AA090E8000C82448344AAF10107DA45D1
:1002B00001D100F002F9AFF2090EBAE80F0013F015
:1002C000010F18BFFB1A43F00103184788A304006D
:1002D000D8A304000A444FF0000C10F8013B13F0BF
:1002E000070408BF10F8014B1D1108BF10F8015B8F
:1002F000641E05D010F8016B641E01F8016BF9D182
:1003000013F0080F1EBF10F8014BAD1C0C1B09D1D8
:100310006D1E58BF01F801CBFAD505E014F8016B4A
:1003200001F8016B6D1EF9D59142D6D370470000DC
:10033000103A24BF78C878C1FAD8520724BF30C811
:1003400030C144BF04680C607047000000230024E3
:1003500000250026103A28BF78C1FBD8520728BFD5
:1003600030C148BF0B6070476E2905F06A81702963
:1003700004F03D83662900F084A0652900F081A087
:10038000672900F07EA0612900F07DA003681B0AA8
:1003900028BF41F08001692904F07082642904F0CB
:1003A0006D82752904F06A826F2905F0238478290B
:1003B00004F00983E92904F09D82E42904F09A827B
:1003C000F52904F09782EF2905F02084F82904F03C
:1003D00008830368DB0928BF41F08001632905F029
:1003E0007D83732905F08283E32905F0BD86F32917
:1003F00005F0C2860020704704F05AB804F05DB8DA
:1004000002020101E7A7AA02000006080000080096
:1004100000000024C0FF07000000000000000000F2
:100420000165417070414D43000000000000000074
:1004300001010000000101004558540000000000C7
:100440004F637420313020323032332032323A312F
:10045000373A3539000000000000000000000000BD
:10046000000000000000000000000000000000008C
:10047000000000000000000000000000000000007C
:100480001FB53FF0F1FF9DE8030004F033FF04F0D7
:1004900012FF0400002000213FF0A4FE401C606019
:1004A000002000213FF0B4FEE06004F0E7FE1FBD35
:1004B00010B5002006F004F910BD06F046F911460B
:1004C000FFF7DEFF0FB42CF062FA0FBC38F0BEFC71
:1004D00006F060F903B4FFF7EBFF03BC04F0E0FEA5
:1004E00080F309887047EFF309807047684680F30E
:1004F000098804480078C00714BF0220032080F355
:100500001488704750010024DFF818C0EFF305830A
:100510001B0618BF6047EFF31483DB0708BF604773
:1005200000DF7047CDE10908DFF818C0EFF305835D
:100530001B0618BF6047EFF31483DB0708BF604753
:1005400000DF704745E20908EFF30980816911F87F
:10055000021CE1BB90E80F1010B5E047BDE8104069
:10056000EFF3098C8CE80700214B93E806009142D9
:1005700008BF704741B91EF0100F16D11D49086819
:1005800020F00100086010E01EF0100F06BF2CEDF7
:10059000108A0120002081F838002CE9F00FC1F802
:1005A0003CC00CB43FF06AFA0CBC1A60D2F83CC0F4
:1005B000BCE8F00F92F8380000280EBF6FF0020E72
:1005C0006FF0120EBCEC108A8CF30988704710B5DE
:1005D000094A1268914209D8084C54F8214090E821
:1005E0000F10A047EFF3098C8CE80F0010BD00003E
:1005F000A800002434EF00E0A0AB0908A0AB090874
:1006000010B53FF035F9BDE81040154B93E80600F2
:10061000914208BF7047EFF3098C1EF0100F06BF20
:100620002CED108A0120002081F838002CE9F00F11
:10063000C1F83CC00CB43FF021FA0CBC1A60D2F8EF
:100640003CC0BCE8F00F92F8380000280EBF6FF0F5
:10065000020E6FF0120EBCEC108A8CF30988704702
:10066000A800002410B53FF02DFACCE710B53CF0FF
:1006700071FC3FF027FAC6E7094880470948004760
:10068000FEE7FEE7FEE7FEE7FEE7FEE7FEE7FEE742
:10069000FEE7FEE704480549054A064B704700009F
:1006A000F11C07089902060870AB002470BB0224F5
:1006B00070AB022470AB0224002070474FF0FF3073
:1006C000704700BF70B50C46054600F043F860B1B6
:1006D00042F2F010C2F2004002682AB10FA1E120FC
:1006E0009047002070BD00BFFEE7284600F08EFC5A
:1006F0000646284600F04AFE0644284600F092FCD2
:100700000644284600F017FC0644284600F020FE68
:10071000002C304408BF70BD206070BD6970616CF2
:100720005F626173655F6D656D6F72795F67657438
:1007300073697A653228293A2063616C6C6564209C
:10074000772F20616E20696E76616C696420636624
:100750006732000080B580B10168D1B10A78012A02
:1007600025D14A788AB342F2F010C2F20040026802
:1007700012B165A122E000BFFEE742F2F010C2F222
:100780000040026822B14AF2C821C0F60A010AE01C
:10079000FEE742F2F010C2F20040026832B14AF2C3
:1007A0008841C0F60A01E12009E000BFFEE742F2FD
:1007B000F010C2F20040026832B146A1E420904736
:1007C000FF2040B280BD00BFFEE7498848F20F021B
:1007D00091421ED1416841B3816800293DD0CA6A67
:1007E0007AB38A6A6AB30A6A5AB3CA694AB38A6927
:1007F0003AB3496A29B3C16800293AD0016900298E
:1008000043D0416900294CD0C069002855D0002050
:10081000D7E742F2F010C2F20040026822B14AF279
:10082000EE21C0F60A01BEE7FEE742F2F010C2F286
:100830000040026822B14AF2C831C0F60A01B2E7AC
:10084000FEE742F2F010C2F20040026822B14AF222
:100850002831C0F60A01A6E7FEE742F2F010C2F224
:100860000040026822B14AF29931C0F60A019AE7C3
:10087000FEE742F2F010C2F20040026822B14AF2F2
:100880005941C0F60A018EE7FEE742F2F010C2F2CB
:100890000040026822B14AF2FA31C0F60A0182E74A
:1008A000FEE742F2F010C2F20040026822B14AF2C2
:1008B0002941C0F60A0176E7FEE742F2F010C2F2E3
:1008C0000040026822B14AF26731C0F60A016AE7C5
:1008D000FEE700BF6970616C5F626173655F696E9E
:1008E000697469616C69736528293A20756E73753E
:1008F00070706F72746564207463702F69702073F8
:100900007461636B000000006970616C5F62617309
:10091000655F696E697469616C69736528293A203D
:10092000756E737570706F72746564206D656D6F30
:100930007279206D6F64650042F2F012C2F20042DB
:1009400012680AB1104700BFFEE700BFB0B542F21F
:100950004822C2F200421278012A0AD142F2F01073
:10096000C2F2004002681AB161A1E02033E000BF8A
:10097000FEE70D460446FFF7EDFE50B142F2F010DF
:10098000C2F2004002681AB14CA1E12023E000BF8E
:10099000FEE7204600F035F9204600F03DFB78B92F
:1009A000204600F029FD58B9204600F041FB38B937
:1009B000204600F0C6FA18B9204600F0CFFC80B1FE
:1009C00042F2F010C2F2004002684AB14AF2BB4162
:1009D000E320C0F60A019047FF2040B2B0BD00BF3F
:1009E000FEE72046294600F013FB0028F4D12046FC
:1009F00000F00CFB20F0030005442046294600F0DF
:100A0000C7FC0028E8D1204600F0C0FC20F003001D
:100A100005442046294600F007FB0028DCD120468B
:100A200000F000FB20F0030005442046294600F0BA
:100A300084FA0028D0D1204600F07DFA20F003008F
:100A40002918204600F086FC0028C5D1204600F079
:100A50007FFC42F28410C2F2004000F061F80028EE
:100A6000BAD142F28410C2F2004000F0D3FA00285A
:100A7000B2D142F28410C2F2004000F08BFC002898
:100A8000AAD142F28410C2F2004000F0CFFA00284E
:100A9000A2D142F28410C2F2004000F050FA0028C5
:100AA0009AD142F28410C2F2004000F055FCC0B26C
:100AB000002818BF4FF0FF308FE700BF6970616CEE
:100AC0005F626173655F696E697469616C697365A2
:100AD0003228293A2063616C6C656420772F20618D
:100AE0006E20696E76616C6964206366673200000F
:100AF0006970616C5F626173655F696E6974696179
:100B00006C69736528293A20616C7265616479208B
:100B10007374617274656400002070470020704730
:100B200010B5C169C86850B30869E0B14869D0B16F
:100B30008869C0B142F2F014C2F20044E16871B1B8
:100B4000884742F23021C2F20041086038B9226879
:100B500042B14AF2FC41E020C0F60A019047002071
:100B600016E000BFFEE742F2F010C2F20040026859
:100B700022B108A1E3209047FF2009E0FEE7002012
:100B80008861C1E9040042F23021C2F200410860EC
:100B900040B210BD6970616C5F626173655F696EC0
:100BA000697469616C6973653228292068617320F2
:100BB000696E636F6D706C657465206F73616C2016
:100BC00066756E6374696F6E7300000010B542F253
:100BD000F014C2F20044E06830B1804742F23021A4
:100BE000C2F20041086000B110BD226842B14AF271
:100BF000FC41E020C0F60A01BDE81040104700BFEC
:100C0000FEE72DE9F04F81B042F218214FF00008C5
:100C1000C2F2004142F2A4190D4642F2C014C1E9E9
:100C2000008842F22021C2F20049C2F20041C2F221
:100C300000440F460646C1E9008830212046C9E934
:100C40000088C9F80880C9F80C8004F0AEFA42F2B6
:100C5000282042F2102BC2F2004042F2F01AC2F2F7
:100C6000004BC2F2004AC0E9008842F2B8102021CD
:100C7000C2F20040CBE90088C0E90088504604F089
:100C800094FA42F2841142F22820C2F20041C2F2E8
:100C90000040C1E9040B42F23020C1F81CA0C2F2AE
:100CA0000040BB46C1E90057C0F8008042F2B810CE
:100CB000C2F200408861306842F22828C1E9024946
:100CC0000268B3684068C2F20048C5E90020706855
:100CD000D0E90020C7E90020D3E900CED3E90275AE
:100CE000D3E90402C4E900CEC4E90275C4E90402F0
:100CF000D3E906C2D3E90875D3E90A03C4E9087544
:100D0000C4E90A03C4E906C2F06842F2102EC2F236
:100D1000004E90E88C00C068C9F80870C9E900234B
:100D200032697369C9F80C0010685268C8E900029A
:100D300018685A68F369CEE90002D3E902C2D3E920
:100D40000476D3E90050CAE90476CAE902C2CAE9C6
:100D50000050D3E90602CAE9060242F21820C1F89F
:100D60001CA0C2F20040C1E9000B42F2B810C1E978
:100D70000249C1E9048EC2F200408861002001B03E
:100D8000BDE8F08F42F23020C2F20040006830B17E
:100D900042F2F011C2F200410A69896910477047B6
:100DA00042F23020C2F20040006828B142F2F01155
:100DB000C2F2004149690847704700687047000067
:100DC000B0B542F28410C2F200404068006848B1F9
:100DD00042F24824C2F200442178012908D116A128
:100DE000E02001E01EA1E120FFF7A6FDFF2521E0A4
:100DF00044F6D3514AF65415C1F26201C2F20045DD
:100E0000A0FB01018809286000F018FC286841F265
:100E100088310025B1FBF0F04AF64C11C2F20041D6
:100E20000D604AF65011C2F20041086000F0F0FA7D
:100E30000120207068B2B0BD6970616C5F73797316
:100E40005F737461727428293A2063616E6E6F74E7
:100E500020737461727420616761696E0000000024
:100E60006970616C5F7379735F7374617274282940
:100E70003A206D697373696E6720636F6E66696788
:100E800075726174696F6E00B0B5FFF77BFF4AF64B
:100E900048144AF64C10C2F20044C2F200404AF62E
:100EA0005013C2F2004321680268891A1A689142FD
:100EB0000BD341F6C9650121C2F2004529702168B2
:100EC000016001F031FA0020287000F0F3FA00F020
:100ED0004FFB206845F62941CCF28F21484345F667
:100EE0002841C0F28F214FEAB000884203D800F0B9
:100EF000E1FA00F03CFBBDE8B040FFF751BF10B590
:100F000041F6CC640120C2F200442070FFF73AFFA2
:100F10004AF64810C2F20040016801310160FFF753
:100F20003FFF0020207010BD42F28410C2F200404A
:100F3000406800687047002070470020704700201C
:100F4000704742F248210020C2F2004100220A709C
:100F500070470000B0B51546044600F00EF81DB904
:100F600001301CBF0020B0BD0021204600F01CF85D
:100F70002046BDE8B040AFF3008010B584B00390C8
:100F8000FFF700FF00F096FA03A902AA01AB01F0F7
:100F900052FA0446FFF704FFE1B20020FF2908BF20
:100FA0004FF0FF3004B010BD10B582B00190FFF7D4
:100FB000E9FE00F07FFA01A901F009FA0446FFF703
:100FC000EFFE002C18BF4FF0FF34204602B010BDDA
:100FD000B0B584B00C460390FFF7D4FE00F06AFA77
:100FE00003A902AA01AB01F026FA0546FFF7D8FED5
:100FF000E8B2FF2801D1FF2005E0029801682160D6
:101000008088A080002040B204B0B0BD00207047AE
:101010000020704700207047002070470020704774
:101020000020704700207047002070470020704764
:101030000168498809074FF0000105D5406900782B
:10104000042888BF4FF0FF3148B270472DE9F041C6
:1010500042F24821C2F20041097889B18046FFF787
:1010600091FE4AF658170026C2F20047002400BF3E
:10107000B85DFF2806D020360134C02EF8D122E01A
:10108000002523E0E0B2FF281DD001F00BF94FF05E
:101090000005C8B11021082201EA4801042341EAF1
:1010A0004811BC5502EA5802114403EAD80211441F
:1010B0008172B9194D600D81CD600D82C1E9055570
:1010C0000D46C86100E00025FFF76AFE2846BDE82E
:1010D000F081B0B5A8B104460078FF25FF2811D0F3
:1010E000FFF750FEE06901F0C5F825700025258165
:1010F00065602582E560C4E90555E561FFF750FEAE
:1011000000E0FF2568B2B0BDF0B581B058B3154618
:101110004FF0FF0742B304460078FF2824D00E4664
:10112000FFF730FE4AF658110020C2F2004100BF1E
:101130000A185368B34202D11289AA420FD0203054
:10114000C028F5D121462A4641F8046F88698D8070
:1011500000F0E3FF4FF0000710B167602781FF2721
:10116000FFF71EFE00E0FF2778B201B0F0BD70B5BA
:10117000F0B104460078FF281AD06068C0B1208919
:10118000B0B115460E46FFF7FDFD208960B121463E
:101190002A4641F80C6F08698D8001F034F84FF051
:1011A000000510B1E5602582FF25FFF7F9FD00E09D
:1011B000FF2568B270BDB0B570B104460078FF2855
:1011C0000AD0FFF7DFFDE06901F046F8002525822F
:1011D000E560FFF7E5FD00E0FF2568B2B0BDB0B502
:1011E000A0B10446008988B1E06878B1208A68B16E
:1011F0000D46FFF7C7FD238AE2682046294600F026
:1012000009F80446FFF7CCFD2046B0BD4FF0FF3093
:10121000B0BD00BF2DE9F04182B098B3054600781B
:10122000FF282FD00F464FF0FF0461B3288950B339
:10123000786838B3388828B398461646FFF7A2FD79
:10124000398838204FF4207200F004FAA0B13A88AF
:1012500004464068796803F080FEE86901AA2146E7
:101260004346019600F088FE0446FFF799FD002CE6
:1012700018BF4FF0FF3406E005A1F020FFF75CFB3C
:10128000FFF78EFDFF2460B202B0BDE8F08100BF21
:10129000706275665F616C6C6F63207265747572E5
:1012A0006E73204E554C4C20696E206970616C5FE6
:1012B000756470736F636B65745F73656E64746F70
:1012C0000000000070B5044600284FF0FF0011D068
:1012D0000E4679B11546FFF755FD41F2F921E06957
:1012E000C0F606012246C4E9056500F0BFFFFFF71E
:1012F00057FD002040B270BD2DE9F04184B020B30D
:1013000004460078FF2820D0E06988421DD160693A
:10131000D8B1164649F694775289C2F200477168EF
:1013200038461D46DDF8288003F017FE70890397C4
:10133000ADF80800304600F022FAD4E905702B68B9
:1013400002AA2146CDF80080B84704B0BDE8F0817C
:10135000002070470020704700207047B0B500693A
:10136000FF25007806280ED84AF65814C021C2F28C
:101370000044204603F019FF002000BF2554203010
:10138000C028FBD1002568B2B0BD00000020704726
:101390000020704780B5806890B1816959B1C169FA
:1013A00049B1016A39B1416A29B1C16A19B1806A8A
:1013B00008B1002009E04AF23951C0F60A0100E004
:1013C00003A1E120FFF7B8FAFF2040B280BD00BFC3
:1013D0006970616C5F6574685F6869645F696E6994
:1013E0007428293A206D697373696E672065746883
:1013F00020636F6E6669670080B54AF60C103C2169
:10140000C2F2004003F0D1FE01F02CFB002080BDB1
:1014100010B586B042F2C0110624C2F20041D1E9F3
:101420000202CDE904204AF60C100B68C2F200401B
:10143000898800220392C18541F2C14180F8304081
:1014400044F2A504C0F82A30C0F60601CDE9002117
:1014500005A904AA03ABC0F60604029402F078F8CA
:1014600058B14AF60C14C2F20044204602F098F932
:10147000204602F09BF9002004E004A1E020FFF7E1
:101480005BFAFF2040B206B010BD00BF6970616C0E
:101490005F6574685F6869645F72756E3A20657233
:1014A000726F7220696E206E657469665F61646434
:1014B000000000004AF60C10C2F200407047000025
:1014C00070B541F638750446C2F20045456242F2F5
:1014D0008D7041F23B51C0F60600606142F2C010CF
:1014E000C0F60601C2F20040A16141F606210026C5
:1014F000D0E90002C6F66561216384F82A00010A7A
:1015000084F82B10010C84F82C10000E84F82D00A8
:10151000100A84F82E2084F82F0040F2DC50208539
:101520002E8001F0EDFA40F2011028802046C5F827
:10153000026002F066F9002070BD10B50C46022171
:10154000204600F0A3F901F0D6FA204601F08BFA0C
:1015500001F0D3FA0221204600F068F942F2F010BF
:10156000C2F20040806800B18047002010BD704783
:101570002DE9F04381B0476A0446387800285AD0F4
:101580007878002857D0B878F978884240D041F66A
:10159000CB6842F2C019C2F20048C2F200490120F1
:1015A00088F80000D9F82800804758B340F2EB5182
:1015B000884222D202304FF4C17286B200203146F6
:1015C00000F048F8C8B10221054600F05FF96889CB
:1015D000B04238BF0646D9F82C206968304690479B
:1015E0000221284600F022F9226928462146904728
:1015F00040B1284600F0C3F804E0D9F82C200020C0
:1016000000219047F8780130F870002088F8000039
:1016100001F063FA78B101F06EFA01F046FA04467F
:1016200001F06BFA204601F09FFAA06801B0BDE816
:10163000F04300F0A4B801B0BDE8F08380B501F03C
:10164000CFFC01F0F0FE01F06BFFBDE8804000F040
:10165000A3BB00002DE9F04F81B0B2F5C17F0C466D
:1016600005464FF000000ADA012A01D0412A69D16B
:101670000020214601B0BDE8F04F00F066B827D049
:10168000B2F5207F5ED1E01C4FF6FC7120F0030222
:10169000A818033001400020914253D3103189B281
:1016A0008A424FD8084601F002FE014600284FF05A
:1016B000000047D04A19086013320C8122F0030061
:1016C000486080204C81C0F20100C860084639E0C3
:1016D0004AF2645A40F2820B4FF00008C0F60A0A40
:1016E00040F2EC59C0F2010B002600270320F5223E
:1016F000514601F0D0FE00B30146E81C11FA85F313
:1017000000F4FE70A9EB00021333A0B2C1F8008010
:10171000904223F003034B6038BF024608460C8119
:101720004A81C1F80CB00FB138463160A41A0025C7
:1017300022040E460746D9D104E017B1384600F01E
:101740001EF8002001B0BDE8F08F70B50D464AF2DA
:10175000645114460646C0F60A0102204FF4A772EF
:1017600001F099FE50B100210581C0E900164581C4
:101770004FF480720473A0F80D20C17370BD70B572
:1017800028B30446002600BF2546FEF735FEA17BA0
:101790004C1EAC73FEF732FE200619D1287B2C6854
:1017A00010F00F0006D0012808D002280AD103202B
:1017B00005E000BF284601F040FC03E00220294676
:1017C00001F0A0FE002C06F10106DDD100E00026AC
:1017D000F0B270BDB0B502898A4298BFB0BD044670
:1017E00040890D4688420AD2A91A00BF22892D1AC3
:1017F0000A442281AAB2246860898242F6D8217BF9
:1018000009070AD1A9B2814207D06068001B2844A9
:1018100081B2204601F09FFC044620686581258145
:1018200008B1FFF7ACFF00202060B0BD0022FFE749
:101830004FF0010C30B30023B3EB114F22D1F9B1BB
:10184000038903EB010C1FFA8CF38B4202D24FF099
:10185000010C17E090F90C30B3F1FF3F04DD002AD2
:10186000F5D04268521A05E0426800F11003521A9E
:101870009A42ECD343894260A0F808C019444181E0
:101880004FF0000C604670470122D1E74FF0010293
:10189000A0B10023B3EB114F10D171B142898A423C
:1018A00001D201220AE04368521A03EB010C0389BA
:1018B000C0F804C04281591A0181002210467047C5
:1018C0000022FFE7B1F1FF3F00DDB1E74FF0010279
:1018D000A0B149420023B3EB114F0FD142898A4294
:1018E00001D201220AE04368521A03EB010C03897A
:1018F00042810022C0F804C0591A01811046704785
:101900000122DFE770B5D9B1D0B10C46002600BF87
:10191000A2B241898A420AD3641A05680660FFF7B9
:101920002EFF20040DD0002D2846F1D109E0426899
:10193000091B12FA84F2426002894181111B018164
:101940000546284670BD002120B100BF0068013166
:101950000028FBD188B2704750B110B50446FEF79D
:101960004BFDA17B0131A173BDE81040FEF746BDE0
:101970007047C0B1B9B110B5036863B1B0F808C021
:10198000B1F808E01C461B68002B0EEB0C0202812C
:101990002046F3D100E0044620890A8921601044E2
:1019A0002081BDE81040704710B50C46FFF7E1FFFD
:1019B0002046BDE81040FFF7CFBFB0B50568002452
:1019C0005DB1018904604289891A29810281284612
:1019D000FFF7D5FE002808BF2C462046B0BD2DE9F4
:1019E000F041044600284FF0F00045D00D46002994
:1019F00042D020892989884201D2F0203CE04FF072
:101A00000008002760896989A0EB0800CE1BB0425E
:101A100038BF06466068696840443944324603F07E
:101A20009CFA68893744B044874224BF2D68002758
:101A30006089804505D124684FF000080CB9002D5D
:101A4000DBD12DB168892989884201D1286868B91C
:101A500044B160892189884204D1206840B9002DB1
:101A6000D0D105E0002DCDD1002005E0FA2003E023
:101A7000002818BF6FF0050040B2BDE8F0812DE9E5
:101A8000F04381B04FF0000938B3884629B31546BA
:101A90001AB304464FF00009002600BF60891904FC
:101AA00004D099B2814201D31B1A11E0AFB2C01A1F
:101AB00080B2B84238BF074618FA86F0616811FA5A
:101AC00083F13A4603F049FAB9443E44ED1B002342
:101AD00028041CBF2468002CE0D11FFA89F001B053
:101AE000BDE8F083B0B50C464FF0000168B164B1B9
:101AF0001D46934208D804998BB24289934206D37B
:101B00000068891A0028F7D100210846B0BD15FAEF
:101B100081F1914208D921462A46FFF7B0FFA84239
:101B200018BF00242146F0E74068C118EDE748B12E
:101B30008BB2B0F80AC0634505D30068A1EB0C0175
:101B40000028F5D1002002B1118070472DE9F04145
:101B5000044600284FF0F00019D08846B9B120891A
:101B60001546904201D2FF2011E07DB1002600BF52
:101B7000678908EB0601BD4238BF2F4660683A46C8
:101B800003F0EBF9ED1B3E442468F1D1002040B294
:101B9000BDE8F0812DE9F04180B1044616460D46BE
:101BA00099B26089814204D324681B1A002CF7D1B2
:101BB00004E016FA83F32289934203D9FF2040B24E
:101BC000BDE8F081471AB742A8BF374660681FFAE0
:101BD00087F808442946424603F0BFF9B04501D1D1
:101BE0000020ECE7F21B05EB080192B22068BDE88B
:101BF000F041FFF7ABBFB0B50446006858B10846E6
:101C00004FF42071224600F008F820B10546204626
:101C1000FFF7B5FD2C462046B0BDB0B5144612897D
:101C20000B4611461A46FFF715FD054618B1284622
:101C30002146FFF7D4FE2846B0BD38B18BB24289A9
:101C4000934205D30068891A0028F7D10020704715
:101C50004068C05C704738B18BB24289934206D36A
:101C60000068891A0028F7D14FF0FF3070474068AC
:101C7000C05C704748B100BF1FFA81FC43899C4596
:101C800004D30068C91A0028F6D17047406800F8EC
:101C90000C2070472DE9F04307895E18BE4203D936
:101CA0004FF6FF7036E000BF1FFA81FEB0F80AC0A1
:101CB000E64505D30068A1EB0C010028F4D1002013
:101CC00003B34FF000084FF0000900BFE6450BD208
:101CD00009EB0106074600BFB5B27C89A54205D3D2
:101CE0003F68361B002FF7D1002601E07C68665D57
:101CF00012F80840A64207D109F101091FFA89F834
:101D00009845E3D3002005E04FF6FE70804538BFCC
:101D10004046013080B2BDE8F0832DE9F04381B048
:101D20000446008916461A4482424FF6FF7812D8BC
:101D3000801B1D4687B29F420DD38946A9B220461B
:101D40004A463346FFF7A6FF20B10135A8B2B84294
:101D5000F4D900E0A8461FFA88F001B0BDE8F0838E
:101D600070B54FF6FF74A1B1064608780D4680B1F4
:101D70003089A0420DD0284603F085F84FF6FE7159
:101D8000884206D882B2002330462946FFF7C5FFB5
:101D90000446204670BD000070472DE9F04F85B025
:101DA00083464089072840F29C8042F268158846A5
:101DB000C2F20045DBF804A02968686902F046F821
:101DC000BAF800100646084600F0F4FEBAF8021011
:101DD0000490084600F0EEFE4AF66C31C2F2004173
:101DE0000A68002A5FD06B68296903916969002736
:101DF0004FF0000E029200BFBC461746D28A8242C4
:101E000044D13A7A2AB193F834500135EDB2AA425E
:101E10003CD18EB17A7A920638D5D7F80090B9F1D4
:101E2000000F18BF11F101020DD0D8F8082081EA87
:101E300009052A422AD106E0D7F80090B9F1000F2F
:101E400018BF894522D13A7D520711D47246BEF19E
:101E5000000F0CBF3A46002E0BD04D1C09D1DEF806
:101E60000050D8F80420954202D0914508BFBE46E4
:101E700072463D8B049CA54207D17D68002D63D03E
:101E8000039C9646A54201D15EE096463A69002A37
:101E9000B2D142F26815BEF1000FC2F2004502D085
:101EA0000025774606E0D8F804006969884218D111
:101EB00000270125BAF8060070B142F26810BBF89D
:101EC0000820C2F20040112100F1100314300090EC
:101ED000584600F099FF20B908215846FFF7D6FC74
:101EE00028B1584605B0BDE8F04FFFF748BCCDB16A
:101EF000002EF6D142F26810C2F20040406900F0B4
:101F0000F000E028EDD042F26810C2F20040808973
:101F1000083001B25846FFF7F3FC0321584601F0A0
:101F200093FDDEE7FE69002EDBD042F26811386ACD
:101F3000C2F200415A4601F110030499009139465A
:101F4000B04705B0BDE8F08FBCF1000F09D038698B
:101F5000CCF81000029838614AF66C30C2F20040AA
:101F600007600025A6E720B119B1038B021D00F020
:101F700003B86FF00F007047F0B581B00446002839
:101F80004FF0F0001CBF0F46002902D140B201B053
:101F9000F0BD1646002AF9D0207A1D4610B101F096
:101FA000A3FC02E0304601F089FD38B100902046E4
:101FB000394632462B4600F003F8E8E7FC20E5E717
:101FC000B0B582B04FF0F00ED0B1C9B1C2B1DDF8FA
:101FD00018C0BCF1000F13D004680CF1040E44B11A
:101FE00004F0F005E02D04D0DEF800508646AC4247
:101FF00004D1CDE900CE00F007F803E04FF0FC0E6D
:102000004FFA8EF002B0B0BD2DE9F04F83B0DDF88D
:102010003090F024B9F1000F7BD00746002878D02B
:102020000D46002975D01646002A72D0DDF834809E
:10203000B8F1000F6DD0787A9B46800606D43068E0
:10204000494601F003FF08B1FA2462E0F88A30B192
:1020500028894FF6F77188420AD9FF2459E00022F7
:102060003846394600F059F80446002851D1EFE7C8
:1020700008212846FFF7DAFBAA4670B12420082180
:102080004FF42072FFF7E6FA0028E6D0824628894E
:1020900018B150462946FFF787FCF88ADAF8044061
:1020A00000F088FD2080584600F084FD6080BAF87A
:1020B00008004FF0000BA4F806B000F07BFD397D5E
:1020C000A080C9070ED1BAF8082011215046434616
:1020D000009600F099FE4FF6F771002808BF01F155
:1020E0000800E080B87A07F10C01FB7AC9F83810D3
:1020F00000901120CDE9010950464146324601F0D9
:10210000FAFDAA450446C9F838B002D05046FFF798
:1021100036FB60B203B0BDE8F08F2DE9F04743F61F
:10212000E0030029C0F60A0318BF0B4620B34AF6A5
:102130006C3CC2F2004C6746396819B1814201F12A
:102140001007F9D1DCF800E0C2B1BEF1000F44D0B5
:10215000754600BF85420BD0EC8A944208D12E68A8
:10216000F824002E44D01F68BE4218BF002F3FD075
:102170002D69002DEED132E0F02439E040F6E0196F
:102180000025C2F200494FF0010A43F6FF78B9F882
:1021900000201AFA82F7BAB2BA4277461CBF4CF254
:1021A0000002CFF6FF72BEF1000F14D096B2FC8A87
:1021B000B44203D03F69002FF8D106E0454505F150
:1021C0000105E6D3A9F8002003E01404A9F80020D3
:1021D00005D1F8240CE0A9F800204FF0000E1B6890
:1021E0000360C28219B9C0F810E0CCF800000024E6
:1021F00060B2BDE8F08719B191F83410013100E008
:1022000000210172704770B5044600284FF0F000BD
:1022100020D00E46F1B1E08A154628B900222046AA
:102220002146FFF77AFFA8B9306860604AF66C3043
:10223000227DC2F20040258342F00402227501682B
:1022400029B10A46A24204D01269002AFAD12161BA
:102250000460002040B270BD38B1027D00214160B1
:102260000183017202F0FB010175704708B1C0E9FA
:1022700007127047A8B101464AF66C30C2F200401E
:1022800002688A4208D000BF42B110461269002A93
:10229000FAD08A42F8D110300A690260012001F0B8
:1022A00031B9704710B54AF290510120C0F60A01C9
:1022B0004FF4996201F0EFF8044628B1242120463A
:1022C00002F073FF8020E072204610BD10B54AF284
:1022D00090510120C0F60A014FF4996201F0DBF839
:1022E000044628B12421204602F05FFF8020E072DE
:1022F000204610BDB0B1A9B1D0F800C0BCF1000FAC
:1023000010D00B6873B14AF66C33C2F200431B68FD
:1023100043B11A68624503D10A681A60D0F800C058
:102320001B69F5E7704700002DE9F04F85B041F6D5
:10233000D45643F6D70943F6D1040025C2F200462D
:102340004FF00108C0F60A09C0F60A044FF0020B6C
:10235000002700BF06EB070A9AF8140098B1BAF8F4
:1023600012104A1CAAF8122091B28B084A2B03D8EB
:1023700001280CD105290AD3F05910B1FFF7FFF954
:10238000F5518AF814501837F02FE3D11CE00128DA
:1023900007D0042815D00328F5D104208AF81400AA
:1023A000F1E7DAF808000AF1040200F12A01031D3E
:1023B000CDE90039CDE9022822460B4600F09DF90F
:1023C000E1E78AF814B0DEE705B0BDE8F08F80B52C
:1023D00084B043F6D70C00F12A03021DC0F60A0CA4
:1023E000CDE9002C43F6D1020291C0F60A02012188
:1023F0000391194600F081F904B080BD2DE9F04148
:1024000041F6D45604464FF00008C2F200460027B9
:10241000F519287D50B1A868A04207D1F05918B12C
:10242000FFF7ADF946F8078085F814801837F02FCC
:10243000EED1BDE8F081B0B51C4615460A4603460C
:10244000022110461A4600F016F8002810D400EBBE
:10245000400141F6D452C2F2004202EBC1010A7DB2
:10246000022A05D301F10C022A6004312160B0BDBB
:102470004FF0FF30B0BD2DE9F04F85B041F6D45993
:1024800083460A240023C2F2004900204FF0000ACC
:102490004FF0000E0A270A260492019100210291B2
:1024A0000A210391B9B209EB03050A2995F814C072
:1024B00008BFBCF1000F25D0BCF1000F38D0BBF134
:1024C000000F10D0DBF80010D5F8048041450AD188
:1024D000049900296CD0A96822463446049EB14272
:1024E0002646144664D0BCF1010F0DD159F80310F3
:1024F0006D8A91B11FFA8EFE754528BF044688BFCC
:10250000AE4615E0074613E01FFA8AFA698A51457C
:1025100028BF064688BF8A460AE0029A039992B20B
:10252000954228BF0146039188BF2A46029200BF08
:1025300018330130F02BB5D1019988074FF6FF70A1
:1025400036D4C90702D1B9B20A2931D022463CB2E9
:10255000092C01DC3E4618E031B20A2907DB039E54
:1025600031B20A2903DB11B21646092920DC34B244
:1025700004EB440159F8310009EBC10518B1FFF72C
:10258000FEF80020286000202875BBF1000F06D05F
:1025900004EB4400DBF8001009EBC000416004EBE1
:1025A0004400002109EBC00041820499816030465B
:1025B00000B205B0BDE8F08F092816D800EB400C3A
:1025C00041F6D450C2F2004000EBCC0C9CF8140051
:1025D00002280AD30CF104000860DCF8080010603F
:1025E0000CF10C00186001207047002070472DE9A5
:1025F000F04F85B000297DD0466804463088B0F59C
:10260000807F1AD13079062817D17079042814D127
:102610007088082811D18A460D46D6F80E700497A6
:102620005AF8040F78B1B16906F1080881420CD15B
:102630004FF0010B4FF001090BE0204605B0BDE85B
:10264000F04FFFF79CB806F108084FF002094FF071
:10265000000BB7B33846294601F0F8FB88BB07F0FA
:10266000F000E0282DD004A849462A46FFF703FFD2
:10267000002826D481B241F6D4524900C2F2004269
:1026800011FA80F1022302EBC10052F831704FF0D1
:10269000000103758560D8F80030C360B8F80430D5
:1026A000418203826FB1016005F12A024FF400609C
:1026B000009028463946434601F042FD3846FFF770
:1026C0005EF8F0888BF00101B0F5807018BF012032
:1026D00008430CD105F12A0104A8029002200390BE
:1026E000284642460B46CDE900A800F006F82046F1
:1026F000FFF745F805B0BDE8F08F2DE9F04F81B048
:1027000090468A46064610201C214FF420721C4633
:10271000FEF7A0FFA8B307460D98DDE90AB5D7F884
:10272000049000F047FAA9F806003946A0885246FE
:10273000A9F80C0043462068C9F808002868C9F8C1
:102740001200A888A9F81600DBF80000C9F80E00EE
:102750000C980068C9F8180040F20010C0F2080098
:10276000C9F8000040F20640A9F8040040F606004F
:102770000090304601F0E4FC3846FFF700F80020F6
:1027800000E0FF2040B201B0BDE8F08FF0B583B0AB
:1027900005460C4610682946164601F057FB20B145
:1027A00043F6D103C0F60A0315E0306800F0F001EB
:1027B000E0291CD101AB010E0122ADF804205E22FC
:1027C0008DF80620C0F306228DF80720000C8DF846
:1027D00008008DF8091005F12A024FF400600090FE
:1027E0002846214601F0ACFC40B203B0F0BDD5E96B
:1027F00001124140114208D081B24FF6A9629142C4
:1028000003D02E4656F80C0FA0B3AF6B41F6D45C44
:10281000C2F2004C97B13A78092A0FD802EB420372
:102820000CEBC30E9EF81430022B07D3DEF80830F1
:10283000AB4203D1DEF80430984221D00CF11403EE
:10284000002200BF1978022908D353F80C1CA942B2
:1028500004D153F8101C88420ED000BF0132183347
:102860000A2AEFD128463146224603B0BDE8F0409F
:1028700000F057B8FC20B7E70DB107B13A70D2B2FB
:102880002846214603B0BDE8F040FFE7F0B585B02B
:1028900002EB420241F6D453C2F200430C4603EB72
:1028A000C2060546374617F8142F022A2CD1708A23
:1028B000B0F58E7F0FD943F6D7032A1DC0F60A0361
:1028C000301DCDE9002343F6D10205F12A01029023
:1028D000C0F60A020FE0B0F5877F15D306F10C02AF
:1028E00005F12A0143F6D70C301D2B1DC0F60A0C4A
:1028F000CDE9003C02900120039028460B46FFF7EB
:10290000FCFE08B90320387005F12A0206F10C0319
:102910004FF4006000902846214601F011FC05B0FC
:10292000F0BD2DE9F04F85B005460E4608682946F2
:10293000144601F08BFA20B1F02040B205B0BDE89A
:10294000F08F3168F0200029F7D001F0F001E02984
:10295000F3D0012130462A46FFF78DFD07460028B7
:1029600015D45FFA87FA41F6D4524FEA4A00C2F210
:10297000004250FA87F005F12A0802EBC00BD94655
:1029800019F8141F29B1002C46D0FF2022E0384648
:10299000D3E70AEB4A00012189F80010434602EB15
:1029A000C00043F6D702C0F60A0203918560281DD5
:1029B0008DE8450043F6D1022846C0F60A0241469A
:1029C000FFF79BFE002CB8D099F8001041F6D452C6
:1029D000C2F20042022912D315B1A86B00B10770F0
:1029E0000AEB4A00214602EBC000424600F10C030C
:1029F0004FF400600090284601F0A2FB9EE70129F9
:102A00009BD12046017B490619D400680028F9D1E2
:102A10002046FEF7A1FF19E0281D43F6D70143F633
:102A2000D102C0F60A018DE84300C0F60A02012077
:102A30000390284641464346FFF75FFE7EE710209D
:102A40004FF420712246FFF7E8F8044644B1DBF862
:102A5000000008B1FEF793FE0020CBF800406CE7C1
:102A6000FF206AE7704770B54AF6752C4CF6CD4EDC
:102A7000C2F2004C4AF67826C2F2004645899CF81C
:102A8000002002EB4203013202FB0EF106EB83044D
:102A900026F82350090DA060406801EB81016060B9
:102AA000A2EB81008CF8000070BD4AF674214CF650
:102AB000CD43C2F200414AF6782CC2F2004C0878AD
:102AC000421C534300EB40001B0D0CEB800003EB5A
:102AD0008303A2EB83020A7070474AF675204AF618
:102AE0007421C2F20040C2F2004100780978401A15
:102AF00018BF01207047FDF77FBC0020FDF77EBCAA
:102B000080B584B00020009040F6D000C2F20040B2
:102B1000019042F2C010C2F20040D0E900120392CC
:102B2000826968460291904718B103A1E020FDF741
:102B300003FF04B080BD00BF6C6F775F6C65766586
:102B40006C5F696E69743A20636667666E322E68E0
:102B5000616C5F6574685F696E69742829206661BD
:102B6000696C65642000000042F2C011C2F20041AD
:102B7000496A084710B541F6CA640120C2F2004410
:102B8000207041F6D060C2F200400168013101605E
:102B900041F6387142F2F010C2F20041C2F2004038
:102BA0008A78406802F101028A7000B180470020F3
:102BB000207010BD40BA704700BA70472DE9F04749
:102BC0008146084690468A4602F05DF9F8B105460E
:102BD00099F800000026D8B1454519DC9AF8007034
:102BE000C84409F1010400BFB84206D1661E51462F
:102BF00030462A4602F066F950B12146002611F807
:102C0000010B28B162190C464245EDD900E04E4651
:102C10003046BDE8F08710B54FF0010C10F8013BCD
:102C200011F801EB734509D043F02004A4F16102CF
:102C3000192A07D84EF02002944203D1002BEDD17F
:102C40004FF0000C604610BDB0B5551E10F801CB1A
:102C500011F801EBF4450BD04CF02004A4F1610213
:102C6000192A4FF001020BD84EF020039C4207D1E5
:102C70006B1E0022AB4203D2BCF1000F1D46E5D112
:102C80001046B0BDF0B581B0002A134600D55342BE
:102C9000012901D83AD03BE00144B2F1FF3FA1F154
:102CA0000105844603DC84462D260CF8016B4FF0A9
:102CB00000062E704AB3654527D9A1F1020E46F2EF
:102CC00067640122C6F26664714600BF53FB04F5D7
:102CD0000132AE1006EBD57505EB8506A3EB460673
:102CE00006F13007A3F10A0616F1140F01F8017975
:102CF00003D8E6458E462B46E8D816F1130F05D3C8
:102D00000131604602F06EF902E01AB10021017053
:102D100001B0F0BD3020ACF80000F9E710B5012992
:102D200000F0010C4FF0000E07DBBCF1000F1EBFDE
:102D300010F8012B01394FEA022E0022022908DB8C
:102D40000B4600BF30F8024B991E032B0B46224462
:102D5000F8D8012901D1007800E0002040EA0E00F7
:102D6000BCF1000F10444FEA104111FA80F04FEA15
:102D7000104111FA80F001BA18BF080C80B210BDE2
:102D80002DE9F04381B0089F1B681E0C894616FA96
:102D900083F33F680646904613FA87F303EB174325
:102DA0004FEA134010FA83F04FEA104111FA80F70E
:102DB000C6B1002475897068A9B2FFF7AFFF384427
:102DC000010C11FA80F715F00100B4FA84F039BA59
:102DD00018BF0F0C366818BF4409002EEAD10CB199
:102DE00038BA070C4846FFF7E5FE3C184046FFF7A7
:102DF000E1FE2044010C11FA80F000EB1040C043CA
:102E000080B201B0BDE8F083DDF800C0CDF800C0AD
:102E1000FFF7B6BF2DE9F04F81B0DDE90A768946AC
:102E200090463F6836683D0C15FA87F717FA86F723
:102E300007EB16460746300C10FA86F04FEA1041B1
:102E400011FA80F537B39A4623B300261FFA8AF4A5
:102E5000B7F80AB01FFA8BF0A04238BF0446786872
:102E60002146FFF75BFF2844010C11FA80F51BF0A7
:102E70000100B6FA86F029BA18BF0D0C3F6818BFDA
:102E8000460927B1AAEB040A5FEA0A40DED10EB177
:102E900028BA050C4846FFF78DFE2C184046FFF770
:102EA00089FE2044010C11FA80F000EB1040C04371
:102EB00080B201B0BDE8F08F80B5DDE902ECCDE96C
:102EC00002ECBDE88040FFF7A5BF80B5FFF726FF05
:102ED0004FF6FF71484080BDF0B581B0D8B10446CF
:102EE0000026002567896068B9B2FFF717FF2844FC
:102EF000010C11FA80F517F00100B6FA86F029BA34
:102F000018BF0D0C246818BF4609002CEAD11EB169
:102F100028BA050C00E00025E84380B201B0F0BDFE
:102F20002DE9F047A2B09A461546064647180024F8
:102F30000FF24C080DF10809385DCD2807D080212B
:102F4000484642462B46CDF800A001F027FC01344C
:102F5000102CF1D16FF00F040FF2440802AF00BF44
:102F6000305DCD2807D08021384642462B46CDF82B
:102F700000A001F013FC0134F2D322B0BDE8F087C9
:102F80006465746563746564206D656D206F766536
:102F900072666C6F7720696E2025732573000000C0
:102FA0006465746563746564206D656D20756E6419
:102FB0006572666C6F7720696E202573257300003B
:102FC00043184FF0CD3240F8042C40F8082C40F85C
:102FD0000C2C40F8102C4250DA609A605A6070470E
:102FE00048F67C3048F67431C2F2004048F6783238
:102FF0000330C2F2004120F00300C2F20042086038
:103000004FF4A051016000F5A053136041F2044356
:10301000002202710122C2544FF01422425041F2A8
:10302000FF3102461288531E02448B42FAD342F209
:103030004C21C2F20041086070472DE9F0410028A0
:1030400000F087800446800705D0FDF7D5F9BDE87C
:10305000F041FDF7D3B948F67437A4F11805C2F270
:10306000004738688542F0D348F6783604F10C0002
:10307000C2F2004631688842E7D834F8121C4AF29E
:10308000BB5244F69313C0F60A02C0F60A03204668
:10309000FFF746FF14F8140C0028D6D034F8183C7B
:1030A000B3F5A05FD1D834F8162CB2F5A05FCCD818
:1030B0003868291A1FFA81F8424502D0815A4145E1
:1030C000C3D1C71831688F4202D07E884645BCD133
:1030D00042F24C2C0026C2F2004C04F8146CDCF8CE
:1030E00000E0754502D2AE46CCF80050AF4213D096
:1030F0003E798EB98F420FD0BE4502D1AE46CCF894
:1031000000503B882B803E88B6F5A05F04D0821922
:10311000A2F8028034F8162C8418AC420CD0267920
:1031200056B9AE4508BFCCF8004023802B88B3F5D4
:10313000A05F01D003445A8048F67C32C2F20042BC
:10314000033222F0030200BF128812B102448A4205
:10315000FAD3BDE8F0812DE9F0470D4603318AB27C
:1031600021F0030101F120070C2A38BF2C27044667
:103170000020BEB2B6F5A05F35D8AE4238BFBDE87C
:10318000F08748F67439C2F20049D9F80000A0422D
:1031900024D848F67838C2F20048D8F80000A04297
:1031A0001CD934F8121C4AF2BB5244F69313C0F6F1
:1031B0000A02C0F60A032046FFF7B2FE2246D9F8FB
:1031C000000032F818ADA2EB000EAAEB0E01283970
:1031D00089B28E4209D90020BDE8F087FDF70CF9CD
:1031E000FDF70CF92046BDE8F087FBD000EB0A0C98
:1031F0009CF80430D3B106F114038B4235D807EBA9
:103200000E0101F1080742F24C21C2F2004110FA0E
:1032100087F60B689E4238BF0E60A6F800A000211A
:1032200017803171A6F802E0328819E042F24C2989
:1032300007EB0E01C2F20049BCF8003001F10807AB
:10324000B9B2D9F80060664502D14618C9F80060E5
:10325000435243181780A3F802E0425A0021197123
:10326000B2F5A05F01D081184F80621948F67C3317
:10327000C2F2004324F8125C4FF0CD3144F8101C28
:1032800044F80C1C44F8081C44F8041C61515160BB
:103290009160D160D91C21F00302D8F8001000BF62
:1032A0001288002A9ED002448A42F9D39AE72DE977
:1032B000F04378B3C11C8AB221F0030101F1200E62
:1032C0000C2A38BF4FF02C0E00211FFA8EF9B9F5E9
:1032D000A05F20D881451ED342F24C2C48F67431B1
:1032E000C2F2004CC2F20041C9F5A056DCF80080E1
:1032F0000A68A8EB02018FB2BE420BD9D319D55B85
:103300001C791CB90837EC1B4C4507D2AE422F463E
:103310002946F3D800210846BDE8F08309F11406D8
:10332000B44202D20121197110E077440024BEB2E8
:10333000955312FA87F51F802C71965B69800121E5
:103340001971B6F5A05F01D091194F8048F6783118
:103350004345C2F20041D1F800E00DD106E000BFC4
:10336000F04507D0B8F8001002EB010898F80410F7
:103370000029F5D1CCF8008003F11801D8804FF076
:10338000CD379F60DF601F615F610B180F5048F6FB
:103390007C30C2F200405F6003309F6020F0030089
:1033A000DF6000BF00880028B5D010447045F9D315
:1033B000B1E7B0B501FB00F50024B4EB154F09D11E
:1033C000A8B2FFF774FF20B12946044601F0CBFEF6
:1033D00000E000242046B0BD70B50446C06800215E
:1033E000A2880160E088A1682C32CB1C02FB00F1AE
:1033F00023F00305284601F0D8FEE08890B1A188AB
:10340000002600BFE06802682A60056005F11C0024
:10341000FFF7D6FDA1880136E0886A18864202F1DE
:103420002C05EFD370BDB0B543F6C8150024C0F627
:103430000A0500BF55F82400FFF7CEFF0134042C25
:10344000F8D1B0BD00B101E0002070472DE9F04790
:10345000904689460446FCF7CFFFE1688246002784
:103460000E6896B1A18806F11C054AF2C052236885
:10347000C0F60A022846FFF753FDE0683168C6F837
:1034800008800160C6E900792F465046FCF7B6FF78
:103490003846BDE8F087032806D843F6C813C0F6BF
:1034A0000A0353F82000D1E70020704708B101B1AA
:1034B00000E0704770B50D460646FCF79DFFB188E9
:1034C0004AF2C05204463368C0F60A022846FFF7A3
:1034D00027FDF068016845F81C1D0560F06800686C
:1034E00058B1016803E000BF006830B1096821B13C
:1034F00088421CBF09680029F6D12046BDE870400B
:10350000FCF77CBF032809D8002908BF704743F6A1
:10351000C812C0F60A0252F82000CBE7704700003C
:10352000704791F8312012F0180F01D000F0BABDA9
:1035300000F0FBBA80B584B09C460023CDE90012B0
:1035400000210022CDF808C000F002F804B080BDD0
:103550002DE9F04100284FF0000556D0079F002FBD
:1035600053D048F66C380446C2F200480025058561
:10357000069E80F8315043F6E000666298F80060DD
:10358000C0F60A0084F8346043F21166DDF820C00A
:10359000C4E907550029C0F6060608BF0146656064
:1035A000002AA56008BF0246E560002BC4F810C0E1
:1035B000666108BF03462046A56300F02CF820464C
:1035C000B84710BB94F8341048F66830C2F2004097
:1035D000CAB2FF2A02D1002184F83410024600BF8B
:1035E000126842B1CFB292F83430BB42F8D1013107
:1035F00084F83410ECE7CAB22546FE3A18BF4A1CDC
:103600000168216088F8002004602846BDE8F08148
:103610006FF00B00704770B582B043F6E0040029EC
:10362000C0F60A04164608BF2146002A1D4608BFF8
:1036300026460A68002B08BF2546044672B130684A
:10364000A268904218BFA0602868E268904201AA70
:1036500018BFE060204600F023F80DE001AA2046E4
:1036600000F01EF83068A168884218BFA060286882
:10367000E168884200D0E06002B070BD78B180B5EA
:1036800082B043F6E0030029C0F60A0301AA18BF7E
:103690000B46194600F004F802B0BDE880407047C0
:1036A000F0B581B004460D4608686168884215D0BF
:1036B0006F4600901160104639461646FEF71AFE16
:1036C0003046394600F0D9FE286860600121204666
:1036D00000F081F8E16909B12046884701B0F0BDEA
:1036E00058B143F6E0020029C0F60A0218BF0A46A4
:1036F00011688268914218BF8160704758B143F6E3
:10370000E0020029C0F60A0218BF0A461168C26822
:10371000914218BFC1607047B0B548B30546044632
:1037200055F8040F38B100212846FEF7E3FD0021CB
:10373000284600F0A2FE94F83100C00702D02046CF
:1037400000F017F848F66430C2F200400168A14268
:1037500001D10021016048F66830C2F2004000BF8C
:103760000168A14202D019B10846F9E72168016059
:10377000B0BD10B598B1044690F83100C1070ED025
:10378000010700F0FE0084F8310002D52046FEF764
:1037900035FEE16919B12046BDE81040084710BD6B
:1037A00048F66431C2F200410860704710B588B134
:1037B000044690F83100C1070CD1E16940F00100E6
:1037C00084F8310009B12046884703212046BDE82E
:1037D000104000E010BDC9070FD090F8312002F072
:1037E0000501052918BF7047014651F8043F23B170
:1037F00012F0080201D0FEF7EABD704700B1C161C6
:10380000704710B590B1044690F8310041070DD4CF
:1038100040F0040084F8310003212046FFF7DBFF6D
:10382000216A19B12046BDE81040084710BD50B1CB
:1038300090F831104A0706D5026A01F0FB0180F8C2
:10384000311002B11047704700B10162704780B576
:1038500000F008F818B190F83400013000E00020C2
:10386000C0B280BDB0B5E0B1054648F66830C2F2DE
:1038700000400468ACB1A81C01F0BCFAC0B200BFA3
:1038800094F83410814209D1297894F83220914279
:1038900004D1697894F83320914203D02468002C35
:1038A000EED100242046B0BD10B5D0B10C4648F68C
:1038B0006831C2F2004100BF096891B191F834202B
:1038C0000132D2B28242F7D191F83220A31C227089
:1038D000421E91F83310184661700421FFF7D2F9A7
:1038E00000E00024204610BD68B1014648F668306B
:1038F000C2F20040006830B190F834200132D2B2F8
:103900008A42F7D170470020704700002DE9F04748
:1039100084B042F268143C23C2F200440746A56812
:103920002A7803EA8206142E02D37889042805D265
:10393000384604B0BDE8F047FDF721BF786800784D
:10394000082840D16069894600F0F001E029EFD0F5
:10395000216800F07BFA0028EAD138890828E7D3EB
:103960003846FFF7B9FA0028E2D106F110083846C8
:103970004146FDF75BFF48B33889304481B281424C
:10398000D6D110204FF42072FDF764FE0028CFD06E
:103990008046408906F10801814210D8D8F8040019
:1039A0002946324601F0D9FA40463146FDF76EFF0E
:1039B00028B940463946FEF712F8002840D0404664
:1039C000FDF7DDFEB4E7B8464046B2E7384641466B
:1039D000FDF75CFF0028ABD1B84640463146D8F829
:1039E0000470FDF723FF0028EED1D8F8045054F8F6
:1039F000140F4FF6F7720823E860788854F8041C17
:103A000029619042314688BF09234FF0000A87F8A8
:103A100000A018447880802028722846A5F80AA0C3
:103A2000FFF753FA6881012001900022802340466D
:103A30002146CDF800A0CDF8089000F048F9C3E782
:103A40003846FDF79CFEC8E72DE9F04184B00E46EC
:103A50000746242024214FF42072FDF7FBFD50B3CC
:103A600045687F6804460320287005F108001C2281
:103A700039466E704FF00008C5F8048001F06DFA09
:103A8000F868039003A800F019F888B16189064628
:103A90002846A5F80280FFF718FA68800120CDE9D2
:103AA000008003AA002180232046029600F00FF92F
:103AB0002046FDF764FE04B0BDE8F08180B548F60D
:103AC0006831C2F2004100BF0968B9B191F83120F4
:103AD00002F00503052BF7D14B68002BF4D0D0F88A
:103AE00000C0D1F808E083EA0C0313EA0E0F1AD0E5
:103AF0009207E9D4CA689445E6D114E048F66431E7
:103B0000C2F200410A686AB192F8311001F0050171
:103B1000052907D1516829B10078B0F17F0118BF9C
:103B2000114600E00021084680BD2DE9F0474768B6
:103B300004463A7802F0F000402863D1788889463C
:103B40003C2101EA8205FFF735F8218906468842C3
:103B500003D220463146FDF73DFE6089A84251D38D
:103B6000208986424ED8132D4CD938462946FFF776
:103B7000ACF9002846D1396942F2681AC2F2004A0B
:103B800001F0F002E02AF868CAF81000CAF8141030
:103B900008D199F83100C0071ED0D9F80400C846F2
:103BA000E0B919E0484600F07CF8C846B0B99AF888
:103BB00014004FF000087F2810D048F66830C2F299
:103BC0000040066856B14E4503D0304600F069F813
:103BD000E8BB3668002EF6D14FF00008DAF8100086
:103BE000494600F033F968B9DAF8100000F0F00047
:103BF000E02807D0B8F1000F04D0F8886FF0C001BA
:103C0000084205D02046FDF7BAFD0020BDE8F08748
:103C100038783C21CAE9008901EA8000AAF80C0042
:103C200020464946CAF8087000F0B0FA01282ED0A4
:103C3000064620462946FDF729FE787A012808D055
:103C400011280BD120464946FEF7A7F81FE0B046E1
:103C5000C4E720464946FFF759FE18E0022E13D06C
:103C6000DAF81400414600F0F1F868B9DAF8140007
:103C700000F0F000E02807D020462946FDF740FE7E
:103C800002212046FFF7E0FE2046FDF778FD0020E8
:103C9000CAF80800CAE90400CAE90000AAF80C0042
:103CA000B3E780B5014690F83100C0070DD04A68EF
:103CB0005AB142F26810C2F200404069904202D00C
:103CC00000F0C4F808B1012080BD002080BDB0B56F
:103CD00084B0DDF828C0DDE9084E22B109B10D68D5
:103CE0000DB90CF10401CDE9004ECDF808C000F08B
:103CF00002F804B0B0BD2DE9F04F81B0002A0446AF
:103D00004DD089461421204615461F46FDF78EFDED
:103D1000002847D166680B98D5F800B00A997072F0
:103D20004520307020893772C6F810B07170FEF7E8
:103D300041FF42F2801A8046C2F2004A70800021A0
:103D4000F180BAF80000FEF735FF0A9A0B9B43F6A4
:103D5000E001B9F1000F47EA0222C0F60A0102EBC6
:103D6000032218BF494612FA8BF2B08002EB1B42C5
:103D700009684244F160024412FA81F202EB1142F6
:103D800002F14500BAF80020030C13FA80F001326A
:103D9000AAF8002000EB1040C043708108E0608961
:103DA000142801D2FE2008E060686D46006900908A
:103DB0000C9821462A464369984740B201B0BDE8B5
:103DC000F08FF0B583B0074610461C4615460E46E8
:103DD000FFF774FE80B1DDE908211DB10EB1336833
:103DE00003B9061DCDE900210290384631462A4626
:103DF0002346FFF780FF01E06FF0030003B0F0BD42
:103E00002DE9F04184B004461046984615460F4609
:103E1000FFF754FEA8B10646DDE90B020A99B2632A
:103E20001DB10FB13A6802B9371DCDE90010204627
:103E300039462A4643460296FFF75DFF0021B163EB
:103E400001E06FF0030004B0BDE8F081421C022ADB
:103E500001D20120704791F8312092070AD54A68B3
:103E6000824207D089684240114203D1CA43884345
:103E70009042EED00020704780B5FEF79DFE4FF0D7
:103E8000004200BF114622B111EA00024FEA51027E
:103E9000F8D119B1014203D14908FBD1012080BDFD
:103EA000002080BD80B582B001A900F008F801991A
:103EB000002808BF4FF0FF31084602B080BD2DE951
:103EC000F04184B08846054600F0FEFA2C7802687E
:103ED000105D20285AD14FF0000EEC46302C0BD14B
:103EE000284610F8014F04F0DF03582B08D115F8CD
:103EF000024F1026012706E00A26002703E000BF34
:103F00000826002705460135002000BF135D202B41
:103F100004D100FB064030380FE000BF87B183EAD0
:103F2000830109060CD519076FF0600158BF6FF0C7
:103F3000400121440A3141EA001015F8014BE5E740
:103F40002E2C0BD1BEF1030F20D04CF82E000EF119
:103F5000010E2C78105D2028C0D017E00CB1D907D5
:103F600014D0BEF1030F0FD0BEF1020F13D0BEF17B
:103F7000010F2FD10021B1EB106F08D10099FF295B
:103F800004D840EA016025E0FF2813D90021084643
:103F900004B0BDE8F0810021B1EB104FF7D1009AD9
:103FA0000021FF2AF3D8019BFF2BF0D8110641EA2C
:103FB00003410EE0009A0021FF2AE8D8019BFF2B65
:103FC0009CBF029FFF2FE2D8110641EA034141EA5C
:103FD00007210843B8F1000F03D0FEF7EDFDC8F844
:103FE00000000121D3E742F258111022C2F2004131
:103FF000AFF300802DE9F04F83B0006802900020FD
:1040000002AE4FF0CD0B0DF1050C4FF000098A46C2
:10401000009116F80950B646002700BFEBB22E46B5
:10402000F9B203FB0BF4092B4FEAD4253C4607F108
:10403000010705EB8508A6EB480646F030060CF8AC
:104040000160EBD8390676460EF8095012D01546B5
:1040500057469042C8BF054685421ED0E1B20130A6
:104060000029A4F101041CF8013007F8013BF3D149
:1040700001E000BF574690420FDABA46B9F1030F8C
:1040800009F1010900F101004FF02E010AF8011BAE
:10409000BFD100203870009800E0002003B0BDE8D8
:1040A000F08F000070B50446408911283ED3E07BB4
:1040B0000D4618B995F834000130E0736168084680
:1040C000CE8910F8022FD30714D0012A06D1C87860
:1040D00080B908795E280DD1102008E043F6D1019F
:1040E0000622C0F60A0100F0A2FE18B90820617B82
:1040F00008436073B6F5C16F0FD0082E16D195F83E
:104100003100000712D510212046FDF7BFFB68B92A
:1041100020462946FFF709FD0BE095F8310000071E
:1041200004D510212046FDF7B1FB20B12046FDF754
:1041300026FB002070BD20462946FEF758FAF8E716
:104140002DE9F041804606981F4616460C46FEF7BC
:1041500031FD054610212046FDF768FB18B16FF0D0
:104160000100BDE8F0816068C581B988C180396807
:10417000C0F8021031688160B18881814046D8F86A
:1041800018202146BDE8F041104700002DE9F04F0E
:1041900081B042F2681B8246C2F2004BDBF800108D
:1041A000DBF81400FFF752FE49F69071C2F20041AD
:1041B0000968D9B38146DAF804000BF1100800262B
:1041C000447A002037460E46097DA1422AD1317A31
:1041D00039B1DBF8042092F834200132D2B2914296
:1041E00020D1B9F1000F05D0717A89061AD531684E
:1041F000C1B905E0316819B1DBF81420914211D141
:10420000717DC90704D07168DBF81020914209D193
:10421000B5693DB1F069314652464346A84750B9A9
:10422000022000BF31690029CCD100E00020C0B2DB
:1042300001B0BDE8F08F47B149F690713069C2F224
:1042400000413861086830610E600120EFE74FF0EF
:10425000FA0218B111B100220968016050B270472A
:1042600019B191F83410013100E00021017270475A
:104270004FF0FA0238B131B1427D0968416042F035
:1042800001010022417550B27047427D002141601A
:10429000017202F0FE0141757047C0E906127047D5
:1042A00070B582B0044600284FF0FA001FD01546C2
:1042B000EAB1207A0E4610B1FFF716FB02E028465D
:1042C000FFF7FCFB034688B120681A1D00F0F001DF
:1042D000E029214608BF11460028204608BF1146A4
:1042E0002A460091314600F005F801E0FC2040B27A
:1042F00002B070BD2DE9F04784B04FF0FA05D0B19F
:104300001646C2B11C46B3B1DDF83080B8F1000FDB
:1043100011D00746407D8A46800707D4BAF80800C6
:104320004FF6EB7188420AD9FF2504E0BAF80A007B
:1043300014281AD2FA2568B204B0BDE8F087142117
:104340005046FDF773FAF8B1242000214FF4207293
:10435000FDF780F90028E7D08146BAF80800D0B10F
:1043600048465146FDF720FB15E007F10C00A0631D
:10437000002200235046414600250294CDE9005515
:10438000FFF7A5FCA563D7E714215046FDF77EFA99
:104390000028D146C8D1787A80060AD430682146F0
:1043A000FFF754FD28B1D145C4D04846FDF7E7F9E1
:1043B000C0E7B87A397DFB7A07F10C02A263324676
:1043C0008DE8130048464146FFF781FC0546D1457C
:1043D0004FF00000A063AED04846FDF7D0F9AAE741
:1043E000021DFFF75DBF49F690730146C2F200431C
:1043F0001A68824209D000BF4AB110461269002AE9
:10440000FAD08A42F8D100F1100308691860002040
:10441000FFF778B8B0B504460BA1002040F25A224D
:10442000FFF739F8054668B12021284600F0BDFEA7
:104430008020E87249F690702C75C2F20040016845
:10444000296105602846B0BD7372632F6C7769706F
:10445000636D372F6C7769702F322E312E322F6CAF
:104460007769702F7372632F636F72652F72617734
:104470002E6300000846FFF7CDBFB8B1B1B1D0F848
:1044800000C0BCF1000F11D00B687BB149F69073EE
:10449000C2F200431B6800BF43B11A68624503D1F2
:1044A0000A681A60D0F800C01B69F5E77047000081
:1044B00080B5FCF767FC002080BDFCF771BC0000F4
:1044C00000487047340B002410B500F0F4FE001DC6
:1044D00010BD00BF11BD030070B5A0FB0140B4F1D9
:1044E000805170F1000024BF002070BD204600F014
:1044F00079FF05001CBF214600F035FE284670BD3F
:1045000070B516460D46041F002808BF70BD002E6A
:104510001CBF05F10C0028F034FA2B46586800281F
:1045200018BFA04238BF0346F8D31968CA18A24280
:1045300018BF5C6003D122681C46114419602168D1
:104540000A19824218BF606004D142686260006844
:1045500008442060002E1CBF05F10C0028F015FA5D
:1045600070BD10B5044600F0A1FE01682046BDE80C
:1045700010400122C4E70844401E491E884370478A
:104580000821001DF7E72DE9F0410F468046041F82
:1045900000F08CFE066807B3B8F1000F384622D051
:1045A000FFF7EEFFB84205463CBF0020BDE8F081B2
:1045B00006F10C0028F0E5F92268AA4238BF31461E
:1045C00015D3511B082931D36019002240F8041B70
:1045D00031462560FFF794FF28E04046FFF7C1FF12
:1045E0000020BDE8F081BDE8F04100F0FBBE486866
:1045F000002818BFA04238BF0146F8D313198342E0
:104600001BD103681A44954217D8531B082B0AD3B1
:10461000436862195360236800681844401B1060A7
:1046200025604A6002E022604068486006F10C00A4
:1046300028F0ABF9201DBDE8F08100223146384654
:1046400000F08FFE05000AD041462068021F284670
:1046500000F00AFD00223146201DFFF751FF06F150
:104660000C0028F092F92846BDE8F08153EA020CCC
:1046700000F069802DE9F04B4FF00006002B1FBFC2
:10468000B3FA83F503FA05F424FA05F65E4012BF87
:104690001643B2FA82F502FA05F4C5F120051EBFF1
:1046A00022FA05FC44EA0C04203556EA044C4FEA91
:1046B000144418BF641C4FF000084FF000099042EA
:1046C00071EB030C39D3002919BFB1FA81F701FA54
:1046D00007F6B0FA80F700FA07F6C7F120071EBF09
:1046E00020FA07FC46EA0C062037B6FBF4FCA7EBE1
:1046F0000507103F07F01F0BCBF120062CFA06F63A
:104700000CFA0BFB44BFB3460026202FA4BF5E4625
:104710004FF0000B5BEA060C08BF4FF0010B19EBE2
:104720000B0948EB0608ABFB027C06FB02CC0BFB3B
:1047300003CCC01B71EB0C01C1E70B46024641469E
:104740004846BDE8F08B13B5084318BF4FF0FF3063
:104750000146AFF30080BDE81C4070470FB41CB5A4
:104760000C0007AA009007D04142A14202D3204486
:10477000401E01E04FF0FF30074B7B44694601903B
:10478000069801F086F90021002C01D0009A1170E2
:104790001CBC5DF814FB00003B1300000FB41CB5FB
:1047A0000C0007AA009007D04142A14202D3204446
:1047B000401E01E04FF0FF30074B7B4469460190FB
:1047C000069801F066F90021002C01D0009A1170C2
:1047D0001CBC5DF814FB0000FB12000070B5044621
:1047E00085690068C10601D5302600E02026C00793
:1047F00007D070BDD4E9012130469047206A401CA3
:1048000020626D1EF6D570BD70B5044685690078CE
:10481000C00707D170BDD4E9012120209047206A4C
:10482000401C20626D1EF6D570BD70B50C46054665
:10483000012A05D02878800600D5EA69002302E025
:10484000012305E05B1C934202D2E05C0028F9D111
:10485000A869E618C01AA861286A18442862284680
:10486000FFF7BCFF04E0D5E9012114F8010B9047E4
:10487000B442F8D32846FFF7C7FF70BD2DE9F041D9
:104880000646002410687529314616A510D000F0A0
:104890006DFE002802DA404213A507E031688A075E
:1048A00001D512A502E0490704D511A5012401E0B4
:1048B00000F065FE00210A2206F1240709E0B0FBA2
:1048C000F2FCB0FBF2F302FB1C00303078541846C7
:1048D000491C0028F3D123462A463046BDE8F04162
:1048E00000F056BE000000002D0000002B0000006C
:1048F000200000002DE9F0418046D21D22F0070281
:104900000025D2E90002F52915A614D0011E72F186
:10491000000106DA0023D0EB030063EB020211A6CC
:1049200008E0D8F800108B0701D50FA602E0490770
:1049300001D50EA601251146002408F1240704E044
:1049400000F0C4FD30323A55641C50EA0102F7D140
:104950002B46324621464046BDE8F04100F018BEE5
:10496000000000002D0000002B00000020000000CF
:10497000F0B40D460188090502D5214C7C4402E0C3
:104980001F4C7C440E34002100F1240608E002F0A4
:104990000F071209E75D42EA03721B097754491CAD
:1049A00052EA0307F3D102780023120704D5702DD1
:1049B00006D009B1022311342246F0BC00F0E8BD54
:1049C00001231034F8E770B504460D4621461068FF
:1049D00000F0D5FD024629462046BDE87040002380
:1049E000C6E7D21D22F00703D3E90023C0E703681E
:1049F000126843F0200303600823C3610023B7E774
:104A00000ABB03002DE9F05F894604464FF0000A17
:104A1000DFF874B1FB44C0F820A02046E168884765
:104A2000002874D0252806D0D4E901219047206AB7
:104A3000401C2062F1E700265F462046E168884777
:104A40002028054607DB312D05D2781910F8200CF7
:104A500008B10643F1E7B00701D526F00406C4F813
:104A60001CA00027C4F818A02A2D09D0284637F02A
:104A7000CFF838B304EB8708303DC8F8185019E078
:104A800059F8041B204604EB87029161E1688847CE
:104A9000012F054618D1E069002820DA26F020060B
:104AA0001DE0D8F8180000EB800005EB400030381E
:104AB000C8F818002046E1688847054637F0A8F88E
:104AC0000028EED1012F0AD02E2D08D12046E16812
:104AD00088477F1C0546022F46F02006C4DBA069EC
:104AE000002803DA404246F00106A061F00701D039
:104AF00026F010066C2D0BD0682D09D04C2D39D026
:104B00006A2D35D0742D35D07A2D33D016E038E0AB
:104B1000E1682F4620468847B842054609D16C2FE8
:104B200026D04FF48060E16806432046884705465A
:104B300004E06C2F1AD04FF4807006430DB3A5F13A
:104B40004100192802D8203546F400664A46294615
:104B5000204626604E46FBF707FC80B101280BD0AB
:104B6000F61D26F0070000F1080956E74020E4E7AB
:104B70008020D8E70020D6E706F104094DE7284653
:104B800052E7206ABDE8F09F9ABA03000FB400B55F
:104B90008DB010A9099000910B904FF0FF300A9052
:104BA00000200C90064878440690064878446A46EF
:104BB00007900F9909A801F047F80DB05DF814FBB4
:104BC000BF100000D71000002DE9FF5F1D464FF019
:104BD000FF3B91464FF000085F46D5E90146A969C1
:104BE00001987F1C8847296A824688470028F6D1A9
:104BF000BAF1FF3F0CD0002E24F4C06419DD60062A
:104C000014D5BAF12B0F09D0BAF12D0F0ED103E054
:104C1000584604B0BDE8F09F44F48064A969019847
:104C20007F1C8847761E8246002E02DDBAF1300FC7
:104C300003D0B9F1000F26D032E0A969761E0198A1
:104C40007F1C44F400748847002E824605DDBAF1CB
:104C5000780F06D0BAF1580F03D0B9F1000F10D079
:104C60001EE0B9F1000F02D0B9F1100F18D1A969F7
:104C7000761E01987F1C24F4007488478246102019
:104C800002E0082000E00A20814609E0A96908FB4B
:104C90000908761E01987F1C44F4007488478246F8
:104CA000002E05DD4946504600F0BAFF0028EDDA37
:104CB000E96901988847A00502D46FF00100A8E7D0
:104CC000E00725D1600613D5600502D5C8F10000C4
:104CD00000E0404629680A1D2A600968220501D5BE
:104CE000087015E0220701D5088011E008600FE088
:104CF0002868011D29600068210502D580F8008020
:104D000006E0210702D5A0F8008001E0C0F800808D
:104D100038467EE72DE9FF5F4FF0000899461446BC
:104D200046469169D2E901A7DDF838B00198884775
:104D3000054659EA0B0005D009E0A1690198761CE7
:104D400088470546216A284688470028F5D1681C0F
:104D500003D05FEACA7005D015E04FF0FF3004B011
:104D6000BDE8F09F2068011D2160D0F800800AE0B6
:104D70005FEACA7001D108F8015BA169761C01984D
:104D80007F1E88470546002F1ADD681C18D0B9F130
:104D9000000F0DD0E81705EBD060421120F01F0086
:104DA00059F822102A1A012090400142E0D107E070
:104DB000BBF1000FDCD12846216A88470028D7D0F4
:104DC000E16901988847BBF1000F07D1002E05DD8E
:104DD0005FEACA7002D1002188F80010A068B842CA
:104DE00003DDBBF1000F03D017B16FF00100B6E790
:104DF0003046B4E770B5064600F062FA046805462E
:104E000030460A22002100F04FFF2C6070BD10B523
:104E1000002000F098FFFBF74BFBBDE8104001209D
:104E200000F03EBA0B460146184600F075BF40EA56
:104E3000010310B59B070FD1042A0DD310C808C970
:104E4000121F9C42F8D020BA19BA884201D9012019
:104E500010BD4FF0FF3010BD1AB1D30703D0521C64
:104E600007E0002010BD10F8013B11F8014B1B1B9F
:104E700007D110F8013B11F8014B1B1B01D1921E09
:104E8000F1D1184610BD10B5431C02E010F8011B0B
:104E900071B18107FAD14FF0013202C88C1A8C43EC
:104EA00014EAC211F9D0C01A0A0603D0C01E10BD00
:104EB000C01A10BD0A0401D0801E10BD0902FCD02A
:104EC000401E10BD40EA010370B59B072ED14FF084
:104ED0000136042A2AD308C810C99D1B9D43121FFE
:104EE00015EAC61517D0D8B2E1B2401A50EA0561EA
:104EF00010D198B2A1B2401A50EA05410AD123F06C
:104F00007F4024F07F41401A50EA052102D1180E5B
:104F1000A0EB146070BDA342DBD018BA21BA88425E
:104F200001D9012070BD4FF0FF3070BD0AB90020DB
:104F300070BD10F8013B11F8014B63B1A3420AD1D7
:104F4000521E08D010F8013B11F8014B1BB1A342CF
:104F500001D1521EEDD1181B70BD032A40F23080E2
:104F600010F0030C00F0158011F8013BBCF1020FAA
:104F7000624498BF11F801CB00F8013B38BF11F82B
:104F8000013BA2F1040298BF00F801CB38BF00F842
:104F9000013B11F0030300F06780083AC0F008807D
:104FA00051F8043B083A51F804CBA0E80810F5E7A3
:104FB000121D5CBF51F8043B40F8043BAFF3008086
:104FC000D20724BF11F8013B11F801CB48BF11F8FB
:104FD000012B24BF00F8013B00F801CB48BF00F8CB
:104FE000012B7047431A28BF9A427FF6B6AF104490
:104FF0001144032A40F2268010F0030F1EBF11F85F
:10500000013D521E00F8013D10F0030F7FF4F6AF92
:1050100011F0030300F06D80083AC0F00B8051F8E6
:10502000043D083A51F804CD40F8043D40F804CD61
:10503000FFF7F3BF121D5CBF51F8043D40F8043D7B
:10504000AFF30080D20724BF11F8013D11F801CD64
:1050500048BF11F8012C24BF00F8013D00F801CD34
:1050600048BF00F8012C704710B5203AC0F00B8003
:10507000B1E81850A0E81850B1E81850A0E818504E
:10508000203ABFF4F5AF5FEA027C24BFB1E81850C4
:10509000A0E8185044BF18C918C0BDE810405FEA26
:1050A000827C24BF51F8043B40F8043B08BF7047A2
:1050B000D20728BF31F8023B48BF11F8012B28BFA7
:1050C00020F8023B48BF00F8012B7047431A28BF65
:1050D0009A427FF6C9AF1044114410F0030F1EBF6F
:1050E00011F8013D521E00F8013D10F0030F7FF44E
:1050F000F6AF103AC0F00A8010B531E9185020E937
:105100001850103ABFF4F9AFBDE81040530724BF60
:1051100031E9081020E9081044BF51F8043D40F877
:10512000043D12F0030F08BF7047D20728BF31F8C3
:10513000023D48BF11F8012C28BF20F8023D48BFAE
:1051400000F8012C704702F0FF0343EA032242EA11
:10515000024200F00AB802F0FF0343EA032242EAE7
:10516000024200F024B84FF000020429C0F012807F
:1051700010F0030C00F01B80CCF1040CBCF1020F0A
:1051800018BF00F8012BA8BF20F8022BA1EB0C01DF
:1051900000F00DB85FEAC17C24BF00F8012B00F8D5
:1051A000012B48BF00F8012B70474FF0000200B5FB
:1051B000134694469646203922BFA0E80C50A0E83A
:1051C0000C50B1F12001BFF4F7AF090728BFA0E8E8
:1051D0000C5048BF0CC05DF804EB890028BF40F8B4
:1051E000042B08BF704748BF20F8022B11F0804FF6
:1051F00018BF00F8012B704730B44FF0013C50F855
:10520000042BCCFA52F451F8043BD51A20D1FCB946
:1052100050F8042BCCFA52F451F8043BD51A17D1AC
:10522000B4B950F8042BCCFA52F451F8043BD51A17
:105230000ED16CB950F8042BCCFA52F451F8043B5F
:10524000D51A05D1002CDAD030BC4FF000007047E1
:1052500029BAB1FA81F111F01801D1F1200084408E
:10526000F2D1CA40CB4012F0FF0213F0FF0330BC72
:10527000D01A7047704770477047000070B5064CF1
:105280007C44064D7D4404E0204601680844804784
:10529000241DAC42F8D170BD4C5504004C5504009F
:1052A00001491820ABBEFEE72600020010B5FFF74B
:1052B00007F9083010BD10B5FFF702F9203010BD16
:1052C00027F054BB704770477047704738B50446A5
:1052D0000A4600206946AFF30080002808BF38BDA9
:1052E00002460099204600F04BFD012038BD012008
:1052F00001F024BAF8B5AFF30080054600200C4653
:10530000102000BF0646A819A0420DD932466946B2
:105310000020AFF30080070008BF01F00FFA0098EB
:10532000A04218BF0546C419FFF7C0FF0560074635
:10533000F01D20F007004619284600F011FDB44288
:1053400008BFF8BDA21B31463868BDE8F84000F040
:1053500017BD0844401E491E884370470821001DA0
:10536000F7E72DE9F04117460E460446FFF7F6FF32
:10537000A042054633D9002F1CBF06F10C0027F0D0
:1053800000FB30467468F4B12168A94217D305F1D7
:10539000080291423CBF6168416007D362686119AD
:1053A0004A602268521B0A6041602560002F1CBFC2
:1053B00006F10C0027F0E9FA201DBDE8F081204637
:1053C0006468002CE0D129463046FFF77FFF0028B3
:1053D000D7D1002F1CBF06F10C0027F0D6FA002011
:1053E000BDE8F08110B50446FFF760FF0168204674
:1053F000BDE810400122B4E70844401E491E88431E
:1054000070470821001DF7E72DE9F04791460C464B
:105410008046FFF74BFF0668604234EA000001D186
:10542000042C02D20520BDE8F087601E40F007077B
:105430004846FFF7E6FF484505469CBF0620BDE805
:10544000F08706F10C0027F09CFA74683046002CB7
:105450002FD02368211D494207EA0102934224D933
:10546000991A8D4221D84AB1214614440B689B1ADF
:1054700023604B6863600A6041600846226805F15A
:1054800008018A4205D36119521B0A6025604160F8
:1054900008466168416006F10C0027F076FA241D89
:1054A0000020C8F80040BDE8F08720466468002C62
:1054B000CFD129463046FFF709FF0028C5D106F1B4
:1054C0000C0027F062FA0620BDE8F08730B5B0F195
:1054D0000A0271F100034FEA900E4EEA817EB0EBB2
:1054E0000E0061EB91014FEA101E4EEA017E10EBB7
:1054F0000E0041EB11114FEA102E4EEA016E10EB37
:105500000E0041EB11214FEA104E4EEA014E10EB16
:105510000E0041EB1141401841F100014FEAD0006B
:1055200040EA41704FEAD1014FEA810444EA9074A5
:1055300010EB800544EB01046D1944EB0404521B8D
:10554000A3414FF0000348BF0A3200D530BD401CD4
:1055500041F1000130BD10B5FFF7B2FE006810BD8B
:1055600010B50446FFF7ACFE046010BD09684A059B
:1055700001D540B27047C905FCD500B27047096833
:105580004A0501D5C0B27047C905FCD580B2704745
:105590002DE9F0470D4699469246044600F124084D
:1055A0000168880604D5E06921F01001216000E05F
:1055B0000120A84201DD471B00E00027A1697A19FC
:1055C00002EB0900081AA0612078C00602D4204628
:1055D000FFF704F9002608E0D4E901211AF80600D3
:1055E0009047206A401C761C20624E45F4DB2078F0
:1055F000C0060AD52046FFF7F1F806E0D4E90121FC
:1056000030209047206A401C2062381EA7F1010715
:10561000F4DC07E0D4E9012118F805009047206A7E
:10562000401C2062281EA5F10105F3DC2046FFF78F
:10563000EBF82078000602D50220BDE8F0870120B3
:10564000FBE711680268006A530501D508700AE09B
:10565000D30501D5088006E0130603D5C217C1E9BA
:10566000000200E00860012070472DE9FF4F0C4662
:105670001E464FF0FF378BB0D2E90001DDF86080A5
:105680000A908A46C1F30A5505B93D4600210846ED
:105690004FF00000BAF1000F00F4400005DA00EB13
:1056A00080004FF4400101EA50004FEA9059B9F1EF
:1056B000010F00DDB9460A9850EA4A000ED044F6C0
:1056C0001050A5F2FF3545432F14B8F1000F1ED03E
:1056D0007542291E1EDDC9F100021CE0B8F1010F60
:1056E0004FF0000001D0302103E0F24305E02154E7
:1056F000401CB042FBDB30460022002121540B99B4
:10570000C1F80880C1E900200FB0BDE8F08FBD1BD3
:105710006D1CDEE74A4600DA694206A800F03AFF4F
:1057200006AB93E8070003AB83E8070050460A99ED
:1057300034F06EFE8DE80700A0F500501F38009091
:105740000398002D0ADD42F21F014A460844002357
:1057500003A90390684635F0D7F809E0A0F500509A
:105760004A461F38002303A90390684635F0E1F844
:105770008DE807000004000C03D04FF0FF30410813
:1057800000E01046B8F1000F03D000220092154649
:105790001EE0751E05D4FFF799FE303262556D1E6E
:1057A000F9D5B3460122084302D000227F1C04E051
:1057B0002078302801D100227F1E002A099784D04A
:1057C0001DE0112D07DAFFF781FE303262556D1CA6
:1057D00050EA0102F5D1084302D00098C8B10EE0AA
:1057E0000021681E05E0235C625C63542254401E65
:1057F000491C8142F7DBAB46A81B401E09900020E4
:1058000004F80B000B98099AC0F80880C0E9002B37
:105810007AE711264FF0000857E72DE9F04F884648
:105820000446D21D22F0070191B0D1E90001CDE973
:105830000A0135F0C0F902460B98C00F01D02D20A7
:1058400007E02068810701D52B2002E0202101EA32
:10585000C000032A099001D0072A05DB0346414610
:10586000204600F037FC0BE12078800601D5E06986
:1058700000E00620B8F1650F814606D0B8F1660F4A
:1058800018D0B8F1670F70D131E00020B9F1110FD5
:10589000009001DB112301E009F101030AAA01A92B
:1058A0000CA8FFF7E2FEDDE90C70002609F1010506
:1058B000834647E001204B4600904FF000470AAA7C
:1058C00001A90CA8FFF7D1FEDDE90DB00C995D46EA
:1058D000002610B909F101000D18B9EB050003D439
:1058E000C0F1FF3609F10105A5EB09002BE0B9F184
:1058F000010F01DA4FF001090020B9F1110F0090FA
:10590000484601DD112300E003460AAA01A90CA8BC
:10591000FFF7ABFEDDE90C704D460026834620788C
:1059200000070AD4AB4500DA5D4601A8012D04DD6D
:10593000411911F8011C302907D04F4502DA17F13F
:10594000040F04DA012082460FE06D1EEEE7002FFF
:1059500002DCED1B3E4403E0781CA84200DD7D1C08
:10596000B81B00F1010A4FF000472078000703D46C
:10597000AA4501DB4FF0FF3A0021B7F1004F0DF1CE
:1059800043088DF8431024D002202B23002F01DA86
:105990007F422D230A21021EA0F1010000DC5FB12D
:1059A00097FBF1FC97FBF1F201FB1C7C17460CF115
:1059B000300C08F801CDEEE7A8F101000370218852
:1059C000090501D5452100E06521A0F1010800F895
:1059D000011C09980FA9A1EB0807FF1D00B10120C8
:1059E000411901EBEA70A1693844081A401EA06110
:1059F0002078C00602D42046FEF7F0FE099828B1B0
:105A0000D4E901219047206A401C20622078C0061A
:105A100022D52046FEF7E2FE1EE0002E04DBB34551
:105A200002DD01A8805D00E03020D4E9012190472B
:105A3000206A401C2062761CAAF101005FEA000A7D
:105A40000AD1FFF738FCC0680168405CD4E9012145
:105A50009047206A401C2062281EA5F10105DCDC6D
:105A600007E0D4E9012118F8010B9047206A401C97
:105A70002062381EA7F10107F3DC2046FEF7C4FEC2
:105A8000032011B041E6000001694A1C0261087858
:105A9000704700B58FB0CDE901310021059105496E
:105AA0007944CDE9031011466846FEF7ABFF0FB00D
:105AB00000BD0000E5FFFFFFD1E900239A4202D2BA
:105AC000531C0B601070704710B5436913B1AFF3EE
:105AD000008001E0FEF7A9FE012010BD127800F160
