:020000040800F2
:10000000200B0124A1040008A9040008AB04000887
:10001000AD040008AF040008B104000800000000AF
:10002000000000000000000000000000B304000811
:10003000B504000800000000B7040008455000089F
:10004000BB040008BB040008BB040008BB04000894
:10005000BB040008BB040008BB040008BB04000884
:10006000BB040008BB040008BB040008BB04000874
:10007000BB040008BB040008BB040008BB04000864
:10008000BB040008BB040008BB040008BB04000854
:10009000BB040008BB040008BB040008BB04000844
:1000A000BB040008BB040008BB040008BB04000834
:1000B000BB040008BB040008BB040008BB04000824
:1000C000BB040008BB040008BB0400083F4E000846
:1000D0004B4E0008BB040008BB040008BB0400082A
:1000E000BB040008BB04000800000000BB040008BB
:1000F000BB040008BB040008BB040008BB040008E4
:10010000BB040008BB040008BB040008574E0008ED
:10011000BB040008BB040008BB040008BB040008C3
:10012000BB040008BB040008BB040008BB040008B3
:10013000BB040008BB040008BB040008BB040008A3
:10014000BB040008BB040008000000000000000021
:10015000BB040008BB040008BB040008BB04000883
:10016000BB040008BB040008BB040008BB04000873
:10017000BB040008BB040008BB040008000000002A
:10018000BB040008BB040008BB040008BB04000853
:10019000BB040008634E00086F4E0008BB04000853
:1001A000BB040008BB040008BB040008BB04000833
:1001B000BB040008BB040008BB040008BB04000823
:1001C000BB040008BB040008BB040008BB04000813
:1001D000BB040008BB040008BB040008BB04000803
:1001E000BB040008BB040008BB040008BB040008F3
:1001F000BB040008BB040008BB040008BB040008E3
:10020000BB040008BB040008BB040008BB040008D2
:10021000BB040008BB040008BB040008BB040008C2
:10022000BB040008BB040008BB0400080000000079
:10023000BB040008BB040008BB040008BB040008A2
:10024000BB040008BB040008BB040008BB04000892
:10025000BB040008BB040008BB040008BB04000882
:10026000BB040008BB040008BB040008BB04000872
:10027000BB040008BB040008BB040008BB04000862
:10028000BB040008BB040008BB0400080000000019
:10029000BB040008BB04000800F002F800F0F0F80E
:1002A00014A696E8000CB244B344DA4501D100F03C
:1002B000E7F8BAE80F000FA696E83000A5EB0405B2
:1002C00004EB0607AAEB0704A7F101074FEA15158F
:1002D0004FEA3414A4F10104AC4201D300F0D0F889
:1002E00013F0010F18BFFB1A43F0010300F001F8EF
:1002F000DBE71847D4820000F4820000103A24BFE4
:1003000078C878C1FAD8520724BF30C830C144BF7A
:1003100004680C6070470000704700000023002450
:1003200000250026103A28BF78C1FBD8520728BF05
:1003300030C148BF0B6070476E2900F0AF84702950
:1003400000F0E585662907F07886652907F075864F
:10035000672907F07286612907F0718603681B0A16
:1003600028BF41F08001692900F05C84642900F015
:100370005984752900F056846F2900F07385782917
:1003800000F0B185E92900F00D85E42900F00A8527
:10039000F52900F00785EF2900F07085F82900F0B5
:1003A000B0850368DB0928BF41F08001632901F0B3
:1003B000B183732901F0B683E32901F0C183F329E6
:1003C00001F0C683002070471FB507F029FE9DE8A5
:1003D000030000F08FFB01F0E5FC04000020002189
:1003E00007F008FE401C60600020002107F0ECFDD3
:1003F000E06000F05BFE1FBD10B500F0C0FE10BD58
:1004000002000303E9A7622D0000000800000200BB
:1004100000000024C0FF07000000000000000000F2
:1004200000654C6F61646572000000000000000010
:1004300000000000000000004558540000000000CB
:100440004F637420203720323032352031373A3232
:10045000313A3138000000000000000000000000C8
:10046000000000000000000000000000000000008C
:10047000000000000000000000000000000000007C
:1004800000F0BDFE1146FFF79FFF06F056FC01F09D
:100490004DFC03B4FFF7B0FF03BC00F009FB000004
:1004A0000948804709480047FEE7FEE7FEE7FEE708
:1004B000FEE7FEE7FEE7FEE7FEE7FEE70448054944
:1004C000054A064B70470000915100089902000848
:1004D000200B0024200B0124208B0024208B0024DF
:1004E00053EA020C00F069802DE9F04B4FF0000652
:1004F000002B1FBFB3FA83F503FA05F424FA05F6BF
:100500005E4012BF1643B2FA82F502FA05F4C5F155
:1005100020051EBF22FA05FC44EA0C04203556EAE9
:10052000044C4FEA144418BF641C4FF000084FF00D
:100530000009904271EB030C39D3002919BFB1FABD
:1005400081F701FA07F6B0FA80F700FA07F6C7F16B
:1005500020071EBF20FA07FC46EA0C062037B6FB30
:10056000F4FCA7EB0507103F07F01F0BCBF12006AB
:100570002CFA06F60CFA0BFB44BFB3460026202FDC
:10058000A4BF5E464FF0000B5BEA060C08BF4FF0BD
:10059000010B19EB0B0948EB0608ABFB027C06FBD1
:1005A00002CC0BFB03CCC01B71EB0C01C1E70B466B
:1005B000024641464846BDE8F08B13B5084318BFD4
:1005C0004FF0FF300146AFF30080BDE81C4070479C
:1005D00040EA010310B59B070FD1042A0DD310C8C0
:1005E00008C9121F9C42F8D020BA19BA884201D912
:1005F000012010BD4FF0FF3010BD1AB1D30703D05A
:10060000521C07E0002010BD10F8013B11F8014B0F
:100610001B1B07D110F8013B11F8014B1B1B01D12B
:10062000921EF1D1184610BD10B5431C02E010F81F
:10063000011B71B18107FAD14FF0013202C88C1A47
:100640008C4314EAC211F9D0C01A0A0603D0C01EA6
:1006500010BDC01A10BD0A0401D0801E10BD0902D1
:10066000FCD0401E10BD032A40F2308010F0030C75
:1006700000F0158011F8013BBCF1020F624498BFF5
:1006800011F801CB00F8013B38BF11F8013BA2F192
:10069000040298BF00F801CB38BF00F8013B11F00D
:1006A000030300F06780083AC0F0088051F8043B6B
:1006B000083A51F804CBA0E80810F5E7121D5CBF1A
:1006C00051F8043B40F8043BAFF30080D20724BF4D
:1006D00011F8013B11F801CB48BF11F8012B24BFE1
:1006E00000F8013B00F801CB48BF00F8012B704730
:1006F000431A28BF9A427FF6B6AF10441144032A2A
:1007000040F2268010F0030F1EBF11F8013D521E6B
:1007100000F8013D10F0030F7FF4F6AF11F0030372
:1007200000F09B81083AC0F00B8051F8043D083A74
:1007300051F804CD40F8043D40F804CDFFF7F3BF75
:10074000121D5CBF51F8043D40F8043DAFF300803A
:10075000D20724BF11F8013D11F801CD48BF11F8AF
:10076000012C24BF00F8013D00F801CD48BF00F87E
:10077000012C704710B5203AC0F00B80B1E818503A
:10078000A0E81850B1E81850A0E81850203ABFF47B
:10079000F5AF5FEA027C24BFB1E81850A0E818501A
:1007A00044BF18C918C0BDE810405FEA827C24BF6E
:1007B00051F8043B40F8043B08BF7047D20728BFFC
:1007C00031F8023B48BF11F8012B28BF20F8023B4B
:1007D00048BF00F8012B704702F0FF0343EA0322F1
:1007E00042EA024200F002B84FF0000200B51346A0
:1007F00094469646203922BFA0E80C50A0E80C5041
:10080000B1F12001BFF4F7AF090728BFA0E80C50F1
:1008100048BF0CC05DF804EB890028BF40F8042BEA
:1008200008BF704748BF20F8022B11F0804F18BF57
:1008300000F8012B7047000030B44FF0013C50F835
:10084000042BCCFA52F451F8043BD51A20D1FCB950
:1008500050F8042BCCFA52F451F8043BD51A17D1B6
:10086000B4B950F8042BCCFA52F451F8043BD51A21
:100870000ED16CB950F8042BCCFA52F451F8043B69
:10088000D51A05D1002CDAD030BC4FF000007047EB
:1008900029BAB1FA81F111F01801D1F12000844098
:1008A000F2D1CA40CB4012F0FF0213F0FF0330BC7C
:1008B000D01A704770477047704770B5064600F011
:1008C000FDF8056806F10B0020F00704B4429CBF58
:1008D000002070BD2B466A68BAB11068A04210D3E0
:1008E00004F1080188423CBF5068586007D3516842
:1008F000101941601168091B016058601460101DD7
:1009000070BD13465268002AE7D12146284600F000
:10091000DDF80028DED170BD70B50446051F00F07B
:10092000CDF80068002C14BF446870BD002C18BFBF
:10093000AC423CBF20466468F8D301680A18AA425A
:1009400018BF456003D12A68054611440160286834
:100950004119A1421CBF6C6070BD6168696021686B
:100960000844286070BD2DE9F04791460C4680464A
:1009700000F0A4F80768604234EA000001D1042CBA
:1009800002D20520BDE8F087601E40F0070609F19D
:100990000B0020F007054D4539D93B467A6882B3F4
:1009A0001468101D404206EA000C644525D9A4EBEA
:1009B0000C00854221D8BCF1000F0BD01046016815
:1009C0006244A1EB0C01116041685160C0F800C0A5
:1009D00058600346116805F10800814205D350199B
:1009E000491B016015605860034652F8040F5860B7
:1009F0000020C8F80020BDE8F08713465268002A9E
:100A0000CED12946384600F061F80028C5D106202D
:100A1000BDE8F0870B460146184600F053B910B503
:100A2000002000F0DFFBFFF7E7FCBDE810400120ED
:100A300000F03EB8431A28BF9A427FF69BAE10449E
:100A4000114410F0030F1EBF11F8013D521E00F8B3
:100A5000013D10F0030F7FF4F6AF103AC0F00A80AA
:100A600010B531E9185020E91850103ABFF4F9AF29
:100A7000BDE81040530724BF31E9081020E90810F1
:100A800044BF51F8043D40F8043D12F0030F08BF85
:100A90007047D20728BF31F8023D48BF11F8012C3A
:100AA00028BF20F8023D48BF00F8012C7047000025
:100AB00001491820ABBEFEE726000200004870473F
:100AC00004020024704770477047704738B50446E9
:100AD0000A4600206946AFF30080002808BF38BDF1
:100AE00002460099204600F0AFFB012038BD0120EE
:100AF00001F049B9F8B5AFF30080054600200C4677
:100B00000C2000BF0646A819A0420DD932466946FE
:100B10000020AFF30080070008BF01F034F900980F
:100B2000A04218BF0546C419FFF7C8FF0560074675
:100B3000F01D20F007004619284600F00AF8B442DC
:100B400008BFF8BDA21B31463868BDE8F84000F088
:100B50007BBB00210160416070470C20704770B57D
:100B6000044685690068C10601D5302600E02026CC
:100B7000C00707D070BDD4E9012130469047206AF4
:100B8000401C20626D1EF6D570BD70B504468569A7
:100B90000078C00707D170BDD4E90121202090471B
:100BA000206A401C20626D1EF6D570BD09684A059A
:100BB00001D540B27047C905FCD500B2704709683D
:100BC0004A0501D5C0B27047C905FCD580B270474F
:100BD00070B50C460546012A05D02878800600D558
:100BE000EA69002302E0012305E05B1C934202D284
:100BF000E05C0028F9D1A869E618C01AA861286A43
:100C0000184428622846FFF7AAFF04E0D5E901212D
:100C100014F8010B9047B442F8D32846FFF7B5FF0C
:100C200070BD00002DE9F0410646002410687529CA
:100C3000314616A510D0FFF7B9FF002802DA40426E
:100C400013A507E031688A0701D512A502E049071C
:100C500004D511A5012401E0FFF7B1FF00210A220C
:100C600006F1240709E0B0FBF2FCB0FBF2F302FB53
:100C70001C00303078541846491C0028F3D1234614
:100C80002A463046BDE8F04100F03DBB00000000C0
:100C90002D0000002B0000002000000011680268F9
:100CA000006A530501D508700AE0D30501D5088014
:100CB00006E0130603D5C217C1E9000200E0086090
:100CC00001207047074B70B50D467B4400F005FFCF
:100CD0000446284600F040FF10B14FF0FF3070BDD1
:100CE000204670BDDD7200002DE9FF5F15468A4683
:100CF0000446DFF8AC80F8440027D8E900103E46EF
:100D0000CDE9001010E03AF816106A4602A800F08B
:100D1000E9FF411C07D02178890603D5E26939181B
:100D200091420DD80744761C2078800602D5E069F0
:100D3000B84205DDAE42E6DB3AF816000028E2D103
:100D4000A069C01BA0612046FFF709FFD8E9001089
:100D5000CDE90010002017E03AF818106A4602A802
:100D600000F0C0FFB0F1FF3F81460BD000250DF130
:100D7000080B05E0D4E901211BF8050090476D1C24
:100D80004D45F7D308F10100B0428046E4DB206A0C
:100D9000384420622046FFF7F8FEBDE8FF9F0000C0
:100DA0004A7300002DE9F0418046D21D22F007026F
:100DB0000025D2E90002F52915A614D0011E72F112
:100DC000000106DA0023D0EB030063EB020211A658
:100DD00008E0D8F800108B0701D50FA602E04907FC
:100DE00001D50EA601251146002408F1240704E0D0
:100DF00000F044FA30323A55641C50EA0102F7D14F
:100E00002B46324621464046BDE8F04100F07BBA11
:100E1000000000002D0000002B000000200000005A
:100E200030B4002100F1240408E002F00705D208E4
:100E3000303542EA4372DB086554491C52EA030527
:100E4000F3D10468002310A2250708D504F020047C
:100E50000C4304D0C46901230CA2641EC46130BCDD
:100E600000F051BA10B5044621461068FFF7A7FEFE
:100E700002462046BDE810400023D1E7D21D22F0F3
:100E80000701D1E90023CBE700000000300000009B
:100E9000F0B40D460188090502D5214C7C4402E0DE
:100EA0001F4C7C440E34002100F1240608E002F0BF
:100EB0000F071209E75D42EA03721B097754491CC8
:100EC00052EA0307F3D102780023120704D5702DEC
:100ED00006D009B1022311342246F0BC00F013BA47
:100EE00001231034F8E770B504460D46214610681A
:100EF000FFF765FE024629462046BDE87040002304
:100F0000C6E7D21D22F00703D3E90023C0E7036838
:100F1000126843F0200303600823C3610023B7E78E
:100F2000AC7100002DE9F05F894604464FF0000ADD
:100F3000DFF874B1FB44C0F820A02046E168884780
:100F4000002874D0252806D0D4E901219047206AD2
:100F5000401C2062F1E700265F462046E168884792
:100F60002028054607DB312D05D2781910F8200C12
:100F700008B10643F1E7B00701D526F00406C4F82E
:100F80001CA00027C4F818A02A2D09D0284607F075
:100F900005F838B304EB8708303DC8F8185019E05D
:100FA00059F8041B204604EB87029161E1688847E9
:100FB000012F054618D1E069002820DA26F0200626
:100FC0001DE0D8F8180000EB800005EB4000303839
:100FD000C8F818002046E1688847054606F0DEFF9D
:100FE0000028EED1012F0AD02E2D08D12046E1682D
:100FF00088477F1C0546022F46F02006C4DBA06907
:10100000002803DA404246F00106A061F00701D053
:1010100026F010066C2D0BD0682D09D04C2D39D040
:101020006A2D35D0742D35D07A2D33D016E038E0C6
:10103000E1682F4620468847B842054609D16C2F03
:1010400026D04FF48060E168064320468847054675
:1010500004E06C2F1AD04FF4807006430DB3A5F155
:101060004100192802D8203546F400664A46294630
:10107000204626604E46FFF75FF980B101280BD06D
:10108000F61D26F0070000F1080956E74020E4E7C6
:101090008020D8E70020D6E706F104094DE728466E
:1010A00052E7206ABDE8F09F3C71000010B542484D
:1010B0005421FFF799FB41485421FFF795FB404825
:1010C0005421FFF791FB3F493B483C4A3F4B0860A6
:1010D0003D490A603A491960531C0365481C106574
:1010E000012008653B48344A39A1784400F05CFD92
:1010F00020B9384878440A3800F03EFE37482F4A75
:1011000035A1784400F050FD20B9344878440A38BD
:1011100000F032FE32482A4A2FA1784400F044FD04
:1011200020B92F4878440A3800F026FE4023224890
:10113000DC000021224600F013FD20B12548784450
:10114000543800F019FE1D4822464023002100F0CB
:1011500007FD20B121487844543800F00DFE1848AE
:1011600022461023002100F0FBFC002806D01C487A
:101170007844BDE81040563800F0FEBD10BD104860
:1011800070B5006D20F001040B4800F085FD0B48A0
:1011900000F082FD0A4800F07FFD09E0206D20F09C
:1011A0000105204600F078FD2046FFF7B5FB2C46F0
:1011B000002CF3D170BD0000000100245401002474
:1011C000A8010024000000240400002408000024DA
:1011D00072000000976F000077000000836F00002E
:1011E0006F6F000010B500F0AFFDBDE8104000F0DB
:1011F000A6BD000000487047FC01002470477546FA
:10120000FFF7F8FFAE4605006946534620F0070099
:10121000854618B020B5FFF751F9BDE820404FF0E2
:1012200000064FF000074FF000084FF0000BAC46EF
:10123000ACE8C009ACE8C009ACE8C009ACE8C0093A
:1012400021F007018D467047034640688C46002810
:1012500018BF88423CBF03464068F8D3186818445A
:10126000884207D00CF1030020F00700001D411A4E
:10127000521A0146081D0A60FFF74EBB30B5B0F1A7
:101280000A0271F100034FEA900E4EEA817EB0EB44
:101290000E0061EB91014FEA101E4EEA017E10EB49
:1012A0000E0041EB11114FEA102E4EEA016E10EBC9
:1012B0000E0041EB11214FEA104E4EEA014E10EBA9
:1012C0000E0041EB1141401841F100014FEAD000FE
:1012D00040EA41704FEAD1014FEA810444EA907438
:1012E00010EB800544EB01046D1944EB0404521B20
:1012F000A3414FF0000348BF0A3200D530BD401C67
:1013000041F1000130BD2DE9F0470D469946924666
:10131000044600F124080168880604D5E06921F03C
:101320001001216000E00120A84201DD471B00E020
:101330000027A1697A1902EB0900081AA061207838
:10134000C00602D42046FFF70AFC002608E0D4E9D4
:1013500001211AF806009047206A401C761C206282
:101360004E45F4DB2078C0060AD52046FFF7F7FB90
:1013700006E0D4E9012130209047206A401C206219
:10138000381EA7F10107F4DC07E0D4E9012118F8C1
:1013900005009047206A401C2062281EA5F1010527
:1013A000F3DC2046FFF7F1FB2078000602D502208F
:1013B000BDE8F0870120FBE72DE9FF4F0C461E46F4
:1013C0004FF0FF378BB0D2E90001DDF860800A9062
:1013D0008A46C1F30A5505B93D46002108464FF03B
:1013E0000000BAF1000F00F4400005DA00EB8000C5
:1013F0004FF4400101EA50004FEA9059B9F1010F52
:1014000000DDB9460A9850EA4A000ED044F6105062
:10141000A5F2FF3545432F14B8F1000F1ED07542D9
:10142000291E1EDDC9F100021CE0B8F1010F4FF0CA
:10143000000001D0302103E0F24305E02154401CBC
:10144000B042FBDB30460022002121540B99C1F849
:101450000880C1E900200FB0BDE8F08FBD1B6D1CF6
:10146000DEE74A4600DA694206A800F0DFFC06AB78
:1014700093E8070003AB83E8070050460A9906F09B
:101480009BF98DE80700A0F500501F3800900398E5
:10149000002D0ADD42F21F014A460844002303A939
:1014A0000390684606F004FC09E0A0F500504A46A7
:1014B0001F38002303A90390684606F00EFC8DE850
:1014C00007000004000C03D04FF0FF30410800E09B
:1014D0001046B8F1000F03D00022009215461EE01E
:1014E000751E05D4FFF7CAFE303262556D1EF9D560
:1014F000B3460122084302D000227F1C04E020787A
:10150000302801D100227F1E002A099784D01DE0D7
:10151000112D07DAFFF7B2FE303262556D1C50EA2A
:101520000102F5D1084302D00098C8B10EE00021B5
:10153000681E05E0235C625C63542254401E491C13
:101540008142F7DBAB46A81B401E0990002004F83F
:101550000B000B98099AC0F80880C0E9002B7AE7C5
:1015600011264FF0000857E72DE9F04F8846044652
:10157000D21D22F0070191B0D1E90001CDE90A01A5
:1015800006F0F4FC02460B98C00F01D02D2007E0B6
:101590002068810701D52B2002E0202101EAC0004C
:1015A000032A099001D0072A05DB0346414620465D
:1015B00000F0FCFB0BE12078800601D5E06900E03B
:1015C0000620B8F1650F814606D0B8F1660F18D035
:1015D000B8F1670F70D131E00020B9F1110F009020
:1015E00001DB112301E009F101030AAA01A90CA8FA
:1015F000FFF7E2FEDDE90C70002609F101058346E4
:1016000047E001204B4600904FF000470AAA01A98D
:101610000CA8FFF7D1FEDDE90DB00C995D46002660
:1016200010B909F101000D18B9EB050003D4C0F1A0
:10163000FF3609F10105A5EB09002BE0B9F1010F17
:1016400001DA4FF001090020B9F1110F009048466E
:1016500001DD112300E003460AAA01A90CA8FFF747
:10166000ABFEDDE90C704D4600268346207800076E
:101670000AD4AB4500DA5D4601A8012D04DD41190D
:1016800011F8011C302907D04F4502DA17F1040F79
:1016900004DA012082460FE06D1EEEE7002F02DC27
:1016A000ED1B3E4403E0781CA84200DD7D1CB81B06
:1016B00000F1010A4FF000472078000703D4AA4543
:1016C00001DB4FF0FF3A0021B7F1004F0DF1430865
:1016D0008DF8431024D002202B23002F01DA7F4203
:1016E0002D230A21021EA0F1010000DC5FB197FB4F
:1016F000F1FC97FBF1F201FB1C7C17460CF1300C5E
:1017000008F801CDEEE7A8F1010003702188090572
:1017100001D5452100E06521A0F1010800F8011C78
:1017200009980FA9A1EB0807FF1D00B1012041197D
:1017300001EBEA70A1693844081A401EA0612078C4
:10174000C00602D42046FFF70AFA099828B1D4E966
:1017500001219047206A401C20622078C00622D5D3
:101760002046FFF7FCF91EE0002E04DBB34502DD46
:1017700001A8805D00E03020D4E901219047206A73
:10178000401C2062761CAAF101005FEA000A0AD11F
:1017900000F008FBC0680168405CD4E90121904773
:1017A000206A401C2062281EA5F10105DCDC07E050
:1017B000D4E9012118F8010B9047206A401C2062EF
:1017C000381EA7F10107F3DC2046FFF7DEF90320FE
:1017D00011B041E62DE9F04F04460D46D21D22F02E
:1017E000070089B0D0E900974846394606F0BEFBAD
:1017F0000246F80F01D02D2307E02068810701D5AC
:101800002B2302E0202101EAC0038DF820300BB128
:10181000012000E00020032A824601D0072A04DBD1
:101820002946204600F0C2FA3FE12078800601D424
:101830000D2500E0E569C7F30A560D2D49DA0021B0
:101840004FEA175B08464FF00000002F00F44000FD
:1018500007DA00EB80004FF4400100EBD07001EAA2
:1018600060008115012901DD4FF0FF3100224FEAB0
:10187000850CBCF1180F06D31346ACF118004FF0DD
:101880008052C24003E04FF4801323FA0CF30CF1B2
:101890000C0CBCF1200F04D3ACF1200C09FA0CF0B5
:1018A00001E007FA0CF000294FF0004801DD18B9FB
:1018B0000FE00ED140450CD319EB02095F4121B96D
:1018C000404502D19F4329EA0209BBEB175F00D0D4
:1018D000761C2088000502D57B48784402E07A48CF
:1018E0007844193808AA302302F80A30037C0AF138
:1018F0000101002E0AF1020A53546A4602DC4FF03D
:10190000300101E04FF031014FF001088DF8001077
:1019100002D0A6F2FF3603E059EA470100D06B4E31
:10192000002D02DC2178090704D54FF002082E2192
:101930008DF80110C44600210BE0C7F303433F01BB
:10194000C35C491C6D1E02F80830052908F1010826
:1019500001DA002DF1DC00210CE000EB1973491CC9
:101960001B786D1E082902F808304FEA091908F1A2
:10197000010801DA002DF0DC21688B0602D516E0A3
:10198000A8F10108E04505DD02EB080313F8013C6E
:10199000302BF5D0B8F1000F09DD02EB080313F886
:1019A000013C2E2B03D1090701D4A8F10108002D19
:1019B00005DD3E2102F808106D1E08F10108407C8B
:1019C000002E02F8080008F1010804DA2D20764202
:1019D00002F8080002E02B2002F808000A214FF468
:1019E0007A70864208F101080BDB96FBF0F3303386
:1019F00002F8083096FBF0F308F1010800FB1366CB
:101A000001E0642E0CDB642096FBF0F3303302F827
:101A1000083096FBF0F308F1010800FB136601E0C3
:101A20000A2E06DB96FBF1F0303002F8080008F1D0
:101A3000010896FBF1F001FB1060303002F808005D
:101A4000A16908F1010808EB050202EB0A00081A77
:101A5000A0612078C00602D42046FFF780F8216AF2
:101A600008AE01EB0A00206204E0D4E9012116F877
:101A7000010B9047BAF1010AF7D22078C00602D5CF
:101A80002046FFF76CF86E4609E016F8010B3E2879
:101A90000FD0D4E901219047206A401C2062B8F1A0
:101AA0000108F2D22046FFF770F809B00320BDE824
:101AB000F08F206A2844206203E0D4E9012130201D
:101AC00090476D1EEBD3F8E7C667000002FCFFFFEE
:101AD00001694A1C02610878704700B58FB0CDE9F2
:101AE00001310021059105497944CDE903101146E2
:101AF0006846FFF717FA0FB000BD0000E5FFFFFFD3
:101B000010B5436913B1AFF3008001E0FFF760F84F
:101B1000012010BD127800F124010A7000224A70E1
:101B20000122EDE711684FF0FF32E9E710B5436994
:101B300013B1AFF3008001E0FFF7D6F8012010BD2C
:101B4000128800F1240182840022C2840122EDE780
:101B500011684FF0FF32E9E7007B00F0800070472A
:101B600070B5C468A50713D0650211D4B2F5807FA3
:101B700009D0B2F5007F06D0B2F5806F08D10123FD
:101B800000F1240106E05D1E6FF07F46B54201D3EF
:101B9000012070BD0161C361416024F47061114393
:101BA000C160002070BD00002DE9F0410C461646D2
:101BB000070047D0104600F06FF82078611C6128BC
:101BC0000AD0722802D077283CD102E001250024F7
:101BD00005E00225042402E0082448F2020511F879
:101BE000010B2B2806D0622809D011F8010C7428AB
:101BF0000AD00BE045F0030544F00204EFE745F09E
:101C0000040544F00104EAE744F010043846214694
:101C100004F0C9FF411C15D00021316171604FF4FF
:101C20000071F560F1617061200704D53046022231
:101C3000002100F05FFA306D40F001003065304661
:101C4000BDE8F0810020FBE72DE9F0410D46064696
:101C5000104C206DC10704D0410804D020F00104CD
:101C6000F7E722460EE05420FEF727FE07000ED0CD
:101C7000206D47F001010843542120653846FEF7E6
:101C8000B3FD3A4629463046BDE8F0418CE70020D6
:101C9000D6E70000000100242DE9F04704464FF08C
:101CA000FF380026C568D4E90497A80718D0204655
:101CB00000F0DCFA384604F06FFF002800DA4646F0
:101CC000280502D54846FEF727FE4C212046FEF7A0
:101CD0008BFD206D20F0010020653046BDE8F087C7
:101CE0004046FBE72DE9F04116460C46054600F05C
:101CF00051F8036893F80101012807D0FF2C12D88E
:101D0000185D80B101202C70BDE8F081D3F8070187
:101D10003246214603F20713C7182846BC46BDE8E1
:101D2000F041002360474FF0FF30EDE710B5044667
:101D3000AFF300802046BDE81040FEF7AABB0028A4
:101D400001D0FEF7B5BE704710B5002102A000F02B
:101D5000D1FA012010BD0000534947414252543A84
:101D60002041626E6F726D616C207465726D696E78
:101D70006174696F6E00000010B500F0D5FABDE81F
:101D80001040FFF7DCBF10B500F0E8FABDE81040E6
:101D9000FFF7D5BF10B500F005F8001D10BD00BF5E
:101DA00055620000004870471C0200242DE9F041F4
:101DB0001F46044603260168072A01F4006004DB7D
:101DC00008B116A505E016A503E008B115A500E0C9
:101DD00015A521F010002060A069C01EA0610FB100
:101DE000401EA0612046FEF7BAFE4FB1D4E90121A2
:101DF00038469047206A401C2062C01C206206E0E2
:101E0000206AFAE7D4E9012115F8010B9047761E04
:101E1000F8D22046FEF7B9FEBDE8F0814E414E00F3
:101E20006E616E00494E4600696E66002DE9F0470E
:101E3000814616468AB0354878440DC88DE80D00B5
:101E400032487844801C03AC0DC884E80D0041F68C
:101E50009B300844372190FBF1F290FBF1F5A5F19E
:101E6000800501FB12041B3C02D56442012000E006
:101E70000020DFF898A080460027FA44AAF1BE0AA5
:101E80000EE0E0070AD03246684607EB470101231F
:101E90000AEB810105F021FF8DE8070064107F1C2B
:101EA000002CEED1194F7F44AE3F19E0E80715D062
:101EB00007EB04100DF1180A90E80E008AE80E00F6
:101EC000C068F04201D1981908903246012306A952
:101ED00003A805F002FF03AB83E807006D10641C44
:101EE000002DE3D14FF0010332466946B8F1000FEF
:101EF00003A802D005F0DCFE01E005F0EEFEC9E922
:101F00000001C9F808200AB0BDE8F087F8620000B7
:101F10002DE9F05F054617460C46C86820F42010EE
:101F200040F48000C860800602D5084600F0C1F980
:101F3000E06841F282014FF0FF3A0140022903D0EC
:101F4000204600F053F9B9E000F42041B1F5004F0C
:101F50000FD1C00306D56168E06A884200D8084600
:101F6000606006E02069E0626060606904F016FE6F
:101F7000A061A0680022EEB200280DDAE1688B05AE
:101F80000AD4C043A06041F490302260E0606068F1
:101F9000411C61600670AAE0E0689146226040F44E
:101FA0000050E060206978BB606904F0FAFD04F13C
:101FB00024054FF00108A8B1A08910F4407F08D093
:101FC000E069FEF77AFC206118B1E06840F4006037
:101FD00017E0C4F81C802561E06820F4407040F4EC
:101FE00080600EE0E069FEF768FC00282061F0D018
:101FF000E06840F4006010F4407FE06002D140F4FB
:102000008070E06020696060E06825696FF0010B16
:10201000C1051ED56168E06A884200D80846411BA8
:1020200004D02246284600F0EBF8E8BB1FB1E56279
:10203000C4E9015959E0681CE0626060E069401E33
:10204000A060E06840F48030E06030462E70BDE86B
:10205000F09F17B100F480320AE06068411C6160B3
:102060000670E0680A2E40F48030E06006D000225E
:10207000E16A6068814203D90B4602E00122F7E77A
:102080000346B4F80CC05B1B5FEA4C5C04D4D4F884
:102090001CC09C4500DD02B3814200D80146002BE4
:1020A000A1EB0008E56200E008E0C4E9015907DDA2
:1020B00022461946284600F0A3F808B15046C6E764
:1020C000B8F1000F09D0A169E5626560A1EB0800D5
:1020D000A061E06840F01000E06047B16168A0696D
:1020E000E562491B08446560A0615846AFE7304689
:1020F000ADE700002DE9F041044616460D4647695C
:10210000007B80072ED0384604F04BFD50BB3EB319
:10211000012E02D0022E25D104E0204600F046F91F
:1021200005441DE0384604F039FDE168002841F01F
:102130001001E16005DA204600F058F80120BDE802
:10214000F081C9030BD56268E16A914200D811465B
:10215000A26911442269891A814200DD08460544BA
:10216000002D01DA0220EAE7E16A6068E268814254
:1021700006D29103E06203D522F4003141F010024F
:10218000A6690027AE4213DCE16A814201D90B4601
:1021900000E0034603EB060C2369ACEB030CAC45F3
:1021A00006DD814201D98C4600E084469C4505D17C
:1021B000A760276042F02000A5620DE0AD1BE66934
:1021C000AE1B8142A66000D90846C01A281A2060BA
:1021D0005819606022F0200003490840E0600020A8
:1021E00084F84870ABE70000BFCFD7FFC16821F487
:1021F000001141F08001C1600021816001607047E1
:102200002DE9F74F15460C464FF0FF3B3848D7688D
:10221000D2F814A0074209D05046A96904F0C5FCC1
:10222000002819DB3248C0430740EF604FF00049F7
:102230006FF000484C4501D3464600E02646009921
:102240003B465046324604F0B3FCA96920F00042F8
:10225000B21A1144A96128B12846FFF7C7FF5846B2
:10226000BDE8FE8FA41BE5D10020F9E770B5044658
:102270000569C06A6168884200D80846E16821F4AF
:102280002011E160C90312D5A84208D02246411BA3
:102290002846FFF7B5FF10B14FF0FF3070BD0020AA
:1022A000E562C4E90150E06820F48030E06000207D
:1022B00070BD10B50446C06820F02000E060A16A3F
:1022C000A06988420DD02046FFF7D0FFE06820F4D7
:1022D000405040F01000E060A06AA0612069E06218
:1022E000606044F24001E0688843E06010BD000097
:1022F0001000020070B505460C460A2000E06D1C77
:1023000004F058FC35B128780028F8D102E0641CAC
:1023100004F050FC14B120780028F8D1BDE87040DA
:102320000A2004F047BC000010B5014602A0FFF7E8
:10233000E1FF012010BD000053494752545245446B
:102340003A2052656469726563743A2063616E274E
:1023500074206F70656E3A200000000010B50128EF
:1023600005D0002103A0FFF7C5FF012010BD09A182
:10237000F8E7000053494752544D454D3A204F75F8
:1023800074206F662068656170206D656D6F72796D
:10239000000000003A2048656170206D656D6F7225
:1023A0007920636F727275707465640010B50146B0
:1023B000C268900703D0900607D5886A0AE000F04B
:1023C00017F801210160881E10BD8B694868184408
:1023D0000B69C01A91F848301BB191F84910401AA6
:1023E00010BD1103FCD50028FADD401E10BD000011
:1023F00000487047FC01002448F26650C0F6000017
:1024000004F060FC48F27F50C0F6000004F05AFC73
:10241000EFF3108072B600BFFEE7F0B190F8351010
:10242000022918D180B540F20F420168C4F20202BD
:10243000914214DC6F23C4F20203994224DC3F234F
:10244000C4F2020399423ADC1023C4F20203994217
:1024500058D0282352E0802141650121C2E040F29A
:102460006F43C4F2020399421ADC40F23F43C4F2C4
:10247000020399422ADC40F21043C4F2020399425B
:1024800040D040F2284339E09F23C4F2020399422E
:1024900025DC7023C4F20203994233D088232DE057
:1024A00040F29F43C4F2020399421FDC40F27043A2
:1024B000C4F20203994225D040F288431EE0402333
:1024C000C4F2020399421DD0582317E040F2404362
:1024D000C4F20203994215D040F258430EE0A02303
:1024E000C4F2020399420DD0B82307E040F2B8438A
:1024F000C4F20203994205D040F2A043C4F20203A1
:10250000994271D191424FF0040280F8352010DCDD
:102510006F20C4F20200814220DC3F20C4F202009E
:10252000814236DC1020C4F20200814253D02820C0
:102530004EE040F26F40C4F2020081421ADC40F2E9
:102540003F40C4F2020081422ADC40F21040C4F253
:10255000020081423FD040F2284039E09F20C4F27F
:102560000200814225DC7020C4F20200814232D098
:1025700088202DE040F29F40C4F2020081421FDC1F
:1025800040F27040C4F20200814224D040F2884000
:102590001EE04020C4F2020081421CD0582017E007
:1025A00040F24040C4F20200814214D040F2584050
:1025B0000EE0A020C4F2020081420CD0B82007E057
:1025C00040F2B840C4F20200814204D040F2A04080
:1025D000C4F202008142086820F001000860002176
:1025E000BDE88040084670470A6822F00E020A6083
:1025F00045F25742C5F6020291420A6822F00102F2
:102600000A600EDC45F22F42C5F60202914217DC49
:1026100045F20842C5F60202914226D045F21C421C
:102620001FE045F27F42C5F60202914211DC45F2FD
:102630005842C5F60202914217D045F26C4210E0B2
:1026400045F23042C5F6020291420ED045F24442B4
:1026500007E045F29442C5F60202914205D045F2E8
:102660008042C5F6020291421AD1D0E9181CD0E985
:1026700016E30A6822F480720A6003F01F01012247
:1026800002FA01F1CEF80410816ECCF80410C16E8C
:1026900031B10A6822F480720A60D0E91C124A60E3
:1026A000002180F83410012280F83520026D002AC4
:1026B00096D0904793E7000070B540F2F0060446CC
:1026C000C2F2004670688047054618B904F040FB26
:1026D000054600BF7068804708B904F039FB401B0D
:1026E000A042F7D370BD00002DE9F04F83B00F6812
:1026F000002F00F0D98000F126420A2302F1FF7674
:1027000042F20042C5F602024FEAB625904200F1BD
:10271000200208BF09230192092D38BF4FEAB623D2
:1027200000244FF0010E00264FF00008009300BF78
:102730000EFA08FC17EA0C0900F0A380D1F804A0F7
:10274000BAF1120F00F2A9800EFA0AF717F0061F6D
:1027500000F0A3800322876802FA06FECA6827EA0F
:102760000E05B2402A43826042684FEA1A154FEACA
:10277000480B6FEA0E0E22EA0C0205FA08F52A430E
:1027800042604AF01005C268122D8D6802EA0E02FE
:1027900005FA0BF542EA0502C26014D16FF003029C
:1027A000019D02EA580204F01C030F2755F802C0ED
:1027B0009F40D1F810A02CEA07070AFA03F33B4325
:1027C000AB50D1F804A00AF00302036802FA0BF23E
:1027D00003EA0E035FEACA074FF0010E42EA030262
:1027E00002604ED544F2F44340F2084CC5F60203B1
:1027F000C5F6000C0F254FF0B04A1A6842F00202ED
:102800001A601A6802F00202029228F00302029B88
:1028100004F00C0352F80C709D40AF43009D05FA84
:1028200003F33B4342F80C3040F2040CC5F6000CB5
:10283000DCF87C204B6842EA0907DD0358BF22EA36
:1028400009079D03CCF87C70DCF8802042EA090778
:1028500058BF22EA0907DD02CCF88070DAF80020C0
:1028600042EA090758BF22EA09079B02CAF800702A
:10287000DCF8002042EA090758BF22EA0907CCF831
:10288000007008F101080F6837FA08F206F1020635
:1028900004F104047FF44CAF06E00322B34602FACD
:1028A00006F76FEA070E6CE703B0BDE8F08F4269E8
:1028B00002EA0103914341EA034181617047002A22
:1028C00008BF09048161704741F20000C5F600406D
:1028D0000068000C704780B540F2F000C2F2004082
:1028E0004068804700B180BDBDE8804004F030BA48
:1028F0004EF60000C1F6F170006870474EF6040015
:10290000C1F6F170006870474EF60800C1F6F1702C
:102910000068704746F28041C5F6020151F8200078
:1029200040F20031C8F20001401A18BF0120704780
:1029300046F2004241F44071C5F6020242F820100E
:10294000704780B5032000F0BEF800F0A7FE44F207
:10295000184148F25813C5F60201C0F600030A6890
:10296000C2F303229A5C096801F00F0102F01F0212
:10297000595CD04040F21002C2F2004201F01F0147
:1029800020FA01F1116040F20C01C2F2004108602E
:102990000F2000F007F808B1012080BD00F055F8C5
:1029A000002080BD80B540F2F000C2F20040006817
:1029B0008047002080BDB0B502784EF6985CCEF21C
:1029C000000C4378CCF80030E2B14368CCF8043016
:1029D000037BC17A90F80AE0457B447A42EA0372AD
:1029E000837B42EA0161C27B41EACE41007A41EA3F
:1029F000854141EA434141EA024141EA042141EA79
:102A0000400002E00020CCF80400CCF80800B0BD83
:102A10004EF62450CEF20000BFF35F8F016821F420
:102A2000803101600021016770474EF6245140F06B
:102A30000100CEF200010867086840F480300860A9
:102A4000BFF34F8FBFF36F8F7047704700280CD4D0
:102A500000F01F01012202FA01F14EF20012C0F350
:102A60004A10CEF2000242F82010704770B54EF6C0
:102A70000C5C4FF0FF36CEF2000C00F1604505F51E
:102A80006445DCF80030C3F3022E8EF00703042BFC
:102A900028BF0423BEF1030406FA03F321EA03016D
:102AA00000F00F0338BF0024043B0028634406FAFB
:102AB00004F048BF03F10C05A14022EA00000843DE
:102AC0000001287070BD4EF60C514FF6FF03CEF298
:102AD00000010A681A4060F30A2242F0806040F068
:102AE000FD7008607047000070B544F60C0604469F
:102AF000C5F602063168306801F00701062912D1D7
:102B000020F03F0020433060FFF7E5FE054600BFA0
:102B100056F8080C80040CD4FFF7DDFE401BB0F51E
:102B20007A7FF5D91DE000F03F00001B18BF01209F
:102B300070BDA4F11D010020112913D8012202FA51
:102B400001F111F0031F0DD0FFF7C5FE044600BFD1
:102B50003068C00307D4FFF7BEFE001BB0F57A7FD4
:102B6000F6D9012070BD002070BD44F60000C5F606
:102B70000200016841F480710160704744F2A04195
:102B8000C5F602010A681043086070472DE9F04756
:102B90000446C07844F210480007C5F6020823D561
:102BA000606E4FEA3051032936D8DFE801F00209A0
:102BB0000E16D8F81C1041F40031C8F81C100CE0B7
:102BC000201D022102F034F804E004F12400022167
:102BD00002F0B2F8064640B9606ED8F8401021F411
:102BE00040110843C8F8400000266078C00701D1B2
:102BF000354629E0606D042800F214813546DFE88F
:102C000000F003130D181800D8F81C00354640F4E6
:102C10000030C8F81C000CE00126E6E704F12400AF
:102C2000002102F089F803E0201D002102F000F8E5
:102C300005462F464DB9D8F84000616D20F00700D9
:102C400000250843C8F8400037466078800727D53C
:102C5000A06D4FEAB010042800F2E780DFE800F032
:102C600003100A151500D8F81C0040F40030C8F80D
:102C70001C000AE004F12400002102F05DF803E0EA
:102C8000201D002101F0D4FF05462E464DB9D8F88D
:102C90004000A16D20F4E07000250843C8F8400012
:102CA0003E466078400729D5D4F8A4004FEA70501A
:102CB000042800F2BD80DFE800F003100A151500BB
:102CC000D8F81C0040F40030C8F81C000AE004F1F9
:102CD0002400002102F030F803E0201D002101F063
:102CE000A7FF0546A94655B9D8F84800D4F8A4105E
:102CF00020F4600000250843C8F84800B146607819
:102D0000000729D5D4F8A8004FEA3060042800F263
:102D10009380DFE800F003100A151500D8F81C00B6
:102D200040F40030C8F81C000AE004F1240000213F
:102D300002F002F803E0201D002101F079FF0546B2
:102D40002F4655B9D8F84800D4F8A81020F0E06014
:102D500000250843C8F848004F46E07880071FD593
:102D6000A06C4FEA301003282FD8DFE800F00E02E5
:102D7000090ED8F81C0040F40030C8F81C0004E02C
:102D8000201D022101F054FF05462E464DB9D8F80A
:102D90003C00A16C20F0300000250843C8F83C003E
:102DA0003E466078C00629D5E06D4FEA30300428F1
:102DB00045D8DFE800F003130D181800D8F81C0000
:102DC00040F40030C8F81C000DE001250126E8E7BA
:102DD00004F12400002101F0AFFF03E0201D0021D9
:102DE00001F026FF05462F464DB9D8F84000E16DA9
:102DF00020F4E04000250843C8F8400037466078DA
:102E0000800630D5206E4FEA3040052800F2ED8272
:102E1000DFE800F01E03181E1E1E201D012101F018
:102E200007FF14E0012501270FE70125012638E7F8
:102E300001254FF0010962E7012501278DE70125F2
:102E40000127DCE704F12400012101F075FF0546AC
:102E50002E464DB9D8F84000216E20F4E020002520
:102E60000843C8F840003E466078400622D5D4F8B2
:102E7000AC004FEA3070052800F2BA82DFE800F0BB
:102E80000E03080E0E0E201D012101F0D1FE04E0FC
:102E900004F12400012101F04FFF05462F4655B9EA
:102EA000D8F84800D4F8AC1020F0E04000250843E2
:102EB000C8F848003746607800061ED5E06E88B135
:102EC000B0F1005F09D0B0F1805F28D1D8F81C00C4
:102ED00040F40030C8F81C0004E0201D012101F07E
:102EE000A7FE05462E464DB9D8F84000E16E20F009
:102EF000405000250843C8F840003E46E078C0072F
:102F000020D0606C03284ED8DFE800F011020C11CD
:102F1000D8F81C0040F40030C8F81C0007E0012578
:102F20000126EBE7201D022101F082FE0546A9469D
:102F30004DB9D8F83C00616C20F00300002508432F
:102F4000C8F83C00B146A078400601D44F4617E0CF
:102F5000D8F8F00340F48070C8F8F003FFF7BBFC2A
:102F6000064600BFD8F8F003C00507D4FFF7B3FC4E
:102F7000801B6428F6D90325032701E02F46B5B14D
:102F80002078C00754D0A06F4FEAF000052800F267
:102F90003282DFE800F042033C424242201D012120
:102FA00001F046FE38E001254FF00109CBE7D8F8E3
:102FB0006010D4F8B000414011F4407F11D0D8F82F
:102FC0006010D8F8602042F48032C8F86020D8F849
:102FD000602021F4407122F48032C8F86020C8F8E3
:102FE0006010B0F5807F40F01A82FFF774FC06464F
:102FF00041F2883A03250327D8F86000800700F1E2
:103000000C82FFF768FC801B5045F5D9B8E704F146
:103010002400012101F090FE05462E464DB9D8F856
:103020004400A16F20F0380000250843C8F8440090
:103030003E46207880071ED5606F052800F2DE81AD
:10304000DFE800F00E03080E0E0E201D012101F036
:10305000EFFD04E004F12400012101F06DFE0546BE
:103060002F464DB9D8F84400616F20F007000025C5
:103070000843C8F8440037462078400720D5D4F8E4
:103080009000052800F2BD81DFE800F00E03080E75
:103090000E0E201D012101F0CBFD04E004F12400FF
:1030A000012101F049FE05462E4655B9D8F84800E1
:1030B000D4F8901020F0070000250843C8F8480015
:1030C0003E462078800622D5D4F88C004FEA307036
:1030D000052800F29981DFE800F00E03080E0E0EBD
:1030E000201D002101F0A4FD04E004F124000221D0
:1030F00001F022FE05462F4655B9D8F84400D4F811
:103100008C1020F0E04000250843C8F84400374602
:103110002078400622D5D4F898004FEAB020052840
:1031200000F27581DFE800F00E03080E0E0E201D80
:10313000002101F07DFD04E004F12400022101F0F2
:10314000FBFD05462E4655B9D8F84800D4F898102E
:1031500020F4E05000250843C8F848003E46207897
:10316000000622D5D4F89C004FEA7030052800F202
:103170005181DFE800F00E03080E0E0E201D002125
:1031800001F056FD04E004F12400022101F0D4FD19
:1031900005462F4655B9D8F84800D4F89C1020F4BD
:1031A000604000250843C8F84800374620680107FA
:1031B00016D5D4F88000B0F5805F09D104F1240061
:1031C000022101F0B9FD002818BF0127D4F88000C2
:1031D000D8F8441021F440510843C8F8440020684E
:1031E000C10616D5D4F89400B0F5807F09D104F15A
:1031F0002400022101F0A0FD002818BF0127D4F807
:103200009400D8F8481021F440710843C8F84800E9
:103210002068000321D5D4F8A000B0F5003F10D0FD
:10322000B0F5803F07D0002840F0D980201D002154
:1032300001F0FEFC04E004F12400022101F07CFD19
:1032400005462E4655B9D8F84800D4F8A01020F409
:10325000403000250843C8F848003E46A0784007A3
:1032600024D5D4F88400B0F5401F13D0B0F5001F6A
:103270000AD0B0F5801F40F0B580D8F81C0040F4AB
:103280000030C8F81C0005E004F12400012101F021
:1032900053FD05462F4655B9D8F84400D4F884109C
:1032A00020F4401000250843C8F844003746A078B1
:1032B000C00701D13E461EE0E06CB0F5803F07D06C
:1032C000B8B9D8F81C0040F40030C8F81C0004E07D
:1032D000201D022101F0ACFC05462E465DB9D8F850
:1032E0003C00E16C20F4803000250843C8F83C0025
:1032F000E0E7012501262068810008D504F12400BB
:10330000022101F019FD002818BF01262068810361
:103310001BD5E16F6FF0010202EB3122022A0AD3C2
:103320004FEA31223AB1012A06D1D8F81C2042F4E2
:103330000032C8F81C200DB1012606E0D8F8442060
:1033400022F440721143C8F84410C10207D5D8F8DE
:103350004010226F21F000411143C8F84010C10015
:1033600008D5D8F80010D4F8B42021F480411143D6
:10337000C8F80010810207D5D8F84010A26E21F0DD
:1033800080711143C8F8401041000CD5D8F80010E6
:1033900021F40041C8F80010D4F8B810D8F8002083
:1033A0001143C8F80010B0F1FF3F07DCD8F83C101B
:1033B000226D21F040511143C8F83C10000208D59D
:1033C000D8F84400D4F8881020F440000843C8F826
:1033D0004400002E18BF01263046BDE8F0870125C5
:1033E00001263BE70125012761E7012501263BE591
:1033F000012501275FE5012501261AE601250127A0
:103400003AE6012501265CE60125012780E6012533
:103410000126A4E601250127C8E6D4F8B0004FF63E
:10342000CF73D8F80020C0F2FF0300F4407122F4FB
:103430007C5203EA10136FF31F30B1F5407F08BFD1
:103440001A430025C8F80020D8F860100843C8F8CF
:1034500060007BE52DE9F04381B0002800F0198180
:1034600042F200080446C5F200288946D8F8000058
:1034700000F00F0081420ED9D8F8000020F00F00B4
:1034800040EA0900C8F80000D8F8000000F00F007A
:10349000484540F0FE80206844F210474107C5F6D9
:1034A00002070AD52169BA6802F07002914204D974
:1034B000BA6822F070021143B96001070AD5616948
:1034C000FA6802F07002914204D9FA6822F07002A0
:1034D0001143F960C1060AD5A169FA6802F4E062F5
:1034E000914204D9FA6822F4E0621143F96081063E
:1034F0000AD5E1693A6902F07002914204D93A6949
:1035000022F070021143396110F002010AD0E26822
:10351000BB6803F00F039A4204D9BB6823F00F0382
:103520001A43BA60C20736D0B86820F47061D4E993
:1035300001021143B960012857F8101C09D0032873
:1035400004D0022808D1890309D4A2E0890106D455
:103550009FE0C90503D49CE0490740F19A8039688F
:1035600021F0070108433860FFF7B5F9064641F23C
:10357000883500BF3868616800F03800B0EBC10FD3
:1035800006D0FFF7A8F9801BA842F3D9032081E0F9
:10359000206800F0020151B1E168BA6802F00F0240
:1035A000914204D2BA6822F00F021143B960D8F8F0
:1035B000001001F00F0189450DD2D8F8001021F05C
:1035C0000F0141EA0901C8F80010D8F8001001F015
:1035D0000F0149455DD141070AD52169BA6802F05A
:1035E0007002914204D2BA6822F070021143B960AD
:1035F00001070AD56169FA6802F07002914204D2AB
:10360000FA6822F070021143F960C1060AD5A16977
:10361000FA6802F4E062914204D2FA6822F4E062AD
:103620001143F96080060AD5E069396901F070013B
:10363000884204D2396921F070010843386100F0F2
:103640002DF8B96848F25812C0F60002C1F3032100
:10365000515CBB6803F00F0301F01F01D25C20FA3C
:1036600001F102F01F0040F21002C2F2004221FA02
:1036700000F0106040F2F80040F20C02C2F200408C
:10368000C2F200420068116001B0BDE8F043FFF7EC
:1036900089B9012001B0BDE8F083000044F2004187
:1036A000C5F602010869C0F3C200032814D002283D
:1036B0000DD088BB0868800649F20000C0F2D03007
:1036C00058BF70470968C1F3C101C840704747F649
:1036D0004000C0F27D1070478B6A886AD1F82CC018
:1036E0004A6BC0F30510E0B1C2F3CC0203F0030350
:1036F00000EE102A9FED291AB8EE400A20EE010ACA
:103700009FED271ADFE803F0021F0F1F0A689206D9
:103710000CD49FED251A16E040F60010C0F23D00D3
:103720007047002070479FED1F1A0CE00A6849F2AD
:103730000003C0F2D033C2F3C10223FA02F201EE59
:10374000102AB8EE411A0A6B9FED183A6FF35F2208
:1037500002EE102A5FEACC7203FE000A03EE100AA2
:10376000086BB8EE422AC0F34620B8EE433A013067
:1037700030EE020AB7EE002A81EE031A30EE020A9A
:1037800021EE000A01EE100AB8EE411A80EE010A9D
:10379000BCEEC00A10EE100A704700BF00000039EE
:1037A0000024744A20BCBE4B0024744C000000006E
:1037B00070B586B0002844F2104640F2000014466E
:1037C0000D46C5F60206C5F6020021D0D6F8D01087
:1037D00000F5006041F00401C6F8D010D6F8D01012
:1037E00001F00401019101994FF40071019102214E
:1037F00002910321049100210391059101A9FEF793
:1038000073FF306820F07E4040EAC41028431DE07A
:10381000D6F8D01041F00101C6F8D010D6F8D0107B
:1038200001F00101019101994FF480710191022190
:1038300002910321049100210391059101A9FEF752
:1038400053FF306820F0FE7028432043306006B0FC
:1038500070BD000058B3F0B581B00446007844F262
:103860000046C007C5F6020623D12078800740F144
:10387000A080306910F03801B06A3ED0182908BF26
:103880005FEA807039D0E0683168002852D021F0BA
:10389000190108433060FFF71EF8054630684007FD
:1038A00032D4FFF718F8401B0228F7D95BE101205A
:1038B0007047306900F03801B06A102905D0182926
:1038C0000AD100F00300022806D130688003CCD56D
:1038D00060680028C9D122E16168306800294FD0B2
:1038E000B1F5A02F37D0B1F5803F38D020F480302B
:1038F0003060306820F4802033E03068400703D522
:10390000E068002800F00B81FEF7DEFF41F20301C2
:10391000884208D820697168402821F47C3145D15B
:1039200041F4003044E07068216920F0FE4040EA34
:1039300001603DE021F001003060FEF7CCFF05465C
:103940003068400735D5FEF7C6FF401B02284FF010
:103950000300F5D908E140F480203060306840F47D
:1039600080303060FEF7B7FF054600BF3068800347
:103970003FF57BAFFEF7AFFF401B6428F6D9F2E0BE
:1039800020F480303060306820F480203060FEF712
:10399000A2FF0546306880037FF567AFFEF79BFF07
:1039A000401B64284FF00300F4D9DDE041EA003009
:1039B00070602078C00651D5306900F03801B06AD7
:1039C000082905D0182919D100F00300012815D1C4
:1039D0003068C00503D5E069802840F0A080FEF77C
:1039E00073FF41F2030188421BD8206A71682028C6
:1039F00021F0F8412FD141F080402EE0E06900280D
:103A0000306816D040F080003060FEF764FF054655
:103A10003068C005E3D4FEF75EFF401B0228F7D9EB
:103A2000A1E0F068216A20F07C5040EA0160F0607B
:103A300014E020F080003060FEF74DFF054600BF27
:103A40003068C0050AD5FEF746FF401B02284FF03C
:103A50000300F5D988E041EA8060706020780007B3
:103A600036D42078800646D42078400759D4656A39
:103A700065B3306900F03800182840F09980012DB6
:103A8000B16A306B4BD001F00302A36A9A4246D16F
:103A9000C1F30511E26A914241D10146226B6FF3F5
:103AA0005F21013A91423AD1C0F34622616B01395C
:103AB0008A4234D1C0F30642A16B01398A422ED129
:103AC000C0F30660E16B0139884228D100204BE049
:103AD00060690028706F37D040F001007067FEF712
:103AE000FAFE0546706F8007BBD4FEF7F4FE401B5C
:103AF0000228F7D937E0A0690028306845D040F4A3
:103B000080503060FEF7E7FE054600BF3068800455
:103B1000AAD4FEF7E0FE401B0228F7D923E00120DB
:103B200022E0D6F8000440F48070C6F80004FEF7E6
:103B3000D2FE0546D6F80004C00517D4FEF7CBFE2A
:103B4000401B6428F6D90EE020F001007067FEF7F4
:103B5000C2FE0546706F80077FF583AFFEF7BBFEA0
:103B6000401B0228F6D9032001B0F0BDA168306FD8
:103B7000002957D005293DD001293FD020F0010070
:103B80003067306F20F004003AE020F4805030605D
:103B9000FEF7A1FE054600BF306880047FF564AFE4
:103BA000FEF799FE401B02284FF00300F4D9DBE733
:103BB000306820F080703060FEF78DFE022D0546E3
:103BC0000CD100BF3068800144D5FEF784FE401B55
:103BD00002284FF00300F5D9C6E700BF3068800126
:103BE0007FF574AFFEF777FE401B02284FF003000D
:103BF000F4D9B9E740F004003067306F40F00100BD
:103C00003067FEF768FE054641F28837306F80075F
:103C10003FF52DAFFEF75FFE401BB8424FF00300AB
:103C2000F4D9A1E720F001003067306F20F00400E4
:103C30003067FEF750FE054641F28837306F800747
:103C40007FF515AFFEF747FE401BB8424FF003006B
:103C5000F4D989E704F12807B06A40F2F3318843C8
:103C60008ECF0843591E40EA02104FF47E426FF394
:103C70005F21B06202EB47204FF4FE0280B2E36B9B
:103C80000844A16B02EB01414FF0FE4201F4FE013A
:103C900002EB0362084402F0FE4108443063F06A1C
:103CA0004FF6F87120F00100F062706BA26C88434F
:103CB00040EAC2007063F06A216C20F00C000843F7
:103CC000F062F06A616C20F002000843F062F06A72
:103CD00040F48030F062F06A40F40030F062F06A44
:103CE00040F48020F062F06A40F00100F062306839
:103CF00040F080703060FEF7EEFD044630688001D1
:103D00003FF5E4AEFEF7E7FD001B02284FF003008D
:103D1000F4D929E770477047F0B581B004460068D0
:103D20000369426902EA0306816806F0640594F8B3
:103D30008170042D04D1616F20468847216F11E006
:103D400006F04505012D08D1216F2046884706F071
:103D50002200022805D001B0F0BD06F02605022D94
:103D600005D1616F204601B0BDE8F0400847350736
:103D70000AD418075CD512F4006059D02068816914
:103D800041F400618161E6E7226811F4404F9369D4
:103D900043F008039361936943F0100393619369BF
:103DA00043F400639361136923F0080111610CD09F
:103DB000042F05D0A16FC96939B1032F00F0B48079
:103DC000E16FC969002940F0A580916811F4404F66
:103DD00021D11CE0E168102905D32268616E126BC5
:103DE00041F8042B0DE0082904D3028E616E21F8FE
:103DF000022B06E0216891F83010626E1170616E3E
:103E000001316166B4F86A100139A4F86A10B4F897
:103E10006A100029DED1204601F02FF8012084F835
:103E20008100D4F88400002874D0D4F8A01099E759
:103E300016F4587F3FF48FAF70060AD52068D4F887
:103E4000842042F00402C4F88420826942F04002D7
:103E50008261B0050AD52068D4F8842042F00102BE
:103E6000C4F88420826942F400728261F0050AD5A8
:103E70002068D4F8842042F00802C4F884208269C3
:103E800042F480728261B0060AD52068D4F884209A
:103E900042F08002C4F88420826942F020028261EC
:103EA000D4F8840000283FF456AF206801F4404164
:103EB00040F26B33B1F5404F026822F0010202601C
:103EC000026922EA0301016134D1816844F6317547
:103ED00021F440418160E06FC0F6000548B10565FE
:103EE000FEF79BFA28B1D4F8840040F04000C4F8F3
:103EF0008400A06F00283FF42EAF0565FEF78DFA11
:103F000000283FF428AFD4F8840040F04000C4F803
:103F1000840020E7032F07D0042F08D0052F7FF45B
:103F20001AAFD4F890101DE7D4F888101AE7D4F827
:103F30008C1017E7012084F8810076E700287DD0F7
:103F40002DE9F04143F6000304460068C4F2000383
:103F500043F2000E43F6004C9842C4F2010EC4F244
:103F6000000C4FF00001A16203D0604518BF7045FE
:103F700071D1E16B0125E268984202F1080205EB7C
:103F800051114FEAD20202FB01F118BF704557D11F
:103F9000102964D894F88100D8BB002084F88000F0
:103FA00044F63D2044F2A971C0F60000C0F60001BD
:103FB000C4F8880044F2AB70C4F88C1044F6432176
:103FC00044F6412244F63F23C0F60000C0F600014B
:103FD000C4E92601D4F8A810C0F60002C0F6000318
:103FE000C4F8902043F61752C4F8943043F61553A2
:103FF000C0F60002C0F60003C4F8A020C4F8A43044
:1040000029B944F21111C0F60001C4F8A8102046E5
:104010008847022084F881002068D4F818C002681C
:10402000BCF1806F22F00102026023D16268CAB144
:10403000B2F5800F1ED1A26BE2B917E001207047E4
:10404000604518BF08290AD80CF57442904218BF81
:1040500060459DD09EE7E1680F297FF68AAF012079
:10406000BDE8F081A26BB2F1805F03D1026842F437
:1040700080520260E269A36A1A43E36B1343D4E9F6
:104080000318D4E9012E19438160616BA56B636A43
:1040900041EA0301636941EA0501256A41EA080131
:1040A00041EA0301A36DD4E9127641EA050141EA30
:1040B000060141EA0E0141EA070141EA030141EA32
:1040C0000C0141EA0201C16062B1016D520221F0AE
:1040D0000101016514D5C168626D21F000411143F1
:1040E000C1600DE08168012262F3CC2181608168AA
:1040F000022262F34A218160016D21F00101016514
:104100000020C4F88400012184F88110BDE8F0810A
:104110002DE9F043B5B0044630A81421FCF764FB48
:1041200001A8BC21FCF760FB42F6FF712068C4F2D5
:104130000101884240F38E8041F20041C5F6000142
:10414000884200F0108145F20001C4F2010188426A
:1041500000F08F8143F20001C4F20101884240F077
:1041600064824FF48050019001A8FEF70FFD08B162
:10417000FEF742F944F2E04040F2A004C5F6020026
:10418000C2F200440022016941F4805101610169D9
:1041900001F4805100910099016841F0080101602B
:1041A000016801F0080100910099016841F04001A7
:1041B00001600068002100F0400000900098204657
:1041C00002F009FB217830904FF00208CDF8C4804E
:1041D000FF294FF0000208BF01212046032732913A
:1041E000002133970526349602F019FB30AD29469D
:1041F000FEF77AFA01210022204602F0ECFA6178FB
:104200003090CDF8C4800022FF29204608BF01214C
:104210003496CDE93217012102F001FB2946FEF761
:1042200063FA02210022204602F0D5FAA1783090EC
:10423000CDF8C4800022FF29204608BF0121349612
:10424000CDE93217022102F0EAFA2946FEF74CFACC
:104250002324E2E143F60001C4F20001884200F0A9
:10426000618143F60041C4F20001884240F0DD81E3
:104270004FF48050019001A8FEF788FC08B1FEF7CA
:10428000BBF844F2E04040F2A004C5F60200C2F2DE
:1042900000440022816841F400418160816801F49A
:1042A000004100910099016841F00401016001683A
:1042B00001F0040100910099016841F008010160DA
:1042C0000068002100F0080000900098204602F0ED
:1042D00082FA2178309002263196B1F1FF004FF03A
:1042E000000218BF0846002103273290204633976A
:1042F0004FF00608CDF8D08002F091FA30AD294693
:10430000FEF7F2F901210022204602F064FA6178FA
:10431000309031960022B1F1FF0018BF084601210C
:10432000CDE9320705203490204602F078FA29467C
:10433000FEF7DAF902210022204602F04CFAA178B9
:10434000309031960022B1F1FF0018BF084632A923
:1043500081E881010221204602F061FA2946FEF738
:10436000C3F9332459E14FF48040019001A8FEF7CE
:104370000DFC08B1FEF740F844F2E04040F2A00422
:10438000C5F60200C2F200441022416941F020014A
:104390004161416901F0200100910099016841F0FB
:1043A00002010160016801F00201009100990168B9
:1043B00041F0400101600068002100F040000090E1
:1043C0000098204602F007FA217830904FF002085A
:1043D000CDF8C480B1F1FF0040F2004618BF084696
:1043E000C5F602060021329008203490204632465D
:1043F0004FF00309CDF8CC9002F011FA30AD294608
:10440000FEF772F901214FF48042204602F0E3F9F1
:1044100061783090CDF8C48006F5A056B1F1FF0068
:10442000324618BF084601210527CDE9320920464A
:10443000349702F0F4F92946FEF756F902214FF4B9
:104440000052204602F0C7F9A1783090CDF8C48020
:104450003246B1F1FF0018BF084602213497CDE97A
:104460003209204602F0DBF92946FEF73DF95624D1
:10447000D3E04FF40050019001A8FEF787FB08B18C
:10448000FDF7BAFF44F2E04040F20049C5F60200F1
:10449000C5F6020909F5805430AD0169022641F4E0
:1044A0008011016101694FF0030801F4801100914E
:1044B0000099016841F0200101600168052701F0C1
:1044C000200100910099016841F0800101600068BD
:1044D000294600F08000009000984FF480703090E2
:1044E0002046CDE93166CDF8CC803497FEF7FCF854
:1044F0004FF400602946CDE9300601203497CDE91C
:1045000032082046FEF7F0F840202946CDE9300673
:1045100000203497CDE9320809F5C050FEF7E4F8E1
:1045200055247AE04FF48050019001A8FEF72EFB4D
:1045300008B1FDF761FF44F2E04040F2A004C5F687
:104540000200C2F200440022816841F4804181608F
:10455000816801F4804100910099016841F00201F5
:104560000160016801F0020100910099016841F0C9
:10457000080101600068002100F008000090009828
:10458000204602F028F9217830904FF00208CDF84B
:10459000C480B1F1FF004FF0000218BF08460021AF
:1045A00003273290204633970526349602F037F9D8
:1045B00030AD2946FEF798F801210022204602F08E
:1045C0000AF961783090CDF8C4800022B1F1FF0083
:1045D00018BF084601213496CDE93207204602F083
:1045E0001EF92946FEF780F802210022204602F03B
:1045F000F2F8A1783090CDF8C4800022B1F1FF002C
:1046000018BF084602213496CDE93207204602F051
:1046100006F92946FEF768F82424002100222046E6
:10462000FEF724FA2046FEF711FA35B0BDE8F08314
:104630008368944653B94268B2F5800F06D10422CC
:1046400080F881200A46634600F0B0B890F88020D8
:10465000012A23D090F88120012A1CD109B3BCF192
:10466000000F1ED0042280F881200022C0F8842090
:104670004166A0F868C0A0F86AC0C265A0F86020D2
:10468000A0F86220C168426710290FD344F6717107
:10469000C0F6000115E0002180F8801002210846D4
:1046A0007047002180F880100121F8E7082904D321
:1046B00044F64971C0F6000103E044F69971C0F672
:1046C00000010167B3F5C02F016803D10A6822F425
:1046D00000620A604A684FF6FF739A4340F24973DA
:1046E00062444A600A6842F001020A600A691A4399
:1046F0000A614268B2F5800F03D10A6842F4007281
:104700000A60002180F88010C9E700002AB190F803
:104710008030012B09D1022144E0D0F8841041F40B
:104720000061C0F8841001213CE090F88130012B39
:104730000BD109290CD8DFE801F0052920231D2C15
:104740002F26171AC0F8882028E090F881303BB156
:10475000D0F8841041F40061C0F8841001211EE0FB
:10476000092904D00829F3D1C0F8A82016E0C0F820
:10477000AC2013E0C0F8982010E0C0F890200DE0C5
:10478000C0F894200AE0C0F8A42007E0C0F88C200C
:1047900004E0C0F89C2001E0C0F8A0200021002225
:1047A00080F880200846704770477047B0B590F891
:1047B0008040012C02D14FF0020CDEE0012480F891
:1047C0008040D0F800E090F881C0BCF1010F2ED1FC
:1047D00000294FF0010C00F0CD80002A00F0CA80C3
:1047E000002B00F0C78090F88140042C02D00524F3
:1047F00080F881400024C0F88440C165A0F8603092
:10480000A0F862304266A0F86830A0F86A30B0F8CC
:104810006250C468102C19D344F6EF7C44F67174CE
:10482000C0F6000CC0F60004C0E91C4C23E044684C
:10483000B4F5800F40F08780BCF1040F4FF0020CFC
:1048400040F098808468002CC2D093E0082C08D3F4
:1048500044F6497C44F6C774C0F6000CC0F6000468
:1048600007E044F6997C45F21704C0F6000CC0F648
:104870000004C0E91CC4DEF804404FF6FF7224EACD
:1048800002021A44CEF80420DEF8002042F00102B1
:10489000CEF80020DEF81420920757D5002D55D011
:1048A0001123F446013B4ED0C468102C04D351F8B8
:1048B000042BCCF8202037E0B0F86220082C09D374
:1048C000022A24D3C26B12B351F8042BCCF8202057
:1048D00018E000BF042A0BD3C26B412A08D351F859
:1048E000042BCCF82020C165B0F86220043A1FE008
:1048F000B0F86220022A0FD3C26B6AB131F8022BE2
:10490000AEF82020C165B0F86220023A10E031F81C
:10491000022BAEF8202007E009788CF82010C16D3A
:10492000D0F800C0013100BFC165B0F86220013A83
:10493000A0F86220B0F86220DCF81440A40706D585
:10494000002AAFD103E04FF0020C13E0F446DCF88C
:10495000101040F26C721143CCF810104168B1F5A0
:10496000800F05D1DCF8001041F40071CCF8001084
:104970004FF0000C002180F880106046B0BD90F828
:104980008030012B01D1022356E000294FF00103B2
:104990004FD0002A4DD090F88130012B18D103233D
:1049A00080F881300023C0F88430C165A0F8602011
:1049B000A0F862204366A0F86830A0F86A30C168A9
:1049C0000367102906D344F6EF71C0F600010CE02E
:1049D00002232EE0082904D344F6C771C0F6000173
:1049E00003E045F21701C0F6000141678168B1F5A7
:1049F000C02F016803D10B6843F400630B60D1F84A
:104A000004C04FF6FF732CEA03031A444A600A6895
:104A100040F22A7342F001020A600A691A430A61ED
:104A20004268B2F5800F03D10A6842F400720A604E
:104A30000023002180F880101846704770477047A7
:104A400070477047411E0020B0EB116F01D001206C
:104A500070474EF21002F023CEF2000251604EF683
:104A60002351CEF200010B70072190601160704756
:104A70002DE9F04F87B00DF1080814214046FBF7EF
:104A8000B3FE44F2E0400027C5F60200C5F6020777
:104A900007F5A055012201684FF0010B41F002011A
:104AA0000160016801F0020101910199016841F082
:104AB00008010160016801F0080101910199016894
:104AC00041F001010160016801F0010101910199CA
:104AD000016841F010010160016801F010010191CD
:104AE0000199016841F040010160016801F0400155
:104AF00001910199016841F004010160016801F030
:104B0000040101910199016841F08001016001688F
:104B100001F0800101910199016841F020010160DB
:104B20000068402100F02000019001982846FDF720
:104B3000C6FE07F580664FF40051012230464FF45F
:104B4000005AFDF7BCFE00204146C1F211100324BB
:104B5000CDE9030B07F580500294FDF7C5FD4FF436
:104B60008070029002200390384641464FF00009C1
:104B7000CDF81890CDE90494FDF7B6FD40204146EC
:104B8000CDE9020B2846CDE90494FDF7ADFD304692
:104B90004146CDE902ABCDE90499FDF7A5FD07B08B
:104BA000BDE8F08F10B5B0B001AC782104F144003D
:104BB000FBF71AFE4FF441200190052002903221AC
:104BC0000590CDE903100220069080210791002175
:104BD00019220A924FF49072CDE90B2006200D9015
:104BE0000420CDE90E014FF4805018904FF40010CE
:104BF00022904FF4803029902046CDE90811CDE96C
:104C00001011FDF7C3FF80B148F26650C0F60000F6
:104C100002F058F848F27F50C0F6000002F052F857
:104C2000EFF3108072B600BFFEE730B010BD000099
:104C3000F0B581B044F20047C5F60207BA6A02F047
:104C40000302032A01D1012073E0054638680C46AF
:104C500020F080603860FDF73EFE064638680001AF
:104C600005D5FDF738FE801B0228F7D95EE0B86A4B
:104C7000EE6895E80E0020F47C30012C40EA01300B
:104C8000A2F101016FF35F214FF47E4202EB432258
:104C9000B86292B24FF0FE4302EB01004FF4FE0106
:104CA0002A6901EB064101F4FE0103EB02620844AC
:104CB00002F0FE410844B863F86A696920F0C00058
:104CC00040EA0100F862F86AA96920F0200040EA91
:104CD0000100F862F86A4FF6F87120F01000F862EF
:104CE000F86BEA6920EA01004FF4001140EAC200C3
:104CF000F863F86A08BF4FF4801140F01000002CF0
:104D0000F86208BF4FF40021F86A0843F862386877
:104D100040F080603860FDF7DEFD04463868000131
:104D200006D4FDF7D8FD001B0328F7D3032000E0CD
:104D3000002001B0F0BD0000F0B581B044F20047A2
:104D4000C5F60207BA6A02F00302032A01D1012064
:104D500073E0054638680C4620F080503860FDF757
:104D6000BAFD06463868800005D5FDF7B4FD801B06
:104D70000228F7D95EE0B86AEE6895E80E0020F0E8
:104D80007C70012C40EA0150A2F101016FF35F2118
:104D90004FF47E4202EB4322B86292B24FF0FE43E0
:104DA00002EB01004FF4FE012A6901EB064101F418
:104DB000FE0103EB0262084402F0FE41084438643D
:104DC000F86A696920F4406040EA0100F862F86A14
:104DD000A96920F4007040EA0100F862F86A4FF611
:104DE000F87120F48070F862786CEA6920EA0100BA
:104DF0004FF0807140EAC2007864F86A08BF4FF44F
:104E0000000140F48070002CF86208BF4FF480016C
:104E1000F86A0843F862386840F080503860FDF75F
:104E20005AFD04463868800006D4FDF754FD001B87
:104E30000328F7D3032000E0002001B0F0BD40F2CA
:104E40004470C2F20040FEF767BF40F2F470C2F255
:104E50000040FEF761BF40F6A400C2F20040FEF73A
:104E60005BBF40F6B410C2F20040FEF755BF40F6FB
:104E70006420C2F20040FEF74FBF016840F26F327B
:104E8000D1F814C08B6943F008038B618B6943F040
:104E900010038B610B6823F001030B600B6923EA9D
:104EA00002020A618A6822F440428A6090F88120F6
:104EB000042A18BF1CF0200209D0D0F8842042F048
:104EC0008002C0F884208A6942F020028A6190F84A
:104ED0008120032A18BF1CF0400209D0D0F884209A
:104EE00042F00402C0F884208A6942F040028A61DC
:104EF0005FEA8C5209D5D0F8842042F00102C0F854
:104F000084208A6942F400728A615FEACC5209D532
:104F1000D0F8842042F00802C0F884208A6942F464
:104F200080728A610021A0F86210A0F86A107047B0
:104F3000806B0021A0F86A10A0F86210012180F8AF
:104F40008110D0F8A01008470168426E0B8E22F83D
:104F5000023B4266B0F86A20013AA0F86A20B0F835
:104F60006A0000B17047086920F0010008617047CD
:104F70000168426E0B6B42F8043B4266B0F86A204F
:104F8000013AA0F86A20B0F86A0000B170470869D9
:104F900020F0010008617047016891F83010426EFE
:104FA0001170416E01314166B0F86A100139A0F804
:104FB0006A10B0F86A1001B170470068016921F009
:104FC000010101617047C26D016832F8023B0B8438
:104FD000C265B0F86220013AA0F86220B0F8620021
:104FE00000B17047086920F002000861704701684D
:104FF000C26D52F8043B0B62C265B0F86220013A00
:10500000A0F86220B0F8620000B17047086920F093
:10501000020008617047C16D0268097882F82010AB
:10502000C16D0131C165B0F862100139A0F862109C
:10503000B0F8621001B170470068016921F0020107
:105040000161704740F26020C2F20040D0E90012D6
:10505000013142F10002C0E90012704744F2004001
:10506000C5F602000169C1F3C202032A07D840F65F
:105070000011C0F23D01DFE802F002660C11016888
:1050800049F20002C0F2D032C1F3C10122FA01F1AB
:1050900059E047F64001C0F27D1154E0836A816A0D
:1050A000D0F82CC0426BC1F30511F9B1C2F3CC02A8
:1050B00003F0030300EE102A9FED311AB8EE400A08
:1050C00020EE010A9FED2F1ADFE803F0021412020E
:1050D000026849F20003C0F2D033C2F3C10223FADE
:1050E00002F201EE102AB8EE411A03E000212AE094
:1050F0009FED251A026B9FED253A6FF35F2202EEBA
:10510000102A5FEACC7203FE000A03EE101A016B4C
:10511000B8EE422AC1F34621B8EE433A013130EEEF
:10512000020AB7EE002A81EE031A30EE020A21EEDF
:10513000000A01EE101AB8EE411A80EE010ABCEE28
:10514000C00A10EE101A826948F25813C0F6000324
:10515000C2F303229A5C806900F00F00D14040F254
:105160001002185CC2F2004200F01F0021FA00F0A9
:10517000106040F20C00C2F200400160704700BFB6
:10518000000000390024744A20BCBE4B000000001F
:1051900080B54EF6085C42F2000ECEF2000CC5F26D
:1051A000002EDCF8801041F47001CCF88010DCF89F
:1051B000081041F01001CCF80810DEF8001001F0E2
:1051C0000F01062906D8DEF80010072262F303015A
:1051D000CEF8001044F200424EF67F53C5F60202AC
:1051E000CEF6F623116841F0010111600021116132
:1051F000106818401060DEF80000000706D5DEF8E1
:105200000000072363F30300CEF8000040F2002003
:105210009161D161C0F20220116290620020C0F25F
:10522000FF10D06240F28020C0F201101063516381
:105230009063D16310645164106820F48020106082
:10524000E4201166C5F60000026842F48042026064
:1052500041F20000C5F600400068B1EB507F05D177
:1052600048F208100121C5F20010016044F200006C
:1052700043F2D201C5F2002001604FF00060CCF88B
:10528000000080BD80B582B0002001900120009018
:10529000684600F019FA02B080BD40F26020C2F208
:1052A0000040D0E900014FF47A71A0FB0101704782
:1052B0000446002000F099FA204601F035FA00205B
:1052C00000F0BCFAF8E780B50020012100F07EFB79
:1052D0000120012100F07AFB02200121BDE880407D
:1052E00000F074BB70B582B040F6A1150126C2F281
:1052F0000045044640F20552ADF8062029788DF8A5
:105300000460ADF8026031B90DF106000DF1020143
:1053100001F05AF82E700DF10600214601F01EF83A
:105320000A20FDF7C9F902B070BD84B0FF208DF8E6
:105330000F008DF80E0048F25010C0F6000048F241
:10534000A064C0F20104D0E900010191009001F0D5
:10535000A7FC00285FD1684601F04CFC00285AD118
:1053600000F02DF90146002001F0A6FC002852D1E2
:1053700000F081FD00F01CF900F015F901F037FC98
:10538000002848D10DF10E0001F092FC10B101206F
:1053900001F090FC0DF10F0001F084FC10B1012030
:1053A00001F082FCFF208DF80F000DF10F0001F0DD
:1053B0006FFC70B901F06AFC9DF80F00012804D160
:1053C000012001F067FC9DF80F0000F042F801F0A9
:1053D0005DFC00200090684601F060FC40B901F0DF
:1053E0005BFC009801F06AFC10B9009801F068FCC1
:1053F000FF208DF80000684601F05AFC013003D10F
:1054000001208DF8000001E09DF8000000F021F877
:10541000012000F01EF82046FFF74AFFFEE70000DB
:1054200010B50446012898BF012400BF2046FBF7B1
:1054300044FA002818BF10BD01F067FB08B180478F
:10544000F4E7002010BD48F2A060C0F20100FFF7B1
:105450002FFF10B582B00446FF284FF0FF300190B7
:105460001BD0E4B101A9204601F020FC013001D09D
:1054700001980AE0022C03D0012C0ED1062000E096
:10548000072000F0FBFC80680190411C05D001F072
:1054900015FC10B9019801F013FC02B010BD48F2E0
:1054A000A060C0F20100FFF703FF40F20C0044F6D9
:1054B000D351C2F20040C1F262010068A0FB0101B9
:1054C0008809FFF7BFBA0000F0B581B00C46054669
:1054D000012898BF0125042998BF042400276846A5
:1054E00021462A460097FBF73EFA009878B96E46A7
:1054F00001F00BFB50B18047304621462A46009709
:10550000FBF731FA00980028F2D000E0002001B04B
:10551000F0BDB0B540F290550446C2F2004529787E
:1055200051B948F2302040F29051C0F60000C2F26A
:105530000041502201F0D9FC01202870D5E9102348
:105540002046BDE8B04001F036BBB0B540F268245B
:105550004FF48160C2F200444FF6FF71206144F6BF
:105560004030C0F24C00C4E905104FF0FF306062DB
:10557000C4E9070004F128004FF44071FBF734F947
:1055800048F2B0152046C0F60005294601F00AFC95
:1055900005F118004FF44A72002121702146BDE840
:1055A000B04001F0D0BC40F2B000C2F20040704701
:1055B00040F2B002C2F20042C2E90C01704740F270
:1055C0000040C0F60000704700F078B810B584B015
:1055D00031A101A801F03CFA01F0B9F89DF90F00E2
:1055E000B0F1FF3F05DC0399019821F0004101F083
:1055F000D1FA40F23074C2F200442068032825D06A
:10560000022815D0012838D144F2E040C5F6020046
:10561000016841F000710160006800F000700190C5
:1056200001980020FDF776F90820FDF7A7FA24E09D
:1056300044F2E040C5F60200016841F000710160EB
:10564000006800F000700190019812E044F2E04020
:10565000C5F60200016841F000710160006800F0C9
:105660000070019001980020FDF754F90820FDF723
:1056700085FA00200021FDF75BF96079012801D14E
:10568000FFF721FE2079012802D10120FFF72AFE31
:10569000012004B010BD00BF43616C6C65642065DF
:1056A0006D626F743A3A68773A3A6273703A3A7355
:1056B00070656369616C697A6500000040F238705A
:1056C000C2F200400078704740F230728188C2F226
:1056D0000042918000681060704780B582B0006819
:1056E000009045F28F70C0F600000190684602F00D
:1056F00043F840F238700121C2F200400170FFF718
:1057000065FF012002B080BD90F90B1002680029EE
:1057100048BF1046AFF3008018B380B5027840F65A
:10572000006CCEF2000CF2B100214FF0604E00BFD1
:10573000DCF88030DB070B460CD0DCF80010C90722
:1057400008D000BFDEF8001011B900BFFAE700BFB3
:105750008EF8002010F8012F591C002AE8D1981C5F
:1057600002E0002070470120DCF88010C9071CBF50
:10577000DCF800105FEAC17100D180BD4FF06041DC
:105780000A680AB900BFFBE70A220A7080BD80B52B
:1057900000F0A2FF4FF47A720023FAF7A1FE80BD59
:1057A000B0B5044640F23C70C2F20040012101FA5B
:1057B00004F50068284208D000F03BF8016829424F
:1057C00005D000EB8400406802E0FF200BE00020E1
:1057D000851C00F02EF800EB8400406841782846D4
:1057E00000F0BCFD002040B2B0BD70B5044600F032
:1057F00020F80121006801FA04F5284216D040F291
:105800003C76C2F20046306828420DD1FFF7DCFE3C
:1058100060B100F00EF8214600F0AEFF306828437A
:1058200030602046FFF7BCFF002000E0FF2040B2C0
:1058300070BD48F29820C0F60000704710B540F2E5
:105840003C710446C2F20041096821FA00F0C00729
:1058500009D0FFF7EEFF00EB84004068023000F053
:1058600014FE002000E0FF2040B210BD7047000091
:1058700010B5044600F0DAF814B3011D002000BF93
:105880000A581268944203D004301828F8D117E05F
:105890007C2815D040F2140100EB4000C2F2004118
:1058A000084490F82C1001290AD1002180F82C100E
:1058B00080F82D10016B19B1406BBDE8104008470E
:1058C00010BD000010B5044600F0B0F814B3011D7F
:1058D000002000BF0A581268944203D004301828F0
:1058E000F8D117E07C2815D040F2140100EB4000FD
:1058F000C2F20041084490F82C1002290AD100217C
:1059000080F82C1080F82D10016B19B1406BBDE8A8
:105910001040084710BD000010B5044600F086F89E
:1059200014B3011D002000BF0A581268944203D02E
:1059300004301828F8D117E07C2815D040F2140163
:1059400000EB4000C2F20041084490F82C100329FB
:105950000AD1002180F82C1080F82D10016B19B1AC
:10596000406BBDE81040084710BD00002DE9F04134
:105970000C46054600F0B0FE24184FF0010005EB80
:10598000450240F2407800FA05F540F21400C2F2F8
:10599000004041F1000600EB8200C2F2004800F135
:1059A0002D0700BFD8F8000028420AD03878012817
:1059B00007D100F091FE201A76EB0100F2D2FF2011
:1059C00000E0002040B2BDE8F0810000032888BF5D
:1059D00070472DE9F0478A4648F2F741C0F60001CA
:1059E00048F2F4480024012501EB8007C0F60008C6
:1059F0000FF2340907EB44064146304600F0E4FC60
:105A0000BAF1000F02D019F8041000E0002130466E
:105A100000F0A4FCE8074FF001044FF00005E9D1C5
:105A2000BDE8F047704700BF0001000048F21030A9
:105A3000C0F600007047F0B581B048F2103206465B
:105A4000C0F600020D4602EB8000476830463C6815
:105A500000F080F900284FF000004FF0000105D061
:105A600048F20451C0F6000151F8261021604FF4AD
:105A700080016160A9786A78A0602B78E26001F00B
:105A8000020201F00101090661614FF08061A1612C
:105A90001907E062C4E90710C4E909004FF080402B
:105AA000606304F13800242112062261FAF79CFE9B
:105AB00040F2A006D5F80300C2F200463060D7E9F4
:105AC0000201C6E901012046FEF738FA4FF0FF3027
:105AD00030604FF01F30C6E9010001B0F0BD2DE984
