:020000040802F0
:10000000009D0020590402086104020863040208EC
:100010006504020867040208690402080000000081
:1000200000000000000000000000000011030208B2
:100030006D04020800000000C90302082D04020834
:1000400073040208730402087304020873040208AC
:10005000730402087304020873040208730402089C
:10006000730402087304020873040208730402088C
:100070007304020873040208C91C0208D51C020894
:10008000E11C0208ED1C020873040208C1160208F4
:10009000B516020873040208730402087304020808
:1000A000730402087304020873040208730402084C
:1000B000730402080000000000000000ED42020886
:1000C000E142020805430208F942020873040208EB
:1000D000730402087304020873040208730402081C
:1000E000730402087304020800000000000000000E
:1000F0000000000000000000000000000000000000
:1001000000000000730402080000000073040208ED
:1001100000000000000000003559020873040208C6
:1001200073040208730402087304020873040208CB
:10013000730402080000000000000000000000003E
:1001400073040208730402087304020873040208AB
:10015000730402087304020873040208730402089B
:10016000730402087304020873040208000000000C
:10017000730402087304020873040208730402087B
:1001800073040208730402087304020800F002F802
:1001900000F07BF80AA090E8000C82448344AAF1A6
:1001A0000107DA4501D100F070F8AFF2090EBAE8A4
:1001B0000F0013F0010F18BFFB1A43F0010318479B
:1001C0002C8201004C8201000A444FF0000C10F810
:1001D000013B13F0070408BF10F8014B1D1108BFC5
:1001E00010F8015B641E05D010F8016B641E01F865
:1001F000016BF9D113F0080F1EBF10F8014BAD1CB5
:100200000C1B09D16D1E58BF01F801CBFAD505E0D2
:1002100014F8016B01F8016B6D1EF9D59142D6D32C
:10022000704700000023002400250026103A28BF54
:1002300078C1FBD8520728BF30C148BF0B60704758
:10024000662917F07083642900F03C82782900F059
:100250007582732900F0CC85002070471FB517F018
:1002600055FB9DE8030000F0AAFC01F097F804009C
:100270000020002116F05EFEE06000F069FC1FBD6A
:1002800010B5002001F01FF810BD01F062F8114612
:10029000FFF7E4FF11F09DFF01F07CF903B4FFF7D5
:1002A000EFFF03BC00F066FC80F309887047EFF3B2
:1002B00009807047684680F3098804480078C007C1
:1002C00014BF0220032080F31488704770010020BF
:1002D000DFF818C0EFF305831B0618BF6047EFF384
:1002E0001483DB0708BF604700DF7047F150030845
:1002F000DFF818C0EFF305831B0618BF6047EFF364
:100300001483DB0708BF604700DF704769510308AB
:10031000EFF30980816911F8021CE1BB90E80F102E
:1003200010B5E047BDE81040EFF3098C8CE80700FA
:10033000214B93E80600914208BF704741B91EF077
:10034000100F16D11D49086820F00100086010E068
:100350001EF0100F06BF2CED108A0120002081F83E
:1003600038002CE9F00FC1F83CC00CB416F0E4FAE8
:100370000CBC1A60D2F83CC0BCE8F00F92F8380010
:1003800000280EBF6FF0020E6FF0120E00F058B88A
:100390008CF30988704710B5094A1268914209D850
:1003A000084C54F8214090E80F10A047EFF3098C57
:1003B0008CE80F0010BD0000C800002034EF00E002
:1003C000882A0308882A030810B516F0AFF9BDE89B
:1003D0001040154B93E80600914208BF7047EFF3B9
:1003E000098C1EF0100F06BF2CED108A0120002092
:1003F00081F838002CE9F00FC1F83CC00CB416F0BD
:100400009BFA0CBC1A60D2F83CC0BCE8F00F92F822
:10041000380000280EBF6FF0020E6FF0120E00F0D1
:1004200015B88CF309887047C800002010B516F085
:10043000A7FACCE710B513F085FE16F0A1FAC6E7CF
:10044000BCEC088ABCEC08CAFFF7A2BFBCEC088A67
:10045000BCEC08CAFFF7E5BF0948804709480047D8
:10046000FEE7FEE7FEE7FEE7FEE7FEE7FEE7FEE764
:10047000FEE7FEE704480549054A064B70470000C1
:10048000235902088D010208000D0020009D002064
:10049000008D0020008D0020004870470C050020D2
:1004A00070B5A0FB0140B4F1805170F1000024BF91
:1004B000002070BD204600F0FAFB05001CBF21465D
:1004C00000F0F9FA284670BD70B516460D46041FB7
:1004D000002808BF70BD002E1CBF05F10C0011F0F4
:1004E00060FD2B465868002818BFA04238BF03465D
:1004F000F8D31968CA18A24218BF5C6003D12268F9
:100500001C461144196021680A19824218BF6060B4
:1005100004D142686260006808442060002E1CBF5D
:1005200005F10C0011F041FD70BD10B5044600F05E
:1005300027FB01682046BDE810400122C4E753EACA
:10054000020C00F069802DE9F04B4FF00006002B03
:100550001FBFB3FA83F503FA05F424FA05F65E40EB
:1005600012BF1643B2FA82F502FA05F4C5F120056E
:100570001EBF22FA05FC44EA0C04203556EA044C5E
:100580004FEA144418BF641C4FF000084FF00009F4
:10059000904271EB030C39D3002919BFB1FA81F7EE
:1005A00001FA07F6B0FA80F700FA07F6C7F120075C
:1005B0001EBF20FA07FC46EA0C062037B6FBF4FC07
:1005C000A7EB0507103F07F01F0BCBF120062CFA15
:1005D00006F60CFA0BFB44BFB3460026202FA4BF3F
:1005E0005E464FF0000B5BEA060C08BF4FF0010BB4
:1005F00019EB0B0948EB0608ABFB027C06FB02CCAF
:100600000BFB03CCC01B71EB0C01C1E70B46024690
:1006100041464846BDE8F08B13B5084318BF4FF07C
:10062000FF300146AFF30080BDE81C40704700007A
:100630000FB41CB50C0007AA009007D04142A1429C
:1006400002D32044401E01E04FF0FF30074B7B44B3
:1006500069460190069800F09EFB0021002C01D015
:10066000009A11701CBC5DF814FB00006B070000C1
:1006700070B50C460546012A05D02878800600D5BD
:10068000EA69002302E0012305E05B1C934202D2E9
:10069000E05C0028F9D1A869E618C01AA861286AA8
:1006A000184428622846AFF3008004E0D5E9012110
:1006B00014F8010B9047B442F8D32846AFF30080FA
:1006C00070BD00002DE9F041064600241068752930
:1006D000314616A510D0AFF30080002802DA404260
:1006E00013A507E031688A0701D512A502E0490782
:1006F00004D511A5012401E0AFF3008000210A22F6
:1007000006F1240709E0B0FBF2FCB0FBF2F302FBB8
:100710001C00303078541846491C0028F3D1234679
:100720002A463046BDE8F04100F0D6BA000000008D
:100730002D0000002B0000002000000070B50446D2
:100740000D4621461068AFF300802188090502D5C7
:100750000F4A7A4402E00E4A7A440E32002104F134
:10076000240305E000F00F060009965D5E54491C65
:100770000028F7D120780023000704D5702D02D07F
:1007800009B1022311322046BDE8704000F0A4BA3E
:10079000D47101002DE9F0410F4605460020286282
:1007A0002846E968884770B3252805D0D5E9012196
:1007B0009047286A401CF2E7E968284600268847E7
:1007C0006C2804460AD0682C08D04C2C35D06A2CF2
:1007D00031D0742C31D07A2C2FD016E0E96806463F
:1007E00028468847B042044608D16C2E23D04FF4E7
:1007F00080662846E9688847044606E06C2E03D0E8
:100800004FF4807601E01EE04026E4B1A4F14100FF
:10081000192802D8203446F400663A462146284674
:100820002E60FFF70DFD60B1012808D0FF1D27F0F5
:1008300007070837B4E78026DBE70026D9E73F1D26
:10084000AEE72046B2E7286ABDE8F08110B5002087
:1008500000F0E9FAFFF714FDBDE81040012000F0B8
:1008600089B90B460146184600F0C6BA10B5431CBC
:1008700002E010F8011B71B18107FAD14FF001328B
:1008800002C88C1A8C4314EAC211F9D0C01A0A06A5
:1008900003D0C01E10BDC01A10BD0A0401D0801EB6
:1008A00010BD0902FCD0401E10BD032A40F230806A
:1008B00010F0030C00F0158011F8013BBCF1020FA1
:1008C000624498BF11F801CB00F8013B38BF11F822
:1008D000013BA2F1040298BF00F801CB38BF00F839
:1008E000013B11F0030300F06780083AC0F0088074
:1008F00051F8043B083A51F804CBA0E80810F5E79A
:10090000121D5CBF51F8043B40F8043BAFF300807C
:10091000D20724BF11F8013B11F801CB48BF11F8F1
:10092000012B24BF00F8013B00F801CB48BF00F8C1
:10093000012B7047431A28BF9A427FF6B6AF104486
:100940001144032A40F2268010F0030F1EBF11F855
:10095000013D521E00F8013D10F0030F7FF4F6AF89
:1009600011F0030300F06D80083AC0F00B8051F8DD
:10097000043D083A51F804CD40F8043D40F804CD58
:10098000FFF7F3BF121D5CBF51F8043D40F8043D72
:10099000AFF30080D20724BF11F8013D11F801CD5B
:1009A00048BF11F8012C24BF00F8013D00F801CD2B
:1009B00048BF00F8012C704710B5203AC0F00B80FA
:1009C000B1E81850A0E81850B1E81850A0E8185045
:1009D000203ABFF4F5AF5FEA027C24BFB1E81850BB
:1009E000A0E8185044BF18C918C0BDE810405FEA1D
:1009F000827C24BF51F8043B40F8043B08BF704799
:100A0000D20728BF31F8023B48BF11F8012B28BF9D
:100A100020F8023B48BF00F8012B7047431A28BF5B
:100A20009A427FF6C9AF1044114410F0030F1EBF65
:100A300011F8013D521E00F8013D10F0030F7FF444
:100A4000F6AF103AC0F00A8010B531E9185020E92D
:100A50001850103ABFF4F9AFBDE81040530724BF57
:100A600031E9081020E9081044BF51F8043D40F86E
:100A7000043D12F0030F08BF7047D20728BF31F8BA
:100A8000023D48BF11F8012C28BF20F8023D48BFA5
:100A900000F8012C704702F0FF0343EA032242EA08
:100AA000024200F00AB802F0FF0343EA032242EADE
:100AB000024200F024B84FF000020429C0F0128076
:100AC00010F0030C00F01B80CCF1040CBCF1020F01
:100AD00018BF00F8012BA8BF20F8022BA1EB0C01D6
:100AE00000F00DB85FEAC17C24BF00F8012B00F8CC
:100AF000012B48BF00F8012B70474FF0000200B5F2
:100B0000134694469646203922BFA0E80C50A0E830
:100B10000C50B1F12001BFF4F7AF090728BFA0E8DE
:100B20000C5048BF0CC05DF804EB890028BF40F8AA
:100B3000042B08BF704748BF20F8022B11F0804FEC
:100B400018BF00F8012B70477047704770470000CE
:100B500070B5064C7C44064D7D4404E02046016897
:100B600008448047241DAC42F8D170BDD078010004
:100B7000F478010001491820ABBEFEE72600020010
:100B800010B5FFF789FC083010BD11F0FFB97047B0
:100B900070477047704738B504460A4600206946DA
:100BA000AFF30080002808BF38BD024600992046F8
:100BB00000F056F9012038BD012000F0C3BBF8B5A4
:100BC000AFF30080054600200C46102000BF06460B
:100BD000A819A0420DD9324669460020AFF3008023
:100BE000070008BF00F0AEFB0098A04218BF054602
:100BF000C419FFF7C5FF05600746F01D20F0070088
:100C00004619284600F01CF9B44208BFF8BDA21BE3
:100C100031463868BDE8F84000F022B90844401E6B
:100C2000491E884370470821001DF7E72DE9F04170
:100C300017460E460446FFF7F6FFA042054633D995
:100C4000002F1CBF06F10C0011F0ABF930467468A0
:100C5000F4B12168A94217D305F1080291423CBFC3
:100C60006168416007D3626861194A602268521B5B
:100C70000A6041602560002F1CBF06F10C0011F0D6
:100C800094F9201DBDE8F08120466468002CE0D175
:100C900029463046FFF77FFF0028D7D1002F1CBF21
:100CA00006F10C0011F081F90020BDE8F08110B5CB
:100CB0000446FFF765FF01682046BDE810400122A9
:100CC000B4E710B5FFF761FF006810BD10B504462A
:100CD000FFF75BFF046010BD2DE9F0470D46994614
:100CE0009246044600F124080168880604D5E069AC
:100CF00021F01001216000E00120A84201DD471B26
:100D000000E00027A1697A1902EB0900081AA06126
:100D10002078C00602D42046AFF30080002608E009
:100D2000D4E901211AF806009047206A401C761C7D
:100D300020624E45F4DB2078C0060AD52046AFF38A
:100D4000008006E0D4E9012130209047206A401C51
:100D50002062381EA7F10107F4DC07E0D4E9012185
:100D600018F805009047206A401C2062281EA5F153
:100D70000105F3DC2046AFF300802078000602D5A1
:100D80000220BDE8F0870120FBE7000001694A1C52
:100D900002610878704700B58FB0CDE901310021BC
:100DA000059105497944CDE9031011466846FFF7DE
:100DB000F1FC0FB000BD0000E5FFFFFFD1E900230B
:100DC0009A4202D2531C0B601070704710B54369F1
:100DD00013B1AFF3008001E0FFF74AFC012010BD22
:100DE000127800F124010A7000224A700122EDE716
:100DF00011684FF0FF32E9E72DE9F041074615464B
:100E00000E461020FFF753FF04000AD06760C4E9C4
:100E1000026500F010F80168216004600020BDE860
:100E2000F0810120FBE710B500F074FABDE8104036
:100E300000F06ABA704710B5FFF72EFB383010BDCE
:100E400000210160C0E901100C3011F0ACB8102095
:100E50007047801A0844401E491E8843104470475A
:100E600070B5144605468C464368002B18BF634591
:100E700038BF1846F8D302681044604508D066466B
:100E8000604604220821FFF7E4FF811B8446641AB0
:100E90002946CCF80040BDE8704000220CF1040067
:100EA000FFF712BB2DE9FF4F0C461E464FF0FF37F0
:100EB0008BB0D2E90001DDF860800A908A46C1F368
:100EC0000A5505B93D46002108464FF00000BAF129
:100ED000000F00F4400005DA00EB80004FF4400101
:100EE00001EA50004FEA9059B9F1010F00DDB9460F
:100EF0000A9850EA4A000ED044F61050A5F2FF3589
:100F000045432F14B8F1000F1ED07542291E1EDD77
:100F1000C9F100021CE0B8F1010F4FF0000001D050
:100F2000302103E0F24305E02154401CB042FBDBDA
:100F300030460022002121540B99C1F80880C1E9F4
:100F400000200FB000F0BCB9BD1B6D1CDEE74A46A7
:100F500000DA694206A800F0ABFA06AB93E8070096
:100F600003AB83E8070050460A9911F0C5F98DE8F4
:100F70000700A0F500501F3800900398002D0ADDEF
:100F800042F21F014A460844002303A90390684621
:100F900011F02EFC09E0A0F500504A461F3800234E
:100FA00003A90390684611F038FC8DE8070000049F
:100FB000000C03D04FF0FF30410800E01046B8F1BC
:100FC000000F03D00022009215461EE0751E05D4C6
:100FD00000F0E9F9303262556D1EF9D5B3460122B1
:100FE000084302D000227F1C04E02078302801D181
:100FF00000227F1E002A099784D01DE0112D07DAF8
:1010000000F0D1F9303262556D1C50EA0102F5D181
:10101000084302D00098C8B10EE00021681E05E028
:10102000235C625C63542254401E491C8142F7DBFE
:10103000AB46A81B401E0990002004F80B000B983B
:10104000099AC0F80880C0E9002B7AE711264FF012
:10105000000857E72DE9F04F88460446D21D22F0DC
:10106000070191B0D1E90001CDE90A0111F017FDA6
:1010700002460B98C00F01D02D2007E020688107A1
:1010800001D52B2002E0202101EAC000032A0990AB
:1010900001D0072A05DB03464146204600F0C8F987
:1010A0000BE12078800601D5E06900E00620B8F168
:1010B000650F814606D0B8F1660F18D0B8F1670FFA
:1010C00070D131E00020B9F1110F009001DB112344
:1010D00001E009F101030AAA01A90CA8FFF7E2FE49
:1010E000DDE90C70002609F10105834647E0012087
:1010F0004B4600904FF000470AAA01A90CA8FFF741
:10110000D1FEDDE90DB00C995D46002610B909F15C
:1011100001000D18B9EB050003D4C0F1FF3609F149
:101120000105A5EB09002BE0B9F1010F01DA4FF041
:1011300001090020B9F1110F0090484601DD11238B
:1011400000E003460AAA01A90CA8FFF7ABFEDDE9FF
:101150000C704D4600268346207800070AD4AB4524
:1011600000DA5D4601A8012D04DD411911F8011CCA
:10117000302907D04F4502DA17F1040F04DA0120B5
:1011800082460FE06D1EEEE7002F02DCED1B3E44B1
:1011900003E0781CA84200DD7D1CB81B00F1010AA9
:1011A0004FF000472078000703D4AA4501DB4FF039
:1011B000FF3A0021B7F1004F0DF143088DF84310BD
:1011C00024D002202B23002F01DA7F422D230A2175
:1011D000021EA0F1010000DC5FB197FBF1FC97FB60
:1011E000F1F201FB1C7C17460CF1300C08F801CD24
:1011F000EEE7A8F1010003702188090501D545211A
:1012000000E06521A0F1010800F8011C09980FA970
:10121000A1EB0807FF1D00B10120411901EBEA70A5
:10122000A1693844081A401EA0612078C00602D483
:101230002046AFF30080099828B1D4E901219047F6
:10124000206A401C20622078C00622D52046AFF3D9
:1012500000801EE0002E04DBB34502DD01A8805DA6
:1012600000E03020D4E901219047206A401C206230
:10127000761CAAF101005FEA000A0AD100F08EF89C
:10128000C0680168405CD4E901219047206A401C95
:101290002062281EA5F10105DCDC07E0D4E901216C
:1012A00018F8010B9047206A401C2062381EA7F1F5
:1012B0000107F3DC2046AFF30080032011B041E6C4
:1012C00030BCBDE8C08F2DE9F0410646FFF7B3FD05
:1012D0008046454613E016B1E068B0420ED1206862
:1012E0002860D4E90101D8F8007088472046FFF74C
:1012F0001CF9D8F80000B842EBD100E025462C6874
:10130000002CE8D1BDE8F081002801D0FFF732BC05
:101310007047000010B5002102A000F044F9012040
:1013200010BD0000534947414252543A2041626E79
:101330006F726D616C207465726D696E6174696F36
:101340006E00000010B500F047F9BDE81040FFF74F
:10135000DBBF7546FFF7A0F8AE4605006946534669
:1013600020F00700854618B020B5FFF783F8BDE8E8
:1013700020404FF000064FF000074FF000084FF0FC
:10138000000BAC46ACE8C009ACE8C009ACE8C00949
:10139000ACE8C00921F007018D46704710B5FFF792
:1013A0007BF8203010BD30B5B0F10A0271F10003B6
:1013B0004FEA900E4EEA817EB0EB0E0061EB910198
:1013C0004FEA101E4EEA017E10EB0E0041EB1111A8
:1013D0004FEA102E4EEA016E10EB0E0041EB112188
:1013E0004FEA104E4EEA014E10EB0E0041EB114158
:1013F000401841F100014FEAD00040EA41704FEA45
:10140000D1014FEA810444EA907410EB800544EB6B
:1014100001046D1944EB0404521BA3414FF0000377
:1014200048BF0A3200D530BD401C41F1000130BD3B
:101430002DE9F0411F46044603260168072A01F4FE
:10144000006004DB08B116A505E016A503E008B1AD
:1014500015A500E015A521F010002060A069C01EB0
:10146000A0610FB1401EA0612046AFF300804FB1D4
:10147000D4E9012138469047206A401C2062C01CF4
:10148000206206E0206AFAE7D4E9012115F8010B91
:101490009047761EF8D22046AFF30080BDE8F08179
:1014A0004E414E006E616E00494E4600696E660008
:1014B0002DE9F047814616468AB0354878440DC874
:1014C0008DE80D0032487844801C03AC0DC884E8D8
:1014D0000D0041F69B300844372190FBF1F290FB60
:1014E000F1F5A5F1800501FB12041B3C02D5644215
:1014F000012000E00020DFF898A080460027FA4491
:10150000AAF1BE0A0EE0E0070AD03246684607EBB1
:10151000470101230AEB810111F07FF98DE80700F3
:1015200064107F1C002CEED1194F7F44AE3F19E0B0
:10153000E80715D007EB04100DF1180A90E80E002B
:101540008AE80E00C068F04201D19819089032462E
:10155000012306A903A811F060F903AB83E8070093
:101560006D10641C002DE3D14FF001033246694633
:10157000B8F1000F03A802D011F03AF901E011F020
:101580004CF9C9E90001C9F808200AB0BDE8F087A4
:10159000B465010010B50446AFF300802046BDE8F5
:1015A0001040FEF77BBE70B505460C460A2000E0F1
:1015B0006D1C00F039F835B128780028F8D102E028
:1015C000641C00F031F814B120780028F8D1BDE88F
:1015D00070400A2000F028B810B5012805D000217D
:1015E00003A0FFF7E0FF012010BD09A1F8E700000C
:1015F00053494752544D454D3A204F7574206F66FC
:101600002068656170206D656D6F72790000000063
:101610003A2048656170206D656D6F727920636F47
:10162000727275707465640008B569468DF80000C3
:101630000320ABBE08BD000030B44FF0013C50F8B1
:10164000042B51F8043BCCFA52F4D51A20D1FCB942
:1016500050F8042B51F8043BCCFA52F4D51A17D1A8
:10166000B4B950F8042B51F8043BCCFA52F4D51A13
:101670000ED16CB950F8042B51F8043BCCFA52F45B
:10168000D51A05D1002CDAD030BC4FF000007047DD
:1016900029BAB1FA81F111F01801D1F1200084408A
:1016A000F2D1CA40CB4012F0FF0213F0FF0330BC6E
:1016B000D01A704740F66C20C2F2000000F0F0BC77
:1016C00040F66C20C2F2000000F0EABC2DE9F04FB9
:1016D00089B004466FF004000330ADF80C001888A0
:1016E0000292ADF8100047F68C20C0F6030041F6D8
:1016F000FF72455CADF80E2042F2266A40F23208D5
:1017000064221F460026C0F2320AC0F26408ADF817
:101710001A200DF10C092046294680220823CDE924
:101720000766CDF812A0CDF81680CDF8009001968E
:1017300004F058F94FF6FB70C1F6FF70398803903A
:101740006420ADF81010ADF81A0020462946882212
:101750000823CDF812A0CDF81680CDF800900196A0
:1017600004F040F96FF48070F030ADF80C00388868
:1017700041F6FF7BADF810006420ADF81A0020465A
:10178000294690220823ADF80EB0CDF812A0CDF86E
:101790001680CDF80090019604F024F96FF4807063
:1017A000C030ADF80C0038882946ADF81000642030
:1017B000ADF81A00204698220823ADF80EB0CDF8F7
:1017C00012A0CDF816804FF0640BCDF80090019672
:1017D00004F008F94FF6FF603988C1F6FF700390F6
:1017E000ADF8101020462946A0220823CDF812A0FB
:1017F000CDF81680ADF81AB04FF0640BCDF800901C
:10180000019604F0EFF86FF48070A0F54070ADF829
:101810000C00388841F6FF71ADF80E10ADF81000DD
:1018200020462946A8220823CDF812A0CDF816801C
:10183000ADF81AB0CDF80090019604F0D3F86FF42B
:101840008070A0F57060ADF80C00388841F6FF712B
:10185000ADF810006420ADF80E10ADF81A00204667
:101860002946B0220823CDF812A0D346CDF8168021
:10187000CDF80090019604F0B5F86FF0040000F187
:10188000040A41F6FE70ADF80E0038882946ADF81E
:1018900010006420ADF81A002046B8220823ADF8E5
:1018A0000CA0CDF812B0CDF81680CDF800900196BE
:1018B00004F098F841F6FB70ADF80E003888294620
:1018C000ADF810006420ADF81A002046C0220823AD
:1018D000ADF80CA0CDF812B0CDF81680CDF8009080
:1018E000019604F07FF841F6EF70ADF80E003888ED
:1018F0002946ADF810006420ADF81A002046C82231
:101900000823ADF80CA0CDF812B0CDF81680CDF8B4
:101910000090019604F066F841F6BF70ADF80E0035
:1019200038882946ADF810006420ADF81A0020462A
:10193000D0220823ADF80CA0CDF812B0CDF8168057
:10194000CDF80090019604F04DF841F6FF6039881B
:10195000ADF80E006420ADF81010ADF81A00204666
:101960002946D8220823ADF80CA0CDF812B0CDF846
:101970001680CDF80090019604F034F802982946BC
:10198000ADF80C004FF48060CDF81A000020C0F6CE
:10199000FF70CDF81E00204600220B23CDE904661F
:1019A000ADF81860CDF80090019604F01BF840F6F1
:1019B000FF70ADF80E0001272046294601220123C1
:1019C000CDF80090019704F00DF809B000F000B8D0
:1019D00030BCBDE8C08F2DE9F04F89B06FF0040036
:1019E0000330ADF80C0041F6FF70ADF80E0047F67D
:1019F0008C20C0F60300855C0C46129E42F22669DC
:101A000040F23208642102930027C0F23209C0F28A
:101A10006408ADF81A100DF10C0A20462946802200
:101A20000823CDE90777ADF81060CDF81290CDF816
:101A30001680CDF800A0019704F002F84FF6FB7075
:101A4000C1F6FF7003906420ADF81A0020462946C5
:101A500088220823ADF81060CDF81290CDF81680DA
:101A6000CDF800A0019703F0EBFF6FF48070F03029
:101A7000ADF80C00642041F6FF7BADF81A0020465B
:101A8000294690220823ADF80EB0ADF81060CDF8CD
:101A90001290CDF81680CDF800A0019703F0D0FF8A
:101AA0006FF48070C030ADF80C006420ADF81A00FF
:101AB0002046294698220823ADF80EB0ADF81060F4
:101AC000CDF81290CDF816804FF0640BCDF800A041
:101AD000019703F0B5FF4FF6FF60C1F6FF7003906A
:101AE00020462946A0220823ADF81060CDF81290B8
:101AF000CDF81680ADF81AB04FF0640BCDF800A009
:101B0000019703F09DFF6FF48070A0F54070ADF871
:101B10000C0041F6FF70ADF80E0020462946A822C1
:101B20000823ADF81060CDF81290CDF81680ADF80E
:101B30001AB0CDF800A0019703F082FF6FF4807017
:101B4000A0F57060ADF80C0041F6FF70ADF80E0026
:101B50006420ADF81A0020462946B0220823ADF8CB
:101B60001060CDF81290CB46CDF81680CDF800A0CD
:101B7000019703F065FF6FF0040000F1040941F6DE
:101B8000FE70ADF80E006420ADF81A00204629461C
:101B9000B8220823ADF80C90ADF81060CDF812B063
:101BA000CDF81680CDF800A0019703F049FF41F66B
:101BB000FB70ADF80E006420ADF81A0020462946EF
:101BC000C0220823ADF80C90ADF81060CDF812B02B
:101BD000CDF81680CDF800A0019703F031FF41F653
:101BE000EF70ADF80E006420ADF81A0020462946CB
:101BF000C8220823ADF80C90ADF81060CDF812B0F3
:101C0000CDF81680CDF800A0019703F019FF41F63A
:101C1000BF70ADF80E006420ADF81A0020462946CA
:101C2000D0220823ADF80C90ADF81060CDF812B0BA
:101C3000CDF81680CDF800A0019703F001FF41F622
:101C4000FF60ADF80E006420ADF81A00204629466A
:101C5000D8220823ADF80C90ADF81060CDF812B082
:101C6000CDF81680CDF800A0019703F0E9FE0298A8
:101C70002946ADF80C004FF48060CDF81A00002022
:101C8000C0F6FF70CDF81E00204600220B23CDE9E0
:101C90000477ADF81870CDF800A0019703F0D0FEDE
:101CA00040F6FF70ADF80E000127204629460122BC
:101CB0000123CDF800A0019703F0C2FE09B000F0A7
:101CC00000B830BCBDE8C08F40F6A830C2F20000BA
:101CD00000F093BC40F66030C2F2000000F08DBC12
:101CE00040F61830C2F2000000F087BC40F6D02069
:101CF000C2F2000000F081BCEFF3108072B600BFAA
:101D0000FEE740F29830C2F20000027F02F0FD01CF
:101D1000012942F20001C4F202010FD10B6823F441
:101D200000730B600B6843F400630B600B6823F4D3
:101D300000630B600B6843F400730B6002F0FE025B
:101D4000022A0BD10A6842F480520A600A6822F41F
:101D500080520A600A6842F480620A6000210177BA
:101D600070470000F0B581B042F210060446C4F29C
:101D7000020600F0E0FF3168C9030AD50546671C7A
:101D800027B100F0D8FF401BA0421AD23068C00330
:101D9000F6D430684CF2FA31C0F20201014008D0AA
:101DA00040F29830C2F2000042680A4342600120CB
:101DB00005E03068C0074FF0000003D0012131601A
:101DC00000E0032001B0F0BD90F82020013A012A84
:101DD00004D8006800F11402002004E000F124029D
:101DE00001204FF48021136819431160704710B52A
:101DF00090F820E0D0F800C0AEF1010EBEF1010F66
:101E0000DCF808E010D81EF0E05F13D0CEF3016ECE
:101E1000012000FA0EF018608B688BB14868CC681E
:101E200044EAC00003430FE000F1240101204FF415
:101E3000802223E000F1240101204FF400121DE074
:101E40000868CB6843EA40530CEB0E10C0F88031B1
:101E50000B69C0F88431097D012905D100F5C271F3
:101E60000B6843F480730B605168C0F88C111268E2
:101E700000F5C071C0F88821002001220B681A43C8
:101E80000A6010BDB0B5026890F82030013B012B0C
:101E900027D8D2F80002012340F00100C2F8000266
:101EA000D1F814E0CC690EF01F0003FA00F0D2F86C
:101EB0001C326FEA000C8343012CC2F81C3216D08E
:101EC00064BBD2F80C3203EA0C03C2F80C32CB68C4
:101ED0008C8844EA034302EBCE04C4F840320B463C
:101EE00014E0416A41F4802141620120B0BDD2F882
:101EF0000C320343C2F80C320B688C8844EA03436B
:101F000002EBCE04C4F8403201F10C038C681B884C
:101F100043EA044302EBCE04C4F84432D2F804325C
:101F20008D6943EA0004D1F810E0096A002D08BF6A
:101F300003EA0C04C2F80442D2F81432BEF1000FD6
:101F400043EA000408BF03EA0C040129C2F8144262
:101F500004D1D2F81C120843C2F81C02D2F80002C5
:101F600020F00100C2F800020020B0BD90F820204F
:101F7000013A012A06D80068426922EA010141615A
:101F800000207047416A41F480214162012070477E
:101F9000704710B590F82040013C012C70D8D0F863
:101FA00000C000290CBFDCF80C40DCF81040A4078E
:101FB0006CD00CEB011CDCF8B0410CF5D87E14F0B1
:101FC00004049460DCF8B04119BFE4085460640D67
:101FD0001460DEF80040002904F00204D460DCF84C
:101FE000B44104F00F041461DCF8B441C4F30724D5
:101FF0009461DCF8B4414FEA14445461DCF8B82130
:102000001A70026802EB0112D2F8B8214FEA1222CC
:102010005A70026802EB0112D2F8B8214FEA12425C
:102020009A70026802EB0112D2F8B8214FEA1262EC
:10203000DA70026802EB0112D2F8BC211A71026850
:1020400002EB0112D2F8BC214FEA12225A71026847
:1020500002EB0112D2F8BC214FEA12429A710268D7
:1020600002EB0112D2F8BC214FEA1262DA71006869
:102070000CBF00F10C0100F11001002020220AE049
:1020800000F1240101204FF4802204E000F124013A
:1020900001204FF400120B681A430A6010BD0000C3
:1020A0002DE9F04F81B0044600684669D0F80490ED
:1020B0008768D0F80CB0D0F810A0D0F81880F107DD
:1020C00001D1002546E0F9070FD00121BA07816050
:1020D00006D478071CD4380720D404F1340001E07A
:1020E00004F128000168204688470025F8051AD524
:1020F00020684FF48071BA05816005D478050AD450
:1021000038050ED4A16B00E0E16A204688470AE05A
:102110004FF40065EAE705F5005504E04FF48055FB
:10212000E4E705F58045F80314D520684FF48031C5
:10213000BA03816005D4780307D4380308D4E16B6F
:1021400000E0216B2046884704E005F5004501E0EA
:1021500005F58035300707D51BF0100004D0206846
:1021600045F400751021C160700708D51BF0080008
:1021700005D02068616C0822C26020468847B007FD
:1021800006D52068C068800702D0216C20468847A9
:10219000700607D51AF0100004D0206845F4806559
:1021A00010210161B00608D51AF0080005D020689A
:1021B000E16C0822026120468847F00606D52068B7
:1021C0000069800702D0A16C20468847B00308D57B
:1021D00019F0100005D02068216D102242602046C1
:1021E0008847F00308D519F0080005D02068616D14
:1021F0000822426020468847300440D55FEA497093
:102200003AD506F4807008EA102028435FEA887106
:10221000014648BF41F00201B20558BF01465FEADE
:1022200048700D4648BF45F00405700558BF0D467F
:10223000300521D518F070001ED01038000905288F
:1022400015D8DFE800F00306090C0F1245F0080569
:102250000DE045F010050AE045F0200507E045F0E7
:10226000400504E045F0800501E045F480752068F4
:10227000816921F0700181612068042141604DB1C4
:10228000606AA16D40EA05022046626201B000F07A
:1022900004B8084701B000F005B830BCBDE8C04F35
:1022A000FFF7F7BF30BCBDE8C08F00002DE9F0415B
:1022B000002861D0044690F82000002849D142F25D
:1022C0002F5142F2935542F2975242F23158C0F6E2
:1022D0000201C0F60205C0F6020242F29B5342F22E
:1022E0009950C0F60208C0F6020342F2915642F23B
:1022F0009557C0F60200C4E90A5204F13002616445
:10230000E16D42F2355C42F2335EC0F60206C0F681
:102310000207C8C2C4E90F0842F2375042F29D5288
:1023200041F69173C0F6020CC0F6020EC0F6020030
:10233000C0F60202C0F60203C4E912CE206562654F
:10234000A36521B942F22D41C0F60201E1652046A4
:1023500088472068016841F00101016000F0EBFC52
:10236000054600BF20684168C90708D100F0E3FCBA
:10237000401B0B28F6D312E00120BDE8F081016874
:1023800021F00201016000F0D6FC0546206841689A
:1023900089070BD500F0CFFC401B0B28F6D3606AF1
:1023A000052140F40030606201203BE0217E02689C
:1023B000012922F0800208BF80320260617E02683B
:1023C000012922F0400208BF40320260A17E02686B
:1023D000012922F0200208BF20320260E17E02685B
:1023E000012922F0100218BF10320260217F02681A
:1023F000012922F0080208BF08320260617F0268EA
:10240000012922F0040208BF04320260271D8ECF8A
:1024100066691A433A43324301391143C1610020CE
:102420000121606284F82010BDE8F08180B586B09B
:10243000006846F20041C4F20001884237D141F2FF
:102440004C00C4F20200C16841F00071C160C16873
:1024500001F0007101910199016841F002010160F0
:10246000006801A900F00200019001984FF440704B
:102470000190022002900020039003200490092084
:10248000059040F20040C4F6000000F06BFB132002
:102490000021002201F086F8132001F071F81420C9
:1024A0000021002201F07EF8142001F069F806B046
:1024B00080BD0000A2B190F82030012B0DD10E2973
:1024C0000ED8DFE801F0081B1D1F21232527292B2B
:1024D0002D2F31171900826227E090F820302BB1A0
:1024E000416A41F480014162012070470E2903D006
:1024F0000D29F5D1C26518E0026616E0C26214E04B
:10250000026312E0426310E082630EE0C2630CE0FB
:1025100002640AE0426408E0826406E0C26404E007
:10252000026502E0426500E0826500207047704766
:102530007047704770477047B0B5044690F8200068
:1025400001281CD1022084F820002068016821F0B5
:102550000101016000F0EFFB054600BF2068406804
:10256000C00712D000F0E7FB401B0B28F6D3606ACF
:1025700040F400306062052084F8200003E0606AC7
:1025800040F4002060620120B0BD00206062B0BD58
:10259000704770477047704770477047704780B505
:1025A00090F82510022920D10168D0F838E0D0E950
:1025B00010C30A68BEF1000F22F00E020A600A681A
:1025C00022F001020A6003F01C014FF0010202FA3E
:1025D00001F1CCF804104FF0000180F8252080F8BC
:1025E000241005D0F047002102E00421C16301213D
:1025F000084680BD90F825007047B0B5D0E910C3FB
:102600000268DCF8001003F01C030424D2F800E098
:102610009C400C4218BF1EF004051AD102249C40B5
:102620000C4218BF1EF002051FD1D94009071BD567
:102630001EF0080118D0116821F00E01116001216F
:1026400001FA03F2CCF80420C16380F82510416B35
:1026500018E01168890603D4116821F004011160A3
:10266000CCF80440016B91B9B0BD1168890606D45D
:10267000116821F00A011160012180F82510CCF8C1
:102680000440C16A0022002980F82420ECD0BDE873
:10269000B040084700285BD02DE9F04740F2004CDD
:1026A000C4F2020C02684FF6F8310CF1080ECBF6BA
:1026B000FD71724538BF01F580614CF6CD43114480
:1026C000CCF6CC43A1FB03136FF00301674601EA8C
:1026D00093094FF00203D0E9024AD0F8108038BFC6
:1026E000A7F58067C0E9107980F82530136847F6B0
:1026F000F077BB43D0E9057643EA0A0343EA0803CF
:10270000D0E907153B433343194329432143B4F52B
:10271000804F116012D00CF1A80409F01C010F23A6
:10272000724538BFACF5567422688B409A432260DC
:102730004268236802FA01F1194321600021012255
:10274000C16380F8252080F82410BDE8F04700E040
:10275000012108467047F0B590F824C0BCF1010F84
:1027600035D04FF0010E80F824E090F825C0BCF180
:10277000010F29D14FF0020C80F825C04FF0000C5A
:10278000C0F83CC0D0F800C08468056B066CDCF86B
:102790000070102C27F00107CCF80070406C00F09E
:1027A0001C000EFA00F070600846CCF8043004BF3C
:1027B00010460A46CCF80800CCF80C20DCF80000E3
:1027C0003DB140F00E000CE0002180F82410022002
:1027D000F0BD20F00400CCF80000DCF8000040F070
:1027E0000A00CCF80000DCF8000040F00100CCF852
:1027F00000000020F0BD00002DE9F04F81B040F254
:102800009839C2F2000999F80020012A01D1022664
:102810007AE08246012089F800004CF25030884668
:10282000FFF7A0FA064600286BD142F214040020FC
:10283000C4F20204C9F8040054F8140C54F8141C2F
:10284000490502D4C0F340200BE054F8141C10F4E6
:1028500000704FF0030021F4806108BF022044F8AB
:10286000141C89F81C00DAF80000012815D19AF828
:102870000400C00703D0206840F0040020602068F6
:1028800040F4803020604CF25030FFF76BFA216842
:10289000064621F00400206031E04FF0FF30C8F818
:1028A0000000DAE902703844874224D2FD0040F289
:1028B000FA3B00BF206805F4FF6120F47E700843F6
:1028C0002060206840F002002060206840F48030E2
:1028D00020604CF25030FFF745FA2168064621EAA5
:1028E0000B0020604EB9DAE9020101370844874243
:1028F00005F10805DED3002601E0C8F80070FFF7F7
:1029000000FA002089F80000304601B000F000B85D
:1029100030BCBDE8C08F40F29830C2F20000406881
:10292000704742F21401C4F20201086840F000420C
:1029300000200A60704700002DE9F04740F2983906
:10294000C2F20009144699F80020012A01D102259B
:1029500069E08046012089F800004CF250301F46A3
:102960000E46FFF7FFF90546002859D142F2000A4A
:102970000020C4F2020AC9F80400DAF80010490580
:1029800006D5DAF8000020F48060CAF800000220C2
:10299000B8F1000F89F81C0024D0A8F1010002282A
:1029A00037D2DAF8140040F48020CAF81400EFF3AC
:1029B0001080EFF3108172B6402100BF54F8042B51
:1029C00001390B0646F8042BF8D180F310884CF23D
:1029D0005030FFF7C7F9B8F1020F05461ED16FF46A
:1029E000802010E0DAF8140040F00100CAF814006A
:1029F00034604CF25030BFF36F8F7760FFF7B2F95D
:102A000005466FF00100DAF814100840CAF8140007
:102A100004E04CF25030FFF7A5F90546FFF771F9D5
:102A2000002089F800002846BDE8F08742F208003F
:102A3000C4F20200C168B1F1FF3FC4BF002070477B
:102A400040F22311C4F26751016048F6AB11CCF695
:102A5000EF510160C068C00F704700002DE9F04FD2
:102A600081B0002977D041F2000600F13842C4F667
:102A70000006072340F200494FEAB227B04208BFE0
:102A80000423C4F20109042F38BF4FEAB223002205
:102A90000F24002600274FF00F0E0093012303FAA6
:102AA00007FB1BEA010C4ED0A9F57E7527F0030346
:102AB00006F00C0AEB5804FA0AF8009C03EA080333
:102AC00004FA0AF4A34220D1D9F8003040F20C44B1
:102AD00023EA0C03C9F80030D9F80430C4F2010429
:102AE00023EA0C03C9F80430236823EA0C032360AB
:102AF000D9F80830BC0823EA0C03C9F8083055F8A7
:102B0000243023EA080345F8243003680325954060
:102B10002B4303606FF0030303EA5704044406F0F9
:102B20001C0CD4F820800EFA0CF328EA030323626D
:102B300083680F24AB438360436823EA0B0343603D
:102B4000C368AB43C360013731FA07F306F10406EB
:102B500002F10202A2D101B000F000B830BCBDE821
:102B6000C08F00002DE9F04F82B00D68002D00F0FD
:102B7000C98041F2000400F13847C4F6000407227E
:102B80004FEAB726A04208BF0422042E38BF4FEAFE
:102B9000B722002401274FF0000E0026009200BF4C
:102BA00007FA06FB15EA0B0800F0A280D1F804A092
:102BB00003220AF0030CACF10105A240012D6FEADB
:102BC00002090FD88268CD6802EA0902A5402A43AB
:102BD00082604268CAF3001522EA0B02B5402A431C
:102BE000426005E0BCF1030F02D14FF0030C21E07D
:102BF000C2688D6802EA0902A5402A43BCF1020FAF
:102C0000C26017D16FF0030202EA560202440EF0CE
:102C10001C030F25D2F820C005FA03FA0D692CEA2F
:102C20000A0C05FA03F343EA0C031362D1F804A07B
:102C30000AF0030C02680CFA04F302EA09021A43D0
:102C40001AF4403F026053D041F26003C4F2020321
:102C50001A6840F2004942F001021A601A68C4F290
:102C6000010902F001020192019A26F003024FF6D7
:102C7000084A4A44CFF6FF7A52F80AC00EF00C0513
:102C80000F23009FAB402CEA030307FA05F52B4303
:102C900042F80A30D9F808C04B684CEA0805DA0255
:102CA00058BF2CEA080540F20C4CC9F80850C4F291
:102CB000010CDCF800209F0242EA080558BF22EA16
:102CC0000805CCF80050D9F804209D0342EA080713
:102CD00058BF22EA0807C9F80470D9F80020DB03BE
:102CE00042EA080758BF22EA0807C9F8007001271E
:102CF0000D68013635FA06F20EF1040E04F10204F5
:102D00007FF44EAF02B000F000B830BCBDE8C08F19
:102D10000069084018BF01207047426902EA0103B8
:102D2000914341EA0341816170471823002A08BF9B
:102D30002823C150704780B540F2B830C2F200007D
:102D40004068804700B180BDBDE880400FF04CBABC
:102D500090F84120202A03D190F84020012A01D187
:102D6000022118E0242280F841200268136823F031
:102D700001031360136823F480531360136819432D
:102D80001160116841F001011160202180F84110AB
:102D9000002180F840100846704790F84120202A12
:102DA00003D190F84020012A01D1022117E024220A
:102DB00080F841200268136823F001031360136850
:102DC00023F4706343EA01211160116841F00101AD
:102DD0001160202180F84110002180F84010084641
:102DE000704770477047D0F800C0DCF81830DCF846
:102DF0000020D90502F0800208D53AB1416C41F0BB
:102E0000010141644FF48071CCF81C10590508D5BC
:102E10003AB1416C41F0080141644FF48061CCF853
:102E20001C10990508D53AB1416C41F0020141648A
:102E30004FF40071CCF81C10416C11F00B0F08BF5F
:102E4000704701F04EBB0268436B9169126803B191
:102E500018477047704708B310B5044690F8410012
:102E600028B9002084F84000204600F073FA24209E
:102E700084F8410094E80910E2680168012A21F011
:102E80000101016023F070610161816821F400415A
:102E9000816005D14CF40041816009E00120704758
:102EA0004CF40441022A816004BF4FF40061416088
:102EB000416804F1100C41F0007141F4004141609F
:102EC000C16821F40041C1609CE80E10114341EA41
:102ED0000321C160216A41EA0C010160016841F0EF
:102EE0000101016000202021606484F8411020630A
:102EF00084F8420010BD00002DE9F04F83B0044675
:102F00000020029094F84100202808D120688A46C9
:102F10008169090403D494F84010012903D10220E7
:102F200003B000F075B8012184F84010242184F822
:102F30004110002161640A21D14661F39F2948F2C2
:102F400008011D46904661F39F2A5F1CE168012934
:102F5000494608BF51464160FFF7EDFE216806462D
:102F60008A698B6902F0200203F01003D2180FD196
:102F700037B1FFF7E0FEADB3801BA84232D821681D
:102F800088698A6900F0200002F010028018EFD0F2
:102F9000D1F818B02046202100222B46009601F0DF
:102FA00083FF5FEACB6129D548BB20681021C1614E
:102FB0002021C161029941450ED14168002241F4AE
:102FC00080414160204620212B46009601F06CFF95
:102FD000A8B920682021C1610299013102910299AA
:102FE0004145B3D3202084F84100606C40F02000BC
:102FF00060640120002184F8401091E708B10120AD
:103000008EE720682021C16184F841100020F1E79B
:1030100030BCBDE8C08F704710B5044603F0DBFE3E
:10302000E4B1011D002000BF0A681268A24205D069
:103030002830A02801F10401F6D10FE0B0F59B6F14
:103040000CD040F25461C2F2000108440021017129
:10305000416A19B1806ABDE81040084710BD000000
:1030600010B5044603F0B7FE8CB1021D0021A42068
:10307000131853F8A43C1B68A34205D02831A0299B
:1030800000F10400F4D102E0B1F59B6F00D110BD56
:1030900040F25463C2F2000319448A6842B1CC681A
:1030A00034B118584979A3B2BDE8104000F009B80E
:1030B000002008714A6A002AE9D0886ABDE81040F9
:1030C00010472DE9F041044690F84100202808D12E
:1030D0000D4621688869000403D494F84000012853
:1030E00003D102263046BDE8F081012084F840007B
:1030F000222084F84100102084F8420000206064FF
:103100000020CFF6FF7062626385E06244F6C7106C
:10311000C0F602006063608DB0F5807F04D3FF23AA
:1031200023854FF0807804E0638D23857BB34FF0D7
:103130000078E06BE8B144F2393744F2273CC0F63E
:103140000207C0F6020C00262431C0E90B76C0E964
:103150000DC6FFF700FBA8B3202084F8410084F8D7
:103160004260606C40F01000606484F840600126AA
:10317000B8E7202084F84100002084F84200616C08
:10318000012641F08001616484F84000AAE744F61A
:103190000930C0F602006063486849F60002CFF6C5
:1031A00000426FF39F251040284440F0007040F427
:1031B00010500026486084F84060086840F0F20033
:1031C00008608FE7208D22686FF39F25C1B2536896
:1031D00049F6000745EA0141CFF6004741EA0801F8
:1031E0003B40194341F410515160618D081A6085CC
:1031F00084F84060106840F090001060106840F45F
:10320000004010606EE72DE9F041044690F841005F
:10321000202808D10D4621688869000403D494F859
:103220004000012803D102263046BDE8F08101208C
:1032300084F84000212084F84100102084F84200E6
:10324000002060640020CFF6FF7062626385E06258
:1032500044F6C710C0F602006063608DB0F5807F51
:1032600004D3FF2323854FF0807804E0638D23850A
:1032700093B34FF00078A06B00B344F2273CC0F644
:10328000020C002644F2C737C0E90DC601F1280C34
:10329000C0F6020711466246C0E90B76FFF75BFAFB
:1032A000A8B3202084F8410084F84260606C40F0AC
:1032B0001000606484F840600126B5E7202084F89F
:1032C0004100002084F84200616C012641F0800139
:1032D000616484F84000A7E744F60930C0F60200B4
:1032E0006063486849F60002CFF600426FF39F25FD
:1032F0001040284440F0007040F400500026486020
:1033000084F84060086840F0F20008608CE7208D87
:1033100022686FF39F25C1B2536849F6000745EA5A
:103320000141CFF6004741EA08013B40194341F40F
:1033300000515160618D081A608584F84060106802
:1033400040F090001060106840F4804010606BE71F
:10335000704770472DE9F0439FB004461AA8142126
:10336000FDF7CBFB02A86021FDF7C7FB206845F6FF
:103370000001C4F2000188426DD045F20041C4F260
:103380000001884240F0DF804020029002A800F057
:103390008FF908B1FEF7B0FC41F24C05C4F202050A
:1033A000286840F2440840F00200286028684FF086
:1033B000030900F0020001900198C0201A90122029
:1033C0001B9001201C9004201E9040F20040C4F687
:1033D00000001AA9C4F20208CDF87490FFF7C2FBEE
:1033E000E868102140F40010E860E86840F61835FD
:1033F00000F400100190019808F12800C2F20005C5
:10340000C5E9000905F1080000268027C2C028464A
:10341000C5E90566C5E90766FFF73CF908B1FEF79F
:103420006BFCA563AC6240F6D02508F13C00C2F20B
:103430000005C5E900092846C5E90266C5E9047624
:10344000C5E906662E62FFF725F9202600284FF011
:103450001F0764D165E04FF0800802A8CDF808800E
:1034600000F026F908B1FEF747FC41F24C05C4F222
:103470000205286840F2440940F0020028602868EC
:10348000032600F00200019001984FF488401A9042
:1034900012201B9001201C9004201E9040F200403E
:1034A000C4F600001AA9C4F202091D96FFF75AFBE0
:1034B000E868002740F48000E860E86840F6A83536
:1034C00000F4800001900198C2F20005102005F17F
:1034D000080181E881012846C5E90096C5E905771C
:1034E000C5E90777FFF7D6F808B1FEF705FCA56335
:1034F000AC6240F6603509F11400C2F2000580218B
:1035000085E8C1002846C5E90371C5E90577C5E925
:103510000777FFF7BFF822264FF0210708B1FEF723
:10352000EBFB384600210022E563AC6200F03AF87C
:10353000384600F025F830460021002200F032F82D
:10354000304600F01DF81FB0BDE8F08370477047AB
:1035500080B5032000F051F8002000F007F808B112
:10356000012080BD00F00BF8002080BD80B540F246
:10357000B830C2F2000000688047002080BD70476C
:1035800000280ED4C1B200F01F00012202FA00F0A0
:103590004EF20012CEF2000242EAD10121F0030104
:1035A0000860704710B54EF60C5CCEF2000CDCF8EB
:1035B0000030C3F3022E8EF00704042C28BF04242D
:1035C000BEF103034FF0FF3E0EFA04F438BF0023B0
:1035D000A14399400EFA03F39A43114300F00F02FE
:1035E00000F160430901043A03F564436244002892
:1035F00048BF02F10C03197010BD4EF60C51CEF20B
:1036000000010A684FF6FF031A4060F30A2242F0F5
:10361000806040F0FD7008607047000047F2000CC9
:10362000C4F2000CDCF80020B0F5007F02F4C060AA
:103630002AD1B0F5007F31D0DCF80000012262F31E
:103640004A20CCF8000040F27C10C2F20000006872
:10365000322358434DF68363C4F21B33A0FB0303AC
:1036600002EB9340002200BFDCF81410013842F155
:103670000003490501D5002BF6D1DCF81400400504
:1036800044BF0320704709E0B0F5806F06D0DCF836
:103690000000022161F34A20CCF8000000207047AE
:1036A00047F20000C4F20000006800F4C0607047F8
:1036B0002DE9F04381B00446407841F20C07000741
:1036C000C4F202071BD5606C68B1B0F5400F11D091
:1036D000B0F5000F40F02581386840F48030386044
:1036E0004FF4000006E0201D002101F0D5FD8146C9
:1036F00038B9606CF96F21F440010843F8674FF066
:103700000009A078800753D5F86C10F0805808D1D4
:10371000F86C40F08050F864F86C00F08050009035
:10372000009847F20005C4F20005286840F4807054
:103730002860FFF700FB06462868C00507D4FFF79E
:10374000FAFA801B0228F7D94FF0030929E0B9F1F2
:10375000000F26D1D7F8840010F4407017D0E16D27
:10376000884211D0D7F88400D7F8841020F4407034
:1037700041F48031C7F88410D7F8841021F48031E7
:10378000C7F88410C7F88400C00740F0CD80D7F890
:103790008400E16D20F4407008434FF00009C7F841
:1037A0008400B8F1000F03D1F86C20F08050F86469
:1037B0002168C80705D0F86F226A20F00300104383
:1037C000F867880705D5F86F626A20F00C0010438F
:1037D000F867480705D5F86FA26A20F0300010435B
:1037E000F867880605D5F86FE26A20F44060104358
:1037F000F867880505D5F86FE26B20F44020104388
:10380000F867480505D5F86F226C20F44010104386
:10381000F867480605D5F86F226B20F44050104336
:10382000F867080605D5F86F626B20F44040104336
:10383000F867C80505D5F86FA26B20F44030104337
:10384000F867880418D5FA6FA06C22F04062024332
:10385000B0F1806FFA6707D0B0F1006F0CD1386813
:1038600040F48010386007E0201D012101F014FDB4
:103870002168002818BF8146080318D5FA6FE06C4C
:1038800022F040620243B0F1806FFA6707D0B0F1D6
:10389000006F0CD1386840F48010386007E0201DBC
:1038A000012101F0F9FC2168002818BF8146480376
:1038B00018D5FA6F206D22F040620243B0F1806F9C
:1038C000FA6707D0B0F1006F0CD1386840F480106F
:1038D000386007E0201D012101F0DEFC216800288E
:1038E00018BF8146480410D5F86F626D20F0405033
:1038F0001043B2F1805FF86707D1201D022101F06B
:10390000CBFC2168002818BF8146080405D5F86F54
:10391000A16D20F080400843F867484601B0BDE83B
:10392000F0834FF00109ECE6FFF705FA064641F295
:1039300088354FF0030900BFD7F8840080073FF5B2
:1039400026AFFFF7F8F9801BA842F5D929E7000058
:103950002DE9F04381B0002800F0BF8042F200085A
:10396000C4F202080446D8F800000D4600F0070033
:1039700088420DD2D8F8000020F007002843C8F88C
:103980000000D8F8000000F00700A84240F0A58031
:10399000206841F2080910F00201C4F202090DD0BA
:1039A000A268D9F8003003F0F0039A4206D9D9F89A
:1039B000003023F0F0031A43C9F80020C20737D0C3
:1039C000606840B102280BD003280ED159F8081CBA
:1039D00089010ED481E059F8081C890709D47CE0DC
:1039E00059F8081C890304D477E059F8081C4905E4
:1039F00073D5D9F8001021F003010843C9F800007D
:103A0000FFF799F9064641F2883700BFD9F8000060
:103A1000616800F00C00B0EB810F06D0FFF78BF966
:103A2000801BB842F2D9032058E0206800F0020160
:103A300069B1A168D9F8002002F0F002914206D2E3
:103A4000D9F8002022F0F0021143C9F80010D8F88C
:103A5000001001F00701A9420CD9D8F8001021F09C
:103A600007012943C8F80010D8F8001001F0070139
:103A7000A94232D1410707D5D9F80010E26821F4F4
:103A8000E0611143C9F80010000708D5D9F800001B
:103A9000216920F4605040EAC100C9F8000000F03C
:103AA00029F8D9F8001047F69022C1F30311C0F6A7
:103AB0000302515C40F27C1201F01F0120FA01F177
:103AC00040F2C030C2F200000068C2F20002116091
:103AD00001B0BDE8F043FFF749BD012001B0BDE8EA
:103AE000F08341F20000C4F20200016841F40021B9
:103AF0000160704741F20001C4F20201886810F0D1
:103B00000C02C86805D00C2A27D100F00300012858
:103B100023D10868000703D4D1F89400000A01E01B
:103B20000868000947F6A02300F00F00C0F6030361
:103B300053F82030002A184618BF00200C2A18BF5E
:103B40007047C86800F0030002280FD0032804BFA4
:103B500049F28063C0F298030CE0042A1DD0082AC1
:103B600020D149F28060C0F29800704742F20043D1
:103B7000C0F2F403C868CA68C0F30210C2F3062298
:103B8000C96801305A43B2FBF0F0C1F3416102222F
:103B900002EB4101B0FBF1F0704742F20040C0F28D
:103BA000F400704700200023C8E700002DE9F0432F
:103BB00081B0002800F0508241F200060446C4F2B1
:103BC0000206B068F168227800F00C08D00601F017
:103BD00003071BD42078C0074FD0B8F1080F45D099
:103BE000B8F10C0F08BF032F40D06068B0F5803FDC
:103BF00007D0B0F5A02F40F03382306840F4802029
:103C00003060306840F48030306033E2B8F1000F4B
:103C10001CD0B8F10C0F08BF012F17D0A169306874
:103C2000002900F08E8140F001003060FFF783F83A
:103C3000054600BF3068800700F19681FFF77BF8EA
:103C4000401B02284FF00300F4D906E230688007D9
:103C500003D5A069002800F0FF81206A31680907B8
:103C600000F10B81D6F89410090907E13068800350
:103C700003D56068002800F0EF81207880072CD5FC
:103C8000B8F1040F1BD0B8F10C0F08BF022F16D0EB
:103C9000E1683068002900F0FD8140F480703060F8
:103CA000FFF749F8054600BF306840050ED4FFF71E
:103CB00042F8401B02284FF00300F5D9CDE13068EF
:103CC000400503D5E068002800F0C68170682169CE
:103CD00020F0F85040EA016070602078000760D45E
:103CE0002078400774D42078800600F1AB80A06A69
:103CF000002800F00282022840F04881F068E16A62
:103D000000F003028A4240F05781226B6FF00F03EC
:103D100000F0700103EB0212914240F04D81616BA3
:103D200000F4FE42B2EB012F40F04681A16B00F09F
:103D30007842B2EBC16F40F03F81E26B0023CFF6D7
:103D4000E07303EA025200F4C001A2F500129142AE
:103D500040F03281216C4FF07E4202EA016100F0B6
:103D6000C06001F17E41884240F0268130688001C8
:103D700000F1C381306840F080703060F06840F03E
:103D80008070F060FEF7D7FF04463068800100F1D4
:103D9000B481FEF7D0FF001B02284FF00300F4D9D6
:103DA0005BE16169D6F89400002900F0B58040F02D
:103DB0000100C6F89400FEF7BEFF0546D6F8940051
:103DC00080078DD4FEF7B7FF401B0228F6D93CE1EF
:103DD000B06D10F0805908D1B06D40F08050B065E2
:103DE000B06D00F080500090009847F20007C4F2D8
:103DF00000073868C00512D4386840F48070386015
:103E0000FEF799FF054600BF3868C00507D4FEF7E6
:103E100092FF401B02284FF00300F5D91DE1A06876
:103E2000012808D0052840F0F480D6F8900040F032
:103E30000400C6F89000D6F8900040F00100C6F8E3
:103E40009000F4E0616AD6F89800002900F0CD8077
:103E500040F00100C6F89800FEF76DFF054600BF70
:103E6000D6F8980080073FF542AFFEF764FF401B8D
:103E700002284FF00300F3D9EFE0316801F0F001C0
:103E8000884216D901F0B5FA002840F0E580306884
:103E900040F0080030603068D4E9072120F0F000DD
:103EA00008433060706820F47F4040EA0220706070
:103EB00014E03168B8F1000F41F008013160316859
:103EC00021F0F00141EA000131607168E26921F4FA
:103ED0007F4141EA0221716000F0B980FFF70AFEDC
:103EE000B16847F69022C1F30311C0F60302515C9A
:103EF00040F27C1201F01F0120FA01F140F2C030C3
:103F0000C2F200000068C2F200021160FFF72EFB4F
:103F1000002840F0A2805DE620F00100C6F8940081
:103F2000FEF709FF054600BFD6F8940080077FF52D
:103F3000D7AEFEF700FF401B02284FF00300F3D975
:103F40008BE020F001003060FEF7F5FE054600BF73
:103F5000306880077FF53EAEFEF7EDFE401B02287D
:103F60004FF00300F4D978E0306840F0080030608A
:103F70003068D4E9072120F0F00008433060706811
:103F800020F47F4040EA0220706023E6B8F10C0F75
:103F900062D0306820F080703060FEF7CCFE0446BE
:103FA0003068800140F1A280FEF7C5FE001B0228A8
:103FB0004FF00300F4D950E0B8F10C0F4CD030684A
:103FC000400149D4306820F080703060FEF7B3FEC5
:103FD00005463068800140F1A180FEF7ACFE401B31
:103FE00002284FF00300F4D937E020F00100C6F8B2
:103FF0009800FEF7A0FE0546D6F8980080077FF5EA
:1040000076AEFEF798FE401B02284FF00300F3D96E
:1040100023E0D6F89010002821F00101C6F8901096
:10402000D6F8901021F00401C6F8901044D0FEF7A5
:1040300082FE054641F28837D6F8900080074CD4BE
:10404000FEF779FE401BB842F6D9032005E001F0E7
:10405000D0F900283FF442AF012001B0BDE8F08361
:104060003168002821F480313160316821F48021E9
:10407000316044D0FEF75FFE054600BF3068800324
:104080003FF5FBADFEF757FE401B64284FF00300E1
:10409000F4D9E2E720F480703060FEF74CFE05466C
:1040A000306840057FF519AEFEF745FE401B02283B
:1040B0004FF00300F4D9D0E7FEF73DFE054641F28C
:1040C0008837D6F89000800707D5FEF734FE401BEE
:1040D000B8424FF00300F4D9BFE7B9F1000F7FF405
:1040E00002AEB06D20F08050B065FCE5F0684FF690
:1040F000FC71CFF6EE610840F0600020ADE7FEF7FE
:104100001AFE0546306880037FF5B7ADFEF713FE53
:10411000401B64284FF00300F4D99EE7F06848F292
:104120008C01C0F29D1104F12C0700EA010C8ECF26
:104130006FF00F00D4E90F5400EB02100022CFF60D
:10414000E07241EA0C0102EA05520843A2F50012AE
:104150004FF07E4540EA032005EA0465104305F16F
:104160007E4540EAC7602843F060306840F08070C8
:104170003060F06840F08070F060FEF7DCFD0446CF
:1041800030688001B9D4FEF7D6FD001B02284FF03D
:104190000300F5D961E7000070B5044600790128F5
:1041A00004BF022070BD012020716079012813D165
:1041B00002200D466071FEF7BEFD0646206841688C
:1041C000C9070DD1FEF7B7FD801B0328F6D30120E8
:1041D00002216071A16009E00420A060012005E0D7
:1041E0008068E0602860012060710020002121715A
:1041F00070BD0000B0B560B30446407920B900201E
:104200002071204600F02CF80220607120680168BF
:1042100041F0040101604068400618D4FEF78BFDB0
:104220002168496849070DD5054600BFFEF783FDA3
:10423000411B2068032902D3416849070BD4406819
:104240004007F3D4012060710020A060B0BD0420BD
:1042500060710120B0BD042060710220A060F8E709
:1042600010B59AB0044602A804305C21FCF745FC66
:10427000206840F60001C5F20601884215D14FF4CE
:104280008020029002A8FFF713FA08B1FDF734FD71
:1042900041F24C00C4F20200016841F48021016047
:1042A000006800F48020019001981AB010BD01460A
:1042B000006841F21113C26822F00102C260026A72
:1042C0001A4208D1026A40F244431A4203D10268FA
:1042D00022F0010202600122002081F83D20704797
:1042E00040F6F030C2F20000FEF77DBD40F6F0303F
:1042F000C2F20000FEF7A7BD40F64440C2F2000043
:10430000FEF771BD40F64440C2F20000FEF79BBDCF
:10431000806A816B09B100228A63C16B09B10022F6
:104320008A6300F0AEBD806A0268516841F40043C0
:104330001021536000F0D5B810B5846A2168086870
:1043400020F400400860608DA0B1208D626A2431A5
:1043500002446262608DFF2894BF638DFF23E06B8F
:104360002385FEF7F8F9C8B120461021BDE81040BA
:1043700000F0B7B8606B44F65F4344F6C712C0F66E
:104380000203C0F602022024984208BF6024904233
:10439000086808BF60242043086010BD2068616B76
:1043A000036844F65F4444F6C71CC0F60204C0F636
:1043B000020C43F04002A14208BF1346614508BF0A
:1043C0001346036010BD10B5846A2268106820F49B
:1043D00080401060608DA0B1208D616A2832014458
:1043E0006162608DFF2894BF638DFF23A06B2385DE
:1043F000FEF7B1F9C8B120461021BDE8104000F029
:1044000070B8606B44F65F4344F6C711C0F6020310
:10441000C0F602012024984208BF60248842106838
:1044200008BF60242043106010BD2068616B0368E2
:1044300044F65F4444F6C71CC0F60204C0F6020C02
:1044400043F04002A14208BF1346614508BF13462E
:10445000036010BD10B590F84110036801F0280109
:10446000282919D19969D3F818E09A68D3F80CC0B3
:10447000C468C1F30041022C4FEA1E4E12D18EEAED
:10448000D21414F0060F17D01C680CF0FE0224F0B2
:10449000B8041C6000230CE00821D961002180F8D9
:1044A000401010BD1A6822F0B8021A6000230EF006
:1044B000FE0280F8403010E0846C01348464846C27
:1044C000022C18BF10BD4FF0000C08246FF39F2280
:1044D000C0F848C0DC6180F840C0BDE81040FEF77D
:1044E00081BC10B5002304460022CFF6FF7390F87C
:1044F000410084F84220E3626285626C114361648A
:10450000A0F1280194F84100022918D800F02800F1
:10451000F222282894F8410008BF4222216800F0C6
:104520002800B423282808BF042308681A439043AE
:10453000086044F66B50C0F6020028220DE094F8A3
:1045400041002168086820F0FE00086094F84100EE
:1045500060284FF0000002D0202284F841206063E0
:10456000226BA06BE0B1212A01D0112A18D10A6870
:10457000520403D50A6822F480420A60FEF73AF832
:1045800001281ED0A06B44F21131C0F602018163F4
:10459000002184F84010FEF702F840B3A06B22E03F
:1045A000E06B70B1222A01D0122A0AD10A681204E3
:1045B00003D50A6822F400420A60FEF71BF80128BE
:1045C00004D12046BDE8104000F05BBCE06B44F233
:1045D0001131C0F602018163002184F84010FDF71B
:1045E000DEFF20B1E06B816BBDE81040084710BDD5
:1045F0000022CFF6FF72C262002220234907026325
:1046000080F8413080F84220426311D50168436A46
:10461000496A1970436A018D0133436241B101391E
:104620000185418D01394185416C41F004014164AE
:1046300090F8411090F8411001680B6823F0FE03D8
:104640000B601023CB6180F84020FEF7E4BC80B5FE
:1046500081B002682023D36190F8413090F841C0C6
:10466000212B0BD10CF0280C6FF0F20EBCF1280FAF
:1046700008BF6FF0420E4FF0110C0FE0BCF1220F9B
:1046800012D190F841306FF0F40E03F0280CBCF119
:10469000280F4FF0120C08BF6FF0440E136803EAA6
:1046A0000E031360C0F830C0D2F804C04EF6000309
:1046B000CFF6006303EA0C035360002340F2000CC2
:1046C0004363CFF6FF7CCB06C0F82CC005D5102382
:1046D000D361436C43F00403436490F841304907CD
:1046E00005D5602B03D1516AC9B200910099916937
:1046F000890744BF002191629169C90703D191697B
:1047000041F001019161416C90F84120602A16D07E
:10471000A9B990F84110212917D1202180F8411022
:104720000021016390F8422080F84210402A80F86E
:10473000401022D101B0BDE88040FEF70ABE416CB6
:1047400001B0BDE88040FFF7CCBE90F841102229AF
:104750001CBF01B080BD202180F841100021016301
:1047600090F8422080F84210402A80F8401009D189
:1047700001B0BDE88040FEF7EBBD01B0BDE8804070
:10478000FEF76EBC01B0BDE88040FEF745BC4FF0BF
:10479000000C80F842C090F841202023212A80F8A4
:1047A000413015D111220263C0F834C090F8412085
:1047B000016802F02802282A0A686FF0F20308BF95
:1047C0006FF042031A400A6080F840C0FEF748BC10
:1047D00012210163C0F834C090F84110036801F061
:1047E0002801282919686FF0F40208BF6FF044020D
:1047F0001140196080F840C0FEF70EBC70B5044649
:1048000000680E46016894F84120202302F0F70268
:10481000212AC36105D0222A0BD122226FF0FC038A
:1048200001E06FF0FA0394F8415005682B400360F3
:10483000226342684EF6000342F40042426042683E
:10484000CFF600631A4042608269920744BF00229B
:1048500082628269D20703D1826942F001028261D9
:104860004A0407D409040ED5016821F4004101600F
:10487000E16B04E0016821F480410160A16B11B19A
:1048800009684968618571070ED5406A616A26F03A
:1048900004060870606A411C208D616220B10138F5
:1048A0002085608D01386085608D18B1606C40F0A6
:1048B00004006064002084F842006063606C70B1A2
:1048C000616C2046FFF70DFE94F84100282818BFC0
:1048D00070BD20463146BDE87040FFF789BEE06AF2
:1048E00010F5803F0FD194F84100202184F8411049
:1048F000002122282046216384F8401016D1BDE80B
:104900007040FEF723BE00252046CFF6FF7500F06D
:1049100011F820200021E56284F84100216320463F
:1049200084F84010BDE87040FEF775BBBDE87040EC
:10493000FEF70DBE01684FF0000C0A6880F842C017
:10494000530404D4120407D56FF4004201E06FF45D
:1049500080420B681A400A6090F84120292A16D13B
:10496000282280F841202122026390F841206FF034
:10497000F20302F02802282A0A6808BF6FF04203F7
:104980001A400A60002180F84010FEF7E0BD90F860
:1049900041202A2A18BF7047282280F8412022226D
:1049A000026390F841206FF0F40302F02802282AF5
:1049B0000A6808BF6FF044031A400A60002180F8BB
:1049C0004010FEF7C3BD10B5044690F84000012822
:1049D00004BF022010BD02EA01004FF0010CC30623
:1049E00084F840C01AD40B063FD512F040023CD0E8
:1049F0002068016821F040010160628D4168002A51
:104A00004AD0628D6FF39F21B2F5807F4FD34FF074
:104A1000FF0EA4F828E04FF0807C55E020681022BB
:104A2000616BC261626C44F65F4342F0040244F67B
:104A3000C71CC0F602036264C0F6020C2022994231
:104A400008BF60226145016808BF60221143016010
:104A50008169890744BF002181628169C9074FD1FB
:104A6000816941F0010181614AE0420605D4800676
:104A700046D52046FFF7EBFD42E0608D90B92068F7
:104A8000416889013CD4E16A11F5803F06D1416853
:104A900041F48041416033E0880103D42046FFF7B0
:104AA00076FE2DE020464021FFF71BFD28E0B4F8FC
:104AB0002AE0A4F828E0E36A13F5803F1ABFE36A0E
:104AC00023F0004C4FF0007C5FFA8EF341EA034183
:104AD000436849F60042CFF600421A4042EA0C020F
:104AE00011434160618DA1EB0E01618594F8412075
:104AF0000168222A14BF41F4804141F40041016061
:104B0000002084F8400010BD70B5044690F84000C5
:104B1000012804BF022070BD0D4602EA05001646BA
:104B20000121C20684F8401015D4410727D481071B
:104B30002FD4290645D516F0400142D0608D10B122
:104B4000208D002846D02068406880013DD4204652
:104B5000FFF71DFE29E020681021C161616C41F062
:104B6000040161648169890744BF00218162816910
:104B7000C9071AD1816941F00101816115E02068FE
:104B8000616A406A25F004050870606A218D013071
:104B900005E0606A216810F8012B8A62218D60624D
:104BA000481E2085608D0138608506EA0500800674
:104BB00003D520462946FFF74AFD002084F840002F
:104BC00070BD4006F1D5608DD0B120464021FFF781
:104BD00088FCEAE720684168628D6FF39F21B2F597
:104BE000807F19D3FF222285426849F60043CFF621
:104BF00000431A40114441F0807141F47F012CE0E0
:104C0000206841688901D0D4E16A11F5803F9ED1C6
:104C1000416841F4804120E0628D2285E36A13F50A
:104C2000803F0CD1D2B241EA0241426849F60043CA
:104C3000CFF600431A40114401F100710DE0E36A20
:104C4000D2B241EA024123F000421143426849F6E0
:104C50000043CFF600431A4011434160A5E72DE918
:104C6000F0410446D0F82C8090F84000012804BFA1
:104C70000220BDE8F08102EA010716460D46012038
:104C8000B90684F8400003D520462946FFF7B6FD53
:104C9000F80605D4380763D52046FFF7DBFB5FE055
:104CA00016F4404F0ED0300406F480400ED5E16B70
:104CB00061B10968496860B3A06B50B3B1FA81F182
:104CC000490907E020681021C16149E030B1A06BBB
:104CD00020B1002100684068E8B1E1B920681021E6
:104CE000C161606C6FF0807140F00400606494F802
:104CF000410018EA010F33D100F0F700212802D05B
:104D0000222801D122202063616C2046FFF7E9FBB5
:104D100026E00029E2D194F84100282808BFB8F124
:104D2000007F19D094F84110206810222929C2610F
:104D300016D118F5803F13D08169890744BF00213F
:104D400081628169C90703D1816941F001018161F3
:104D50002046FFF7EFFD03E020462946FFF748FC19
:104D6000002084F84000BDE8F081F0B581B0044631
:104D7000C66A90F84000012801D102207AE002EAD8
:104D800001070D460120B90684F8400003D52046EE
:104D90002946FFF733FDF80615D4780725D43807E0
:104DA0005DD4B80763D5608D002865D0606A21683E
:104DB00010F8012B8A626062608D01386085208D59
:104DC0000138208553E0608D48B320681021C1610F
:104DD000606C6FF080710E4240F00400606446D158
:104DE000616C2046FFF77DFB41E0608D60B120687B
:104DF000616A406A0870606A218D01306062481EF5
:104E00002085608D01386085608D80BB0020CFF6E5
:104E1000FF7086422BD02046FFF78CFD27E094F8E8
:104E20004100282808BFB6F1007F1CD094F841103B
:104E3000206810222929C26119D10021CFF6FF7103
:104E40008E4214D08169890744BF00218162816943
:104E5000C907E0D1816941F001018161DBE72046AA
:104E6000FFF7F8FA03E020462946FFF7C1FB0020D0
:104E700084F8400001B0F0BD6FF080700642F6D1BA
:104E8000C9E790F84110602908D1202180F841102D
:104E90000021016380F84010FDF7A3BF00210163EA
:104EA00080F84010FDF7D6BF2DE9F04381B0814670
:104EB0000068154682690E461140891BB1FA81F1DE
:104EC0004909A94216D1DDF820801F465C1C00BFAD
:104ED00044B1FDF730FF7FB1A0EB0800B8420BD81A
:104EE000D9F8000081693140891BB1FA81F1490983
:104EF000A942EDD000200EE0D9F8440040F0200097
:104F0000C9F84400202089F84100002089F84200B7
:104F100089F84000012001B0BDE8F08300B170477E
:104F200040F21C60C2F20000006803220168808821
:104F3000D1F800C090FAA0F3B3FA83F35B009A4073
:104F40002CEA020C01229A4042EA0C020A604A68EA
:104F500022EA00004860704710B540F66C2046F227
:104F60000041C2F20000C4F2000140F20014042229
:104F70000023C0F2010480E80E0000F10C014FF4A0
:104F8000802C4FF4401E81E8085084618383FDF734
:104F90008DF918B1BDE81040FCF7AEBE10BD80B56C
:104FA00082B041F24800C4F202000168002241F0E0
:104FB00001010160016801F001010191019901689D
:104FC00041F0020101600068002100F00200009041
:104FD00000980E20FEF7E6FA0E20FEF7D1FA0F2019
:104FE00000210022FEF7DEFA0F20FEF7C9FA10209A
:104FF00000210022FEF7D6FA1020FEF7C1FA112098
:1050000000210022FEF7CEFA1120FEF7B9FA442063
:1050100000210022FEF7C6FA4420FEF7B1FA45202F
:1050200000210022FEF7BEFA452002B0BDE8804014
:10503000FEF7A6BA2DE9F04F87B0002741F24C00E9
:10504000CDE90577C4F20200016840F2004B41F05F
:10505000040101600168C4F6000B01F00401019134
:10506000019901680BF5806541F00201016001685A
:10507000002201F002010191019901684FF44C5A9C
:1050800041F001010160016801F001010191019904
:10509000016841F080010160016801F08001019127
:1050A0000199016841F00801016000684FF44C511A
:1050B00000F00800019001982846FDF736FE4FF0F9
:1050C00090404FF4F87100224FF4F879FDF72DFE6F
:1050D000584640F60301002240F60308FDF725FE7E
:1050E0004CF6FE0002AE0290032428463146CDE97C
:1050F0000347FDF737FDCDF808A04FF0010A284619
:105100003146CDE903A70597FDF72CFD49F23C0098
:1051100002A991C158463146FDF724FD49F203002A
:1051200002A991C14FF090403146FDF71BFD0A20C6
:1051300002A991C10BF5C0503146FDF713FD0420C3
:1051400002A991C10BF500603146FDF70BFD4FF44C
:10515000806002904FF48810CDE90307284631465D
:10516000FDF700FD4FF090403146CDE9029ACDE9C0
:105170000477FDF7F7FC58463146CDE9028ACDE9C0
:105180000477FDF7EFFC4FF40050CDE902075846D5
:1051900031460497FDF7E6FC07B000F000B830BCDC
:1051A000BDE8C08F80B540F6F03045F20041C2F254
:1051B0000000C4F2000149F6EB32C0F29002002375
:1051C0004FF0010C80E80E104FF40031C0E90433B9
:1051D000C0E906330162FDF73EFE08B1FCF78CFD25
:1051E00040F6F030C2F200000021FDF7B1FD08B139
:1051F000FCF782FD40F6F030C2F200000021FDF71E
:10520000CCFD18B1BDE88040FCF776BD80BD10B57F
:1052100040F6444445F6000049F6EB31C2F2000482
:10522000C4F20000C0F290010022012384E80F00C4
:1052300004F110001421FBF760FC2046FDF70BFE83
:1052400008B1FCF759FD40F64440C2F200000021CD
:10525000FDF77EFD08B1FCF74FFD40F64440C2F279
:1052600000000021FDF799FD18B1BDE81040FCF7E2
:1052700043BD10BD80B540F6984040F60001C2F233
:105280000000C5F206010160FEF7B4FF18B1BDE8E9
:105290008040FCF731BD80BDF0B581B041F2000720
:1052A000C4F20207FA680D469107044613D0F86865
:1052B000216800F0030088424FF0010040F0978021
:1052C000002900F09480F8686168C0F30210013092
:1052D00088422FD130E0206803280BD0022814D058
:1052E000012827D13968012211F0020182EA510117
:1052F00014D11EE0396889030FD43968012211F4F2
:10530000802182EA914109D113E03968012211F428
:10531000806182EA912101D10BE00021FA68636883
:105320006FF00F0622F0730206EB03131A431043CB
:10533000F86009B101205AE0386820F080603860D8
:10534000FDF7F9FC064600BF3868000105D5FDF7FA
:10535000F2FC801B0228F7D942E0012D0DD0F5B9EF
:10536000386948F2FF01C0F2FF710840D4E9021227
:1053700040EA012040EAC26022E048F2FF013869B9
:10538000CFF6FF112269002301F1B461CFF6E0737B
:105390000840A16803EA0252A2F500120DE0386944
:1053A00048F2FF016269CFF6FF114FF07E430840DB
:1053B000A16803EA026202F17E4240EA0120104342
:1053C0003861386840F080603860FDF7B4FC05460D
:1053D0003868000106D4FDF7AEFC401B0228F7D95F
:1053E000032004E0A069396908433861002001B056
:1053F000F0BDB0B582B041F25805C4F2020529688B
:105400000446C9000FD4286840F0805028602868FE
:1054100000F0805001900198FEF742F9296821F0D0
:105420008051296001E0FEF73BF9B0F5007F06D11D
:10543000812C08D30120A02C88BF02200DE0802CF5
:1054400003D9032009E0002007E0A4F17000B0FABE
:1054500080F04009802C08BF022042F20001C4F213
:1054600002010A6822F0070202440A60096801F09A
:105470000701081A18BF012002B0B0BD2DE9F04F96
:1054800083B0109EDDE90EBA1C4615464F00FFF7AB
:1054900045FD002000F0C1F9F9B2002000F010F93C
:1054A000C5F30721002000F00BF9E9B2002000F05D
:1054B00007F9002000F0B1F9781CC1B2002000F01B
:1054C000FFF840F2D055012CC2F2000511D10020A6
:1054D000002100F07BF895F800906C78AF7895F893
:1054E00003800020012100F071F8287840EA0920AB
:1054F0004EE0A4F101000090ACB3DDE90F10009C78
:1055000001EB40070E9901EB40080D9901EB4009B2
:105510000C9901EB400A00BF0020002100F056F872
:10552000A87895F800B00190E8786E780290002095
:10553000002100F04BF82878697840EA0B20AA781F
:10554000EB782AF8020B41EA062029F8020B0198B1
:10555000013C42EA002028F8020B029843EA0020AE
:1055600027F8020BD8D10020002100F02FF82E7868
:105570006C78AF7895F803800020012100F026F8C0
:105580002878009940EA0620109EDDE90EBA0E4404
:105590006978AA78EB780C9D25F8160041EA04207A
:1055A0000D9921F8160042EA07202BF8160043EA6D
:1055B00008202AF81600002000F057F9012003B057
:1055C00000F000B830BCBDE8C08F0000F0B581B07D
:1055D0000C4600F0AAFD40F21C65C2F200052968E5
:1055E000002208688988FDF7A0FB40F2D057082602
:1055F000C2F20007012001F0CFFD38787978BA783F
:105600004000FB783870480078705000B87058003F
:105610002968F870086889880122FDF786FB012057
:1056200001F0BAFD2968C868098AFDF771FB39786D
:105630002A6841EA00039069918B3B70FDF768FB93
:1056400079782A6841EA0003506A118D7B70FDF772
:105650005FFBB9782A6841EA0003106B918EBB703A
:10566000FDF756FBF9780843F870012001F094FD2E
:105670002968002208688988FDF757FB013E30063B
:10568000B8D100F0EBFB012C02D100F0EBFC01E003
:1056900000F007FD012001F07FFD29680122086864
:1056A0008988FDF742FB012001F076FD2968002280
:1056B0000868898801B0BDE8F040FDF736BB0000FE
:1056C00070B50C4600F0CAFB40F21C650826C2F219
:1056D000000500BF2968002208688988FDF725FBBE
:1056E00060B2B0F1FF3F03DD00F0DBFC02E000BF81
:1056F00000F0B8FC012001F04FFD29680122086884
:105700008988FDF712FB012001F046FD012001F020
:1057100043FD012001F040FD2968002208688988C6
:10572000FDF703FB013E300604D0012001F034FDFB
:105730006400CFE700F0F9FC00F0B3FC012001F0B9
:105740002BFD00F0F2FC2968002208688988FDF72B
:10575000ECFA012001F020FD2968012208688988FF
:10576000FDF7E3FA012001F017FD2968002208681F
:105770008988FDF7DAFA00F071FB002070BD0000A7
:105780002DE9F04385B047F68C2640F2D459044603
:105790004FF00008C0F60306C2F20009002500BF62
:1057A000D9F8000016F8011B284400F1600200F14E
:1057B000C00300F590778DE88D0020460B220C2366
:1057C000CDF81080FFF75AFE1835602DE8D105B0EE
:1057D000BDE8F083B0B582B0ADF8061070B1012815
:1057E00019D100240DF1060501202146B0222B46D7
:1057F000FBF76CFF0134042CF6D10CE000240DF112
:10580000060500BF00202146B0222B46FBF75EFFB5
:105810000134042CF6D102B0B0BD10B500F085FC07
:10582000012001F0B9FC40F21C64C2F200042168BE
:10583000012208688988FDF778FA012001F0ACFCA4
:10584000012001F0A9FC00F009FB00F02AFC012076
:1058500001F0A2FC2168002208688988FDF765FA3A
:105860000120BDE8104001F097BC80B500F0F6FAC9
:1058700000F017FC012001F08FFC40F21C60C2F226
:1058800000000168012208688988FDF74EFA0120AE
:1058900001F082FC00F049FC0120BDE8804001F0ED
:1058A0007BBC000010B596B005A808301C21FBF7A2
:1058B00024F94FF40070FDF7B1FE20B1EFF3108032
:1058C00072B600BFFEE7212005904FF4A02006909D
:1058D000012010210E9002200324129107210F9025
:1058E000CDE91040CDE91310159005A8FEF75EF93B
:1058F00018B1EFF3108072B6FEE70F20CDE9000477
:105900000020CDE90200049068460221FEF720F84D
:1059100018B1EFF3108072B6FEE7FEF7E2F816B0AA
:1059200010BD4EF68850CEF20000016841F47001BF
:105930000160704740F6A840C2F2000001680869A3
:10594000C0071ABFC8685FEAC07070476FF00102F5
:1059500005200A6102F039BB2DE9F04140F28018C0
:105960000446C2F200084FF0FF300129A8F80000F9
:1059700004D120464FF40851FFF72CFF20464FF684
:10598000FF76FFF7FDFE40F2D45040F2CC51C2F258
:105990000000C2F2000100680968B8F80020002386
:1059A0004FF0010C0025002730F8174021F8174070
:1059B00030F817400137B44208BF01350C2FF3D13E
:1059C0000C2D02BF0CFA03F7BA43A8F800200133EC
:1059D000102B01F1180100F1180008BFBDE8F0819B
:1059E000E0E7000070B51C4615464E00FFF796FA3A
:1059F0000020FFF712FFF1B20020FFF761FEC5F3B0
:105A000007210020FFF75CFEE9B20020FFF758FEF7
:105A100084B1DDE9041001EB400500BF35F8026BED
:105A20000020310AFFF74CFEF1B20020FFF748FEDC
:105A3000013CF3D10020FFF718FF012070BD0000EA
:105A40002DE9F041904640F21C62C2F20002126859
:105A50000546106892881C4692FAA2F6B6FA86F6B7
:105A6000036876000327B740BB430127B7403B4399
:105A7000036043684E0023EA02014160284600F0BB
:105A800054F9F1B2284600F07DF9C8F30721284601
:105A900000F078F95FFA88F1284600F073F97CB1DC
:105AA000DDE9061001EB400636F8027B2846390A8C
:105AB00000F068F9F9B2284600F064F9013CF3D12E
:105AC000284600F012F90120BDE8F08180B502F00F
:105AD000B5FF40F21C61C2F20001086080BD80B5D4
