:020000040802F0
:1000000060CE00205D04020865040208670402084F
:10001000690402086B0402086D0402080000000075
:1000200000000000000000000000000015030208AE
:100030007104020800000000CD0302083104020828
:10004000770402087704020877040208770402089C
:10005000770402087704020877040208770402088C
:10006000770402087704020877040208770402087C
:100070007704020877040208891202089512020820
:10008000A1120208AD12020877040208E511020865
:10009000D9110208770402087704020877040208DD
:1000A000770402087704020877040208770402083C
:1000B000770402087704020800000000077A0208AB
:1000C000FB7902081F7A0208137A020813910208CA
:1000D000770402087704020877040208770402080C
:1000E0007704020877040208000000000000000006
:1000F0000000000000000000000000000000000000
:1001000000000000770402080000000077040208E5
:1001100077040208000000007704020800000000D5
:10012000770402087704020877040208B91202086B
:100130007704020877040208770402080000000030
:1001400077040208770402087704020853B2020811
:10015000770402087704020877040208770402088B
:100160007704020877040208770402080000000000
:1001700000000000770402080000000000000000FA
:10018000770402087704020877040208770402085B
:100190007704020800F002F800F078F80AA090E86E
:1001A000000C82448344AAF10107DA4501D100F032
:1001B0006DF8AFF2090EBAE80F0013F0010F18BF87
:1001C000FB1A43F001031847048E0100248E01003E
:1001D0000A444FF0000C10F8013B13F0070408BF6D
:1001E00010F8014B1D1108BF10F8015B641E05D00B
:1001F00010F8016B641E01F8016BF9D113F0080FC0
:100200001EBF10F8014BAD1C0C1B09D16D1E58BF51
:1002100001F801CBFAD505E014F8016B01F8016B88
:100220006D1EF9D59142D6D37047000000230024FB
:1002300000250026103A28BF78C1FBD8520728BFF6
:1002400030C148BF0B607047782900F0248200203D
:1002500070471FB517F0FEFE9DE8030000F0E2FCBA
:1002600000F08EFE04000020002117F017FC401C57
:10027000606000200021AFF30080E06000F098FC97
:100280001FBD10B5002000F0B2FE10BD00F010FF41
:100290001146FFF7DEFF13F0DBFC00F02EFF03B486
:1002A000FFF7EFFF03BC00F065FE000080F3098854
:1002B0007047EFF309807047684680F30988044867
:1002C0000078C00714BF0220032080F31488704711
:1002D00020010020DFF818C0EFF305831B0618BFCC
:1002E0006047EFF31483DB0708BF604700DF704708
:1002F000F95C0308DFF818C0EFF305831B0618BF8D
:100300006047EFF31483DB0708BF604700DF7047E7
:10031000715D0308EFF30980816911F8021CE1BBEC
:1003200090E80F1010B5E047BDE81040EFF3098CDE
:100330008CE80700214B93E80600914208BF704704
:1003400041B91EF0100F16D11D49086820F00100B8
:10035000086010E01EF0100F06BF2CED108A01207F
:10036000002081F838002CE9F00FC1F83CC00CB433
:1003700017F07EF80CBC1A60D2F83CC0BCE8F00F55
:1003800092F8380000280EBF6FF0020E6FF0120EC8
:1003900000F058B88CF30988704710B5094A126804
:1003A000914209D8084C54F8214090E80F10A0471A
:1003B000EFF3098C8CE80F0010BD000078000020DE
:1003C00034EF00E0AC3E0308AC3E030810B516F075
:1003D00049FFBDE81040154B93E80600914208BF65
:1003E0007047EFF3098C1EF0100F06BF2CED108A3A
:1003F0000120002081F838002CE9F00FC1F83CC042
:100400000CB417F035F80CBC1A60D2F83CC0BCE84C
:10041000F00F92F8380000280EBF6FF0020E6FF058
:10042000120E00F015B88CF3098870477800002090
:1004300010B517F041F8CCE710B514F0D5FC17F063
:100440003BF8C6E7BCEC088ABCEC08CAFFF7A2BFC1
:10045000BCEC088ABCEC08CAFFF7E5BF0948804736
:1004600009480047FEE7FEE7FEE7FEE7FEE7FEE796
:10047000FEE7FEE7FEE7FEE704480549054A064BAE
:1004800070470000479A020895010208602E00207C
:1004900060CE002060AE002060AE002000487047B3
:1004A0000405002070B5A0FB0140B4F1805170F14B
:1004B000000024BF002070BD204600F0E2FB0500D4
:1004C0001CBF214600F027FB284670BD70B50446CE
:1004D000051F00F087FB0068002C14BF446870BD46
:1004E000002C18BFAC423CBF20466468F8D30168BA
:1004F0000A18AA4218BF456003D12A68054611446C
:10050000016028684119A1421CBF6C6070BD616820
:10051000696021680844286070BD53EA020C00F04D
:1005200069802DE9F04B4FF00006002B1FBFB3FA96
:1005300083F503FA05F424FA05F65E4012BF16436C
:10054000B2FA82F502FA05F4C5F120051EBF22FABF
:1005500005FC44EA0C04203556EA044C4FEA1444E6
:1005600018BF641C4FF000084FF00009904271EB77
:10057000030C39D3002919BFB1FA81F701FA07F644
:10058000B0FA80F700FA07F6C7F120071EBF20FA7D
:1005900007FC46EA0C062037B6FBF4FCA7EB050780
:1005A000103F07F01F0BCBF120062CFA06F60CFAD1
:1005B0000BFB44BFB3460026202FA4BF5E464FF07E
:1005C000000B5BEA060C08BF4FF0010B19EB0B099F
:1005D00048EB0608ABFB027C06FB02CC0BFB03CC12
:1005E000C01B71EB0C01C1E70B4602464146484671
:1005F000BDE8F08B13B54FF000004FF00001AFF3F2
:100600000080BDE81C4070470FB47CB50C0009AAFF
:10061000009001D02044401E084B7B446946019065
:10062000089800F0BCFB05461CB10020694600F0AC
:10063000C9FB28467CBC5DF814FB0000B107000034
:10064000F0B40D460188090502D5214C7C4402E036
:100650001F4C7C440E34002100F1240608E002F017
:100660000F071209E75D42EA03721B097754491C20
:1006700052EA0307F3D102780023120704D5702D44
:1006800006D009B1022311342246F0BC00F028BB89
:1006900001231034F8E770B504460D462146106872
:1006A000AFF30080024629462046BDE87040002393
:1006B000C6E7D21D22F00703D3E90023C0E7036891
:1006C000126843F0200303600823C3610023B7E7E7
:1006D0002C7F01002DE9F05F894604464FF0000AA7
:1006E000DFF874B1FB44C0F820A02046E1688847D9
:1006F000002874D0252806D0D4E901219047206A2B
:10070000401C2062F1E700265F462046E1688847EA
:100710002028054607DB312D05D2781910F8200C6A
:1007200008B10643F1E7B00701D526F00406C4F886
:100730001CA00027C4F818A02A2D09D0284613F0C1
:10074000DBFB38B304EB8708303DC8F8185019E0DC
:1007500059F8041B204604EB87029161E168884741
:10076000012F054618D1E069002820DA26F020067E
:100770001DE0D8F8180000EB800005EB4000303891
:10078000C8F818002046E1688847054613F0B4FB16
:100790000028EED1012F0AD02E2D08D12046E16885
:1007A00088477F1C0546022F46F02006C4DBA0695F
:1007B000002803DA404246F00106A061F00701D0AC
:1007C00026F010066C2D0BD0682D09D04C2D39D099
:1007D0006A2D35D0742D35D07A2D33D016E038E01F
:1007E000E1682F4620468847B842054609D16C2F5C
:1007F00026D04FF48060E1680643204688470546CE
:1008000004E06C2F1AD04FF4807006430DB3A5F1AD
:100810004100192802D8203546F400664A46294688
:10082000204626604E46FFF70FFD80B101280BD011
:10083000F61D26F0070000F1080956E74020E4E71E
:100840008020D8E70020D6E706F104094DE72846C6
:1008500052E7206A00F002B8BC7E010030BCBDE85F
:10086000C09F2DE9F04791460F468046044600267A
:1008700014F8015B2DB100F0ADF90068405DC007D0
:10088000F6D12B2D02D02D2D18D0641E4A463946A4
:10089000204600F0A4FA27B13968A14201D1C7F877
:1008A00000804FF0020471050BD54042002803DDA3
:1008B00000F09CF90460A007BDE8F08746F480666C
:1008C000E4E70028F8DA00F091F904606FF00040E6
:1008D000F2E70B460146184600F0DEBA10B5431C9D
:1008E00002E010F8011B71B18107FAD14FF001321B
:1008F00002C88C1A8C4314EAC211F9D0C01A0A0635
:1009000003D0C01E10BDC01A10BD0A0401D0801E45
:1009100010BD0902FCD0401E10BD032A40F23080F9
:1009200010F0030C00F0158011F8013BBCF1020F30
:10093000624498BF11F801CB00F8013B38BF11F8B1
:10094000013BA2F1040298BF00F801CB38BF00F8C8
:10095000013B11F0030300F06780083AC0F0088003
:1009600051F8043B083A51F804CBA0E80810F5E729
:10097000121D5CBF51F8043B40F8043BAFF300800C
:10098000D20724BF11F8013B11F801CB48BF11F881
:10099000012B24BF00F8013B00F801CB48BF00F851
:1009A000012B7047431A28BF9A427FF6B6AF104416
:1009B0001144032A40F2268010F0030F1EBF11F8E5
:1009C000013D521E00F8013D10F0030F7FF4F6AF19
:1009D00011F0030300F06D80083AC0F00B8051F86D
:1009E000043D083A51F804CD40F8043D40F804CDE8
:1009F000FFF7F3BF121D5CBF51F8043D40F8043D02
:100A0000AFF30080D20724BF11F8013D11F801CDEA
:100A100048BF11F8012C24BF00F8013D00F801CDBA
:100A200048BF00F8012C704710B5203AC0F00B8089
:100A3000B1E81850A0E81850B1E81850A0E81850D4
:100A4000203ABFF4F5AF5FEA027C24BFB1E818504A
:100A5000A0E8185044BF18C918C0BDE810405FEAAC
:100A6000827C24BF51F8043B40F8043B08BF704728
:100A7000D20728BF31F8023B48BF11F8012B28BF2D
:100A800020F8023B48BF00F8012B7047431A28BFEB
:100A90009A427FF6C9AF1044114410F0030F1EBFF5
:100AA00011F8013D521E00F8013D10F0030F7FF4D4
:100AB000F6AF103AC0F00A8010B531E9185020E9BD
:100AC0001850103ABFF4F9AFBDE81040530724BFE7
:100AD00031E9081020E9081044BF51F8043D40F8FE
:100AE000043D12F0030F08BF7047D20728BF31F84A
:100AF000023D48BF11F8012C28BF20F8023D48BF35
:100B000000F8012C704702F0FF0343EA032242EA97
:100B1000024200F002B84FF000020429C0F0128037
:100B200010F0030C00F01B80CCF1040CBCF1020FA0
:100B300018BF00F8012BA8BF20F8022BA1EB0C0175
:100B400000F00DB85FEAC17C24BF00F8012B00F86B
:100B5000012B48BF00F8012B70474FF0000200B591
:100B6000134694469646203922BFA0E80C50A0E8D0
:100B70000C50B1F12001BFF4F7AF090728BFA0E87E
:100B80000C5048BF0CC05DF804EB890028BF40F84A
:100B9000042B08BF704748BF20F8022B11F0804F8C
:100BA00018BF00F8012B704770477047704700006E
:100BB00070B5064C7C44064D7D4403E0206820441B
:100BC0008047241DAC42F9D170BD0000448501006E
:100BD0005885010010B500F0D3F9001D10BD00BF0D
:100BE000BD6E0100004870470C05002000487047AA
:100BF00004050020704770477047704738B50446B9
:100C00000A4600206946AFF30080002808BF38BDBF
:100C100002460099204600F0C2F9012038BD0120AB
:100C200000F00DBAF8B5AFF30080054600200C4681
:100C3000102000BF0646A819A0420DD932466946C9
:100C40000020AFF30080070008BF00F0F8F900981B
:100C5000A04218BF0546C419FFF7C4FF0560074648
:100C6000F01D20F007004619284600F091F9B44223
:100C700008BFF8BDA21B31463868BDE8F84000F057
:100C80008EB970B50646FFF7ADFF056806F10B009B
:100C900020F00704B4429CBF002070BD2B466A6858
:100CA000BAB11068A04210D304F1080188423CBFD9
:100CB0005068586007D35168101941601168091BCA
:100CC000016058601460101D70BD13465268002A00
:100CD000E7D121462846FFF791FF0028DED170BDFD
:100CE0002DE9F0470D4699469246044600F1240846
:100CF0000168880604D5E06921F01001216000E058
:100D00000120A84201DD471B00E00027A1697A19F4
:100D100002EB0900081AA0612078C00602D4204620
:100D2000AFF30080002608E0D4E901211AF806009C
:100D30009047206A401C761C20624E45F4DB2078E8
:100D4000C0060AD52046AFF3008006E0D4E90121B1
:100D500030209047206A401C2062381EA7F101070E
:100D6000F4DC07E0D4E9012118F805009047206A77
:100D7000401C2062281EA5F10105F3DC2046AFF3DC
:100D800000802078000602D50220BDE8F08701200F
:100D9000FBE7000001694A1C02610878704700B552
:100DA0008FB0CDE901310021059105497944CDE9A4
:100DB000031011466846FFF78DFC0FB000BD000020
:100DC000E5FFFFFF0A6802F8010B0A607047D1E9EE
:100DD00000239A4202D2531C0B60107070472DE919
:100DE000F05F824615468B4600270AF10104B9469A
:100DF0000078302801D09DB113E014F8010B0127D1
:100E0000782803D0582801D045B10AE00DB1102D43
:100E100007D1002714F8010B102502E0082500E097
:100E20000A250026B0460EE005FB080005FB06F18A
:100E300001271FFA80F801EB1046B6F5803F00D37A
:100E4000B94614F8010B294600F0C3F80028EBDA84
:100E5000BBF1000F05D00FB1641E00E05446CBF883
:100E60000040B9F1000F06D0FFF7C0FE022101607B
:100E7000C81E00F003B848EA0640FAE730BCBDE8F7
:100E8000C09F10B5002000F0D3F8FFF7FAF9BDE8D5
:100E90001040012000F06EB82DE9F04107461546DC
:100EA0000E461020FFF7EDFE04000AD06760C4E98B
:100EB000026500F069F80168216004600020BDE867
:100EC000F0810120FBE7000030B44FF0013C50F806
:100ED000042B51F8043BCCFA52F4D51A20D1FCB9BA
:100EE00050F8042B51F8043BCCFA52F4D51A17D120
:100EF000B4B950F8042B51F8043BCCFA52F4D51A8B
:100F00000ED16CB950F8042B51F8043BCCFA52F4D2
:100F1000D51A05D1002CDAD030BC4FF00000704754
:100F200029BAB1FA81F111F01801D1F12000844001
:100F3000F2D1CA40CB4012F0FF0213F0FF0330BCE5
:100F4000D01A704780E8FF1FC0F834D0C0F838E0EE
:100F5000C0F83CE04FF00000704700BF80EC200B71
:100F6000704700BF80EC200B704700BFC0EC200B27
:100F70007047000001491820ABBEFEE726000200C2
:100F80000048704724050020004870473C050020B9
:100F900000210160C0E9011070471020704703462E
:100FA00040688C46002818BF88423CBF0346406812
:100FB000F8D318681844884207D00CF1030020F0D9
:100FC0000700001D411A521A0146081D0A60FFF76A
:100FD0007DBA3A2800D2303820F02002412A01D3CD
:100FE000A2F13700884201D34FF0FF3070472DE95E
:100FF000F0410646FFF7C8FF8046454613E016B1AC
:10100000E068B0420ED120682860D4E90101D8F828
:10101000007088472046FFF759FAD8F80000B84218
:10102000EBD100E025462C68002CE8D1BDE8F0812A
:1010300010B500F071F8BDE8104000F067B810B5C9
:1010400000F082F8BDE8104000F060B8864600F07D
:1010500010B8DEF834D0DEF83CE0704700F00FB88E
:10106000704700BF00F017B8704700BFD0EC200BEE
:10107000704775461FCD95E8E01FFFF7EABFB0EC5B
:10108000080BB0EC084BB0EC088BB0EC08CBA0F12F
:101090008000FFF7E5BFB0EC080BB0EC084BB0ECFC
:1010A000088BB0EC08CBA0F18000FFF7DDBF7047E4
:1010B0007546FFF7F3F9AE4605006946534620F042
:1010C0000700854618B020B5FFF7D6F9BDE82040E7
:1010D0004FF000064FF000074FF000084FF0000BF4
:1010E000AC46ACE8C009ACE8C009ACE8C009ACE863
:1010F000C00921F007018D46704710B50446AFF3D3
:1011000000802046BDE81040FFF7C9B8002801D094
:10111000FFF730BF7047000010B5002102A000F0BB
:101120003BF8012010BD0000534947414252543A58
:101130002041626E6F726D616C207465726D696EB4
:101140006174696F6E00000010B5012805D00021A0
:1011500003A000F021F8012010BD09A1F8E700006C
:1011600053494752544D454D3A204F7574206F6690
:101170002068656170206D656D6F727900000000F8
:101180003A2048656170206D656D6F727920636FDC
:10119000727275707465640070B505460C460A205D
:1011A00000E06D1C00F011F835B128780028F8D166
:1011B00002E0641C00F009F814B120780028F8D18E
:1011C000BDE870400A20AFF3008008B569468DF88D
:1011D00000000320ABBE08BD42F2AC30C2F20000FA
:1011E00000F060BA42F2AC30C2F2000000F05ABA2D
:1011F000002070470020704710B542F2101441F2F1
:101200008C110022C2F20004C2F20001204608F054
:101210001DFF40F68C112046C2F2000108F010FFBD
:10122000002010BDB0B504460868012805D020781C
:101230007E2802D020460AF041F842F210152146DD
:10124000C2F20005284608F0FBFE284608F0DDFE45
:101250000020B0BD0A46014642F21010C2F2000062
:10126000D0F89002D0F8140208B10120704710B5F0
:1012700042F21014C2F20004204608F0E7FE2046B5
:10128000BDE8104008F041BF42F2E840C2F2000061
:1012900000F086BD42F2A040C2F2000000F080BD26
:1012A00042F25840C2F2000000F07ABD42F2104013
:1012B000C2F2000000F074BD42F25060C2F20000C1
:1012C00000F06EBD40F2243042F20001C2F2000094
:1012D000C4F20201027F032A03D0022A11D0012A9C
:1012E0001BD10B6802F0FE02022A43F400630B607C
:1012F0000B6823F400630B600B6843F400730B600E
:101300000BD10A6842F480520A600A6822F48052C3
:101310000A600A6842F480620A600021017770471F
:1013200042F21401C4F202010A6860F3CA020A60C0
:10133000086840F002000860086840F480300860E7
:1013400070470000F0B581B0044601F0B4F942F2F4
:1013500010060546C4F202063068C00309D5671CB2
:1013600027B101F0A8F9401BA04225D23068C00384
:10137000F6D44CF2FA313068C0F202010840B1688C
:1013800001F000410A1810D040F224330029C2F2C3
:1013900000035F6842EA07025A6002D0B268114354
:1013A000B16000B13060012007E03068C0071CBFA9
:1013B00001203060002000E0032001B0F0BD90F873
:1013C0002020013A012A04D8006800F1140200200C
:1013D00004E000F1240201204FF480211368194336
:1013E0001160704710B590F82040D0F800C0013C63
:1013F000DCF808E0012C0DD81EF0E05F10D0CEF331
:10140000016EBEF1030F11D100F1240101204FF450
:10141000000234E000F1240101204FF480222EE08C
:1014200000F1240101204FF4001228E0012000FA0D
:101430000EF01860D1E9023023B118434B6840EA3E
:10144000C30302E00B6840EA43530CEB0E10C0F8F4
:1014500080310B69C0F88431097D012905D100F57F
:10146000C2710B6843F480730B605168C0F88C1133
:1014700011680122C0F8881100F5C07100200B68C6
:101480001A430A6010BD026890F82030013B012B1E
:1014900027D8B0B5D2F80002012340F00100C2F80D
:1014A00000024C6904F01F0003FA00F0D2F81C326D
:1014B0006FEA000C8343C2F81C32CB69012B16D0B3
:1014C0006BBBD2F80C3202EBC40E03EA0C03C2F879
:1014D0000C32CB688D8845EA0343CEF840328E4605
:1014E00014E0416A41F48021416201207047D2F842
:1014F0000C3202EBC40E0343C2F80C320D688B8829
:1015000043EA0543CEF8403201F10C0E02EBC4036E
:101510008C68BEF8005045EA0445C3F844528B6914
:10152000D2F8045245EA0004002B08BF05EA0C0477
:10153000C2F804420B69D2F8145245EA0004002BA9
:1015400008BF05EA0C04C2F81442096A0129BDE883
:10155000B04002BFD2F81C120843C2F81C02D2F8F5
:10156000000220F00100C2F800020020704790F84D
:101570002020013A012A06D80068426922EA0101C6
:10158000416100207047416A41F48021416201209D
:101590007047704710B590F82040013C012C71D87D
:1015A000D0F800C000290CBFDCF80C40DCF810407B
:1015B000A4076DD00CEB011CDCF8B0410CF5D87E13
:1015C00014F004049460DCF8B04119BFE4085460DE
:1015D000640D14600029DEF80040C4F34004D460B8
:1015E000DCF8B44104F00F041461DCF8B441C4F336
:1015F00007249461DCF8B4414FEA14445461DCF8E8
:10160000B8211A70026802EB0112D2F8B8214FEA31
:1016100012225A70026802EB0112D2F8B8214FEA86
:1016200012429A70026802EB0112D2F8B8214FEA16
:101630001262DA70026802EB0112D2F8BC211A7150
:10164000026802EB0112D2F8BC214FEA12225A7151
:10165000026802EB0112D2F8BC214FEA12429A71E1
:10166000026802EB0112D2F8BC214FEA1262DA7171
:101670004FF0200200680CBF00F10C0100F11001D6
:1016800000200AE000F1240101204FF4802204E050
:1016900000F1240101204FF400120B681A430A6084
:1016A00010BD00002DE9F04F81B004460068466986
:1016B000D0F804908768D0F80CB0D0F810A0D0F81B
:1016C0001880F10701D1002543E0F9070CD0012172
:1016D0008160B80705D4780719D438071DD4616B29
:1016E00000E0A16A204688470025F8051AD5206841
:1016F0004FF480718160B80505D478050AD43805A7
:101700000ED4A16B00E0E16A204688470AE04FF45E
:101710000065EAE705F5005504E04FF48055E4E77D
:1017200005F58045F80314D520684FF480318160B9
:10173000B80305D4780307D4380308D4E16B00E07C
:10174000216B2046884704E005F5004501E005F5DA
:101750008035300707D51BF0100004D02068102119
:1017600045F40075C160700708D51BF0080005D06E
:1017700020680821C1602046616C8847B00706D503
:101780002068C068800702D0216C20468847700618
:1017900007D51AF0100004D02068102145F48065A8
:1017A0000161B00608D51AF0080005D020680821AC
:1017B00001612046E16C8847F00606D52068006983
:1017C000800702D0A16C20468847B00308D519F0E5
:1017D000100005D02068102141602046216D884707
:1017E000F00308D519F0080005D0206808214160F1
:1017F0002046616D8847300441D55FEA49703BD58A
:1018000006F480705FEA887108EA102040EA05005B
:10181000014648BF41F00201B20558BF01465FEAE8
:1018200048700D4648BF45F00405700558BF0D4689
:10183000300521D518F070001ED010380009052899
:1018400015D8DFE800F00306090C0F1245F0080573
:101850000DE045F010050AE045F0200507E045F0F1
:10186000400504E045F0800501E045F480752068FE
:10187000816921F07001816120680421416045B1D6
:10188000606AA16D28436062204601B000F004B890
:10189000084701B000F005B830BCBDE8C04FFFF705
:1018A000F7BF30BCBDE8C08F2DE9F041002861D002
:1018B000044690F8200000284AD141F6034541F63D
:1018C000074241F60B4341F6014641F6054741F612
:1018D0009F3841F6A13141F6094041F6A53C41F659
:1018E000A33EC0F60205C0F60202C0F60203C0F62F
:1018F0000206C0F60207C0F60208C0F60201C0F6F2
:101900000200C0F6020CC0F6020EC4E90A5204F14D
:101910003002C8C204F13C0204F1500382E8030122
:1019200041F6A73041F6195141F29352C4E912CE63
:10193000C0F60200C0F60201C0F6020207C3E16D64
:1019400021B941F67D21C0F60201E16520468847B4
:101950002068016821F00201016000F0ACFE05463C
:1019600020684168890708D500F0A5FE401B0B28B8
:10197000F6D312E00120BDE8F081016841F00101D9
:10198000016000F098FE054620684168C9070BD148
:1019900000F091FE401B0B28F6D3606A052140F44D
:1019A00000306062012041E0217E0268271D22F0A4
:1019B0008003012908BF42F080030360617E026852
:1019C00022F04003012908BF42F040030360A17EDA
:1019D000026822F02003012908BF42F020030360BF
:1019E000E17E026842F01003012908BF22F01003D3
:1019F0000360217F026822F00803012908BF42F03A
:101A000008030360617F026822F00403012908BF14
:101A100042F0040303608ECF66691A4301393A43EA
:101A200032431143C16100200121606284F820101B
:101A3000BDE8F08146F200410068C4F2000188422E
:101A400018BF704780B541F25800C4F20200016827
:101A500021F00071016040F200404FF44071C4F683
:101A6000000000F0C5FC132003F03CF9142003F043
:101A700039F91520BDE8804003F034B946F2004141
:101A80000068C4F20001884218BF704780B586B074
:101A900041F25800C4F20200016841F00071016097
:101AA00001A9006800F000700190019802200290E6
:101AB0004FF440700190002003900320049009200F
:101AC000059040F20040C4F6000000F011FD132024
:101AD0000021002203F020F9132003F010F9142054
:101AE0000021002203F018F9142003F008F9152052
:101AF0000021002203F010F9152003F000F906B0D0
:101B0000BDE8804070470000AAB190F82030012B5A
:101B10000ED10E290FD8DFE801F0081E2124272A54
:101B20002D303336393C3F181B008262002070474D
:101B300090F820302BB1416A41F4800141620120CC
:101B400070470E2904D00D29F5D1C26500207047D9
:101B5000026600207047C2620020704702630020C6
:101B60007047426300207047826300207047C26361
:101B700000207047026400207047426400207047D4
:101B8000826400207047C264002070470265002014
:101B9000704742650020704782650020704770479B
:101BA0007047704770477047B0B5044690F8200002
:101BB00001281CD1022084F820002068016821F04F
:101BC0000101016000F077FD054600BF2068406814
:101BD000C00712D000F06FFD401B0B28F6D3606ADF
:101BE00040F400306062052084F8200003E0606A61
:101BF00040F4002060620120B0BD00206062B0BDF2
:101C000070477047704770477047704790F82020C2
:101C1000012A12D10E2913D8DFE801F0082A313841
:101C20003F464D545B626970771C230041F60341C7
:101C3000C0F6020181620020704790F820202AB18E
:101C4000416A41F480014162012070470E2908D0A9
:101C50000D29F5D141F67D21C0F60201C1650020B4
:101C6000704741F63521C0F6020101660020704739
:101C700041F60741C0F60201C1620020704741F6FB
:101C80000B41C0F6020101630020704741F601419B
:101C9000C0F6020141630020704741F60541C0F6DD
:101CA000020181630020704741F60941C0F602013C
:101CB000C1630020704741F6A131C0F60201016402
:101CC0000020704741F69F31C0F6020141640020B8
:101CD000704741F6A531C0F60201816400207047CB
:101CE00041F6A331C0F60201C1640020704741F6FD
:101CF000A731C0F6020101650020704741F6195175
:101D0000C0F6020141650020704741F29351C0F6D0
:101D100002018165002070477047014601200029BB
:101D200008BF70470A68136823F00E031360136836
:101D300023F001031360D1E9102303F01C0300FA20
:101D400003F35360002281F8242081F8250000204D
:101D5000704790F8251002291DD1016801230A68F7
:101D600022F00E020A600A6822F001020A60D0E93D
:101D7000101202F01C0203FA02F24A60002180F8FD
:101D8000241080F82530826B42B180B59047002145
:101D9000BDE8804002E00421C1630121084670478C
:101DA000B0B5D0E910C4DCF80010026804F01C0ED5
:101DB00013685C0710D5042404FA0EF414EA010534
:101DC0000AD0116889065EBF116821F00401116014
:101DD000CCF80440016B30E09C0716D5022404FACD
:101DE0000EF414EA010510D01168890606D41168B2
:101DF00021F00A011160012180F825100021CCF8A2
:101E0000044080F82410C16A17E01B0719D5082385
:101E100003FA0EF3194008BFB0BD116821F00E019E
:101E20001160012101FA0EF2CCF804200022C163F6
:101E300080F8242080F82510416B11B1BDE8B04036
:101E40000847B0BD00285ED02DE9F04F022140F2D6
:101E5000004C4CF6CD4400F1080B80F82510C4F27C
:101E6000020C4FF6F831CCF6CC4402680CF1080EA7
:101E70006346CBF6FD71724538BFA3F5806338BF6A
:101E800001F580611144A1FB04146FF0030101EA24
:101E9000940847F6F074C0E91038136823EA04097F
:101EA0009BE8F008D0E9073A49EA0401B4F5804F0D
:101EB00041EA050141EA060141EA070141EA0B0155
:101EC00041EA030141EA0A01116012D00CF1A801B4
:101ED000724508F01C034FF00F0738BFACF5567180
:101EE0009F400A68BA430A6042680F689A403A43C2
:101EF0000A6000210122C16380F8241080F82520A7
:101F000000F004B800E001210846704730BCBDE88D
:101F1000C04FFFF7F7BFB0B590F824C0BCF1010F78
:101F200036D04FF0010E80F824E090F825C0BCF1C7
:101F3000010F2AD14FF0020C80F825C04FF0000CA1
:101F4000C0F83CC0D0F800C0DCF8004024F0010428
:101F5000CCF80040D0E9104505F01C050EFA05F557
:101F60006560CCF804308368102B0B4608BF13461D
:101F7000CCF8083008BF0A46CCF80C20016BDCF81E
:101F8000000039B140F00E000CE0002180F8241070
:101F90000220B0BD20F00400CCF80000DCF8000006
:101FA00040F00A00CCF80000DCF8000040F001002E
:101FB000CCF800000020B0BD70B540F26836044691
:101FC000C2F2000670688047054600BF706880470F
:101FD000401BA042FAD370BD2DE9F04F81B040F212
:101FE00024398246C2F2000999F80000012801D183
:101FF00002267DE00120884689F800004CF250302E
:10200000FFF7A0F9064600286FD142F20004002035
:10201000C9F80400C4F2020421682068890503D4C9
:10202000400509D4002012E020F4007020602068F0
:10203000400507D401200AE0206820F48060206079
:10204000022004E0206820F480602060032089F8EA
:102050001C00DAF80000012815D19AF80400C00726
:102060001EBF606940F004006061606940F4803028
:1020700060614CF25030FFF765F90646606920F068
:10208000040060612FE04FF0FF30C8F80000DAE98B
:1020900002703844874222D2FD0040F2FA7B00BF32
:1020A0006069E90861F3CA006061606940F002009C
:1020B0006061606940F4803060614CF25030FFF73D
:1020C00041F906466069002E20EA0B00606108D1E4
:1020D000DAE902010137083508448742E0D30026D7
:1020E00001E0C8F80070FFF7EDF8002089F8000063
:1020F000304601B000F000B830BCBDE8C08F70477A
:1021000040F22430C2F2000040687047B0B542F29D
:10211000100440F2FF7140F22435C4F20204C2F20E
:102120000005606888434CF2FA316060C0F2020139
:10213000287A042802BF606820F48020606020684C
:102140000840A16801F080410A181DD06B68002981
:1021500042EA03026A6002D0A2681143A16000B1A2
:102160002060FFF7AFF8287AC11E022905D30228A4
:1021700005D0012806D1686902E0E86800E0286916
:1021800000F054F8002028722068C0072ED00120EB
:102190002060287A01280FD1A8690138A861A869B0
:1021A000D0B16869FFF7ABFF6869013068616869A1
:1021B0002969FFF7B5F819E0FFF784F8287AC11EFE
:1021C000022901D2E86802E0022802D12869FFF75B
:1021D00096FF0020287209E04FF0FF306861002070
:1021E0002872FFF76FF86869FFF789FF287A00B156
:1021F000B0BD606820F04070606000202870B0BD05
:1022000042F21400C4F20200016841F00041016092
:102210000020704742F21400C4F20200016841F04D
:10222000006101604CF25030FFF78CB8704700003D
:102230002DE9F04740F224398046C2F2000999F8AE
:102240000000012801D102265DE001201F4615464D
:102250000C4689F800004CF25030FFF773F8064640
:1022600000284DD142F2000A0020C9F80400C4F24F
:10227000020ADAF80010490506D5DAF8000020F461
:102280008060CAF800000220B8F1000F89F81C0035
:1022900020D0A8F10100012816D8DAF8140040F483
:1022A0008020CAF81400402072B600BF55F8041B05
:1022B000013844F8041B0106F8D162B6B8F1020FE8
:1022C00002D16FF480240FE04CF25030FFF73AF85F
:1022D000064613E0DAF8140040F00100CAF81400D2
:1022E000256067606FF001044CF25030FFF72AF868
:1022F0000646DAF814002040CAF81400FEF7E2FFA0
:10230000002089F800003046BDE8F087B0B540F203
:10231000243EC2F2000E9EF80040012C04BF0220B1
:10232000B0BD42F2140C00250124CEF804508EF802
:102330000040C4F2020C5CF8144C640506D55CF84D
:10234000144C022524F480644CF8144C02288EF8B6
:102350001C500BD104208EF80800CEF80C10DCF8CD
:10236000000040F04070CCF800000FE0032400288B
:102370008EF80840CEF80C10DCF8005045F040759F
:10238000CCF8005013D00138012818D8DCF8000030
:1023900040F48020CCF80000402072B652F8043B94
:1023A000013841F8043B0306F8D162B607E0DCF8D7
:1023B000000040F00100CCF800000A604B600020F3
:1023C000B0BD42F20800C4F20200C168B1F1FF3FA3
:1023D000C4BF0020704740F22311C4F2675101606E
:1023E00048F6AB11CCF6EF510160C068C00F7047E2
:1023F0002DE9F04F002976D041F200024FF0070C92
:1024000040F200494FF00F0B00250027C4F60002F0
:10241000C4F20109904200F138424FEAB22308BFEA
:102420004FF0040C042B4FF0000338BF4FEAB22CDE
:10243000012202FA07F616EA010A4ED003220468C6
:1024400002FA05F86FF0030244EA0804046003F09E
:102450001C040BFA04FE02EA57040444226A22EA2E
:102460000E02A9F57E7E226203F00C04826822EA45
:10247000080282604268B243BE084260C26822EA33
:1024800008020BFA04F80CFA04F4C2605EF8262085
:1024900002EA0802A24220D15EF8262022EA0802BF
:1024A0004EF82620D9F8002022EA0A02C9F80020B6
:1024B000D9F8042022EA0A02C9F80420D9F8082031
:1024C00022EA0A02C9F8082040F20C42C4F20102D2
:1024D0001646126822EA0A023260013704330235D6
:1024E00031FA07F2A4D100F000B830BCBDE8C08FCB
:1024F0002DE9F04F82B00E68002E00F0C78041F247
:102500000002072740F2004C4FF0010E0124C4F6F0
:102510000002C4F2010C904200F138424FEAB223AB
:1025200008BF0427042B38BF4FEAB22700220097C8
:10253000002700BFA4F101090EFA09FB16EA0B08F7
:1025400000F09B804E6846F01005122D13D107F065
:102550001C050F2303FA05FA6FF0030303EA59037E
:1025600003441E6A26EA0A0A0E6906FA05F545EAD8
:102570000A051D624E6806F00303122E03FA02FAE2
:102580004FF0030303FA02F5036823EA050343EA65
:102590000A036FEA050A036014D80EFA06F313F073
:1025A000061F0FD08368CD6803EA0A0395402B43CA
:1025B0008360C6F30013456803FA09F325EA0B05A7
:1025C0002B434360C3688D6803EA0A0395402B439D
:1025D000C360F30051D541F2600307F00C06C4F26A
:1025E00002031D461B6843F001032B602B6803F0B8
:1025F0000103019329F00303019D63444FF608454D
:10260000CFF6FF75AA4653F805900F25B54029EA85
:102610000509009D05FA06F646EA090543F80A5041
:10262000DCF800904E6849EA0805F30358BF29EA30
:102630000805B303CCF80050DCF8049049EA08051B
:1026400058BF29EA0805F302CCF8045040F20C43C5
:10265000DCF80890C4F2010349EA080558BF29EAEA
:1026600008059946B602CCF808501B6843EA0805ED
:1026700058BF23EA0805C9F800500E680232043733
:1026800036FA04F304F101047FF454AF02B000F011
:1026900000B830BCBDE8C08F0069084018BF0120F9
:1026A000704742695140416170471823002A08BFB2
:1026B0002823C150704740F26830C2F200004068E1
:1026C000004790F84120202A03D190F84020012AA9
:1026D00001D1022118E0242280F841200268136809
:1026E00023F001031360136823F48053136013680D
:1026F00019431160116841F001011160002120228D
:1027000080F8401080F841200846704790F841203A
:10271000202A03D190F84020012A01D1022117E09C
:10272000242280F841200268136823F0010313601B
:10273000136823F4706343EA01211160116841F0CA
:10274000010111600021202280F8401080F8412012
:10275000084670477047704701688B690A6802F045
:10276000800CDA0509D5BCF1000F06D0426C42F0AE
:10277000010242644FF48072CA615A0509D5BCF166
:10278000000F06D0426C42F0080242644FF48062AF
:10279000CA619A0509D5BCF1000F06D0426C42F01F
:1027A000020242644FF40072CA61416C11F00B0FD7
:1027B00014BF416C704705F059BA026891691268FC
:1027C000436B1BB180B59847BDE88040704790F8D7
:1027D000411020291CBF0220704748F2C151C0F6A9
:1027E00002014163282180F841100068016841F02E
:1027F000B801016000207047704710B310B504465F
:1028000090F8410028B9002084F84000204601F0EB
:10281000B8FB242084F841002068016821F0010100
:102820000160616821F070610161816821F40041FB
:102830008160D4E90212012A09D141F4004181608A
:102840000DE044204FF4007101600120704741F415
:102850000441022A816004BF4FF400614160416875
:1028600004F1100341F0007141F400414160C1687E
:1028700021F40041C1600ECB114341EA0321C16044
:10288000D4E9071211430160016841F001010160C0
:1028900000202021606484F84110206384F8420005
:1028A00010BD00002DE9F04F83B0044600200290D7
:1028B00094F84100202808D12068884681690904DD
:1028C00003D494F84010012903D1022003B000F092
:1028D00075B824211D4691466FF39F285E1C4FF06A
:1028E000200A84F84110012184F84010002161641D
:1028F000E16801294FF4205104BF42F20001C0F207
:10290000002141444160FFF7D6FE0746206801469A
:1029100051F8182F92065CBF82695FEAC2620DD43B
:1029200094F84120A02A09D0002EF0D0FFF7C3FE72
:102930006DB3C01BA842E9D929E000BFD1F800B0AF
:102940002046202100222B46009705F0C3FE5FEAB7
:10295000CB6127D538BB20681021C161C0F81CA00D
:1029600002994A1C494502920ED1416800222B4629
:1029700041F48041416020462021009705F0AAFEE5
:1029800088B92068C0F81CA002994945B0D320201E
:1029900084F84100002084F84000606C40F0200082
:1029A000606400E008B1012090E720682021C16147
:1029B000002084F8400084F8411087E730BCBDE86F
:1029C000C08F704745F2004201680020C4F2000247
:1029D00091420ED045F60042C4F2000291420AD064
:1029E00045F60002C4F20002914218BF704701216F
:1029F00002E0002100E0022141F6244341EA810285
:102A0000C2F2000303EBC2021073D26A2AB101EBD7
:102A1000810003EBC000006B1047704745F2004196
:102A20000068C4F2000188420DD045F60041C4F2AE
:102A30000001884209D045F60001C4F20001884235
:102A40001FD1012102E0002100E0022141F6244CC7
:102A500001EB8100C2F2000C0CEBC00002698AB1EC
:102A600043697BB180B50CEB810041EA81019BB2E7
:102A70000CEBC101D0F88400497B00F027F9BDE8D8
:102A80008040704741EA810100220CEBC1010A73CA
:102A9000C96A002908BF7047006B084790F84220B8
:102AA000102A05D190F84020012A03D102214CE0E0
:102AB00001214AE080B590F841206FF0F40C6FF0EE
:102AC000F20E6FF39F2102F02802282A08BF6FF050
:102AD000440C0268136803EA0C03136090F8413059
:102AE00003F0280CBCF1280F08BF6FF0420E1368EA
:102AF00003EA0E031360602380F8413049F60003B7
:102B0000D2F804C0C7F6004303EA0C0348F2D74CDE
:102B10001944C0F6020CF42341F0024141F4A03103
:102B20005160002180F84010D0F834E048F25D1088
:102B3000C0F60200E64508BF6023864508BF602353
:102B4000106818431060BDE88040084670470000D8
:102B50002DE9F04782B0044690F84100202803D1C7
:102B600094F84000012804D10227384602B0BDE89D
:102B7000F08701271E461546884684F84070FFF707
:102B80009AFD8146009020464FF40041012219230E
:102B900005F0A0FD0028E8D1222049F6000384F8C2
:102BA00041001020C7F6004384F842000020606412
:102BB00066856562606342F20040618DC8F2FF1075
:102BC000B1F5807F09D3216851F8042F1A4043469C
:102BD0006FF39F231343FF220DE0628D414600F502
:102BE00080306FF39F21D7B241EA0747216851F83F
:102BF000046F33403B4318430A9F08602285608D71
:102C0000002849D049F6004500266FF39F284FF071
:102C1000FF0ACFF60045C0F2FF1600BF2046394636
:102C20004A4605F08FFDE8BB2068406A616A4A1C8D
:102C300062620870608D01386085208D411E21859B
:102C40000904608D25D120B32046802100223B4617
:102C5000CDF8009005F03EFD20BB608DB0F5807F83
:102C600009D3A4F828A03246206850F8041F294050
:102C700041EA08010BE0608D2085C0B248EA0041BE
:102C8000206850F8042F2A4011434FF0007211437E
:102C90000160608D0028C1D1204639464A4605F0C2
:102CA0008FFD08B1012760E7206820214EF6000360
:102CB0000027CFF60063C16142681A40426084F881
:102CC000411084F8407084F842704EE72DE9F043DB
:102CD00081B0044690F84100202808D10D462168B3
:102CE0008869000403D494F84000012804D1022626
:102CF000304601B0BDE8F083222048F25D1884F828
:102D000041001020C0F6020884F8420000206064F0
:102D100000206385CFF6FF70E062012084F8400058
:102D20006262C4F83480608DB0F5807F04D3FF23E5
:102D30004FF08079238505E0638D002B23852DD00E
:102D40004FF00079E06BD8B147F6572C47F669276A
:102D500024310026C0F60207C0F6020CC0E90B764B
:102D6000C0E90DC6FFF7D7F8B0B3202084F84100C2
:102D700084F8426084F84060606C40F010000AE023
:102D8000202084F84100002084F8420084F84000AC
:102D9000606C40F0800060640126A9E748F297204B
:102DA00049F600026FF39F250026C0F60200C7F621
:102DB000004260634868104042F20042C8F20002DC
:102DC000284402F100721043486084F840600868AB
:102DD00040F0F20008608BE7218D6FF39F2549F6E4
:102DE000000749EA0500C7F60047CAB240EA0240B8
:102DF000226853683B401843F22340F0004040F4FF
:102E00001050506084F84060608D401A48F2D741FD
:102E10006085C0F60201606B884208BF9023404580
:102E200008BF9023106818431060106840F40040F9
:102E300010605DE710B5844690F84100202809D164
:102E4000DCF800E0DEF81800000403D49CF8400031
:102E5000012801D1022010BD22206FF39F2149F6E5
:102E600000048CF841001020C7F600448CF84200A2
:102E70000020CCF84400ACF82A300023CFF6FF73D2
:102E8000CCF82C3001238CF84030CCF8242048F2C8
:102E90009722C0F60202CCF83420BCF82A20FF2A80
:102EA00099BFBCF82A204FF000734FF08073FF22C7
:102EB000ACF828201943D2B2DEF80430234019437D
:102EC00041EA024141F0004141F41051CEF80410B2
:102ED0008CF84000DEF8001041F0F401CEF800104C
:102EE00010BD2DE9F04381B0044690F84100202840
:102EF00003D194F84000012804D10226304601B0E5
:102F0000BDE8F0830D462221089848F25D1884F848
:102F100041101021C0F6020884F8421000216164BB
:102F20006385E062012084F840006262C4F8348066
:102F3000608DFF2842F2004099BF638DD4F82C9039
:102F40004FF08079FF23C8F200002385216B1229FE
:102F500006D1E16AAA2903D0E16AB1F52A4F7ED1F0
:102F6000E16AAA2901D1002105E0E16AB1F52A4F01
:102F700002D14FF00071E162618D0746FE2998BFD2
:102F8000D4F82C90002B41D0E06B002859D047F6A4
:102F9000572C47F66921002600F12C0EC0F6020CD2
:102FA000C0F602018EE84210866321682431FEF7E4
:102FB000B2FF6FF39F25218D236849EA050038434E
:102FC000CAB240EA024049F60042CFF6004282EA25
:102FD00057525F683A401043F222586084F84060CC
:102FE000608D401A48F2D7416085C0F60201606BDF
:102FF000884208BF9022404508BF902218681043BD
:103000001860186840F40040186077E748F297218C
:1030100049F600036FF39F2500F100700026C0F60B
:103020000201C7F60043616321684A681A402A44D6
:103030001043486084F84060086840F0F20008607F
:103040005CE72020012684F84100002084F842003B
:1030500084F84000606C40F0800060644EE7002718
:1030600090E790F841C0BCF1200F04D190F840C027
:10307000BCF1010F01D1022164E080B54FF0220EB6
:10308000DDF808C080F841E04FF0100E80F842E013
:103090004FF0000EC0F844E043850123C0F82CC077
:1030A00080F84030426248F29722C0F60202426342
:1030B000428DFF2A99BFB0F82AE0D0F82CC04FF01B
:1030C000807C4FF0FF0EA0F828E0036B122B06D196
:1030D000C36AAA2B03D0C36AB3F52A4F34D1C36A9B
:1030E000AA2B01D1002305E0C36AB3F52A4F02D110
:1030F0004FF00073C362428D42F20043C8F20003F6
:10310000FE2A98BFD0F82CC06FF39F215FFA8EF291
:1031100041EA0C01194341EA024C49F60042CFF65C
:10312000004282EA535203685968114041EA0C0197
:103130005960002180F84010186840F0F4001860D1
:10314000BDE88040084670470023DDE72DE9F047E1
:10315000044690F84100202803D194F8400001284B
:1031600003D102263046BDE8F0870D46212108989C
:1031700048F25D1842F2000984F841101021C0F6AF
:103180000208C8F2000984F84210002161646385D6
:10319000E062012084F840006262C4F83480608DEF
:1031A000FF2899BF638DD4F82CA04FF0807AFF23BD
:1031B0002385206B112807D1E06AAA2804D0E06A91
:1031C000B0F52A4F40F08080E06AAA2801D10020A3
:1031D00005E0E06AB0F52A4F02D14FF00070E062DE
:1031E000608D4F46FE2898BFD4F82CA0002B42D00B
:1031F000A06B00285AD047F6572C47F6F721002637
:1032000000F12C0EC0F6020CC0F602018EE842104E
:103210008663216801F1280C11466246FEF77BFEA9
:103220006FF39F25218D23684AEA05003843CAB20F
:1032300040EA024009F17C2282EA57525F683A4034
:103240001043F222586084F84060608D401A48F2C2
:10325000D7416085C0F60201606B884208BF9022AA
:10326000404508BF9022186810431860186840F461
:103270008040186076E748F2972049F600026FF325
:103280009F250026C0F60200C7F600426063206852
:103290004168114009F1007229441143416084F8EA
:1032A0004060016841F0F20101605BE720200126E7
:1032B00084F84100002084F8420084F84000606CEB
:1032C00040F0800060644DE700278FE790F841C030
:1032D000BCF1200F04D190F840C0BCF1010F01D126
:1032E00002215FE080B54FF0210EDDF808C080F8C4
:1032F00041E04FF0100E80F842E04FF0000EC0F8B1
:1033000044E043850123C0F82CC042F2000C80F851
:103310004030426248F29722C8F2000CC0F6020226
:103320004263428DFF2A99BF428DD0F82CE04FF0C6
:10333000807EFF220285036B112B06D1C36AAA2B64
:1033400003D0C36AB3F52A4F2ED1C36AAA2B01D189
:10335000002305E0C36AB3F52A4F02D14FF0007392
:10336000C362438DFE2B634698BFD0F82CE06FF309
:103370009F21D2B241EA0E01194341EA024E0CF1FB
:103380007C2282EA535203685968114041EA0E01D7
:103390005960002180F84010186840F0F200186071
:1033A000BDE88040084670470023E0E72DE9F0477C
:1033B00082B0044690F84100202803D194F84000E0
:1033C000012804D10227384602B0BDE8F087012762
:1033D0001E461546884684F84070FFF76CF9814612
:1033E000009020464FF400410122192305F072F9A4
:1033F0000028E8D1212049F6000384F8410010207C
:10340000C7F6004384F84200002060646685656268
:10341000606342F20000618DC8F2FF10B1F5807F59
:1034200009D3216851F8042F1A4043466FF39F23B4
:103430001343FF220DE0628D414600F580306FF3AB
:103440009F21D7B241EA0747216851F8046F334002
:103450003B4318430A9F08602285608D002849D0AD
:1034600049F6004500266FF39F284FF0FF0ACFF67C
:103470000045C0F2FF1600BF204639464A4605F017
:10348000C3F9E8BB616A20684A1C626209788162FC
:10349000608D01386085208D411E21850904608D75
:1034A00025D120B32046802100223B46CDF8009054
:1034B00005F010F920BB608DB0F5807F09D3A4F82A
:1034C00028A03246206850F8041F294041EA08012C
:1034D0000BE0608D2085C0B248EA0041206850F8BA
:1034E000042F2A4011434FF0007211430160608D98
:1034F0000028C1D1204639464A4605F061F908B195
:10350000012760E7206820214EF600030027CFF650
:103510000063C16142681A40426084F8411084F837
:10352000407084F842704EE72DE9F04381B00446C4
:1035300090F84100202808D10D46216888690004D0
:1035400003D494F84000012804D10226304601B08B
:10355000BDE8F083212048F25D1884F84100102076
:10356000C0F6020884F842000020606400206385F1
:10357000CFF6FF70E062012084F840006262C4F878
:103580003480608DB0F5807F04D3FF234FF08079C5
:10359000238505E0638D002B238530D04FF0007923
:1035A000A06BF0B147F6572C47F6F7270026C0F678
:1035B0000207C0F6020CC0E90B76C0E90DC601F1A6
:1035C000280C11466246FEF7A6FCB0B3202084F812
:1035D000410084F8426084F84060606C40F0100064
:1035E0000AE0202084F84100002084F8420084F89A
:1035F0004000606C40F0800060640126A6E748F25D
:10360000972049F600026FF39F250026C0F60200BE
:10361000C7F6004260634868104042F20002C8F2F8
:103620000002284402F100721043486084F84060B0
:10363000086840F0F200086088E7218D6FF39F254D
:1036400049F6000749EA0500C7F60047CAB240EA52
:103650000240226853683B401843F22340F0004088
:1036600040F40050506084F84060608D401A48F289
:10367000D7416085C0F60201606B884208BF902385
:10368000404508BF9023106818431060106840F44C
:10369000804010605AE710B5844690F84100202819
:1036A00009D1DCF800E0DEF81800000403D49CF82F
:1036B0004000012801D1022010BD21206FF39F217D
:1036C00049F600048CF841001020C7F600448CF83D
:1036D00042000020CCF84400ACF82A300023CFF69A
:1036E000FF73CCF82C3001238CF84030CCF8242028
:1036F00048F29722C0F60202CCF83420BCF82A2007
:10370000FF2A99BFBCF82A204FF000734FF0807356
:10371000FF22ACF828201943D2B2DEF8043023404F
:10372000194341EA024141F0004141F40051CEF811
:1037300004108CF84000DEF8001041F0F201CEF8E1
:10374000001010BD704770472DE9F04F83B004465C
:1037500090F8410020280DD1DDF830B0BBF1000F0A
:103760000AD0DDF83480B8F1000F05D094F840009D
:10377000012806D1022516E04FF40070606401258F
:1037800011E001251F4616468A4684F84050FEF790
:1037900092FF8146009020464FF4004101221923F8
:1037A00004F098FF18B1284603B000F0A9B8222011
:1037B0000E99002532463B4684F84100402084F8AB
:1037C00042006564C4F824B06563A4F82A808B467F
:1037D000CDE900192046514604F0FDFD10B184F8F2
:1037E0004050CCE7618D49F6000342F20040C7F635
:1037F0000043C8F2FF10B1F5807F09D321686FF351
:103800009F2A51F8042F1A4042EA0A03FF220CE0D3
:10381000628D6FF39F2A00F58030D1B24AEA0147EA
:10382000216851F8046F33403B4349F600460027B6
:1038300018434FF0FF08CFF60046C0F2FF170860AC
:10384000228500BF2046042100225B46CDF800906F
:1038500004F040FF002892D12068406A616A4A1C47
:1038600062620870608D01386085208D411E21855F
:103870000904608D27D130B32046802100225B46A9
:10388000CDF8009004F026FF00287FF478AF608D1B
:10389000B0F5807F09D3A4F828803A46206850F814
:1038A000041F314041EA0A010BE0608D2085C0B25F
:1038B0004AEA0041206850F8042F324011434FF08B
:1038C000007211430160608D0028BBD1204659462B
:1038D0004A4604F075FF00287FF451AF206820218C
:1038E0004EF600030025CFF60063C16142681A401E
:1038F000426084F8411084F8405084F8425052E706
:1039000030BCBDE8C08F2DE9F04782B0044690F886
:103910004100202811D1DDF82880B8F1000F0ED029
:10392000DDF82C90B9F1000F09D0206880690004FF
:1039300003D494F84000012809D1022703E04FF492
:10394000007060640127384602B0BDE8F0870120AE
:103950001F4616460D4684F84000FEF7ACFE2221B5
:1039600032463B4684F84110402184F84210002141
:1039700061640021A4F82A9048F25D19CFF6FF7126
:10398000C0F60209E162C4F82480C4F83490618D65
:10399000FF2999BF618D4FF0007A4FF0807AFF21A7
:1039A00021851921CDE900102046294604F013FD98
:1039B00018B1002084F84000C4E7E06BF0B147F68E
:1039C000572147F669220027C0F60202C0F602011D
:1039D000C0E90B27C0E90D1742462168238D243129
:1039E000FEF799FAB0B1202084F8410084F84270C3
:1039F00084F84070606C40F01000A2E7202084F84A
:103A00004100002084F8420084F84000606C40F0DF
:103A1000800096E7218D6FF39F2549F600064AEA5C
:103A20000500C7F60046CAB240EA02402268536861
:103A300033401843F22340F0004040F410505060EF
:103A400084F84070608D401A48F2D7416085C0F616
:103A50000201606B884208BF9023484508BF90234D
:103A6000106818431060106840F4004010606AE766
:103A70002DE9F04383B0044690F84100202811D18D
:103A8000DDF82880B8F1000F0ED0DDF82C90B9F1E8
:103A9000000F09D020688069000403D494F8400026
:103AA000012808D1022003E04FF400706064012077
:103AB00003B0BDE8F08301201E4617460D4684F88A
:103AC0004000FEF7F8FD22213A46334684F84110C3
:103AD000402184F84210002161640021A4F82A905A
:103AE000CFF6FF71E16248F29721C4F82480C0F656
:103AF00002016163618DFF2999BF618D4FF00078EC
:103B00004FF08078FF2121851921CDE90010204652
:103B1000294604F060FC18B1002084F84000C6E794
:103B20006FF39F2594F8281049F6000348F2D74711
:103B300048EA0500C7F60043C0F6020740EA014024
:103B400021684A681A40104340F0004040F4105089
:103B50004860002084F84000626B0E68BA4248F268
:103B60005D173346C0F6020718BF43F0F403BA42AC
:103B700008BF33460B609BE72DE9F04F83B0044646
:103B800090F8410020280DD1DDF830B0BBF1000FD6
:103B90000AD0DDF83480B8F1000F05D094F8400069
:103BA000012806D1022516E04FF40070606401255B
:103BB00011E001251F4616468A4684F84050FEF75C
:103BC0007AFD8146009020464FF4004101221923DE
:103BD00004F080FD18B1284603B000F09DB8212004
:103BE0000E99002532463B4684F84100402084F877
:103BF00042006564C4F824B06563A4F82A808B464B
:103C0000CDE900192046514604F025FC10B184F896
:103C10004050CCE7608D40F2000849F60046C0F203
:103C2000FF18CFF60046B0F5807F0AD320686FF307
:103C30009F2A434650F8041F314041EA0A02FF21FF
:103C40000CE0618D6FF39F2AC8B24AEA00422068F7
:103C500050F8043F33401A434FF000731A43FF27D4
:103C600002602185204659464A4604F0CDFD0028D1
:103C70009DD1616A20684A1C626209788162608D08
:103C800001386085208D411E21850904608D26D173
:103C900028B32046802100225B46CDF8009004F036
:103CA00019FD00287FF483AF608DB0F5807F08D3C5
:103CB00027854246206850F8041F314041EA0A0136
:103CC0000BE0608D2085C0B24AEA0041206850F8C0
:103CD000042F324011434FF0007211430160608D98
:103CE0000028BFD1204659464A4604F069FD002805
:103CF0007FF45DAF206820214EF600030025CFF64B
:103D00000063C16142681A40426084F8411084F83F
:103D1000405084F842505EE730BCBDE8C08F2DE9CA
:103D2000F04782B0044690F84100202811D1DDF818
:103D30002880B8F1000F0ED0DDF82C90B9F1000FFB
:103D400009D020688069000403D494F84000012859
:103D500009D1022703E04FF4007060640127384660
:103D600002B0BDE8F08701201F4616460D4684F8D4
:103D70004000FEF7A0FC212132463B4684F841106A
:103D8000402184F84210002161640021A4F82A90A7
:103D900048F25D19CFF6FF71C0F60209E162C4F87E
:103DA0002480C4F83490618DFF2999BF618D4FF054
:103DB000007A4FF0807AFF2121851921CDE900108A
:103DC0002046294604F047FB18B1002084F8400043
:103DD000C4E7A06BF8B147F6572147F6F722002752
:103DE000C0F60202C0F60201C0E90B27C0E90D17B8
:103DF0002168238D01F128024146FEF78CF8B0B10D
:103E0000202084F8410084F8427084F84070606C8F
:103E100040F01000A1E7202084F84100002084F841
:103E2000420084F84000606C40F0800095E7218DEE
:103E30006FF39F2549F600464AEA0500CFF6004693
:103E4000CAB240EA02402268536833401843F22362
:103E5000506084F84070608D401A48F2D741608508
:103E6000C0F60201606B884208BF9023484508BF36
:103E70009023106818431060106840F48040106070
:103E80006DE72DE9F04383B0044690F84100202807
:103E900011D1DDF82880B8F1000F0ED0DDF82C909C
:103EA000B9F1000F09D020688069000403D494F8A8
:103EB0004000012808D1022003E04FF40070606444
:103EC000012003B0BDE8F08301201E4617460D46D1
:103ED00084F84000FEF7EFFB21213A46334684F890
:103EE0004110402184F84210002161640021A4F8AF
:103EF0002A90CFF6FF71E16248F29721C4F824803E
:103F0000C0F602016163618DFF2999BF618D4FF099
:103F100000784FF08078FF2121851921CDE900102C
:103F20002046294604F097FA18B1002084F8400092
:103F3000C6E76FF39F2594F8281049F6004348F22E
:103F4000D74748EA0500CFF60043C0F6020740EA2B
:103F5000014021684A681A4010434860002084F8F4
:103F60004000626B0E68BA4248F25D173346C0F6F5
:103F7000020718BF43F0F203BA4208BF33460B6092
:103F80009FE72DE9F04F87B045F6FF310446006802
:103F9000C4F20001884200F3808045F20041C4F27F
:103FA0000001884200F0E48045F60001C4F20001FF
:103FB000884240F0BE8112204FF0030802A903900E
:103FC0004FF440600290012004900420CDF814804A
:103FD000069040F20040C4F60000FEF789FA41F274
:103FE00058001C2642F2A04500274FF08009C4F279
:103FF0000200C4F20206C2F20005016841F4800129
:104000000160006800F48000019001982F6206F1C1
:104010003C00C5E900082846C5E90277C5E90497D0
:10402000C5E90677FDF70EFF38B148F6607040F23B
:104030003311C0F6030007F043F906F1280042F2FD
:10404000E846E563AC621021C2F20006C6E900084A
:1040500006F1080080E882023046C6E90577C6E925
:104060000777FDF7EFFE38B148F660704FF4A271A4
:10407000C0F6030007F024F9212000210022A663E6
:10408000B46200F049FE212000F039FE2220002118
:10409000002200F041FE2220D8E045F60041C4F2A3
:1040A0000001884200F0D58048F20041C4F20001CE
:1040B000884240F03E81122002A90390C020029065
:1040C00001200490032005900520069040F2004056
:1040D000C4F60000FEF70CFA41F258001C2642F22A
:1040E000C05500274FF08008C4F20200C4F2020657
:1040F000C2F20005416841F002014160406800F0F1
:104100000200019001982F6206F57B70C5E9000757
:104110002846C5E90277C5E90487C5E90677FDF7B2
:1041200091FE38B148F6607040F2B511C0F6030058
:1041300007F0C6F806F5806042F20866E563AC62F7
:104140001021C2F20006C6E9000706F1080080E867
:1041500082013046C6E90577C6E90777FDF772FEAA
:10416000002800F0E48048F660704FF4E371DAE074
:1041700012204FF0030802A903904FF4C060029090
:10418000012004900420CDF8148006904FF0904058
:10419000FEF7AEF941F258001C2642F258450027BE
:1041A0004FF08009C4F20200C4F20206C2F2000518
:1041B000016841F4001101601021006800F4001052
:1041C0000190019806F15000C5E9000805F10800CA
:1041D00080E882022846C5E90577C5E90777FDF73B
:1041E00031FE30B148F66070F321C0F6030007F0ED
:1041F00067F806F1640042F21046A563AC62C2F2B1
:1042000000063762C6E900083046C6E90277C6E90B
:104210000497C6E90677FDF715FE38B148F66070D9
:104220004FF48271C0F6030007F04AF81F20002106
:104230000022E663B46200F06FFD1F2000F05FFD16
:1042400020200021002200F067FD202000F057FD13
:104250006FE002AD4FF012094FF0800801274FF0D8
:10426000030A04264FF090402946CDF80C90CDF873
:1042700008800497CDF814A00696FEF739F940F2AD
:104280000040CDF80C904FF010092946C4F600000C
:10429000CDF80890CDE9047A0696FEF729F941F2A7
:1042A000580040F21C0B42F230550027C4F20200C5
:1042B000C4F2020BC2F20005016841F40001016082
:1042C000006800F40000019001982F620BF11400C7
:1042D000C5E9000A2846C5E90277C5E90487C5E9AA
:1042E0000677FDF7AFFD38B148F660704FF4BD7149
:1042F000C0F6030006F0E4FF42F27856E563AC62D4
:10430000C2F2000630463762C6E900BAC6E9029733
:10431000C6E90487C6E90677FDF794FD38B148F68B
:10432000607040F28B11C0F6030006F0C9FFA6636F
:10433000B46207B000F000B830BCBDE8C08F704771
:1043400070472DE9F04182B0044690F841002028E2
:1043500007D10E4639B117462AB194F8400001281A
:1043600005D102263BE04FF40070606436E0012086
:104370001D4684F84000FEF79EF980462220002268
:104380002B4684F84100202084F84200002060641D
:1043900066626063678508262068416821F40041F1
:1043A000416020460821CDF8008004F093F921688F
:1043B00020B1486840F4004048600FE0CE612046DC
:1043C0004FF4803101222B46CDF8008004F082F9B1
:1043D000C0B12068416841F4004141600126304687
:1043E00002B0BDE8F08120462946424604F0AAF911
:1043F000216868BB486A616A4A1C62620870608D05
:1044000001386085608D0028EDD12046294642465E
:1044100004F0D6F921680028CBD1202720460122BC
:104420002B460126CF614FF40041CDF8008004F007
:1044300051F9216800284A6842F400424A60CED10E
:10444000002684F8417084F8406084F84260C6E732
:10445000486840F40040486088694007BED5486A13
:10446000616A4A1C62620870608D01386085B5E738
:1044700010B5044690F84100202806D18C4631B191
:104480002AB194F84000012806D1022010BD4FF453
:1044900000706064012010BD2220002184F84100DA
:1044A000202084F8420001206164628584F8400085
:1044B00048F2D740C4F824C0C0F602006063002070
:1044C000638DCFF6FF70E0622385E06BE8B147F6BD
:1044D000572E47F68532C0F60202C0F6020EC0E93A
:1044E0000B21C0E90DE1624621682431FDF713FD7F
:1044F000B0B1282084F84100002084F8420084F8FC
:104500004000606C40F01000C3E7282084F84100B0
:1045100084F8421084F84010606C40F08000B8E7E6
:104520002168486820F400404860002084F840007A
:104530000A6842F0B8020A600A6842F400420A605F
:1045400010BD80B5864690F84100202803D19EF822
:104550004000012801D1022080BD22208EF84100B8
:1045600020208EF842000020CEF84400DEF800C083
:10457000DCF8043023F40043CCF80430AEF82A20F1
:10458000CEF8241048F2C1510022C0F60201CFF645
:10459000FF72CEF834108EF84000BEF82A10CEF824
:1045A0002C20AEF82810DCF8001041F0FC01CCF80B
:1045B000001080BD2DE9F041044690F8410000F064
:1045C0002800282840F094800D4651B3174642B386
:1045D00094F841002168086820F0FC00086094F815
:1045E0004000012804BF0220BDE8F08101201E46E2
:1045F00084F8400094F8412094F84100292A13D10E
:1046000000F028006FF0F202282808BF6FF0420285
:10461000086810400860A06B80B10A6822F48042EC
:1046200009E04FF4007062E02A2807D1E06B28B15E
:104630000A6822F400420A60FDF78BFB2A204FF043
:10464000000884F84100202084F84200C4F8448027
:104650002168486820F400404860678548F2D747E1
:104660006562C0F602076763638DE6622385E06BCF
:1046700098B347F6572247F685362431C0F602062E
:10468000C0F60202C0E90B68C0E90D282A46FDF712
:1046900042FC208DA4F82880FC23618D081A6085D7
:1046A00021688869C0035CBF0820C861002084F8C5
:1046B0004000626BBA4248F25D17C0F6020708BFBD
:1046C000B823BA4208BFB8230A681A430A600A68C6
:1046D00042F400420A60BDE8F081282084F84100DD
:1046E00084F8428084F84080606C40F08000606410
:1046F0000120BDE8F081F0B581B0044690F841009A
:1047000000F02800282813D10E4671B1174662B177
:1047100094F841002168086820F0FC00086094F8D3
:104720004000012807D1022003E04FF400706064CC
:10473000012001B0F0BD01201D4684F8400094F82E
:104740004100292815D194F841006FF0F20200F0E1
:104750002800282808BF6FF042020868104008604F
:10476000A06B30B10A6822F480420A60FDF7F1FACA
:1047700021682A2084F84100202084F8420000208B
:1047800060644A6822F400424A6048F2C152678578
:104790006662C0F602026263628DE56222858A6902
:1047A000D2035CBF0822CA6184F840000A6842F064
:1047B000FC020A60BDE72DE9F041044690F8410093
:1047C00000F02800282840F08A800D4651B3174693
:1047D00042B394F84000012804BF0220BDE8F081F4
:1047E00001201E4684F8400094F8410021680868C2
:1047F00020F0FA00086094F8412094F841002A2A39
:1048000013D100F028006FF0F402282808BF6FF0E1
:104810004402086810400860E06B80B10A6822F426
:10482000004209E04FF4007058E0292807D1A06B3E
:1048300028B10A6822F480420A60FDF78AFA29202A
:104840004FF0000884F84100202084F84200C4F8AA
:1048500044802168486820F40040486048F2D7400E
:1048600067856562C0F602006063638DE66223853A
:10487000A06B48B347F6572247F6B337C0F6020796
:10488000C0F60202C0E90B78C0E90D2801F1280248
:104890002946FDF740FB208DA4F82880618D081A79
:1048A000608521688869C00344BF0820C861002072
:1048B00084F840000A6842F0B8020A600A6842F4CC
:1048C00080420A60BDE8F081282084F8410084F825
:1048D000428084F84080606C40F080006064012079
:1048E000BDE8F081F0B581B0044690F8410000F0D9
:1048F0002800282813D10E4671B1174662B194F8EA
:1049000041002168086820F0FA00086094F840002F
:10491000012807D1022003E04FF4007060640120F9
:1049200001B0F0BD01201D4684F8400094F841001C
:104930002A2815D194F841006FF0F40200F0280005
:10494000282808BF6FF04402086810400860E06B38
:1049500030B10A6822F400420A60FDF7FAF92168D2
:10496000292084F84100202084F84200002060645F
:104970004A6822F400424A6048F2C1526785666282
:10498000C0F602026263628DE56222858A69D20303
:1049900044BF0822CA6184F840000A6842F0FA0263
:1049A0000A60BDE72DE9F04182B0044690F841006D
:1049B000202807D10E4639B117462AB194F8400095
:1049C000012805D102262AE04FF40070606425E03A
:1049D00001201D4684F84000FDF76DFE8046212031
:1049E00000222B4684F84100202084F84200002059
:1049F000606466626063678508262068416821F408
:104A00000041416020460821CDF8008003F062FE9D
:104A1000216840B1486840F40040486001263046B3
:104A200002B0BDE8F081CE61E06802280CD12046DA
:104A3000082100222B46CDF80080082603F04AFE0C
:104A400021680028E6D1CE6120464FF48031002253
:104A50002B46CDF8008003F03DFEA8B120684168E8
:104A600041F400414160D9E720462946424603F01F
:104A7000CBFE21680028CDD1606A421C62620078BA
:104A80008862608D01386085608D0028ECD12046F9
:104A90002946424603F094FE216840B1486840F43C
:104AA00000404860606C0428B8D100206064202772
:104AB000204601222B460126CF614FF40041CDF85C
:104AC000008003F007FE216800284A6842F4004293
:104AD0004A60A4D1002684F8417084F8406084F8CC
:104AE00042609CE710B5044690F84100202805D1AB
:104AF00031B12AB194F84000012806D1022010BD3E
:104B00004FF400706064012010BD21204FF0000CB4
:104B100084F84100202084F842000120C4F844C0F9
:104B2000628584F8400048F2D7406162C0F6020016
:104B300060630020638DCFF6FF70E0622385A06B79
:104B4000F8B147F6572E47F6B332C0F60202C0F668
:104B5000020EC262C0F830C0C0F834E0C0F838C0FD
:104B600022682832FDF7D7F9B0B1282084F8410037
:104B7000002084F8420084F84000606C40F010008F
:104B8000C0E7282084F8410084F842C084F840C07F
:104B9000606C40F08000B5E72168486820F4004070
:104BA0004860002084F840000A6842F0B8020A60B9
:104BB0000A6842F480420A6010BD80B5864690F8CB
:104BC0004100202803D19EF84000012801D1022095
:104BD00080BD21208EF8410020208EF84200002068
:104BE000CEF84400DEF800C0DCF8043023F40043C3
:104BF000CCF80430AEF82A20CEF8241048F2C15187
:104C00000022C0F60201CFF6FF72CEF834108EF803
:104C10004000BEF82A10CEF82C20AEF82810DCF8A0
:104C2000001041F0FA01CCF8001080BD80B50320DF
:104C300000F0A0F8002000F004F800F00BF80020CD
:104C400080BD80B540F26830C2F200000068804745
:104C5000002080BD80B582B041F25800C4F202004D
:104C6000816841F001018160816801F001010191D9
:104C70000199016841F080510160006800F08050A6
:104C800000900098032000F075F86FF00B000021F1
:104C9000002200F041F86FF00A000021002200F02D
:104CA0003BF86FF009000021002200F035F86FF0AA
:104CB00004000021002200F02FF86FF00300002113
:104CC000002200F029F86FF001000021002200F01E
:104CD00023F84FF0FF300021002202B0BDE88040F1
:104CE00000F01AB800F01F010122400902FA01F198
:104CF0004EF28012CEF2000242F82010704700F00F
:104D00001F010122400902FA01F14EF20012CEF217
:104D1000000242F82010704780B500F160434EF663
:104D20000C5E002803F5644C00F00F03CEF2000E79
:104D3000A3F104037344B8BF03F10C0CDEF80000C8
:104D40004FF0FF3EC0F30220C31E80F0070038BFC3
:104D50000023042828BF04200EFA00F021EA0000F6
:104D60000EFA03F1984022EA0101084300018CF891
:104D7000000080BD4EF60C514FF6FF03CEF200014D
:104D80000A681A4060F30A2242F0806040F0FD7029
:104D9000086070470121C0F86C140068B0F8581022
:104DA00041F00101A0F85810B0F8581041F002018C
:104DB000A0F85810002070470121C0F868140021A5
:104DC00080F860140068B0F8541041F00101A0F8B8
:104DD0005410B0F8541041F00201A0F85410002013
:104DE0007047B0B5ADF5287D0D4642F2101104466E
:104DF00001A84FF42772C2F20001FBF715FE35B986
:104E0000D4F86C04012802D101A805F0E7FC0DF5E7
:104E1000287DB0BD10B50446012911D0F1B9A069B3
:104E200048B104F06EFD4EF61050CEF2000001685D
:104E300021F006010160D4F8700405F01EFC10BDDD
:104E4000D4F8700405F091FCA06938B14EF610500A
:104E5000CEF20000016841F00601016010BD80B58E
:104E600001F00F0E00EB411C090600EB4E1000F1A3
:104E7000280058BF0CF50A702AB101210381017383
:104E8000190C418102E00021C3800173002080BD24
:104E900000EB4112D0F87004D26B05F093BA00EB2E
:104EA0004112D0F87004D2F83C2205F0EABA10B5ED
:104EB000044601F00F00090607D404EB401100225C
:104EC00081F8292201F50A7105E004EB4011012265
:104ED00081F829202831087094F82804012804BF9B
:104EE000022010BD012084F82804206805F0BBFFD3
:104EF000002084F8280410BDB0B5044601F00F006E
:104F00006268904201D9012520E0090607D404EB2C
:104F10004011002281F8292201F50A7105E004EB15
:104F20004011012281F829202831002508708D7058
:104F300094F82804012801D1022507E0012084F813
:104F40002804206806F045F884F828542846B0BDA7
:104F500001F00F0100EB4110B0F84402704710B5AA
:104F6000044601F00F00090604EB401C05D40021A3
:104F70008CF829120CF50A7104E001218CF8291033
:104F80000CF128010A61CB7008704A7802B1C8811F
:104F9000022B04BF0020087194F82804012804BFE4
:104FA000022010BD012084F82804206805F04CFE82
:104FB000002084F8280410BD80B501F00F0C4FF0DC
:104FC000000E00EB4C1101F50F7787E80C4081F8DB
:104FD00029E281F828C201F50A71006806F046F856
:104FE000002080BDB0B50446406801F00F05854241
:104FF00084BF0120B0BD080607D404EB4110002196
:1050000080F8291200F50A7106E004EB4510012131
:1050100080F8291000F1280101200D70887094F8A3
:105020002824012A04BF0220B0BD84F82804206887
:1050300006F004F825B9206804F5866105F0C7FF7D
:10504000002084F82804B0BD80B501F00F0C00EBFF
:105050004C1101F828CF4FF0000C01F1140E8EE82E
:105060000C1001224A70006806F000F8002080BD94
:105070002DE9F04F81B00446006806F0F0F80146D3
:105080002068090440F17A81B0F94410B1F1FF3F82
:1050900000F3748104F5866100250091B0F8442086
:1050A00012F00F0B2ED030F82B904FEA4B085FEA2E
:1050B000094140F10B8130F8181040F68F7204EB73
:1050C0004B1707F50A7A114020F8181097F8341298
:1050D000002900F082809AF8001030F82120B0F802
:1050E000503000EBC1011944520400F18C80B1F83A
:1050F00006646FF39F26002E00F0AE80B7F83222D0
:1051000088E000BF0188D2062AD448F60F72114009
:105110000180B0F85010084494F8281000EBC1004A
:10512000B0F802046FF39F206064E16B0844002133
:10513000E0632046FFF7ACFE94F82400002800F05E
:105140001781206C002840F01381206894F8241007
:1051500041F08001C9B2A0F84C1084F8245007E156
:105160000A055DD4090440F10381018840F68F727D
:1051700011400180B0F8501094F82822014401EB4E
:10518000C201B1F806346FF39F23002BC4F84432F8
:105190000CD0B4F82E22D4F83C1206F063F8D4F800
:1051A0003C02D4F844120844C4F83C0220460021D2
:1051B000FFF775FE2068B0F85010D4F8383200F2CE
:1051C0000642002B00F0B5803D2B00F2BC8003F0BE
:1051D000010707EB53039B02BEE0B0F850109AF8AA
:1051E0000020014401EBC201B1F806646FF39F2671
:1051F000002E00F09C80B7F82E22D7F83C123346E0
:1052000006F030F836E0B1F802646FF39F261EB363
:10521000B7F83022D7F83C12334606F023F81CE0EA
:10522000B0F8501094F82822014401EBC201B1F803
:10523000063400996FF39F23C4F84432B4F82E2249
:1052400006F010F8206840F68F7201881140018046
:10525000204600F037FA8BE000269AF8000021681B
:1052600040F60F7331F820201A4048F2C0031A4369
:1052700021F82020D7E98F10D7F844223244314456
:105280000028C7F84422C7F83C1203D0D7F83822C8
:10529000B24205D99AF800102046FFF700FE15E04B
:1052A0009AF80020002502F00F0204EB4213C3E934
:1052B0008F10002003F50A71C3F8440283F8290215
:1052C00083F82822206805F0D1FE00BF5FEA09605C
:1052D0004ED5206848F60F7204EB4B1330F81810C7
:1052E000114020F81810B0F85010421893F8281008
:1052F00002EBC102B2F802246FF39F225A64DF6B03
:105300003A44DA631B6C73B101F00F0704EB4711E9
:1053100001F8287F01F1140C8CE82C0001224A705E
:1053200005F0A4FE24E02046FFF7B2FD20E00026B1
:10533000A0E78B5A43F2FF373B4048F20007CFF615
:10534000FF773B4308E048F20007CFF6FF7747EAD4
:10535000431340F2FF37BB438B5243F60F72018871
:10536000114048F2C00202F53F525140018000BF97
:105370002068B0F944100029FFF690AE05F06FFFE9
:10538000400519D52068B0F8441021F48061A0F8D8
:105390004410204600F05DF994F8280401280BD051
:1053A00000250120002184F8245084F82804206876
:1053B00005F07EFF84F82854206805F050FF014670
:1053C0002068490442BFB0F8441021F48041A0F89D
:1053D000441005F044FF01462068890442BFB0F83C
:1053E000441021F40051A0F8441005F038FF0146A4
:1053F0002068C90420D5B0F8401021F00401A0F8BD
:105400004010B0F8401021F00801A0F8401094F8C6
:105410006004012806D10020002184F860042046A1
:10542000FFF7F8FC204600F021F92068B0F844109E
:1054300021F48051A0F8441005F011FF000519D5A2
:105440002068B0F8401041F00801A0F84010B0F812
:10545000441021F40061A0F84410B0F8401041F06D
:105460000401A0F8401005F0FAFEC00402D4204662
:1054700000F044F9206805F0F2FE000627D5206808
:10548000B0F8441021F08001A0F8441094F86014A2
:1054900019B1204600F032F919E0B0F8401041F09F
:1054A0000401A0F84010B0F8401041F00801A0F845
:1054B0004010012184F860143C21B0F8540001EA46
:1054C00090000121C4F864042046FFF7A3FC206883
:1054D00005F0C5FE800509D52068B0F8441021F418
:1054E0000071A0F84410204600F0D4F8206805F0C0
:1054F000B6FEC00506D52068B0F8441021F48071CE
:10550000A0F8441001B000F000B830BCBDE8C08F76
:10551000002869D0F0B585B0044690F8290428B970
:10552000002084F82804204600F060F8032084F866
:105530002904206805F042FD94E82F50D4E907675C
:105540008DE82050CDE9036705F08BFC2068002131
:10555000002505F0ABFE0120002100226318203158
:1055600083F8282083F82900DA86013283F82B504B
:10557000C3E90E551D640F2AF0D10020002100223E
:105580006318203183F82822013283F8290283F836
:105590002B02C3E98E00C3F840020F2AF0D194E831
:1055A0008F00D4E90565D4E907CECDE9007602AED7
:1055B00086E8205005F0EFFC002084F8240001204C
:1055C00084F82904E069012802D12046FFF7F4FBA2
:1055D000206A012802D12046FFF7DCFB206805F095
:1055E000D2FC002005B0F0BD0120704746F6000156
:1055F0000068C4F20001884218BF704780B586B0C9
:10560000022001A902904FF4C050019000200390A5
:10561000032004900A2005904FF09040FCF768FFAB
:1056200041F258000022C4F20200016841F080619A
:1056300001600021006800F0806000900098432025
:10564000FFF76AFB4320FFF75AFB06B0BDE8804036
:10565000704710B50446D0F87004012105F021F818
:10566000D4F87004BDE8104004F0DDBF10B5044666
:10567000806948B14EF61050CEF20000016821F06A
:105680000601016004F03DF9D4F87004BDE8104053
:1056900004F0F3BFD0F8700404F0F5BF10B5044671
:1056A00090F82804012804BF022010BD012084F8CE
:1056B000241084F82804206805F0FAFD002084F8FE
:1056C000280410BDD0F8702400F58661104604F05F
:1056D000FDBF10B5044690F82804012804BF02203D
:1056E00010BD012084F82804206805F044FC2068DF
:1056F00005F0A6FD002084F8280410BD10B504466E
:10570000D0F8700405F031F8A06938B14EF61050A9
:10571000CEF20000016841F00601016010BD0000FA
:1057200047F20001B0F5007FC4F200010A6802F4FC
:10573000C0622CD1B2F5007F31D00868012262F33B
:105740004A2044F24022086040F24C10C0F20F029E
:10575000C2F200000068904213D34DF68362C4F297
:105760001B32A0FB0202900C322210FB02F0C0F1AF
:10577000010000BF4A69520503D5421C00281046AB
:10578000F8D14869400544BF0320704707E0B2F5EF
:10579000806F04D00868022262F34A20086000206B
:1057A000704747F20400C4F20000016841F48061D0
:1057B0000160704747F20000C4F20000006800F486
:1057C000C06070472DE9F04381B00446407841F253
:1057D0000C07C4F2020700071AD5E06C60B1B0F5FF
:1057E000400F10D0B0F5000F70D1386840F4803011
:1057F00038604FF4000006E0201D002103F0AAFBF2
:10580000814638B9E06CF96F21F440010843F8672C
:105810004FF00009A07880076CD5F86CC0000BD45D
:10582000F86C4FF0010840F08050F864F86C00F01C
:1058300080500090009801E04FF0000847F200050A
:10584000C4F20005286840F480702860FCF733FF3C
:10585000064600BF2868C00507D4FCF72CFF801B54
:105860000228F7D94FF003093DE0B9F1000F3AD112
:10587000D7F8840010F440702BD0616E884211D0AC
:10588000D7F88400D7F8841041F4803120F44070B8
:10589000C7F88410D7F8841021F48031C7F8841039
:1058A000C7F88400C00714D0FCF705FF064641F294
:1058B00088354FF0030900BFD7F88400800708D46B
:1058C000FCF7F9FE801BA842F6D90CE04FF0010965
:1058D000A0E7D7F88400616E4FF0000920F4407013
:1058E0000843C7F88400B8F1000F1EBFF86C20F021
:1058F0008050F8642068C10705D0F96F226A21F052
:1059000003011143F967810705D5F96F626A21F038
:105910000C011143F967410705D5F96FA26A21F01F
:1059200030011143F967010705D5F96FE26A21F0EB
:10593000C0011143F967810605D5F96F226B21F487
:1059400040611143F967810505D5F96F626C21F457
:1059500040211143F967410505D5F96FA26C21F487
:1059600040111143F967410605D5F96F626B21F4C7
:1059700040511143F967010605D5F96FA26B21F477
:1059800040411143F967C10505D5F96FE26B21F478
:1059900040311143F967C10207D5D7F89010226C46
:1059A00021F003011143C7F89010810419D5FA6F53
:1059B000216D22F04062B1F1806F42EA0102FA6784
:1059C00007D0B1F1006F0CD1396841F48011396012
:1059D00007E0201D012103F0BDFA002818BF814611
:1059E0002068010319D5FA6F616D22F04062B1F1B0
:1059F000806F42EA0102FA6707D0B1F1006F0CD163
:105A0000396841F48011396007E0201D012103F05D
:105A1000A1FA002818BF81462068410319D5FA6F02
:105A2000A16D22F04062B1F1806F42EA0102FA6793
:105A300007D0B1F1006F0CD1396841F480113960A1
:105A400007E0201D012103F085FA002818BF8146D8
:105A50002068410411D5F96FE26D21F04051B2F197
:105A6000805F41EA0201F96707D1201D022103F09E
:105A700071FA002818BF81462068C00305D5F86F69
:105A8000216E20F000400843F867484601B0BDE8A9
:105A9000F08300002DE9F04381B0002800F09C80E5
:105AA00042F2000804460D46C4F20208D8F800008D
:105AB00000F0070088420DD2D8F8000020F007005F
:105AC0002843C8F80000D8F8000000F00700A842FA
:105AD00040F08280206841F20809C4F20209C1073F
