:020000040802F0
:1000000068700120AD040208B5040208B7040208B4
:10001000B9040208BB040208BD0402080000000085
:10002000000000000000000000000000950302082E
:10003000C104020800000000350402089904020807
:10004000C7040208C7040208C7040208C70402085C
:10005000C7040208C7040208C7040208C70402084C
:10006000C7040208C7040208C7040208C70402083C
:10007000C7040208C7040208C7040208C70402082C
:10008000C7040208C7040208C7040208EF210208D7
:1000900069210208C7040208E9210208C70402080E
:1000A000B52F020805300208DD2F0208C704020838
:1000B0004D3002087130020899300208C704020866
:1000C000C7040208C7040208C7040208792C020802
:1000D0007F2C0208C7040208C7040208C7040208EC
:1000E000C7040208C7040208C7040208393102081D
:1000F0008931020861310208C7040208C7040208F6
:10010000C7040208C7040208C1300208852C02088F
:10011000C7040208C7040208E930020811310208C6
:10012000C7040208C7040208C7040208C70402087B
:10013000C704020851270208C70402087B220208EC
:10014000F5210208C704020875220208C704020844
:10015000C7040208C7040208C7040208C70402084B
:10016000C7040208C7040208C7040208C70402083B
:10017000C7040208C7040208C7040208C70402082B
:10018000C7040208C704020800F002F800F0B8F83B
:100190000AA090E8000C82448344AAF10107DA45E2
:1001A00001D100F0ADF8AFF2090EBAE80F0013F07C
:1001B000010F18BFFB1A43F001031847B88D020066
:1001C000D88D02000023002400250026103A28BF05
:1001D00078C1FBD8520728BF30C148BF0B607047B9
:1001E0001FB524F07DFD9DE8030001F077FD1FBDE4
:1001F00010B510BD03B4FFF7FBFF03BC01F08AFF8D
:100200000202014ADF57CC7D000002080000040012
:1002100000000020C0FF01000000000000000000FE
:100220000761454D53303367656E30340000000080
:1002300001000100010000004558540000000000CA
:100240004D617920313220323031352031343A332A
:10025000373A3332000000000000000000000000C8
:10026000000000000000000000000000000000008E
:10027000000000000000000000000000000000007E
:100280000A444FF0000C10F8013B13F0070408BFBC
:1002900010F8014B1D1108BF10F8015B641E05D05A
:1002A00010F8016B641E01F8016BF9D113F0080F0F
:1002B0001EBF10F8014BAD1C0C1B09D16D1E58BFA1
:1002C00001F801CBFAD505E014F8016B01F8016BD8
:1002D0006D1EF9D59142D6D3704703681B0A28BF1B
:1002E00041F08001642901F0F981782901F07082E0
:1002F000E42901F02F82732901F043860020704722
:1003000001F0AFFE1146FFF76BFF1BF0B3F901F0F0
:10031000CDFE0000004870470020000000487047F4
:1003200000200100401EFDD17047000080F30988C5
:100330007047EFF309807047684680F309880448E6
:100340000078C00714BF0220032080F31488704790
:1003500010060020DFF818C0EFF305831B0618BF56
:100360006047EFF31483DB0708BF604700DF704787
:1003700055DB0308DFF818C0EFF305831B0618BF31
:100380006047EFF31483DB0708BF604700DF704767
:10039000CDDB0308EFF30980816911F8021C99BBDA
:1003A00090E80F1010B5E047BDE81040EFF3098C5E
:1003B0008CE807001C4B93E80600914208BF704789
:1003C00081B11EF0100F06BF2CED108A0120002015
:1003D00081F838002CE9F00FC1F83CC00CB41EF0D5
:1003E000D5FF0CBC1A60D2F83CC0BCE8F00F92F804
:1003F000380000281ABFBCEC108A6FF0120E6FF0A4
:10040000020E8CF30988704710B5084A12689142B1
:1004100009D8074C54F8214090E80F10A047EFF39B
:10042000098C8CE80F0010BDD8040020642102085C
:100430006421020810B51EF0A7FEBDE81040154B60
:1004400093E80600914208BF7047EFF3098C1EF055
:10045000100F06BF2CED108A0120002081F8380013
:100460002CE9F00FC1F83CC00CB41EF08FFF0CBC9F
:100470001A60D2F83CC0BCE8F00F92F838000028AF
:100480001ABFBCEC108A6FF0120E6FF0020E8CF3E4
:1004900009887047D804002010B51EF09BFFCCE7F8
:1004A00010B51CF01BF91EF095FFC6E70948804700
:1004B00009480047FEE7FEE7FEE7FEE7FEE7FEE746
:1004C000FEE7FEE7FEE7FEE704480549054A064B5E
:1004D000704700004D2F0208890102086830002093
:1004E000687001206850012068500120F7B514465B
:1004F0006E46002914BF0125002588480078E8B120
:1005000000F07AFA2946304603F044F9C5B2012CCE
:100510000DD183480099834CC0F82610014620680D
:100520004022001D01F070FA206800F03DFE00F04E
:100530006DFA012D02BF002003B0F0BD4FF0FF3077
:1005400003B0F0BD38B56C460090002914BF0125FA
:1005500000257248007860B100F04EFA2946204626
:1005600003F018F9C4B200F051FA012C04BF0020C6
:1005700038BD4FF0FF3038BD2DE9F34767480D46D1
:10058000E94600784FF0FF37F0B1674E3088D8B1B8
:1005900000F032FA30880024002888BFDFF88C8110
:1005A0000FD900BFC4EBC40008EB40000422494649
:1005B0000A3001F0FDF960B1601CC4B23088844299
:1005C000F0D300F023FA11E002B04FF0FF30BDE8A5
:1005D000F087C4EBC40008EB4000041D00F016FADD
:1005E00000271DB120682860A088A88002B0384686
:1005F000BDE8F0872DE9F1434848E8464FF0FF3663
:100600000078E8B1484D2888D0B100F0F5F9288885
:100610000024002888BF454F0FD900BFC4EBC40099
:1006200007EB4000042241460A3001F0C1F958B1FD
:10063000601CC4B228888442F0D300F0E7F919E0C6
:100640004FF0FF30BDE8F883C4EBC40007EB400077
:10065000041D00F0DBF906223549204601F0A8F917
:1006600058B106223349204601F0A2F9002818BFEC
:10067000002602D03046BDE8F8834FF0FF36F9E798
:10068000002070470020704710B5254CFF21204600
:1006900002F0CDFE28484FF4C1634FF0080C016909
:1006A000C4F80610828A6281A3814FF48073E381CB
:1006B000A4F810C04FF0060C84F812C04FF0040CE0
:1006C00084F813C0A382C4F8161062838069E061C5
:1006D00004F1200002F0A7FE0020C4F82600C4F8B0
:1006E0002A00C4F82E00C4F83200C4F836000D4ABF
:1006F000C4F83A00E08704F1400111602A220A8020
:10070000488010BD90F82010202984BF4FF0FF30A2
:10071000704710B500F0F3FC002010BD3404002039
:10072000C40F00202C04002092040020201300207D
:10073000D4680408DA68040848100020B84A126F28
:1007400002B11047FEE770B50C46B8B10546FFF799
:1007500097FF0646284600F091FC0644284600F024
:1007600029FA0644284600F06CFA0644284600F0B0
:1007700067FC3044002C18BF206070BDE120A84AFF
:10078000A8A1126F12B19047002070BDFEE710B50E
:10079000A34C606F002808BF10BD80470028AB49FC
:1007A000086018BF10BDE020226FA9A112B1BDE8FA
:1007B00010401047FEE770B5A44D416F81B1816FC5
:1007C000974C00291FBFC16F0029D0F88000002876
:1007D0000DD0606F002818D08047286080B114E0E9
:1007E00000218167C167C0F8801029600DE0226F89
:1007F000E320A7A11AB190474FF0FF3070BDFEE78C
:10080000226FE02092A112B19047002070BDFEE758
:1008100010B5D821824801F0DAF98C49002008602F
:1008200010BD2DE9F0417E4C8846050007D02A6FA7
:100830002267287850B1E420A0A132B12EE0226FC7
:10084000E120ABA1002A29D1FEE7FEE7B1480078FC
:10085000012804D02846FFF755FF20B11AE0E02018
:10086000ADA1DAB9FEE7D8216D4801F0B0F9774FB4
:10087000002628463E6000F01EFC58B9284600F0CD
:100880009FF938B9284600F0E2F918B9284600F077
:10089000DDFB40B1AA49226FE3205AB190474FF0E7
:1008A000FF30BDE8F08141462846FFF7EBFE002807
:1008B00075D100E0FEE72846FFF7E2FE20F00300D6
:1008C00080444146284600F0DBFB002867D12846DB
:1008D00000F0D4FB20F0030080444146284600F09D
:1008E0006BF900285BD1284600F064F920F0030082
:1008F00080444146284600F0A6F900284FD12846FA
:1009000000F09FF920F0030000EB0801284600F0FA
:1009100099FB002843D1284600F092FBD8222946B3
:100920003F4801F0F8F83E4D2846FFF7ADFE00289D
:1009300035D1686F60B1A96F00291FBFE96F002929
:10094000D5F88010002909D08047386068B111E0DF
:10095000AE67EE67C5F880603E600BE0226FE32073
:100960004BA10AB190471AE0FEE7226FE02038A1C0
:100970002AB19047284600F085FB80B900E0FEE7E9
:10098000284600F01BF950B9284600F05EF930B94E
:10099000284600F059FB002808BFBDE8F0814FF061
:1009A000FF30BDE8F08170B504000D4616D0FFF7AA
:1009B00067FE0646204600F061FB0644204600F034
:1009C000F9F80644204600F03CF90644204600F0C1
:1009D00037FB3044002D18BF286070BDE120104A5D
:1009E00010A1126F12B19047002070BDFEE718E70A
:1009F000002070470020704714480068002808BF96
:100A00007047074AD2F88010926F10470F4800686D
:100A1000002808BF70470249C96F0847006870473F
:100A2000481000206970616C5F626173655F6D657D
:100A30006D6F72795F67657473697A652829206EB6
:100A400065656473206120636667000030040020E0
:100A50006970616C5F626173655F6869645F746827
:100A6000726561647361666574795F696E69742823
:100A7000293A2063616E6E6F7420616C6C6F6361E4
:100A8000746520746865206D7574657800000000D9
:100A90006970616C5F626173655F696E69746961D9
:100AA0006C6973652829206E65656473206F7361B6
:100AB0006C2066756E6374696F6E73006970616C2B
:100AC0005F626173655F696E697469616C697365A2
:100AD00028293A20756E737570706F727465642082
:100AE0007463702F697020737461636B0000000081
:100AF0006970616C5F626173655F696E6974696179
:100B00006C69736528293A206D697373696E672073
:100B100063666700340400206970616C5F62617312
:100B2000655F696E697469616C69736528293A202B
:100B3000616C7265616479207374617274656400BC
:100B4000548E040831B524486C46007838B12348E7
:100B500090F82C0018B19DF80000EF2802D04FF05B
:100B6000FF3038BDFFF748FF20461AF0D9F80028BB
:100B700014BF00244FF0FF34FFF748FF204638BD74
:100B800031B515486C46007888B1144890F82C00AF
:100B900068B1FFF731FF20461AF0EAF800280CBFD1
:100BA0004FF0FF340024FFF731FF204638BD4FF0EF
:100BB000FF3038BD0020704700207047002070478C
:100BC00090F82D10062984BF4FF0FF30704710B504
:100BD00000F016FB002010BD340400204810002057
:100BE000224810B5406848B12148017801290CD04D
:100BF000012101701AF026FB002010BD1DA1E1208B
:100C0000FFF79CFD4FF0FF3010BD24A1E020FFF75F
:100C100095FD4FF0FF3010BD10B5FFF7EDFE1AF057
:100C20003DFDBDE81040FFF7F1BE10B5FFF7E4FE53
:100C300023F048FCBDE81040FFF7E8BE0B484068D1
:100C400070470020704700207047002070470189DE
:100C5000B1F5C05F84BF4FF0FF30704710B5002181
:100C6000034A117000F024FB002010BD4810002042
:100C7000340400206970616C5F7379735F73746111
:100C8000727428293A206D697373696E6720636FE7
:100C90006E66696775726174696F6E006970616C08
:100CA0005F7379735F737461727428293A2063618A
:100CB0006E6E6F7420737461727420616761696E07
:100CC0000000000008B1062801D900207047F0B5E7
:100CD00015460A46E64900EB400085B001EBC0002E
:100CE000A0F1180450F8080C0A9F1E4698B110464F
:100CF000FFF794FE0346E06820B1984204BF2089C4
:100D0000A84208D10396ADF808700095D4E904C054
:100D100002AA2146E04705B00020F0BD4107090EB8
:100D2000C0F3C00241EA0211C0F3001210B541EA5B
:100D3000C201C0F3401041EA8004CE480078002888
:100D400008BF10BDFFF758FECB4A0121204623F013
:100D5000E9FBC0B1C64900EB400201EBC20404F854
:100D6000180C002024F8160C44F8140C24F8100C6D
:100D700044F80C0C44F8080C44F8040CFFF746FE49
:100D8000A4F1180010BDFFF741FE002010BD70B5A2
:100D900004001CBF2078002821D0FFF72DFE6088BA
:100DA000002518B1207823F09FFB6580207823F080
:100DB0001BFC06462078AE4900EB400001EBC0006A
:100DC00000F8185C2570658065602581E560256107
:100DD0006561FFF71BFE002E1CBF002070BD4FF0A9
:100DE000FF3070BD70B515460E4604001DBF20785B
:100DF0000028002D4FF0FF3008BF70BDFFF7FCFD4D
:100E0000608820B1207823F06FFB00206080984933
:100E1000002000BF00EB400201EBC2025288AA4250
:100E200010D0401CC0B20628F4D32078294623F005
:100E30009DFB10F0FF0F05D065806660FFF7E6FDB3
:100E4000002070BDFFF7E2FD4FF0FF3070BD2DE9CF
:100E5000F04790460F46040019BF207800284FF055
:100E6000FF30BDE8F087FFF7C7FD608850BB2078F2
:100E700000264546002818BF002D2DD0FFF7BCFDE9
:100E800060884FF0000920B1207823F02DFBA4F8F2
:100E900002907749002000BF00EB400201EBC20244
:100EA0005288AA4216D0401CC0B20628F4D320783B
:100EB000294623F05BFB10F0FF0F0BD065806660C6
:100EC000FFF7A4FDA4F80880E760FFF79FFD00206E
:100ED000BDE8F087FFF79AFDFFF798FD4FF0FF3070
:100EE000BDE8F08710B5040019BF207800284FF046
:100EF000FF3010BDFFF780FD00202081E060FFF78C
:100F000085FD002010BD2DE9FF4182B098460C46BA
:100F1000050004AF1CBF2878002828D06888002866
:100F200018BF002C23D0606800281CBF2088002830
:100F30001DD0FFF761FD208823F0ECFA06001BD0DE
:100F40002288616800F060FD208800902878334690
:100F50004246394623F060FB00280CBF4FF0FF34B7
:100F60000024FFF753FD06B02046BDE8F08106B02F
:100F70004FF0FF30BDE8F081FFF748FD06B04FF0BD
:100F8000FF30BDE8F0812DE9F04383B00C46050049
:100F90001CBF688800283CD0E86800281CBF28894E
:100FA000002836D0FFF728FDE86801902878B5F8CA
:100FB00008900DF104084FF0FF3600281CBF688828
:100FC000002820D0002C1FBF60680028208800283F
:100FD00019D0FFF711FD208823F09CFA070010D0EC
:100FE0002288616800F010FD2088009028783B4638
:100FF0004A46414623F010FB00280CBF4FF0FF3655
:101000000026FFF703FDFFF701FD03B03046BDE802
:10101000F08303B04FF0FF30BDE8F083002812BF2B
:1010200000294FF0FF30704770B516460D46044654
:10103000FFF7E2FCC4E90456FFF7E8FC002070BDAE
:1010400000207047002070470020704710B504460C
:1010500090F83000062884BF4FF0FF3010BD90217B
:10106000034800F0B4FD204600F087F9002010BDD1
:101070002011002034040020C50C02080020704715
:101080000020704710B5D0F88C1000291CBFD0F894
:101090009010002908D0D0F8941000291FBFD0F874
:1010A00098000028002010BD05A1E120FFF746FBB5
:1010B0004FF0FF3010BD10B500F093F8002010BDC8
:1010C0006970616C5F6574685F6869645F696E69A7
:1010D0007428293A206D697373696E672065746896
:1010E0002066756E6374696F6E730000A94890F88E
:1010F0002200012818BF7047002002F06DBC10B517
:1011000004464FF4E071A44800F061FDA34894F850
:101110002010C180A249626AB2FBF1F2028194F808
:1011200021200270A26AB2FBF1F14170002010BDD3
:101130009848D0F89C00002808BF70470047002955
:101140001CBF0020704715F04FB810B5954A84B009
:101150009069D2E90812CDE902128E4A0090907A85
:101160008DF8000090480190904890F803C0818865
:101170004FEA1C230B4381784FEA0C6C4CEA014C7C
:101180004478007843EA11414CEA042C41EA1461A6
:101190004CEA0000CDE90201D2F88C10684688477D
:1011A0007E49487104B010BD7A49D1F898100847BB
:1011B00010B5784CD4F890008047D4F88800002807
:1011C00008BF10BDBDE81040004710B5714CD4F801
:1011D0008400002818BF8047D4F89400BDE8104070
:1011E00000476E4902694A61808A0883002070477F
:1011F000684991F82C10012918BF70471CF0B8BB42
:10120000654A0021664BC2F8C011C2F8C411C2F889
:10121000C811C2F8CC11C2F8D011C2F8D411C2F86A
:10122000D811C2F8DC11C2F8E01142685B49B3FB87
:10123000F2F290F82D00488192B24CF6CD40504326
:10124000800C887000207047062806D2584901EBB0
:101250004011F030C0B2FFF771BA56A1E020FFF79D
:101260006DBA10B51AF01EF84A4C94F82C000128FB
:1012700008BF1AF029F894F82F00012808BF1AF0C7
:101280004BF894F82200012818BF10BD0020BDE8DB
:10129000104002F0A1BB10B51EF062F93D4890F875
:1012A0002C00012818BF10BDBDE810401EF0B0B9D9
:1012B0002DE9F041384D00260446C5F8E461C5F833
:1012C000E861C5F8EC61C5F8F061C5F8F461C5F8EE
:1012D000F861C5F8FC61C5F80062C5F80462C5F89C
:1012E0000862C5F80C62C5F81062C5F81462C5F84A
:1012F00018624FF4C05105F50870C5F81C6200F083
:1013000066FC05F5C0572548C7F82862C7F82C6267
:10131000C681A169C5F8E411E169C5F8EC1105F5CC
:10132000F271C0220A73A8234B738E734FF0FE0C28
:1013300081F80FC00A744B748E7481F813C00A715F
:101340004B71184A8E7181F807C0D2E90012C7E9C3
:1013500088120121C17021890161114A6168B2FBC3
:10136000F1F181810020BDE8F0810A4991F82F1048
:10137000012918BF70471CF03BBB10B5044648213B
:10138000124800F024FC054894F830100171002048
:1013900010BD000048100020201300208C04002005
:1013A00040420F007869040880690408A004002006
:1013B000A0690408756E6B6E6F776E207379737415
:1013C000656D206572726F7200000000502D002064
:1013D000004870470430002070B5A0FB0140B4F114
:1013E000805170F1000024BF002070BD204600F045
:1013F000E9FC05001CBF214600F0C7FB284670BD74
:1014000070B516460D46041F002808BF70BD002E9B
:101410001CBF05F10C00AFF300802B465868002874
:1014200018BFA04238BF0346F8D31968CA18A242B1
:1014300018BF5C6003D122681C4611441960216802
:101440000A19824218BF606004D142686260006875
:1014500008442060002E1CBF05F10C00AFF3008093
:1014600070BD10B5044600F01CFC01682046BDE8C4
:1014700010400122C4E70B3020F0070070472DE92F
:10148000F0410F460546041F00F00BFC0668F7B15B
:10149000384615B3FFF7EFFFB84205463CBF0020C2
:1014A000BDE8F08106F10C00AFF300802268AA428B
:1014B00038BF314615D3511B082931D3601900229A
:1014C00040F8041B31462560FFF79AFF28E02846C4
:1014D000FFF7C7FF0020BDE8F081BDE8F04100F054
:1014E00071BC4868002818BFA04238BF0146F8D335
:1014F000131983421BD103681A44954217D8531B12
:10150000082B0AD3436862195360236800681844A3
:10151000401B106025604A6002E02260406848601D
:1015200006F10C00AFF30080201DBDE8F081002221
:101530003146281F00F005FC05000AD02068211D57
:10154000021F284600F0E7FA00223146201DFFF76F
:1015500057FF06F10C00AFF300802846BDE8F0818C
:1015600053EA020C00F069802DE9F04B4FF00006C1
:10157000002B1FBFB3FA83F503FA05F424FA05F62E
:101580005E4012BF1643B2FA82F502FA05F4C5F1C5
:1015900020051EBF22FA05FC44EA0C04203556EA59
:1015A000044C4FEA144418BF641C4FF000084FF07D
:1015B0000009904271EB030C39D3002919BFB1FA2D
:1015C00081F701FA07F6B0FA80F700FA07F6C7F1DB
:1015D00020071EBF20FA07FC46EA0C062037B6FBA0
:1015E000F4FCA7EB0507103F07F01F0BCBF120061B
:1015F0000CFA0BFB2CFA06F644BFB3460026202F4C
:10160000A4BF5E464FF0000B5BEA060C08BF4FF02C
:10161000010B19EB0B09ABFB027C48EB0608C01B66
:1016200006FB02CC0BFB03CC71EB0C01C1E70B46B4
:10163000024641464846BDE8F08B13B54FF0000026
:101640004FF00001AFF30080BDE81C407047000080
:101650000FB47CB50C0009AA009001D02044401EB4
:10166000084B7B4469460190089800F058FC0546F9
:101670001CB10020694600F065FC28467CBC5DF882
:1016800014FB0000E908000070B50C460546012A6D
:1016900005D02878800600D5EA69002302E00123FE
:1016A00005E05B1C934202D2E05C0028F9D1A869F6
:1016B000E618C01AA861286A184428622846AFF3C1
:1016C000008004E0D5E9012114F8010B9047B442F1
:1016D000F8D32846AFF3008070BD00002DE9F0413B
:1016E0000646002410687529314616A510D0AFF3C0
:1016F0000080002802DA404213A507E031688A071B
:1017000001D512A502E0490704D511A5012401E085
:10171000AFF3008000210A2206F1240709E0B0FBA4
:10172000F2FCB0FBF2F302FB1C0030307854184698
:10173000491C0028F3D123462A463046BDE8F04133
:1017400000F08FBB000000002D0000002B00000007
:10175000200000002DE9F0418046D21D22F0070252
:101760000025D2E90002F52915A614D0011E72F158
:10177000000106DA0023D0EB030063EB020211A69E
:1017800008E0D8F800108B0701D50FA602E0490742
:1017900001D50EA601251146002408F1240704E016
:1017A00000F01AFB30323A55641C50EA0102F7D1BE
:1017B0002B46324621464046BDE8F04100F051BB81
:1017C000000000002D0000002B00000020000000A1
:1017D00070B504460D4621461068AFF3008021889D
:1017E000090502D50F4A7A4402E00E4A7A440E32C5
:1017F000002104F1240305E000F00F060009965DC6
:101800005E54491C0028F7D120780023000704D536
:10181000702D02D009B1022311322046BDE870407C
:1018200000F01FBB5C5802002DE9F05F89460446BA
:101830004FF0000ADFF874B1FB44C0F820A0204646
:10184000E1688847002874D0252806D0D4E9012112
:101850009047206A401C2062F1E700265F46204640
:10186000E16888472028054607DB312D05D2781925
:1018700010F8200C08B10643F1E7B00701D526F0B7
:101880000406C4F81CA00027C4F818A02A2D09D00B
:10189000284601F000FE38B304EB8708303DC8F855
:1018A000185019E059F8041B204604EB8702916197
:1018B000E1688847012F054618D1E069002820DA41
:1018C00026F020061DE0D8F8180000EB800005EB9C
:1018D00040003038C8F818002046E16888470546BF
:1018E00001F0D9FD0028EED1012F0AD02E2D08D10C
:1018F0002046E16888477F1C0546022F46F02006F7
:10190000C4DBA069002803DA404246F00106A0616A
:10191000F00701D026F010066C2D0BD0682D09D0F1
:101920004C2D39D06A2D35D0742D35D07A2D33D049
:1019300016E038E0E1682F4620468847B842054661
:1019400009D16C2F26D04FF48060E1680643204611
:101950008847054604E06C2F1AD04FF48070064388
:101960000DB3A5F14100192802D8203546F40066D0
:101970004A462946204626604E46FEF7AEFC80B118
:1019800001280BD0F61D26F0070000F1080956E7E4
:101990004020E4E78020D8E70020D6E706F10409DC
:1019A0004DE7284652E7206ABDE8F09F3258020012
:1019B00040EA010310B59B070FD1042A0DD310C8CC
:1019C00008C9121F9C42F8D020BA19BA884201D91E
:1019D000012010BD4FF0FF3010BD1AB1D30703D066
:1019E000521C07E0002010BD10F8013B11F8014B1C
:1019F0001B1B07D110F8013B11F8014B1B1B01D138
:101A0000921EF1D1184610BD032A40F2308010F02A
:101A1000030C00F0158011F8013BBCF1020F624489
:101A200098BF11F801CB00F8013B38BF11F8013B1A
:101A3000A2F1040298BF00F801CB38BF00F8013BC7
:101A400011F0030300F06780083AC0F0088051F8F5
:101A5000043B083A51F804CBA0E80810F5E7121D42
:101A60005CBF51F8043B40F8043BAFF30080D20761
:101A700024BF11F8013B11F801CB48BF11F8012B2D
:101A800024BF00F8013B00F801CB48BF00F8012B50
:101A90007047431A28BF9A427FF6B6AF032A104414
:101AA000114440F2268010F0030F1EBF11F8013DD3
:101AB000521E00F8013D10F0030F7FF4F6AF11F055
:101AC000030300F07582083AC0F00B8051F8043D22
:101AD000083A51F804CD40F8043D40F804CDFFF732
:101AE000F3BF121D5CBF51F8043D40F8043DAFF355
:101AF0000080D20724BF11F8013D11F801CD48BF85
:101B000011F8012C24BF00F8013D00F801CD48BFB9
:101B100000F8012C704710B5203AC0F00B80B1E8F6
:101B20001850203AA0E81850B1E81850A0E8185012
:101B3000BFF4F5AF5FEA027C24BFB1E81850A0E81B
:101B4000185044BF18C918C0BDE810405FEA827C35
:101B500024BF51F8043B40F8043B08BF7047D2074C
:101B600028BF31F8023B48BF11F8012B28BF20F8ED
:101B7000023B48BF00F8012B704702F0FF0343EA25
:101B8000032242EA024200F002B84FF000020429A8
:101B9000C0F0128010F0030C00F01B80CCF1040C9C
:101BA000BCF1020F18BF00F8012BA8BF20F8022BD0
:101BB000A1EB0C0100F00DB85FEAC17C24BF00F876
:101BC000012B00F8012B48BF00F8012B70474FF0A4
:101BD000000200B5134694469646203922BFA0E87D
:101BE0000C50A0E80C50B1F12001BFF4F7AF090789
:101BF00028BFA0E80C5048BF0CC05DF804EB89007A
:101C000028BF40F8042B08BF704748BF20F8022BBC
:101C100011F0804F18BF00F8012B70474FF0013CC6
:101C200050F8042B51F8043B9A4221D1A2EB0C034B
:101C3000934313EACC1317D150F8042B51F8043B0B
:101C40009A4215D1A2EB0C03934313EACC130BD1A8
:101C500050F8042B51F8043B9A4209D1A2EB0C0333
:101C6000934313EACC13DBD04FF00000704700BF62
:101C7000D01A01BAB1FA81F101F0180122FA01F08B
:101C8000CB40C1F12001DBB2C0B2C01A2CFA01F383
:101C9000D11A914311EAC311E6D1704770477047DA
:101CA000704710B5FFF794FB083010BD70477047C0
:101CB0007047704738B504460A4600206946AFF3BE
:101CC0000080002808BF38BD02460099204600F079
:101CD000A2F9012038BD012000F0BCB9F8B5AFF37E
:101CE0000080054600200C46102000BF0646A819BB
:101CF000A0420DD9324669460020AFF300800700AC
:101D000008BF00F0A7F90098A04218BF0546C41903
:101D1000FFF7C7FF05600746F01D20F007004619D2
:101D2000284600F06FF9B44208BFF8BDA21B314647
:101D30003868BDE8F84000F06EB90B3020F00700BD
:101D400070472DE9F04117460E460446FFF7F5FFB0
:101D5000A042054633D9002F1CBF06F10C00AFF39B
:101D6000008030467468F4B12168A94217D305F1A8
:101D7000080291423CBF6168416007D36268611903
:101D80004A602268521B0A6041602560002F1CBF18
:101D900006F10C00AFF30080201DBDE8F081204665
:101DA0006468002CE0D129463046FFF783FF002805
:101DB000D7D1002F1CBF06F10C00AFF3008000202C
:101DC000BDE8F08110B50446FFF76BFF01682046BF
:101DD000BDE810400122B4E730B5B0F10A024FEA85
:101DE000900E71F100034EEA817EB0EB0E0061EBC4
:101DF00091014FEA101E4EEA017E10EB0E0041EBFE
:101E000011114FEA102E4EEA016E10EB0E0041EB5D
:101E100011214FEA104E4EEA014E10EB0E0041EB3D
:101E20001141401841F100014FEAD00040EA4170F1
:101E30004FEAD10110EB80054FEA810444EA907427
:101E400044EB01046D1944EB0404521BA3414FF011
:101E5000000348BF0A3200D530BD401C41F10001EB
:101E600030BD2DE9F0470D4699469246044600F1F3
:101E700024080168880604D5E06921F0100121607A
:101E800000E00120A84201DD471B00E00027A16916
:101E90007A1902EB0900081AA0612078C00602D462
:101EA0002046AFF30080002608E0D4E901211AF8AB
:101EB00006009047206A401C761C20624E45F4DBE9
:101EC0002078C0060AD52046AFF3008006E0D4E9AA
:101ED000012130209047206A401C2062381EA7F163
:101EE0000107F4DC07E0D4E9012118F80500904768
:101EF000206A401C2062281EA5F10105F3DC204663
:101F0000AFF300802078000602D50220BDE8F087FC
:101F10000120FBE701694A1C02610878704700B59F
:101F20008FB0CDE901310021059105497944CDE912
:101F3000031011466846FFF777FC0FB000BD0000A4
:101F4000E5FFFFFF0A6802F8010B0A607047D1E95C
:101F500000239A4202D2531C0B601070704710B5D8
:101F6000436913B1AFF3008001E0FFF78DFB01205F
:101F700010BD127800F124010A7000224A7001227B
:101F8000EDE711684FF0FF32E9E7431A28BF9A42A4
:101F90007FF6C1AD104410F0030F11441EBF11F8BD
:101FA000013D521E00F8013D10F0030F7FF4F6AF23
:101FB000103AC0F00A8010B531E91850103A20E903
:101FC0001850BFF4F9AFBDE81040530724BF31E902
:101FD000081020E9081044BF51F8043D40F8043DC2
:101FE00012F0030F08BF7047D20728BF31F8023D37
:101FF00048BF11F8012C28BF20F8023D48BF00F867
:10200000012C704700210160C0E901100C3001F083
:1020100049BA1020704730B404468C464368002B00
:1020200018BF634538BF1846F8D3036818446045A5
:1020300007D0C81C20F0070000F1040CACEB010035
:10204000121A2146CCF8002030BC00220CF104000A
:10205000FFF7D6B910B500F035F8BDE8104000F034
:102060002BB87546FFF7B4F9AE46050069465346EE
:1020700020F00700854618B020B5FEF725FABDE828
:1020800020404FF000064FF000074FF000084FF0DF
:10209000000B21F00701AC46ACE8C009ACE8C00970
:1020A000ACE8C009ACE8C0098D4670470446AFF300
:1020B00000802046FEF79EF8002801D000F02AB8E4
:1020C0007047000010B5012805D0002103A000F0E2
:1020D00028F8012010BD09A1F8E700005349475234
:1020E000544D454D3A204F7574206F6620686561E8
:1020F00070206D656D6F7279000000003A204865B0
:102100006170206D656D6F727920636F727275708A
:102110007465640001491820ABBEFEE7260002008A
:10212000704770B505460C460A2000E06D1C00F0B3
:1021300011F835B128780028F8D102E0641C00F0CD
:1021400009F814B120780028F8D1BDE870400A20C1
:10215000AFF3008008B569468DF800000320ABBEE0
:1021600008BD000000000000F0B589B00026009610
:102170000196029603961A481A4D4468E868A76AC1
:1021800010F0100F1CBF304620F060FC384617F0EE
:102190007EFB012808D1384617F04CFC012084F85A
:1021A0002E00304620F052FC284604AA002100F000
:1021B000C8F9049800909DF81A008DF80600DDF823
:1021C0001B000290DDF81F0003906946384617F0A7
:1021D00068FC616800291CBFA068884709B0F0BD91
:1021E000A42E002000640040002020F02FBC00201E
:1021F00020F068BC70B58AB00120002100910191E7
:102200000291039119491A4D8C68E968A66A11F088
:10221000100F18BF20F01AFC304617F038FB0128C9
:1022200007D1304617F006FC012084F82E0020F07C
:102230000DFC284604AA002100F083F904980090C0
:102240009DF81A008DF80600DDF81B000290DDF8FD
:102250001F0003906946304617F023FC616800298F
:102260001CBFA06888470AB070BD0000A42E0020E3
:1022700000680040012020F0E9BB012020F022BCD2
:1022800010B4082304224FF0100CB1F5007F40D0A9
:1022900021DC202902BF036110BC704710DC01293A
:1022A00001BF1D49816010BC7047042902BFC36093
:1022B00010BC7047082908BFC0F80CC010BC70479C
:1022C000402902BFC0F810C010BC7047B1F5807F34
:1022D0001FD010BC70470024B1F5004F08D00BDCB4
:1022E000B1F5806F15D0B1F5006F1CBF10BC704701
:1022F0008461426010BC7047B1F5803F02BF43600B
:1023000010BC7047B1F5003F08BFC0F804C010BC56
:102310007047426010BC704701010100A0F180418C
:1023200010B5B1F5C8414FF0010109D0880600F0A1
:1023300029FCBDE8104000214FF0806000F022BC75
:102340004FF0007000F01EFCBDE8104000214FF07F
:10235000007000F017BC000030B4817A354B0122C8
:1023600002FA01F11A6842F001021A60DFF8C8C0EF
:10237000DCF800208A43CCF80020047B2F4AD4B933
:1023800014688C4314604488C58844EA0544857AFF
:10239000ED0005F1804505F5C045C5F840460488C7
:1023A000858844EA0544857AED0005F1804505F508
:1023B000C045C5F84446047B012C18D114680C4371
:1023C0001460847A0268E40004F1804404F5C04497
:1023D0004FEA3242C4F84026847A4268E40004F1AD
:1023E000804404F5C0444FEA3242C4F84426C47A1B
:1023F000134A002C14680CBF8C430C4314600489EE
:10240000104A14B914688C4314600489012C02D159
:1024100014680C431460407B012804D1DCF80000F0
:102420000843CCF80000186820F00100186030BCA8
:1024300070470000006600401C6600400C660040CB
:102440000466004014660040002A426914BF11432C
:1024500022EA0101416170470268002322F0020272
:102460000260026842F0010202604FF6FF7200BF94
:10247000D0F804C01CF0010F03D1934218BF5B1CBD
:10248000F6D1436813F0010F59D08B79012B036803
:102490000CBF43F0800323F080030360CB79012B52
:1024A00003680CBF43F0400323F0400303600B7A42
:1024B000012B03680CBF43F0200323F020030360CB
:1024C0004B7A012B03680CBF43F0100323F0100379
:1024D00003608B7A012B03680CBF43F0080323F0E1
:1024E00008030360CB7A012B03680CBF43F004039D
:1024F00023F0040303608B7891F803C09B0743EA41
:102500000C6391F804C043EA0C4391F805C00988B4
:1025100043EA0C53491E1943C161016821F00101CE
:1025200001600021436813F0010F1CBF9142491C58
:10253000F8D1406810F0010F04BF0120704700205F
:10254000704700EB0113D3F8B0C11CF0040C82F803
:1025500008C0D3F8B0C107BF4FEA5C5CC2F800C046
:102560004FEADC0CC2F804C0D3F8B0C10CF0020C86
:1025700082F809C0D3F8B4C10CF00F0C82F80AC07D
:10258000D3F8B4C14FEA1C2C82F813C0D3F8B8C1F9
:1025900082F80BC0D3F8B8C14FEA1C2C82F80CC0EB
:1025A000D3F8B8C14FEA1C4C82F80DC0D3F8B8C1BB
:1025B0004FEA1C6C82F80EC0D3F8BCC182F80FC081
:1025C000D3F8BCC14FEA1C2C82F810C0D3F8BCC1B0
:1025D0004FEA1C4C82F811C0D3F8BC311B0E937427
:1025E00021B1016941F0200101617047C16841F0EA
:1025F0002001C1607047000009490A6842F00102E9
:102600000A600A6822F4877222F478520A600A6823
:1026100042EA00200860086820F001000860704766
:102620000066004000218171C171017241728172A6
:10263000C1728170C17003210171022141710121B8
:102640000180704710B402460020936813F0806F39
:102650003FD000BF02EB0012D2F8803103F001033B
:10266000C2F880310B7A002B42D0D2F880C14C687E
:102670004CEA030391F809C04CEAC40C43EA0C038A
:10268000C2F880318B7A03F00F038B72D2F8843159
:1026900023F00F03C2F88431D2F8843191F80AC0D4
:1026A00043EA0C03C2F88431CB7AD1F80CC043EA78
:1026B0000C23C2F88831CB7B096943EA0121C2F8B7
:1026C0008C11D2F8801141F00101C2F8801110BCC8
:1026D0007047906810F0006F18BF0120BAD1906861
:1026E00010F0805F14BF02200420B3D110BC7047EB
:1026F000D2F8803191F809C043EA0C03B1F800C068
:1027000043EA4C53BCE700B5002200F007F8C04391
:1027100080B2010241EA102080B200BD05E000BF96
:1027200030F8023B891E5BBA1A440129F8DC11B16A
:10273000007802EB002290B200EB124000EB104058
:1027400080B27047084400EB104080B27047000030
:102750002DE9F04F42484FF0000B93B046685F46BA
:1027600049F21A08357C4FF4407A4FF000497069FD
:1027700000EB05100168C1F30D410C1F016811EA5F
:10278000080F18BF012732D100683AEA000018BFCD
:1027900002272CD13348001988BF032727D844F0DB
:1027A000004016F06BFC44F000410090002808BF88
:1027B00004271CD00820726900EB0510E31C105898
:1027C00020F003020098001D9C0805D052F8043B3D
:1027D00040F8043B641EF9D12348026812B1009806
:1027E000001D9047009816F0C7FE4FF0010B70696E
:1027F00000EB0510C0F8009077B1022F08BF4FF032
:10280000FF343B4619A2402102A80094FEF720FFA6
:1028100002A9F02017F0D0FFF07A6D1C854208BFA6
:1028200000253574706900EB0510006810F0004F4A
:102830009DD0194C6069194D10F0800F06D065616C
:102840000020A06016A1F02017F0B6FF6561BBF173
:10285000000F18BF16F0E4FB13B0BDE8F08F0000C6
:102860000405002016FAFFFF000500204554485FCC
:1028700049525148616E646C657228293A2065722C
:10288000726F7220256420666F72206672616D65BA
:102890005B25645D0000000000900240C0800100E4
:1028A0004554485F49525148616E646C65722829ED
:1028B0003A206572726F7220350000002DE9F00138
:1028C000002201255FF00306D1F800C005FA02F3EB
:1028D0000CEA030C9C4533D107684FEA420C06FA18
:1028E0000CF4A74307600F79D0F8008007FA0CF7C3
:1028F00047EA080707600F79012F18BF022F14D18C
:102900008768A74387604F79D0F8088007FA0CF7EB
:1029100047EA08078760476827EA0303436043687C
:102920008F799740BFB23B434360C368A343C36002
:10293000CB7903FA0CF3D0F80CC043EA0C03C36064
:10294000521C102AC0D3BDE8F00170474B07DB0EC4
:102950009A40C90800EB8100016A4FF00F0C0CFA95
:1029600003F399430162016A114301627047024611
:10297000002012690A4218BF012070470246002059
:1029800052690A4218BF01207047426951404161B3
:102990007047002A14BF01834183704700290188D2
:1029A00014BF41F4806121F4806101807047838A03
:1029B0000022008B43EA004020F07F4031EA000013
:1029C00008BF012210467047C94381827047002921
:1029D000018814BF41F0010121F00101018070471D
:1029E0000029018814BF41F4807121F480710180B5
:1029F00070470029018814BF41F4007121F400716F
:102A00000180704782B00246002000920A0F21F038
:102A10007F41019208BF090C009A14BF143218328A
:102A2000009212680A4218BF012002B07047818AE2
:102A3000008B41EA004020F07F40704770B50446AB
:102A4000808884B00D4620F03F06684600F0BEF84E
:102A500029490298B0FBF1F189B246EA0102A2804D
:102A6000228822F001022280244B2A689A421DD833
:102A70005200B0FBF2F080B2042838BF0420491C99
:102A80002184A083208840F0010020802088A9882C
:102A90006A8920F00A0020F48060114308432080F6
:102AA000A88929890843208104B070BDEB88A3F56B
:102AB0003F4CBCF1FF0C19D002EBC20303EB021236
:102AC000B0FBF2F080B240F480400205120D08BF66
:102AD00040F0010040F400404FF4967251434FF42F
:102AE0007A72B1FBF2F1491C2184CAE702EB42027F
:102AF000B0FBF2F080B2E8E740420F00A086010090
:102B0000002A14BF41F0010101F0FE01018270476B
:102B100001827047034940F0FD7040F0806008601A
:102B2000704700000CED00E021F07F0121F06041D2
:102B3000084301490860704708ED00E0044A002995
:102B4000116814BF084321EA0000106070470000BC
:102B500030380240044A0029116814BF084321EAB2
:102B6000000010607047000010380240044A00293D
:102B7000116814BF084321EA00001060704700008C
:102B800040380240044A0029116814BF084321EA72
:102B9000000010607047000020380240044A0029FD
:102BA000116814BF084321EA00001060704700005C
:102BB00044380240044A0029116814BF084321EA3E
:102BC000000010607047000024380240254A30B4ED
:102BD0001168254B11F00C0106D0244C042908BFC4
:102BE000046002D008291ED0036011680F2303EA95
:102BF00011111F4B595CD0F800C02CFA01F1416053
:102C0000D2F800C0072404EA9C2C13F80CC021FA67
:102C10000CFCC0F808C0126804EA52329A5CD14039
:102C2000C16030BC70471349D1F800C0CCF3805567
:102C3000D1F800C0002D0CF03F0C14BFB4FBFCF326
:102C4000B3FBFCF3D1F800C00968CCF3881C03FB8C
:102C50000CF3C1F30141491C4900B3FBF1F10160E0
:102C6000C3E70000083802400024F40080F0FA02B4
:102C70001C0600200438024000201FF08BBE0120FB
:102C80001FF088BE02201FF085BE0029018814BFF6
:102C900041F0400121F040010180704710B5A0F1E2
:102CA0008041B1F598311AD011F5784122D0B1F5B3
:102CB00080612AD0B1F5784132D0B1F5E0513AD0F7
:102CC000B1F5806118BF10BD01214805FFF772FF03
:102CD000BDE8104000214FF40010FFF76BBF012149
:102CE0000803FFF767FFBDE8104000214FF4805054
:102CF000FFF760BF01218803FFF744FFBDE81040E4
:102D000000214FF48040FFF73DBF0121C803FFF7CA
:102D100039FFBDE8104000214FF40040FFF732BFFB
:102D200001214803FFF746FFBDE8104000214FF4A2
:102D30000050FFF73FBF01210805FFF73BFFBDE84B
:102D4000104000214FF48010FFF734BF02460020EE
:102D500012890A4218BF012070470909012303FAAA
:102D600001F1002A828889B214BF114322EA0101CD
:102D700081807047808970478181704710B40288D4
:102D80000B88B1F802C0CC8843EA0C03B1F804C048
:102D900002F441524CEA040C43EA0C03B1F808C0B7
:102DA00043EA0C03B1F80AC043EA0C03B1F80CC0C3
:102DB00043EA0C03B1F80EC043EA0C031A43028045
:102DC000828B22F400628283098A018210BC7047E0
:102DD0000021018041808180C18001814181818108
:102DE000C1810721018270470149C1F8DC007047A9
:102DF0000000274282B0002229490192009208680F
:102E000040F480200860086840F48030086008685A
:102E100000F4003000900198401C0190009818B90F
:102E20000198B0F5A04FF2D1086810F4003F02BF3E
:102E3000009202B07047012000901A48026842F0E8
:102E4000805202601848026842F44042026017480B
:102E500002680260026842F400420260026842F4C2
:102E6000A0520260031F124A1A600A6842F0807280
:102E70000A600A6812F0007FFBD00E4A40F205712A
:102E80001160016821F003010160016841F0020155
:102E90000160016801F00C010829FAD102B0704705
:102EA00000380240403802400070004008380240BC
:102EB00032544007003C0240010241EA102080B237
:102EC00070470000DFF86CC030B4DCF800001A4B2B
:102ED00010F00C01194806D0194C042908BF0460F1
:102EE00002D008290CD00360DCF80010154AC1F3A9
:102EF0000311515C026822FA01F1016030BC704795
:102F000011490A68C2F380550A68002D02F03F0299
:102F100014BFB4FBF2F2B3FBF2F20B680968C3F31F
:102F200088135A43C1F30141491C4900B2FBF1F136
:102F30000160D9E7083802400024F4006004002052
:102F400080F0FA02E868040804380240134810B51B
:102F5000016841F4700101601148016841F001010C
:102F60000160104A00211160026822F4102222F050
:102F700080720260031D0C4A1A60026822F48022EB
:102F800002600A48016017F06FFCFFF733FF084941
:102F90004FF000600860FFF795FF10BD88ED00E07E
:102FA0000038024008380240103000240C3802403B
:102FB00008ED00E010B5084C0121204600F0D8F9DA
:102FC000012818BF10BD0121204600F004F9BDE81A
:102FD000104008201FF04ABF0040014010B5084CC7
:102FE0000121204600F0C4F9012818BF10BD0121BD
:102FF000204600F0F0F8BDE810400A201FF036BF70
:103000000048014010B50F4C0121204600F0B0F9F6
:10301000012806D10121204600F0DDF800201FF034
:1030200025FF094C0121204600F0A2F9012818BF14
:1030300010BD0121204600F0CEF8BDE81040092067
:103040001FF014BF000001400044014010B50121F1
:10305000880700F08DF9012818BF10BD01218807ED
:1030600000F0B9F8BDE8104001201FF0FFBE0000DD
:1030700010B5084C0121204600F07AF9012818BF4C
:1030800010BD0121204600F0A6F8BDE81040022046
:103090001FF0ECBE0004004010B5084C0121204692
:1030A00000F066F9012818BF10BD0121204600F08C
:1030B00092F8BDE8104003201FF0D8BE0008004081
:1030C00010B5084C0121204600F052F9012818BF24
:1030D00010BD0121204600F07EF8BDE8104004201C
:1030E0001FF0C4BE000C004010B5084C0121204662
:1030F00000F03EF9012818BF10BD0121204600F064
:103100006AF8BDE8104005201FF0B0BE0010004076
:1031100010B5084C0121204600F02AF9012818BFFB
:1031200010BD0121204600F056F8BDE810400620F1
:103130001FF09CBE0014004010B5084C0121204631
:1031400000F016F9012818BF10BD0121204600F03B
:1031500042F8BDE810400B201FF088BE0018004068
:1031600010B5084C0121204600F002F9012818BFD3
:1031700010BD0121204600F02EF8BDE810400D20C2
:103180001FF074BE0020004010B50F4C01212046F6
:1031900000F0EEF8012806D10121204600F01BF8CE
:1031A00007201FF063FE094C0121204600F0E0F8E3
:1031B000012818BF10BD0121204600F00CF8BDE821
:1031C00010400C201FF052BE00040140001C0040C3
:1031D000C94301827047C9430182704700290188B1
:1031E00014BF41F0010121F001010180704710B5C9
:1031F000A0F18041B1F5803132D0B0F1804F43D0A1
:1032000011F57C4136D0B1F5806147D0B1F58061D0
:103210004ED0B1F5806155D0B1F580615CD0B1F58B
:10322000704163D0B1F570516AD0B1F5806172D050
:10323000B1F580617AD011F598317DD0B1F580611A
:103240007BD0B1F5806118BF10BD01210802FFF7E6
:1032500099FCBDE8104000214FF48070FFF792BC4C
:1032600001210846FFF7A6FC0021BDE8104001201F
:10327000FFF7A0BC01210220FFF784FC0021BDE87C
:1032800010400220FFF77EBC01210846FFF77AFCC0
:103290000021BDE810400120FFF774BC012104208B
:1032A000FFF770FC0021BDE810400420FFF76ABC66
:1032B00001210820FFF766FC0021BDE8104008202E
:1032C000FFF760BC01211020FFF75CFC0021BDE886
:1032D00010401020FFF756BC01212020FFF752FCC0
:1032E0000021BDE810402020FFF74CBC0121022046
:1032F000FFF760FC0021BDE810400220FFF75ABC38
:1033000001210804FFF756FCBDE8104000214FF4EE
:103310008030FFF74FBC01214804FFF74BFCBDE8AC
:10332000104000214FF40030FFF744BC0121880415
:10333000FFF740FC002101E006E00FE0BDE810408F
:103340004FF48020FFF736BC01214020FFF71AFC24
:103350000021BDE810404020FFF714BC012180206F
:10336000FFF710FC0021BDE810408020FFF70ABCE9
:1033700002460020128A0A4218BF01207047002A24
:10338000828914BF114322EA0101818170470185BE
:103390008282704710B402881C4BDFF874C09842D8
:1033A00018BF604511D0B0F1804F1CBFA0F1804420
:1033B000B4F5806409D0A0F18044B4F500641CBF6A
:1033C000A0F18044B4F5406403D14C8822F070022F
:1033D0002243A0F18044B4F580541CBFA0F1804486
:1033E000B4F5A05403D00C8922F440722243028029
:1033F0004A68C2620A880285984212BF6045897A8B
:1034000001860121818210BC70470000000001404C
:10341000000401404FF0FF31416000210180018133
:103420004180817270470021016081807047C9B27C
:1034300041EA012141EA0141016081807047C9B23E
:1034400041EA012141EA014101604160704712F007
:10345000004F1FBF22F00042D21D22F007031022AE
:1034600002BFD21C22F003030C221BB103EB020C9F
:103470008C4501D901207047024401448360C0E9B2
:103480000021C91AD01888429CBF10600246F9D9A1
:1034900000201060704730380A2801D201207047A0
:1034A0000020704719F01CB92DE9F0470027DFF81C
:1034B000909000280CDA2349D9F8002020F0004031
:1034C0000968024401EB4101B2EB910F18D80127C2
:1034D00005460F3020F003060FB9FDF776FE1A4CB3
:1034E000D4E90002011B891AB1420CD204460068DB
:1034F0000028F5D127B9FDF75BFE0020FDF7A4FEFB
:103500000020BDE8F08772B11019216801602060C9
:1035100000F10808C0F80460D9F800103144C9F877
:10352000001027B105E004F108086660F4E7FDF734
:103530003FFEA8F800500020A8F802004046E0E74F
:103540006C0500209C040020401500202DE9F04768
:103550000746894690460026284C294D0BE02078E6
:1035600038B10422394604F10A0018F0B5F80128F0
:1035700035D00E34761C28888642F0DB2149384647
:1035800017F0D4FFD0B91F4804220021001D18F005
:10359000C9F810B10020BDE8F0870026174C0AE0FA
:1035A000207830B106224946201D18F095F80128F0
:1035B0001AD00E34761C28888642F1DB404600F093
:1035C00027F80028E7D00D49C0EBC00001EB40040C
:1035D0000E3C0422394604F10A0018F08DF8062248
:1035E0004946201D18F088F807480088E070074811
:1035F0000078A070032020700120CCE72013002069
:1036000092040020E4120020940400208C04002086
:10361000F0B50546012116480E46164A03E0037828
:1036200053B10E30491C13889942F8DD1248104BF3
:103630000488002001210DE0067045700846F0BDA9
:103640005F78012F04D1DF78A74201D83C460846B5
:103650000E33491C1788B942F2DD0028EFD0044A26
:10366000C0EBC00102EB410101F80E6D4D70F0BDE1
:103670002013002092040020940400202DE9F0473C
:1036800081460F4600253D4C3D4E0BE0207838B179
:103690000422494604F10A0018F01EF8012815D04A
:1036A0000E346D1C30888542F0DB3649484617F0F1
:1036B0003DFFDFF8C880334D01284FF0040209D0E8
:1036C0000021281D18F02EF8E8BB1DE02078032803
:1036D0004ED350E04946281D17F0FEFF012806D1C1
:1036E00004220021281D18F01DF800B900273846D3
:1036F000FFF78EFF06003CD0C6EBC60108EB410485
:103700000E3C042249461DE000271C4C0BE02078AB
:1037100038B10422291D04F10A0017F0DDFF012849
:10372000D4D00E347F1C30888742F0DB0020FFF7B6
:103730006FFF06001DD0C6EBC60108EB41040E3C2E
:103740000422291D00E013E004F10A0017F0D4FF61
:1037500006220D49201D17F0CFFF0C480078A070FD
:103760000B480078E070304600F036F902202070F7
:103770000020BDE8F0872046FBE700002013002072
:1037800092040020E4120020506F04088C040020F2
:103790008D04002070B50D46064604220E4917F030
:1037A0009BFF012814D0304617F0D2FE01280FD01D
:1037B00029463046FFF762FF040008D00422314654
:1037C00004F10A0017F088FF012802D002E000206F
:1037D00070BD6570012070BD4C6F04082DE9F04785
:1037E0000026DFF8D480DFF8D490B246344F5DE095
:1037F000B9F80050691C89B2A9F800103A889142C2
:1038000001D3A9F800A02F49C5EBC50001EB400486
:103810002078C8B3E07820B1401E10F0FF00E070BF
:1038200043D1607801280AD10422274904F10A0013
:1038300017F052FF012806D06078012818D010F048
:10384000FF0F02D031E084F801A004221F4904F1E7
:103850000A0017F041FF012817D02078032818D05C
:10386000A07800B3401E10F0FF00A0701BD012E043
:103870002078032817D0A078A8B1401E10F0FF00D0
:10388000A07010D0022005E00FE011480088E07021
:103890000BE00420207098F80000E070681CBDE880
:1038A000F04700F099B884F800A0761C388886426A
:1038B0009EDBBDE8F08700008D0400207C04002022
:1038C0009204002020130020E81200204C6F04080E
:1038D000940400202DE9F04106460025134C00F128
:1038E0000E08134F0DE0207848B1012807D00422BC
:1038F00004F10A01404617F0EFFE012806D00E340D
:103900006D1C38888542EEDBBDE8F081062206F1A9
:103910000801201D17F0F0FE06480088E0700648F8
:103920000078A07003202070EEE700002013002034
:1039300092040020940400208C0400202DE9F04122
:1039400005460E462A20FFF7AFFD044605F10801A3
:1039500006220F46001D17F0CFFE06221C4904F177
:103960000A0017F0C9FE4FF4C16020824FF4807046
:1039700060820820A0820620A0750420E0752683BE
:1039800004F1240006223946064617F0B5FE05F17B
:103990000E0104F12A000422054617F0ADFE0622AE
:1039A0000B4904F11A0017F0A7FE0422094904F19B
:1039B000200017F0A1FE012231462846FFF7C6FD80
:1039C0002046FDF7F1FB2046BDE8F04112F0E8BCCF
:1039D000A0040020E412002070B505462A20FFF75D
:1039E00063FD044606222349001D17F085FE0622CA
:1039F000214904F10A0017F07FFE4FF4C1602082D4
:103A00004FF4807161820820A0820620A0750420F6
:103A1000E07521830622184904F11A0017F06CFEA4
:103A20000422164904F1200017F066FE4FF006024A
:103A300065B1002104F1240017F06CFE1049C5EBBC
:103A4000C50001EB40010422091F06E0094904F109
:103A5000240017F051FE0949042204F12A0017F04E
:103A60004BFE2046FDF7A0FB2046BDE8704012F05B
:103A700097BC0000506F0408A0040020E41200204E
:103A80002013002010B50446006809F0C3FB6068ED
:103A900009F0C0FB2169A0680BF00CFD0020A063B9
:103AA000E0632064606210BD70B586B0064604F025
:103AB000C7F904F0B7F90546002401F01FFB002305
:103AC00001AA314601F03CFB9DF80400ADF80C4022
:103AD000C0F34301C0F3411241EA02260821ADF8C8
:103AE00008100221ADF80A100A218DF80E1002A963
:103AF000009100F0010104F5CA44234632462846ED
:103B000000F01AFD41F28830049004A800909DF85E
:103B10000400E3B200F001013246284603F5904369
:103B200000F00AFD06B070BD0648016891F820104B
:103B3000002908BF7047406803224168022019F03D
:103B400039B80000B0060020C0F3033003490C2848
:103B50008CBF086851F82000704700005801002011
:103B6000002804BF4FF0FF30704752EA030108BF3E
:103B700042F2222222F07F42110A120642F0020291
:103B8000C0E90021034981606FF07F41C1600020DE
:103B9000704700000A000163002804BF4FF0FF30A7
:103BA000704710B5383004A1FEF738F8002818BF68
:103BB0004FF0FF3010BD0000455854001FF084BF87
:103BC0001FF0FABF20F020B810B5040008BF1D4C4C
:103BD00040221D491D481FF0F1FE1B481C4990F969
:103BE000002091F900309A4209D190F9012091F911
:103BF00001309A4203D18978807881420AD01449F1
:103C00004022A1F108001FF015FF40220E490F4885
:103C10001FF0D4FE20791FF085FE10B1206870B12E
:103C2000804720F0ADF810B1206840B1804720F007
:103C30003BF810B1206810B18047002010BD4FF054
:103C4000FF3010BD60500408F407002068500408DD
:103C5000705004081FF098BE0020704720F018B97B
:103C600020F032B920F04CB920F0C4B920F0DEB910
:103C70001FF022BF70B50446C06886B00D4600280C
:103C80007BD000264AB1D00717D0A08B322811D99B
:103C9000607E40F04000607610E020690D1A02D589
:103CA00005F5803504E0B5F5803F01DBA5F58035ED
:103CB000A68310E0401CA08300E0A68390070AD5ED
:103CC000E08B322804D9607E40F08000607603E00B
:103CD000401CE08300E0E683607E800719D564B372
:103CE0002AB9A07E00B965606068A84201D0A676B6
:103CF00040E0A07E401CC1B2A17603293AD36560A2
:103D0000A56066612560A676607E20F0020161767E
:103D100030E092B96068281A17F014FD00F17001C4
:103D20006560E0290AD8A068281A17F00BFD20B1B9
:103D3000A56060612168084420601BE00396ADF82F
:103D40000E00049605960020CDE9040002968DF839
:103D50000C60207E8DF80D000B2102200CF09EFBE4
:103D6000029004F015FD02A9002300911A460221D9
:103D700004F0DAFC2168E068484306B070BD0161D8
:103D8000417E21F0010141F002014176704700219E
:103D90008183C183417E21F0C00141767047407E1E
:103DA00000F0C0007047407E08B10020704701203D
:103DB000704710B5044607F0C3FF012320220421F9
:103DC00007F0C8FF00280CD0047600210160416094
:103DD00081600161C16041618183C1838176072176
:103DE000417610BD002902DD4FF0010105E002DA45
:103DF0004FF0FF3101E04FF00001C160417E21F042
:103E0000040141767047002804BF6FF0010070473D
:103E10000021017008467047002812BF00296FF08A
:103E20000100704791E80E1080E80E1000207047E6
:103E300010B50A464FF0FF3458B30178012907D076
:103E400002290FD0032904BF0178032913D023E0EE
:103E50000178012920D1D0E90110D0B112F0CDF8BC
:103E6000044619E00178022916D1D0E9011080B189
:103E700012F0B1F80CE0D0F80CC04168806841B194
:103E8000BCF1000F06D013460246604612F08CF8D3
:103E9000044601E000248847204610BD002818BFD2
:103EA0000078704710B507F04BFF01231022042162
:103EB00007F050FF0021017010BD002804BF6FF013
:103EC000010070474FF0030C80F800C0C360C0E9E8
:103ED000011200207047002804BF6FF001007047F6
:103EE00001230370C0E9011200207047002818BFA9
:103EF00040687047002818BF00687047002819BF45
:103F00000029002B6FF0010070472DE9F84F04469F
:103F1000994617460D46184609F010FE284609F046
:103F200087FD8046284609F087FD0646404609F091
:103F300098FE002804BF4FF0FF30BDE8F88F56B15F
:103F40006068002800F0088105F14002394602F05F
:103F5000ADFD00F001B900221146404609F047FED0
:103F6000696805F12002206808F0F2FC00281CBFF7
:103F700005F1200008F0EBF905F120084846A66895
:103F800009F0DCFD0024286B274600284ED0687815
:103F9000012860D0287810F0200F3ED099F800005A
:103FA0004C4620F00300401C89F80000687889F82E
:103FB000010000BF05F1200004F1200B90E80F166E
:103FC0008BE80F162878C108207861F3C3002070B1
:103FD0002978090961F38200207067806868606051
:103FE000207810F0080F14BFE8684FF0FF30E06051
:103FF000207810F0040F04BF4FF0FF30014603D0CB
:1040000011F030FE11F03BFEC4E9040100231A4612
:10401000214604F1400009F007FE286B00284BD030
:104020006878032818BF052823D028E0287810F0E6
:10403000200FF2D099F800004C4620F00300401CFD
:1040400089F80000A9F802706868C9F80400687867
:1040500089F80100AEE7022089F8010028784C4673
:1040600010F0200FA6D0207820F00300401C207014
:10407000A0E705F1200008F0DDFA00286CD04046EA
:1040800008F0BAF9012804D11EB1404608F09AF9A7
:1040900068B1ADF80070687805F1200705F14006B9
:1040A000062859D2DFE800F0582A3B093B0922468E
:1040B0002946304609F00AFA4EE005280CD03A6944
:1040C0006888A9681288904246D133460122384652
:1040D00008F050FAF0BB05E032460121384608F0FE
:1040E0000FFAF7E7287810F0200F18BF002C33D014
:1040F000207820F00300801C20702DE06B4600210A
:104100003846A26808F034F9BDF800006080A4F8D1
:104110004200A068A064207820F0030019E0334634
:1041200002223846A96808F08FFA6878022803D17D
:104130003146384608F0D6F9287810F0200F18BF1D
:10414000002C09D06878042806D1207820F00300DC
:10415000801C00E000E020700020BDE8F88F000027
:1041600038B5124D040007D104F012FB104B11A218
:104170000421009504F0D8FA04F00AFB00952168A8
:10418000002918BF01210A4B11A204F0C1FA07F05F
:10419000D7FD01230C22042107F0DCFDD4E9001235
:1041A000A3688360C0E9001238BD0000A04E040877
:1041B000D8580408656F5F6167656E745F4E6577F8
:1041C00028293A204E554C4C2063666700000000B9
:1041D000656F5F6167656E745F4E657728293A2069
:1041E0004E554C4C206366672D3E6E7673657400A9
:1041F000002818BF002B03D0002918BF002A02D1C5
:104200006FF0010070472DE9F04383B01C4615465E
:104210000E4618460A9F09F091FC287820F0C3004A
:104220008DF8000068788DF801006888ADF802000C
:1042300068680190687809F014FD002802BF4FF00B
:10424000FF3003B0BDE8F08396E80F1304F1200EB1
:104250008EE80F13DDE90001C4E90001684609F0AA
:10426000B8FC012818BF002010D1A86830B16A88B6
:104270006280A968A068FDF7C7FB08E002AB0021D7
:104280003046A26808F074F8BDF80800608028780D
:1042900010F0080F14BFE8684FF0FF30E060287896
:1042A00010F0040F04BF4FF0FF30014603D011F0AF
:1042B000D9FC11F0E4FCC4E904012FB162886178F3
:1042C000206809F05AFC388003B00020BDE8F08374
:1042D00038B504004FF000008DF800000D46084688
:1042E000694604BF6FF0010038BD12F0A9FA00283A
:1042F00018BF38BD00239DF800202946204600F055
:10430000D3F938BDF0B589B04FF000040D46060072
:104310008DF8044002BF6FF0010009B0F0BD002D20
:104320000CBF13273F27384613F0DAFC01A92846B3
:1043300012F054FA9DF8040000283FD006EBC506A1
:10434000012030769DF804007076384613F0CAFCE0
:104350001D48006800EB8001F06918F0C9FE48B301
:1043600004940594069407948DF8204008A92846E3
:1043700012F034FA192100200CF090F804909DF806
:104380002010042040EA0120ADF816000020CDE9FD
:104390000600002D0CBF012002208DF814008DF8BE
:1043A000154004F0F5F904A90091084B00220321FF
:1043B00004F0BAF9384613F093FC3476384613F01B
:1043C00091FC09B00020F0BDE068040840550408E5
:1043D0000B46002804BF6FF00100704711461846D5
:1043E00012F02EBA70B594B0050008BF4A4D4B4884
:1043F0000068129012A804F0C5FB060070D007F008
:104400009FFC01234422042107F0A4FC044695E804
:104410000F0084E84F0000252575657684F821504B
:10442000257684F820502946FF2018F0B1FE0200BE
:10443000E26155D00021104618F006FF0021FF2050
:1044400018F0A6FE6062002804BF14B070BD002101
:1044500018F0FAFE14228DF80C203C228DF80D2065
:1044600001212F4ACDE904248DF808100B208DF886
:1044700009508DF80A008DF80B002A4ACDE9062470
:104480008DF828108DF829508DF82A008DF82B0012
:1044900020208DF82C008DF80E50234A1020CDE9F5
:1044A00008248DF82D002148CDE90C042048CDE9E1
:1044B0000E048DF82E501F48CDE9100402A90020EB
:1044C00012F0E8F860B90AA9012012F0E3F838B94F
:1044D000002012F097F818B9012012F093F810B1EB
:1044E00014B0002070BD84F8285084F829500021B1
:1044F000FF2018F04DFEE062002804BF14B070BD2C
:104500000021FF2018F044FE206384F82A50002880
:1045100018BF204614B070BD740D0020A4550408C7
:1045200065F8030885F8030853F7030875F80308CE
:1045300009F9030859F70308002804BF6FF00100C8
:10454000704708B5DDF808C0CDF800C01BF054FA7C
:1045500008BD002804BF6FF001007047F0B583B0BC
:104560001C4616460F46054600F0C8FD002301AA6A
:10457000394600F0E5FD00281CBF03B0F0BD9DF8F2
:1045800004003346C0F34301C0F3411241EA022262
:1045900000F00101284600941BF02EFA03B0F0BD94
:1045A000002804BF6FF001007047F0B583B01C46CF
:1045B00016460F46054600F0A1FD002301AA394624
:1045C00000F02DFE00281CBF03B0F0BD9DF80400D4
:1045D0003346C0F34301C0F3411241EA022200F026
:1045E0000101284600941BF007FA03B0F0BDF0B5B6
:1045F00083B005004FF000001C4616460F460190A0
:1046000002BF6FF0010003B0F0BD00F077FD01AA1A
:10461000394600F0E5FE00281CBF03B0F0BD9DF850
:1046200004003346C0F3430200F001012846009421
:104630001BF0E2F903B0F0BDF0B583B005004FF018
:1046400000001C4616460F46019002BF6FF00100A5
:1046500003B0F0BD00F052FD01AA394600F032FF70
:1046600000281CBF03B0F0BD9DF804003346C0F322
:10467000430200F00101284600941BF0BDF903B08D
:10468000F0BD002804BF6FF00100704701750022E3
:10469000027680F82020012906BF012180F8281029
:1046A00080F82820002070472DE9F04F8BB04FF0A4
:1046B00000079A4691460C465FEA00080297039766
:1046C00004973E46059702BF6FF001000BB0BDE8AE
:1046D000F08F0025B9F1000F88BF0DF1180B41D9FB
:1046E000029703970497002202A92046059711F02C
:1046F000A3FF002836D1701CC6B2224602A9D8F802
:10470000100004F04FFA48B30697079708971B214B
:10471000002009970BF0C2FE06909DF80E00002CB9
:1047200000F00F01029861F31F30ADF81E00DDE9C3
:104730000401CDE908010CBF012002208DF81C0006
:104740000298C0F303108DF81D0004F021F8244BEB
:1047500000220221CDF800B003F0E6FF681CC5B2CC
:104760004D45BDD3BAF1000F18BF8AF8006008EBC1
:10477000C40595F8380078B31A4995F8362011F831
:10478000140062F3000001F8140095F83620520876
:1047900062F3410001F8140095F83620920862F3A4
:1047A000820001F8140001EB440095F837204178AD
:1047B00062F30001417095F83720520862F341011D
:1047C00041700AF065F84FF47A7203210AF0D0F8CC
:1047D0006F63AF6385F838700BB00020BDE8F08FD1
:1047E00040550408600E00202DE9F8434FF0000604
:1047F00017460C0005468DF800600CBF4FF01308FB
:104800004FF03F08002D04BF6FF00100BDE8F883B2
:10481000404613F065FA6946204611F0DFFF27494C
:104820009DF800000855291981F82900404613F029
:1048300059FA9DF8000000281CBF204612F016F817
:1048400005EBC40595F8380078B31D4995F8362076
:1048500011F8140062F3000001F8140095F83620F6
:10486000520862F3410001F8140095F836209208CE
:1048700062F3820001F8140001EB440195F837203F
:10488000487862F30000487095F83720520862F3C8
:104890004100487009F0FCFF4FF47A7203210AF0DE
:1048A00067F86E63AE6385F83860002F1CBF9DF813
:1048B000000038700020BDE8F8830000FE030020EF
:1048C000600E002070B5002586B00C46002802BF9F
:1048D0006FF0010006B070BD011991F82910002990
:1048E00035D01C4900EB84000968C06A01EB410126
:1048F00018F0FEFB05002AD000268DF8046001A9FF
:10490000204611F06BFF02960396049619210020B1
:1049100005960BF0C3FD02909DF80410012040EABB
:104920000120ADF80E000020CDE90400002C0CBFE2
:10493000012002208DF80C008DF80D6003F028FF97
:1049400002A90091044B0022032103F0EDFE06B002
:10495000284670BDE068040840550408002818BFC8
:10496000283070472DE9F84F0E46DFF8C0901F46FB
:10497000014619F8063001F1180A904613F80A208A
:1049800006EB460C4FF0FF3001EB4C04002A34D10B
:104990003A466946184612F029F910B1A18D491C12
:1049A000A1850021DDF800508C46092225FA0CF380
:1049B0000CF1010B594025FA0BF35940521EC9B2B4
:1049C0000CF1020C12F0FF02F0D111F0010F1146B0
:1049D00004D105F038020121202A08D004EB41015E
:1049E0000A8D521C0A85397841F0020139704FF660
:1049F000F07101EA9501C8F8001019F8063013F8B3
:104A00000A10012918BFBDE8F88F3A4669461846D2
:104A100012F0ECF810B1A18D491CA1850099C1F3E9
:104A20000F11C8F80010BDE8F88F00004B550408BE
:104A30002DE9F04F050085B04FF0000004BF05B030
:104A4000BDE8F08F07F07CF901239022042107F0E4
:104A500081F995E86E1080E86E000021C0F814C05E
:104A600004464FF0FF0C0E464FF0010B00EBC10265
:104A70009378FF2B05D010F8313043B1012B0BD0C8
:104A80000FE001EB4103034483F818C009E001EB98
:104A9000410303441E7604E001EB4103034483F821
:104AA00018B0D378FF2B05D010F8313043B1012B6B
:104AB0000BD00FE001EB4103034483F819C009E078
:104AC00001EB410303445E7604E001EB4103034440
:104AD00083F819B01279FF2A05D010F8312042B1BD
:104AE000012A0BD00FE001EB4102024482F81AC008
:104AF00009E001EB41020244967604E001EB410239
:104B0000024482F81AB0491C0229AFDB84F821C0A4
:104B1000002784F81EC084F81FC004F11E0502227D
:104B2000394684F820C06018007EFF2812D0E8784B
:104B3000FF2808BFE970481CC0B290420AD8231869
:104B40001B7EFF2B02D0CB1BE85403E0401CC0B2FD
:104B50009042F4D9481CC1B29142E4D984F826C0ED
:104B6000032184F823C084F824C004F123050F46F0
:104B7000052284F825C06018007EFF2812D0E8784E
:104B8000FF2808BFE970481CC0B290420AD8231819
:104B90001B7EFF2B02D0CB1BE85403E0401CC0B2AD
:104BA0009042F4D9481CC1B29142E4D900252F4665
:104BB0004FF0020A04F11E094FF005086019017E4A
:104BC00011B1012909D013E08DF80C608DF8008037
:104BD000019602968DF80D6008E08DF80CB07721F3
:104BE0008DF80080019602968DF80D108DF80E60FC
:104BF000007EFF2814D0E81B19F80010FF2908D008
:104C00002F494844CDE901106946284612F07AF848
:104C100006E02C48CDE901046946284612F072F8F6
:104C2000681CC5B25545C9D90327DFF894B04FF0C9
:104C3000050A04F123093D466119087E10B10128D7
:104C400009D014E08DF80C608DF800800196029672
:104C50008DF80D6009E001208DF80C0077208DF8AB
:104C60000080019602968DF80D008DF80E60087E8A
:104C7000FF2816D0E81B19F80010FF2907D0484478
:104C8000CDE901B06946284612F03CF809E0002F52
:104C900014BF0D480B48694601900294284612F053
:104CA00031F8681CC5B25545C6D9262104F1280043
:104CB000FCF78DFF2665266705B02046BDE8F08F1E
:104CC000A1FC0308A7FC0308D3FC0308002804BFC9
:104CD0006FF00100704770B505460023B0F84C0036
:104CE00042F210711E4688423ABF401CA5F84C00A3
:104CF0004FF0000C2DD30CEB4C00002205EB4004D0
:104D000004EB4200008D002818BF0123521C032A27
:104D100001D2002BF4D00CF1010CBCF1060F01D232
:104D2000002BE8D0012B0DD109F0B2FD2946B5F8D2
:104D30004C2009F075FE28B909F0AAFD00220521D2
:104D400009F016FE262105F12800FCF740FFA5F822
:104D50004C6095F821000124FF280AD02E6518F038
:104D600091FAC5E9140185F8224095F8210012F066
:104D700041F895F82600FF280AD02E6718F082FA2D
:104D8000C5E91C0185F8274095F8260012F032F895
:104D9000002070BD90F82110FF290CD090F826104B
:104DA000FF290DD090F82710022904BF90F82200A7
:104DB00002280BD008E090F82700022804D105E073
:104DC00090F82200022801D000207047012070478F
:104DD00090F8220002280CBF01200020704790F8B4
:104DE000270002280CBF01200020704738B50500BD
:104DF0004FF0000008BF38BD06F0A2FF01230C22CF
:104E0000042106F0A7FF04462878207000F076F908
:104E10006A46002100F084FA00281CBF002038BD3B
:104E200000990968C4F8011000F068F900F06CFA04
:104E3000A080002808BF38BD06F082FFA3880822A2
:104E4000042106F087FFA060A088B0B10021C2B2A3
:104E5000DFED0B0A0420B7EE000AA36800EBC10CDB
:104E600003EBC103491C83ED000AA368521E63448F
:104E700012F0FF02C3ED000AEFD1204638BD00005A
:104E800000000000806800EE102A00EBC100B8EEC0
:104E9000400AD0ED000A20EE800ABCEEC00A10EEF7
:104EA000100A7047806800EE102A00EBC100B8EECF
:104EB000400AD0ED000A20EE800ADFED040A20EE61
:104EC000200ABCEEC00A10EE100A704700007A44B7
:104ED000806800EE102A00EBC100B8EEC00AD0EDE9
:104EE000000A80EE201ABDEEC10A10EE100A7047CB
:104EF000806800EE102A00EBC1030422B8EEC00A5D
:104F0000D3ED000A02EBC101084480EE201A90EDB7
:104F1000000A31EE400ABDEEC00A10EE100A7047DA
:104F2000806800EE102A00EBC100B8EEC00AD0ED98
:104F3000000A80EE201ABDEEC10A10EE100A70477A
:104F4000836800EE102A03EBC1018078B8EEC00A36
:104F5000D1ED000A20EE800ABDEEC00A10EE101A54
:104F600001FA00F04FF47A7100F5FA7090FBF1F05D
:104F700000B270471046704700281CBF002180F81F
:104F80004810704700B112B16FF0010070472DE971
:104F9000F047054690468946C06900F07AFF060052
:104FA0004FF000041CBF09F00107C9F3430919D0F1
:104FB000E1B2E86900F0EFFE018801F00102BA42B7
:104FC00004BFC1F34301494508D1D8F8001041603E
:104FD000B8F8041001810020BDE8F087601C84B29D
:104FE000B442E5D36FF00400BDE8F087002812BF9B
:104FF000002A6FF0010070472DE9F0470546904602
:105000008946C06900F045FF06004FF000041CBF50
:1050100009F00107C9F3430915D0E1B2E86900F0CE
:10502000BAFE008800F00101B94204BFC0F343009A
:10503000484504D188F800400020BDE8F087601C96
:1050400084B2B442E9D36FF00400BDE8F0870028D1
:1050500012BF002A6FF00100704770B50446154674
:105060000E46C06900F015FFB0429CBF6FF004000F
:1050700070BD3146E06900F08EFE2860002070BDF2
:105080002DE9F0411C46069F16468846050018BFCC
:10509000002E2ED0002C18BF002F2AD0E86900F077
:1050A000F8FE40459CBF6FF00400BDE8F08141462A
:1050B000E86900F070FE05460078317860F3000181
:1050C00031702878400860F3440121F0E00030702E
:1050D0002046FEF7A8F9288800122070A8782071D1
:1050E000E8786071686838602889B8800020BDE879
:1050F000F0816FF00100BDE8F08100000248007E01
:10510000002818BF00487047840D0020002812BFF7
:10511000002A6FF00100704770B5044615460E4630
:10512000006A00F0B6FEB0429CBF6FF0040070BD94
:105130003146206A00F02FFE80682860002070BD94
:10514000002812BF002A6FF0010070472DE9F041DE
:105150000546984614460E46006A00F09AFEB04294
:105160000CD93146286A00F016FE0746007800F098
:105170003F06E86900F08DFEB04203D86FF00400EE
:10518000BDE8F0813146E86900F005FE39788A090A
:10519000217862F3461121700278520862F34401CB
:1051A00021700278B8F1000F62F30001217003D082
:1051B0000088000A88F800000020BDE8F08100287F
:1051C00012BF002A6FF0010070472DE9F041CEB206
:1051D0001746044616F0010F04D1A18EC6F3430012
:1051E000884203D34FF0FF30BDE8F081A16B0D5C26
:1051F000E06900F04EFE85420DD22946E06900F0DC
:10520000CAFDC6F341110844807A3870FF281CBFDC
:105210000020BDE8F0816FF00400BDE8F0810028B7
:1052200012BF002A6FF0010070472DE9F0410546DA
:10523000984614460E46406A00F02BFEB0420CD948
:105240003146686A00F0A7FD0746007800F03F0687
:10525000E86900F01EFEB04203D86FF00400BDE81C
:10526000F0813146E86900F096FD39788A092178A5
:1052700062F3461121700278520862F344012170F2
:105280000278B8F1000F62F30001217003D00088AA
:10529000000A88F800000020BDE8F081002812BF55
:1052A000002A6FF0010070472DE9F041CEB2174699
:1052B000044616F0010F04D1A18EC6F343008842C4
:1052C00003D34FF0FF30BDE8F081A16B0D5CE069C6
:1052D00000F0DFFD85420DD22946E06900F05BFD5C
:1052E000C6F341110844007B3870FF281CBF002022
:1052F000BDE8F0816FF00400BDE8F0810148C069AD
:1053000000F0C7BD840D00200148006A00F0C1BD57
:10531000840D00200148406A00F0BBBD840D0020D0
:10532000002812BF002A6FF00100704770B50446D4
:1053300015460E46006A00F0ACFDB0429CBF6FF00F
:10534000040070BD3146206A00F025FD40682860E9
:10535000002070BD002812BF002A6FF001007047C6
:1053600070B5044615460E46006B00F092FDB04243
:105370009CBF6FF0040070BD3146206B00F00BFD48
:1053800000682860002070BD002812BF002A6FF05E
:10539000010070472DE9F041054617460E460024EE
:1053A000006B00F076FD002888BF06F0010613D9D7
:1053B000E1B2286B00F0EFFC006830B10078864263
:1053C00003D13C700020BDE8F081601C84B2286BE2
:1053D00000F05FFDA042EBD86FF00400BDE8F08163
:1053E000002812BF002A6FF00100704770B5044614
:1053F00015460E46806A00F04CFDB0420DD931468C
:10540000A06A00F0C8FC006838B1007800F03F06E0
:10541000E06900F03EFDB04202D86FF0040070BDBC
:105420003146E06900F0B7FC0278297862F30001A8
:1054300029700078400860F3440121F0E0002870F2
:10544000002070BD002812BF002A6FF001007047D5
:105450002DE9F047044617460E460025806A00F005
:1054600018FD002884BF06F00108C6F3430925D9BA
:10547000E9B2A06A00F08FFC0068F8B1007800F093
:105480003F06E06900F005FDB04217D93146E069FA
:1054900000F081FC008800F00101884504BFC0F3E2
:1054A0004300814503D13D700020BDE8F087681CB2
:1054B00085B2A06A00F0EDFCA842D9D86FF00400D4
:1054C000BDE8F087002812BF002A6FF00100704786
:1054D0002DE9F041044615460E46C06A00F0D9FC9D
:1054E000B0420ED93146E06A00F055FC064600682D
:1054F00038B1007800F03F07E06900F0CAFCB8421C
:1055000003D86FF00400BDE8F0813068007800F047
:105510003F01E06900F03FFC0278297862F3000166
:1055200029700078400860F3440121F0E000287001
:105530000020BDE8F081002812BF002A6FF00100B2
:1055400070472DE9F047044617460E460025C06A0D
:1055500000F09FFC002884BF06F00108C6F3430951
:1055600025D9E9B2E06A00F016FC0068F8B10078CD
:1055700000F03F06E06900F08CFCB04217D93146DC
:10558000E06900F008FC008800F00101884504BFD4
:10559000C0F34300814503D13D700020BDE8F08792
:1055A000681C85B2E06A00F074FCA842D9D86FF09C
:1055B0000400BDE8F087002812BF00296FF0010049
:1055C00070473C3008600020704700002DE9F04F24
:1055D000FF4C85B0060078D07068002500281CBFFD
:1055E000B068002871D0F06800281FBF306900281B
:1055F0007069002869D000220121FE200EF088FC8D
:105600000746706801F096FADFF8C883874209D030
:1056100003F0BEF8F04BF1A20221CDF8008003F0B8
:1056200083F852E001221146FE200EF071FC07467D
:10563000B06801F07FFA874209D003F0A9F8E64B81
:10564000EBA20221CDF8008003F06EF83DE00122CC
:105650000221FE200EF05CFC0746F06801F06AFAB9
:10566000874209D003F094F8DB4BE6A20221CDF883
:10567000008003F059F828E000220221FE200EF0FD
:1056800047FC0746306901F055FA874209D003F01C
:105690007FF8D14BE0A20221CDF8008003F044F85E
:1056A00013E000220321FE200EF032FC0746706951
:1056B00001F040FA87420CD003F06AF8C64BDBA237
:1056C0000221CDF8008003F02FF805B00020BDE8DE
:1056D000F08F96E80F107669666184E80F104FF03E
:1056E000010B01F027FA4FF008094FF003080028DA
:1056F00008BFE56152D0206801F01CFAC0B2002258
:10570000102100F05CFBE0610026206801F012FA35
:10571000002884BF4FF0FF3AFF273FD93146206869
:1057200001F006FA009501950295039501784A0863
:10573000BDF8001062F34401ADF80010027862F386
:105740000001ADF800100188090A8DF80110817878
:105750008DF80210C1788DF804A08DF808508DF8EE
:1057600009508DF805508DF80C708DF803108DF8E8
:1057700006508DF80A708DF80D708DF807508DF871
:105780000B708DF80E506946E06900F03DFB701C0F
:1057900086B2206801F0CEF9B042BFD8002620685A
:1057A00001F0C8F9002804BFA586A56348D00027EA
:1057B000206801F0BFF9002819D93946206801F0A6
:1057C000B7F9008810F0010F0AD1B9EB102F18BFFC
:1057D000B8EB102F04D1C0F34300B04288BF064697
:1057E000781C87B2206801F0A5F9B842E5D8711C91
:1057F000A18606F0A5FAA38E0122042106F0AAFADA
:10580000A0630026206801F095F9002818D93146D8
:10581000206801F08DF9008810F0010F09D1B9EB73
:10582000102F18BFB8EB102F03D1A16BC0F34300AA
:105830000E54701C86B2206801F07CF9B042E6D8A4
:10584000606801F077F9002808BF25624ED06068D3
:1058500001F070F9C0B200220C2100F0B0FA206211
:1058600006F06EFA04220123114606F073FA81460F
:1058700006F066FA04220123114606F06BFA804610
:105880000026606801F056F900282FD9314660687B
:1058900001F04EF9009507460195029500789DF8B4
:1058A000001060F305018DF800103878800960F36E
:1058B00087118DF80010CDE901986946206A00F043
:1058C000A3FAE06900F0E5FA387800F03F01E069FA
:1058D00000F061FA0146387801EB90108672701C76
:1058E00086B2606801F026F9B042CFD8A06801F016
:1058F00021F9002808BF65623AD0A06801F01AF9C2
:10590000C0B20022012100F05AFA60620095002620
:10591000A06801F00FF900282AD93146A06801F0EB
:1059200007F9074600789DF80010800960F3871199
:105930008DF80010387860F305018DF80010694685
:10594000606A00F061FAE06900F0A3FA387800F0CC
:105950003F01E06900F01FFA0146387801EB901032
:105960000673701C86B2A06801F0E4F8B042D4D887
:10597000E06801F0DFF8002808BFA5621ED0E068EB
:1059800001F0D8F8C0B20022042100F018FAA06299
:105990000026E06801F0CEF800280FD93146E06813
:1059A00001F0C6F800906946A06A00F02DFA701C5C
:1059B00086B2E06801F0BEF8B042EFD8206901F08D
:1059C000B9F8002808BFE56258D0206938E0000027
:1059D000840D0020904E0408515504086A6F696ECA
:1059E000747320636667206D69736D61746368000A
:1059F0006D6F746F727320636667206D69736D617C
:105A0000746368006D61697320636667206D6973F4
:105A10006D6174636800000073747261696E206365
:105A20006667206D69736D6174636800736B696E7E
:105A300020636667206D69736D6163680000000014
:105A400001F078F8C0B20022042100F0B8F9E06259
:105A50000026206901F06EF800280FD93146206930
:105A600001F066F800906946E06A00F0CDF9701C1C
:105A700086B2206901F05EF8B042EFD8606901F0AB
:105A800059F8002808BF25631ED0606901F052F85C
:105A9000C0B20022042100F092F920630025606961
:105AA00001F048F800280FD92946606901F040F854
:105AB00000906946206B00F0A7F9681C85B2606908
:105AC00001F038F8A842EFD80E2104F13C00FCF7B1
:105AD0007EF884F818B005B02046BDE8F08F0028A5
