:020000040802F0
:1000000040520120A1040208A9040208AB0402081E
:10001000AD040208AF040208B104020800000000A9
:10002000000000000000000000000000890302083A
:10003000B504020800000000290402088D0402082B
:10004000BB040208BB040208BB040208BB0402088C
:10005000BB040208BB040208BB040208BB0402087C
:10006000BB040208BB040208BB040208BB0402086C
:10007000BB040208BB040208BB040208BB0402085C
:10008000BB040208BB040208BB0402088B20020860
:1000900005200208BB04020885200208BB040208F0
:1000A000592E0208A92E0208812E0208BB0402085C
:1000B000F12E0208152F02083D2F0208BB0402088A
:1000C000BB040208BB040208BB0402081D2B020883
:1000D000232B0208BB040208BB040208BB0402086D
:1000E000BB040208BB040208BB040208DD2F02089F
:1000F0002D30020805300208BB040208BB040208C8
:10010000BB040208BB040208652F0208292B020861
:10011000BB040208BB0402088D2F0208B52F020899
:10012000BB040208BB040208BB040208BB040208AB
:10013000BB040208ED250208BB04020817210208CF
:1001400091200208BB04020811210208BB04020826
:10015000BB040208BB040208BB040208BB0402087B
:10016000BB040208BB040208BB040208BB0402086B
:10017000BB040208BB040208BB040208BB0402085B
:10018000BB040208BB04020800F002F800F0ADF85E
:100190000AA090E8000C82448344AAF10107DA45E2
:1001A00001D100F0A2F8AFF2090EBAE80F0013F087
:1001B000010F18BFFB1A43F001031847D86D020066
:1001C000F86D02000023002400250026103A28BF05
:1001D00078C1FBD8520728BF30C148BF0B607047B9
:1001E000642901F07582782901F0AE82732901F04B
:1001F00016860020704710B510BD0000704770478C
:1002000002020138DF27F2010000020800000400AA
:1002100000000020C0FF01000000000000000000FE
:100220000761454D53303267656E30340000000081
:1002300001000100010000004558540000000000CA
:1002400046656220313820323031352031353A323E
:10025000323A3238000000000000000000000000C8
:10026000000000000000000000000000000000008E
:10027000000000000000000000000000000000007E
:100280000A444FF0000C10F8013B13F0070408BFBC
:1002900010F8014B1D1108BF10F8015B641E05D05A
:1002A00010F8016B641E01F8016BF9D113F0080F0F
:1002B0001EBF10F8014BAD1C0C1B09D16D1E58BFA1
:1002C00001F801CBFAD505E014F8016B01F8016BD8
:1002D0006D1EF9D59142D6D370471FB523F0C9FCE6
:1002E0009DE8030001F08CFC1FBD01F008FE1146E3
:1002F000FFF7F3FF1AF0F2F901F026FE03B4FFF75F
:100300007AFF03BC01F054FE004870470020000053
:100310000048704700000100401EFDD170470000FA
:1003200080F309887047EFF309807047684680F3CF
:10033000098804480078C00714BF0220032080F316
:1003400014887047B8050020DFF818C0EFF3058364
:100350001B0618BF6047EFF31483DB0708BF604735
:1003600000DF7047C9CB0308DFF818C0EFF305833F
:100370001B0618BF6047EFF31483DB0708BF604715
:1003800000DF704741CC0308EFF30980816911F861
:10039000021C99BB90E80F1010B5E047BDE8104073
:1003A000EFF3098C8CE807001C4B93E806009142A0
:1003B00008BF704781B11EF0100F06BF2CED108AE8
:1003C0000120002081F838002CE9F00FC1F83CC072
:1003D0000CB41EF013F80CBC1A60D2F83CC0BCE898
:1003E000F00F92F8380000281ABFBCEC108A6FF0AA
:1003F000120E6FF0020E8CF30988704710B5084A90
:100400001268914209D8074C54F8214090E80F1027
:10041000A047EFF3098C8CE80F0010BD800400208A
:10042000002002080020020810B51DF0E5FEBDE81E
:100430001040154B93E80600914208BF7047EFF358
:10044000098C1EF0100F06BF2CED108A0120002031
:1004500081F838002CE9F00FC1F83CC00CB41DF055
:10046000CDFF0CBC1A60D2F83CC0BCE8F00F92F88B
:10047000380000281ABFBCEC108A6FF0120E6FF023
:10048000020E8CF3098870478004002010B51DF01F
:10049000D9FFCCE710B51BF05BF91DF0D3FFC6E721
:1004A0000948804709480047FEE7FEE7FEE7FEE708
:1004B000FEE7FEE7FEE7FEE7FEE7FEE70448054944
:1004C000054A064B70470000F12D02088901020819
:1004D00040320020405201204032012040320120B1
:1004E000F7B514466E46002914BF0125002588483B
:1004F0000078E8B100F07AFA2946304603F09CF81B
:10050000C5B2012C0DD183480099834CC0F8261048
:10051000014620684022001D01F00AFA206800F020
:100520003DFE00F06DFA012D02BF002003B0F0BDCA
:100530004FF0FF3003B0F0BD38B56C460090002995
:1005400014BF012500257248007860B100F04EFA12
:100550002946204603F070F8C4B200F051FA012C8D
:1005600004BF002038BD4FF0FF3038BD2DE9F34700
:1005700067480D46E94600784FF0FF37F0B1674E07
:100580003088D8B100F032FA30880024002888BFC3
:10059000DFF88C810FD900BFC4EBC40008EB40002A
:1005A000042249460A3001F097F960B1601CC4B2D8
:1005B00030888442F0D300F023FA11E002B04FF00B
:1005C000FF30BDE8F087C4EBC40008EB4000041D19
:1005D00000F016FA00271DB120682860A088A880C6
:1005E00002B03846BDE8F0872DE9F1434848E846B7
:1005F0004FF0FF360078E8B1484D2888D0B100F0C0
:10060000F5F928880024002888BF454F0FD900BF7E
:10061000C4EBC40007EB4000042241460A3001F05D
:100620005BF958B1601CC4B228888442F0D300F052
:10063000E7F919E04FF0FF30BDE8F883C4EBC400E0
:1006400007EB4000041D00F0DBF906223549204687
:1006500001F042F958B106223349204601F03CF935
:10066000002818BF002602D03046BDE8F8834FF0BE
:10067000FF36F9E7002070470020704710B5254C81
:10068000FF21204602F025FE28484FF4C1634FF0B9
:10069000080C0169C4F80610828A6281A3814FF4B4
:1006A0008073E381A4F810C04FF0060C84F812C0E8
:1006B0004FF0040C84F813C0A382C4F816106283B0
:1006C0008069E06104F1200002F0FFFD0020C4F821
:1006D0002600C4F82A00C4F82E00C4F83200C4F87A
:1006E00036000D4AC4F83A00E08704F14001116079
:1006F0002A220A80488010BD90F82010202984BF4B
:100700004FF0FF30704710B500F0F3FC002010BD33
:10071000D80300209C110020D003002036040020C4
:10072000F8140020F0560408F656040820120020A1
:10073000B84A126F02B11047FEE770B50C46B8B167
:100740000546FFF797FF0646284600F091FC064451
:10075000284600F029FA0644284600F06CFA0644C0
:10076000284600F067FC3044002C18BF206070BDA4
:10077000E120A84AA8A1126F12B19047002070BDD5
:10078000FEE710B5A34C606F002808BF10BD80477E
:100790000028AB49086018BF10BDE020226FA9A156
:1007A00012B1BDE810401047FEE770B5A44D416F8F
:1007B00081B1816F974C00291FBFC16F0029D0F80C
:1007C000800000280DD0606F002818D08047286076
:1007D00080B114E000218167C167C0F880102960F2
:1007E0000DE0226FE320A7A11AB190474FF0FF3030
:1007F00070BDFEE7226FE02092A112B19047002069
:1008000070BDFEE710B5D821824801F074F98C491B
:100810000020086010BD2DE9F0417E4C884605009F
:1008200007D02A6F2267287850B1E420A0A132B106
:100830002EE0226FE120ABA1002A29D1FEE7FEE7DE
:10084000B1480078012804D02846FFF755FF20B1B1
:100850001AE0E020ADA1DAB9FEE7D8216D4801F039
:100860004AF9774F002628463E6000F01EFC58B932
:10087000284600F09FF938B9284600F0E2F918B987
:10088000284600F0DDFB40B1AA49226FE3205AB1AF
:1008900090474FF0FF30BDE8F08141462846FFF712
:1008A000EBFE002875D100E0FEE72846FFF7E2FEE8
:1008B00020F0030080444146284600F0DBFB00287E
:1008C00067D1284600F0D4FB20F003008044414665
:1008D000284600F06BF900285BD1284600F064F947
:1008E00020F0030080444146284600F0A6F9002885
:1008F0004FD1284600F09FF920F0030000EB0801DB
:10090000284600F099FB002843D1284600F092FBCE
:10091000D82229463F4801F092F83E4D2846FFF77D
:10092000ADFE002835D1686F60B1A96F00291FBFE7
:10093000E96F0029D5F88010002909D08047386078
:1009400068B111E0AE67EE67C5F880603E600BE00D
:10095000226FE3204BA10AB190471AE0FEE7226F15
:10096000E02038A12AB19047284600F085FB80B9E5
:1009700000E0FEE7284600F01BF950B9284600F0D9
:100980005EF930B9284600F059FB002808BFBDE8E1
:10099000F0814FF0FF30BDE8F08170B504000D46E6
:1009A00016D0FFF767FE0646204600F061FB0644BE
:1009B000204600F0F9F80644204600F03CF90644D1
:1009C000204600F037FB3044002D18BF286070BD72
:1009D000E120104A10A1126F12B19047002070BDA3
:1009E000FEE718E7002070470020704714480068B1
:1009F000002808BF7047074AD2F88010926F10474E
:100A00000F480068002808BF70470249C96F0847AF
:100A100000687047201200206970616C5F6261732A
:100A2000655F6D656D6F72795F67657473697A650F
:100A30002829206E65656473206120636667000065
:100A4000D40300206970616C5F626173655F6869DF
:100A5000645F7468726561647361666574795F6907
:100A60006E697428293A2063616E6E6F7420616C20
:100A70006C6F6361746520746865206D757465784A
:100A8000000000006970616C5F626173655F696E90
:100A9000697469616C6973652829206E6565647382
:100AA000206F73616C2066756E6374696F6E73007E
:100AB0006970616C5F626173655F696E69746961B9
:100AC0006C69736528293A20756E737570706F7242
:100AD000746564207463702F697020737461636B34
:100AE000000000006970616C5F626173655F696E30
:100AF000697469616C69736528293A206D6973733B
:100B0000696E672063666700D80300206970616CB6
:100B10005F626173655F696E697469616C69736551
:100B200028293A20616C726561647920737461725E
:100B300074656400746E040831B524486C4600780E
:100B400038B1234890F82C0018B19DF80000EF2828
:100B500002D04FF0FF3038BDFFF748FF204619F0B4
:100B600013F9002814BF00244FF0FF34FFF748FFAB
:100B7000204638BD31B515486C46007888B1144818
:100B800090F82C0068B1FFF731FF204619F024F9E6
:100B900000280CBF4FF0FF340024FFF731FF204640
:100BA00038BD4FF0FF3038BD00207047002070473F
:100BB0000020704790F82D10062984BF4FF0FF30B9
:100BC000704710B500F016FB002010BDD8030020C0
:100BD00020120020224810B5406848B12148017811
:100BE00001290CD00121017019F060FB002010BD1B
:100BF0001DA1E120FFF79CFD4FF0FF3010BD24A1A7
:100C0000E020FFF795FD4FF0FF3010BD10B5FFF766
:100C1000EDFE19F077FDBDE81040FFF7F1BE10B50D
:100C2000FFF7E4FE22F0A6FBBDE81040FFF7E8BEA8
:100C30000B48406870470020704700207047002034
:100C400070470189B1F5C05F84BF4FF0FF30704736
:100C500010B50021034A117000F024FB002010BDE4
:100C600020120020D80300206970616C5F737973D3
:100C70005F737461727428293A206D697373696EA9
:100C80006720636F6E66696775726174696F6E0065
:100C90006970616C5F7379735F7374617274282912
:100CA0003A2063616E6E6F74207374617274206198
:100CB0006761696E0000000008B1062801D90020B4
:100CC0007047F0B515460A46E64900EB400085B08E
:100CD00001EBC000A0F1180450F8080C0A9F1E4652
:100CE00098B11046FFF794FE0346E06820B19842A1
:100CF00004BF2089A84208D10396ADF8087000957A
:100D0000D4E904C002AA2146E04705B00020F0BDA6
:100D10004107090EC0F3C00241EA0211C0F30012FC
:100D200010B541EAC201C0F3401041EA8004CE4848
:100D30000078002808BF10BDFFF758FECB4A0121FC
:100D4000204622F047FBC0B1C64900EB400201EB50
:100D5000C20404F8180C002024F8160C44F8140CF3
:100D600024F8100C44F80C0C44F8080C44F8040C5B
:100D7000FFF746FEA4F1180010BDFFF741FE00206A
:100D800010BD70B504001CBF2078002821D0FFF7EB
:100D90002DFE6088002518B1207822F0FDFA6580CC
:100DA000207822F079FB06462078AE4900EB40001F
:100DB00001EBC00000F8185C257065806560258136
:100DC000E56025616561FFF71BFE002E1CBF00205A
:100DD00070BD4FF0FF3070BD70B515460E46040073
:100DE0001DBF20780028002D4FF0FF3008BF70BDD8
:100DF000FFF7FCFD608820B1207822F0CDFA0020BA
:100E000060809849002000BF00EB400201EBC20265
:100E10005288AA4210D0401CC0B20628F4D32078D1
:100E2000294622F0FBFA10F0FF0F05D065806660BE
:100E3000FFF7E6FD002070BDFFF7E2FD4FF0FF3049
:100E400070BD2DE9F04790460F46040019BF207889
:100E500000284FF0FF30BDE8F087FFF7C7FD60883E
:100E600050BB207800264546002818BF002D2DD005
:100E7000FFF7BCFD60884FF0000920B1207822F018
:100E80008BFAA4F802907749002000BF00EB4002E3
:100E900001EBC2025288AA4216D0401CC0B20628FA
:100EA000F4D32078294622F0B9FA10F0FF0F0BD0C6
:100EB00065806660FFF7A4FDA4F80880E760FFF78F
:100EC0009FFD0020BDE8F087FFF79AFDFFF798FD32
:100ED0004FF0FF30BDE8F08710B5040019BF20784F
:100EE00000284FF0FF3010BDFFF780FD002020816B
:100EF000E060FFF785FD002010BD2DE9FF4182B0C5
:100F000098460C46050004AF1CBF2878002828D05E
:100F10006888002818BF002C23D0606800281CBFF8
:100F2000208800281DD0FFF761FD208822F04AFAB2
:100F300006001BD02288616800F0FAFC208800902F
:100F4000287833464246394622F0BEFA00280CBFC4
:100F50004FF0FF340024FFF753FD06B02046BDE8F4
:100F6000F08106B04FF0FF30BDE8F081FFF748FD9B
:100F700006B04FF0FF30BDE8F0812DE9F04383B0BB
:100F80000C4605001CBF688800283CD0E868002893
:100F90001CBF2889002836D0FFF728FDE86801909B
:100FA0002878B5F808900DF104084FF0FF360028B6
:100FB0001CBF6888002820D0002C1FBF6068002854
:100FC0002088002819D0FFF711FD208822F0FAF9B7
:100FD000070010D02288616800F0AAFC20880090E9
:100FE00028783B464A46414622F06EFA00280CBF5C
:100FF0004FF0FF360026FFF703FDFFF701FD03B0BA
:101000003046BDE8F08303B04FF0FF30BDE8F08319
:10101000002812BF00294FF0FF30704770B5164608
:101020000D460446FFF7E2FCC4E90456FFF7E8FC6E
:10103000002070BD002070470020704700207047DE
:1010400010B5044690F83000062884BF4FF0FF30FA
:1010500010BD9021034800F04EFD204600F087F9B6
:10106000002010BDF8120020D8030020B90C02089F
:10107000002070470020704710B5D0F88C10002970
:101080001CBFD0F89010002908D0D0F89410002987
:101090001FBFD0F898000028002010BD05A1E12056
:1010A000FFF746FB4FF0FF3010BD10B500F093F88E
:1010B000002010BD6970616C5F6574685F68696469
:1010C0005F696E697428293A206D697373696E6768
:1010D000206574682066756E6374696F6E730000B6
:1010E000A94890F82200012818BF7047002002F09C
:1010F000C5BB10B504464FF4E071A44800F0FBFCFA
:10110000A34894F82010C180A249626AB2FBF1F2B0
:10111000028194F821200270A26AB2FBF1F14170C1
:10112000002010BD9848D0F89C00002808BF7047E8
:10113000004700291CBF0020704714F0D1B810B53B
:10114000954A84B09069D2E90812CDE902128E4A1C
:101150000090907A8DF8000090480190904890F8A7
:1011600003C081884FEA1C230B4381784FEA0C6C43
:101170004CEA014C4478007843EA11414CEA042CD3
:1011800041EA14614CEA0000CDE90201D2F88C106A
:10119000684688477E49487104B010BD7A49D1F845
:1011A0009810084710B5784CD4F890008047D4F8D0
:1011B0008800002808BF10BDBDE81040004710B5EA
:1011C000714CD4F88400002818BF8047D4F89400EC
:1011D000BDE8104000476E4902694A61808A088371
:1011E00000207047684991F82C10012918BF7047FA
:1011F0001BF0F8BB654A0021664BC2F8C011C2F86B
:10120000C411C2F8C811C2F8CC11C2F8D011C2F88A
:10121000D411C2F8D811C2F8DC11C2F8E01142684A
:101220005B49B3FBF2F290F82D00488192B24CF684
:10123000CD405043800C887000207047062806D2AD
:10124000584901EB4011F030C0B2FFF771BA56A116
:10125000E020FFF76DBA10B519F058F84A4C94F831
:101260002C00012808BF19F063F894F82F0001281A
:1012700008BF19F085F894F82200012818BF10BDA6
:101280000020BDE8104002F0F9BA10B51DF0A0F939
:101290003D4890F82C00012818BF10BDBDE8104053
:1012A0001DF0EEB92DE9F041384D00260446C5F891
:1012B000E461C5F8E861C5F8EC61C5F8F061C5F80E
:1012C000F461C5F8F861C5F8FC61C5F80062C5F8BD
:1012D0000462C5F80862C5F80C62C5F81062C5F86A
:1012E0001462C5F818624FF4C05105F50870C5F8CE
:1012F0001C6200F000FC05F5C0572548C7F82862BD
:10130000C7F82C62C681A169C5F8E411E169C5F886
:10131000EC1105F5F271C0220A73A8234B738E738A
:101320004FF0FE0C81F80FC00A744B748E7481F874
:1013300013C00A714B71184A8E7181F807C0D2E947
:101340000012C7E988120121C17021890161114A87
:101350006168B2FBF1F181810020BDE8F0810A49AA
:1013600091F82F10012918BF70471BF07BBB10B5F7
:1013700004464821124800F0BEFB054894F830109E
:101380000171002010BD000020120020F814002080
:101390003004002040420F0098570408A05704086A
:1013A00044040020C0570408756E6B6E6F776E2082
:1013B00073797374656D206572726F72000000003E
:1013C000282F002000487047DC31002070B5A0FBBA
:1013D0000140B4F1805170F1000024BF002070BDC5
:1013E000204600F081FC05001CBF214600F061FB97
:1013F000284670BD70B516460D46041F002808BF6C
:1014000070BD002E1CBF05F10C00AFF300802B4611
:101410005868002818BFA04238BF0346F8D319689F
:10142000CA18A24218BF5C6003D122681C4611444E
:10143000196021680A19824218BF606004D14268AD
:101440006260006808442060002E1CBF05F10C009B
:10145000AFF3008070BD10B5044600F0B6FB016824
:101460002046BDE810400122C4E70B3020F0070001
:1014700070472DE9F0410F460546041F00F0A5FB1B
:101480000668F7B1384615B3FFF7EFFFB8420546D7
:101490003CBF0020BDE8F08106F10C00AFF30080F6
:1014A0002268AA4238BF314615D3511B082931D3CF
:1014B0006019002240F8041B31462560FFF79AFFAF
:1014C00028E02846FFF7C7FF0020BDE8F081BDE80F
:1014D000F04100F009BC4868002818BFA04238BF9E
:1014E0000146F8D3131983421BD103681A4495426D
:1014F00017D8531B082B0AD343686219536023681B
:1015000000681844401B106025604A6002E02260B9
:101510004068486006F10C00AFF30080201DBDE874
:10152000F08100223146281F00F09DFB05000AD003
:101530002068211D021F284600F081FA0022314652
:10154000201DFFF757FF06F10C00AFF3008028467F
:10155000BDE8F08153EA020C00F069802DE9F04B00
:101560004FF00006002B1FBFB3FA83F503FA05F412
:1015700024FA05F65E4012BF1643B2FA82F502FA6B
:1015800005F4C5F120051EBF22FA05FC44EA0C044F
:10159000203556EA044C4FEA144418BF641C4FF03F
:1015A00000084FF00009904271EB030C39D3002979
:1015B00019BFB1FA81F701FA07F6B0FA80F700FA1D
:1015C00007F6C7F120071EBF20FA07FC46EA0C0603
:1015D0002037B6FBF4FCA7EB0507103F07F01F0B05
:1015E000CBF120060CFA0BFB2CFA06F644BFB346EF
:1015F0000026202FA4BF5E464FF0000B5BEA060CCE
:1016000008BF4FF0010B19EB0B09ABFB027C48EB59
:101610000608C01B06FB02CC0BFB03CC71EB0C01D4
:10162000C1E70B46024641464846BDE8F08B13B57C
:101630004FF000004FF00001AFF30080BDE81C4008
:10164000704700000FB47CB50C0009AA009001D0CF
:101650002044401E084B7B4469460190089800F0E6
:10166000ACFB05461CB10020694600F0B9FB2846DA
:101670007CBC5DF814FB00009107000070B50C46BF
:101680000546012A05D02878800600D5EA6900239E
:1016900002E0012305E05B1C934202D2E05C0028DB
:1016A000F9D1A869E618C01AA861286A1844286206
:1016B0002846AFF3008004E0D5E9012114F8010BBE
:1016C0009047B442F8D32846AFF3008070BD0000C5
:1016D0002DE9F0410646002410687529314616A50B
:1016E00010D0AFF30080002802DA404213A507E0D3
:1016F00031688A0701D512A502E0490704D511A572
:10170000012401E0AFF3008000210A2206F1240742
:1017100009E0B0FBF2FCB0FBF2F302FB1C0030303E
:1017200078541846491C0028F3D123462A463046EF
:10173000BDE8F04100F0E2BA000000002D0000001A
:101740002B0000002000000070B504460D46214625
:101750001068AFF300802188090502D50F4A7A444A
:1017600002E00E4A7A440E32002104F1240305E01F
:1017700000F00F060009965D5E54491C0028F7D161
:1017800020780023000704D5702D02D009B1022370
:1017900011322046BDE8704000F0B0BA04470200A4
:1017A0002DE9F05F894604464FF0000ADFF824B1C6
:1017B000FB44C0F820A02046E168884700287DD07F
:1017C000252806D0D4E901219047206A401C2062D8
:1017D000F1E700255F462046E16888472028064655
:1017E00007DB312E05D2B81910F8200C08B10543DB
:1017F000F1E7A80701D525F00405C4F81CA00027CF
:10180000C4F818A02A2E09D0304601F096FD38B34E
:1018100004EB8708303EC8F8186019E059F8041B3B
:10182000204604EB87029161E1688847012F064654
:1018300018D1E069002820DA25F020051DE0D8F84D
:10184000180000EB800006EB40003038C8F81800A4
:101850002046E1688847064601F06FFD0028EED17A
:10186000012F0AD02E2E08D12046E16888477F1C20
:101870000646022F45F02005C4DBA069002803DAE4
:10188000404245F00105A061E80701D025F01005B0
:10189000A6B1A6F14100192802D8203645F400650A
:1018A0004A463146204625604D46FEF799FC60B118
:1018B000012807D0ED1D25F0070000E007E000F14A
:1018C000080978E705F1040975E730467AE7206AE8
:1018D000BDE8F09FDA46020040EA010310B59B071D
:1018E0000FD1042A0DD310C808C9121F9C42F8D08A
:1018F00020BA19BA884201D9012010BD4FF0FF303B
:1019000010BD1AB1D30703D0521C07E0002010BD50
:1019100010F8013B11F8014B1B1B07D110F8013BDC
:1019200011F8014B1B1B01D1921EF1D1184610BDBD
:10193000032A40F2308010F0030C00F0158011F8FB
:10194000013BBCF1020F624498BF11F801CB00F8D3
:10195000013B38BF11F8013BA2F1040298BF00F827
:1019600001CB38BF00F8013B11F0030300F06780A2
:10197000083AC0F0088051F8043B083A51F804CB0B
:10198000A0E80810F5E7121D5CBF51F8043B40F8D1
:10199000043BAFF30080D20724BF11F8013B11F8DC
:1019A00001CB48BF11F8012B24BF00F8013B00F820
:1019B00001CB48BF00F8012B7047431A28BF9A4259
:1019C0007FF6B6AF032A1044114440F2268010F08F
:1019D000030F1EBF11F8013D521E00F8013D10F02B
:1019E000030F7FF4F6AF11F0030300F02F82083AE3
:1019F000C0F00B8051F8043D083A51F804CD40F88E
:101A0000043D40F804CDFFF7F3BF121D5CBF51F851
:101A1000043D40F8043DAFF30080D20724BF11F825
:101A2000013D11F801CD48BF11F8012C24BF00F889
:101A3000013D00F801CD48BF00F8012C704710B5FA
:101A4000203AC0F00B80B1E81850203AA0E81850B6
:101A5000B1E81850A0E81850BFF4F5AF5FEA027C77
:101A600024BFB1E81850A0E8185044BF18C918C0E6
:101A7000BDE810405FEA827C24BF51F8043B40F887
:101A8000043B08BF7047D20728BF31F8023B48BF6C
:101A900011F8012B28BF20F8023B48BF00F8012BAA
:101AA000704702F0FF0343EA032242EA024200F0D9
:101AB00002B84FF000020429C0F0128010F0030CAD
:101AC00000F01B80CCF1040CBCF1020F18BF00F831
:101AD000012BA8BF20F8022BA1EB0C0100F00DB8E0
:101AE0005FEAC17C24BF00F8012B00F8012B48BF3E
:101AF00000F8012B70474FF0000200B513469446E2
:101B00009646203922BFA0E80C50A0E80C50B1F155
:101B10002001BFF4F7AF090728BFA0E80C5048BF69
:101B20000CC05DF804EB890028BF40F8042B08BF07
:101B3000704748BF20F8022B11F0804F18BF00F803
:101B4000012B70474FF0013C50F8042B51F8043B37
:101B50009A4221D1A2EB0C03934313EACC1317D181
:101B600050F8042B51F8043B9A4215D1A2EB0C0318
:101B7000934313EACC130BD150F8042B51F8043BD8
:101B80009A4209D1A2EB0C03934313EACC13DBD0A6
:101B90004FF00000704700BFD01A01BAB1FA81F1CE
:101BA00001F0180122FA01F0CB40C1F12001DBB2B3
:101BB000C0B2C01A2CFA01F3D11A914311EAC31131
:101BC000E6D1704770477047704710B5FFF7FAFBD2
:101BD000083010BD7047704738B504460A460020EB
:101BE0006946AFF30080002808BF38BD024600995F
:101BF000204600F05EF9012038BD012000F078B9E0
:101C0000F8B5AFF30080054600200C46102000BF59
:101C10000646A819A0420DD9324669460020AFF306
:101C20000080070008BF00F063F90098A04218BFC9
:101C30000546C419FFF7C9FF05600746F01D20F0EF
:101C400007004619284600F02BF9B44208BFF8BD3A
:101C5000A21B31463868BDE8F84000F02AB90B30C5
:101C600020F0070070472DE9F04117460E46044664
:101C7000FFF7F5FFA042054633D9002F1CBF06F140
:101C80000C00AFF3008030467468F4B12168A942BB
:101C900017D305F1080291423CBF6168416007D348
:101CA000626861194A602268521B0A6041602560BF
:101CB000002F1CBF06F10C00AFF30080201DBDE813
:101CC000F08120466468002CE0D129463046FFF7B9
:101CD00083FF0028D7D1002F1CBF06F10C00AFF303
:101CE00000800020BDE8F08110B50446FFF76DFFCD
:101CF00001682046BDE810400122B4E72DE9F04715
:101D00000D4699469246044600F12408016888066B
:101D100004D5E06921F01001216000E00120A84213
:101D200001DD471B00E00027A1697A1902EB0900D9
:101D3000081AA0612078C00602D42046AFF30080C4
:101D4000002608E0D4E901211AF806009047206A2D
:101D5000401C761C20624E45F4DB2078C0060AD574
:101D60002046AFF3008006E0D4E9012130209047FF
:101D7000206A401C2062381EA7F10107F4DC07E04E
:101D8000D4E9012118F805009047206A401C206220
:101D9000281EA5F10105F3DC2046AFF30080207872
:101DA000000602D50220BDE8F0870120FBE7000015
:101DB00001694A1C02610878704700B58FB0CDE90F
:101DC00001310021059105497944CDE903101146FF
:101DD0006846FFF7E5FC0FB000BD0000E5FFFFFF20
:101DE0000A6802F8010B0A607047D1E900239A42A1
:101DF00002D2531C0B601070704710B5436913B1C9
:101E0000AFF3008001E0FFF739FC012010BD12782C
:101E100000F124010A7000224A700122EDE71168E6
:101E20004FF0FF32E9E7431A28BF9A427FF607AE28
:101E3000104410F0030F11441EBF11F8013D521E53
:101E400000F8013D10F0030F7FF4F6AF103AC0F038
:101E50000A8010B531E91850103A20E91850BFF443
:101E6000F9AFBDE81040530724BF31E9081020E95D
:101E7000081044BF51F8043D40F8043D12F0030F30
:101E800008BF7047D20728BF31F8023D48BF11F89C
:101E9000012C28BF20F8023D48BF00F8012C7047F4
:101EA00000210160C0E901100C3001F04DBA102092
:101EB000704730B404468C464368002B18BF634516
:101EC00038BF1846F8D303681844604507D0C81CCB
:101ED00020F0070000F1040CACEB0100121A2146BF
:101EE000CCF8002030BC00220CF10400FFF782BACD
:101EF00010B500F035F8BDE8104000F02BB875467D
:101F0000FFF760FAAE4605006946534620F0070029
:101F1000854618B020B5FEF7D1FABDE820404FF055
:101F200000064FF000074FF000084FF0000B21F0C3
:101F30000701AC46ACE8C009ACE8C009ACE8C00990
:101F4000ACE8C0098D4670470446AFF300802046D8
:101F5000FEF7D4F9002801D000F02AB8704700003D
:101F600010B5012805D0002103A000F028F80120B9
:101F700010BD09A1F8E7000053494752544D454DA3
:101F80003A204F7574206F662068656170206D651A
:101F90006D6F7279000000003A2048656170206D15
:101FA000656D6F727920636F72727570746564000D
:101FB00001491820ABBEFEE726000200704770B54D
:101FC00005460C460A2000E06D1C00F011F835B102
:101FD00028780028F8D102E0641C00F009F814B158
:101FE00020780028F8D1BDE870400A20AFF30080C7
:101FF00008B569468DF800000320ABBE08BD00009F
:1020000000000000F0B589B0002600960196029607
:1020100003961A481A4D4468E868A76A10F0100F32
:102020001CBF30461FF05AFC384616F03CFC012815
:1020300008D1384616F00AFD012084F82E003046FB
:102040001FF04CFC284604AA002100F0C8F90498AF
:1020500000909DF81A008DF80600DDF81B00029034
:10206000DDF81F0003906946384616F026FD6168CA
:1020700000291CBFA068884709B0F0BD7C30002053
:102080000064004000201FF029BC00201FF062BC4B
:1020900070B58AB001200021009101910291039155
:1020A00019491A4D8C68E968A66A11F0100F18BF1B
:1020B0001FF014FC304616F0F6FB012807D130461D
:1020C00016F0C4FC012084F82E001FF007FC2846FF
:1020D00004AA002100F083F9049800909DF81A00EA
:1020E0008DF80600DDF81B000290DDF81F0003905C
:1020F0006946304616F0E1FC616800291CBFA06803
:1021000088470AB070BD00007C30002000680040A5
:1021100001201FF0E3BB01201FF01CBC10B40823FA
:1021200004224FF0100CB1F5007F40D021DC2029B3
:1021300002BF036110BC704710DC012901BF1D49BB
:10214000816010BC7047042902BFC36010BC704797
:10215000082908BFC0F80CC010BC7047402902BF56
:10216000C0F810C010BC7047B1F5807F1FD010BC04
:1021700070470024B1F5004F08D00BDCB1F5806F3B
:1021800015D0B1F5006F1CBF10BC70478461426070
:1021900010BC7047B1F5803F02BF436010BC704770
:1021A000B1F5003F08BFC0F804C010BC70474260E2
:1021B00010BC704701010100A0F1804110B5B1F5DC
:1021C000C8414FF0010109D0880600F02DFCBDE8A0
:1021D000104000214FF0806000F026BC4FF00070EE
:1021E00000F022FCBDE8104000214FF0007000F02C
:1021F0001BBC000030B4817A354B012202FA01F198
:102200001A6842F001021A60DFF8C8C0DCF800204A
:102210008A43CCF80020047B2F4AD4B914688C433D
:1022200014604488C58844EA0544857AED0005F1C8
:10223000804505F5C045C5F840460488858844EAD0
:102240000544857AED0005F1804505F5C045C5F8E2
:102250004446047B012C18D114680C431460847A22
:102260000268E40004F1804404F5C0444FEA3242BD
:10227000C4F84026847A4268E40004F1804404F5FE
:10228000C0444FEA3242C4F84426C47A134A002CB0
:1022900014680CBF8C430C4314600489104A14B9B1
:1022A00014688C4314600489012C02D114680C4317
:1022B0001460407B012804D1DCF800000843CCF80E
:1022C0000000186820F00100186030BC7047000062
:1022D000006600401C6600400C660040046600403A
:1022E00014660040002A426914BF114322EA01012A
:1022F000416170470268002322F002020260026816
:1023000042F0010202604FF6FF7200BFD0F804C035
:102310001CF0010F03D1934218BF5B1CF6D1436838
:1023200013F0010F59D08B79012B03680CBF43F0D8
:10233000800323F080030360CB79012B03680CBF7B
:1023400043F0400323F0400303600B7A012B036842
:102350000CBF43F0200323F0200303604B7A012BD2
:1023600003680CBF43F0100323F0100303608B7A63
:10237000012B03680CBF43F0080323F0080303603C
:10238000CB7A012B03680CBF43F0040323F0040352
:1023900003608B7891F803C09B0743EA0C6391F8C4
:1023A00004C043EA0C4391F805C0098843EA0C5382
:1023B000491E1943C161016821F00101016000213A
:1023C000436813F0010F1CBF9142491CF8D14068CB
:1023D00010F0010F04BF012070470020704700EB90
:1023E0000113D3F8B0C11CF0040C82F808C0D3F874
:1023F000B0C107BF4FEA5C5CC2F800C04FEADC0C1A
:10240000C2F804C0D3F8B0C10CF0020C82F809C0C5
:10241000D3F8B4C10CF00F0C82F80AC0D3F8B4C1E1
:102420004FEA1C2C82F813C0D3F8B8C182F80BC055
:10243000D3F8B8C14FEA1C2C82F80CC0D3F8B8C14D
:102440004FEA1C4C82F80DC0D3F8B8C14FEA1C6C9F
:1024500082F80EC0D3F8BCC182F80FC0D3F8BCC15B
:102460004FEA1C2C82F810C0D3F8BCC14FEA1C4CB8
:1024700082F811C0D3F8BC311B0E937421B10169ED
:1024800041F0200101617047C16841F02001C16045
:102490007047000009490A6842F001020A600A68B0
:1024A00022F4877222F478520A600A6842EA002015
:1024B0000860086820F0010008607047006600406E
:1024C00000218171C171017241728172C17281708A
:1024D000C170032101710221417101210180704706
:1024E00010B402460020936813F0806F3FD000BF05
:1024F00002EB0012D2F8803103F00103C2F8803100
:102500000B7A002B42D0D2F880C14C684CEA03030E
:1025100091F809C04CEAC40C43EA0C03C2F88031BC
:102520008B7A03F00F038B72D2F8843123F00F0300
:10253000C2F88431D2F8843191F80AC043EA0C031E
:10254000C2F88431CB7AD1F80CC043EA0C23C2F82C
:102550008831CB7B096943EA0121C2F88C11D2F89A
:10256000801141F00101C2F8801110BC70479068E1
:1025700010F0006F18BF0120BAD1906810F0805F92
:1025800014BF02200420B3D110BC7047D2F88031B0
:1025900091F809C043EA0C03B1F800C043EA4C5378
:1025A000BCE700B5002200F007F8C04380B201028A
:1025B00041EA102080B200BD05E000BF30F8023BC8
:1025C000891E5BBA1A440129F8DC11B1007802EBCC
:1025D000002290B200EB124000EB104080B2704736
:1025E000084400EB104080B2704700002DE9F04F26
:1025F00042484FF0000B93B046685F4649F21A0814
:10260000357C4FF4407A4FF00049706900EB0510BB
:102610000168C1F30D410C1F016811EA080F18BFD2
:10262000012732D100683AEA000018BF02272CD1F6
:102630003348001988BF032727D844F0004015F01D
:1026400029FD44F000410090002808BF04271CD059
:102650000820726900EB0510E31C105820F00302FB
:102660000098001D9C0805D052F8043B40F8043B3C
:10267000641EF9D12348026812B10098001D9047EA
:10268000009815F085FF4FF0010B706900EB051005
:10269000C0F8009077B1022F08BF4FF0FF343B46DF
:1026A00019A2402102A80094FEF7CCFF02A9F02055
:1026B00017F0B6F8F07A6D1C854208BF0025357416
:1026C000706900EB0510006810F0004F9DD0194CA8
:1026D0006069194D10F0800F06D065610020A06080
:1026E00016A1F02017F09CF86561BBF1000F18BF30
:1026F00015F0A0FC13B0BDE8F08F0000AC04002082
:1027000016FAFFFFA80400204554485F495251487B
:10271000616E646C657228293A206572726F72204E
:10272000256420666F72206672616D655B25645D4D
:102730000000000000900240C08001004554485F46
:1027400049525148616E646C657228293A2065725D
:10275000726F7220350000002DE9F0010022012582
:102760005FF00306D1F800C005FA02F30CEA030C8F
:102770009C4533D107684FEA420C06FA0CF4A74394
:1027800007600F79D0F8008007FA0CF747EA0807CE
:1027900007600F79012F18BF022F14D18768A74354
:1027A00087604F79D0F8088007FA0CF747EA0807E6
:1027B0008760476827EA0303436043688F7997403F
:1027C000BFB23B434360C368A343C360CB7903FA02
:1027D0000CF3D0F80CC043EA0C03C360521C102A5F
:1027E000C0D3BDE8F00170474B07DB0E9A40C90823
:1027F00000EB8100016A4FF00F0C0CFA03F39943D0
:102800000162016A114301627047024600201269A9
:102810000A4218BF012070470246002052690A424E
:1028200018BF012070474269514041617047002A3A
:1028300014BF0183418370470029018814BF41F40C
:10284000806121F4806101807047838A0022008BBF
:1028500043EA004020F07F4031EA000008BF012237
:1028600010467047C943818270470029018814BF10
:1028700041F0010121F00101018070470029018828
:1028800014BF41F4807121F48071018070470029E8
:10289000018814BF41F4007121F400710180704778
:1028A00082B00246002000920A0F21F07F4101927F
:1028B00008BF090C009A14BF143218320092126833
:1028C0000A4218BF012002B07047818A008B41EA9A
:1028D000004020F07F40704770B50446808884B087
:1028E0000D4620F03F06684600F0C2F829490298DC
:1028F000B0FBF1F189B246EA0102A280228822F0FF
:1029000001022280244B2A689A421DD85200B0FB53
:10291000F2F080B2042838BF0420491C2184A0832F
:10292000208840F0010020802088A9886A8920F052
:102930000A0020F48060114308432080A889298977
:102940000843208104B070BDEB88A3F53F4CBCF177
:10295000FF0C19D002EBC20303EB0212B0FBF2F042
:1029600080B240F480400205120D08BF40F0010023
:1029700040F400404FF4967251434FF47A72B1FB29
:10298000F2F1491C2184CAE702EB4202B0FBF2F0EB
:1029900080B2E8E740420F00A0860100002A14BF81
:1029A00041F0010101F0FE01018270470182704790
:1029B000034940F0FD7040F08060086070470000FF
:1029C0000CED00E021F07F0121F060410843014956
:1029D0000860704708ED00E000487047A003002041
:1029E000044A0029116814BF084321EA000010605E
:1029F0007047000030380240044A0029116814BFB3
:102A0000084321EA000010607047000010380240BF
:102A1000044A0029116814BF084321EA000010602D
:102A20007047000040380240044A0029116814BF72
:102A3000084321EA0000106070470000203802407F
:102A4000044A0029116814BF084321EA00001060FD
:102A50007047000044380240044A0029116814BF3E
:102A6000084321EA0000106070470000243802404B
:102A7000254A30B41168254B11F00C0106D0244CC6
:102A8000042908BF046002D008291ED00360116821
:102A90000F2303EA11111F4B595CD0F800C02CFA28
:102AA00001F14160D2F800C0072404EA9C2C13F81D
:102AB0000CC021FA0CFCC0F808C0126804EA5232BB
:102AC0009A5CD140C16030BC70471349D1F800C056
:102AD000CCF38055D1F800C0002D0CF03F0C14BF92
:102AE000B4FBFCF3B3FBFCF3D1F800C00968CCF3F2
:102AF000881C03FB0CF3C1F30141491C4900B3FBE3
:102B0000F1F10160C3E70000083802400024F4003E
:102B100080F0FA02C40500200438024000201EF0B4
:102B200081BE01201EF07EBE02201EF07BBE002969
:102B3000018814BF41F0400121F04001018070473D
:102B400010B5A0F18041B1F598311AD011F5784156
:102B500022D0B1F580612AD0B1F5784132D0B1F5FB
:102B6000E0513AD0B1F5806118BF10BD0121480590
:102B7000FFF772FFBDE8104000214FF40010FFF78F
:102B80006BBF01210803FFF767FFBDE8104000217C
:102B90004FF48050FFF760BF01218803FFF744FF27
:102BA000BDE8104000214FF48040FFF73DBF0121F8
:102BB000C803FFF739FFBDE8104000214FF4004083
:102BC000FFF732BF01214803FFF746FFBDE8104081
:102BD00000214FF40050FFF73FBF01210805FFF728
:102BE0003BFFBDE8104000214FF48010FFF734BFD9
:102BF0000246002012890A4218BF012070470909C5
:102C0000012303FA01F1002A828889B214BF11431B
:102C100022EA010181807047808970478181704775
:102C200010B402880B88B1F802C0CC8843EA0C03C8
:102C3000B1F804C002F441524CEA040C43EA0C031C
:102C4000B1F808C043EA0C03B1F80AC043EA0C0328
:102C5000B1F80CC043EA0C03B1F80EC043EA0C0310
:102C60001A430280828B22F400628283098A0182E5
:102C700010BC70470021018041808180C1800181AA
:102C800041818181C1810721018270470149C1F8D9
:102C9000DC0070470000274282B0002229490192DF
:102CA0000092086840F480200860086840F4803092
:102CB0000860086800F4003000900198401C019002
:102CC000009818B90198B0F5A04FF2D1086810F437
:102CD000003F02BF009202B07047012000901A48E6
:102CE000026842F0805202601848026842F4404292
:102CF0000260174802680260026842F40042026003
:102D0000026842F4A0520260031F124A1A600A6865
:102D100042F080720A600A6812F0007FFBD00E4A0F
:102D200040F205711160016821F003010160016842
:102D300041F002010160016801F00C010829FAD19B
:102D400002B0704700380240403802400070004036
:102D50000838024032544007003C0240010241EA78
:102D6000102080B270470000DFF86CC030B4DCF88F
:102D700000001A4B10F00C01194806D0194C042918
:102D800008BF046002D008290CD00360DCF80010F2
:102D9000154AC1F30311515C026822FA01F1016086
:102DA00030BC704711490A68C2F380550A68002D8B
:102DB00002F03F0214BFB4FBF2F2B3FBF2F20B6875
:102DC0000968C3F388135A43C1F30141491C490000
:102DD000B2FBF1F10160D9E7083802400024F400A9
:102DE0000404002080F0FA0204570408043802406A
:102DF000134810B5016841F4700101601148016881
:102E000041F001010160104A00211160026822F4C2
:102E1000102222F080720260031D0C4A1A600268C0
:102E200022F4802202600A48016016F051FDFFF78B
:102E300033FF08494FF000600860FFF795FF10BDB1
:102E400088ED00E0003802400838024010300024CD
:102E50000C38024008ED00E010B5084C0121204676
:102E600000F0D8F9012818BF10BD0121204600F05C
:102E700004F9BDE8104008201EF06CBF004001407E
:102E800010B5084C0121204600F0C4F9012818BFF4
:102E900010BD0121204600F0F0F8BDE810400A20E6
:102EA0001EF058BF0048014010B50F4C01212046CC
:102EB00000F0B0F9012806D10121204600F0DDF82C
:102EC00000201EF047FF094C0121204600F0A2F926
:102ED000012818BF10BD0121204600F0CEF8BDE842
:102EE000104009201EF036BF0000014000440140A0
:102EF00010B50121880700F08DF9012818BF10BD19
:102F00000121880700F0B9F8BDE8104001201EF04B
:102F100021BF000010B5084C0121204600F07AF9CD
:102F2000012818BF10BD0121204600F0A6F8BDE819
:102F3000104002201EF00EBF0004004010B5084CE7
:102F40000121204600F066F9012818BF10BD0121BB
:102F5000204600F092F8BDE8104003201EF0FABEB3
:102F60000008004010B5084C0121204600F052F93D
:102F7000012818BF10BD0121204600F07EF8BDE8F1
:102F8000104004201EF0E6BE000C004010B5084CB6
:102F90000121204600F03EF9012818BF10BD012193
:102FA000204600F06AF8BDE8104005201EF0D2BEB1
:102FB0000010004010B5084C0121204600F02AF90D
:102FC000012818BF10BD0121204600F056F8BDE8C9
:102FD000104006201EF0BEBE0014004010B5084C84
:102FE0000121204600F016F9012818BF10BD01216B
:102FF000204600F042F8BDE810400B201EF0AABEAB
:103000000018004010B5084C0121204600F002F9DC
:10301000012818BF10BD0121204600F02EF8BDE8A0
:1030200010400D201EF096BE0020004010B50F4C41
:103030000121204600F0EEF8012806D101212046AA
:1030400000F01BF807201EF085FE094C01212046E8
:1030500000F0E0F8012818BF10BD0121204600F063
:103060000CF8BDE810400C201EF074BE00040140B6
:10307000001C0040C94301827047C9430182704768
:103080000029018814BF41F0010121F001010180F4
:10309000704710B5A0F18041B1F5803132D0B0F168
:1030A000804F43D011F57C4136D0B1F5806147D0D7
:1030B000B1F580614ED0B1F5806155D0B1F5806138
:1030C0005CD0B1F5704163D0B1F570516AD0B1F503
:1030D000806172D0B1F580617AD011F598317DD0E0
:1030E000B1F580617BD0B1F5806118BF10BD0121C1
:1030F0000802FFF799FCBDE8104000214FF48070F2
:10310000FFF792BC01210846FFF7A6FC0021BDE8AD
:1031100010400120FFF7A0BC01210220FFF784FC32
:103120000021BDE810400220FFF77EBC01210846C7
:10313000FFF77AFC0021BDE810400120FFF774BCC6
:1031400001210420FFF770FC0021BDE8104004209D
:10315000FFF76ABC01210820FFF766FC0021BDE8EB
:1031600010400820FFF760BC01211020FFF75CFC35
:103170000021BDE810401020FFF756BC012120209F
:10318000FFF752FC0021BDE810402020FFF74CBCA7
:1031900001210220FFF760FC0021BDE81040022061
:1031A000FFF75ABC01210804FFF756FCBDE81040A8
:1031B00000214FF48030FFF74FBC01214804FFF796
:1031C0004BFCBDE8104000214FF40030FFF744BC39
:1031D00001218804FFF740FC002101E006E00FE038
:1031E000BDE810404FF48020FFF736BC012140209D
:1031F000FFF71AFC0021BDE810404020FFF714BC87
:1032000001218020FFF710FC0021BDE81040802044
:10321000FFF70ABC02460020128A0A4218BF0120AA
:103220007047002A828914BF114322EA010181817B
:10323000704701858282704710B402881C4BDFF80A
:1032400074C0984218BF604511D0B0F1804F1CBFC8
:10325000A0F18044B4F5806409D0A0F18044B4F5B5
:1032600000641CBFA0F18044B4F5406403D14C88D5
:1032700022F070022243A0F18044B4F580541CBFB8
:10328000A0F18044B4F5A05403D00C8922F440721C
:10329000224302804A68C2620A880285984212BFAD
:1032A0006045897A01860121818210BC7047000047
:1032B00000000140000401404FF0FF314160002157
:1032C000018001814180817270470021016081800D
:1032D0007047C9B241EA012141EA014101608180A0
:1032E0007047C9B241EA012141EA014101604160F0
:1032F000704712F0004F1FBF22F00042D21D22F093
:103300000703102202BFD21C22F003030C221BB1C0
:1033100003EB020C8C4501D90120704702440144A3
:103320008360C0E90021C91AD01888429CBF106090
:103330000246F9D900201060704730380A2801D2BF
:10334000012070470020704718F004BA2DE9F047BB
:103350000027DFF8909000280CDA2349D9F80020E4
:1033600020F000400968024401EB4101B2EB910FEB
:1033700018D8012705460F3020F003060FB9FDF7D6
:103380001EFF1A4CD4E90002011B891AB1420CD26B
:10339000044600680028F5D127B9FDF703FF002097
:1033A000FDF74CFF0020BDE8F08772B110192168CD
:1033B0000160206000F10808C0F80460D9F800102E
:1033C0003144C9F8001027B105E004F1080866602F
:1033D000F4E7FDF7E7FEA8F800500020A8F8020087
:1033E0004046E0E7140500204004002018170020A4
:1033F0002DE9F0470746894690460026284C294D7E
:103400000BE0207838B10422394604F10A0017F0A5
:1034100097F9012835D00E34761C28888642F0DBD7
:103420002149384617F0B6F8D0B91F4804220021C8
:10343000001D17F0ABF910B10020BDE8F0870026A1
:10344000174C0AE0207830B106224946201D17F0BB
:1034500077F901281AD00E34761C28888642F1DBD1
:10346000404600F027F80028E7D00D49C0EBC00027
:1034700001EB40040E3C0422394604F10A0017F027
:103480006FF906224946201D17F06AF9074800889F
:10349000E07007480078A070032020700120CCE77E
:1034A000F814002036040020BC140020380400204A
:1034B00030040020F0B50546012116480E46164A94
:1034C00003E0037853B10E30491C13889942F8DDAC
:1034D0001248104B0488002001210DE00670457051
:1034E0000846F0BD5F78012F04D1DF78A74201D8EC
:1034F0003C4608460E33491C1788B942F2DD0028C5
:10350000EFD0044AC0EBC00102EB410101F80E6D9F
:103510004D70F0BDF814002036040020380400205F
:103520002DE9F04781460F4600253D4C3D4E0BE00E
:10353000207838B10422494604F10A0017F000F956
:10354000012815D00E346D1C30888542F0DB3649D9
:10355000484617F01FF8DFF8C880334D01284FF0B8
:10356000040209D00021281D17F010F9E8BB1DE066
:10357000207803284ED350E04946281D17F0E0F884
:10358000012806D104220021281D17F0FFF800B9F8
:1035900000273846FFF78EFF06003CD0C6EBC60179
:1035A00008EB41040E3C042249461DE000271C4C58
:1035B0000BE0207838B10422291D04F10A0017F02D
:1035C000BFF80128D4D00E347F1C30888742F0DB4E
:1035D0000020FFF76FFF06001DD0C6EBC60108EB09
:1035E00041040E3C0422291D00E013E004F10A000E
:1035F00017F0B6F806220D49201D17F0B1F80C4857
:103600000078A0700B480078E070304600F036F982
:10361000022020700020BDE8F0872046FBE7000074
:10362000F814002036040020BC140020705D04084B
:10363000300400203104002070B50D4606460422F7
:103640000E4917F07DF8012814D0304616F0B4FF6B
:1036500001280FD029463046FFF762FF040008D04A
:103660000422314604F10A0017F06AF8012802D05A
:1036700002E0002070BD6570012070BD6C5D040823
:103680002DE9F0470026DFF8D480DFF8D490B24669
:10369000344F5DE0B9F80050691C89B2A9F80010F8
:1036A0003A88914201D3A9F800A02F49C5EBC50083
:1036B00001EB40042078C8B3E07820B1401E10F040
:1036C000FF00E07043D1607801280AD10422274925
:1036D00004F10A0017F034F8012806D060780128B8
:1036E00018D010F0FF0F02D031E084F801A00422BE
:1036F0001F4904F10A0017F023F8012817D0207899
:10370000032818D0A07800B3401E10F0FF00A0706E
:103710001BD012E02078032817D0A078A8B1401E53
:1037200010F0FF00A07010D0022005E00FE011485B
:103730000088E0700BE00420207098F80000E07032
:10374000681CBDE8F04700F099B884F800A0761C2A
:10375000388886429EDBBDE8F087000031040020F7
:103760002004002036040020F8140020C01400209B
:103770006C5D0408380400202DE9F0410646002560
:10378000134C00F10E08134F0DE0207848B10128CA
:1037900007D0042204F10A01404616F0D1FF0128A7
:1037A00006D00E346D1C38888542EEDBBDE8F08112
:1037B000062206F10801201D16F0D2FF06480088F7
:1037C000E07006480078A07003202070EEE700004B
:1037D000F8140020360400203804002030040020B3
:1037E0002DE9F04105460E462A20FFF7AFFD0446BD
:1037F00005F1080106220F46001D16F0B1FF062252
:103800001C4904F10A0016F0ABFF4FF4C16020829E
:103810004FF4807060820820A0820620A0750420EA
:10382000E075268304F1240006223946064616F088
:1038300097FF05F10E0104F12A000422054616F057
:103840008FFF06220B4904F11A0016F089FF0422AB
:10385000094904F1200016F083FF01223146284671
:10386000FFF7C6FD2046FDF799FC2046BDE8F04174
:1038700011F012BE44040020BC14002070B50546AF
:103880002A20FFF763FD044606222349001D16F097
:1038900067FF0622214904F10A0016F061FF4FF488
:1038A000C16020824FF4807161820820A0820620CE
:1038B000A0750420E07521830622184904F11A003E
:1038C00016F04EFF0422164904F1200016F048FFBE
:1038D0004FF0060265B1002104F1240016F04EFFFE
:1038E0001049C5EBC50001EB40010422091F06E0A9
:1038F000094904F1240016F033FF0949042204F1B8
:103900002A0016F02DFF2046FDF748FC2046BDE8B2
:10391000704011F0C1BD0000705D04084404002037
:10392000BC140020F814002010B50446006808F00C
:1039300045FE606808F042FE2169A0680AF040FD7B
:1039400000206063A063606210BD70B58AB0054658
:1039500003F070FC03F060FC0446002601F0C2FB9B
:10396000002301AA294601F0DFFB9DF8040006F5BB
:10397000CA43C0F34301C0F3411241EA0225C0210A
:10398000ADF808108021ADF80A104FF45451ADF88D
:103990000C1002A9009100F001011E462A462046A3
:1039A00000F00CFD4FF42770ADF8220042F6E06005
:1039B000ADF8200008A800909DF80400F3B203F5CC
:1039C000E04300F001011E462A46204600F0F6FCC6
:1039D00041F28830ADF8240009A800909DF8040059
:1039E000F3B200F001012A46204603F5904300F0AF
:1039F000E5FC0AB070BD00000648016891F820108F
:103A0000002908BF7047406803224168022018F06F
:103A10000BB9000058060020C0F3033003490C28FE
:103A20008CBF086851F8200070470000400100205A
:103A3000002804BF4FF0FF30704752EA030108BF6F
:103A400042F2222222F07F42110A120642F00202C2
:103A5000C0E90021034981606FF07F41C16000200F
:103A6000704700000A000163002804BF4FF0FF30D8
:103A7000704710B5383004A1FEF764F8002818BF6D
:103A80004FF0FF3010BD0000455854001EF074BFC9
:103A90001EF0EABF1FF010B810B5040008BF1D4C9F
:103AA00040221D491D481EF0E1FE1B481C4990F9AB
:103AB000002091F900309A4209D190F9012091F942
:103AC00001309A4203D18978807881420AD0144922
:103AD0004022A1F108001EF005FF40220E490F48C8
:103AE0001EF0C4FE20791EF075FE10B1206870B182
:103AF00080471FF09DF810B1206840B180471FF04B
:103B00002BF810B1206810B18047002010BD4FF095
:103B1000FF3010BDB83F04089C070020C03F0408D8
:103B2000C83F04081EF088BE002070471FF008B987
:103B30001FF022B91FF03CB91FF0B4B91FF0CEB985
:103B40001EF012BFFEB5044600690D46002871D074
:103B500000264AB1D00717D0208C322811D9607FB7
:103B600040F04000607710E060690D1A02D505F55D
:103B7000803504E0B5F5803F01DBA5F5803526846E
:103B800010E0401C208400E0268490070AD5608C59
:103B9000322804D9607F40F08000607703E0401C49
:103BA000608400E06684607F80071BD5C4B12AB9B9
:103BB000A07F00B965606068A84201D0A6770FE0D9
:103BC000A07F401CC1B2A177032909D36560A5601D
:103BD000E660A6612560A677607F20F0020161772C
:103BE000E66024E01ABB6068281A16F0DFFD00F1D9
:103BF00070016560E02922D8A068281A16F0D6FD69
:103C000008B9A169B9B1A560A169A06101444910D1
:103C100002D0206808442060E0684FF47A7322697B
:103C2000C0EBC000594302FB0100C010E0602168F6
:103C300020694843FEBDE068C0EBC000F5E7ADF881
:103C400008008DF80A60207F8DF80B000B21022000
:103C50000BF0CAFB019003F041FF01A90023009182
:103C60001A46022103F006FFE5E7C068704710B569
:103C7000044607F015F901232422042107F01AF95C
:103C800000280DD004770021016041608160C1608F
:103C9000416101618161018441848177072141771C
:103CA00010BD002804BF6FF00100704700210170B3
:103CB00008467047002812BF00296FF001007047C6
:103CC00091E80E1080E80E100020704710B50A46EB
:103CD0004FF0FF3458B30178012907D002290FD0E3
:103CE000032904BF0178032913D023E001780129B7
:103CF00020D1D0E90110D0B111F0FBF9044619E050
:103D00000178022916D1D0E9011080B111F0DFF954
:103D10000CE0D0F80CC04168806841B1BCF1000FE4
:103D200006D013460246604611F0BAF9044601E097
:103D300000248847204610BD002818BF007870472F
:103D400010B507F0ADF801231022042107F0B2F8F6
:103D50000021017010BD002804BF6FF00100704702
:103D60004FF0030C80F800C0C360C0E901120020CE
:103D70007047002804BF6FF00100704701230370F3
:103D8000C0E9011200207047002818BF4068704742
:103D9000002818BF00687047002819BF0029002BB1
:103DA0006FF0010070472DE9F84304469946164626
:103DB0000D46184608F04CFF284608F0C3FE804622
:103DC000284608F0C3FE0746404608F0D4FF002806
:103DD00004BF4FF0FF30BDE8F88357B1606800289A
:103DE00000F0FF8005F13802314602F04BFD00F093
:103DF000F8B800221146404608F083FF6A680028A0
:103E000012BF31467848016805F12003206807F0A9
:103E100091FF00281CBF05F1200007F0A3FA05F16F
:103E200020084846A66808F013FF0024E86A2746E1
:103E300000284DD0687801285FD0287810F0200F36
:103E40003DD099F800004C4620F00300401C89F852
:103E50000000687889F8010005F1200004F1200EC7
:103E600090E80F128EE80F122878C108207861F3CD
:103E7000C30020702978090961F3820020706780EF
:103E800068686060207810F0080F14BFE8684FF091
:103E9000FF30E060207810F0040F04BF4FF0FF30D7
:103EA000014603D010F05AFF10F065FFC4E9040189
:103EB00000231A46214604F1380008F03FFFE86A63
:103EC00000284BD06878032818BF052823D028E0A5
:103ED000287810F0200FF2D099F800004C4620F01E
:103EE0000300401C89F80000A9F802706868C9F84E
:103EF0000400687889F80100AEE7022089F8010023
:103F000028784C4610F0200FA6D0207820F003002F
:103F1000401C2070A0E705F1200007F085FB002879
:103F20005FD0404607F072FA012804D11EB1404626
:103F300007F052FA68B1ADF80070697805F1200019
:103F400005F1380206294CD2DFE801F04B29380987
:103F5000380922462946304608F0EEFB41E00529A3
:103F60000DD0D0F80CC06B88A968BCF800C06345C0
:103F700037D11346012207F0F7FA90BB03E0012185
:103F800007F0B8FAF9E7287810F0200F18BF002CD6
:103F900027D0207820F00300801C207021E06B46A1
:103FA0000021A26807F0EFF9BDF80000608060878B
:103FB000A0682064207820F0030011E0134602225C
:103FC000A96807F03BFB287810F0200F18BF002CE1
:103FD00007D06878042804D1207820F00300801CE2
:103FE00020700020BDE8F883E83D040838B5124D84
:103FF000040007D103F072FD104B11A204210095BB
:1040000003F038FD03F06AFD00952168002918BF10
:1040100001210A4B11A203F021FD06F041FF01230B
:104020000C22042106F046FFD4E90012A368836045
:10403000C0E9001238BD00001C3E0408084804080E
:10404000656F5F6167656E745F4E657728293A20FA
:104050004E554C4C2063666700000000656F5F6141
:1040600067656E745F4E657728293A204E554C4C33
:10407000206366672D3E6E7673657400002818BF56
:10408000002B03D0002918BF002A02D16FF00100D5
:1040900070472DE9F04184B01C4615460E4618467F
:1040A0000A9F08F0D5FD287820F0C3008DF80000A5
:1040B00068788DF801006888ADF8020068680190A2
:1040C000687808F058FE002802BF4FF0FF3004B0B7
:1040D000BDE8F08196E80F1104F1200E8EE80F1173
:1040E000DDE90001C4E90001684608F0FCFD012893
:1040F00018BF002010D1A86830B16A886280A96812
:10410000A068FDF715FC08E002AB00213046A2686C
:1041100007F039F9BDF808006080287810F0080F22
:1041200014BFE8684FF0FF30E060287810F0040F0B
:1041300004BF4FF0FF30014603D010F00FFE10F027
:104140001AFEC4E904012FB162886178206808F082
:104150009EFD388004B00020BDE8F08138B5040031
:104160004FF000008DF800000D460846694604BF78
:104170006FF0010038BD11F0E1FB002818BF38BD19
:1041800000239DF800202946204600F0CFF938BDD5
:10419000F0B587B04FF000040D4606008DF80440DE
:1041A00002BF6FF0010007B0F0BD002D0CBF132758
:1041B0003F27384612F0F2FD01A9284611F08CFB8A
:1041C0009DF8040000283BD006EBC50601203076A0
:1041D0009DF804007076384612F0E2FD1B48006836
:1041E00000EB8001F06917F0BDFF28B3049405943B
:1041F0008DF8084002A9284611F06EFB1921002015
:104200000BF0F2F80490002D0CBF012002209DF865
:10421000081040EA012040F04000ADF814008DF88D
:1042200016408DF8174003F059FC04A90091084B83
:104230000022032103F01EFC384612F0AFFD347655
:10424000384612F0ADFD07B00020F0BDFC56040862
:10425000904404080B46002804BF6FF0010070472B
:104260001146184611F06ABB70B594B0050008BF3E
:104270004A4D4B480068129012A803F025FE060034
:1042800070D006F00DFE01234422042106F012FE38
:10429000044695E80F0084E84F00002525756576F3
:1042A00084F82150257684F820502946FF2017F005
:1042B000A9FF0200E26155D00021104617F0FEFF71
:1042C0000021FF2017F09EFF6062002804BF14B099
:1042D00070BD002117F0F2FF14228DF80C203C2253
:1042E0008DF80D2001212F4ACDE904248DF8081006
:1042F0000B208DF809508DF80A008DF80B002A4A22
:10430000CDE906248DF828108DF829508DF82A0063
:104310008DF82B0020208DF82C008DF80E50234AAC
:104320001020CDE908248DF82D002148CDE90C049A
:104330002048CDE90E048DF82E501F48CDE9100419
:1043400002A9002011F022FA60B90AA9012011F097
:104350001DFA38B9002011F0D1F918B9012011F077
:10436000CDF910B114B0002070BD84F8285084F845
:1043700029500021FF2017F045FFE062002804BF0C
:1043800014B070BD0021FF2017F03CFF206384F8BB
:104390002A50002818BF204614B070BD080D002018
:1043A000F444040885E80308A5E80308D5E70308F2
:1043B00095E8030829E903082DE80308002804BF4D
:1043C0006FF00100704708B5DDF808C0CDF800C0F7
:1043D0001AF022FB08BD002804BF6FF001007047EF
:1043E000F0B583B01C4616460F46054600F07AFE2F
:1043F000002301AA394600F097FE00281CBF03B035
:10440000F0BD9DF804003346C0F34301C0F34112F0
:1044100041EA022200F00101284600941AF0FCFA59
:1044200003B0F0BD002804BF6FF001007047F0B585
:1044300083B01C4616460F46054600F053FE002387
:1044400001AA394600F0DFFE00281CBF03B0F0BD12
:104450009DF804003346C0F34301C0F3411241EA22
:10446000022200F00101284600941AF0D5FA03B0A8
:10447000F0BDF0B583B005004FF000001C461646B5
:104480000F46019002BF6FF0010003B0F0BD00F0D5
:1044900029FE01AA394600F097FF00281CBF03B08F
:1044A000F0BD9DF804003346C0F3430200F0010163
:1044B000284600941AF0B0FA03B0F0BDF0B583B00E
:1044C00005004FF000001C4616460F46019002BF43
:1044D0006FF0010003B0F0BD00F004FE01AA394600
:1044E00000F0E4FF00281CBF03B0F0BD9DF80400FD
:1044F0003346C0F3430200F00101284600941AF04D
:104500008BFA03B0F0BD002804BF6FF001007047C4
:1045100001750022027680F82020012906BF0121C2
:1045200080F8281080F82820002070472DE9F04FEF
:1045300089B04FF000049A4691460D465FEA0008A4
:104540000294039404942746059402BF6FF001007F
:1045500009B0BDE8F08F0026B9F1000F88BF0DF15A
:10456000180B30D9029403940494002202A928461F
:10457000059411F0DDF830BB781CC7B22A4602A9B9
:10458000D8F8100003F0B0FCC8B106941B2100203D
:1045900007940AF029FF0690002D0CBF012002208D
:1045A000ADF81C008DF81E408DF81F4003F096FA00
:1045B000244B00220321CDF800B003F05BFA701CFD
:1045C000C6B24E45CED3BAF1000F18BF8AF80070BC
:1045D00008EBC50696F8380078B31B4996F83620E4
:1045E00011F8150062F3000001F8150096F8362066
:1045F000520862F3410001F8150096F8362092083F
:1046000062F3820001F8150001EB450096F83720AF
:10461000417862F30001417096F83720520862F346
:104620004101417009F0BAF94FF47A72032109F09F
:1046300045FA7463B46386F8384009B00020BDE8D9
:10464000F08F000090440408F80D00202DE9F84395
:104650004FF0000617460C0005468DF800600CBFB1
:104660004FF013084FF03F08002D04BF6FF001001A
:10467000BDE8F883404612F091FB6946204611F0F0
:104680002BF927499DF800000855291981F82900C0
:10469000404612F085FB9DF8000000281CBF204614
:1046A00011F062F905EBC40595F8380078B31D499F
:1046B00095F8362011F8140062F3000001F8140098
:1046C00095F83620520862F3410001F8140095F87D
:1046D0003620920862F3820001F8140001EB4401D5
:1046E00095F83720487862F30000487095F8372035
:1046F000520862F34100487009F050F94FF47A72A1
:10470000032109F0DBF96E63AE6385F83860002F92
:104710001CBF9DF8000038700020BDE8F883000041
:10472000A9030020F80D002070B5002684B00D46C6
:10473000002802BF6FF0010004B070BD411991F86C
:104740002910002931D01A4900EB85000968C06A98
:1047500001EB410117F006FD060026D000248DF87C
:10476000044001A9284611F0B7F80294192100204D
:1047700003940AF039FE0290002D0CBF01200220A4
:104780009DF8041040EA012040F01000ADF80C0044
:104790008DF80E408DF80F4003F0A0F902A90091AA
:1047A000044B0022032103F065F904B0304670BDCC
:1047B000FC56040890440408002818BF28307047AD
:1047C0002DE9F84F0E46DFF8C0901F46014619F854
:1047D000063001F1180A904613F80A2006EB460C41
:1047E0004FF0FF3001EB4C04002A34D13A466946C1
:1047F000184611F079FA10B1A18D491CA18500214C
:10480000DDF800508C46092225FA0CF30CF1010B5F
:10481000594025FA0BF35940521EC9B20CF1020C53
:1048200012F0FF02F0D111F0010F114604D105F092
:1048300038020121202A08D004EB41010A8D521CC4
:104840000A85397841F0020139704FF6F07101EABA
:104850009501C8F8001019F8063013F80A1001295C
:1048600018BFBDE8F88F3A466946184611F03CFA81
:1048700010B1A18D491CA1850099C1F30F11C8F891
:104880000010BDE8F88F00009B4404082DE9F04FAC
:10489000050085B04FF0000004BF05B0BDE8F08F03
:1048A00006F0FEFA01239022042106F003FB95E8AE
:1048B0006E1080E86E00002104464B1E0E464FF03D
:1048C000010BC0F814C000BF00EBC10292F802C097
:1048D000BCF1FF0F08D092F900C0BCF1000F09D065
:1048E000BCF1010F0CD010E001EB410C84448CF8BA
:1048F00018300AE001EB410C84448CF8186004E0A5
:1049000001EB410C84448CF818B092F803C0BCF160
:10491000FF0F08D092F900C0BCF1000F09D0BCF124
:10492000010F0CD010E001EB410C84448CF81930DD
:104930000AE001EB410C84448CF8196004E001EBBF
:10494000410C84448CF819B092F804C0BCF1FF0FFC
:1049500005D092F900203AB1012A0AD00EE001EB0D
:1049600041020244937609E001EB4102024496764B
:1049700004E001EB4102024482F81AB0491C02290A
:10498000A2DB4FF0FF0C80F821C0002780F81EC08A
:1049900080F81FC0014600F11E0502233A4680F848
:1049A00020C0881890F91800B0F1FF3F18D0E878BF
:1049B000FF2808BFEA70501CC0B2984210D800BF50
:1049C00001EB000898F91880B8F1FF3F04D0A2EB82
:1049D000070805F8080003E0401CC0B29842EFD970
:1049E000501CC2B29A42DCD984F826C0032784F84E
:1049F00023C084F824C004F12305052184F825C0D0
:104A00003A46A01890F91800B0F1FF3F14D0E878AA
:104A1000FF2808BFEA70501CC0B288420CD8231887
:104A200093F91830B3F1FF3F02D0D31BE85403E0F1
:104A3000401CC0B28842F2D9501CC2B28A42E0D9AE
:104A400000252F464FF0020A04F11E094FF0050819
:104A5000611991F9180010B1012809D013E08DF8FF
:104A60000C608DF80080019602968DF80D6008E0CC
:104A70008DF80CB077208DF80080019602968DF8A5
:104A80000D008DF80E6091F91800B0F1FF3F14D0C1
:104A9000E81B19F80010FF2908D031494844CDE936
:104AA00001106946284611F0ABF906E02D48CDE922
:104AB00001046946284611F0A3F9681CC5B25545A2
:104AC000C6D90327DFF898B04FF0050A04F123098F
:104AD0003D46611991F9180010B1012809D014E080
:104AE0008DF80C608DF80080019602968DF80D60AF
:104AF00009E001208DF80C0077208DF800800196E8
:104B000002968DF80D008DF80E6091F91800B0F145
:104B1000FF3F16D0E81B19F80010FF2907D04844C2
:104B2000CDE901B06946284611F06AF909E0002F85
:104B300014BF0D480B48694601900294284611F0B5
:104B40005FF9681CC5B25545C3D9262104F1280078
:104B5000FCF7D1FF2665266705B02046BDE8F08F3B
:104B6000D5EC0308DBEC030807ED0308002804BFBD
:104B70006FF00100704770B505460023B0F84C0097
:104B800042F210711E4688423ABF401CA5F84C0004
:104B90004FF0000C2DD30CEB4C00002205EB400431
:104BA00004EB4200008D002818BF0123521C032A89
:104BB00001D2002BF4D00CF1010CBCF1060F01D294
:104BC000002BE8D0012B0DD108F0E8FE2946B5F8FE
:104BD0004C2008F0CBFF28B908F0E0FE00220521A8
:104BE00008F06CFF262105F12800FCF784FFA5F8EA
:104BF0004C6095F821000124FF280AD02E6517F09B
:104C00007BFBC5E9140185F8224095F8210011F0DD
:104C10006FF995F82600FF280AD02E6717F06CFB75
:104C2000C5E91C0185F8274095F8260011F060F9C8
:104C3000002070BD90F82110FF290CD090F82610AC
:104C4000FF290DD090F82710022904BF90F8220008
:104C500002280BD008E090F82700022804D105E0D4
:104C600090F82200022801D00020704701207047F0
:104C700090F8220002280CBF01200020704790F815
:104C8000270002280CBF01200020704738B505001E
:104C90004FF0000008BF38BD06F002F901230C22D6
:104CA000042106F007F904462878207000F01AFA6B
:104CB0006A46002100F028FB00281CBF002038BDF8
:104CC00000990968C4F8011000F00CFA00F010FB1C
:104CD000A080002808BF38BD06F0E2F8A3880822AB
:104CE000042106F0E7F8A060A088B0B10021C2B2AC
:104CF000DFED0B0A0420B7EE000AA36800EBC10C3D
:104D000003EBC103491C83ED000AA368521E6344F0
:104D100012F0FF02C3ED000AEFD1204638BD0000BB
:104D200000000000806800EBC10080ED000A002058
:104D300070478068042202EBC101084480ED000A3C
:104D400000207047B2F1004F28BF6FF0004280682A
:104D500000EE102A00EBC100B8EEC00AD0ED000A48
:104D600080EE201ABDEEC10A10EE100A00B27047A4
:104D7000806800EE102A00EBC100B8EE400AD0EDCA
:104D8000000A20EE800ABCEEC00A10EE100A70473E
:104D90008068B2F1004F00EBC10090ED000A28BF1F
:104DA0006FF0004200EE902AF8EEE00A80EE801AE2
:104DB0009FED040AC1EE000ABDEEE00A10EE100AF3
:104DC00000B2704700007A44806800EE102A00EBC1
:104DD000C100B8EE400AD0ED000A20EE800ADFEDF7
:104DE000040A20EE200ABCEEC00A10EE100A70473A
:104DF00000007A44806800EE102A00EBC100B8EE93
:104E0000C00AD0ED000A80EE201ABDEEC10A10EEF5
:104E1000100A704710B52DED028B8378806802FA76
:104E200003F450F831001EF0B3FE08EE100A21F032
:104E3000004118EE100A41EC180B20461EF07FFDD1
:104E400053EC182B1EF0A6FD1EF01CFD044900EBD0
:104E5000610090FBF1F0BDEC028B00B210BD0000D0
:104E600040420F00806800EE102A00EBC1030422CC
:104E7000B8EEC00AD3ED000A02EBC101084480EE8F
:104E8000201A90ED000A31EE400ABDEEC00A10EE85
:104E9000100A70478068042300EE102A03EBC10358
:104EA0000344B8EEC00AD3ED000A00EBC10030EEB7
:104EB000800AD0ED000A20EE200ABDEEC00A10EEF6
:104EC000100A7047806800EE102A00EBC100B8EEAF
:104ED000C00AD0ED000A80EE201ABDEEC10A10EE25
:104EE000100A7047836800EE102A03EBC101807836
:104EF000B8EEC00AD1ED000A20EE800ABDEEC00A6D
:104F000010EE101A01FA00F04FF47A7100F5FA7001
:104F100090FBF1F000B2704710B514462DED028BF6
:104F2000806850F831001EF033FE08EE100A21F0C0
:104F3000004118EE100A41EC180B20461EF0FFFC51
:104F400053EC182B1EF026FD1EF09CFC044981FB3F
:104F500000108110A1EBE070BDEC028B00B210BD1F
:104F600067666666104670471046704700281CBF8B
:104F7000002180F84810704700B112B16FF00100B5
:104F800070472DE9F047054690468946C06901F013
:104F900036F806004FF000041CBF09F00107C9F302
:104FA00043091AD0E1B2E86900F0ABFF018801F0D3
:104FB0000102BA4204BFC1F34301494509D1D8F8FF
:104FC0000010C0F80210B8F80410C1800020BDE83D
:104FD000F087601C84B2B442E4D36FF00400BDE8F3
:104FE000F087002812BF002A6FF0010070472DE9FA
:104FF000F047054690468946C06901F000F8060072
:105000004FF000041CBF09F00107C9F3430915D094
:10501000E1B2E86900F075FF008800F00101B942D3
:1050200004BFC0F34300484504D188F80040002085
:10503000BDE8F087601C84B2B442E9D36FF004008D
:10504000BDE8F087002812BF002A6FF0010070470A
:1050500070B5044615460E46C06900F0D0FFB04258
:105060009CBF6FF0040070BD3146E06900F049FF5D
:105070002860002070BD2DE9F0411E46069F1446B1
:105080008846050018BF002C27D0002E18BF002F1F
:1050900023D0E86900F0B3FF40459CBF6FF00400E7
:1050A000BDE8F0814146E86900F02BFF02782178E5
:1050B00062F3000121700278520862F3440121F08A
:1050C000E00121700188090A3170D0F802103960BE
:1050D000C088B8800020BDE8F0816FF00100BDE815
:1050E000F08100000248007E002818BF0048704789
:1050F000180D0020002812BF002A6FF00100704731
:1051000070B5044615460E46006A00F078FFB042BE
:105110009CBF6FF0040070BD3146206A00F0F1FEC4
:1051200080682860002070BD002812BF002A6FF040
:10513000010070472DE9F0410546984614460E4699
:10514000006A00F05CFFB0420CD93146286A00F0DA
:10515000D8FE0746007800F03F06E86900F04FFFF0
:10516000B04203D86FF00400BDE8F0813146E86931
:1051700000F0C7FE39788A09217862F34611217060
:105180000278520862F3440121700278B8F1000FEE
:1051900062F30001217003D00088000A88F8000043
:1051A0000020BDE8F081002812BF002A6FF0010046
:1051B00070472DE9F041CEB21746044616F0010FB4
:1051C00004D1A18EC6F34300884203D34FF0FF30D1
:1051D000BDE8F081A16B0D5CE06900F010FF854235
:1051E0000DD22946E06900F08CFEC6F34111084457
:1051F000007A3870FF281CBF0020BDE8F0816FF0F6
:105200000400BDE8F081002812BF002A6FF0010001
:1052100070472DE9F0410546984614460E46406A0F
:1052200000F0EDFEB0420CD93146686A00F069FE2C
:105230000746007800F03F06E86900F0E0FEB04263
:1052400003D86FF00400BDE8F0813146E86900F052
:1052500058FE39788A09217862F346112170027864
:10526000520862F3440121700278B8F1000F62F332
:105270000001217003D00088000A88F80000002097
:10528000BDE8F081002812BF002A6FF001007047CE
:105290002DE9F041CEB21746044616F0010F04D1B5
:1052A000A18EC6F34300884203D34FF0FF30BDE820
:1052B000F081A16B0D5CE06900F0A1FE85420DD28A
:1052C0002946E06900F01DFEC6F341110844807ACA
:1052D0003870FF281CBF0020BDE8F0816FF004008B
:1052E000BDE8F0810148C06900F089BE180D0020BA
:1052F0000148006A00F083BE180D00200148406A92
:1053000000F07DBE180D0020002812BF002A6FF0AB
:105310000100704770B5044615460E46006A00F05D
:105320006EFEB0429CBF6FF0040070BD3146206A33
:1053300000F0E7FD40682860002070BD002812BF23
:10534000002A6FF00100704770B5044615460E46FE
:10535000006B00F054FEB0429CBF6FF0040070BDC3
:105360003146206B00F0CDFD00682860002070BD44
:10537000002812BF002A6FF0010070472DE9F041AC
:10538000054617460E460024006B00F038FE002844
:1053900088BF06F0010613D9E1B2286B00F0B1FD19
:1053A000006830B10078864203D13C700020BDE82F
:1053B000F081601C84B2286B00F021FEA042EBD883
:1053C0006FF00400BDE8F081002812BF002A6FF0E2
:1053D0000100704770B5044615460E46806A00F01D
:1053E0000EFEB0420DD93146A06A00F08AFD006879
:1053F00038B1007800F03F06E06900F000FEB042EE
:1054000002D86FF0040070BD3146E06900F079FD0C
:105410000278297862F3000129700078400860F36F
:10542000440121F0E0002870002070BD002812BF68
:10543000002A6FF0010070472DE9F0470446174637
:105440000E460025806A00F0DAFD002884BF06F0D1
:105450000108C6F3430925D9E9B2A06A00F051FD5D
:105460000068F8B1007800F03F06E06900F0C7FD81
:10547000B04217D93146E06900F043FD008800F0E2
:105480000101884504BFC0F34300814503D13D704D
:105490000020BDE8F087681C85B2A06A00F0AFFD6F
:1054A000A842D9D86FF00400BDE8F087002812BFE9
:1054B000002A6FF0010070472DE9F04104461546BF
:1054C0000E46C06A00F09BFDB0420ED93146E06A3C
:1054D00000F017FD0646006838B1007800F03F077D
:1054E000E06900F08CFDB84203D86FF00400BDE81D
:1054F000F0813068007800F03F01E06900F001FDC4
:105500000278297862F3000129700078400860F37E
:10551000440121F0E00028700020BDE8F08100285F
:1055200012BF002A6FF0010070472DE9F0470446D2
:1055300017460E460025C06A00F061FD002884BFB2
:1055400006F00108C6F3430925D9E9B2E06A00F084
:10555000D8FC0068F8B1007800F03F06E06900F080
:105560004EFDB04217D93146E06900F0CAFC008810
:1055700000F00101884504BFC0F34300814503D119
:105580003D700020BDE8F087681C85B2E06A00F03D
:1055900036FDA842D9D86FF00400BDE8F087002896
:1055A00012BF00296FF0010070473C3008600020F6
:1055B000704700002DE9F04FFF4C87B0060072D015
:1055C0007068002500281CBFB06800286BD0F06808
:1055D00000281FBF306900287069002863D00022AE
:1055E0000121FE200DF0B0FA8046706801F099F9B3
:1055F000F24F804508D002F071FAF14BF1A202217E
:10560000009702F037FA4EE001221146FE200DF01D
:105610009BFA8046B06801F084F9804508D002F01A
:105620005DFAE74BECA20221009702F023FA3AE080
:1056300001220221FE200DF087FA8046F06801F079
:1056400070F9804508D002F049FADD4BE7A202214B
:10565000009702F00FFA26E000220221FE200DF052
:1056600073FA8046306901F05CF9804508D002F099
:1056700035FAD34BE2A20221009702F0FBF912E0C7
:1056800000220321FE200DF05FFA8046706901F0D0
:1056900048F980450BD002F021FAC94BDDA2022166
:1056A000009702F0E7F907B00020BDE8F08F96E818
:1056B0000F107669666184E80F104FF0010B01F05E
:1056C00030F94FF008094FF00308002808BFE561E2
:1056D0004CD0206801F025F9C0B200220E2100F064
:1056E00024FCE0610026206801F01BF9002884BF3B
:1056F0004FF0FF3AFF2739D93146206801F004F90D
:10570000009501950295039501784A08BDF80010AF
:1057100062F34401ADF80010027862F30001ADF8C5
:10572000001001888DF80650090A8DF801108DF8D7
:1057300008708DF807508DF80A708DF802A08DF86A
:1057400004508DF809708DF803508DF805508DF8D0
:105750000B708DF80C506946E06900F00BFC701C72
:1057600086B2206801F0DDF8B042C5D80026206876
:1057700001F0D7F8002804BFA586A56348D000270C
:10578000206801F0CEF8002819D93946206801F0C8
:10579000BBF8008810F0010F0AD1B9EB102F18BF29
:1057A000B8EB102F04D1C0F34300B04288BF0646C7
:1057B000781C87B2206801F0B4F8B842E5D8711CB3
:1057C000A18605F06DFBA38E0122042105F072FB7A
:1057D000A0630026206801F0A4F8002818D93146FB
:1057E000206801F091F8008810F0010F09D1B9EBA1
:1057F000102F18BFB8EB102F03D1A16BC0F34300DB
:105800000E54701C86B2206801F08BF8B042E6D8C6
:10581000606801F086F8002808BF256258D06068EB
:1058200001F07FF8C0B20022102100F07EFB206260
:1058300005F036FB04220123114605F03BFB8146AF
:1058400005F02EFB04220123114605F033FB8046B0
:105850000026606801F065F8002839D93146606893
:1058600001F052F8029507460395049505950078D6
:105870009DF80810002360F305018DF808103878B2
:105880000095800960F387118DF808100195CDE926
:1058900003981A4602210C2005F068F9059002A928
:1058A000206A00F067FBE06900F0A9FB387800F09F
:1058B0003F01E06900F025FB0146387801EB9010CC
:1058C0000672701C86B2606801F02BF8B042C5D831
:1058D000A06801F026F8002808BF656244D0A068DF
:1058E00001F01FF8C0B20022082100F01EFB606228
:1058F000029503950026A06801F013F8002833D91B
:105900003146A06801F000F8074600789DF80810BD
:10591000800960F387118DF808103878002360F350
:1059200005018DF8081000951A4602210C200195FA
:1059300005F01CF9039002A9606A00F01BFBE06906
:1059400000F05DFB387800F03F01E06900F0D9FA23
:105950000146387801EB90108672701C86B2A06800
:1059600000F0DFFFB042CBD8E06800F0DAFF00289B
:1059700008BFA5621ED0E06800F0D3FFC0B20022CD
:10598000042100F0D2FAA0620026E06800F0C9FF0E
:1059900000280FD93146E06800F0B6FF0090694654
:1059A000A06A00F0E7FA701C86B2E06800F0B9FF68
:1059B000B042EFD8206937E0180D0020143E0408EB
:1059C000A14404086A6F696E747320636667206D72
:1059D00069736D61746368006D6F746F72732063B7
:1059E0006667206D69736D61746368006D616973CA
:1059F00020636667206D69736D61746368000000E1
:105A000073747261696E20636667206D69736D617E
:105A100074636800736B696E20636667206D6973D9
:105A20006D6163680000000000F07BFF002808BF84
:105A3000E5621ED0206900F074FFC0B2002204218C
:105A400000F073FAE0620026206900F06AFF002887
:105A50000FD93146206900F057FF00906946E06A8F
:105A600000F088FA701C86B2206900F05AFFB0423C
:105A7000EFD8606900F055FF002808BF25631ED0ED
:105A8000606900F04EFFC0B20022042100F04DFA20
:105A900020630025606900F044FF00280FD92946E3
:105AA000606900F031FF00906946206B00F062FAF7
:105AB000681C85B2606900F034FFA842EFD80E215F
:105AC00004F13C00FCF717F884F818B007B0204642
:105AD000BDE8F08F002818BF90F8480070470028F4
