:020000040000fa
:080000000002040000000000f2
:020000040000fa
:100008004c4e00002c4e0000304e0000344e0000d4
:10001800384e00004c4e00004c4e00004c4e000084
:100028004c4e00004c4e00004c4e0000ae36000016
:10003800a21400004c4e00004c4e00004c4e000034
:10004800d04500004c4e00004c4e00004c4e0000c5
:100058004c4e00004c4e0000204e00004c4e00005c
:100068004c4e0000644e00004c4e00004c4a00000c
:100078004c4e00004c4e00004c4e00004c4e000010
:10008800022b00004c4e00004c4e00004c4e00006d
:100098004c4e00004c4e00004c4e00004c4e0000f0
:1000a8004c4e00004c4e00004c4e000082420000b6
:1000b8004c4e00004c4e00004c4e00004c4e0000d0
:1000c8004c4e00004c4e00004c4e00004c4e0000c0
:1000d8004c4e00004c4e00004c4e00004c4e0000b0
:1000e8004c4e00004c4e00004c4e00004c4e0000a0
:1000f8004c4e00004c4e00004c4e00004c4e000090
:100108004c4e00004c4e0000ae3a00004c4e000031
:100118004c4e00004c4e00004c4e00009e47000024
:100128004c4e00004c4e00004c4e00004c4e00005f
:100138004c4e00004c4e00004c4e00004c4e00004f
:100148004c4e00004c4e00004c4e00004c4e00003f
:100158004c4e00004c4e00004c4e00004c4e00002f
:100168004c4e00004c4e00004c4e00004c4e00001f
:100178004c4e00004c4e00004c4e00004c4e00000f
:100188004c4e00004c4e00004c4e00004c4e0000ff
:100198004c4e00004c4e00004c4e00004c4e0000ef
:1001a8004c4e00004c4e00004c4e00004c4e0000df
:1001b8004c4e00004c4e00004c4e00004c4e0000cf
:1001c8004c4e00004c4e00004c4e00004c4e0000bf
:1001d8004c4e00004c4e00004c4e00004c4e0000af
:1001e8004c4e00004c4e00004c4e00004c4e00009f
:0801f8004c4e00004c4e0000cb
:020000040000fa
:100208004c4e00003c4e0000404e0000444e0000a2
:10021800484e00004c4e00004c4e00004c4e000072
:100228004c4e00004c4e00004c4e0000ae36000014
:10023800a21400004c4e00004c4e00004c4e000032
:10024800d04500004c4e00004c4e00004c4e0000c3
:100258004c4e00004c4e0000204e00004c4e00005a
:100268004c4e0000644e00004c4e00004c4a00000a
:100278004c4e00004c4e00004c4e00004c4e00000e
:10028800022b00004c4e00004c4e00004c4e00006b
:100298004c4e00004c4e00004c4e00004c4e0000ee
:1002a8004c4e00004c4e00004c4e000082420000b4
:1002b8004c4e00004c4e00004c4e00004c4e0000ce
:1002c8004c4e00004c4e00004c4e00004c4e0000be
:1002d8004c4e00004c4e00004c4e00004c4e0000ae
:1002e8004c4e00004c4e00004c4e00004c4e00009e
:1002f8004c4e00004c4e00004c4e00004c4e00008e
:100308004c4e00004c4e0000ae3a00004c4e00002f
:100318004c4e00004c4e00004c4e00009e47000022
:100328004c4e00004c4e00004c4e00004c4e00005d
:100338004c4e00004c4e00004c4e00004c4e00004d
:100348004c4e00004c4e00004c4e00004c4e00003d
:100358004c4e00004c4e00004c4e00004c4e00002d
:100368004c4e00004c4e00004c4e00004c4e00001d
:100378004c4e00004c4e00004c4e00004c4e00000d
:100388004c4e00004c4e00004c4e00004c4e0000fd
:100398004c4e00004c4e00004c4e00004c4e0000ed
:1003a8004c4e00004c4e00004c4e00004c4e0000dd
:1003b8004c4e00004c4e00004c4e00004c4e0000cd
:1003c8004c4e00004c4e00004c4e00004c4e0000bd
:1003d8004c4e00004c4e00004c4e00004c4e0000ad
:1003e8004c4e00004c4e00004c4e00004c4e00009d
:0803f8004c4e00004c4e0000c9
:020000040000fa
:100400006fc620000e6d24000e0188000000000061
:1004100000012000200288000c00070020152300a6
:100420000100200011000700000020000000e00093
:10043000020032000000020000000000de26020080
:10044000000000000040da000000fe004440a90067
:10045000400820000000e0000300320000002000ff
:10046000a00188004440a800000006009101880017
:10047000800078000000eb0015003700e2804000ab
:1004800032a0b4009101ba00e280400032a0b40072
:100490009102ba00e280400032a0b4000002eb00fa
:1004a000472bde00f507b200602ce10004003a00a3
:1004b0000059eb008301e900fdff3e000400370016
:1004c0006128e100010032000082eb000400070017
:1004d0001101ba000200e000e8ff3a000000060047
:1004e0003159ba008301e9000c0032002159ba00e9
:1004f0008301e900080032000400e00003003a0034
:10050000e280400032a0b400f5ff370011d9ba00f4
:100510008301e900faff3a008100e800e180400031
:1005200032a0b40000000600300604000000000005
:100530000021ef0011088800200888000000060054
:100540000a21ef007108880090088800000006006a
:100550001421ef00d1088800f00888001e61a9006e
:10056000000006000008880000000600500888000f
:1005700000000600a008880000000600c0088800ef
:10058000000006003200f800023b8800910188005c
:100590000008bb000500fc0051052000313b88002d
:1005a000a10a2000313b880061e7a800000000009c
:1005b000000000003200f900000006000400a10065
:1005c000010037000400a0003200f800910188000b
:1005d00011002400013b8800f10f20003208bb000d
:1005e0000400a700b20078000198bb008301e90075
:1005f000faff3a00680151000400a70068015100a9
:10060000680050001208bb00e2ff3700f30f200023
:100610003200f8009101880031002400013b88007d
:100620000208bb000388bb00daff37003200f80085
:10063000003b8800d7ff37003200f80091018800a6
:100640008002780062004000e08048003549ba002e
:100650003204e0000410a700100032008301e9001a
:100660000e0032002549ba003204e0000410a70051
:100670000a0032008301e900080032000408a300e8
:10068000eeff320015c9ba003204e0000410a700e2
:10069000020032008301e900e8ff3a003200f9006d
:1006a00000000600889fbe008a9fbe008c1f780055
:1006b000ab000700b200330003866c006450e10019
:1006c0002e0032006420e100330032006150e1006e
:1006d0002f0032006120e100310032008585550095
:1006e000eb07b000090020000804200005003700d7
:1006f0000804440089844c000a00310006034300ca
:1007000087834b000001530081815b00f8ff3300b9
:100710000203be000800a0000804440089844c00c5
:10072000f6ff3900c639dd00830173000100320095
:10073000130020008904d1000884d3000998a30085
:10074000050032000800a7000300a0008904d100c2
:100750000884d3008b05e8008904d1000884d30005
:100760000001eb000281d2004200070001f0a1006d
:100770000cf0a70001f0a0008a0037006420e1001f
:100780008c0032000801be000200be00f7ff3700f7
:100790006120e100870032006000b800f3ff3700fd
:1007a0000000200001f82700f0ff3700839f680059
:1007b0000100e00002003d0060001000e080180031
:1007c0000300e00002003d0060011100e08119001b
:1007d000af0007004f00e00002003b006000100087
:1007e000e08018000000060014002000b800370068
:1007f0000001be00450007000470a70003f0a1003f
:100800006509b100160032000d0035006828e100ce
:1008100006003500f0ff2f00f1ff27000300e00085
:1008200013003b000100280000000500000040000c
:10083000818048008502e900fcff3a00080037008b
:10084000f88f420002003c008000eb000000050031
:100850008100d1000080d3008502e800fcff3a004f
:100860000300e00002003b0060001000e080180080
:100870000000060081002000618055000b003d0053
:100880000b00200061fe2f000100e1001d0034007c
:1008900082817100610164008904d1000884d30061
:1008a0000000e800faff3a007100200061006400d7
:1008b000030070000200600009003200610444007f
:1008c000e0844c000988a500050032008b05e80093
:1008d0006808e10002003a008904d1000884d300ce
:1008e000f20f20000258e10005003d00c75ddd0069
:1008f000f907b20089807500080078000000060042
:100900000bf827008b00780000000500c70ade0006
:10091000f107b200f50fb20008003200e1cf42004b
:10092000020032000170a00024000500810f700059
:10093000010032000408050044000500810f70002a
:1009400002003a00140005008502e90000004000a2
:1009500081c04800fcff3b000170a000240005009e
:100960000004be00e9ff07000003be000405be004e
:100970000200be00e5ff0700844f7500000006007e
:100980000200be006450e100050036006420e10072
:10099000020036000968a30001003a000800be000a
:1009a0000160a0004f0678004f05be004f04be0056
:1009b00000000600f0ff2f00f1ff2700f9ff3700cd
:1009c000889fbe008a9fbe008c1f7800e4ff07004e
:1009d000ebff330003866c006450e100240032001a
:1009e0006420e100270032006150e1002200320063
:1009f0006120e100210032008b854200eb07b1004d
:100a00000134b800003ab8000804420089844a0062
:100a1000013ab8000030b8008880400009014a005f
:100a200004003300000040008180480002014900ba
:100a30008b05e900c909dd00830170000100320067
:100a400013002000c814de004814dd004709de0052
:100a50001200b200c808de000884700085ff07009d
:100a600001f0a1000cf0a70001f0a000cdff3700bd
:100a70006120e100cfff32000801be000200be008d
:100a8000f7ff37006150e100fcff3a00c9ff370073
:100a90006022b800060220000000d0008180d20051
:100aa0000482d2008582d2000000a000020252001f
:100ab00083825a00030031000202420083824a000e
:100ac0000000a1000603e900f3ff3a000000060061
:100ad000889fbe008a9fbe00841f7800a0ff070089
:100ae0004f00780011003300f0ff2f00838f6c005f
:100af00006003b00040565000a00a7000800370057
:100b000009f0a6001000200008003700820f5400f2
:100b1000838f5c00030039001000200001003e00bc
:100b20000000200009f0a7000000ea004f05be0009
:100b30004f04be000000e000000006000002780044
:100b400002003700315a78000201e900e00f51003d
:080b5000fcff3a000000060062
:020000040000fa
:100b58000006000002010000040500000300000078
:100b6800000000004a01000094020000de030000bb
:100b78002705000070060000b90700000109000001
:100b8800480a00008f0b0000d50c0000190e000069
:100b98005d0f00009f100000e0110000201300000e
:100ba8005e1400009b150000d61600000f18000008
:100bb800461900007b1a0000af1b0000e01c000073
:100bc8000e1e00003b1f0000652000008c21000065
:100bd800b1220000d3230000f3240000ff7f0000af
:100be800fb7f0000ec7f0000d37f0000b07f000097
:100bf800837f00004c7f00000b7f0000c17e000057
:100c08006c7e00000e7e0000a57d0000337d000094
:100c1800b87c0000327c0000a37b00000a7b000047
:100c2800687a0000bc790000067900004778000067
:100c38007f770000ad760000d3750000ef740000e8
:100c4800017400000b7300000c72000004710000b6
:080c5800f36f0000d96e0000eb
:020000040000fa
:100c6000ea874700889fbe008a9fbe008c9fbe0017
:100c70008e1f780004702000040260000500200030
:100c8000482bdd004822de0004027300c82ade0083
:100c9000e14f52005300320043003100934278008c
:100ca000e9cf52008b003200e7cf520098003200ab
:100cb00036c3b30086cf5200d100320026c3b30042
:100cc00086cf5200e100320086c4b30086cf5200c6
:100cd000a300320076c7b30086cf52001a0132005b
:100ce000b6c5b30086cf52006001320056c6b300cd
:100cf00086cf5200a501320096c6b30086cf5200bf
:100d000052023200f7cf52000003320026c7b30070
:100d100086cf520026033200d6c6b30086cf5200db
:100d200043033200e6c6b30086cf520018003a00f3
:100d3000e14f510016003a00a5ef9f00768757005b
:100d400065b42000156f7800954290001547980013
:100d50008042eb00e5ef9f00d5ef9f0051c0b3004c
:100d600045c2200095427800670262004822dd00fb
:100d70008582fb00c42add0005027200000fb2006c
:100d80004400de0004007000768157008b230700ca
:100d90004f0778004f06be004f05be004f04be004f
:100da000af00b10000000600e74f5200f8ff3a0024
:100db00093427800e1cf42002f003200e0cf520092
:100dc000f3ff3a000000fe004f0778004f06be0018
:100dd0004f05be004f04be00af00b100000006008a
:100de000f1ff37006f406000ef4f5000e8ff3a001e
:100df000843e2000e455880044c22000144278005c
:100e00000482fb00840242000281fb00828f5200b8
:100e1000dfff3c000402e9000402420063437a0061
:100e20000683fb000482410094429000c82add0042
:100e30008682720084ab200014427800e64f520094
:100e40004b013200f7003e00e04f520045013200f6
:100e5000e24f520061003200d51807004f077800ba
:100e60004f06be004f05be004f04be00af00b100ec
:100e700000000600ccff3700e14f5100c4ff3a00ec
:100e8000a5ef9f0085c0b300b5ef9f0035c0b3004c
:100e9000c5ef9f00d5ef9f00e2ef9f0051c0b30068
:100ea00045c2200095427800670262004822dd00ba
:100eb0008582fb00c42add0005027200000fb2002b
:100ec0004400de0004007000768157003b230700d9
:100ed000afff3700e24f5100adff3a00e4b8200009
:100ee0008042eb0094cf1200a9ff32001340900023
:100ef0001a2107004f0778004f06be004f05be00bd
:100f00004f04be00af00b10000000600a6ff37008e
:100f1000e14f51009eff3a00a5ef9f0085ab2000f6
:100f200095427800b5ef9f0021c0b30045c2200074
:100f300095427800670262004822dd008582fb004e
:100f4000c42add0005027200000fb2004400de007a
:100f50000400700076815700182307008cff3700cb
:100f6000e4b820000043eb00944f130088ff3200e8
:100f7000e54f5100db023200e84f510084ff3a0098
:100f8000734190004811dd00634290000482fb0031
:100f900004017100d3409000c808dd004342900076
:100fa0000482fb0084807000334090004800dd0024
:100fb000234290000482fb0004007000eb21070034
:100fc0004f0778004f06be004f05be004f04be001d
:100fd000af00b1000000060073ff370004002800d6
:100fe000848f520003003200455a880070180700b1
:100ff0009aff370015002800455a8800fbff37008c
:10100000e14f510062ff3a00a5ef9f0045c220006a
:1010100015437800b6ef9f0021c0b30086427800e8
:10102000670262004822dd008582fb00c42add00e1
:1010300005027200000fb2004400de0004007000e0
:1010400076815700dd22070051ff3700e24f510043
:101050004fff3a0084ab20008042eb0094cf120097
:101060000300320005cbb30094cf120048ff3a00d2
:101070001340900048c22000004c7800e222070094
:1010800018407800291f07000002eb0083042000ad
:1010900002b92000000025001100200066fd0700b5
:1010a00022042400000025001100200035fd070067
:1010b000184278000482fb0005002000845c880050
:1010c000955c880008bd200014c0b300044c780073
:1010d0000802e800004aeb00c4aa2c00945e8800d5
:1010e0000204200001fc2f00888040000080eb00fb
:1010f000df210700a05e88000002eb00b45e8800dc
:101100000304200002fc2f0008014100000025001c
:101110001100200029fd07000304200008017800c9
:10112000000425001100200024fd07004f0778006f
:101130004f06be004f05be004f04be00af00b10019
:101140000000060018ff3700e64f510010ff360080
:10115000e4b820008042eb0094cf12000cff320074
:10116000934290008582fb0024b420001443780051
:10117000054a78008402e80015437800804aeb00b5
:10118000a34290008582fb00334390004833dd008a
:101190008502730045378a00c34290008582fb00b8
:1011a000534390004833dd008502730055378a00b1
:1011b000634390000683fb000603d100056f240003
:1011c000864a780055378200e18f42003b023200a8
:1011d000156f2400804aeb0045022000e84f5100c3
:1011e0000d00320075378a0025b4200014427800c3
:1011f00061426200e6fe32001544a1004f0778000c
:101200004f06be004f05be004f04be00af00b10048
:1012100000000600e4fe3700f34290008582fb00e8
:10122000f0ff3700ea4f52000bff3900eb4f52003e
:101230006aff360006c5b300864f520006ff3a002b
:1012400004c02900848f520001003d008402780010
:1012500004402600848f520001003400840278008c
:10126000255a8800d2170700fcfe3700e34f5100d3
:10127000c7fe3a00a3439000934290000043eb0066
:10128000e1cf52001e003200e5b82000864a780007
:10129000b6c5b300a6ef9f0081c0b300b1ef9f00b9
:1012a00036c0b300c6ef9f00d6ef9f0016c0b30054
:1012b000e6ef9f00f6ef9f0066c0b30086f79f0041
:1012c0001543780096f79f009542780045c22000ac
:1012d00095427800670262004822dd008582fb00ab
:1012e000c42add0005027200000fb2004400de00d7
:1012f000040070007681570030220700a4fe3700fa
:101300000743780066c0b2000683fb000603e900cd
:101310004f33de00e5b82000864a7800b6c5b3003a
:10132000a6ef9f0081c0b300b1ef9f0036c0b300ad
:10133000c6ef9f00d6ef9f0016c0b300e6ef9f00f8
:10134000f6ef9f0066c0b30086f79f001543780054
:1013500096f79f009542780045c22000954278009c
:10136000dcff37006420070091170700bbfe370041
:1013700094558000848f520085013400955580007b
:10138000355a88008a170700b4fe3700e4b82000f9
:101390008042eb0094cf12007dfe3200e84f5100f6
:1013a000f1013200e64f510079fe3a0013429000fd
:1013b000e14f5200e0013200e24f520074fe3a0069
:1013c00013029000a3029000746188008561880078
:1013d0009b618000aa6180007d6180008c6180003b
:1013e0000d0178008c0178000b0078008a007800ed
:1013f000fdfc0700e00f5000cd0135000a04be00df
:101400000200200003f8230009007800880078001b
:10141000f5fc0700e00f50002e053500020020000b
:10142000030024000900780088007800eefc070023
:10143000e00f50000b0535000200200003082400d7
:101440000900780088007800e7fc0700e00f5000f2
:10145000e804350002002000031024000900780091
:1014600088007800e0fc0700e00f5000c50435005c
:10147000020020000318240009007800880078008a
:10148000d9fc0700e00f5000a20435000200200044
:10149000032024000900780088007800d2fc0700af
:1014a000e00f50007f0435000200200003282400d4
:1014b0000900780088007800cbfc0700e00f50009e
:1014c0005c0435000200200003302400090078008d
:1014d00088007800c4fc0700e00f50003904350094
:1014e00002002000033824000900780088007800fa
:1014f000bdfc0700e00f500016043500020020007c
:10150000034024000900780088007800b6fc07003a
:10151000e00f5000f30335000200200003482400d0
:101520000900780088007800affc0700e00f500049
:10153000d003350002002000035024000900780089
:1015400088007800a8fc0700e00f5000ad033500cc
:101550000200200003582400090078008800780069
:10156000a1fc0700e00f50008a03350002002000b4
:101570000360240009007800880078009afc0700c6
:10158000e00f5000670335000200200003682400cc
:10159000090078008800780093fc0700e00f5000f5
:1015a000440335000200200003702c000802be0036
:1015b00005007800840078008bfc0700e00f5000e5
:1015c000f3fd3d00f40020000800200009702c000d
:1015d000fec0b3000447570002002000037024003f
:1015e0000c02be000500780084007800f4fc0700bf
:1015f0000801be002bfc07007dfc070000067800f8
:1016000002002000037024000a02be0005007800da
:1016100084007800eafc07000801be0021fc0700f6
:1016200073fc07000e4178008c007800052007004d
:101630004f0778004f06be004f05be004f04be00a6
:10164000af00b10000000600d7fd3700e4b820006d
:101650008042eb0094cf1200cdfd3200e84f5100e4
:1016600054013200e64f5100c9fd3a001342900088
:10167000e14f520037013200e24f5200c4fd3a0000
:1016800013029000a3029000346188004561880035
:101690005b6180006a6180003d6180004c61800078
:1016a0000d0178008c0178000b0078008a0078002a
:1016b0004dfc0700e00f5000240135000a04be0075
:1016c0000200200003f82300090078008800780059
:1016d00045fc0700e00f5000be023500020020006c
:1016e0000300240009007800880078003efc070011
:1016f000e00f50009b023500020020000308240088
:10170000090078008800780037fc0700e00f5000df
:101710007802350002002000031024000900780040
:101720008800780030fc0700e00f500055023500bb
:1017300002002000031824000900780088007800c7
:1017400029fc0700e00f50003202350002002000a3
:1017500003202400090078008800780022fc07009c
:10176000e00f50000f023500020020000328240083
:1017700009007800880078001bfc0700e00f50008b
:10178000ec0135000200200003302400090078003d
:101790008800780014fc0700e00f5000c9013500f4
:1017a0000200200003382400090078008800780037
:1017b0000dfc0700e00f5000a601350002002000dc
:1017c00003402400090078008800780006fc070028
:1017d000e00f500083013500020020000348240080
:1017e0000900780088007800fffb0700e00f500038
:1017f0006001350002002000035024000900780039
:1018000088007800f8fb0700e00f50003d0135002c
:1018100002002000035824000900780088007800a6
:10182000f1fb0700e00f50001a0135000200200014
:10183000036024000900780088007800eafb0700b4
:10184000e00f5000f700350002002000036824007c
:101850000900780088007800e3fb0700e00f5000e3
:10186000780235000200200003702c000802be0040
:101870000500780084007800dbfb0700e00f5000d3
:1018800043fd3d00f40020000800200009702c00fa
:10189000fec0b3000447570002002000037024007c
:1018a0000c02be00050078008400780044fc0700ac
:1018b0000801be007bfb0700cdfb07000006780097
:1018c00002002000037024000a02be000500780018
:1018d000840078003afc07000801be0071fb070095
:1018e000c3fb07000e4178008c007800681f0700da
:1018f0004f0778004f06be004f05be004f04be00e4
:10190000af00b1000000060027fd3700e54f510091
:101910001ffd3a00e4b820008042eb0094cf120093
:101920001bfd320084ab2000a6c0b300944f13000f
:1019300003003200b5c0b30094cf120014fd3a008a
:10194000a3429000c82add00134290000482fb00ed
:1019500004827200445a8800445a8000455a80002c
:1019600004002800848f520009fd3a000402e800b8
:10197000445a88004f0778004f06be004f05be004e
:101980004f04be00af00b1000000060006fd3700a6
:10199000945580000402ea00848f520078fe3d00d6
:1019a000955580008502ea00355a880075fe37009b
:1019b000e34f5100f6fc3a00e4b820000043eb008e
:1019c000944f1300f2fc320004c5b30085ab200035
:1019d000954f1200eefc3a00a3429000c82add00a9
:1019e000134290000482fb0004827200245a880093
:1019f000255a800004402600848f520004003c00d9
:101a0000255a800004c02900848f5200e0fc3d006c
:101a1000245a88004f0778004f06be004f05be00cd
:101a20004f04be00af00b10000000600defc37002e
:101a3000e54f5100d6fc3a00e4b820008042eb00ac
:101a400094cf1200d2fc320084ab200066c0b300f9
:101a5000944f1300cefc3a00a3429000c82add0048
:101a6000134290000482fb0004827200345a880002
:101a7000355a800094558000848f520060003c00ed
:101a8000355a8000945580000402ea00848f520089
:101a9000bffc3d00945580000402ea00345a8800df
:101aa0004f0778004f06be004f05be004f04be0032
:101ab000af00b10000000600bbfc37001454a000ca
:101ac00016c0b300156f2400864a7800e7825200e2
:101ad000800aeb0045022000e84f5100c1fd3a00aa
:101ae000cdfd3700a3409000c808dd0013429000f0
:101af0000482fb008480700024002000811f780095
:101b0000110009008400d800cf00780002e2240010
:101b1000161f07004f0778004f06be004f05be0096
:101b20004f04be00af00b100000006009efc37006d
:101b30000c04be0032fe370013029000a302900096
:101b400094618800a561880021fe37000c04be0066
:101b5000dbfe370013029000a3029000546188005e
:101b600065618800cafe370073419000c340900051
:101b7000c808dd00334290000482fb0084807000be
:101b8000234090004800dd00134290000482fb00d7
:101b900004007000ab1e07004f0778004f06be0020
:101ba0004f05be004f04be00af00b10000000600ac
:101bb0007dfc370073419000c3409000c808dd00f1
:101bc000334290000482fb00848070002340900028
:101bd0004800dd00134290000482fb000400700006
:101be000ab1e07004f0778004f06be004f05be0032
:101bf0004f04be00af00b100000006006afc3700d1
:101c000094558000345a88004f0778004f06be0074
:101c10004f05be004f04be00af00b100000006003b
:101c200061fc3700d4002000080020000960240077
:101c3000fec0b300044757000200200003702400d8
:101c40000c02be0005007800840078005cfb0700f1
:101c50000801be0093fa0700e5fa070000067800c5
:101c600002002000037024000a02be000500780074
:101c70008400780052fb07000801be0089fa0700c3
:101c8000dbfa07000e4178008c007800801e070008
:101c900017ff3700c4002000080020000958240066
:101ca000fec0b30004475700020020000370240068
:101cb0000c02be00050078008400780040fb07009d
:101cc0000801be0077fa0700c9fa0700000678008d
:101cd00002002000037024000a02be000500780004
:101ce0008400780036fb07000801be006dfa07008b
:101cf000bffa07000e4178008c007800641e0700d0
:101d0000fbfe3700b400200008002000095024002a
:101d1000fec0b300044757000200200003702400f7
:101d20000c02be00050078008400780024fb070048
:101d30000801be005bfa0700adfa07000006780054
:101d400002002000037024000a02be000500780093
:101d5000840078001afb07000801be0051fa070052
:101d6000a3fa07000e4178008c007800481e070097
:101d7000dffe3700a40020000800200009482400ee
:101d8000fec0b30004475700020020000370240087
:101d90000c02be00050078008400780008fb0700f4
:101da0000801be003ffa070091fa0700000678001c
:101db00002002000037024000a02be000500780023
:101dc00084007800fefa07000801be0035fa07001b
:101dd00087fa07000e4178008c0078002c1e07005f
:101de000c3fe3700940020000800200009402400b2
:101df000fec0b30004475700020020000370240017
:101e00000c02be000500780084007800ecfa0700a0
:101e10000801be0023fa070075fa070000067800e3
:101e200002002000037024000a02be0005007800b2
:101e300084007800e2fa07000801be0019fa0700e2
:101e40006bfa07000e4178008c007800101e070026
:101e5000a7fe370084002000080020000938240075
:101e6000fec0b300044757000200200003702400a6
:101e70000c02be000500780084007800d0fa07004c
:101e80000801be0007fa070059fa070000067800ab
:101e900002002000037024000a02be000500780042
:101ea00084007800c6fa07000801be00fdf90700ab
:101eb0004ffa07000e4178008c007800f41d0700ef
:101ec0008bfe370074002000080020000930240039
:101ed000fec0b30004475700020020000370240036
:101ee0000c02be000500780084007800b4fa0700f8
:101ef0000801be00ebf907003dfa07000006780074
:101f000002002000037024000a02be0005007800d1
:101f100084007800aafa07000801be00e1f9070072
:101f200033fa07000e4178008c007800d81d0700b6
:101f30006ffe3700640020000800200009282400fc
:101f4000fec0b300044757000200200003702400c5
:101f50000c02be00050078008400780098fa0700a3
:101f60000801be00cff9070021fa0700000678003b
:101f700002002000037024000a02be000500780061
:101f8000840078008efa07000801be00c5f907003a
:101f900017fa07000e4178008c007800bc1d07007e
:101fa00053fe3700540020000800200009202400c0
:101fb000fec0b30004475700020020000370240055
:101fc0000c02be0005007800840078007cfa07004f
:101fd0000801be00b3f9070005fa07000006780003
:101fe00002002000037024000a02be0005007800f1
:101ff0008400780072fa07000801be00a9f9070002
:10200000fbf907000e4178008c007800a01d070046
:1020100037fe370044002000080020000918240083
:10202000fec0b300044757000200200003702400e4
:102030000c02be00050078008400780060fa0700fa
:102040000801be0097f90700e9f9070000067800cb
:1020500002002000037024000a02be000500780080
:102060008400780056fa07000801be008df90700c9
:10207000dff907000e4178008c007800841d07000e
:102080001bfe370034002000080020000910240047
:10209000fec0b30004475700020020000370240074
:1020a0000c02be00050078008400780044fa0700a6
:1020b0000801be007bf90700cdf907000006780093
:1020c00002002000037024000a02be000500780010
:1020d000840078003afa07000801be0071f9070091
:1020e000c3f907000e4178008c007800681d0700d6
:1020f000fffd37002400200008002000090824000c
:10210000fec0b30004475700020020000370240003
:102110000c02be00050078008400780028fa070051
:102120000801be005ff90700b1f90700000678005a
:1021300002002000037024000a02be00050078009f
:10214000840078001efa07000801be0055f9070058
:10215000a7f907000e4178008c0078004c1d07009d
:10216000e3fd3700140020000800200009002400cf
:10217000fec0b30004475700020020000370240093
:102180000c02be0005007800840078000cfa0700fd
:102190000801be0043f9070095f907000006780022
:1021a00002002000037024000a02be00050078002f
:1021b0008400780002fa07000801be0039f9070020
:1021c0008bf907000e4178008c007800301d070065
:1021d000c7fd37000002eb000800200009f82300cb
:1021e000fec0b30004475700020020000370240023
:1021f0000c02be000500780084007800f0f90700aa
:102200000801be0027f9070079f9070000067800e9
:1022100002002000037024000a02be0005007800be
:1022200084007800e6f907000801be001df90700e8
:102230006ff907000e4178008c007800141d07002c
:10224000abfd3700e40020000800200009682400ee
:10225000fec0b300044757000200200003702400b2
:102260000c02be000500780084007800d4f9070055
:102270000801be000bf907005df9070000067800b1
:1022800002002000037024000a02be00050078004e
:1022900084007800caf907000801be0001f90700b0
:1022a00053f907000e4178008c007800f81c0700f5
:1022b0008ffd3700e400200008002000096824009a
:1022c000fec0b30004475700020020000370240042
:1022d0000c02be000500780084007800b8f9070001
:1022e0000801be00eff8070041f90700000678007a
:1022f00002002000037024000a02be0005007800de
:1023000084007800aef907000801be00e5f8070078
:1023100037f907000e4178008c007800c91c0700cf
:10232000c3fc3700d400200008002000096024000e
:10233000fec0b300044757000200200003702400d1
:102340000c02be0005007800840078009cf90700ac
:102350000801be00d3f8070025f907000006780041
:1023600002002000037024000a02be00050078006d
:102370008400780092f907000801be00c9f8070040
:102380001bf907000e4178008c007800ad1c070097
:10239000a7fc3700c40020000800200009582400d2
:1023a000fec0b30004475700020020000370240061
:1023b0000c02be00050078008400780080f9070058
:1023c0000801be00b7f8070009f907000006780009
:1023d00002002000037024000a02be0005007800fd
:1023e0008400780076f907000801be00adf8070008
:1023f000fff807000e4178008c007800911c070060
:102400008bfc3700b4002000080020000950240095
:10241000fec0b300044757000200200003702400f0
:102420000c02be00050078008400780064f9070003
:102430000801be009bf80700edf8070000067800d1
:1024400002002000037024000a02be00050078008c
:10245000840078005af907000801be0091f80700cf
:10246000e3f807000e4178008c007800751c070027
:102470006ffc3700a4002000080020000948240059
:10248000fec0b30004475700020020000370240080
:102490000c02be00050078008400780048f90700af
:1024a0000801be007ff80700d1f807000006780099
:1024b00002002000037024000a02be00050078001c
:1024c000840078003ef907000801be0075f8070097
:1024d000c7f807000e4178008c007800591c0700ef
:1024e00053fc37009400200008002000094024001d
:1024f000fec0b30004475700020020000370240010
:102500000c02be0005007800840078002cf907005a
:102510000801be0063f80700b5f807000006780060
:1025200002002000037024000a02be0005007800ab
:102530008400780022f907000801be0059f807005e
:10254000abf807000e4178008c0078003d1c0700b6
:1025500037fc3700840020000800200009382400e0
:10256000fec0b3000447570002002000037024009f
:102570000c02be00050078008400780010f9070006
:102580000801be0047f8070099f807000006780028
:1025900002002000037024000a02be00050078003b
:1025a0008400780006f907000801be003df8070026
:1025b0008ff807000e4178008c007800211c07007e
:1025c0001bfc3700740020000800200009302400a4
:1025d000fec0b3000447570002002000037024002f
:1025e0000c02be000500780084007800f4f80700b3
:1025f0000801be002bf807007df8070000067800f0
:1026000002002000037024000a02be0005007800ca
:1026100084007800eaf807000801be0021f80700ee
:1026200073f807000e4178008c007800051c070045
:10263000fffb370064002000080020000928240068
:10264000fec0b300044757000200200003702400be
:102650000c02be000500780084007800d8f807005e
:102660000801be000ff8070061f8070000067800b7
:1026700002002000037024000a02be00050078005a
:1026800084007800cef807000801be0005f80700b6
:1026900057f807000e4178008c007800e91b07000e
:1026a000e3fb37005400200008002000092024002c
:1026b000fec0b3000447570002002000037024004e
:1026c0000c02be000500780084007800bcf807000a
:1026d0000801be00f3f7070045f807000006780080
:1026e00002002000037024000a02be0005007800ea
:1026f00084007800b2f807000801be00e9f707007f
:102700003bf807000e4178008c007800cd1b0700d5
:10271000c7fb3700440020000800200009182400ef
:10272000fec0b300044757000200200003702400dd
:102730000c02be000500780084007800a0f80700b5
:102740000801be00d7f7070029f807000006780047
:1027500002002000037024000a02be000500780079
:102760008400780096f807000801be00cdf7070046
:102770001ff807000e4178008c007800b11b07009d
:10278000abfb3700340020000800200009102400b3
:10279000fec0b3000447570002002000037024006d
:1027a0000c02be00050078008400780084f8070061
:1027b0000801be00bbf707000df80700000678000f
:1027c00002002000037024000a02be000500780009
:1027d000840078007af807000801be00b1f707000e
:1027e00003f807000e4178008c007800951b070065
:1027f0008ffb370024002000080020000908240077
:10280000fec0b300044757000200200003702400fc
:102810000c02be00050078008400780068f807000c
:102820000801be009ff70700f1f7070000067800d7
:1028300002002000037024000a02be000500780098
:10284000840078005ef807000801be0095f70700d5
:10285000e7f707000e4178008c007800791b07002d
:1028600073fb37001400200008002000090024003a
:10287000fec0b3000447570002002000037024008c
:102880000c02be0005007800840078004cf80700b8
:102890000801be0083f70700d5f70700000678009f
:1028a00002002000037024000a02be000500780028
:1028b0008400780042f807000801be0079f707009d
:1028c000cbf707000e4178008c0078005d1b0700f5
:1028d00057fb37000002eb000800200009f8230036
:1028e000fec0b3000447570002002000037024001c
:1028f0000c02be00050078008400780030f8070064
:102900000801be0067f70700b9f707000006780066
:1029100002002000037024000a02be0005007800b7
:102920008400780026f807000801be005df7070064
:10293000aff707000e4178008c007800411b0700bc
:042940003bfb370026
:020000040000fa
:102944003600f800809fbe00829fbe00849fbe00b8
:10295400869fbe00889fbe008a9fbe008c9fbe00db
:102964008e1f7800e6874700440f20002402880069
:102974001e18070034598000555980000402ea00eb
:10298400050252004459880035598000945b800048
:102994008482420064002000110009008402d800ef
:1029a400800278000558880046598000855b8000c5
:1029b40085024300110009008402d80080027800d7
:1029c4001558880056598000755b800085024300c5
:1029d400110009008402d8000002780024588800fd
:1029e40030598000905b880041598000815b8800e9
:1029f40052598000725b880028b420009841780006
:102a040061c26100470032004aaa20000042eb0084
:102a14009a4f12000c033a00995a8000a45a80007d
:102a24000402e800a45a8800b5222000850f520051
:102a3400080034008002eb00a55a88000902e8006f
:102a4400945a880076162000860f52000100340044
:102a5400955a880024b4200098457800e1c26500a6
:102a640036003a0014407800f045600033003a0024
:102a74001442780062426200e4033a00844578001c
:102a84009841780062c261005a003a00cc032000e9
:102a9400809fbe00110009008c04d8000006780055
:102aa4004f00be000c46e8008db520009d4f160077
:102ab400570032009842780070c262006eb5200060
:102ac4005f013a009843780061c263000400320059
:102ad40024b42000144278006242620028033a00c1
:102ae4001d427800044f78008c4e78000c02fb00e5
:102af400cfa2de0061025200e0825a00e50f5200cc
:102b0400e08f5a0042003e00046001005c0337007d
:102b1400af0337009f0337008f0337007f0337006d
:102b24006f0337008004eb004aaa200024b420007d
:102b340098457800e1c26500caff320049180700d1
:102b4400545c8000505c88009a457800e0cf5500c2
:102b540035013a00d6548000e75480000400500048
:102b6400cf80de000000430081804b00d0548800f9
:102b7400e1548800645c80000402e800645c88001e
:102b8400f40f5200beff3a000002eb00645c8800c0
:102b9400f4548000d0548000e1548000365c8000fe
:102ba400475c800006035000878358000402e80055
:102bb400cfa2de000602420087824a004f2bde00cd
:102bc40006024200e0824a008582d1000482d300da
:102bd400f4548800d2548000e3548000325c8800ae
:102be400435c88001bc0b3009841780062c2610056
:102bf400a6ff3200a31307000082fb00c55a280079
:102c040065467a008db520009d4f1600a9ff3a0055
:102c1400005b800080027800f75a80000703780088
:102c24000c06fb002d002000801f78001100090015
:102c34000d06d800810678004f007800984078008f
:102c440062c260000701320024b4200014427800fc
:102c5400e14062000002eb00f6013200d45a800029
:102c640004825400310b2000810f5200c2023c0048
:102c7400c1f42f00810f520001003d008416b00002
:102c8400fe0f5200ea013c00fe0f4200fc003d0032
:102c94000c01e900c40320000491b900a114200030
:102ca4008280400084162000801f780011000900f3
:102cb4008400d800010278004f007800f45788009f
:102cc400e401200004024200215f280061067a002a
:102cd400415b2800e1047a008904ea00e0cf560051
:102ce400fc00320095027800168152000c91b90064
:102cf400e45a800094007800098ab900412bdd0071
:102d04004f22de0004027300cfaade00e4bf9f005e
:102d1400f5bf9f00d6ff2f00efba970006aab900af
:102d2400e4bf9f00f5bf9f00411bdd004f11de0093
:102d340002017300cf99de0082024200555a8800d6
:102d44000c8ab90010007800170050000980b900ff
:102d5400cfabde004129dd004f23de000603710006
:102d64000603ea00cf8ade00c109dd004f02de005f
:102d74000482710004025300645a88000041eb008d
:102d84009a4f1100fa00320084ab200066ae200096
:102d9400b5c0b30094cf12000b01320085ab200004
:102da40067c0b30095cf1300070132008045eb00e4
:102db4009acf150004013a00575a800095558000b7
:102dc400858f53000b023c00505a800097558000b9
:102dd4008703ea00a5ad2000870f500001003d00e5
:102de40080caeb00a7ad20008040eb0095cf100017
:102df4000702320012c0b300974f110034043200ae
:102e040080c1eb0097cf11004f033200545680006d
:102e14006556800010568000215680000002420052
:102e240081824a009603fb008703e9000300330014
:102e34008582d1000482d300fbff370004077800a9
:102e4400655a80008502ea0010578000c45680004d
:102e54000482520000a5b900eabf9f00fbbf9f0097
:102e640024578000c0568000008042000480b900ce
:102e740032568000435680000a0040008b80480090
:102e84000000410081804900305688004156880086
:102e9400c556880030568000415680004457800053
:102ea40055578000840f5000858f58000a01340064
:102eb40040578000515780003056880041568800a2
:102ec40034568000455680001603fb000603e900d3
:102ed400030033008582d1000482d300fbff370056
:102ee400040578002503200016032000140e80003a
:102ef400e00f520009003d00140e800004f0a10010
:102f0400860f520005003e008502e900f7ff3a00f3
:102f1400c4c520001474a000351a0700e4558000cd
:102f2400e00f520006003400e45580000402e9007a
:102f3400e4558800e4558000e00f52003801320067
:102f44000cf2b90009d0b9004109dd004f00de00e0
:102f540000007100cf88de00d7ff2f000783b9007f
:102f6400c129dd004f22de0004827100cfaade00f9
:102f74008402430009f3b9000cd5b900415add00bd
:102f84004f55de000a057200cfddde004138dd005a
:102f94004f33de0006037000cfbbde00060245009f
:102fa400e0cf5600010032000402ea00665b8000b4
:102fb400048b5200465b8000040b42008502ea0049
:102fc400565b8000048b5200125b8000215b800002
:102fd400305b8000f60f07001844780064426400f8
:102fe40005003a00845a80000402e800845a8800ec
:102ff400f30f5200db003c008480a9006f00b10095
:103004004f0778004f06be004f05be004f04be00b8
:103014004f03be004f02be004f01be004f00be0072
:103024003600f900004006006022b800d45488003d
:10303400e55488008005eb00fb54880090fe3700bf
:10304400001b07000043eb009a4f13009dfe3a005b
:1030540044588000800f52008f033200405888008b
:1030640098fe3700c4032000801f78001100090077
:103074008404d800010278004f0078007e025200d8
:103084000c01e900c10320000191b9008116200060
:10309400828040008480400082162000801f7800d7
:1030a400110009008200d8004f007800f157880011
:1030b400e00f5200a300350004024200215f280003
:1030c40061067a00415b2800e1047a00e0cf5600f3
:1030d40004ff3a0095027800168152000c91b90061
:1030e400e45a800094007800098ab900412bdd007d
:1030f4004f22de0004027300cfaade00e4bf9f006b
:10310400f5bf9f00efba9700632ab900e4bf9f00a0
:10311400f5bf9f00411bdd004f11de00020173006b
:10312400cf99de0082024200555a88000c8ab90009
:10313400100078001703500009b3b9004128dd00de
:103144004f22de0004027000cfaade00c138dd0089
:103154004f33de0006837000cfbbde000602520050
:10316400645a88000041eb009a4f110006ff3a00b0
:1031740084ab2000b3c0b30094cf1100d800320058
:10318400a5c0b30094cf1200d500320061c0b300d3
:1031940094cf10008f01320005c5b30094cf120004
:1031a4004a0232006033b8005656880067568800d9
:1031b4008002eb007556880066ae2000b5c0b300ef
:1031c40094cf1200f5fe3a0075568000545a8000e0
:1031d4000482520010578000b556800085025200c8
:1031e40000adb90020578000b5568000850242002a
:1031f40000a8b900f2558000035680000a00400080
:103204008b8048000000410081804900f05588000f
:1032140001568800b4568800f0558000015680009d
:103224004457800055578000840f5000858f580004
:10323400920034004057800051578000f0558800b8
:1032440001568800f4558000055680009603fb0063
:103254008703e900030033008582d1000482d30090
:10326400fbff370004077800655a80008502ea00f6
:1032740010578000c45680000482520000a5b90093
:10328400eabf9f00fbbf9f0024578000c056800008
:10329400008042000480b90032568000435680000a
:1032a4000a0040008b8048000000410081804900f2
:1032b4003056880041568800c55688003056800034
:1032c400415680004457800055578000840f5000b9
:1032d400858f5800f6fe3c0040578000515780000f
:1032e400345680004556800060001000e0801800cd
:1032f400840f5000858f5800f1fe3400445780003d
:103304005557800060021200e0821a00345688008b
:103314004556880034568000455680001603fb004d
:103324000603e900030033008582d1000482d30040
:10333400fbff370004057800250320001603200056
:10334400eafe37000402ea0004024200215f28007a
:1033540061067a00415b2800e1047a008904ea00ee
:103364005efe37000002eb00845a8800505a800049
:10337400545a800000a0b90074558000855580001f
:10338400565580006755800004025000858258001d
:10339400c628dd004a22de0004827000caaade00cc
:1033a4000402430085824b0054558800655588000b
:1033b4005455800065558000e00f5200e08f5a009c
:1033c400170135005655800067558000345580003c
:1033d40045558000840f5300858f5b0006ff340041
:1033e400c4c520001414a000011907008480a9009a
:1033f4006f00b1004f0778004f06be004f05be00b6
:103404004f04be004f03be004f02be004f01be007a
:103414004f00be003600f9000040060002ff3700ee
:10342400b4c520001414a000f1180700c4fe37002e
:10343400e40120000c01e900c10320000191b9005e
:103444008116200082804000848040008216200083
:10345400801f7800110009008200d8004f00780016
:10346400f157880004024200215f280061067a00b7
:10347400415b2800e1047a0014ff370040578000c4
:1034840051578000f45580000556800060001000fc
:10349400e0801800840f5000858f580069ff3400c5
:1034a400445780005557800060021200e0821a00e1
:1034b400f455880005568800f455800005568000b0
:1034c4009603fb008703e900030033008582d100e3
:1034d4000482d300fbff37000407780062ff370043
:1034e40066ae2000e0cf550029fe3200465a800027
:1034f400f554800085025300b6c0b300944f130006
:1035040048013a008256800080568000965680001a
:10351400a756800000804200cf80de0000004300f8
:1035240081804b0002815200cf91de00441bdd00fc
:10353400cc13de00870373004413dd000003430053
:1035440081834b0096568800a756880090558000ca
:1035540096568000a7568000cf80de00860f50006c
:10356400878f58007301350090558000965680006f
:10357400a75680000000ea00cf80de00860f5000ce
:10358400878f580005003400965580000603ea0032
:10359400cfb3de0096568800a7568800a6b0200058
:1035a4008043eb0096cf1300430232009056800014
:1035b400a1568000e00f5000e08f58007c023400d8
:1035c4007256800090568000a1568000cf91de0094
:1035d400800f5100818f59005d023d0076568000b6
:1035e4000603e800765688008556880066ae2000fb
:1035f400e7fd3700a5ad200017c0b300874a780067
:10360400a7ad20008040eb0095cf1000f9fd3a00f3
:1036140005c5b30094cf12000d0232005456800049
:103624006556800007af20009703fb008703e9007d
:10363400030033008582d1000482d300fbff3700ee
:1036440004077800fefd37009842780062c26200e9
:103654008004eb00fffc3a000043eb009a4f130098
:10366400fcfc3200240f800004f0a7000402ea00ee
:1036740005022000850f52000300340015c0b3007a
:1036840004b82000054a7800663782006333b90025
:103694002400200080047800811f780011000900b4
:1036a4000403d8008004fd00cf00780027c0b300d5
:1036b4009acf130011003c00846f24008045eb0076
:1036c40094cf15000d0032004bc6200004b8200032
:1036d4000040eb00944f1000cc013200146f240022
:1036e40014427800e04f52000100320034c0b300ad
:1036f400044d78001b44a1005419070011c0b30005
:103704009acf10007801320022c0b3009a4f110002
:10371400ac01320033c0b3009acf110082013200f1
:1037240045c0b3009acf12008a01320056c0b300dc
:103734009a4f130032013200175c800077568800dc
:10374400295c800074162000848f54000300340028
:103754008916b100848f5400fdff3c00e08f5400b3
:10376400bcfc3d008916b000bafc3b008916b000d1
:10377400fcff3300b7fc37008416b10040fd37006e
:103784003019070034588000800f5200ba0132000b
:1037940030588800e14f56002b003200e64f5600a7
:1037a400460032001d427800844f5600a1013400c7
:1037b400fe824400d55a880076162000868f520077
:1037c400c8fc340065eb2f0089824200d55a88007a
:1037d400c4fc37006033b80056568800675688002a
:1037e400325a8000725688007656800095558000c3
:1037f400850f5300c4003c00975580007556800027
:103804008703ea0066ae2000858f530060fd340014
:10381400955580008502ea00755688005cfd3700e6
:103824006022b80054558800655588000403be0022
:103834003455800045558000840f5300858f5b000c
:10384400edfd3400e6fe370085b520001d4278000a
:10385400e64f5200d4ff3a007e834400d65a8800d3
:1038640077162000870f5300eb01340066eb2f001e
:1038740009034300d65a8800044f78008c4a780024
:1038840005b02000055b880064b62000645b8800f6
:1038940026b02000f65a880044b62000545b880005
:1038a40044b02000e45a880024b62000445b880019
:1038b4000500780086037800d9fc370085b5200020
:1038c4001d427800e14f5200b7ff3a007e83540056
:1038d400d65a8800f2013300044f78008c4a7800ed
:1038e40045b02000055b880024b62000645b880096
:1038f40026b02000f65a880044b62000545b8800a5
:1039040004b02000e45a880064b62000445b8800b8
:103914000500780086037800c1fc370045b020001c
:10392400055b880024b62000645b880006b0200094
:10393400f65a880064b62000545b880024b0200046
:10394400e45a880044b62000445b880005007800ef
:1039540086037800b2fc370025b02000055b8800a0
:1039640044b62000645b880006b02000f65a880044
:1039740064b62000545b880044b02000e45a8800f8
:1039840024b62000445b8800050078008603780094
:10399400a3fc370025b02000055b880044b6200056
:1039a400645b880046b02000f65a880024b62000e4
:1039b400545b880004b02000e45a880064b62000f8
:1039c400445b8800050078008603780094fc370087
:1039d40005b02000055b880064b62000645b8800a5
:1039e40046b02000f65a880024b62000545b8800b4
:1039f40024b02000e45a880044b62000445b8800c8
:103a0400050078008603780085fc37006e180700ef
:103a1400d0548800e1548800b2150700f05488009f
:103a240017fc3700605780008256800002815200e4
:103a34000091b900765780008056800000804200d3
:103a44000680b90056568000675680000200400088
:103a5400838048000003430081834b00565688004e
:103a6400675688000600be0096578000a75780005e
:103a7400860f5000878f580027003c009057800025
:103a8400a1578000565680006756800060001000e1
:103a9400e0801800860f5000878f5800060034001d
:103aa40096578000a757800060031300e0831b0033
:103ab40056568800675688000003eb007656880047
:103ac4008556880066ae2000b1fc3700205a80007d
:103ad40066ae2000cf80de009602fb00e582520035
:103ae4008502e900030033000000400081804800a3
:103af400fbff370050568800615688008002eb00b7
:103b040075568800a2fc37009355800073568800d0
:103b140066ae20009efc370090578000a1578000bd
:103b240050568800615688000003eb0076568800e2
:103b3400e3ff370096558000cfb3de009656880029
:103b4400a756880095fe370095558000545a80008a
:103b54008502ea00048252001a578000b0568000a1
:103b6400000052000a85b90025578000b056800035
:103b7400000042000580b9001256800023568000e0
:103b84000a0040008b804800000041008180490009
:103b94001056880021568800b456880014568000b8
:103ba40025568000e00f5200e08f5a0097fc3c003d
:103bb4006022b8001456880025568800804beb001c
:103bc4000002eb00b456880054568000655680000d
:103bd40010568000215680000002420081824a0073
:103be4009603fb008703e900030033008582d100bc
:103bf4000482d300fbff37000407780090fc3700f1
:103c0400795880006758800007824400245c88004b
:103c1400d45b80000402e800d45b880005a62e0073
:103c2400850f5200c4fe36000002eb00145c8800cd
:103c34009437820060378200250f800000a8b90005
:103c4400811f7800110009004408d800cf007800d3
:103c5400e05b8800f55b800005025000360b200015
:103c6400860f5200030034008416b100860f520000
:103c7400fdff3c00c6f42f00860f520003003d00f8
:103c84008416b000860f5200fdff350084007800d2
:103c940001f0a7008100ea00a6052000868f5000ed
:103ca4000c01340026002000809fbe001100090092
:103cb4000602d800000278004f00be000502420050
:103cc40076162000860f5200030034008416b100db
:103cd400860f5200fdff3c00e00f52000d013d0035
:103ce4008416b000fcff3700b6558000155c8000d8
:103cf40024002000809fbe00110009000403d800a6
:103d0400000378004f00be00850f53009700340075
:103d14008502e800155c880022c0b3009a4f1100a8
:103d24007cfe3a0027003700245c80006458880039
:103d3400145c8000b5558000850f5200a9003d0039
:103d44000402e800145c880045c0b3009acf120056
:103d540076fe3a0064588000855880000482420050
:103d6400245c8800d45b80000402e800d45b8800f3
:103d740005532700850f52006cfe360094378200ed
:103d840060378200250f800000a8b900811f7800e9
:103d9400110009004408d800cf007800f05b8800c7
:103da4000002eb00d45b880055c0b30044aa200095
:103db400054a780056c0b3009a4f13005efe3a00dd
:103dc4008fff3700245c80008904ea00848f54004c
:103dd400a5003d00b55b80008502e800b55b880066
:103de400860c2000868f52004afe34008002eb00cd
:103df400b55b88000402e900245c880033c0b3008a
:103e04009acf110046fe3a00c7ff37000006eb00c8
:103e14001c5c88007c5688001b34a000c4c52000ac
:103e24001444a0007216070044aa20000c4a78002b
:103e34002afe3700fe825400d55a880029fb3b0035
:103e4400a514200089824200d55a880025fb37003a
:103e540054568000655680009603fb008703e900f2
:103e6400030033008582d1000482d300fbff3700b6
:103e740004077800f2fb37009e4f160045fe32001f
:103e840044c620001434a000c4c520001444a0007b
:103e9400571607003ffe37009e4f160009fb3200fd
:103ea40044c620001434a000c4c520001444a0005b
:103eb4004f16070003fb370096568000a756800074
:103ec400765688008556880066ae2000b0fb370021
:103ed40095558000545a8000048252001a5780007d
:103ee400b0568000000052000a85b90025578000b2
:103ef400b0568000000042000580b90012568000d0
:103f0400235680000a0040008b80480000004100d6
:103f1400818049001056880021568800b4568800d4
:103f24001456800025568000e00f5200e08f5a009e
:103f3400b6fb35006022b800145688002556880068
:103f4400804beb000002eb00b45688001eff3700e4
:103f540090568000a156800070568800004beb00fc
:103f64008556880066ae200089fb3700255c8000fa
:103f7400858f540032003400c45b80000402e800e2
:103f8400c45b8800860c2000860f5200defd3400de
:103f94000002eb00c45b88008502e800255c880011
:103fa40022c0b3009a4f1100dafd3a0085ff3700b2
:103fb4007256800090568000a1568000cf91de009a
:103fc400800f5100818f5900e1ff34007656800044
:103fd4000603e900765688008556880066ae200000
:103fe4006bfb3700a45b80000402e800a45b88003c
:103ff40005712200850f5200c9fd340045c0b3008d
:1040040044aa2000054a780045c0b3009acf1200a4
:10401400c6fd3a004fff3700044f78008c4a780001
:1040240005b02000055b880064b62000645b88004e
:1040340026b02000f65a880044b6200017fe370048
:1040440085f82f00855888008002eb007558880099
:1040540045aa2000844a780022c0b3009a4f110078
:10406400acfd3a0057ff37008004eb00195c880070
:104074007956880044c620001424a000c4c520003a
:104084001444a000da15070044aa2000094a780065
:1040940033c0b3009acf1100a1fd3a0022ff3700cc
:1040a400a614200009034300d65a8800044f780060
:1040b4008c4a780045b02000055b880024b62000b7
:1040c400645b880026b02000f65a880044b62000bd
:1040d4000afe3700e08f5400350032000002eb0086
:1040e4007458880085f82f0085588800d45b8800b0
:1040f40044c0b300044d7800175c800077568800f4
:10410400295c800074162000848f540090fd3c00cc
:1041140092fd3700d5578800e0578800a705b00006
:10412400855880008584440025002000809fbe00bf
:10413400110009008504d800800278004f00be00f9
:10414400858243000482520054378a005537820026
:1041540074162000848f5200060034005537820004
:104164008516b10055378a0055378200848f520076
:10417400faff3c0054378200e00f520004003d0077
:10418400543782008416b00054378a00f9ff370090
:10419400004deb00175c800077568800295c800096
:1041a40074162000848f540069fd3c006bfd3700b9
:1041b400195c88007956880044c620001444a10084
:1041c4001454a000c4c520001444a000881507009e
:1041d400094d7800175c800077568800295c8000c0
:1041e40074162000848f540059fd3c005bfd370099
:020000040000fa
:1041f400881f78003064ab00040032008521800001
:104204000480200084826200a7003a008521800097
:10421400e8826200ad003200852180000480200025
:1042240084826200fc00320095218000e8826200f2
:1042340052003a0004722400e00f5000e08f58004e
:1042440079023500c603de00f003b2002600200028
:104254000600dd00ffc363009440900006ceb30067
:1042640006c360000743730016429800544390004d
:1042740063436300564298002542980034439000fb
:1042840005cfb3008542630035429800c5cfb30023
:10429400054a6000d44290000510a10055429800e0
:1042a4006f436100c443900005cfb30085c263002f
:1042b40086c27200454298000281fb0083007800a8
:1042c400607224001cf2070004c12000000aeb0005
:1042d40064608000e20f520058013c007560800069
:1042e400e28f5200c9013c0096608000e20f530047
:1042f40006003c000402e800646088008502e800cf
:10430400756088000603e800966088006302620016
:1043140080218000c7ff2f008703600004827300a0
:1043240084218800e3826200482add008521800020
:10433400f7cf2f0087826200848272008521880073
:10434400942180000400a1000410a100942188009d
:10435400630363004833dd00942180008703620017
:1043640086837300972188003264a8000002eb0062
:10437400040078004f047800000006000473240051
:10438400e00f5000e08f5800590235004603de006c
:10439400f003b200250020000500dd007f43630028
:1043a4009443900005ceb30085c2630086c27200b8
:1043b40015429800d4429000e3c26200554298002e
:1043c4008042eb00254298003443900005cfb300af
:1043d4008542630035429800c5cfb300054a6000aa
:1043e400d44290000510a100554298006f4361002b
:1043f400c443900005cfb30085c2630086c2720037
:10440400454298000281fb00830078006073240019
:10441400c9f1070024c12000000aeb006460800099
:10442400e20f5200ce003c0076608000e20f5300a1
:1044340054013400876080006302620080218000a0
:10444400c5ff2f000500600004027000842188006d
:10445400630363004832dd0080218000f6cf2f0023
:10446400060360000403730086218800e38363006d
:104474009421800085026200878272009521880061
:10448400942180000480a1000490a100942188005c
:104494003364a8000002eb00040078004f047800a5
:1044a40000000600b5ff37003264ab0057ff32004e
:1044b40095218000848262000082eb00acff3a0008
:1044c40085218000e882620053ff3a0004702400d2
:1044d400e00f5000e08f580067013500c603de008e
:1044e400f003b200260020000600dd00ffc36300d5
:1044f4009440900006ceb30006c3600007437300e7
:104504001642980054439000634363005642980057
:10451400254298003443900005cfb30085426300e0
:1045240035429800c5cfb300054a6000d4429000dc
:104534000510a100554298006f436100c4439000e8
:1045440005cfb30085c2630086c27200454298005d
:104554000281fb00830078006070240076f107007c
:10456400c4c02000000aeb0075608000e28f520096
:1045740096003c0086608000e20f5300e6003c0099
:1045840097608000e28f530006003c008502e8003b
:10459400756088000603e800866088008703e800e9
:1045a40097608800842180000400a1000410a10009
:1045b40084218800e3826200c82add008021800013
:1045c400f4cf2f000400600085027000852188006c
:1045d4006303630090218000c5ff2f008502600003
:1045e4000683720096218800e3836300c83bdd00e4
:1045f40095218000048262000702720094218800e1
:104604003064a8000002eb00040078004f04780036
:104614000000060059ff370004712400e00f500029
:10462400e08f580046013500c603de00f003b200f7
:10463400260020000600dd00ffc3630094409000c4
:1046440006ceb30006c36000074373001642980009
:1046540054439000634363005642980025429800f7
:104664003443900005cfb30085426300354298007f
:10467400c5cfb300054a6000d44290000510a100e4
:10468400554298006f436100c443900005cfb300c6
:1046940085c2630086c27200454298000281fb0015
:1046a400830078006071240023f10700e4c0200037
:1046b400000aeb0064608000e20f52007b003c00c3
:1046c40085608000e28f52003d013c0096608000ce
:1046d400e20f530006003c000402e8006460880016
:1046e4008502e800856088000603e800966088007b
:1046f4006302620080218000c7ff2f000700600072
:104704000402700084218800842180000480a100b8
:104714000490a10084218800e38262009421800037
:104724008703620085827300952188006303630018
:104734004832dd0096218000f5cf2f000503630089
:1047440004037300962188003164a8000002eb0082
:10475400040078004f0478000000060007ff3700cb
:1047640076608000876080006302620080218000a0
:10477400c5ff2f000500600004027000842188003a
:10478400630363004832dd0080218000f6cf2f00f0
:10479400060360000403730086218800e38363003a
:1047a400942180008502620087827200952188002e
:1047b400942180000480a1000490a1009421880029
:1047c4003364a8000002eb0033ff370086608000ea
:1047d40097608000842180000400a1000410a100df
:1047e40084218800e3826200c82add0080218000e1
:1047f400f4cf2f000400600085027000852188003a
:104804006303630090218000c5ff2f0085026000d0
:104814000683720096218800e3836300c83bdd00b1
:1048240095218000048262000702720094218800ae
:104834003064a8000002eb0073ff3700756080004d
:10484400966080006302620080218000c7ff2f0011
:10485400870360000482730084218800e38262007d
:10486400482add0085218000f7cf2f00878262006f
:104874008482720085218800942180000400a100b4
:104884000410a10094218800630363004833dd0011
:104894009421800087036200868373009721880037
:1048a4003264a8000002eb00b1fe3700856080008e
:1048b400966080006302620080218000c7ff2f00a1
:1048c40007006000040270008421880084218000b5
:1048d4000480a1000490a10084218800e382620086
:1048e40094218000870362008582730095218800eb
:1048f400630363004832dd0096218000f5cf2f006a
:104904000503630004037300962188003164a80042
:104914000002eb008eff3700976080008421800046
:104924000400a1000410a10084218800e382620035
:10493400c82add0080218000f4cf2f00040060002d
:104944008502700085218800630363009021800044
:10495400c5ff2f008502600006837200962188003f
:10496400e3836300c83bdd0095218000048262007c
:1049740007027200942188003064a8000002eb0052
:1049840021ff370087608000e28f5300aafe3c00bd
:104994000402e800646088000603e800766088008a
:1049a4008703e8008760880063026200802180003a
:1049b400c5ff2f00050060000402700084218800f8
:1049c400630363004832dd0080218000f6cf2f00ae
:1049d400060360000403730086218800e3836300f8
:1049e40094218000850262008782720095218800ec
:1049f400942180000480a1000490a10094218800e7
:104a04003364a8000002eb00a3fe37009660800028
:104a14006302620080218000c7ff2f0087036000cb
:104a24000482730084218800e3826200482add0046
:104a340085218000f7cf2f00878262008482720074
:104a440085218800942180000400a1000410a100a5
:104a540094218800630363004833dd0094218000bf
:104a64008703620086837300972188003264a8005c
:104a74000002eb003efe3700f5c3b300854360003f
:104a840025002000853bdd00544390006343630010
:104a94000743730056429800c60bde004a0cdd0043
:104aa4004603de00060374004834de002642980004
:104ab400ef4364003444900006cfb300064364001f
:104ac4000743730036429800050bde00c633de0050
:104ad400f603b2008532dd00ffc36300144090008a
:104ae40006ceb300064360000743730016429800e5
:104af40063ca7200d44290000510a1005542980088
:104b04006f436100c443900005cfb30085c26300c6
:104b140086c27200454298000281fb00830078003f
:104b24006070240004f00700c4c02000000aeb00f9
:104b340075608000e28f52008efe340023ff370040
:104b4400f5c3b3008543600025002000853bdd00ec
:104b54005443900063436300074373005642980034
:104b6400c60bde004a0cdd004603de0006037400bb
:104b74004834de0026429800ef4364003444900039
:104b840006cfb3000643640007437300364298001f
:104b9400050bde00c633de00f603b2008532dd000d
:104ba400ffc363001440900006ceb30006436000c8
:104bb400074373001642980063ca7200aefe3700c2
:104bc400966080006302620080218000c7ff2f008e
:104bd40007006000040270008421880084218000a2
:104be4000480a1000490a10084218800e382620073
:104bf40094218000870362008582730095218800d8
:104c0400630363004832dd0096218000f5cf2f0056
:104c14000503630004037300962188003164a8002f
:104c24000002eb00cafe3700f5c3b3008543600001
:104c340025002000853bdd0054439000634363005e
:104c44000743730056429800c60bde004a0cdd0091
:104c54004603de00060374004834de002642980052
:104c6400ef4364003444900006cfb300064364006d
:104c74000743730036429800050bde00c633de009e
:104c8400f603b2008532dd00ffc3630014409000d8
:104c940006ceb30006436000074373001642980033
:104ca40063ca7200d44290000510a10055429800d6
:104cb4006f436100c443900005cfb30085c2630015
:104cc40086c27200454298000281fb00830078008e
:104cd4006072240098ef070004c12000000aeb0072
:104ce40064608000e20f52007cfd3400d3fe370084
:104cf400f5c3b3008543600025002000853bdd003b
:104d04005443900063436300074373005642980082
:104d1400c60bde004a0cdd004603de000603740009
:104d24004834de0026429800ef4364003444900087
:104d340006cfb3000643640007437300364298006d
:104d4400050bde00c633de00f603b2008532dd005b
:104d5400ffc363001440900006ceb3000643600016
:104d6400074373001642980063ca7200d44290004d
:104d74000510a100554298006f436100c4439000a0
:104d840005cfb30085c2630086c272004542980015
:104d94000281fb00830078006073240066ef070043
:104da40024c12000000aeb0064608000e20f52007e
:084db4009dfd34006afe37008a
:020000040000fa
:104dbc00ea874700889fbe008a9fbe008c9fbe007a
:104dcc008e1f7800a2100700cd0e07007512070089
:104ddc00a4002000c45488003c0c07008660a90085
:104dec009660a8004a130700531307009460a800ac
:104dfc00c4b1200003000900005aeb0045c6200096
:104e0c00804aeb000004eb00b855880098558800e8
:104e1c006022b80074558800855588007455800050
:104e2c008555800060021200e0821a006a2bb900de
:104e3c006a22b80085024300345588004555880025
:104e4c00a8558800cdb120004bb4200064854500e6
:104e5c00a9ad200002322000a1002000803e2000dd
:104e6c00581007006c0e0700140f0700b71207004c
:104e7c00804eeb00800deb0066b42000000beb00c5
:104e8c00000deb006022b8003456880045568800af
:104e9c00f45588000556880014568800255688005d
:104eac0054568800655688007856880088568800c5
:104ebc0094568800a5568800b8568800c8568800b5
:104ecc00804ceb00f4b79f0085bf9f003f13070099
:104edc003a110700000678007fb297008fba97004e
:104eec00e00f560026003200b85488000232200031
:104efc00a1002000803e200032100700460e070063
:104f0c00ee0e070091120700804eeb00800deb00b7
:104f1c0066b42000000beb00000deb006022b80023
:104f2c003456880045568800f4558800055688008c
:104f3c0014568800255688005456880065568800fb
:104f4c00785688008856880094568800a5568800a4
:104f5c00b8568800c8568800804ceb00f4b79f0008
:104f6c0085bf9f0019130700141107000006780075
:104f7c007fb297008fba9700e00f5600daff3a0025
:104f8c0068a92000008ceb00f4b79f0085bf9f0040
:104f9c00d31207002c5a88003c5a88004c5a8800bf
:104fac007fb297008fba9700345688004556880018
:104fbc00f45588000556880014568800255688003c
:104fcc0054568800655688007c5688008c5688009c
:104fdc0094568800a5568800bc568800cc5688008c
:104fec00a4ad20000c4a7800e4002000050020004d
:104ffc00d4b79f00e5b79f000c0278004300200057
:10500c0076815700000025001100200087ed070075
:10501c009760a8002fe89700d80807001c5a880052
:10502c00e5b820002cb420000c0278008043eb0083
:10503c0095cf1300fdff32009c43780061c36300e1
:10504c0003003a009443780062c36300f7ff320018
:10505c0096558000e00f5300f4ff32004657800055
:10506c0057578000e00f5300e08f5b00efff3200da
:10507c009c42780061c2620081003a0024b4200096
:10508c0014427800704262007d003a008b40a90007
:10509c009b40a9000d6f24004eaa2000004feb008e
:1050ac0046c620001644a1009c43780062c26300ef
:1050bc0082003a0024b4200014427800644262005a
:1050cc004b013a001c467800614266000300320036
:1050dc00004feb0044c620001444a00005af200094
:1050ec00154278007757800026002000809fbe0074
:1050fc00110009008603d800000378004f00be00a1
:10510c0076578800844a78000403fb0004322000a0
:10511c00050020000603e9000300330004024200ee
:10512c0085824a00fbff370094578800a5578800fa
:10513c007c1207008cab2000004eeb0064092000b1
:10514c00c4548800008ceb00160807000007eb0025
:10515c00adc5200099100700e00f50003c00320054
:10516c000042eb00e7b42000974f12007d003a009c
:10517c0004cab300044e780087a92000808beb0092
:10518c00e4012000b45488001d04a1008043eb000e
:10519c009ccf13000700320004cab30085ab20007b
:1051ac00954f1200030032009a1207003d120700bf
:1051bc0047110700d4558000840f5700e5ff3200db
:1051cc00de55800096ab20001642780005cab3006d
:1051dc009ccf1200d80032000043eb0085ab2000be
:1051ec00954f1300a1003a00e64f52000700320021
:1051fc00ea4f520005003200eb4f52000300320020
:10520c0005c5b300854f5200d2ff3a00044e78001a
:10521c0087a92000800beb00008ceb00843e200063
:10522c00e455880014c0b300e5b42000844a78002b
:10523c007c120700231207001212070066120700e7
:10524c00a20907005d100700e00f5000c4ff3a00f0
:10525c00c262ab00ccff32001d04a0008042eb0008
:10526c00e4b4200094cf120060003a00004eeb0032
:10527c0064092000c4548800008ceb00b5ff370093
:10528c00125a80004311de00614161000d6f240051
:10529c009d407800403782008180fb00da0c0700cb
:1052ac004eaa2000004feb0046c620001644a10079
:1052bc009c43780062c263007eff3200145a800067
:1052cc000420a100145a88009d4678000d81fb0033
:1052dc006611b900cf91de00000020001100200003
:1052ec00e8ed07004d12070005af200015427800cd
:1052fc007757800026002000809fbe001100090017
:10530c008603d800000378004f00be007657880053
:10531c00844a78000403fb000432200005002000be
:10532c000603e900030033000402420085824a00b0
:10533c00fbff370094578800a5578800f911070028
:10534c008cab2000004eeb0064092000c454880094
:10535c00008ceb00930707000007eb00adc52000a5
:10536c007cff3700b6110700d611070000120700aa
:10537c00ec1107000002eb00840d780065b42000ee
:10538c00840a7800040d78006033b8003656880023
:10539c0047568800f6558800075688001656880030
:1053ac002756880056568800675688007456880021
:1053bc008456880096568800a7568800b4568800f4
:1053cc00c4568800844c7800e6b42000044b780066
:1053dc0004cab300044e780087a92000808beb0030
:1053ec00e4012000b454880067ff3700f0b79f0039
:1053fc0093110700b3110700dd110700c911070055
:10540c007fb09700205a8800305a8800405a880094
:10541c006022b8003456880045568800f455880040
:10542c000556880014568800255688005456880066
:10543c0065568800705688008056880094568800ff
:10544c00a5568800b0568800c0568800804c78005d
:10545c00e6b42000004b7800004eeb0064092000fd
:10546c00c4548800008ceb003aff370067c0b300cf
:10547c0086ab200096cf130009003200a5c0b30004
:10548c0096cf120006003200b7c0b30096cf1300bf
:10549c000300320005c5b30096cf12002dff3a0071
:1054ac00e04f520032003200e94f5200300032001f
:1054bc00e64f520007003200ea4f5200050032005e
:1054cc00eb4f52000300320005c5b300854f52006c
:1054dc0020ff3a008002eb00850d780067b42000b5
:1054ec00850b7800050d78006033b80036568800bf
:1054fc0047568800f65588000756880016568800cf
:10550c0027568800565688006756880075568800be
:10551c008556880096568800a7568800b556880090
:10552c00c5568800854c7800853e2000e5558800de
:10553c00044e780007ff3700e94f520005ff3a0090
:10554c00671107009710070047c62000804beb003f
:10555c0084ab2000004aeb0064092000c45488008e
:10556c00008ceb00843e2000e4558800f9fe3700e7
:10557c0033110700531107007d1107006911070053
:10558c000002eb00840d780065b42000840a7800da
:10559c00040d78006033b8003656880047568800f2
:1055ac00f65588000756880016568800275688003e
:1055bc0056568800675688007456880084568800b2
:1055cc0096568800a7568800b4568800c4568800a2
:1055dc00844c7800e6b42000044b7800044e78002c
:1055ec0064092000c4548800008ceb00d9fe3700fd
:0855fc00b5110700b3fe3700f2
:020000040000fa
:105604003600f800809fbe00829fbe00849fbe00cb
:10561400869fbe00889fbe008a9fbe008c9fbe00ee
:105624000800fa008700a9004c208000fc03b200a7
:105634001d0020008c6edd00052180000d826200bb
:10564400be003200087824004466dd000c064400e5
:10565400cc449000ef846400e88f5400c10034000f
:10566400d4c520001444a0008200200082047800e5
:105674001c43780061426300be003a000682fb00ce
:105684004222de001c4590007f0565004655dd0082
:10569400040575000b002000e600460068805700f2
:1056a40025ed07008d86ea000d2188005c429000fc
:1056b40062426200d5003200d4c520001424a00048
:1056c4004c208000fc03b2001d0020008c6edd0025
:1056d400062180000d026300980032004466dd005c
:1056e4000c064400cc449000ef846400e88f54001e
:1056f400f8003c00090178009c42780061c2620015
:10570400c8003a000582fb004222de001c459000de
:105714007f0565004655dd00040575000b0020007b
:10572400e60046006880570003ed07008d86ea0016
:105734000d2188005c42900062426200df0032006a
:10574400d4c520001424a0004c208000fc03b20027
:105754001d0020008c6edd00052180000d8262009a
:10576400760032004466dd000c064400cc44900010
:10577400ef846400e88f540007013c0009017800bd
:105784001c43780061426300d7003a000682fb00a4
:105794004222de001c4590007f0565004655dd0071
:1057a400040575000b002000e600460068805700e1
:1057b400e1ec07008d86ea000d2188005c42900030
:1057c40062426200ee003200d4c520001424a0001e
:1057d4004c208000fc03b2001d0020008c6edd0014
:1057e400062180000d026300540032004466dd008f
:1057f4000c064400cc449000ef846400e88f54000d
:1058040016013c00090178009c42780061c26200e4
:10581400e6003a000582fb004222de001c459000af
:105824007f0565004655dd00040575000b0020006a
:10583400e600460068805700bfec07008d86ea004a
:105844000d2188005c42900062426200fd0032003b
:10585400d4c520001424a00044208000f403b20026
:105864001c0020000466dd00062180008c02630019
:10587400230132004422dd0004044400c8449000a3
:10588400ef846400e88f540018013c00090178009b
:105894009842780061c26200f500320058429000dc
:1058a4000482fb004222de000482fb00050020008b
:1058b40005f0a000a84390008783fb0038439000c4
:1058c4006f0363004833dd00070373000700200003
:1058d400463ddd00ca35de008b0575004635dd002a
:1058e4000a0572008b857200184378000682fb005b
:1058f4004222de00184390007f0363004633dd003c
:1059040004037300c232dd000002eb0004057500dd
:1059140085857500e60044006880570086ec070022
:105924000c86ea000c218800584290006242620012
:10593400de003200d4c520001424a0000080fa0048
:105944004f06be004f05be004f04be004f03be000d
:105954004f02be004f01be004f00be003600f900ea
:1059640000400600090178001c437800614263008e
:1059740042ff32005c4290000482fb004222de00bf
:105984000482fb000500200005f0a000ac43900059
:105994008783fb003c4390006f0363004833dd00c2
:1059a4000703730007002000463ddd00ca35de0012
:1059b4008b0575004635dd000a0572008b85720083
:1059c4009c4278000582fb004222de001c439000ca
:1059d4007f0363004633dd0004037300c232dd003d
:1059e4000002eb000405750085857500e60046009d
:1059f4006880570050ec07008d86ea000d2188006e
:105a04005c429000624262002bff3a00e88157003a
:105a1400094178000a00be005460800004000100bf
:105a240027ff37005c4290000482fb004222de0024
:105a34000482fb000500200005f0a000ac439000a8
:105a44008783fb003c4390006f0363004833dd0011
:105a54000703730007002000463ddd00ca35de0061
:105a64008b0575004635dd000a0572008b857200d2
:105a74001c4378000682fb004222de001c43900097
:105a84007f0363004633dd0004037300c232dd008c
:105a94000002eb000405750085857500e6004600ec
