:020000040802F0
:10000000F8760120AD040208B5040208B70402081E
:10001000B9040208BB040208BD0402080000000085
:10002000000000000000000000000000950302082E
:10003000C104020800000000350402089904020807
:10004000C7040208C7040208C7040208C70402085C
:10005000C7040208C7040208C7040208C70402084C
:10006000C7040208C7040208C7040208C70402083C
:10007000C7040208C7040208C7040208C70402082C
:10008000C7040208C7040208C70402088321020843
:10009000FD200208C70402087D210208C7040208E7
:1000A000492F0208992F0208712F0208C70402087D
:1000B000E12F0208053002082D300208C7040208AB
:1000C000C7040208C7040208C70402080D2C02086E
:1000D000132C0208C7040208C7040208C704020858
:1000E000C7040208C7040208C7040208CD3002088A
:1000F0001D310208F5300208C7040208C7040208CF
:10010000C7040208C704020855300208192C020867
:10011000C7040208C70402087D300208A53002089F
:10012000C7040208C7040208C7040208C70402087B
:10013000C7040208E5260208C70402080F220208C5
:1001400089210208C704020809220208C70402081C
:10015000C7040208C7040208C7040208C70402084B
:10016000C7040208C7040208C7040208C70402083B
:10017000C7040208C7040208C7040208C70402082B
:10018000C7040208C704020800F002F800F0B8F83B
:100190000AA090E8000C82448344AAF10107DA45E2
:1001A00001D100F0ADF8AFF2090EBAE80F0013F07C
:1001B000010F18BFFB1A43F00103184784CB02005C
:1001C000A4CB02000023002400250026103A28BFFB
:1001D00078C1FBD8520728BF30C148BF0B607047B9
:1001E0001FB526F010FF9DE8030001F083FD1FBD41
:1001F00010B510BD03B4FFF7FBFF03BC01F054FFC3
:1002000002020214DFB7F93D0000020800000400FA
:1002100000000020C0FF01000000000000000000FE
:100220000761454D53303067656E30340000000083
:1002300001000100010000004558540000000000CA
:100240004E6F7620323520323031352031353A311B
:10025000323A3131000000000000000000000000D0
:10026000000000000000000000000000000000008E
:10027000000000000000000000000000000000007E
:100280000A444FF0000C10F8013B13F0070408BFBC
:1002900010F8014B1D1108BF10F8015B641E05D05A
:1002A00010F8016B641E01F8016BF9D113F0080F0F
:1002B0001EBF10F8014BAD1C0C1B09D16D1E58BFA1
:1002C00001F801CBFAD505E014F8016B01F8016BD8
:1002D0006D1EF9D59142D6D3704703681B0A28BF1B
:1002E00041F08001642901F03182782901F0928285
:1002F000F82901F09D82732901F00B8600207047D8
:1003000001F077FE1146FFF76BFF1CF0F3FB01F0E5
:1003100095FE00000048704700200000004870472C
:1003200000200100401EFDD17047000080F30988C5
:100330007047EFF309807047684680F309880448E6
:100340000078C00714BF0220032080F31488704790
:1003500068090020DFF818C0EFF305831B0618BFFB
:100360006047EFF31483DB0708BF604700DF704787
:10037000A1ED0308DFF818C0EFF305831B0618BFD3
:100380006047EFF31483DB0708BF604700DF704767
:1003900019EE0308EFF30980816911F8021C99BB7B
:1003A00090E80F1010B5E047BDE81040EFF3098C5E
:1003B0008CE807001C4B93E80600914208BF704789
:1003C00081B11EF0100F06BF2CED108A0120002015
:1003D00081F838002CE9F00FC1F83CC00CB420F0D3
:1003E0000DF90CBC1A60D2F83CC0BCE8F00F92F8D2
:1003F000380000281ABFBCEC108A6FF0120E6FF0A4
:10040000020E8CF30988704710B5084A12689142B1
:1004100009D8074C54F8214090E80F10A047EFF39B
:10042000098C8CE80F0010BD30080020F82002086D
:10043000F820020810B51FF0DFFFBDE81040154B93
:1004400093E80600914208BF7047EFF3098C1EF055
:10045000100F06BF2CED108A0120002081F8380013
:100460002CE9F00FC1F83CC00CB420F0C7F80CBC6C
:100470001A60D2F83CC0BCE8F00F92F838000028AF
:100480001ABFBCEC108A6FF0120E6FF0020E8CF3E4
:10049000098870473008002010B520F0D3F8CCE769
:1004A00010B51DF031FA20F0CDF8C6E709488047B5
:1004B00009480047FEE7FEE7FEE7FEE7FEE7FEE746
:1004C000FEE7FEE7FEE7FEE704480549054A064B5E
:1004D00070470000E12E020889010208F83600206A
:1004E000F8760120F8560120F8560120F7B5144699
:1004F0006E46002914BF0125002588480078E8B120
:1005000000F07AFA2946304603F018F9C5B2012CFA
:100510000DD183480099834CC0F82610014620680D
:100520004022001D01F07CFA206800F03DFE00F042
:100530006DFA012D02BF002003B0F0BD4FF0FF3077
:1005400003B0F0BD38B56C460090002914BF0125FA
:1005500000257248007860B100F04EFA2946204626
:1005600003F0ECF8C4B200F051FA012C04BF0020F3
:1005700038BD4FF0FF3038BD2DE9F34767480D46D1
:10058000E94600784FF0FF37F0B1674E3088D8B1B8
:1005900000F032FA30880024002888BFDFF88C8110
:1005A0000FD900BFC4EBC40008EB40000422494649
:1005B0000A3001F009FA60B1601CC4B2308884428C
:1005C000F0D300F023FA11E002B04FF0FF30BDE8A5
:1005D000F087C4EBC40008EB4000041D00F016FADD
:1005E00000271DB120682860A088A88002B0384686
:1005F000BDE8F0872DE9F1434848E8464FF0FF3663
:100600000078E8B1484D2888D0B100F0F5F9288885
:100610000024002888BF454F0FD900BFC4EBC40099
:1006200007EB4000042241460A3001F0CDF958B1F1
:10063000601CC4B228888442F0D300F0E7F919E0C6
:100640004FF0FF30BDE8F883C4EBC40007EB400077
:10065000041D00F0DBF906223549204601F0B4F90B
:1006600058B106223349204601F0AEF9002818BFE0
:10067000002602D03046BDE8F8834FF0FF36F9E798
:10068000002070470020704710B5254CFF21204600
:1006900002F0A1FE28484FF4C1634FF0080C016935
:1006A000C4F80610828A6281A3814FF48073E381CB
:1006B000A4F810C04FF0060C84F812C04FF0040CE0
:1006C00084F813C0A382C4F8161062838069E061C5
:1006D00004F1200002F076FE0020C4F82600C4F8E1
:1006E0002A00C4F82E00C4F83200C4F836000D4ABF
:1006F000C4F83A00E08704F1400111602A220A8020
:10070000488010BD90F82010202984BF4FF0FF30A2
:10071000704710B500F0F3FC002010BD88070020E2
:100720004C16002080070020E6070020A8190020B2
:10073000749804087A980408D0160020B84A126FFA
:1007400002B11047FEE770B50C46B8B10546FFF799
:1007500097FF0646284600F091FC0644284600F024
:1007600029FA0644284600F06CFA0644284600F0B0
:1007700067FC3044002C18BF206070BDE120A84AFF
:10078000A8A1126F12B19047002070BDFEE710B50E
:10079000A34C606F002808BF10BD80470028AB49FC
:1007A000086018BF10BDE020226FA9A112B1BDE8FA
:1007B00010401047FEE770B5A44D416F81B1816FC5
:1007C000974C00291FBFC16F0029D0F88000002876
:1007D0000DD0606F002818D08047286080B114E0E9
:1007E00000218167C167C0F8801029600DE0226F89
:1007F000E320A7A11AB190474FF0FF3070BDFEE78C
:10080000226FE02092A112B19047002070BDFEE758
:1008100010B5D821824801F0E6F98C490020086023
:1008200010BD2DE9F0417E4C8846050007D02A6FA7
:100830002267287850B1E420A0A132B12EE0226FC7
:10084000E120ABA1002A29D1FEE7FEE7B1480078FC
:10085000012804D02846FFF755FF20B11AE0E02018
:10086000ADA1DAB9FEE7D8216D4801F0BCF9774FA8
:10087000002628463E6000F01EFC58B9284600F0CD
:100880009FF938B9284600F0E2F918B9284600F077
:10089000DDFB40B1AA49226FE3205AB190474FF0E7
:1008A000FF30BDE8F08141462846FFF7EBFE002807
:1008B00075D100E0FEE72846FFF7E2FE20F00300D6
:1008C00080444146284600F0DBFB002867D12846DB
:1008D00000F0D4FB20F0030080444146284600F09D
:1008E0006BF900285BD1284600F064F920F0030082
:1008F00080444146284600F0A6F900284FD12846FA
:1009000000F09FF920F0030000EB0801284600F0FA
:1009100099FB002843D1284600F092FBD8222946B3
:100920003F4801F004F93E4D2846FFF7ADFE002890
:1009300035D1686F60B1A96F00291FBFE96F002929
:10094000D5F88010002909D08047386068B111E0DF
:10095000AE67EE67C5F880603E600BE0226FE32073
:100960004BA10AB190471AE0FEE7226FE02038A1C0
:100970002AB19047284600F085FB80B900E0FEE7E9
:10098000284600F01BF950B9284600F05EF930B94E
:10099000284600F059FB002808BFBDE8F0814FF061
:1009A000FF30BDE8F08170B504000D4616D0FFF7AA
:1009B00067FE0646204600F061FB0644204600F034
:1009C000F9F80644204600F03CF90644204600F0C1
:1009D00037FB3044002D18BF286070BDE120104A5D
:1009E00010A1126F12B19047002070BDFEE718E70A
:1009F000002070470020704714480068002808BF96
:100A00007047074AD2F88010926F10470F4800686D
:100A1000002808BF70470249C96F0847006870473F
:100A2000D01600206970616C5F626173655F6D65EF
:100A30006D6F72795F67657473697A652829206EB6
:100A40006565647320612063666700008407002089
:100A50006970616C5F626173655F6869645F746827
:100A6000726561647361666574795F696E69742823
:100A7000293A2063616E6E6F7420616C6C6F6361E4
:100A8000746520746865206D7574657800000000D9
:100A90006970616C5F626173655F696E69746961D9
:100AA0006C6973652829206E65656473206F7361B6
:100AB0006C2066756E6374696F6E73006970616C2B
:100AC0005F626173655F696E697469616C697365A2
:100AD00028293A20756E737570706F727465642082
:100AE0007463702F697020737461636B0000000081
:100AF0006970616C5F626173655F696E6974696179
:100B00006C69736528293A206D697373696E672073
:100B100063666700880700206970616C5F626173BB
:100B2000655F696E697469616C69736528293A202B
:100B3000616C7265616479207374617274656400BC
:100B400020CC040831B524486C46007838B12348DD
:100B500090F82C0018B19DF80000EF2802D04FF05B
:100B6000FF3038BDFFF748FF20461BF015FB00287B
:100B700014BF00244FF0FF34FFF748FF204638BD74
:100B800031B515486C46007888B1144890F82C00AF
:100B900068B1FFF731FF20461BF026FB00280CBF91
:100BA0004FF0FF340024FFF731FF204638BD4FF0EF
:100BB000FF3038BD0020704700207047002070478C
:100BC00090F82D10062984BF4FF0FF30704710B504
:100BD00000F016FB002010BD88070020D016002072
:100BE000224810B5406848B12148017801290CD04D
:100BF000012101701BF066FD002010BD1DA1E12048
:100C0000FFF79CFD4FF0FF3010BD24A1E020FFF75F
:100C100095FD4FF0FF3010BD10B5FFF7EDFE1BF056
:100C20007DFFBDE81040FFF7F1BE10B5FFF7E4FE11
:100C300025F0A6FBBDE81040FFF7E8BE0B48406872
:100C400070470020704700207047002070470189DE
:100C5000B1F5C05F84BF4FF0FF30704710B5002181
:100C6000034A117000F024FB002010BDD0160020B4
:100C7000880700206970616C5F7379735F737461BA
:100C8000727428293A206D697373696E6720636FE7
:100C90006E66696775726174696F6E006970616C08
:100CA0005F7379735F737461727428293A2063618A
:100CB0006E6E6F7420737461727420616761696E07
:100CC0000000000008B1062801D900207047F0B5E7
:100CD00015460A46E64900EB400085B001EBC0002E
:100CE000A0F1180450F8080C0A9F1E4698B110464F
:100CF000FFF794FE0346E06820B1984204BF2089C4
:100D0000A84208D10396ADF808700095D4E904C054
:100D100002AA2146E04705B00020F0BD4107090EB8
:100D2000C0F3C00241EA0211C0F3001210B541EA5B
:100D3000C201C0F3401041EA8004CE480078002888
:100D400008BF10BDFFF758FECB4A0121204625F011
:100D500047FBC0B1C64900EB400201EBC20404F8F6
:100D6000180C002024F8160C44F8140C24F8100C6D
:100D700044F80C0C44F8080C44F8040CFFF746FE49
:100D8000A4F1180010BDFFF741FE002010BD70B5A2
:100D900004001CBF2078002821D0FFF72DFE6088BA
:100DA000002518B1207825F0FDFA6580207825F01F
:100DB00079FB06462078AE4900EB400001EBC0000D
:100DC00000F8185C2570658065602581E560256107
:100DD0006561FFF71BFE002E1CBF002070BD4FF0A9
:100DE000FF3070BD70B515460E4604001DBF20785B
:100DF0000028002D4FF0FF3008BF70BDFFF7FCFD4D
:100E0000608820B1207825F0CDFA002060809849D4
:100E1000002000BF00EB400201EBC2025288AA4250
:100E200010D0401CC0B20628F4D32078294625F003
:100E3000FBFA10F0FF0F05D065806660FFF7E6FD56
:100E4000002070BDFFF7E2FD4FF0FF3070BD2DE9CF
:100E5000F04790460F46040019BF207800284FF055
:100E6000FF30BDE8F087FFF7C7FD608850BB2078F2
:100E700000264546002818BF002D2DD0FFF7BCFDE9
:100E800060884FF0000920B1207825F08BFAA4F893
:100E900002907749002000BF00EB400201EBC20244
:100EA0005288AA4216D0401CC0B20628F4D320783B
:100EB000294625F0B9FA10F0FF0F0BD06580666067
:100EC000FFF7A4FDA4F80880E760FFF79FFD00206E
:100ED000BDE8F087FFF79AFDFFF798FD4FF0FF3070
:100EE000BDE8F08710B5040019BF207800284FF046
:100EF000FF3010BDFFF780FD00202081E060FFF78C
:100F000085FD002010BD2DE9FF4182B098460C46BA
:100F1000050004AF1CBF2878002828D06888002866
:100F200018BF002C23D0606800281CBF2088002830
:100F30001DD0FFF761FD208825F04AFA06001BD07E
:100F40002288616800F06CFD208800902878334684
:100F50004246394625F0BEFA00280CBF4FF0FF3458
:100F60000024FFF753FD06B02046BDE8F08106B02F
:100F70004FF0FF30BDE8F081FFF748FD06B04FF0BD
:100F8000FF30BDE8F0812DE9F04383B00C46050049
:100F90001CBF688800283CD0E86800281CBF28894E
:100FA000002836D0FFF728FDE86801902878B5F8CA
:100FB00008900DF104084FF0FF3600281CBF688828
:100FC000002820D0002C1FBF60680028208800283F
:100FD00019D0FFF711FD208825F0FAF9070010D08D
:100FE0002288616800F01CFD2088009028783B462C
:100FF0004A46414625F06EFA00280CBF4FF0FF36F6
:101000000026FFF703FDFFF701FD03B03046BDE802
:10101000F08303B04FF0FF30BDE8F083002812BF2B
:1010200000294FF0FF30704770B516460D46044654
:10103000FFF7E2FCC4E90456FFF7E8FC002070BDAE
:1010400000207047002070470020704710B504460C
:1010500090F83000062884BF4FF0FF3010BD90217B
:10106000034800F0C0FD204600F087F9002010BDC5
:10107000A817002088070020C50C02080020704730
:101080000020704710B5D0F88C1000291CBFD0F894
:101090009010002908D0D0F8941000291FBFD0F874
:1010A00098000028002010BD05A1E120FFF746FBB5
:1010B0004FF0FF3010BD10B500F093F8002010BDC8
:1010C0006970616C5F6574685F6869645F696E69A7
:1010D0007428293A206D697373696E672065746896
:1010E0002066756E6374696F6E730000A94890F88E
:1010F0002200012818BF7047002002F041BC10B543
:1011000004464FF4E071A44800F06DFDA34894F844
:101110002010C180A249626AB2FBF1F2028194F808
:1011200021200270A26AB2FBF1F14170002010BDD3
:101130009848D0F89C00002808BF70470047002955
:101140001CBF0020704716F0E1BA10B5954A84B074
:101150009069D2E90812CDE902128E4A0090907A85
:101160008DF8000090480190904890F803C0818865
:101170004FEA1C230B4381784FEA0C6C4CEA014C7C
:101180004478007843EA11414CEA042C41EA1461A6
:101190004CEA0000CDE90201D2F88C10684688477D
:1011A0007E49487104B010BD7A49D1F898100847BB
:1011B00010B5784CD4F890008047D4F88800002807
:1011C00008BF10BDBDE81040004710B5714CD4F801
:1011D0008400002818BF8047D4F89400BDE8104070
:1011E00000476E4902694A61808A0883002070477F
:1011F000684991F82C10012918BF70471DF0DEBC1A
:10120000654A0021664BC2F8C011C2F8C411C2F889
:10121000C811C2F8CC11C2F8D011C2F8D411C2F86A
:10122000D811C2F8DC11C2F8E01142685B49B3FB87
:10123000F2F290F82D00488192B24CF6CD40504326
:10124000800C887000207047062806D2584901EBB0
:101250004011F030C0B2FFF771BA56A1E020FFF79D
:101260006DBA10B51BF05EFA4A4C94F82C000128B8
:1012700008BF1BF069FA94F82F00012808BF1BF083
:101280008BFA94F82200012818BF10BD0020BDE899
:10129000104002F075BB10B51FF0B4FA3D4890F84D
:1012A0002C00012818BF10BDBDE810401FF002BB84
:1012B0002DE9F041384D00260446C5F8E461C5F833
:1012C000E861C5F8EC61C5F8F061C5F8F461C5F8EE
:1012D000F861C5F8FC61C5F80062C5F80462C5F89C
:1012E0000862C5F80C62C5F81062C5F81462C5F84A
:1012F00018624FF4C05105F50870C5F81C6200F083
:1013000072FC05F5C0572548C7F82862C7F82C625B
:10131000C681A169C5F8E411E169C5F8EC1105F5CC
:10132000F271C0220A73A8234B738E734FF0FE0C28
:1013300081F80FC00A744B748E7481F813C00A715F
:101340004B71184A8E7181F807C0D2E90012C7E9C3
:1013500088120121C17021890161114A6168B2FBC3
:10136000F1F181810020BDE8F0810A4991F82F1048
:10137000012918BF70471DF061BC10B50446482113
:10138000124800F030FC054894F83010017100203C
:1013900010BD0000D0160020A8190020E007002092
:1013A00040420F001899040820990408F40700200F
:1013B00040990408756E6B6E6F776E207379737445
:1013C000656D206572726F7200000000D8330020D6
:1013D000004870479836002070B5A0FB0140B4F17A
:1013E000805170F1000024BF002070BD204600F045
:1013F000F5FC05001CBF214600F0D3FB284670BD5C
:1014000070B516460D46041F002808BF70BD002E9B
:101410001CBF05F10C00AFF300802B465868002874
:1014200018BFA04238BF0346F8D31968CA18A242B1
:1014300018BF5C6003D122681C4611441960216802
:101440000A19824218BF606004D142686260006875
:1014500008442060002E1CBF05F10C00AFF3008093
:1014600070BD10B5044600F028FC01682046BDE8B8
:1014700010400122C4E70B3020F0070070472DE92F
:10148000F0410F460546041F00F017FC0668F7B14F
:10149000384615B3FFF7EFFFB84205463CBF0020C2
:1014A000BDE8F08106F10C00AFF300802268AA428B
:1014B00038BF314615D3511B082931D3601900229A
:1014C00040F8041B31462560FFF79AFF28E02846C4
:1014D000FFF7C7FF0020BDE8F081BDE8F04100F054
:1014E0007DBC4868002818BFA04238BF0146F8D329
:1014F000131983421BD103681A44954217D8531B12
:10150000082B0AD3436862195360236800681844A3
:10151000401B106025604A6002E02260406848601D
:1015200006F10C00AFF30080201DBDE8F081002221
:101530003146281F00F011FC05000AD02068211D4B
:10154000021F284600F0F3FA00223146201DFFF763
:1015500057FF06F10C00AFF300802846BDE8F0818C
:1015600053EA020C00F069802DE9F04B4FF00006C1
:10157000002B1FBFB3FA83F503FA05F424FA05F62E
:101580005E4012BF1643B2FA82F502FA05F4C5F1C5
:1015900020051EBF22FA05FC44EA0C04203556EA59
:1015A000044C4FEA144418BF641C4FF000084FF07D
:1015B0000009904271EB030C39D3002919BFB1FA2D
:1015C00081F701FA07F6B0FA80F700FA07F6C7F1DB
:1015D00020071EBF20FA07FC46EA0C062037B6FBA0
:1015E000F4FCA7EB0507103F07F01F0BCBF120061B
:1015F0000CFA0BFB2CFA06F644BFB3460026202F4C
:10160000A4BF5E464FF0000B5BEA060C08BF4FF02C
:10161000010B19EB0B09ABFB027C48EB0608C01B66
:1016200006FB02CC0BFB03CC71EB0C01C1E70B46B4
:10163000024641464846BDE8F08B13B54FF0000026
:101640004FF00001AFF30080BDE81C407047B2F1DD
:1016500020030AD5C2F1200301FA02F120FA03F3B4
:1016600000FA02F041EA0301704700FA03F14FF07B
:10167000000070470FB47CB50C0009AA009001D09F
:101680002044401E084B7B4469460190089800F0B6
:101690000EFC05461CB10020694600F01BFC2846E4
:1016A0007CBC5DF814FB00005508000070B50446D2
:1016B00085690068C10601D5302600E02026C007F4
:1016C00007D070BDD4E9012130469047206A401C04
:1016D00020626D1EF6D570BD70B504468569007830
:1016E000C00707D170BDD4E9012120209047206AAE
:1016F000401C20626D1EF6D570BD70B50C460546C7
:10170000012A05D02878800600D5EA69002302E086
:10171000012305E05B1C934202D2E05C0028F9D172
:10172000A869E618C01AA861286A184428622846E1
:10173000FFF7BCFF04E0D5E9012114F8010B904745
:10174000B442F8D32846FFF7C7FF70BD2DE9F0413A
:101750000646002410687529314616A510D0AFF34F
:101760000080002802DA404213A507E031688A07AA
:1017700001D512A502E0490704D511A5012401E015
:10178000AFF3008000210A2206F1240709E0B0FB34
:10179000F2FCB0FBF2F302FB1C0030307854184628
:1017A000491C0028F3D123462A463046BDE8F041C3
:1017B00000F01EBB000000002D0000002B00000008
:1017C00020000000F0B40D460188090502D51B4C2D
:1017D0007C4402E0194C7C440E34002100F12406C4
:1017E00008E002F00F071209E75D42EA03721B09E5
:1017F0007754491C52EA0307F3D1224604780023A8
:10180000240704D5702D02D009B102231132F0BC97
:1018100000F0EEBA70B504460D4621461068AFF3ED
:101820000080024629462046BDE870400023C9E7F3
:10183000D21D22F00703D3E90023C3E72688020064
:101840002DE9F05F894604464FF0000ADFF874B1D5
:10185000FB44C0F820A02046E1688847002874D0E7
:10186000252806D0D4E901219047206A401C206237
:10187000F1E700265F462046E168884720280546B4
:1018800007DB312D05D2781910F8200C08B106437A
:10189000F1E7B00701D526F00406C4F81CA0002724
:1018A000C4F818A02A2D09D0284601F0C8FD38B385
:1018B00004EB8708303DC8F8185019E059F8041BAC
:1018C000204604EB87029161E1688847012F0546B5
:1018D00018D1E069002820DA26F020061DE0D8F8AB
:1018E000180000EB800005EB40003038C8F8180005
:1018F0002046E1688847054601F0A1FD0028EED1A9
:10190000012F0AD02E2D08D12046E16888477F1C80
:101910000546022F46F02006C4DBA069002803DA42
:10192000404246F00106A061F00701D026F0100603
:101930006C2D0BD0682D09D04C2D39D06A2D35D0A7
:10194000742D35D07A2D33D016E038E0E1682F467B
:1019500020468847B842054609D16C2F26D04FF45F
:101960008060E168064320468847054604E06C2F06
:101970001AD04FF4807006430DB3A5F14100192829
:1019800002D8203546F400664A462946204626609D
:101990004E46FEF7A2FC80B101280BD0F61D26F0C2
:1019A000070000F1080956E74020E4E78020D8E767
:1019B0000020D6E706F104094DE7284652E7206AE1
:1019C000BDE8F09FCE87020040EA010310B59B07F7
:1019D0000FD1042A0DD310C808C9121F9C42F8D099
:1019E00020BA19BA884201D9012010BD4FF0FF304A
:1019F00010BD1AB1D30703D0521C07E0002010BD60
:101A000010F8013B11F8014B1B1B07D110F8013BEB
:101A100011F8014B1B1B01D1921EF1D1184610BDCC
:101A2000032A40F2308010F0030C00F0158011F80A
:101A3000013BBCF1020F624498BF11F801CB00F8E2
:101A4000013B38BF11F8013BA2F1040298BF00F836
:101A500001CB38BF00F8013B11F0030300F06780B1
:101A6000083AC0F0088051F8043B083A51F804CB1A
:101A7000A0E80810F5E7121D5CBF51F8043B40F8E0
:101A8000043BAFF30080D20724BF11F8013B11F8EB
:101A900001CB48BF11F8012B24BF00F8013B00F82F
:101AA00001CB48BF00F8012B7047431A28BF9A4268
:101AB0007FF6B6AF032A1044114440F2268010F09E
:101AC000030F1EBF11F8013D521E00F8013D10F03A
:101AD000030F7FF4F6AF11F0030300F03182083AF0
:101AE000C0F00B8051F8043D083A51F804CD40F89D
:101AF000043D40F804CDFFF7F3BF121D5CBF51F861
:101B0000043D40F8043DAFF30080D20724BF11F834
:101B1000013D11F801CD48BF11F8012C24BF00F898
:101B2000013D00F801CD48BF00F8012C704710B509
:101B3000203AC0F00B80B1E81850203AA0E81850C5
:101B4000B1E81850A0E81850BFF4F5AF5FEA027C86
:101B500024BFB1E81850A0E8185044BF18C918C0F5
:101B6000BDE810405FEA827C24BF51F8043B40F896
:101B7000043B08BF7047D20728BF31F8023B48BF7B
:101B800011F8012B28BF20F8023B48BF00F8012BB9
:101B9000704702F0FF0343EA032242EA024200F0E8
:101BA00002B84FF000020429C0F0128010F0030CBC
:101BB00000F01B80CCF1040CBCF1020F18BF00F840
:101BC000012BA8BF20F8022BA1EB0C0100F00DB8EF
:101BD0005FEAC17C24BF00F8012B00F8012B48BF4D
:101BE00000F8012B70474FF0000200B513469446F1
:101BF0009646203922BFA0E80C50A0E80C50B1F165
:101C00002001BFF4F7AF090728BFA0E80C5048BF78
:101C10000CC05DF804EB890028BF40F8042B08BF16
:101C2000704748BF20F8022B11F0804F18BF00F812
:101C3000012B70474FF0013C50F8042B51F8043B46
:101C40009A4221D1A2EB0C03934313EACC1317D190
:101C500050F8042B51F8043B9A4215D1A2EB0C0327
:101C6000934313EACC130BD150F8042B51F8043BE7
:101C70009A4209D1A2EB0C03934313EACC13DBD0B5
:101C80004FF00000704700BFD01A01BAB1FA81F1DD
:101C900001F0180122FA01F0CB40C1F12001DBB2C2
:101CA000C0B2C01A2CFA01F3D11A914311EAC31140
:101CB000E6D1704770477047704710B5FFF788FB53
:101CC000083010BD704770477047704738B50446FC
:101CD0000A4600206946AFF30080002808BF38BDDF
:101CE00002460099204600F05EF9012038BD01202F
:101CF00000F078B9F8B5AFF30080054600200C4637
:101D0000102000BF0646A819A0420DD932466946E8
:101D10000020AFF30080070008BF00F063F90098CF
:101D2000A04218BF0546C419FFF7C7FF0560074664
:101D3000F01D20F007004619284600F02BF9B442A8
:101D400008BFF8BDA21B31463868BDE8F84000F076
:101D50002AB90B3020F0070070472DE9F0411746F3
:101D60000E460446FFF7F5FFA042054633D9002F83
:101D70001CBF06F10C00AFF3008030467468F4B16C
:101D80002168A94217D305F1080291423CBF61685E
:101D9000416007D3626861194A602268521B0A6079
:101DA00041602560002F1CBF06F10C00AFF30080DE
:101DB000201DBDE8F08120466468002CE0D1294652
:101DC0003046FFF783FF0028D7D1002F1CBF06F154
:101DD0000C00AFF300800020BDE8F08110B5044690
:101DE000FFF76BFF01682046BDE810400122B4E711
:101DF0002DE9F0470D4699469246044600F1240825
:101E00000168880604D5E06921F01001216000E036
:101E10000120A84201DD471B00E00027A1697A19D3
:101E200002EB0900081AA0612078C00602D42046FF
:101E3000FFF73CFC002608E0D4E901211AF806006F
:101E40009047206A401C761C20624E45F4DB2078C7
:101E5000C0060AD52046FFF729FC06E0D4E9012197
:101E600030209047206A401C2062381EA7F10107ED
:101E7000F4DC07E0D4E9012118F805009047206A56
:101E8000401C2062281EA5F10105F3DC2046FFF767
:101E900023FC2078000602D50220BDE8F08701204F
:101EA000FBE7000001694A1C02610878704700B531
:101EB0008FB0CDE901310021059105497944CDE983
:101EC000031011466846FFF7BBFC0FB000BD0000D1
:101ED000E5FFFFFF0A6802F8010B0A607047D1E9CD
:101EE00000239A4202D2531C0B601070704710B549
:101EF000436913B1AFF3008001E0FFF7FEFB01205F
:101F000010BD127800F124010A7000224A700122EB
:101F1000EDE711684FF0FF32E9E7431A28BF9A4214
:101F20007FF605AE104410F0030F11441EBF11F8E8
:101F3000013D521E00F8013D10F0030F7FF4F6AF93
:101F4000103AC0F00A8010B531E91850103A20E973
:101F50001850BFF4F9AFBDE81040530724BF31E972
:101F6000081020E9081044BF51F8043D40F8043D32
:101F700012F0030F08BF7047D20728BF31F8023DA7
:101F800048BF11F8012C28BF20F8023D48BF00F8D7
:101F9000012C704700210160C0E901100C3001F0F4
:101FA00055BA1020704730B404468C464368002B65
:101FB00018BF634538BF1846F8D303681844604516
:101FC00007D0C81C20F0070000F1040CACEB0100A6
:101FD000121A2146CCF8002030BC00220CF104007B
:101FE000FFF70EBA10B500F037F8BDE8104000F06A
:101FF0002EB87546FFF7ECF9AE4605006946534624
:1020000020F00700854618B020B5FEF75DFABDE860
:1020100020404FF000064FF000074FF000084FF04F
:10202000000B21F00701AC46ACE8C009ACE8C009E0
:10203000ACE8C009ACE8C0098D46704710B504464D
:10204000AFF300802046BDE81040FEF7D3B800286B
:1020500001D000F029B8704710B5012805D0002143
:1020600003A000F028F8012010BD09A1F8E7000046
:1020700053494752544D454D3A204F7574206F6671
:102080002068656170206D656D6F727900000000D9
:102090003A2048656170206D656D6F727920636FBD
:1020A000727275707465640001491820ABBEFEE75A
:1020B00026000200704770B505460C460A2000E075
:1020C0006D1C00F011F835B128780028F8D102E035
:1020D000641C00F009F814B120780028F8D1BDE89C
:1020E00070400A20AFF3008008B569468DF8000003
:1020F0000320ABBE08BD000000000000F0B589B0B1
:10210000002600960196029603961A481A4D4468D6
:10211000E868A76A10F0100F1CBF304621F0CAFE15
:10212000384618F0F0FD012808D1384618F0BEFEF8
:10213000012084F82E00304621F0BCFE284604AA77
:10214000002100F0C8F9049800909DF81A008DF85D
:102150000600DDF81B000290DDF81F0003906946C1
:10216000384618F0DAFE616800291CBFA06888476D
:1021700009B0F0BD2C35002000640040002021F0A3
:1021800099BE002021F0D2BE70B58AB00120002196
:10219000009101910291039119491A4D8C68E968E7
:1021A000A66A11F0100F18BF21F084FE304618F017
:1021B000AAFD012807D1304618F078FE012084F8E6
:1021C0002E0021F077FE284604AA002100F083F9B2
:1021D000049800909DF81A008DF80600DDF81B00A9
:1021E0000290DDF81F0003906946304618F095FE16
:1021F000616800291CBFA06888470AB070BD000054
:102200002C35002000680040012021F053BE012041
:1022100021F08CBE10B4082304224FF0100CB1F54D
:10222000007F40D021DC202902BF036110BC704731
:1022300010DC012901BF1D49816010BC70470429D1
:1022400002BFC36010BC7047082908BFC0F80CC0AB
:1022500010BC7047402902BFC0F810C010BC7047C6
:10226000B1F5807F1FD010BC70470024B1F5004F3E
:1022700008D00BDCB1F5806F15D0B1F5006F1CBF35
:1022800010BC70478461426010BC7047B1F5803F5C
:1022900002BF436010BC7047B1F5003F08BFC0F8F3
:1022A00004C010BC7047426010BC704701010100BF
:1022B000A0F1804110B5B1F5C8414FF0010109D03E
:1022C000880600F029FCBDE8104000214FF0806036
:1022D00000F022BC4FF0007000F01EFCBDE8104082
:1022E00000214FF0007000F017BC000030B4817A7C
:1022F000354B012202FA01F11A6842F001021A601C
:10230000DFF8C8C0DCF800208A43CCF80020047B4A
:102310002F4AD4B914688C4314604488C58844EAB1
:102320000544857AED0005F1804505F5C045C5F801
:1023300040460488858844EA0544857AED0005F125
:10234000804505F5C045C5F84446047B012C18D1ED
:1023500014680C431460847A0268E40004F1804439
:1023600004F5C0444FEA3242C4F84026847A4268F9
:10237000E40004F1804404F5C0444FEA3242C4F85A
:102380004426C47A134A002C14680CBF8C430C43B7
:1023900014600489104A14B914688C4314600489C9
:1023A000012C02D114680C431460407B012804D135
:1023B000DCF800000843CCF80000186820F00100A9
:1023C000186030BC70470000006600401C6600408A
:1023D0000C6600400466004014660040002A426912
:1023E00014BF114322EA01014161704702680023D2
:1023F00022F002020260026842F0010202604FF61F
:10240000FF7200BFD0F804C01CF0010F03D193424B
:1024100018BF5B1CF6D1436813F0010F59D08B79BC
:10242000012B03680CBF43F0800323F0800303609B
:10243000CB79012B03680CBF43F0400323F040032A
:1024400003600B7A012B03680CBF43F0200323F0D9
:10245000200303604B7A012B03680CBF43F0100389
:1024600023F0100303608B7A012B03680CBF43F049
:10247000080323F008030360CB7A012B03680CBF29
:1024800043F0040323F0040303608B7891F803C046
:102490009B0743EA0C6391F804C043EA0C4391F8AC
:1024A00005C0098843EA0C53491E1943C1610168FC
:1024B00021F0010101600021436813F0010F1CBFEE
:1024C0009142491CF8D1406810F0010F04BF01206F
:1024D00070470020704700EB0113D3F8B0C11CF027
:1024E000040C82F808C0D3F8B0C107BF4FEA5C5CA7
:1024F000C2F800C04FEADC0CC2F804C0D3F8B0C187
:102500000CF0020C82F809C0D3F8B4C10CF00F0C27
:1025100082F80AC0D3F8B4C14FEA1C2C82F813C069
:10252000D3F8B8C182F80BC0D3F8B8C14FEA1C2C5D
:1025300082F80CC0D3F8B8C14FEA1C4C82F80DC029
:10254000D3F8B8C14FEA1C6C82F80EC0D3F8BCC1F6
:1025500082F80FC0D3F8BCC14FEA1C2C82F810C01F
:10256000D3F8BCC14FEA1C4C82F811C0D3F8BC317F
:102570001B0E937421B1016941F020010161704784
:10258000C16841F02001C1607047000009490A6834
:1025900042F001020A600A6822F4877222F478523B
:1025A0000A600A6842EA00200860086820F001001A
:1025B000086070470066004000218171C17101729E
:1025C00041728172C1728170C17003210171022157
:1025D000417101210180704710B4024600209368C8
:1025E00013F0806F3FD000BF02EB0012D2F88031B1
:1025F00003F00103C2F880310B7A002B42D0D2F8ED
:1026000080C14C684CEA030391F809C04CEAC40C41
:1026100043EA0C03C2F880318B7A03F00F038B720C
:10262000D2F8843123F00F03C2F88431D2F8843118
:1026300091F80AC043EA0C03C2F88431CB7AD1F88E
:102640000CC043EA0C23C2F88831CB7B096943EA0A
:102650000121C2F88C11D2F8801141F00101C2F8B9
:10266000801110BC7047906810F0006F18BF0120F7
:10267000BAD1906810F0805F14BF02200420B3D15B
:1026800010BC7047D2F8803191F809C043EA0C03BE
:10269000B1F800C043EA4C53BCE700B5002200F09B
:1026A00007F8C04380B2010241EA102080B200BDA9
:1026B00005E000BF30F8023B891E5BBA1A440129CD
:1026C000F8DC11B1007802EB002290B200EB12406E
:1026D00000EB104080B27047084400EB104080B21D
:1026E000704700002DE9F04F42484FF0000B93B0C7
:1026F00046685F4649F21A08357C4FF4407A4FF03D
:102700000049706900EB05100168C1F30D410C1F11
:10271000016811EA080F18BF012732D100683AEAB0
:10272000000018BF02272CD13348001988BF0327A7
:1027300027D844F0004017F0DDFE44F0004100903F
:10274000002808BF04271CD00820726900EB051080
:10275000E31C105820F003020098001D9C0805D0CF
:1027600052F8043B40F8043B641EF9D12348026848
:1027700012B10098001D9047009818F039F94FF0F9
:10278000010B706900EB0510C0F8009077B1022FC3
:1027900008BF4FF0FF343B4619A2402102A8009425
:1027A000FEF768FF02A9F02019F042FAF07A6D1CDA
:1027B000854208BF00253574706900EB051000687C
:1027C00010F0004F9DD0194C6069194D10F0800F2A
:1027D00006D065610020A06016A1F02019F028FA4B
:1027E0006561BBF1000F18BF17F056FE13B0BDE8CE
:1027F000F08F00005C08002016FAFFFF5808002048
:102800004554485F49525148616E646C657228298D
:102810003A206572726F7220256420666F7220669E
:1028200072616D655B25645D0000000000900240F0
:10283000C08001004554485F49525148616E646C44
:10284000657228293A206572726F72203500000087
:102850002DE9F001002201255FF00306D1F800C048
:1028600005FA02F30CEA030C9C4533D107684FEAE2
:10287000420C06FA0CF4A74307600F79D0F80080E9
:1028800007FA0CF747EA080707600F79012F18BF0E
:10289000022F14D18768A74387604F79D0F808804A
:1028A00007FA0CF747EA08078760476827EA030337
:1028B000436043688F799740BFB23B434360C3682E
:1028C000A343C360CB7903FA0CF3D0F80CC043EAFE
:1028D0000C03C360521C102AC0D3BDE8F00170473E
:1028E0004B07DB0E9A40C90800EB8100016A4FF0EC
:1028F0000F0C0CFA03F399430162016A1143016260
:1029000070470246002012690A4218BF0120704732
:102910000246002052690A4218BF012070474269EE
:10292000514041617047002A14BF018341837047C1
:102930000029018814BF41F4806121F48061018085
:102940007047838A0022008B43EA004020F07F40DA
:1029500031EA000008BF012210467047C943818256
:1029600070470029018814BF41F0010121F00101E5
:10297000018070470029018814BF41F4807121F45F
:102980008071018070470029018814BF41F40071F3
:1029900021F400710180704782B00246002000924D
:1029A0000A0F21F07F41019208BF090C009A14BF61
:1029B00014321832009212680A4218BF012002B085
:1029C0007047818A008B41EA004020F07F407047C9
:1029D00070B50446808884B00D4620F03F066846F6
:1029E00000F0BEF829490298B0FBF1F189B246EA3D
:1029F0000102A280228822F001022280244B2A6850
:102A00009A421DD85200B0FBF2F080B2042838BFC1
:102A10000420491C2184A083208840F001002080EC
:102A20002088A9886A8920F00A0020F48060114378
:102A300008432080A88929890843208104B070BDFB
:102A4000EB88A3F53F4CBCF1FF0C19D002EBC2039D
:102A500003EB0212B0FBF2F080B240F480400205BA
:102A6000120D08BF40F0010040F400404FF4967290
:102A700051434FF47A72B1FBF2F1491C2184CAE749
:102A800002EB4202B0FBF2F080B2E8E740420F00F6
:102A9000A0860100002A14BF41F0010101F0FE01EF
:102AA0000182704701827047034940F0FD7040F099
:102AB00080600860704700000CED00E021F07F01AD
:102AC00021F06041084301490860704708ED00E0CB
:102AD000044A0029116814BF084321EA000010606D
:102AE0007047000030380240044A0029116814BFC2
:102AF000084321EA000010607047000010380240CF
:102B0000044A0029116814BF084321EA000010603C
:102B10007047000040380240044A0029116814BF81
:102B2000084321EA0000106070470000203802408E
:102B3000044A0029116814BF084321EA000010600C
:102B40007047000044380240044A0029116814BF4D
:102B5000084321EA0000106070470000243802405A
:102B6000254A30B41168254B11F00C0106D0244CD5
:102B7000042908BF046002D008291ED00360116830
:102B80000F2303EA11111F4B595CD0F800C02CFA37
:102B900001F14160D2F800C0072404EA9C2C13F82C
:102BA0000CC021FA0CFCC0F808C0126804EA5232CA
:102BB0009A5CD140C16030BC70471349D1F800C065
:102BC000CCF38055D1F800C0002D0CF03F0C14BFA1
:102BD000B4FBFCF3B3FBFCF3D1F800C00968CCF301
:102BE000881C03FB0CF3C1F30141491C4900B3FBF2
:102BF000F1F10160C3E70000083802400024F4004E
:102C000080F0FA027409002004380240002021F00C
:102C1000F5B8012021F0F2B8022021F0EFB8002928
:102C2000018814BF41F0400121F04001018070474C
:102C300010B5A0F18041B1F598311AD011F5784165
:102C400022D0B1F580612AD0B1F5784132D0B1F50A
:102C5000E0513AD0B1F5806118BF10BD012148059F
:102C6000FFF772FFBDE8104000214FF40010FFF79E
:102C70006BBF01210803FFF767FFBDE8104000218B
:102C80004FF48050FFF760BF01218803FFF744FF36
:102C9000BDE8104000214FF48040FFF73DBF012107
:102CA000C803FFF739FFBDE8104000214FF4004092
:102CB000FFF732BF01214803FFF746FFBDE8104090
:102CC00000214FF40050FFF73FBF01210805FFF737
:102CD0003BFFBDE8104000214FF48010FFF734BFE8
:102CE0000246002012890A4218BF012070470909D4
:102CF000012303FA01F1002A828889B214BF11432B
:102D000022EA010181807047808970478181704784
:102D100010B402880B88B1F802C0CC8843EA0C03D7
:102D2000B1F804C002F441524CEA040C43EA0C032B
:102D3000B1F808C043EA0C03B1F80AC043EA0C0337
:102D4000B1F80CC043EA0C03B1F80EC043EA0C031F
:102D50001A430280828B22F400628283098A0182F4
:102D600010BC70470021018041808180C1800181B9
:102D700041818181C1810721018270470149C1F8E8
:102D8000DC0070470000274282B0002229490192EE
:102D90000092086840F480200860086840F48030A1
:102DA0000860086800F4003000900198401C019011
:102DB000009818B90198B0F5A04FF2D1086810F446
:102DC000003F02BF009202B07047012000901A48F5
:102DD000026842F0805202601848026842F44042A1
:102DE0000260174802680260026842F40042026012
:102DF000026842F4A0520260031F124A1A600A6875
:102E000042F080720A600A6812F0007FFBD00E4A1E
:102E100040F205711160016821F003010160016851
:102E200041F002010160016801F00C010829FAD1AA
:102E300002B0704700380240403802400070004045
:102E40000838024032544007003C0240010241EA87
:102E5000102080B270470000DFF86CC030B4DCF89E
:102E600000001A4B10F00C01194806D0194C042927
:102E700008BF046002D008290CD00360DCF8001001
:102E8000154AC1F30311515C026822FA01F1016095
:102E900030BC704711490A68C2F380550A68002D9A
:102EA00002F03F0214BFB4FBF2F2B3FBF2F20B6884
:102EB0000968C3F388135A43C1F30141491C49000F
:102EC000B2FBF1F10160D9E7083802400024F400B8
:102ED000B407002080F0FA02889804080438024001
:102EE000134810B5016841F4700101601148016890
:102EF00041F001010160104A00211160026822F4D2
:102F0000102222F080720260031D0C4A1A600268CF
:102F100022F4802202600A48016018F0E1FEFFF707
:102F200033FF08494FF000600860FFF795FF10BDC0
:102F300088ED00E0003802400838024010300024DC
:102F40000C38024008ED00E010B5084C0121204685
:102F500000F0D8F9012818BF10BD0121204600F06B
:102F600004F9BDE81040082021F0B4B90040014048
:102F700010B5084C0121204600F0C4F9012818BF03
:102F800010BD0121204600F0F0F8BDE810400A20F5
:102F900021F0A0B90048014010B50F4C0121204696
:102FA00000F0B0F9012806D10121204600F0DDF83B
:102FB000002021F08FF9094C0121204600F0A2F9F0
:102FC000012818BF10BD0121204600F0CEF8BDE851
:102FD0001040092021F07EB900000140004401406A
:102FE00010B50121880700F08DF9012818BF10BD28
:102FF0000121880700F0B9F8BDE81040012021F058
:1030000069B9000010B5084C0121204600F07AF99A
:10301000012818BF10BD0121204600F0A6F8BDE828
:103020001040022021F056B90004004010B5084CB1
:103030000121204600F066F9012818BF10BD0121CA
:10304000204600F092F8BDE81040032021F042B97C
:103050000008004010B5084C0121204600F052F94C
:10306000012818BF10BD0121204600F07EF8BDE800
:103070001040042021F02EB9000C004010B5084C7F
:103080000121204600F03EF9012818BF10BD0121A2
:10309000204600F06AF8BDE81040052021F01AB97A
:1030A0000010004010B5084C0121204600F02AF91C
:1030B000012818BF10BD0121204600F056F8BDE8D8
:1030C0001040062021F006B90014004010B5084C4D
:1030D0000121204600F016F9012818BF10BD01217A
:1030E000204600F042F8BDE810400B2021F0F2B875
:1030F0000018004010B5084C0121204600F002F9EC
:10310000012818BF10BD0121204600F02EF8BDE8AF
:1031100010400D2021F0DEB80020004010B50F4C0B
:103120000121204600F0EEF8012806D101212046B9
:1031300000F01BF8072021F0CDF8094C01212046B2
:1031400000F0E0F8012818BF10BD0121204600F072
:103150000CF8BDE810400C2021F0BCB80004014080
:10316000001C0040C94301827047C9430182704777
:103170000029018814BF41F0010121F00101018003
:10318000704710B5A0F18041B1F5803132D0B0F177
:10319000804F43D011F57C4136D0B1F5806147D0E6
:1031A000B1F580614ED0B1F5806155D0B1F5806147
:1031B0005CD0B1F5704163D0B1F570516AD0B1F512
:1031C000806172D0B1F580617AD011F598317DD0EF
:1031D000B1F580617BD0B1F5806118BF10BD0121D0
:1031E0000802FFF799FCBDE8104000214FF4807001
:1031F000FFF792BC01210846FFF7A6FC0021BDE8BD
:1032000010400120FFF7A0BC01210220FFF784FC41
:103210000021BDE810400220FFF77EBC01210846D6
:10322000FFF77AFC0021BDE810400120FFF774BCD5
:1032300001210420FFF770FC0021BDE810400420AC
:10324000FFF76ABC01210820FFF766FC0021BDE8FA
:1032500010400820FFF760BC01211020FFF75CFC44
:103260000021BDE810401020FFF756BC01212020AE
:10327000FFF752FC0021BDE810402020FFF74CBCB6
:1032800001210220FFF760FC0021BDE81040022070
:10329000FFF75ABC01210804FFF756FCBDE81040B7
:1032A00000214FF48030FFF74FBC01214804FFF7A5
:1032B0004BFCBDE8104000214FF40030FFF744BC48
:1032C00001218804FFF740FC002101E006E00FE047
:1032D000BDE810404FF48020FFF736BC01214020AC
:1032E000FFF71AFC0021BDE810404020FFF714BC96
:1032F00001218020FFF710FC0021BDE81040802054
:10330000FFF70ABC02460020128A0A4218BF0120B9
:103310007047002A828914BF114322EA010181818A
:10332000704701858282704710B402881C4BDFF819
:1033300074C0984218BF604511D0B0F1804F1CBFD7
:10334000A0F18044B4F5806409D0A0F18044B4F5C4
:1033500000641CBFA0F18044B4F5406403D14C88E4
:1033600022F070022243A0F18044B4F580541CBFC7
:10337000A0F18044B4F5A05403D00C8922F440722B
:10338000224302804A68C2620A880285984212BFBC
:103390006045897A01860121818210BC7047000056
:1033A00000000140000401404FF0FF314160002166
:1033B000018001814180817270470021016041607C
:1033C0000181704700210160818070470A680260B6
:1033D0000B7903717047C9B241EA012141EA014109
:1033E000016081807047C9B241EA012141EA01418F
:1033F00001604160704712F0004F1FBF22F0004291
:10340000D21D22F00703102202BFD21C22F00303B8
:103410000C221BB103EB020C8C4501D90120704733
:10342000024401448360C0E90021C91AD0188842CF
:103430009CBF10600246F9D90020106070473038F8
:103440000A2801D201207047002070471AF05EBAA6
:103450002DE9F0470027DFF8909000280CDA234987
:10346000D9F8002020F000400968024401EB410136
:10347000B2EB910F18D8012705460F3020F0030654
:103480000FB9FDF7A2FE1A4CD4E90002011B891AFC
:10349000B1420CD2044600680028F5D127B9FDF7E7
:1034A00087FE0020FDF7D0FE0020BDE8F08772B156
:1034B000101921680160206000F10808C0F804605C
:1034C000D9F800103144C9F8001027B105E004F123
:1034D00008086660F4E7FDF76BFEA8F800500020CE
:1034E000A8F802004046E0E7C4080020F0070020EA
:1034F000C81B00202DE9F047074689469046002664
:10350000284C294D0BE0207838B10422394604F1CB
:103510000A0019F021FB012835D00E34761C2888CA
:103520008642F0DB2149384619F040FAD0B91F48ED
:1035300004220021001D19F035FB10B10020BDE868
:10354000F0870026174C0AE0207830B10622494661
:10355000201D19F001FB01281AD00E34761C288892
:103560008642F1DB404600F027F80028E7D00D49FD
:10357000C0EBC00001EB40040E3C0422394604F1CC
:103580000A0019F0F9FA06224946201D19F0F4FA4A
:1035900007480088E07007480078A070032020707A
:1035A0000120CCE7A8190020E60700206C190020B4
:1035B000E8070020E0070020F0B505460121164885
:1035C0000E46164A03E0037853B10E30491C1388A7
:1035D0009942F8DD1248104B0488002001210DE0CB
:1035E000067045700846F0BD5F78012F04D1DF7882
:1035F000A74201D83C4608460E33491C1788B942F9
:10360000F2DD0028EFD0044AC0EBC00102EB41011B
:1036100001F80E6D4D70F0BDA8190020E6070020DE
:10362000E80700202DE9F04781460F4600253D4C74
:103630003D4E0BE0207838B10422494604F10A00DF
:1036400019F08AFA012815D00E346D1C3088854295
:10365000F0DB3649484619F0A9F9DFF8C880334D48
:1036600001284FF0040209D00021281D19F09AFA10
:10367000E8BB1DE0207803284ED350E04946281DC2
:1036800019F06AFA012806D104220021281D19F038
:1036900089FA00B900273846FFF78EFF06003CD0B4
:1036A000C6EBC60108EB41040E3C042249461DE06E
:1036B00000271C4C0BE0207838B10422291D04F1AE
:1036C0000A0019F049FA0128D4D00E347F1C308842
:1036D0008742F0DB0020FFF76FFF06001DD0C6EB2E
:1036E000C60108EB41040E3C0422291D00E013E052
:1036F00004F10A0019F040FA06220D49201D19F0C4
:103700003BFA0C480078A0700B480078E070304617
:1037100000F036F9022020700020BDE8F087204636
:10372000FBE70000A8190020E60700206C19002024
:10373000FC9E0408E0070020E107002070B50D465C
:10374000064604220E4919F007FA012814D0304623
:1037500019F03EF901280FD029463046FFF762FFE5
:10376000040008D00422314604F10A0019F0F4F9EB
:10377000012802D002E0002070BD6570012070BDFC
:10378000F89E04082DE9F0470026DFF8D480DFF822
:10379000D490B246344F5DE0B9F80050691C89B24C
:1037A000A9F800103A88914201D3A9F800A02F4946
:1037B000C5EBC50001EB40042078C8B3E07820B128
:1037C000401E10F0FF00E07043D1607801280AD15C
:1037D0000422274904F10A0019F0BEF9012806D095
:1037E0006078012818D010F0FF0F02D031E084F883
:1037F00001A004221F4904F10A0019F0ADF90128C3
:1038000017D02078032818D0A07800B3401E10F0FD
:10381000FF00A0701BD012E02078032817D0A078FA
:10382000A8B1401E10F0FF00A07010D0022005E0EB
:103830000FE011480088E0700BE00420207098F839
:103840000000E070681CBDE8F04700F099B884F80B
:1038500000A0761C388886429EDBBDE8F087000019
:10386000E1070020D0070020E6070020A81900206B
:1038700070190020F89E0408E80700202DE9F041A7
:1038800006460025134C00F10E08134F0DE020787A
:1038900048B1012807D0042204F10A01404619F07A
:1038A0005BF9012806D00E346D1C38888542EEDBAA
:1038B000BDE8F081062206F10801201D19F05CF92F
:1038C00006480088E07006480078A0700320207049
:1038D000EEE70000A8190020E6070020E807002016
:1038E000E00700202DE9F04105460E462A20FFF7AB
:1038F000AFFD044605F1080106220F46001D19F030
:103900003BF906221C4904F10A0019F035F94FF47D
:10391000C16020824FF4807060820820A08206205F
:10392000A0750420E075268304F1240006223946A0
:10393000064619F021F905F10E0104F12A000422CE
:10394000054619F019F906220B4904F11A0019F07D
:1039500013F90422094904F1200019F00DF901229C
:1039600031462846FFF7C6FD2046FDF71DFC2046E0
:10397000BDE8F04113F0B0BFF40700206C1900203F
:1039800070B505462A20FFF763FD04460622234949
:10399000001D19F0F1F80622214904F10A0019F07E
:1039A000EBF84FF4C16020824FF4807161820820EF
:1039B000A0820620A0750420E07521830622184904
:1039C00004F11A0019F0D8F80422164904F1200075
:1039D00019F0D2F84FF0060265B1002104F124007D
:1039E00019F0D8F81049C5EBC50001EB40010422DD
:1039F000091F06E0094904F1240019F0BDF809493E
:103A0000042204F12A0019F0B7F82046FDF7CCFB98
:103A10002046BDE8704013F05FBF0000FC9E040824
:103A2000F40700206C190020A819002010B50446E6
:103A3000006808F0DBFA606808F0D8FA2169A0682D
:103A40000AF0A4FD002020646064A064606210BDE0
:103A50000146034810B5806804F024FC10BD000046
:103A6000FC0600200648016891F82010002908BFD4
:103A7000704740680322416802201AF0B1B9000083
:103A8000080A0020C0F3033003490C288CBF0868E3
:103A900051F820007047000068010020002804BF92
:103AA0004FF0FF30704752EA030108BF42F2222272
:103AB00022F07F42110A120642F00202C0E9002100
:103AC000034981606FF07F41C160002070470000B2
:103AD0000A000163002804BF4FF0FF30704710B5A3
:103AE000383004A1FEF7A6F8002818BF4FF0FF30C9
:103AF00010BD00004558540021F032BF21F0A8BF8E
:103B000021F0CEBF10B5040008BF1D4C40221D4956
:103B10001D4821F09FFE1B481C4990F9002091F997
:103B200000309A4209D190F9012091F901309A426E
:103B300003D18978807881420AD014494022A1F1CA
:103B4000080021F0C3FE40220E490F4821F082FEFA
:103B5000207921F033FE10B1206870B1804722F047
:103B60005BF810B1206840B1804721F0E9FF10B147
:103B7000206810B18047002010BD4FF0FF3010BD0D
:103B8000807404084C0B00208874040890740408A6
:103B900021F046BE0020704722F0C6B822F0E0B8FF
:103BA00022F0FAB822F072B922F08CB921F0D0BE1E
:103BB0002DE9F04186B017460D4604460EF042FE50
:103BC0000EF03AFE8046E06800286ED000264FB125
:103BD000F80717D0E08B322811D9608B40F4804071
:103BE000608310E020692D1A02D505F5803504E0C8
:103BF000B5F5803F01DBA5F58035E68310E0401C7C
:103C0000E08300E0E683B8070AD5208C322804D987
:103C1000608B40F40040608303E0401C208400E09F
:103C20002684A07E800719D5F4B32FB9207F00B970
:103C300065606068A84201D0267750E0207F401C74
:103C4000C1B2217703294AD36560A560666125600A
:103C50002677608B20F00201618340E027BB60681B
:103C6000281A18F0AFFF70306560E0280AD8A06805
:103C7000281A18F0A7FF40B1A560606121680844C8
:103C8000206002E0608C401C6084D8E900014FF4A1
:103C90007A720023FDF764FC1A4320D1608C18B1BE
:103CA00002960396049601E019E01BE00596207E3B
:103CB000ADF80E00608C04908DF80C608DF80D60EE
:103CC0000A2102200DF0D4FB029004F01DFF02A98E
:103CD000002300911A46022104F0E2FE6684216866
:103CE000E068484306B0BDE8F081002804D0418C6C
:103CF000B1F57A7F01D00020704700214184418BCB
:103D000041F480414183012070470161418B21F0E2
:103D1000010141F00201418370470021C183018408
:103D2000418B21F4404141837047408B00F4404077
:103D30007047408B08B1002070470120704710B5D4
:103D4000044606F015FE01232422042106F01AFE83
:103D500000280DD00021047601604160816001617E
:103D6000C1604161C183018401770722428341849C
:103D700010BD418B21F0020121F4404141F00101CD
:103D800041837047002902DD4FF0010105E002DAAE
:103D90004FF0FF3101E04FF00001C160418B21F095
:103DA000040141837047002804BF6FF00100704791
:103DB0000021017008467047002812BF00296FF0EB
:103DC0000100704791E80E1080E80E100020704747
:103DD00010B50A464FF0FF3458B30178012907D0D7
:103DE00002290FD0032904BF0178032913D023E04F
:103DF0000178012920D1D0E90110D0B113F08FFB57
:103E0000044619E00178022916D1D0E9011080B1E9
:103E100013F073FB0CE0D0F80CC04168806841B12E
:103E2000BCF1000F06D013460246604613F04EFB6D
:103E3000044601E000248847204610BD002818BF32
:103E40000078704710B506F093FD0123102204217D
:103E500006F098FD0021017010BD002804BF6FF02E
:103E6000010070474FF0030C80F800C0C360C0E948
:103E7000011200207047002804BF6FF00100704756
:103E800001230370C0E9011200207047002818BF09
:103E900040687047002818BF00687047002819BFA5
:103EA0000029002B6FF0010070472DE9F84F044600
:103EB000994617460D46184608F0ECFC284608F0CF
:103EC00063FC8046284608F063FC0646404608F03E
:103ED00074FD002804BF4FF0FF30BDE8F88F56B1E5
:103EE0006068002800F0088105F14002394602F0C0
:103EF00040FC00F001B900221146404608F023FDC5
:103F0000696805F12002206807F00EFC00281CBF3C
:103F100005F1200007F007F905F120084846A668DA
:103F200008F0B8FC0024286B274600284ED068789B
:103F3000012860D0287810F0200F3ED099F80000BA
:103F40004C4620F00300401C89F80000687889F88E
:103F5000010000BF05F1200004F1200B90E80F16CE
:103F60008BE80F162878C108207861F3C300207011
:103F70002978090961F382002070678068686060B1
:103F8000207810F0080F14BFE8684FF0FF30E060B1
:103F9000207810F0040F04BF4FF0FF30014603D02B
:103FA00013F0F2F813F0FDF8C4E9040100231A46F7
:103FB000214604F1400008F0E3FC286B00284BD0B8
:103FC0006878032818BF052823D028E0287810F047
:103FD000200FF2D099F800004C4620F00300401C5E
:103FE00089F80000A9F802706868C9F804006878C8
:103FF00089F80100AEE7022089F8010028784C46D4
:1040000010F0200FA6D0207820F00300401C207074
:10401000A0E705F1200007F0F9F900286CD0404630
:1040200007F0D6F8012804D11EB1404607F0B6F8D3
:1040300068B1ADF80070687805F1200705F1400619
:10404000062859D2DFE800F0582A3B093B092246EE
:104050002946304608F0B8F84EE005280CD03A69F9
:104060006888A9681288904246D1334601223846B2
:1040700007F06CF9F0BB05E032460121384607F045
:104080002BF9F7E7287810F0200F18BF002C33D059
:10409000207820F00300801C20702DE06B4600216A
:1040A0003846A26807F050F8BDF800006080A4F818
:1040B0004200A068A064207820F0030019E0334695
:1040C00002223846A96807F0ABF96878022803D1C4
:1040D0003146384607F0F2F8287810F0200F18BF64
:1040E000002C09D06878042806D1207820F003003D
:1040F000801C00E000E020700020BDE8F88F000088
:1041000038B5124D040007D104F0FEFC104B11A28B
:104110000421009504F0C4FC04F0F6FC009521682D
:10412000002918BF01210A4B11A204F0ADFC06F0D2
:104130001FFC01230C22042106F024FCD4E9001208
:10414000A3688360C0E9001238BD0000C072040893
:104150007E7E0408656F5F6167656E745F4E65778C
:1041600028293A204E554C4C206366670000000019
:10417000656F5F6167656E745F4E657728293A20C9
:104180004E554C4C206366672D3E6E767365740009
:10419000002818BF002B03D0002918BF002A02D125
:1041A0006FF0010070472DE9F04383B01C461546BF
:1041B0000E4618460A9F08F06DFB287820F0C300D1
:1041C0008DF8000068788DF801006888ADF802006D
:1041D00068680190687808F0F0FB002802BF4FF093
:1041E000FF3003B0BDE8F08396E80F1304F1200E12
:1041F0008EE80F13DDE90001C4E90001684608F00C
:1042000094FB012818BF002010D1A86830B16A883B
:104210006280A968A068FDF703FC08E002AB0021FA
:104220003046A26806F090FFBDF80800608028784C
:1042300010F0080F14BFE8684FF0FF30E0602878F6
:1042400010F0040F04BF4FF0FF30014603D012F00E
:104250009BFF12F0A6FFC4E904012FB162886178C8
:10426000206808F036FB388003B00020BDE8F083FA
:10427000002804BF6FF0010070472DE9FF4F8DB09B
:104280000746002000900E98DDF868B000EB400073
:1042900007EB40044FF0FF3820680590A088ADF888
:1042A00018009DF814001D46164607F13909C2464C
:1042B000FF2804D0D0B1012877D0022873D0C2F8EB
:1042C00000A000BF9DF81700FF2809D000286BD080
:1042D000012800F0FB80022808BF002000F0F480D5
:1042E000C5F800A011B04046BDE8F08F9DF81580DC
:1042F000914810F80800002804BFD7E90C01CDE967
:10430000080106D0012840F0F080494608A8FFF7D0
:104310005DF88A485A4610F8081008A8405C6946BB
:1043200013F006FF5FEA00085DD10022DDF800000F
:104330001146092320FA01FC8CEA020201F1010C6A
:1043400020FA0CFC891C8CEA02025B1ED2B213F02C
:10435000FF03EFD112F0010F18BF002012D0306020
:1043600004EB4000B0F84210491CA0F842109BF842
:10437000000040F002008BF8000011B04FF0FF3059
:10438000BDE8F08F00F03801202918BF0120E6D1E8
:10439000C0F38B1000909DF816200E991CF07CFB4A
:1043A00030608FE701E034E037E09DF81580624827
:1043B00010F80800002804BFD7E90C01CDE903017B
:1043C00005D0012871D1494603A8FEF7FFFF5B48DD
:1043D0005A4610F8081003A8405C694613F0A8FE7E
:1043E0005FEA00080AD002203060B4F84600401CA2
:1043F000A4F8460011B04046BDE8F08F00980E9931
:10440000C0F30F1000909DF816201CF045FB3060A3
:1044100058E700208046106054E79DF818A04648F1
:1044200008AE10F80A00002804BFD7E90C01CDE956
:10443000080105D0012858D149463046FEF7C6FF8D
:104440003E485A46694610F80A00305C13F070FE88
:1044500000285CD1002200981146092320FA01FCB3
:104460008CEA02024E1C20FA06FC891C8CEA02022D
:104470005B1ED2B213F0FF03F0D112F0010F18BF90
:10448000002013D0286004EB4000B0F84210491C13
:10449000A0F842109BF8000040F002008BF80000EA
:1044A00011B04FF0FF30BDE8F08F1EE000F0380192
:1044B000202918BF0120E5D1C0F38B1000909DF892
:1044C00019200E991CF0E8FA28600BE79DF8186097
:1044D00019480DF1080A805D002804BFD7E90C01D6
:1044E000CDE902010AD0012804D011B04FF0FF300D
:1044F000BDE8F08F49465046FEF768FF0F485A4620
:104500006946805D1AF8000013F012FE48B10221DE
:104510002960B4F84610491CA4F8461011B0BDE853
:10452000F08F00989DF81920C0F30F1000900E999D
:104530001CF0B2FA2860D5E6689804086E98040862
:104540002DE9F04F050085B04FF0000004BF05B025
:10455000BDE8F08F06F00CFA0123A822042106F032
:1045600011FA0446B5E8CF11A4E8CF1195E80F0081
:104570000FC42146303C002220461CF027FA0122BD
:1045800004F1390120461CF021FA4FF0000A94F89A
:104590003700DFF84C9104F13006554657464FF08E
:1045A000010B4FF00508002839D9B07910B1012866
:1045B00009D034E08DF80C708DF8008001970297D7
:1045C0008DF80D7008E08DF80CB077208DF8008024
:1045D000019702978DF80D0070198DF80E704178D3
:1045E000FF2907D0401CCDE90190705D694613F0AA
:1045F0002BFE0FE0BAF1000F08BF3A4804D0BAF121
:10460000000F18BF384800D001900294705D6946D1
:1046100013F01AFE681CC5B2F079A842C5D894F808
:104620004000002504F139064FF0010A002888BF38
:104630004FF0770B39D9B07910B1012809D034E0A7
:104640008DF80C708DF80080019702978DF80D7031
:1046500008E001208DF80C008DF80080019702978A
:104660008DF80DB070198DF80E704178FF2907D0C4
:10467000401CCDE90190705D694613F0E5FD0FE047
:10468000BAF1000F08BF174804D0BAF1000F18BFE5
:10469000154800D001900294705D694613F0D4FD76
:1046A000681CC5B2F079A842C5D8002000EB4002D2
:1046B00004EB4201401C0A6800928988C0B2ADF840
:1046C00004100628F2D3262104F14200FDF769FA0E
:1046D000A766C4F8887005B02046BDE8F08F0000DA
:1046E0006B090408710904089F090408002804BF25
:1046F0006FF00100704770B5044690F83400002553
:104700000126FF280AD0A56619F0D2FEC4E91A01D5
:1047100084F8356094F8340013F00EFE94F83D00F0
:10472000FF280BD0C4F8885019F0C2FEC4E922015A
:1047300084F83E6094F83D0013F0FEFD002070BD4B
:10474000E8B190F83410FF2990F83D100AD0FF2905
:104750000FD090F83E10022904BF90F835000228CF
:104760000DD00AE0FF291CBF90F83E00022804D1BA
:1047700005E090F83500022801D0002070470120A4
:10478000704700281BBF90F8350002280120002048
:104790007047002808BF704790F83E0002280CBF01
:1047A000012000207047000002480068002818BF60
:1047B000004870474C0100202DE9F843264C05467F
:1047C0000F462068002841D104F09EF9234900914A
:1047D000002D14BF01210021214B22A204F054F925
:1047E00028786E78DFF8A480022803D1FF2E18BF46
:1047F000656008D104F088F9194B25A20421CDF891
:10480000008004F04DF9A7602675002E04BF00203B
:10481000206112D0012E08BF4FF4004019D0022EA3
:1048200008BF4FF4003014D004F06EF90C4B22A2F4
:104830000421CDF8008004F033F929480090294B79
:10484000294A2A492A4812F029FA20600248BDE87C
:10485000F8832061F1E700004C010020C0720408D9
:1048600058740408656F5F61726D656E765F496E9E
:10487000697469616C69736528293A204E554C4CFE
:10488000206D6F64696E666F00000000E0720408BE
:10489000735F656F5F61726D656E765F7072657074
:1048A00061726528293A2077726F6E67206D6F6498
:1048B000696E666F00000000735F656F5F61726D07
:1048C000656E765F7072657061726528293A207531
:1048D0006E737570706F727465642070726F6300B0
:1048E000610B0408710B0408F10B0408510B040858
:1048F000650C040800281ABF002A002B70472DE918
:10490000F0411D4617460E46294402784B1E0446C8
:104910009342A8BFBDE8F081A078834216DBC9B2FC
:10492000884213D08A4211D3814232BF8C468446DA
:104930000846A1706278211DA0EB0C0313FB02F066
:104940001CFB021201461046FDF72BF96178201D71
:1049500016FB010011FB05F23946BDE8F041FDF7F9
:104960005FB800281CBF82788A429CBF0020704735
:104970004278001D11FB02007047002808BF7047F5
:1049800001788078081AC0B27047002818BF0078F4
:10499000704728B18178007881421CBF00207047A1
:1049A00001207047002818BF407870472DE9F0417A
:1049B00006460F4610FB07F54FF00008002A1CBF03
:1049C000144682F803800AD105F0D2FF291D8AB26D
:1049D0000123042105F0D6FF04460120E070267073
:1049E000677084F802801CB12946201DFDF7D9F8B4
:1049F0002046BDE8F081002812BF00296FF00100B9
:104A0000704710B5044680782278904204BF4FF07A
:104A1000FF3010BD6278231D10FB0230FDF700F857
:104A2000A078401CA070002010BD002804BF6FF0CB
:104A30000100704710B50021817010F8011B10F8BB
:104A4000032B11FB02F1FDF7ACF8002010BD00288C
:104A50001ABF83788B42704702788A4238BF70470A
:104A6000994232BF0A461A460B46817000F1040C87
:104A70004078991A11FB00F112FB00C0FDF791B8C4
:104A8000002818BF8078704710B504462DED028BC2
:104A9000B0EE408A90F9660003281AD094F8672097
:104AA000012A07D1012814D0022812D0082810D0DA
:104AB00009280ED0206807F05BF8B4EEC80A206819
:104AC000F1EE10FA26D200BF07F052F8B0EE408A9D
:104AD0002EE0D4ED120A6068B8EEE01A00EE901AEB
:104AE000F8EEE00A07F094F8B0EE408A606807F04C
:104AF0003FF8B4EEC80A6068F1EE10FAE4D307F0AC
:104B000037F8B1EE400AB4EEC80AF1EE10FA0FDD44
:104B1000606809E007F02CF8B1EE400AB4EEC80A6C
:104B2000F1EE10FA04DD206807F022F8B1EE408AB9
:104B3000B0EE480ABDEC028B10BD2DE9F0410546F0
:104B400090F966000C460026C8B150281ED004F12A
:104B50000C07391D8846032822D095F867000128E4
:104B6000A86824D009F036FAC4E90006E66028688F
:104B700004F108024146BDE8F04106F0FCBF2660A2
:104B80006660A660E6600E61BDE8F08135F9600FF1
:104B9000C4E90006A660E660B5F900000861F3E725
:104BA0002660686CC4E901063A466868E3E709F0E4
:104BB00011FA2060686CC4E901063A466868D9E7D2
:104BC000002801D0D0F884007047002800D0006988
:104BD0007047002800D04069704770B50C4605004A
:104BE00014D095F8670084F8250095F8660084F8DD
:104BF0002400284600F00BF884F82600286920607D
:104C0000686960600020A060286BE06070BD90F96A
:104C10006610012903D0082901D000207047806860
:104C200009F010BA002800D080687047002804D02E
:104C300090F8680040F30000401C704790F8660050
:104C40000A2801D00020704701207047B0F86800A2
:104C5000C0F38030704770B5054605F089FE01232A
:104C60008822042105F08EFE040044D0257306F04E
:104C700095FF206006F092FF606009F0F3F9A060F4
:104C8000002084F82000E0634FF40041E1612064DB
:104C90006064A064E06420652063A16164226063B5
:104CA00084F83820A065E065A4F86000A4F86200EC
:104CB000A4F864000B2384F8663084F867000323AB
:104CC00084F854306062A062A2852061672260612E
:104CD000A4F86820FF22C4F8840084F86A20E06603
:104CE000A4F87000A4F87200C4E91D10E06784F80D
:104CF000800084F88100204670BD00002DE9F04757
:104D000004462DED028B0F46D4E9046290F838106A
:104D100090F9660084B000259FEDC78A19B1491E3D
:104D200084F8381011E065632563A5646564032881
:104D30001DD094F86710012907D1082817D0022840
:104D400015D0092813D0012811D004F1340904F139
:104D5000480A4FF0010808287ED012DC00F102005A
:104D600006280DD2DFE800F0160C4B948CF23D7053
:104D700034F8680F40F4804024F802090A202070BB
:104D800057E1092869D00A28FAD00B28F8D0502812
:104D9000F6D142E094F86A000528F1D194F8810038
:104DA0000128EDD0B4F87000401C80B2A4F8700067
:104DB000B0F5966F19D92169606F814213D1B4F8AB
:104DC0007200401C80B2A4F8720014280DD1A4F81F
:104DD000725024F8705FA1686269711A1144E16031
:104DE00084F8118025E1A4F872502169204661679A
:104DF000FFF71CFF0028C3D194ED1B0A39E0002304
:104E00003146A06809F0F4F894F8670018B1002062
:104E1000387065620DE10120FAE700233146A06891
:104E200009F0E6F887F800806562A1694046B14262
:104E300002DAE169B14213DCB4F8621019B9B4F8CE
:104E40006010A4F86210B4F9621000EBE170B4F9DC
:104E50006010B0EBD17F01E012E019E075D104E001
:104E6000A4F86250A4F872506667B4F9600000EECE
:104E7000100AB8EEC00A04B0BDEC028BBDE8F087A2
:104E8000E06B10B1401EE06302E0A06809F080FB17
:104E900002AB01AA6946A06809F070FA00EE106A38
:104EA000DDED000A94F86710B8EEC00A30EEC00AD3
:104EB000BDEEC00A10EE100A79B33D70A16D4FF43B
:104EC0007A72414391FBF2F1656AE36D226D451BF5
:104ED00003FB0522114461646062207B494602F0B5
:104EE000A9FA207B514602F04BFB94F85400B0EE37
:104EF000480A03281DD0012829D0022833D00028D1
:104F0000B9D194ED0D0A6068F8EEC00A94ED120A6A
:104F1000B8EEC00A06F0A4FEADE7FFE700EE100A07
:104F200087F800806062B8EEC00A206807F010F8C9
:104F3000A1E794ED0D0A6068F8EEC00A94ED120A3C
:104F4000B8EEC00A06F09CFF95E772E017E094ED1A
:104F50000D0A6068F8EEC00A94ED120AB8EEC00AB5
:104F600006F026FF87E794ED0D0A6068F8EEC00AA8
:104F700094ED120AB8EEC00A06F0B2FE7BE73D706F
:104F80006562206C08B1401E2064207B494602F017
:104F900051FA207B514602F0F3FA94F85400B0EE37
:104FA000480A032815D0012823D0022831D0002830
:104FB000B2D194ED0D0A6068F8EEC00A94ED120AC1
:104FC00004B0BDEC028BB8EEC00ABDE8F04706F0B5
:104FD00047BE94ED0D0A6068F8EEC00A94ED120A1F
:104FE00004B0BDEC028BB8EEC00ABDE8F04706F095
:104FF00047BF94ED0D0A6068F8EEC00A94ED120AFE
:1050000004B0BDEC028BB8EEC00ABDE8F04706F074
:10501000CFBE94ED0D0A6068F8EEC00A94ED120A56
:1050200004B0BDEC028BB8EEC00ABDE8F04706F054
:1050300057BEB0EE480A1EE70000000010B504009D
:1050400006D0FEF7F3FC34F8680F40F00100208032
:1050500010BD002801D0C0F884107047406807F0E8
:1050600025B8002804D030F8681F21F00101018024
:10507000704770B5044690F9660000250A280BD0E9
:10508000B4F8682002B3D10730D094F86A1005292B
:105090000ED0032915D029E00D2927D194F86800F6
:1050A000A4F868002046FEF7C1FC84F866507AE058
:1050B000801C02D1207B02F0AFFD0B2084F866003B
:1050C00014E084F8665011E06426082947D007DC14
:1050D00071B1012927D0022934D0032906D147E034
:1050E00009290DD00D2903D050294FD0002070BDC3
:1050F0002046FEF79BFC84F866506564A56452E088
:10510000092850D0092084F86600206806F06EFF58
:105110002169A06809F03AFAE5636564A5646562EF
:10512000A562A6853FE00128E1D0012084F8660051
:10513000206806F05BFF00231A462169A06808F08A
:1051400057FF03E002282ED002200BE02169A0685F
:1051500009F01CFAE5636564A564656223E008282C
:1051600021D0082084F86600206806F03FFFEDE7B4
:10517000032818D0606806F039FF206B2664C4E964
:1051800011050320656284F866000CE050280AD0FF
:10519000502084F86600A4F860506564A5646562D8
:1051A0006567A4F87250012070BD00B5020003D0FD
:1051B000FFF706FD081A106100BD002800D041610C
:1051C000704710B50446FEF731FC0A2084F86600EB
:1051D00010BD002807D081654FF47A714A4392FBD5
:1051E000F1F10365C165704710B540B190F86720D3
:1051F0008A4204D080F8671009B9FEF717FC012035
:1052000010BD406806F055BF90F86620502A01D0C6
:1052100000207047A0F8601001207047002809D0D6
:10522000B0F8682022F00402A0F86820C16180680C
:1052300008F03CBF7047002809D0B0F8682022F081
:105240000202A0F868208161806808F038BF7047CA
:10525000B0EE423A02EE102AF0EE623AB0F8683050
:10526000F8EEC22A02EE101A23F02003A0F86830EC
:105270000068B8EEC22A06F0CDBE10B5B0F86820BE
:105280001AB990F86620092A01D0002010BD806864
:1052900008F01EFF012010BD10B5B0F868302BB922
:1052A00090F96630012B03D0082B01D0002010BDEF
:1052B000046913460A468068214608F045FF01202C
:1052C00010BD002801D080F854107047002803D08A
:1052D0000163642180F838107047B5EEC00AB0F859
:1052E0006830F1EE10FA23F04003A0F8683001DBDB
:1052F000012301E04FF0FF33B0EE434AB0EE423AF3
:1053000002EE102AF0EE623A80F82030F8EEC22A5F
:1053100002EE101A4068B8EEC22A06F0CDBEB0F810
:10532000683000221BB990F86630032B03D042642A
:105330008264002070476422C0E910210120704778
:1053400010B5B0F868302BB990F96630022B03D055
:10535000082B01D0002010BD6423C363806808F0CF
:105360009BFF012010BD002804D030F8681F21F0F9
:1053700010010180704700280DD0B0F8681019B1F5
:10538000012901D00A2104E041F00101A0F86810D0
:10539000FE2180F866107047002803D001698068FC
:1053A00009F0F4B87047F0B5CD68059E0E60CA608C
:1053B0000F698E68DF1B0401551B3E4405FB10601E
:1053C0008860A04202DC6442A04200DA8C600B617B
:1053D0004A60F0BD406870470068704710B505F03E
:1053E000C7FA01231422042105F0CCFA002803D0C7
:1053F00000210161C160816010BD000002480068A9
:10540000002818BF004870470C07002000281CBF68
:1054100001484068704700000C07002000281CBFAE
:1054200001480068704700000C0700202DE9F0419A
:1054300004463E488EB00DF1080EB0E8EE118EE83D
:10544000EE110FC80AAE3A4D86E80F002868002812
:105450001EBF37480EB0BDE8F081002C08BF354CA8
:10546000354E206838B903F04FFB344B34A2042189
:10547000009603F015FB608900281CBFA089002856
:105480000BD0E08900281CBF208A002805D0608A44
:1054900000281CBFA08A002807D103F035FB274B4A
:1054A00034A20421009603F0FBFA686868B9607FB3
:1054B000A16906F0C7F90646012000903C4A002188
:1054C0003046236806F02BF830466860216809787A
:1054D00029726189ADF80810A189ADF80A10E18937
:1054E000ADF80C10218AADF80E10618AADF81010DD
:1054F000A18AADF8121061680591218907900020FA
:10550000ADF818100890206A0990A0690A90207FD1
:105510008DF82C00D4E90901CDE90C0102A809F0AD
:105520005BF828600EB00248BDE8F081407F0408B7
:105530000C070020147F0408C0720408FC7E0408D5
:10554000656F5F626F6172647472616E73636569C7
:105550007665725F496E697469616C697365282943
:105560003A204E554C4C206E7673657462726463BB
:1055700066670000656F5F626F6172647472616E6E
:10558000736365697665725F496E697469616C6998
:10559000736528293A2061206366672D3E73697A16
:1055A00065732E6669656C642069732030000000A5
:1055B0007F00000102480078002818BF00487047AB
:1055C000A003002070B5164C2178012904BF1448AF
:1055D00070BD002808BF1348D0E90010124AC4E982
:1055E0000110136898420CBF1078B0FBF1F02074E2
:1055F00008F066FB0025A562E56225636563A56387
:10560000E0604FF4847104F13C00FCF7ECFAA56112
:10561000E5612562012065622070014870BD0000CF
:10562000A0030020EC7B040878710408002812BF56
:10563000002B6FF0010070472DE9F05F01F00107CA
:105640004F4E0C468246C1F3430806EB47091D4600
:1056500009F14000414601F02BF8C7EB071006EBBB
:10566000C00000EBC80728687865A888A7F858002C
:1056700011F08AFD11F095FDD6E90623801A61EB41
:1056800003014FF47A720023FBF76AFFA7F85A0070
:10569000012796F8280095F90010BB46884207D0EC
:1056A00004F0010006EB4000C4F34301483039E048
:1056B00096F82E00002804BF96F82F0000281BD073
:1056C000022206F12E01281DFCF77EF940B104F0FC
:1056D000010006EB4000C4F34301503000F0E8FF46
:1056E000297996F82E2006F12E00914203D169798E
:1056F0004078814200D2002796F82C00002804BF91
:1057000096F82D0000281BD0022206F12C01A81CBF
:10571000FCF75AF948B104F0010006EB4000C4F36D
:1057200043014C3000F0C4FF0BE0A97896F82C2020
:1057300006F12C00914204D1E9784078814200D1F1
:1057400037B986F83DB009F14400414600F0B0FF9A
:10575000308EB6F84010884206D1708EB6F84210EE
:10576000884208BF012000D0002086F83C000028B5
:105770001CBF504600F080F80020BDE8F09F0000FC
:10578000A0030020002804BF6FF00100704710B58F
:10579000064890F83D1000290CBF0121002190F827
:1057A0003C001BF0DDFB002010BD0000A00300202A
:1057B000002812BF00296FF0010070472DE9F04169
:1057C0002A4C074688B094F8220090460E460128DD
:1057D00004BF384600F050F80025A562E562256355
:1057E00065634FF4847104F13C00A563FCF7FBF999
:1057F000A561E5612562656230687168B2682263FF
:10580000C4E90A01D8E900010126C4E90D0184F8C0
:10581000226084F8235084F8215084F83D5084F8A5
:105820003C5011F0B1FC11F0BCFCC4E906011BF0C6
:105830003FFB049505950695079504AD11F0AAF96F
:1058400011F0B0F903463A4609492846FEF705FB30
:105850006068CDE9000607490295D1E90023E068B8
:1058600008F0A2FA08B00020BDE8F081A0030020F3
:10587000690E040880710408002804BF6FF001005D
:10588000704770B511F080FC11F08BFC1E4CD4E910
:105890000623801A61EB03014FF47A720023FBF7B1
:1058A0005FFEE08794F83D0000280CBF012500252D
:1058B00094F83C00002601280CD15DB1E06808F0A6
:1058C00023FB012108461BF04BFBA661E661266223
:1058D00066620BE0E06808F017FB94F83C0029468C
:1058E0001BF03EFBA661E66126626662636B4BB10C
:1058F00094F83C00002816BF002D00220122024926
:10590000A06B9847002070BDA003002010B50028B0
:1059100004BF6FF0010010BD0A4991F82320002A4E
:1059200019BF91F82220002A002010BD91F8211003
:10593000012903D01BF0BCFA002010BDBDE81040C7
:10594000FFF79ABFA00300202DE9F05F9B461546A4
:105950000E46002804BF6FF00100BDE8F09F012E45
:1059600006D0022E09D0032E08BF002D0AD054E025
:10597000002D18BF012D50D104E0002D1CBF012DBA
:10598000032D4AD1BBF1000F47D0184600F036FF77
:10599000002842D0584600F031FF002700F0FF0AEF
:1059A000012E3ED0022E41D0032E04BF002D02272F
:1059B0000024BAF1000F84BFDFF8D88008F1100985
:1059C00028D92146584600F017FF4278BA421DD226
:1059D0000378D8F8041003F0010C51F82C10C3F32D
:1059E000430C51F82C1089B1012E25D0032E36D04E
:1059F000022E08BF032D43D00A71D8F80820407842
:105A000052F8262052F8252042F82010601CC4B21B
:105A10005445D6D30020BDE8F09F4FF0FF30BDE8DD
:105A2000F09F002D14BF012D0C27C1E7002D1ABFD8
:105A3000012D032D0127BBE7C3F341130B441A715A
:105A4000D8F8082043785268126842F82310D8F832
:105A5000082040785268526842F82010D6E70A7150
:105A60004278D8F80CC012F809305CF8222042F8CD
:105A70002310407810F80910491C00F80910C5E7F8
:105A80004A71D8F8082040789268D26842F820100D
:105A9000BCE7000050140020054801F00102C1F3EA
:105AA0004301406850F8220050F821007047000080
:105AB00050140020074801F00102C1F3430140687F
:105AC00050F8220050F8210000280CBFFF20007879
:105AD0007047000050140020DFF8A0C010B4DCF8BC
