:020000040802F0
:10000000B0DC0120AD040208B5040208B704020800
:10001000B9040208BB040208BD0402080000000085
:10002000000000000000000000000000950302082E
:10003000C104020800000000350402089904020807
:10004000C7040208C7040208C7040208C70402085C
:10005000C7040208C7040208C7040208C70402084C
:10006000C7040208C7040208C7040208C70402083C
:10007000C7040208C7040208C7040208C70402082C
:10008000C7040208C7040208AD2102084724020879
:10009000C1230208C704020841240208C704020859
:1000A000E9350208C704020839360208C704020805
:1000B000C7040208C7040208C7040208C7040208EC
:1000C000C7040208C7040208C70402087D320208F8
:1000D00083320208C7040208C7040208C7040208E2
:1000E000212D0208C7040208C7040208C704020839
:1000F000C7040208B1360208C7040208C704020890
:10010000C7040208C7040208C704020889320208AB
:10011000C7040208C70402086136020889360208CB
:10012000C7040208C7040208C7040208C70402087B
:10013000C7040208B52B0208C7040208D32402082A
:100140004D240208C7040208CD240208C70402088F
:10015000C7040208C7040208C7040208C70402084B
:10016000C7040208C7040208C7040208C70402083B
:10017000C7040208C7040208C7040208C70402082B
:10018000C7040208C704020800F002F800F0B8F83B
:100190000AA090E8000C82448344AAF10107DA45E2
:1001A00001D100F0ADF8AFF2090EBAE80F0013F07C
:1001B000010F18BFFB1A43F0010318479C2D0300E1
:1001C000BC2D03000023002400250026103A28BF80
:1001D00078C1FBD8520728BF30C148BF0B607047B9
:1001E0001FB52BF044FE9DE8030001F091FD1FBDFB
:1001F00010B510BD03B4FFF7FBFF03BC01F060FFB7
:100200000202021FE0177C3D00000208000004000B
:1002100000000020C0FF01000000000000000000FE
:100220000761454D53303076326D65630000000044
:1002300001000100010000004558540000000000CA
:100240004A616E20323820323031362031313A3234
:10025000353A3239000000000000000000000000C4
:10026000000000000000000000000000000000008E
:10027000000000000000000000000000000000007E
:100280000A444FF0000C10F8013B13F0070408BFBC
:1002900010F8014B1D1108BF10F8015B641E05D05A
:1002A00010F8016B641E01F8016BF9D113F0080F0F
:1002B0001EBF10F8014BAD1C0C1B09D16D1E58BFA1
:1002C00001F801CBFAD505E014F8016B01F8016BD8
:1002D0006D1EF9D59142D6D3704703681B0A28BF1B
:1002E00041F08001642901F04182782901F0A08267
:1002F000F82901F0AB82732901F0198600207047BC
:1003000001F085FE1146FFF76BFF20F0ADF901F01B
:10031000A3FE00000048704700200000004870471E
:1003200000800100401EFDD17047000080F3098865
:100330007047EFF309807047684680F309880448E6
:100340000078C00714BF0220032080F31488704790
:10035000080F0020DFF818C0EFF305831B0618BF55
:100360006047EFF31483DB0708BF604700DF704787
:1003700015290408DFF818C0EFF305831B0618BF22
:100380006047EFF31483DB0708BF604700DF704767
:100390008D290408EFF30980816911F8021C99BBCB
:1003A00090E80F1010B5E047BDE81040EFF3098C5E
:1003B0008CE807001C4B93E80600914208BF704789
:1003C00081B11EF0100F06BF2CED108A0120002015
:1003D00081F838002CE9F00FC1F83CC00CB423F0D0
:1003E000C5FE0CBC1A60D2F83CC0BCE8F00F92F815
:1003F000380000281ABFBCEC108A6FF0120E6FF0A4
:10040000020E8CF30988704710B5084A12689142B1
:1004100009D8074C54F8214090E80F10A047EFF39B
:10042000098C8CE80F0010BDD80D002010210208A7
:100430001021020810B523F097FDBDE81040154BC0
:1004400093E80600914208BF7047EFF3098C1EF055
:10045000100F06BF2CED108A0120002081F8380013
:100460002CE9F00FC1F83CC00CB423F07FFE0CBCAB
:100470001A60D2F83CC0BCE8F00F92F838000028AF
:100480001ABFBCEC108A6FF0120E6FF0020E8CF3E4
:1004900009887047D80D002010B523F08BFECCE7FB
:1004A00010B520F0EBFF23F085FEC6E70948804732
:1004B00009480047FEE7FEE7FEE7FEE7FEE7FEE746
:1004C000FEE7FEE7FEE7FEE704480549054A064B5E
:1004D000704700008135020889010208B03C002005
:1004E000B0DC0120B0BC0120B0BC0120F7B514463F
:1004F0006E46002914BF0125002588480078E8B120
:1005000000F07AFA2946304603F0B8FDC5B2012C56
:100510000DD183480099834CC0F82610014620680D
:100520004022001D01F08AFA206800F03DFE00F034
:100530006DFA012D02BF002003B0F0BD4FF0FF3077
:1005400003B0F0BD38B56C460090002914BF0125FA
:1005500000257248007860B100F04EFA2946204626
:1005600003F08CFDC4B200F051FA012C04BF00204E
:1005700038BD4FF0FF3038BD2DE9F34767480D46D1
:10058000E94600784FF0FF37F0B1674E3088D8B1B8
:1005900000F032FA30880024002888BFDFF88C8110
:1005A0000FD900BFC4EBC40008EB40000422494649
:1005B0000A3001F017FA60B1601CC4B2308884427E
:1005C000F0D300F023FA11E002B04FF0FF30BDE8A5
:1005D000F087C4EBC40008EB4000041D00F016FADD
:1005E00000271DB120682860A088A88002B0384686
:1005F000BDE8F0872DE9F1434848E8464FF0FF3663
:100600000078E8B1484D2888D0B100F0F5F9288885
:100610000024002888BF454F0FD900BFC4EBC40099
:1006200007EB4000042241460A3001F0DBF958B1E3
:10063000601CC4B228888442F0D300F0E7F919E0C6
:100640004FF0FF30BDE8F883C4EBC40007EB400077
:10065000041D00F0DBF906223549204601F0C2F9FD
:1006600058B106223349204601F0BCF9002818BFD2
:10067000002602D03046BDE8F8834FF0FF36F9E798
:10068000002070470020704710B5254CFF21204600
:1006900003F041FB28484FF4C1634FF0080C016997
:1006A000C4F80610828A6281A3814FF48073E381CB
:1006B000A4F810C04FF0060C84F812C04FF0040CE0
:1006C00084F813C0A382C4F8161062838069E061C5
:1006D00004F1200003F00AFB0020C4F82600C4F84F
:1006E0002A00C4F82E00C4F83200C4F836000D4ABF
:1006F000C4F83A00E08704F1400111602A220A8020
:10070000488010BD90F82010202984BF4FF0FF30A2
:10071000704710B500F0F3FC002010BDE80C00207D
:10072000CC1B0020E00C0020920D0020601F002058
:10073000D4EC0408DAEC0408501C0020B84A126F0C
:1007400002B11047FEE770B50C46B8B10546FFF799
:1007500097FF0646284600F091FC0644284600F024
:1007600029FA0644284600F06CFA0644284600F0B0
:1007700067FC3044002C18BF206070BDE120A84AFF
:10078000A8A1126F12B19047002070BDFEE710B50E
:10079000A34C606F002808BF10BD80470028AB49FC
:1007A000086018BF10BDE020226FA9A112B1BDE8FA
:1007B00010401047FEE770B5A44D416F81B1816FC5
:1007C000974C00291FBFC16F0029D0F88000002876
:1007D0000DD0606F002818D08047286080B114E0E9
:1007E00000218167C167C0F8801029600DE0226F89
:1007F000E320A7A11AB190474FF0FF3070BDFEE78C
:10080000226FE02092A112B19047002070BDFEE758
:1008100010B5D821824801F0F4F98C490020086015
:1008200010BD2DE9F0417E4C8846050007D02A6FA7
:100830002267287850B1E420A0A132B12EE0226FC7
:10084000E120ABA1002A29D1FEE7FEE7B1480078FC
:10085000012804D02846FFF755FF20B11AE0E02018
:10086000ADA1DAB9FEE7D8216D4801F0CAF9774F9A
:10087000002628463E6000F01EFC58B9284600F0CD
:100880009FF938B9284600F0E2F918B9284600F077
:10089000DDFB40B1AA49226FE3205AB190474FF0E7
:1008A000FF30BDE8F08141462846FFF7EBFE002807
:1008B00075D100E0FEE72846FFF7E2FE20F00300D6
:1008C00080444146284600F0DBFB002867D12846DB
:1008D00000F0D4FB20F0030080444146284600F09D
:1008E0006BF900285BD1284600F064F920F0030082
:1008F00080444146284600F0A6F900284FD12846FA
:1009000000F09FF920F0030000EB0801284600F0FA
:1009100099FB002843D1284600F092FBD8222946B3
:100920003F4801F012F93E4D2846FFF7ADFE002882
:1009300035D1686F60B1A96F00291FBFE96F002929
:10094000D5F88010002909D08047386068B111E0DF
:10095000AE67EE67C5F880603E600BE0226FE32073
:100960004BA10AB190471AE0FEE7226FE02038A1C0
:100970002AB19047284600F085FB80B900E0FEE7E9
:10098000284600F01BF950B9284600F05EF930B94E
:10099000284600F059FB002808BFBDE8F0814FF061
:1009A000FF30BDE8F08170B504000D4616D0FFF7AA
:1009B00067FE0646204600F061FB0644204600F034
:1009C000F9F80644204600F03CF90644204600F0C1
:1009D00037FB3044002D18BF286070BDE120104A5D
:1009E00010A1126F12B19047002070BDFEE718E70A
:1009F000002070470020704714480068002808BF96
:100A00007047074AD2F88010926F10470F4800686D
:100A1000002808BF70470249C96F0847006870473F
:100A2000501C00206970616C5F626173655F6D6569
:100A30006D6F72795F67657473697A652829206EB6
:100A4000656564732061206366670000E40C002024
:100A50006970616C5F626173655F6869645F746827
:100A6000726561647361666574795F696E69742823
:100A7000293A2063616E6E6F7420616C6C6F6361E4
:100A8000746520746865206D7574657800000000D9
:100A90006970616C5F626173655F696E69746961D9
:100AA0006C6973652829206E65656473206F7361B6
:100AB0006C2066756E6374696F6E73006970616C2B
:100AC0005F626173655F696E697469616C697365A2
:100AD00028293A20756E737570706F727465642082
:100AE0007463702F697020737461636B0000000081
:100AF0006970616C5F626173655F696E6974696179
:100B00006C69736528293A206D697373696E672073
:100B100063666700E80C00206970616C5F62617356
:100B2000655F696E697469616C69736528293A202B
:100B3000616C7265616479207374617274656400BC
:100B4000382E050831B524486C46007838B1234862
:100B500090F82C0018B19DF80000EF2802D04FF05B
:100B6000FF3038BDFFF748FF20461FF0CFF80028C0
:100B700014BF00244FF0FF34FFF748FF204638BD74
:100B800031B515486C46007888B1144890F82C00AF
:100B900068B1FFF731FF20461FF0E0F800280CBFD6
:100BA0004FF0FF340024FFF731FF204638BD4FF0EF
:100BB000FF3038BD0020704700207047002070478C
:100BC00090F82D10062984BF4FF0FF30704710B504
:100BD00000F016FB002010BDE80C0020501C002087
:100BE000224810B5406848B12148017801290CD04D
:100BF000012101701FF020FB002010BD1DA1E1208C
:100C0000FFF79CFD4FF0FF3010BD24A1E020FFF75F
:100C100095FD4FF0FF3010BD10B5FFF7EDFE1FF052
:100C200037FDBDE81040FFF7F1BE10B5FFF7E4FE59
:100C30002AF0DAFABDE81040FFF7E8BE0B4840683A
:100C400070470020704700207047002070470189DE
:100C5000B1F5C05F84BF4FF0FF30704710B5002181
:100C6000034A117000F024FB002010BD501C00202E
:100C7000E80C00206970616C5F7379735F73746155
:100C8000727428293A206D697373696E6720636FE7
:100C90006E66696775726174696F6E006970616C08
:100CA0005F7379735F737461727428293A2063618A
:100CB0006E6E6F7420737461727420616761696E07
:100CC0000000000008B1062801D900207047F0B5E7
:100CD00015460A46E64900EB400085B001EBC0002E
:100CE000A0F1180450F8080C0A9F1E4698B110464F
:100CF000FFF794FE0346E06820B1984204BF2089C4
:100D0000A84208D10396ADF808700095D4E904C054
:100D100002AA2146E04705B00020F0BD4107090EB8
:100D2000C0F3C00241EA0211C0F3001210B541EA5B
:100D3000C201C0F3401041EA8004CE480078002888
:100D400008BF10BDFFF758FECB4A012120462AF00C
:100D50007BFAC0B1C64900EB400201EBC20404F8C3
:100D6000180C002024F8160C44F8140C24F8100C6D
:100D700044F80C0C44F8080C44F8040CFFF746FE49
:100D8000A4F1180010BDFFF741FE002010BD70B5A2
:100D900004001CBF2078002821D0FFF72DFE6088BA
:100DA000002518B120782AF031FA658020782AF0E1
:100DB000ADFA06462078AE4900EB400001EBC000DA
:100DC00000F8185C2570658065602581E560256107
:100DD0006561FFF71BFE002E1CBF002070BD4FF0A9
:100DE000FF3070BD70B515460E4604001DBF20785B
:100DF0000028002D4FF0FF3008BF70BDFFF7FCFD4D
:100E0000608820B120782AF001FA0020608098499B
:100E1000002000BF00EB400201EBC2025288AA4250
:100E200010D0401CC0B20628F4D3207829462AF0FE
:100E30002FFA10F0FF0F05D065806660FFF7E6FD22
:100E4000002070BDFFF7E2FD4FF0FF3070BD2DE9CF
:100E5000F04790460F46040019BF207800284FF055
:100E6000FF30BDE8F087FFF7C7FD608850BB2078F2
:100E700000264546002818BF002D2DD0FFF7BCFDE9
:100E800060884FF0000920B120782AF0BFF9A4F85B
:100E900002907749002000BF00EB400201EBC20244
:100EA0005288AA4216D0401CC0B20628F4D320783B
:100EB00029462AF0EDF910F0FF0F0BD0658066602F
:100EC000FFF7A4FDA4F80880E760FFF79FFD00206E
:100ED000BDE8F087FFF79AFDFFF798FD4FF0FF3070
:100EE000BDE8F08710B5040019BF207800284FF046
:100EF000FF3010BDFFF780FD00202081E060FFF78C
:100F000085FD002010BD2DE9FF4182B098460C46BA
:100F1000050004AF1CBF2878002828D06888002866
:100F200018BF002C23D0606800281CBF2088002830
:100F30001DD0FFF761FD20882AF07EF906001BD046
:100F40002288616800F07AFD208800902878334676
:100F5000424639462AF0F2F900280CBF4FF0FF3420
:100F60000024FFF753FD06B02046BDE8F08106B02F
:100F70004FF0FF30BDE8F081FFF748FD06B04FF0BD
:100F8000FF30BDE8F0812DE9F04383B00C46050049
:100F90001CBF688800283CD0E86800281CBF28894E
:100FA000002836D0FFF728FDE86801902878B5F8CA
:100FB00008900DF104084FF0FF3600281CBF688828
:100FC000002820D0002C1FBF60680028208800283F
:100FD00019D0FFF711FD20882AF02EF9070010D054
:100FE0002288616800F02AFD2088009028783B461E
:100FF0004A4641462AF0A2F900280CBF4FF0FF36BE
:101000000026FFF703FDFFF701FD03B03046BDE802
:10101000F08303B04FF0FF30BDE8F083002812BF2B
:1010200000294FF0FF30704770B516460D46044654
:10103000FFF7E2FCC4E90456FFF7E8FC002070BDAE
:1010400000207047002070470020704710B504460C
:1010500090F83000062884BF4FF0FF3010BD90217B
:10106000034800F0CEFD204600F081F9002010BDBD
:10107000281D0020E80C0020C50C02080020704745
:101080000020704710B5D0F88C1000291CBFD0F894
:101090009010002908D0D0F8941000291FBFD0F874
:1010A00098000028002010BD05A1E120FFF746FBB5
:1010B0004FF0FF3010BD10B500F093F8002010BDC8
:1010C0006970616C5F6574685F6869645F696E69A7
:1010D0007428293A206D697373696E672065746896
:1010E0002066756E6374696F6E730000A64890F891
:1010F0002200012818BF7047002003F0E1B810B5A6
:1011000004464FF4E071A14800F07BFDA04894F83C
:101110002010C1809F49626AB2FBF1F2028194F80B
:1011200021200270A26AB2FBF1F14170002010BDD3
:101130009548D0F89C00002808BF70470047002958
:101140001CBF0020704719F0D1B810B5924A84B086
:101150009069D2E90812CDE902128B4A0090907A88
:101160008DF800008D4801908D4890F803C081886B
:101170004FEA1C230B4381784FEA0C6C4CEA014C7C
:101180004478007843EA11414CEA042C41EA1461A6
:101190004CEA0000CDE90201D2F88C10684688477D
:1011A0007B49487104B010BD7749D1F898100847C1
:1011B00010B5754CD4F890008047D4F8880000280A
:1011C00008BF10BDBDE81040004710B56E4CD4F804
:1011D0008400002818BF8047D4F89400BDE8104070
:1011E00000476B4902694A61808A08830020704782
:1011F000654991F82C10012918BF704721F098BA61
:1012000062490022C1F8C021C1F8C421C1F8C82137
:10121000C1F8CC21C1F8D021C1F8D421C1F8D8211E
:10122000C1F8DC21C1F8E0215A4A4168B2FBF1F172
:1012300090F82D20564889B242814CF6CD42514358
:10124000890C817000207047062806D2554901EBB1
:101250004011F030C0B2FFF771BA53A1E020FFF7A0
:101260006DBA10B51FF018F8474C94F82C000128FF
:1012700008BF1FF023F894F82F00012808BF1FF0C3
:1012800045F894F82200012818BF10BD0020BDE8E1
:10129000104003F015B810B523F06CF83A4890F8F8
:1012A0002C00012818BF10BDBDE8104023F0BAB8CB
:1012B00070B5364D00260446C5F8E461C5F8E8610E
:1012C000C5F8EC61C5F8F061C5F8F461C5F8F861DE
:1012D000C5F8FC61C5F80062C5F80462C5F808628B
:1012E000C5F80C62C5F81062C5F81462C5F818623A
:1012F0004FF4C05105F50870C5F81C6200F081FC80
:1013000005F5C05C05F5F271CCF82862CCF82C62CA
:10131000A069C5F8E401E069C5F8EC01C0200873D4
:10132000A8224A738E73FE23CB7308744A748E749A
:10133000CB7408714A718E71CB711749154AD1E986
:101340000001CCE9880112480121C17021890161A5
:101350006168B2FBF1F18181C681002070BD0A494C
:1013600091F82F10012918BF704721F021BA10B54C
:1013700004464821124800F044FC054994F8300026
:101380000871002010BD0000501C0020601F0020CC
:101390008C0D002040420F00B0ED0408B8ED0408A9
:1013A000A00D0020D8ED0408756E6B6E6F776E206F
:1013B00073797374656D206572726F72000000003E
:1013C0009039002000487047503C002070B5A0FBC9
:1013D0000140B4F1805170F1000024BF002070BDC5
:1013E000204600F009FD05001CBF214600F0E7FB88
:1013F000284670BD70B516460D46041F002808BF6C
:1014000070BD002E1CBF05F10C00AFF300802B4611
:101410005868002818BFA04238BF0346F8D319689F
:10142000CA18A24218BF5C6003D122681C4611444E
:10143000196021680A19824218BF606004D14268AD
:101440006260006808442060002E1CBF05F10C009B
:10145000AFF3008070BD10B5044600F03CFC01689D
:101460002046BDE810400122C4E70B3020F0070001
:1014700070472DE9F0410F460546041F00F02BFC94
:101480000668F7B1384615B3FFF7EFFFB8420546D7
:101490003CBF0020BDE8F08106F10C00AFF30080F6
:1014A0002268AA4238BF314615D3511B082931D3CF
:1014B0006019002240F8041B31462560FFF79AFFAF
:1014C00028E02846FFF7C7FF0020BDE8F081BDE80F
:1014D000F04100F091BC4868002818BFA04238BF16
:1014E0000146F8D3131983421BD103681A4495426D
:1014F00017D8531B082B0AD343686219536023681B
:1015000000681844401B106025604A6002E02260B9
:101510004068486006F10C00AFF30080201DBDE874
:10152000F08100223146281F00F025FC05000AD07A
:101530002068211D021F284600F007FB00223146CB
:10154000201DFFF757FF06F10C00AFF3008028467F
:10155000BDE8F08153EA020C00F069802DE9F04B00
:101560004FF00006002B1FBFB3FA83F503FA05F412
:1015700024FA05F65E4012BF1643B2FA82F502FA6B
:1015800005F4C5F120051EBF22FA05FC44EA0C044F
:10159000203556EA044C4FEA144418BF641C4FF03F
:1015A00000084FF00009904271EB030C39D3002979
:1015B00019BFB1FA81F701FA07F6B0FA80F700FA1D
:1015C00007F6C7F120071EBF20FA07FC46EA0C0603
:1015D0002037B6FBF4FCA7EB0507103F07F01F0B05
:1015E000CBF120060CFA0BFB2CFA06F644BFB346EF
:1015F0000026202FA4BF5E464FF0000B5BEA060CCE
:1016000008BF4FF0010B19EB0B09ABFB027C48EB59
:101610000608C01B06FB02CC0BFB03CC71EB0C01D4
:10162000C1E70B46024641464846BDE8F08B13B57C
:101630004FF000004FF00001AFF30080BDE81C4008
:101640007047B2F120030AD5C2F1200301FA02F17A
:1016500020FA03F300FA02F041EA0301704700FAAE
:1016600003F14FF0000070470FB41CB5084B06AAF9
:101670007B4469460090059800F027FC0446002052
:10168000694600F035FC20461CBC5DF814FB0000E8
:101690007D0800000FB47CB50C0009AA009001D0B1
:1016A0002044401E084B7B4469460190089800F096
:1016B0000CFC05461CB10020694600F019FC2846C8
:1016C0007CBC5DF814FB00005108000070B50446B6
:1016D00085690068C10601D5302600E02026C007D4
:1016E00007D070BDD4E9012130469047206A401CE4
:1016F00020626D1EF6D570BD70B504468569007810
:10170000C00707D170BDD4E9012120209047206A8D
:10171000401C20626D1EF6D570BD70B50C460546A6
:10172000012A05D02878800600D5EA69002302E066
:10173000012305E05B1C934202D2E05C0028F9D152
:10174000A869E618C01AA861286A184428622846C1
:10175000FFF7BCFF04E0D5E9012114F8010B904725
:10176000B442F8D32846FFF7C7FF70BD2DE9F0411A
:101770000646002410687529314615A510D0AFF330
:101780000080002802DA404212A507E031688A078B
:1017900001D511A502E0490704D510A5012401E0F7
:1017A000AFF3008000210A2306F1240707E0B0FB15
:1017B000F3F203FB1200303078541046491C002825
:1017C000F5D123462A463046BDE8F04100F01EBB65
:1017D000000000002D0000002B0000002000000091
:1017E000F0B40D460188090502D51B4C7C4402E08B
:1017F000194C7C440E34002100F1240608E002F06C
:101800000F071209E75D42EA03721B097754491C6E
:1018100052EA0307F3D1224604780023240704D5B3
:10182000702D02D009B102231132F0BC00F0EEBAE3
:1018300070B504460D4621461068AFF3008002469D
:1018400029462046BDE870400023C9E7D21D22F09A
:101850000703D3E90023C3E73EDC02002DE9F05F74
:10186000894604464FF0000ADFF874B1FB44C0F823
:1018700020A02046E1688847002874D0252806D09B
:10188000D4E901219047206A401C2062F1E700263C
:101890005F462046E16888472028054607DB312D52
:1018A00005D2781910F8200C08B10643F1E7B0070B
:1018B00001D526F00406C4F81CA00027C4F818A01F
:1018C0002A2D09D0284602F05AFA38B304EB8708CB
:1018D000303DC8F8185019E059F8041B204604EBB5
:1018E00087029161E1688847012F054618D1E069B8
:1018F000002820DA26F020061DE0D8F8180000EBBA
:10190000800005EB40003038C8F818002046E16838
:101910008847054602F033FA0028EED1012F0AD09D
:101920002E2D08D12046E16888477F1C0546022FEE
:1019300046F02006C4DBA069002803DA404246F0E6
:101940000106A061F00701D026F010066C2D0BD027
:10195000682D09D04C2D39D06A2D35D0742D35D055
:101960007A2D33D016E038E0E1682F4620468847CC
:10197000B842054609D16C2F26D04FF48060E1684B
:10198000064320468847054604E06C2F1AD04FF4E2
:10199000807006430DB3A5F14100192802D8203507
:1019A00046F400664A462946204626604E46FEF723
:1019B00094FC80B101280BD0F61D26F0070000F141
:1019C000080956E74020E4E78020D8E70020D6E762
:1019D00006F104094DE7284652E7206ABDE8F09F6A
:1019E000E6DB020040EA010310B59B070FD1042A91
:1019F0000DD310C808C9121F9C42F8D020BA19BADA
:101A0000884201D9012010BD4FF0FF3010BD1AB13E
:101A1000D30703D0521C07E0002010BD10F8013B93
:101A200011F8014B1B1B07D110F8013B11F8014BBA
:101A30001B1B01D1921EF1D1184610BD032A40F2A2
:101A4000308010F0030C00F0158011F8013BBCF160
:101A5000020F624498BF11F801CB00F8013B38BF78
:101A600011F8013BA2F1040298BF00F801CB38BF86
:101A700000F8013B11F0030300F06780083AC0F062
:101A8000088051F8043B083A51F804CBA0E808104C
:101A9000F5E7121D5CBF51F8043B40F8043BAFF37F
:101AA0000080D20724BF11F8013B11F801CB48BFD9
:101AB00011F8012B24BF00F8013B00F801CB48BF0F
:101AC00000F8012B7047431A28BF9A427FF6B6AF41
:101AD000032A1044114440F2268010F0030F1EBF69
:101AE00011F8013D521E00F8013D10F0030F7FF484
:101AF000F6AF11F0030300F03182083AC0F00B801A
:101B000051F8043D083A51F804CD40F8043D40F83E
:101B100004CDFFF7F3BF121D5CBF51F8043D40F840
:101B2000043DAFF30080D20724BF11F8013D11F846
:101B300001CD48BF11F8012C24BF00F8013D00F889
:101B400001CD48BF00F8012C704710B5203AC0F015
:101B50000B80B1E81850203AA0E81850B1E81850AE
:101B6000A0E81850BFF4F5AF5FEA027C24BFB1E8EB
:101B70001850A0E8185044BF18C918C0BDE810405C
:101B80005FEA827C24BF51F8043B40F8043B08BF65
:101B90007047D20728BF31F8023B48BF11F8012B2C
:101BA00028BF20F8023B48BF00F8012B704702F025
:101BB000FF0343EA032242EA024200F002B84FF078
:101BC00000020429C0F0128010F0030C00F01B800A
:101BD000CCF1040CBCF1020F18BF00F8012BA8BF18
:101BE00020F8022BA1EB0C0100F00DB85FEAC17CDC
:101BF00024BF00F8012B00F8012B48BF00F8012B8F
:101C000070474FF0000200B51346944696462039BF
:101C100022BFA0E80C50A0E80C50B1F12001BFF4A5
:101C2000F7AF090728BFA0E80C5048BF0CC05DF80B
:101C300004EB890028BF40F8042B08BF704748BF59
:101C400020F8022B11F0804F18BF00F8012B7047CD
:101C50004FF0013C50F8042B51F8043B9A4221D13B
:101C6000A2EB0C03934313EACC1317D150F8042BC7
:101C700051F8043B9A4215D1A2EB0C03934313EAAB
:101C8000CC130BD150F8042B51F8043B9A4209D1E4
:101C9000A2EB0C03934313EACC13DBD04FF000000C
:101CA000704700BFD01A01BAB1FA81F101F01801F2
:101CB00022FA01F0CB40C1F12001DBB2C0B2C01A60
:101CC0002CFA01F3D11A914311EAC311E6D17047FE
:101CD00070477047704710B5FFF774FB083010BDB0
:101CE000704770477047704738B504460A46002071
:101CF0006946AFF30080002808BF38BD024600994E
:101D0000204600F05EF9012038BD012000F078B9CE
:101D1000F8B5AFF30080054600200C46102000BF48
:101D20000646A819A0420DD9324669460020AFF3F5
:101D30000080070008BF00F063F90098A04218BFB8
:101D40000546C419FFF7C7FF05600746F01D20F0E0
:101D500007004619284600F02BF9B44208BFF8BD29
:101D6000A21B31463868BDE8F84000F02AB90B30B4
:101D700020F0070070472DE9F04117460E46044653
:101D8000FFF7F5FFA042054633D9002F1CBF06F12F
:101D90000C00AFF3008030467468F4B12168A942AA
:101DA00017D305F1080291423CBF6168416007D337
:101DB000626861194A602268521B0A6041602560AE
:101DC000002F1CBF06F10C00AFF30080201DBDE802
:101DD000F08120466468002CE0D129463046FFF7A8
:101DE00083FF0028D7D1002F1CBF06F10C00AFF3F2
:101DF00000800020BDE8F08110B50446FFF76BFFBE
:101E000001682046BDE810400122B4E72DE9F04703
:101E10000D4699469246044600F12408016888065A
:101E200004D5E06921F01001216000E00120A84202
:101E300001DD471B00E00027A1697A1902EB0900C8
:101E4000081AA0612078C00602D42046FFF73EFCA5
:101E5000002608E0D4E901211AF806009047206A1C
:101E6000401C761C20624E45F4DB2078C0060AD563
:101E70002046FFF72BFC06E0D4E9012130209047F3
:101E8000206A401C2062381EA7F10107F4DC07E03D
:101E9000D4E9012118F805009047206A401C20620F
:101EA000281EA5F10105F3DC2046FFF725FC20786C
:101EB000000602D50220BDE8F0870120FBE7000004
:101EC00001694A1C02610878704700B58FB0CDE9FE
:101ED00001310021059105497944CDE903101146EE
:101EE0006846FFF7BBFC0FB000BD0000E5FFFFFF39
:101EF0000A6802F8010B0A607047D1E900239A4290
:101F000002D2531C0B601070704710B5436913B1B7
:101F1000AFF3008001E0FFF700FC012010BD127854
:101F200000F124010A7000224A700122EDE71168D5
:101F30004FF0FF32E9E7431A28BF9A427FF605AE19
:101F4000104410F0030F11441EBF11F8013D521E42
:101F500000F8013D10F0030F7FF4F6AF103AC0F027
:101F60000A8010B531E91850103A20E91850BFF432
:101F7000F9AFBDE81040530724BF31E9081020E94C
:101F8000081044BF51F8043D40F8043D12F0030F1F
:101F900008BF7047D20728BF31F8023D48BF11F88B
:101FA000012C28BF20F8023D48BF00F8012C7047E3
:101FB00000210160C0E901100C3001F0E7BE1020E3
:101FC000704730B404468C464368002B18BF634505
:101FD00038BF1846F8D303681844604507D0C81CBA
:101FE00020F0070000F1040CACEB0100121A2146AE
:101FF000CCF8002030BC00220CF10400FFF7FAB945
:1020000010B500F035F8BDE8104000F02BB875466B
:10201000FFF7D8F9AE4605006946534620F00700A1
:10202000854618B020B5FEF74FFABDE820404FF0C6
:1020300000064FF000074FF000084FF0000B21F0B2
:102040000701AC46ACE8C009ACE8C009ACE8C0097F
:10205000ACE8C0098D4670470446AFF300802046C7
:10206000FEF7C8F8002801D000F02AB87047000039
:1020700010B5012805D0002103A000F028F80120A8
:1020800010BD09A1F8E7000053494752544D454D92
:102090003A204F7574206F662068656170206D6509
:1020A0006D6F7279000000003A2048656170206D04
:1020B000656D6F727920636F7272757074656400FC
:1020C00001491820ABBEFEE726000200704770B53C
:1020D00005460C460A2000E06D1C00F011F835B1F1
:1020E00028780028F8D102E0641C00F009F814B147
:1020F00020780028F8D1BDE870400A20AFF30080B6
:1021000008B569468DF800000320ABBE08BD00008D
:1021100000000000C943016070470029816814BFB6
:1021200041F0010121F00101816070470849D1F8B7
:102130000423084B1A40D0E9003C43EA0C03D0E9E1
:1021400002C04CEA000018431043C1F80403704772
:1021500000200140E030FCFF0029816814BF41F4F9
:10216000807121F48071816070470029816814BFFB
:1021700041F4007121F40071816070470029816889
:1021800014BF41F4806121F4806181607047024690
:10219000002012680A4218BF0120704781B008442D
:1021A00028300090006801B080B270472DE9F05FE0
:1021B000DFF8FC8000273C46D8F800003D46DFF8F9
:1021C000F49010F0040F6FF0040AA9F108062ED065
:1021D000C8F800A03849486B002808BF886BD1F8C0
:1021E0003CB0BBF1000F08BFD1F840B00028D8BF09
:1021F00037800CDD1C214046FFF7D0FFB9F90010F5
:10220000401A401000EB640060F30F043080BBF113
:10221000000FD8BF77800ADD18214046FFF7BEFFC8
:10222000B9F90210401A401000EB64407080D8F8F1
:10223000000110F0040F18BFC8F800A1D8F8000280
:1022400010F0040F08BFBDE8F09FC8F800A21B48BB
:102250000168002904BF1A4801681A480468002C64
:1022600004BF19480468DFF864800029D8BFB7802C
:102270000CDD1C214046FFF791FFB9F90410401A0C
:10228000401000EB650161F30F05B180002CDCBF4D
:10229000F780BDE8F09F18214046FFF77FFFB9F9AE
:1022A0000610401A401000EB6540F080BDE8F09F3A
:1022B000002001405C0D002000000140340401407A
:1022C000380401403C040140400401400022014028
:1022D00010B4426891F804C022F4807222F0407277
:1022E0000B6842EA0C221A43426082680C4B4C791C
:1022F0001A40D1E903C343EA0C03D1F808C04CEA01
:10230000440C43EA0C031A438260C26A097D22F43A
:102310007002491EC9B242EA0151C16210BC704745
:10232000FDF7FFC030B4072409290DD9C568A1F114
:102330000A0C0CEB4C0C04FA0CF425EA040403FA26
:102340000CF32343C3600AE0056901EB410C04FA76
:102350000CF425EA040403FA0CF3234303611F235E
:10236000072A0CD2D0F834C0521E02EB82029340EE
:102370002CEA030391401943416330BC70470D2A96
:102380000CD2D0F830C0D21F02EB820293402CEA6C
:10239000030391401943016330BC7047D0F82CC04F
:1023A0000D3A02EB820293402CEA03039140194359
:1023B000C16230BC7047816841F0804181607047E4
:1023C000F0B589B0002600960196029603961A4849
:1023D0001A4D4468E868A76A10F0100F1CBF304619
:1023E00026F070FD38461CF000FA012808D1384666
:1023F0001CF0CEFA012084F82E00304626F062FD53
:10240000284604AA002100F0C8F9049800909DF81D
:102410001A008DF80600DDF81B000290DDF81F00A1
:102420000390694638461CF0EAFA616800291CBF2F
:10243000A068884709B0F0BDE43A0020006400407D
:10244000002026F03FBD002026F078BD70B58AB090
:1024500001200021009101910291039119491A4D27
:102460008C68E968A66A11F0100F18BF26F02AFDE3
:1024700030461CF0BAF9012807D130461CF088FA22
:10248000012084F82E0026F01DFD284604AA002114
:1024900000F083F9049800909DF81A008DF806006A
:1024A000DDF81B000290DDF81F00039069463046FE
:1024B0001CF0A5FA616800291CBFA06888470AB013
:1024C00070BD0000E43A002000680040012026F0C2
:1024D000F9BC012026F032BD10B4082304224FF0CD
:1024E000100CB1F5007F40D021DC202902BF036130
:1024F00010BC704710DC012901BF1D49816010BC70
:102500007047042902BFC36010BC7047082908BF88
:10251000C0F80CC010BC7047402902BFC0F810C002
:1025200010BC7047B1F5807F1FD010BC70470024ED
:10253000B1F5004F08D00BDCB1F5806F15D0B1F5C7
:10254000006F1CBF10BC70478461426010BC7047B4
:10255000B1F5803F02BF436010BC7047B1F5003F4A
:1025600008BFC0F804C010BC7047426010BC704780
:1025700001010100A0F1804110B5B1F5C8414FF053
:10258000010109D0880600F0FFFDBDE810400021E0
:102590004FF0806000F0F8BD4FF0007000F0F4FDE7
:1025A000BDE8104000214FF0007000F0EDBD0000CC
:1025B00030B4817A354B012202FA01F11A6842F0F7
:1025C00001021A60DFF8C8C0DCF800208A43CCF8AA
:1025D0000020047B2F4AD4B914688C4314604488CB
:1025E000C58844EA0544857AED0005F1804505F586
:1025F000C045C5F840460488858844EA0544857A84
:10260000ED0005F1804505F5C045C5F84446047B5D
:10261000012C18D114680C431460847A0268E40019
:1026200004F1804404F5C0444FEA3242C4F8402625
:10263000847A4268E40004F1804404F5C0444FEA1F
:102640003242C4F84426C47A134A002C14680CBFE2
:102650008C430C4314600489104A14B914688C43E9
:1026600014600489012C02D114680C431460407B6F
:10267000012804D1DCF800000843CCF800001868F9
:1026800020F00100186030BC704700000066004078
:102690001C6600400C660040046600401466004062
:1026A000002A426914BF114322EA010141617047C7
:1026B0000268002322F002020260026842F0010276
:1026C00002604FF6FF7200BFD0F804C01CF0010F8B
:1026D00003D1934218BF5B1CF6D1436813F0010F7E
:1026E00059D08B79012B03680CBF43F0800323F092
:1026F00080030360CB79012B03680CBF43F04003D8
:1027000023F0400303600B7A012B03680CBF43F0F6
:10271000200323F0200303604B7A012B03680CBFD6
:1027200043F0100323F0100303608B7A012B03683E
:102730000CBF43F0080323F008030360CB7A012B9E
:1027400003680CBF43F0040323F0040303608B7899
:1027500091F803C09B0743EA0C6391F804C043EA75
:102760000C4391F805C0098843EA0C53491E1943EC
:10277000C161016821F0010101600021436813F08B
:10278000010F1CBF9142491CF8D1406810F0010FA5
:1027900004BF012070470020704700EB0113D3F8FD
:1027A000B0C11CF0040C82F808C0D3F8B0C107BF58
:1027B0004FEA5C5CC2F800C04FEADC0CC2F804C00F
:1027C000D3F8B0C10CF0020C82F809C0D3F8B4C140
:1027D0000CF00F0C82F80AC0D3F8B4C14FEA1C2CDD
:1027E00082F813C0D3F8B8C182F80BC0D3F8B8C1CF
:1027F0004FEA1C2C82F80CC0D3F8B8C14FEA1C4C2D
:1028000082F80DC0D3F8B8C14FEA1C6C82F80EC034
:10281000D3F8BCC182F80FC0D3F8BCC14FEA1C2C5E
:1028200082F810C0D3F8BCC14FEA1C4C82F811C02A
:10283000D3F8BC311B0E937421B1016941F0200122
:1028400001617047C16841F02001C160704700001C
:1028500009490A6842F001020A600A6822F4877294
:1028600022F478520A600A6842EA00200860086888
:1028700020F001000860704700660040002181716F
:10288000C171017241728172C1728170C170032184
:1028900001710221417101210180704710B402468B
:1028A0000020936813F0806F3FD000BF02EB00124E
:1028B000D2F8803103F00103C2F880310B7A002B8B
:1028C00042D0D2F880C14C684CEA030391F809C0A9
:1028D0004CEAC40C43EA0C03C2F880318B7A03F053
:1028E0000F038B72D2F8843123F00F03C2F88431C6
:1028F000D2F8843191F80AC043EA0C03C2F884315B
:10290000CB7AD1F80CC043EA0C23C2F88831CB7BD8
:10291000096943EA0121C2F88C11D2F8801141F013
:102920000101C2F8801110BC7047906810F0006F70
:1029300018BF0120BAD1906810F0805F14BF022048
:102940000420B3D110BC7047D2F8803191F809C08F
:1029500043EA0C03B1F800C043EA4C53BCE700B5AE
:10296000002200F007F8C04380B2010241EA1020C3
:1029700080B200BD05E000BF30F8023B891E5BBAA3
:102980001A440129F8DC11B1007802EB002290B260
:1029900000EB124000EB104080B27047084400EB9F
:1029A000104080B270470029016814BF41F0010156
:1029B00021F00101016070472DE9F003016821F069
:1029C000010101600021016041608160C16001611D
:1029D00021214161434A3D244349904202BF8C601A
:1029E000BDE8F0037047414A4FF47465904202BF5E
:1029F0008D60BDE8F00370473D4A4FF47418904273
:102A000002BFC1F80880BDE8F0037047394A4FF0B3
:102A10007466904202BF8E60BDE8F0037047364B8B
:102A2000364A984202BFCA60BDE8F0037047DFF83B
:102A3000D0C0344B604502BFCB60BDE8F0037047A7
:102A4000314FDFF8C8C0B84202BFC1F80CC0BDE8C2
:102A5000F0037047DFF8B8904FF03D57484502BF8C
:102A6000CF60BDE8F0037047DFF8A8902A494845D9
:102A700002BF0C60BDE8F0037047284CA04202BFC3
:102A80000D60BDE8F0037047254CA04202BFC1F8BD
:102A90000080BDE8F0037047224CA04202BF0E60E8
:102AA000BDE8F0037047204C2049A04202BF0A60F5
:102AB000BDE8F00370471E4A904202BF0B60BDE8BC
:102AC000F00370471B4A904202BFC1F800C0BDE846
:102AD000F0037047184A904208BF0F60BDE8F0034A
:102AE0007047000010600240006002402860024011
:102AF0004060024058600240706002403D0000208B
:102B000088600240400F0020A060024000003D208D
:102B1000B860024010640240086402402864024029
:102B20004064024058640240706402400C640240F9
:102B300088640240A0640240B864024010B4026895
:102B40001B4BD1F80CC01A400B6843EA0C03D1E9C7
:102B500005C44CEA040C43EA0C03D1F81CC043EA58
:102B60000C03D1F820C043EA0C03D1F824C043EA97
:102B70000C03D1F828C043EA0C03D1F834C043EA6F
:102B80000C03D1F838C043EA0C031A4302604269CF
:102B9000D1E90B3C22F0070243EA0C031A434261DD
:102BA0000A6942604A6882608968C16010BC7047E7
:102BB0003F801CF02DE9F04F43484FF0000B93B0DD
:102BC00046685F4649F21A08357C4FF4407A4FF068
:102BD0000049706900EB05100168C1F30D410C1F3D
:102BE000016811EA080F18BF012734D100683AEADA
:102BF000000018BF02272ED140F2EA50844288BF5D
:102C0000032728D844F000401BF0E0F944F00041CD
:102C10000090002808BF04271DD00820726900EB2F
:102C20000510E31C105820F003020098001D9C08BA
:102C300006D000BF52F8043B40F8043B641EF9D1B3
:102C40002248026812B10098001D904700981BF0BE
:102C50003BFC4FF0010B706900EB0510C0F80090D1
:102C600077B1022F08BF4FF0FF343B4618A2402136
:102C700002A80094FEF70EFD02A9F0201CF092FDC0
:102C8000F07A6D1C854208BF00253574706900EB31
:102C90000510006810F0004F9BD0184C6069184D6B
:102CA00010F0800F06D065610020A06015A1F02013
:102CB0001CF078FD6561BBF1000F18BF1BF056F9E1
:102CC00013B0BDE8F08F0000740D00206C0D0020E3
:102CD0004554485F49525148616E646C65722829B9
:102CE0003A206572726F7220256420666F722066CA
:102CF00072616D655B25645D00000000009002401C
:102D0000C08001004554485F49525148616E646C6F
:102D1000657228293A206572726F722035000000B2
:102D200010B54FF4005000F033F8012420B16003D7
:102D300000F028F8124804714FF4805000F028F891
:102D400028B14FF4805000F01DF80D4844714FF445
:102D5000804000F01DF828B14FF4804000F012F8D8
:102D6000074884714FF4004000F012F8002808BFB3
:102D700010BD4FF4004000F005F80148C47110BDCB
:102D8000640D00200149086070470000143C0140B8
:102D9000034A0146002012680A4218BF012070470A
:102DA000143C0140837921490268002B34D00B6820
:102DB00023EA02020A60091D0A6803689A430A604E
:102DC000017901F1804101F59E310A6803681A43D7
:102DD0000A60174B19680268914319601A1D11683F
:102DE000D0F800C021EA0C0111604179102908D007
:102DF00001F1804101F59E310A68006810430860C6
:102E000070471968D0F800C041EA0C0119601168D8
:102E10000068084310607047007900F1804000F5B9
:102E20009E3001689143016070470000003C014002
:102E3000083C01402DE9F001002201255FF0030666
:102E4000D1F800C005FA02F30CEA030C9C4533D11B
:102E500007684FEA420C06FA0CF4A74307600F79A3
:102E6000D0F8008007FA0CF747EA080707600F79E7
:102E7000012F18BF022F14D18768A74387604F79AD
:102E8000D0F8088007FA0CF747EA08078760476818
:102E900027EA0303436043688F799740BFB23B43FF
:102EA0004360C368A343C360CB7903FA0CF3D0F843
:102EB0000CC043EA0C03C360521C102AC0D3BDE807
:102EC000F00170474B07DB0E9A40C90800EB810008
:102ED000016A4FF00F0C0CFA03F399430162016A87
:102EE0001143016270470246002012690A4218BF6E
:102EF000012070470246002052690A4218BF012093
:102F0000704741837047018370474FF6FF7101603E
:102F10000021017141718171C17170474269514055
:102F200041617047002A14BF018341837047002923
:102F3000018814BF41F4806121F4806101807047F1
:102F4000838A0022008B43EA004020F07F4031EA70
:102F5000000008BF012210467047C94381827047B4
:102F60000029018814BF41F0010121F00101018015
:102F700070470029018814BF41F4807121F48071E9
:102F8000018070470029018814BF41F4007121F4C9
:102F900000710180704782B00246002000920A0F43
:102FA00021F07F41019208BF090C009A14BF14322E
:102FB0001832009212680A4218BF012002B070470E
:102FC000818A008B41EA004020F07F40704700007A
:102FD00070B50446808884B00D4620F03F066846F0
:102FE00000F0F6F829490298B0FBF1F189B246EAFF
:102FF0000102A280228822F001022280244B2A684A
:103000009A421DD85200B0FBF2F080B2042838BFBB
:103010000420491C2184A083208840F001002080E6
:103020002088A9886A8920F00A0020F48060114372
:1030300008432080A88929890843208104B070BDF5
:10304000EB88A3F53F4CBCF1FF0C19D002EBC20397
:1030500003EB0212B0FBF2F080B240F480400205B4
:10306000120D08BF40F0010040F400404FF496728A
:1030700051434FF47A72B1FBF2F1491C2184CAE743
:1030800002EB4202B0FBF2F080B2E8E740420F00F0
:10309000A0860100002A14BF41F0010101F0FE01E9
:1030A000018270470182704710B4C27801780F2402
:1030B0004FF0010C0AB3174A126801F1E02102F443
:1030C000E062C2F5E062C2F30722C2F10403D44019
:1030D00042789A40837823401A43120181F80024F1
:1030E000007800F01F010CFA01F14009800000F1A6
:1030F000E020C0F8001110BC704701F01F000CFA6E
:1031000000F04909890001F1E021C1F8800110BCFB
:10311000704700000CED00E0034940F0FD7040F006
:1031200080600860704700000CED00E021F07F0136
:1031300021F06041084301490860704708ED00E054
:10314000044A0029116814BF084321EA00001060F6
:103150007047000030380240044A0029116814BF4B
:10316000084321EA00001060704700001038024058
:10317000044A0029116814BF084321EA00001060C6
:103180007047000040380240044A0029116814BF0B
:10319000084321EA00001060704700002038024018
:1031A000044A0029116814BF084321EA0000106096
:1031B0007047000044380240044A0029116814BFD7
:1031C000084321EA000010607047000024380240E4
:1031D000254A30B41168254B11F00C0106D0244C5F
:1031E000042908BF046002D008291ED003601168BA
:1031F0000F2303EA11111F4B595CD0F800C02CFAC1
:1032000001F14160D2F800C0072404EA9C2C13F8B5
:103210000CC021FA0CFCC0F808C0126804EA523253
:103220009A5CD140C16030BC70471349D1F800C0EE
:10323000CCF38055D1F800C0002D0CF03F0C14BF2A
:10324000B4FBFCF3B3FBFCF3D1F800C00968CCF38A
:10325000881C03FB0CF3C1F30141491C4900B3FB7B
:10326000F1F10160C3E70000083802400024F400D7
:1032700080F0FA02E00D002004380240002025F022
:10328000E1BC012025F0DEBC022025F0DBBC0029DA
:10329000018814BF41F0400121F0400101807047D6
:1032A00010B5A0F18041B1F598311AD011F57841EF
:1032B00022D0B1F580612AD0B1F5784132D0B1F594
:1032C000E0513AD0B1F5806118BF10BD0121480529
:1032D000FFF772FFBDE8104000214FF40010FFF728
:1032E0006BBF01210803FFF767FFBDE81040002115
:1032F0004FF48050FFF760BF01218803FFF744FFC0
:10330000BDE8104000214FF48040FFF73DBF012190
:10331000C803FFF739FFBDE8104000214FF400401B
:10332000FFF732BF01214803FFF746FFBDE8104019
:1033300000214FF40050FFF73FBF01210805FFF7C0
:103340003BFFBDE8104000214FF48010FFF734BF71
:103350000246002012890A4218BF0120704709095D
:10336000012303FA01F1002A828889B214BF1143B4
:1033700022EA01018180704780897047818170470E
:1033800010B402880B88B1F802C0CC8843EA0C0361
:10339000B1F804C002F441524CEA040C43EA0C03B5
:1033A000B1F808C043EA0C03B1F80AC043EA0C03C1
:1033B000B1F80CC043EA0C03B1F80EC043EA0C03A9
:1033C0001A430280828B22F400628283098A01827E
:1033D00010BC70470021018041808180C180018143
:1033E00041818181C1810721018270470149C1F872
:1033F000DC007047000027428A0721F0030101F139
:10340000804101F59831120F0F23D1F808C893407D
:103410002CEA0303C1F80838D1F808389040184363
:10342000C1F808087047000082B0002229490192C3
:103430000092086840F480200860086840F48030FA
:103440000860086800F4003000900198401C01906A
:10345000009818B90198B0F5A04FF2D1086810F49F
:10346000003F02BF009202B07047012000901A484E
:10347000026842F0805202601848026842F44042FA
:103480000260174802680260026842F4004202606B
:10349000026842F4A0520260031F124A1A600A68CE
:1034A00042F080720A600A6812F0007FFBD00E4A78
:1034B00040F205711160016821F0030101600168AB
:1034C00041F002010160016801F00C010829FAD104
:1034D00002B070470038024040380240007000409F
:1034E0000838024032544007003C0240010241EAE1
:1034F000102080B270470000DFF86CC030B4DCF8F8
:1035000000001A4B10F00C01194806D0194C042980
:1035100008BF046002D008290CD00360DCF800105A
:10352000154AC1F30311515C026822FA01F10160EE
:1035300030BC704711490A68C2F380550A68002DF3
:1035400002F03F0214BFB4FBF2F2B3FBF2F20B68DD
:103550000968C3F388135A43C1F30141491C490068
:10356000B2FBF1F10160D9E7083802400024F40011
:10357000140D002080F0FA02E8EC04080438024040
:10358000134810B5016841F47001016011480168E9
:1035900041F001010160104A00211160026822F42B
:1035A000102222F080720260031D0C4A1A60026829
:1035B00022F4802202600A4801601CF04BF9FFF7F8
:1035C00033FF08494FF000600860FFF795FF10BD1A
:1035D00088ED00E000380240083802401030002436
:1035E0000C38024008ED00E010B5114C8021204657
:1035F00000F07FF9012818BF10BD0022802120466D
:1036000000F019FA002018F00DF9012018F00AF95D
:10361000022018F007F9032018F004F905490120E9
:1036200048712046BDE81040802100F06AB80000D3
:1036300000000140300D002010B5084C012120464B
:1036400000F057F9012818BF10BD0121204600F0F5
:1036500058F8BDE810400A2025F070BE004801402F
:1036600010B5084C0121204600F043F9012818BF8D
:1036700010BD0121204600F044F8BDE810400520AF
:1036800025F05CBE0010004010B5084C012120461A
:1036900000F02FF9012818BF10BD0121204600F0CD
:1036A00030F8BDE81040062025F048BE0014004068
:1036B00010B5084C0121204600F01BF9012818BF65
:1036C00010BD0121204600F01CF8BDE810400D207F
:1036D00025F034BE002000400A884B88B1F806C0AF
:1036E0001A438B8843EA0C031A430B891A434B890C
:1036F00089891A431143A0F844107047C9430182D5
:103700007047C943018270470029018814BF41F006
:10371000010121F00101018070470029B0F8441037
:1037200014BF41F40041C1F30E01A0F844107047EA
:1037300010B5A0F18041B1F5803132D0B0F1804FA9
:1037400043D011F57C4136D0B1F5806147D0B1F559
:1037500080614ED0B1F5806155D0B1F580615CD00B
:10376000B1F5704163D0B1F570516AD0B1F58061A7
:1037700072D0B1F580617AD011F598317DD0B1F574
:1037800080617BD0B1F5806118BF10BD01210802B6
:10379000FFF7FAFCBDE8104000214FF48070FFF7FE
:1037A000F3BC01210846FFF707FD0021BDE81040EA
:1037B0000120FFF701BD01210220FFF7E5FC0021F8
:1037C000BDE810400220FFF7DFBC01210846FFF7EB
:1037D000DBFC0021BDE810400120FFF7D5BC012132
:1037E0000420FFF7D1FC0021BDE810400420FFF7C2
:1037F000CBBC01210820FFF7C7FC0021BDE8104029
:103800000820FFF7C1BC01211020FFF7BDFC0021FB
:10381000BDE810401020FFF7B7BC01212020FFF7C2
:10382000B3FC0021BDE810402020FFF7ADBC012112
:103830000220FFF7C1FC0021BDE810400220FFF785
:10384000BBBC01210804FFF7B7FCBDE81040002114
:103850004FF48030FFF7B0BC01214804FFF7ACFC07
:10386000BDE8104000214FF40030FFF7A5BC012156
:103870008804FFF7A1FC002101E006E00FE0BDE8AD
:1038800010404FF48020FFF797BC01214020FFF744
:103890007BFC0021BDE810404020FFF775BC0121F2
:1038A0008020FFF771FC0021BDE810408020FFF769
:1038B0006BBC30B40589B0F818C0048C25F007053E
:1038C00029432CF0030C2CF4407C40F201154CEA07
:1038D000050C4FF6FF7505EA031324F022041A4382
:1038E00022430181A0F818C0028430BC7047818255
:1038F000704702460020128A0A4218BF0120704712
:1039000070B40D884C88B1F804C00B894FF6FF7273
:1039100055B3042D44D0082D058C67D025F480556F
:103920000584868B058C26F4734602EA0C2C4CEA3F
:10393000060C02EA033343EA0C0302EA043425F4DA
:10394000204C4CEA040C4CF4805C8383A0F820C02B
:103950008979838B23F440638383838B02EA01217B
:103960001943818370BC7047058C25F001050584DF
:10397000068B058C02EA031226F0F30642EA0C02DB
:10398000324325F00A03234343F0010302830384F7
:10399000C988028B22F00C020283028B114322E0C1
:1039A000058C25F010050584068B058C26F47346DE
:1039B00002EA0333334302EA0C2C4CEA030302EA23
:1039C000041425F0A00C4CEA040C4CF0100C0383FA
:1039D000A0F820C08979038B23F440630383038B11
:1039E00002EA01211943018370BC704725F48075F8
:1039F0000584868B058C02EA042402EA031226F071
:103A0000F30642EA0C02324325F42063234343F4D5
:103A1000807382830384C988828B22F00C028283A4
:103A2000828B11439DE70021018041800122828029
:103A3000C18001817047002A828914BF114322EAA4
:103A400001018181704710B4028C22F001020284CE
:103A5000038C8288B0F818C00C882CF0730C44EAF0
:103A60000C0C8C8923F0020323434C882343A0F1E0
:103A70008044B4F580341CBFA0F18044B4F5823496
:103A80000DD1CC8923F0080323438C8823F0040351
:103A900023430C8A22F4407222434C8A22438280C0
:103AA000A0F818C089684163038410BC704730B423
:103AB000028C22F010020284038CB0F804C0028B46
:103AC0000D8822F4E6444FF6FF7202EA05252C43E6
:103AD0008D8923F0200302EA05152B434D8802EA65
:103AE00005152B43A0F18045B5F580351CBFA0F12D
:103AF0008045B5F5823517D1CD8923F0800302EAE0
:103B000005152B438D8823F0400302EA05152B434E
:103B10000D8A2CF4406C02EA850545EA0C0C4D8AAE
:103B200002EA850242EA0C0CA0F804C0048389680A
:103B30008163038430BC704730B4028C22F48072FD
:103B40000284028C8388B0F81CC00C882CF0730CA3
:103B500044EA0C0422F4007C8D894FF6FF7202EADD
:103B6000052545EA0C0C4D8802EA052545EA0C0CB2
:103B7000A0F18045B5F580351CBFA0F18045B5F5B5
:103B8000823517D1CD892CF4006C02EA052545EA6F
:103B90000C0C8D882CF4806C02EA052545EA0C0C8F
:103BA0000D8A23F4405302EA05152B434D8A02EA9D
:103BB00005121343838084838968C163A0F820C001
:103BC00030BC704730B4028C22F480520284048CE2
:103BD0008288838B0D8823F4E64C4FF6FF7303EA4B
:103BE000052545EA0C0C8D8924F4005403EA0535BB
:103BF0002C434D8803EA05352C43A0F18045B5F5EB
:103C000080351CBFA0F18045B5F5823505D10D8A00
:103C100022F4804203EA85131A438280A0F81CC074
:103C200089680164048430BC7047018582827047D2
:103C3000828822F0700282808288114381807047DE
:103C40004163704781637047C16370470164704787
:103C500010B402881C4BDFF874C0984218BF60454E
:103C600011D0B0F1804F1CBFA0F18044B4F5806446
:103C700009D0A0F18044B4F500641CBFA0F18044D9
:103C8000B4F5406403D14C8822F070022243A0F1C5
:103C90008044B4F580541CBFA0F18044B4F5A05416
:103CA00003D00C8922F44072224302804A68C26227
:103CB0000A880285984212BF6045897A01860121EF
:103CC000818210BC704700000000014000040140E8
:103CD0004FF0FF31416000210180018141808172FC
:103CE000704700210160416001817047002101603F
:103CF000818070470A6802600B79037170470A6817
:103D000002608B8883807047C9B241EA012141EA91
:103D1000014101607047C9B241EA012141EA014114
:103D2000016081807047C9B241EA012141EA014145
:103D300001604160704712F0004F1FBF22F0004247
:103D4000D21D22F00703102202BFD21C22F003036F
:103D50000C221BB103EB020C8C4501D901207047EA
:103D6000024401448360C0E90021C91AD018884286
:103D70009CBF10600246F9D90020106070473038AF
:103D80000A2801D201207047002070471DF078BB3F
:103D90002DE9F0470027DFF8909000280CDA23493E
:103DA000D9F8002020F000400968024401EB4101ED
:103DB000B2EB910F18D8012705460F3020F003060B
:103DC0000FB9FDF702FA1A4CD4E90002011B891A57
:103DD000B1420CD2044600680028F5D127B9FDF79E
:103DE000E7F90020FDF730FA0020BDE8F08772B156
:103DF000101921680160206000F10808C0F8046013
:103E0000D9F800103144C9F8001027B105E004F1D9
:103E100008086660F4E7FDF7CBF9A8F80050002029
:103E2000A8F802004046E0E7640E00209C0D002048
:103E3000802100202DE9F04707468946904600265C
:103E4000284C294D0BE0207838B10422394604F182
:103E50000A001CF03BFC012835D00E34761C288863
:103E60008642F0DB214938461CF05AFBD0B91F4886
:103E700004220021001D1CF04FFC10B10020BDE801
:103E8000F0870026174C0AE0207830B10622494618
:103E9000201D1CF01BFC01281AD00E34761C28882B
:103EA0008642F1DB404600F027F80028E7D00D49B4
:103EB000C0EBC00001EB40040E3C0422394604F183
:103EC0000A001CF013FC06224946201D1CF00EFCC3
:103ED00007480088E07007480078A0700320207031
:103EE0000120CCE7601F0020920D0020241F00203D
:103EF000940D00208C0D0020F0B5054601211648D8
:103F00000E46164A03E0037853B10E30491C13885D
:103F10009942F8DD1248104B0488002001210DE081
:103F2000067045700846F0BD5F78012F04D1DF7838
:103F3000A74201D83C4608460E33491C1788B942AF
:103F4000F2DD0028EFD0044AC0EBC00102EB4101D2
:103F500001F80E6D4D70F0BD601F0020920D002025
:103F6000940D00202DE9F04781460F4600253D4C79
:103F70003D4E0BE0207838B10422494604F10A0096
:103F80001CF0A4FB012815D00E346D1C308885422E
:103F9000F0DB364948461CF0C3FADFF8C880334DE1
:103FA00001284FF0040209D00021281D1CF0B4FBA9
:103FB000E8BB1DE0207803284ED350E04946281D79
:103FC0001CF084FB012806D104220021281D1CF0CE
:103FD000A3FB00B900273846FFF78EFF06003CD050
:103FE000C6EBC60108EB41040E3C042249461DE025
:103FF00000271C4C0BE0207838B10422291D04F165
:104000000A001CF063FB0128D4D00E347F1C3088DA
:104010008742F0DB0020FFF76FFF06001DD0C6EBE4
:10402000C60108EB41040E3C0422291D00E013E008
:1040300004F10A001CF05AFB06220D49201D1CF059
:1040400055FB0C480078A0700B480078E0703046B3
:1040500000F036F9022020700020BDE8F0872046ED
:10406000FBE70000601F0020920D0020241F0020AD
:1040700030F304088C0D00208D0D002070B50D4626
:10408000064604220E491CF021FB012814D03046BC
:104090001CF058FA01280FD029463046FFF762FF7E
:1040A000040008D00422314604F10A001CF00EFB83
:1040B000012802D002E0002070BD6570012070BDB3
:1040C0002CF304082DE9F0470026DFF8D480DFF850
:1040D000D490B246344F5DE0B9F80050691C89B203
:1040E000A9F800103A88914201D3A9F800A02F49FD
:1040F000C5EBC50001EB40042078C8B3E07820B1DF
:10410000401E10F0FF00E07043D1607801280AD112
:104110000422274904F10A001CF0D8FA012806D02D
:104120006078012818D010F0FF0F02D031E084F839
:1041300001A004221F4904F10A001CF0C7FA01285B
:1041400017D02078032818D0A07800B3401E10F0B4
:10415000FF00A0701BD012E02078032817D0A078B1
:10416000A8B1401E10F0FF00A07010D0022005E0A2
:104170000FE011480088E0700BE00420207098F8F0
:104180000000E070681CBDE8F04700F099B884F8C2
:1041900000A0761C388886429EDBBDE8F0870000D0
:1041A0008D0D00207C0D0020920D0020601F00204E
:1041B000281F00202CF30408940D00202DE9F04165
:1041C00006460025134C00F10E08134F0DE0207831
:1041D00048B1012807D0042204F10A0140461CF02E
:1041E00075FA012806D00E346D1C38888542EEDB46
:1041F000BDE8F081062206F10801201D1CF076FAC8
:1042000006480088E07006480078A07003202070FF
:10421000EEE70000601F0020920D0020940D0020AA
:104220008C0D00202DE9F04105460E462A20FFF7AF
:10423000AFFD044605F1080106220F46001D1CF0E3
:1042400055FA06221C4904F10A001CF04FFA4FF4FB
:10425000C16020824FF4807060820820A082062016
:10426000A0750420E075268304F124000622394657
:1042700006461CF03BFA05F10E0104F12A00042267
:1042800005461CF033FA06220B4904F11A001CF013
:104290002DFA0422094904F120001CF027FA01221A
:1042A00031462846FFF7C6FD2046FCF77DFF204635
:1042B000BDE8F04116F000B9A00D0020241F002039
:1042C00070B505462A20FFF763FD04460622234900
:1042D000001D1CF00BFA0622214904F10A001CF013
:1042E00005FA4FF4C16020824FF48071618208208A
:1042F000A0820620A0750420E075218306221849BB
:1043000004F11A001CF0F2F90422164904F120000D
:104310001CF0ECF94FF0060265B1002104F1240015
:104320001CF0F2F91049C5EBC50001EB4001042275
:10433000091F06E0094904F124001CF0D7F90949D6
:10434000042204F12A001CF0D1F92046FCF72CFFCE
:104350002046BDE8704016F0AFB8000030F3040806
:10436000A00D0020241F0020601F002010B504466F
:1043700000680AF033FA60680AF030FA2169A06830
:104380000DF08CF8002020646064A064606210BDB1
:104390000146034810B5806805F092F810BD000092
:1043A000D40B00200648016891F82010002908BFAE
:1043B000704740680322416802201DF0CBBA00001C
:1043C000900F0020C0F3033003490C288CBF08680D
:1043D00051F820007047000068010020002804BF49
:1043E0004FF0FF30704752EA030108BF42F2222229
:1043F00022F07F42110A120642F00202C0E90021B7
:10440000034981606FF07F41C16000207047000068
:104410000A000163002804BF4FF0FF30704710B559
:10442000383004A1FDF714FC002818BF4FF0FF300E
:1044300010BD00004558540026F0C6B926F03CBA1D
:1044400026F062BA10B5040008BF1D4C40221D4979
:104450001D4826F033F91B481C4990F9002091F9BA
:1044600000309A4209D190F9012091F901309A4225
:1044700003D18978807881420AD014494022A1F181
:10448000080026F057F940220E490F4826F016F989
:10449000207926F0C7F810B1206870B1804726F067
:1044A000EFFA10B1206840B1804726F07DFA10B1D4
:1044B000206810B18047002010BD4FF0FF3010BDC4
:1044C000D8C20408D4100020E0C20408E8C20408DE
:1044D00026F0DAB80020704726F05ABB26F074BBED
:1044E00026F08EBB26F006BC26F020BC26F064B970
:1044F0002DE9F04186B017460D46044610F092FFB4
:1045000010F08AFF8046E06800286ED000264FB188
:10451000F80717D0E08B322811D9608B40F4804027
:10452000608310E020692D1A02D505F5803504E07E
:10453000B5F5803F01DBA5F58035E68310E0401C32
:10454000E08300E0E683B8070AD5208C322804D93E
:10455000608B40F40040608303E0401C208400E056
:104560002684A07E800719D5F4B32FB9207F00B927
:1045700065606068A84201D0267750E0207F401C2B
:10458000C1B2217703294AD36560A56066612560C1
:104590002677608B20F00201618340E027BB6068D2
:1045A000281A1CF0C9F870306560E0280AD8A068A5
:1045B000281A1CF0C1F840B1A56060612168084468
:1045C000206002E0608C401C6084D8E900014FF458
:1045D0007A720023FCF7BEFF1A4320D1608C18B119
:1045E00002960396049601E019E01BE00596207EF2
:1045F000ADF80E00608C04908DF80C608DF80D60A5
:104600000A2102200FF09EFD029005F0F3FB02A9A3
:10461000002300911A46022105F0B8FB6684216848
:10462000E068484306B0BDE8F081002804D0418C22
:10463000B1F57A7F01D00020704700214184418B81
:1046400041F480414183012070470161418B21F099
:10465000010141F00201418370470021C1830184BF
:10466000418B21F4404141837047408B00F440402E
:104670007047408B08B1002070470120704710B58B
:10468000044607F037FF01232422042107F03CFFF2
:1046900000280DD000210476016041608160016135
:1046A000C1604161C1830184017707224283418453
:1046B00010BD418B21F0020121F4404141F0010184
:1046C00041837047002901DD012101E04FF0FF31F6
:1046D000C160418B21F0040141837047002804BF71
:1046E0006FF00100704700210170084670470028F4
:1046F00012BF00296FF00100704791E80E1080E8AA
:104700000E100020704710B50A464FF0FF3458B322
:104710000178012907D002290FD0032904BF0178AD
:10472000032913D023E00178012920D1D0E9011019
:10473000D0B115F0E4FC044619E00178022916D145
:10474000D0E9011080B115F0C8FC0CE0D0F80CC025
:104750004168806841B1BCF1000F06D013460246A3
:10476000604615F0A3FC044601E00024884720467B
:1047700010BD002818BF0078704710B507F0BAFECA
:1047800001231022042107F0BFFE0021017010BD9B
:10479000002804BF6FF0010070474FF0030C80F851
:1047A00000C0C360C0E9011200207047002804BFA8
:1047B0006FF00100704701230370C0E9011200206F
:1047C0007047002818BF40687047002818BF00686D
:1047D00070470000002819BF0029002B6FF001006E
:1047E00070472DE9F84F0446994617460D4618467E
:1047F0000AF04AFC28460AF0C1FB804628460AF027
:10480000C1FB064640460AF0D2FC002804BF4FF028
:10481000FF30BDE8F88F56B16068002800F00881CD
:1048200005F14002394602F029FF00F001B90022EB
:10483000114640460AF081FC696805F120022068B3
:1048400009F06AFB00281CBF05F1200009F063F89D
:1048500005F120084846A6680AF016FC0024286BDB
:10486000274600284ED06878012860D0287810F0BC
:10487000200F3ED099F800004C4620F00300401C69
:1048800089F80000687889F8010000BF05F1200070
:1048900004F1200B90E80F168BE80F162878C1085A
:1048A000207861F3C30020702978090961F3820040
:1048B0002070678068686060207810F0080F14BF6F
:1048C000E8684FF0FF30E060207810F0040F04BF7C
:1048D0004FF0FF30014603D015F046FA15F051FABB
:1048E000C4E9040100231A46214604F140000AF0FD
:1048F00041FC286B00284BD06878032818BF052896
:1049000023D028E0287810F0200FF2D099F800008A
:104910004C4620F00300401C89F80000A9F8027002
:104920006868C9F80400687889F80100AEE70220D9
:1049300089F8010028784C4610F0200FA6D0207886
:1049400020F00300401C2070A0E705F1200009F0D2
:1049500055F900286CD0404609F032F8012804D1FE
:104960001EB1404609F012F868B1ADF800706878E1
:1049700005F1200705F14006062859D2DFE800F0CE
:10498000582A3B093B092246294630460AF016F8C8
:104990004EE005280CD03A696888A96812889042D0
:1049A00046D133460122384609F0C8F8F0BB05E08D
:1049B00032460121384609F087F8F7E7287810F0E9
:1049C000200F18BF002C33D0207820F00300801C6B
:1049D00020702DE06B4600213846A26808F0ACFF3D
:1049E000BDF800006080A4F84200A068A0642078B0
:1049F00020F0030019E0334602223846A96809F086
:104A000007F96878022803D13146384609F04EF894
:104A1000287810F0200F18BF002C09D068780428DF
:104A200006D1207820F00300801C00E000E0207018
:104A30000020BDE8F88F000038B5124D040007D102
:104A400005F0D8F9104B11A20421009505F09EF94C
:104A500005F0D0F900952168002918BF01210A4B03
:104A600011A205F087F907F045FD01230C2204216E
:104A700007F04AFDD4E90012A3688360C0E9001280
:104A800038BD000018C10408ECD10408656F5F61EF
:104A900067656E745F4E657728293A204E554C4CF9
:104AA0002063666700000000656F5F6167656E7474
:104AB0005F4E657728293A204E554C4C2063666737
:104AC0002D3E6E7673657400002818BF002B03D04E
:104AD000002918BF002A02D16FF0010070472DE9AC
:104AE000F04383B01C4615460E4618460A9F0AF04E
:104AF000CBFA287820F0C3008DF8000068788DF894
:104B000001006888ADF802006868019068780AF0D2
:104B10004EFB002802BF4FF0FF3003B0BDE8F0832A
:104B200096E80F1304F1200E8EE80F13DDE9000163
:104B3000C4E9000168460AF0F2FA012818BF002013
:104B400010D1A86830B16A886280A968A068FCF7B3
:104B500075FF08E002AB00213046A26808F0ECFEC9
:104B6000BDF808006080287810F0080F14BFE868CE
:104B70004FF0FF30E060287810F0040F04BF4FF0D2
:104B8000FF30014603D015F0EFF815F0FAF8C4E94C
:104B900004012FB16288617820680AF094FA3880A5
:104BA00003B00020BDE8F083002812BF00296FF099
:104BB000010070472DE9F04F0646994885B00C4634
:104BC0004078012804BF304600F034F920780628E8
:104BD00082BF4FF0FF3005B0BDE8F08F252221469F
:104BE00006F10800FCF72AFF002286F82E20FF209D
:104BF00086F82D0086F8302086F82F00009201926A
:104C0000307A174613464FF00109002888BFEC465A
:104C10004AD900BF02EB420006EB400111F8090F30
:104C2000002818BF01281AD14878FF2805D01CF8A1
:104C30000040002C08BF0CF80090FF280FD07468CB
:104C4000C01C205CFF280AD006EB40005B1C90F8DB
:104C50002E40DBB2641C80F82E4080F82D70C8789E
:104C6000002818BF01281AD10879FF2805D01CF8A0
:104C70000010002908BF0CF80090FF280FD07168C1
:104C8000C01C085CFF280AD0591C06EB4000CBB2C0
:104C900090F82E10491C80F82E1080F82D70501CB2
:104CA000C2B2307A9042B5D870680078834265D835
:104CB0000022304606F131011FF0D0FC01223046BF
:104CC00006F13A011FF0CAFC56484FF0000BB046FF
:104CD0000FC88DE80F0096F8330006F131055C46E9
:104CE0004FF0050A002837D9687810B1012809D09B
:104CF00032E08DF80C708DF800A0019702978DF8C6
:104D00000D7008E08DF80C9077208DF800A00197C9
:104D100002978DF80D0028198DF80E708179FF2902
:104D200004D041490191811D02910CE0BBF1000FBB
:104D300008BF3E4904D0BBF1000F18BF3C4900D06A
:104D40000191CDF808804079694617F0C3FE601CD8
:104D5000C4B2A878A042C7D832480024B0460FC8D1
:104D60008DE80F0096F83C0006F13A054FF0010B74
:104D7000002837D9687810B1012809D032E08DF8C1
:104D80000C708DF800A0019702978DF80D7008E067
:104D90008DF80C9077208DF800A0019702978DF880
:104DA0000D0029198DF80E708879FF2804D01E484F
:104DB0000190881D02900CE0BBF1000F08BF1B485A
:104DC00004D0BBF1000F18BF194800D00190CDF8F6
:104DD00008804879694617F07DFE601CC4B2A87847
:104DE000A042C7D85FF0000505EB450006EB400484
:104DF00014F8090F022804BF607817F0ADF9E078C5
:104E0000022804BF207917F0A7F9681CC5B2062D47
:104E1000EAD3034880F8019005B00020BDE8F08F88
:104E2000580C0020C4EC0408274704082D47040848
:104E300041470408002804BF6FF0010070472DE9C6
:104E4000F0412C4F04467878002808BFBDE8F08177
:104E500004F13A0694F83C000025002808D970199E
:104E6000407917F065FD681CC5B2B078A842F6D845
:104E700094F83300002504F13106002808D9701990
:104E8000407917F055FD681CC5B2B078A842F6D835
:104E90000025FF2684F8315084F8326084F83350BE
:104EA00084F8345084F8356004F136003146FEF75A
:104EB0002BFF84F83A5084F83B6084F83C5084F827
:104EC0003D5084F83E6004F13F003146FEF71CFF80
:104ED00084F82E5084F82D6084F8305084F82F60C8
:104EE000252104F10800FCF78CFE25727D7000205E
:104EF000BDE8F081580C0020002804BF6FF00100CD
:104F000070472DE9FF4F8DB004460E98002500EB49
:104F1000400004EB40000095D0F809100491B0F86F
:104F20000D00ADF814009DF81000DDF868B01E46C5
:104F30001746A94604F1350A4FF0FF38FF280AD07A
:104F400008B3012871D0022804BFCDF80080156095
:104F500003D0032868D0C2F800809DF81300FF2812
:104F600000F02B8100286ED0012800F0ED8002288F
:104F700004BFCDF80080356000F02181032800F0E7
:104F80000D8100F01AB99DF8119060684844C0780E
:104F900018B1012806D000F0E0B8514606A8FEF787
:104FA000A9FE06E0D4F83E000690B4F84200ADF841
:104FB0001C0060680DF1190148445A46407A405C73
:104FC000694617F0FBFC5FEA000955D10022009802
:104FD0001146092320FA01FC8CEA020201F1010CBE
:104FE00020FA0CFC891C8CEA02025B1ED2B213F080
:104FF000FF03EFD112F0010F0BD03D609BF80000D2
:1050000040F002008BF8000011B04FF0FF30BDE817
:10501000F08F00F03801202914BF0125C0F38B1058
:10502000EBD100903CE000E02CE09DF8119060682E
:105030004844C07810B1012806D08EE0514602A83D
:10504000FEF758FE07E032E0D4F83E000290B4F8D4
:105050004200ADF80C0060680DF1090148445A4661
:10506000407A405C694617F0A9FC5FEA000904BF7A
:105070000098C0F30F10D4D00220386011B0484619
:10508000BDE8F08F9DF8110015F0DAFB0090B0F14B
:10509000FF3F04BF4FF0FF39C7F800803FF45DAF1A
:1050A0009DF812200E991FF055FB386055E79DF8CA
:1050B000147060683844C07810B1012805D04CE005
:1050C00051460AA8FEF716FE06E0D4F83E000A9004
:1050D000B4F84200ADF82C0060680DF129013844A5
:1050E0005A46407A405C694617F068FCD0BB002203
:1050F000DDF800001146092320FA01FC8CEA0202C7
:105100004C1C20FA04FC891C8CEA02025B1ED2B201
:1051100013F0FF03F0D112F0010F0BD035609BF8B4
:10512000000040F002008BF8000011B04FF0FF309B
:10513000BDE8F08F00F03801202914BF0125C0F32D
:105140008B10EBD1009031E09DF814106068451889
:1051500001A8E97839B1012909D011B04FF0FF3029
:10516000BDE8F08F15E05146FEF7C4FD03E004F101
:105170003E01FEF7C4FD687A0DF105015A46405C18
:10518000694617F01BFC002804BF0098C0F30F10FD
:10519000D8D00221316011B0BDE8F08F9DF8140025
:1051A00015F04EFB0090B0F1FF3F06D09DF81520A2
:1051B0000E991FF0CFFA306001E0C6F8008011B000
:1051C0004846BDE8F08F000010B50D4C207801284E
:1051D00004BF0B4810BD17F065FD6060002808BFD4
:1051E00010BD002084F82E00FF2184F82D1084F8D3
:1051F000300084F82F1001202070014810BD0000FD
:10520000580C0020002804BF6FF00100704770B5F3
:10521000044690F8350000250126FF280AD0A56431
:105220001CF000FFC4E9120184F8316094F83500E5
:1052300017F0C8FC94F83E00FF280AD0A5661CF0C1
:10524000F1FEC4E91A0184F83A6094F83E0017F0C0
:10525000B9FC002070BDE8B190F83510FF2990F836
:105260003E100AD0FF290FD090F83A10022904BF4F
:1052700090F8310002280DD00AE0FF291CBF90F8F9
:105280003A00022804D105E090F83100022801D04C
:10529000002070470120704702480068002818BFAE
:1052A000004870474C0100202DE9F843264C054684
:1052B0000F462068002841D104F09CFD234900914D
:1052C000002D14BF01210021214B22A204F052FD28
:1052D00028786E78DFF8A480022803D1FF2E18BF4B
:1052E000656008D104F086FD194B25A20421CDF894
:1052F000008004F04BFDA7602675002E04BF00203F
:10530000206112D0012E08BF4FF4004019D0022EA8
:1053100008BF4FF4003014D004F06CFD0C4B22A2F7
:105320000421CDF8008004F031FD29480090294B7C
:10533000294A2A492A4814F0A1FA20600248BDE807
:10534000F8832061F1E700004C01002018C1040837
:10535000B0C20408656F5F61726D656E765F496EFD
:10536000697469616C69736528293A204E554C4C03
:10537000206D6F64696E666F0000000038C104081C
:10538000735F656F5F61726D656E765F7072657079
:1053900061726528293A2077726F6E67206D6F649D
:1053A000696E666F00000000735F656F5F61726D0C
:1053B000656E765F7072657061726528293A207536
:1053C0006E737570706F727465642070726F6300B5
:1053D000ED470408FD4704087D480408DD4704083C
:1053E000F148040800281ABF002A002B70472DE955
:1053F000F0411D4617460E46294402784B1E0446CE
:105400009342A8BFBDE8F081A078834216DBC9B201
:10541000884213D08A4211D3814232BF8C468446DF
:105420000846A1706278211DA0EB0C0313FB02F06B
:105430001CFB021201461046FCF7C1FB6178201DDF
:1054400016FB010011FB05F23946BDE8F041FCF7FF
:10545000F5BA00281CBF82788A429CBF00207047A2
:105460004278001D11FB02007047002808BF7047FA
:1054700001788078081AC0B27047002818BF0078F9
:10548000704728B18178007881421CBF00207047A6
:1054900001207047002818BF407870472DE9F0417F
:1054A00006460F4610FB07F54FF00008002A1CBF08
:1054B000144682F803800AD107F01CF8291D8AB22D
:1054C0000123042107F020F804460120E070267033
:1054D000677084F802801CB12946201DFCF76FFB21
:1054E0002046BDE8F081002812BF00296FF00100BE
:1054F000704710B5044680782278904204BF4FF080
:10550000FF3010BD6278231D10FB0230FCF796FAC5
:10551000A078401CA070002010BD002804BF6FF0D0
:105520000100704710B50021817010F8011B10F8C0
:10553000032B11FB02F1FCF742FB002010BD0028F9
:105540001ABF83788B42704702788A4238BF70470F
:10555000994232BF0A461A460B46817000F1040C8C
:105560004078991A11FB00F112FB00C0FCF727BB31
:10557000002818BF8078704710B504462DED028BC7
:10558000B0EE408A90F9660003281AD094F867209C
:10559000012A07D1012814D0022812D0082810D0DF
:1055A00009280ED0206808F0DBFEB4EEC80A206897
:1055B000F1EE10FA26D200BF08F0D2FEB0EE408A1B
:1055C0002EE0D4ED120A6068B8EEE01A00EE901AF0
:1055D000F8EEE00A08F014FFB0EE408A606808F0C8
:1055E000BFFEB4EEC80A6068F1EE10FAE4D308F02A
:1055F000B7FEB1EE400AB4EEC80AF1EE10FA0FDDC4
:10560000606809E008F0ACFEB1EE400AB4EEC80AEA
:10561000F1EE10FA04DD206808F0A2FEB1EE408A37
:10562000B0EE480ABDEC028B10BD2DE9F0410546F5
:1056300090F966000C460026C8B150281ED004F12F
:105640000C07391D8846032822D095F867000128E9
:10565000A86824D00BF044FCC4E90006E660286882
:1056600004F108024146BDE8F04108F07CBE266026
:105670006660A660E6600E61BDE8F08135F9600FF6
:10568000C4E90006A660E660B5F900000861F3E72A
:105690002660686CC4E901063A466868E3E70BF0E7
:1056A0001FFC2060686CC4E901063A466868D9E7C7
:1056B000002801D0D0F884007047002800D000698D
:1056C0007047002800D04069704770B50C4605004F
:1056D00014D095F8670084F8250095F8660084F8E2
:1056E0002400284600F00BF884F826002869206082
:1056F000686960600020A060286BE06070BD90F970
:105700006610012903D0082901D000207047806865
:105710000BF01EBC002800D080687047002804D021
:1057200090F8680040F30000401C704790F8660055
:105730000A2801D00020704701207047B0F86800A7
:10574000C0F38030704770B5054606F0D3FE0123E4
:105750008822042106F0D8FE040046D0257308F004
:1057600015FE206008F012FE60600BF001FCA060E6
:10577000002084F82000E0634FF40041E1612064E0
:105780006064A064E06420652063A16164226063BA
:1057900084F83820A065E065A4F86000A4F86200F1
:1057A000A4F864000B2384F8663084F867000323B0
:1057B00084F854306062A062A28520616722606133
:1057C000A4F86820FF22C4F8840084F86A20E06608
:1057D000A4F87000A4F87200C4E91D10E06784F812
:1057E000800084F8820084F88100204670BD0000AB
:1057F0002DE9F04704462DED028B0F46D4E90462F3
:1058000090F8381090F9660084B000259FEDBC8AAE
:1058100019B1491E84F8381011E065632563A56449
:10582000656403281DD094F86710012907D1082862
:1058300017D0022815D0092813D0012811D004F15F
:10584000340904F1480A4FF0010808287BD012DC23
:1058500000F1020006280DD2DFE800F0160C367DBC
:1058600075F43D7034F8680F40F4804024F8020964
:105870000A20207040E109286DD00A28FAD00B28B0
:10588000F8D05028F6D12DE094F86A00052801D010
:105890000828EFD194F882000128EBD094F8810019
:1058A00040B1A06FD4F88410301A0844E06784F83F
:1058B000828021E184F881802046FFF72FFF0028B5
:1058C000D8D194ED1B0A36E000233146A0680BF0D6
:1058D00015FB94F8670018B10020387065620BE181
:1058E0000120FAE700233146A0680BF007FB87F898
:1058F00000806562A1694046B14202DAE169B142C5
:1059000010DCB4F8621019B9B4F86010A4F8621091
:10591000B4F9621000EBE170B4F96010B0EBD17F24
:1059200076D104E0A4F86250A4F872506667B4F926
:10593000600000EE100AB8EEC00A04B0BDEC028BA5
:10594000BDE8F087FFE7E06B10B1401EE06302E0C6
:10595000A0680BF0A5FD02AB01AA6946A0680BF098
:1059600095FC00EE106ADDED000A94F86710B8EEC1
:10597000C00A30EEC00ABDEEC00A10EE100A79B3BC
:105980003D70A16D4FF47A72414391FBF2F1656A6B
:10599000E36D226D451B03FB0522114461646062C7
:1059A000207B494602F03CFE207B514602F0EEFE91
:1059B00094F85400B0EE480A03281DD0012828D0DE
:1059C000022832D00028B8D194ED0D0A6068F8EEB4
:1059D000C00A94ED120AB8EEC00A08F039FDACE72F
:1059E000FFE700EE100A87F800806062B8EEC00A98
:1059F000206808F0A5FEA0E794ED0D0A6068F8EEB7
:105A0000C00A94ED120AB8EEC00A08F031FE94E71D
:105A100072E094ED0D0A6068F8EEC00A94ED120A87
:105A2000B8EEC00A08F0BCFD87E794ED0D0A606887
:105A3000F8EEC00A94ED120AB8EEC00A08F048FD6C
:105A40007BE7FFE73D706562206C08B1401E206473
:105A5000207B494602F0E4FD207B514602F096FE91
:105A600094F85400B0EE480A032815D0012823D03A
:105A7000022831D00028B2D194ED0D0A6068F8EE0A
:105A8000C00A94ED120A04B0BDEC028BB8EEC00A55
:105A9000BDE8F04708F0DCBC94ED0D0A6068F8EE54
:105AA000C00A94ED120A04B0BDEC028BB8EEC00A35
:105AB000BDE8F04708F0DCBD94ED0D0A6068F8EE33
:105AC000C00A94ED120A04B0BDEC028BB8EEC00A15
:105AD000BDE8F04708F064BD94ED0D0A6068F8EE8B
