:020000040802F0
:1000000050DE0120D9040208E1040208E3040208DA
:10001000E5040208E7040208E90402080000000001
:10002000000000000000000000000000C103020802
:10003000ED0402080000000061040208C504020883
:10004000F3040208F3040208F3040208F3040208AC
:10005000F3040208F3040208F3040208F30402089C
:10006000F3040208F3040208F3040208F30402088C
:10007000F3040208F3040208F3040208F30402087C
:10008000F3040208F3040208ED350208333D0208C8
:10009000AD3C0208F30402082D3D0208F3040208F7
:1000A00081A40208F3040208D5A40208F30402089C
:1000B000F3040208F3040208F3040208F30402083C
:1000C000F3040208F3040208F30402082DA1020855
:1000D00033A10208F3040208F3040208F30402083F
:1000E0000D460208F3040208F3040208F3040208B0
:1000F000F30402084DA50208F3040208F304020801
:10010000F3040208F3040208F304020839A1020808
:10011000F3040208F3040208FDA4020825A502085E
:10012000F3040208F3040208F3040208F3040208CB
:10013000F3040208A1440208F3040208BF3D0208C8
:10014000393D0208F3040208B93D0208F30402082D
:10015000F3040208F3040208F3040208F30402089B
:10016000F3040208F3040208F3040208F30402088B
:10017000F3040208F3040208F3040208F30402087B
:10018000F3040208F304020800F002F800F02AF871
:100190000AA090E8000C82448344AAF10107DA45E2
:1001A00001D100F01FF8AFF2090EBAE80F0013F00A
:1001B000010F18BFFB1A43F0010318479496030080
:1001C000B49603000023002400250026103A28BF1F
:1001D00078C1FBD8520728BF30C148BF0B607047B9
:1001E00010B510BD02F06FFD114600F08CF826F03E
:1001F00077FB02F095FD000000487047F03D0020BD
:1002000002020236E0971D3E0000020800000600D0
:1002100000000020C0FF01000000000000000000FE
:100220000761454D533030636572000000000000E7
:1002300001000100010000004558540000000000CA
:100240004F637420203520323031362031353A3139
:10025000363A3230000000000000000000000000CC
:10026000000000000000000000000000000000008E
:10027000000000000000000000000000000000007E
:100280000A444FF0000C10F8013B13F0070408BFBC
:1002900010F8014B1D1108BF10F8015B641E05D05A
:1002A00010F8016B641E01F8016BF9D113F0080F0F
:1002B0001EBF10F8014BAD1C0C1B09D16D1E58BFA1
:1002C00001F801CBFAD505E014F8016B01F8016BD8
:1002D0006D1EF9D59142D6D37047662931F0ED866F
:1002E00003681B0A28BF41F08001642901F056828F
:1002F000782901F0B782F82901F0C282732902F04F
:10030000AE81002070471FB531F0CDFE9DE803009F
:1003100001F08AFE02F0ECF904000020002131F027
:100320002BFB401C60600020002131F00FFBE060DF
:100330001FBD03B4FFF754FF03BC02F027FD00000C
:10034000004870470020000000487047008001000E
:10035000401EFDD17047000080F309887047EFF31D
:1003600009807047684680F3098804480078C00710
:1003700014BF0220032080F31488704778100020F7
:10038000DFF818C0EFF305831B0618BF6047EFF3D3
:100390001483DB0708BF604700DF70478D8B0408BC
:1003A000DFF818C0EFF305831B0618BF6047EFF3B3
:1003B0001483DB0708BF604700DF7047058C040823
:1003C000EFF30980816911F8021C99BB90E80F10C6
:1003D00010B5E047BDE81040EFF3098C8CE807004A
:1003E0001C4B93E80600914208BF704781B11EF094
:1003F000100F06BF2CED108A0120002081F8380074
:100400002CE9F00FC1F83CC00CB429F0CDFF0CBCB6
:100410001A60D2F83CC0BCE8F00F92F8380000280F
:100420001ABFBCEC108A6FF0120E6FF0020E8CF344
:100430000988704710B5084A1268914209D8074CDC
:1004400054F8214090E80F10A047EFF3098C8CE896
:100450000F0010BD180F002050350208503502085B
:1004600010B529F09BFEBDE81040154B93E806003F
:10047000914208BF7047EFF3098C1EF0100F06BFC2
:100480002CED108A0120002081F838002CE9F00FB3
:10049000C1F83CC00CB429F087FF0CBC1A60D2F83C
:1004A0003CC0BCE8F00F92F8380000281ABFBCEC42
:1004B000108A6FF0120E6FF0020E8CF309887047ED
:1004C000180F002010B529F093FFCCE710B527F0E6
:1004D00017F929F08DFFC6E709488047094800470A
:1004E000FEE7FEE7FEE7FEE7FEE7FEE7FEE7FEE7E4
:1004F000FEE7FEE704480549054A064B7047000041
:1005000019A4020889010208503E002050DE012093
:1005100050BE012050BE0120F7B514466E4600299A
:1005200014BF0125002588480078E8B100F07AFA68
:10053000294630460AF0AEFFC5B2012C0DD18348E2
:100540000099834CC0F82610014620684022001D07
:1005500001F0C2FB206800F03DFE00F06DFA012DB5
:1005600002BF002003B0F0BD4FF0FF3003B0F0BD7C
:1005700038B56C460090002914BF0125002572484B
:10058000007860B100F04EFA294620460AF082FF5A
:10059000C4B200F051FA012C04BF002038BD4FF066
:1005A000FF3038BD2DE9F34767480D46E94600782E
:1005B0004FF0FF37F0B1674E3088D8B100F032FA13
:1005C00030880024002888BFDFF88C810FD900BF55
:1005D000C4EBC40008EB4000042249460A3001F095
:1005E0004FFB60B1601CC4B230888442F0D300F08D
:1005F00023FA11E002B04FF0FF30BDE8F087C4EB02
:10060000C40008EB4000041D00F016FA00271DB1DD
:1006100020682860A088A88002B03846BDE8F0872E
:100620002DE9F1434848E8464FF0FF360078E8B13D
:10063000484D2888D0B100F0F5F92888002400281A
:1006400088BF454F0FD900BFC4EBC40007EB400083
:10065000042241460A3001F013FB58B1601CC4B2B9
:1006600028888442F0D300F0E7F919E04FF0FF301A
:10067000BDE8F883C4EBC40007EB4000041D00F0A4
:10068000DBF906223549204601F0FAFA58B1062274
:100690003349204601F0F4FA002818BF002602D0A2
:1006A0003046BDE8F8834FF0FF36F9E70020704789
:1006B0000020704710B5254CFF2120460AF01FFD91
:1006C00028484FF4C1634FF0080C0169C4F80610C4
:1006D000828A6281A3814FF48073E381A4F810C001
:1006E0004FF0060C84F812C04FF0040C84F813C0CD
:1006F000A382C4F8161062838069E06104F12000CF
:100700000AF0ECFC0020C4F82600C4F82A00C4F863
:100710002E00C4F83200C4F836000D4AC4F83A007E
:10072000E08704F1400111602A220A80488010BD50
:1007300090F82010202984BF4FF0FF30704710B58B
:1007400000F0F3FC002010BD100E0020601D002002
:10075000080E0020D20E002028210020E04C0508C1
:10076000E64C0508E81D0020B84A126F02B1104798
:10077000FEE770B50C46B8B10546FFF797FF064691
:10078000284600F091FC0644284600F029FA064469
:10079000284600F06CFA0644284600F067FC304416
:1007A000002C18BF206070BDE120A84AA8A1126FDC
:1007B00012B19047002070BDFEE710B5A34C606FEA
:1007C000002808BF10BD80470028AB49086018BF4B
:1007D00010BDE020226FA9A112B1BDE81040104762
:1007E000FEE770B5A44D416F81B1816F974C002930
:1007F0001FBFC16F0029D0F8800000280DD0606FA6
:10080000002818D08047286080B114E0002181675B
:10081000C167C0F8801029600DE0226FE320A7A116
:100820001AB190474FF0FF3070BDFEE7226FE02015
:1008300092A112B19047002070BDFEE710B5D821FB
:10084000824801F069FB8C490020086010BD2DE949
:10085000F0417E4C8846050007D02A6F2267287831
:1008600050B1E420A0A132B12EE0226FE120ABA173
:10087000002A29D1FEE7FEE7B1480078012804D01C
:100880002846FFF755FF20B11AE0E020ADA1DAB904
:10089000FEE7D8216D4801F03FFB774F0026284640
:1008A0003E6000F01EFC58B9284600F09FF938B9A8
:1008B000284600F0E2F918B9284600F0DDFB40B107
:1008C000AA49226FE3205AB190474FF0FF30BDE8AC
:1008D000F08141462846FFF7EBFE002875D100E085
:1008E000FEE72846FFF7E2FE20F003008044414681
:1008F000284600F0DBFB002867D1284600F0D4FB37
:1009000020F0030080444146284600F06BF900289F
:100910005BD1284600F064F920F003008044414692
:10092000284600F0A6F900284FD1284600F09FF98C
:1009300020F0030000EB0801284600F099FB002896
:1009400043D1284600F092FBD82229463F4801F0C7
:100950004AFA3E4D2846FFF7ADFE002835D1686FB4
:1009600060B1A96F00291FBFE96F0029D5F8801079
:10097000002909D08047386068B111E0AE67EE67A2
:10098000C5F880603E600BE0226FE3204BA10AB106
:1009900090471AE0FEE7226FE02038A12AB1904785
:1009A000284600F085FB80B900E0FEE7284600F00D
:1009B0001BF950B9284600F05EF930B9284600F01E
:1009C00059FB002808BFBDE8F0814FF0FF30BDE8BB
:1009D000F08170B504000D4616D0FFF767FE06469D
:1009E000204600F061FB0644204600F0F9F806447A
:1009F000204600F03CF90644204600F037FB304426
:100A0000002D18BF286070BDE120104A10A1126FA0
:100A100012B19047002070BDFEE718E70020704734
:100A20000020704714480068002808BF7047074A34
:100A3000D2F88010926F10470F480068002808BF56
:100A400070470249C96F084700687047E81D0020D9
:100A50006970616C5F626173655F6D656D6F7279FE
:100A60005F67657473697A652829206E65656473AC
:100A700020612063666700000C0E00206970616CC5
:100A80005F626173655F6869645F74687265616401
:100A90007361666574795F696E697428293A2063A9
:100AA000616E6E6F7420616C6C6F6361746520742D
:100AB0006865206D75746578000000006970616C70
:100AC0005F626173655F696E697469616C697365A2
:100AD0002829206E65656473206F73616C206675CC
:100AE0006E6374696F6E73006970616C5F626173CD
:100AF000655F696E697469616C69736528293A205C
:100B0000756E737570706F72746564207463702F86
:100B1000697020737461636B000000006970616C20
:100B20005F626173655F696E697469616C69736541
:100B300028293A206D697373696E672063666700C0
:100B4000100E00206970616C5F626173655F696E91
:100B5000697469616C69736528293A20616C7265F2
:100B6000616479207374617274656400309705085C
:100B700031B524486C46007838B1234890F82C00F1
:100B800018B19DF80000EF2802D04FF0FF3038BDBB
:100B9000FFF748FF204625F0F1F9002814BF002494
:100BA0004FF0FF34FFF748FF204638BD31B51548F8
:100BB0006C46007888B1144890F82C0068B1FFF7B3
:100BC00031FF204625F002FA00280CBF4FF0FF3419
:100BD0000024FFF731FF204638BD4FF0FF3038BD0D
:100BE00000207047002070470020704790F82D10BB
:100BF000062984BF4FF0FF30704710B500F016FB98
:100C0000002010BD100E0020E81D0020224810B565
:100C1000406848B12148017801290CD001210170B8
:100C200025F044FC002010BD1DA1E120FFF79CFD34
:100C30004FF0FF3010BD24A1E020FFF795FD4FF0ED
:100C4000FF3010BD10B5FFF7EDFE25F05DFEBDE8ED
:100C50001040FFF7F1BE10B5FFF7E4FE30F046FD9F
:100C6000BDE81040FFF7E8BE0B4840687047002021
:100C7000704700207047002070470189B1F5C05FC0
:100C800084BF4FF0FF30704710B50021034A117048
:100C900000F024FB002010BDE81D0020100E0020F5
:100CA0006970616C5F7379735F7374617274282902
:100CB0003A206D697373696E6720636F6E6669674A
:100CC00075726174696F6E006970616C5F737973BE
:100CD0005F737461727428293A2063616E6E6F7459
:100CE00020737461727420616761696E0000000096
:100CF00008B1062801D900207047F0B515460A460C
:100D0000E64900EB400085B001EBC000A0F11804FB
:100D100050F8080C0A9F1E4698B11046FFF794FE43
:100D20000346E06820B1984204BF2089A84208D158
:100D30000396ADF808700095D4E904C002AA2146D4
:100D4000E04705B00020F0BD4107090EC0F3C00226
:100D500041EA0211C0F3001210B541EAC201C0F32A
:100D6000401041EA8004CE480078002808BF10BD3A
:100D7000FFF758FECB4A0121204630F0E7FCC0B116
:100D8000C64900EB400201EBC20404F8180C002035
:100D900024F8160C44F8140C24F8100C44F80C0C2D
:100DA00044F8080C44F8040CFFF746FEA4F11800C0
:100DB00010BDFFF741FE002010BD70B504001CBF40
:100DC0002078002821D0FFF72DFE6088002518B17B
:100DD000207830F09DFC6580207830F019FD0646C3
:100DE0002078AE4900EB400001EBC00000F8185C31
:100DF0002570658065602581E56025616561FFF787
:100E00001BFE002E1CBF002070BD4FF0FF3070BDD8
:100E100070B515460E4604001DBF20780028002D31
:100E20004FF0FF3008BF70BDFFF7FCFD608820B1B8
:100E3000207830F06DFC002060809849002000BFD1
:100E400000EB400201EBC2025288AA4210D0401CC3
:100E5000C0B20628F4D32078294630F09BFC10F06D
:100E6000FF0F05D065806660FFF7E6FD002070BDCE
:100E7000FFF7E2FD4FF0FF3070BD2DE9F0479046DF
:100E80000F46040019BF207800284FF0FF30BDE85E
:100E9000F087FFF7C7FD608850BB207800264546E5
:100EA000002818BF002D2DD0FFF7BCFD60884FF043
:100EB000000920B1207830F02BFCA4F8029077498B
:100EC000002000BF00EB400201EBC2025288AA42A0
:100ED00016D0401CC0B20628F4D32078294630F042
:100EE00059FC10F0FF0F0BD065806660FFF7A4FD82
:100EF000A4F80880E760FFF79FFD0020BDE8F087B9
:100F0000FFF79AFDFFF798FD4FF0FF30BDE8F0873F
:100F100010B5040019BF207800284FF0FF3010BD35
:100F2000FFF780FD00202081E060FFF785FD0020B5
:100F300010BD2DE9FF4182B098460C46050004AF74
:100F40001CBF2878002828D06888002818BF002CEB
:100F500023D0606800281CBF208800281DD0FFF720
:100F600061FD208830F0EAFB06001BD02288616812
:100F700000F0B2FE20880090287833464246394679
:100F800030F05EFC00280CBF4FF0FF340024FFF768
:100F900053FD06B02046BDE8F08106B04FF0FF30AB
:100FA000BDE8F081FFF748FD06B04FF0FF30BDE827
:100FB000F0812DE9F04383B00C4605001CBF688822
:100FC00000283CD0E86800281CBF2889002836D0BB
:100FD000FFF728FDE86801902878B5F808900DF132
:100FE00004084FF0FF3600281CBF6888002820D076
:100FF000002C1FBF606800282088002819D0FFF748
:1010000011FD208830F09AFB070010D0228861681B
:1010100000F062FE2088009028783B464A46414610
:1010200030F00EFC00280CBF4FF0FF360026FFF713
:1010300003FDFFF701FD03B03046BDE8F08303B0C8
:101040004FF0FF30BDE8F083002812BF00294FF0B9
:10105000FF30704770B516460D460446FFF7E2FCB8
:10106000C4E90456FFF7E8FC002070BD002070477B
:10107000002070470020704710B5044690F83000FB
:10108000062884BF4FF0FF3010BD9021034800F0C8
:1010900043FF204600F087F9002010BDC01E00204D
:1010A000100E0020F10C020800207047002070474D
:1010B00010B5D0F88C1000291CBFD0F89010002972
:1010C00008D0D0F8941000291FBFD0F8980000284D
:1010D000002010BD05A1E120FFF746FB4FF0FF30D7
:1010E00010BD10B500F093F8002010BD6970616C60
:1010F0005F6574685F6869645F696E697428293A1E
:10110000206D697373696E67206574682066756EFB
:101110006374696F6E730000A94890F8220001287B
:1011200018BF704700200AF0D7BA10B504464FF434
:10113000E071A44800F0F0FEA34894F82010C180AC
:10114000A249626AB2FBF1F2028194F82120027096
:10115000A26AB2FBF1F14170002010BD9848D0F8AE
:101160009C00002808BF7047004700291CBF0020D2
:1011700070471EF033BD10B5954A84B09069D2E92E
:101180000812CDE902128E4A0090907A8DF8000084
:1011900090480190904890F803C081884FEA1C2342
:1011A0000B4381784FEA0C6C4CEA014C4478007890
:1011B00043EA11414CEA042C41EA14614CEA000074
:1011C000CDE90201D2F88C10684688477E49487103
:1011D00004B010BD7A49D1F89810084710B5784C82
:1011E000D4F890008047D4F88800002808BF10BDCC
:1011F000BDE81040004710B5714CD4F884000028B9
:1012000018BF8047D4F89400BDE8104000476E49ED
:1012100002694A61808A088300207047684991F812
:101220002C10012918BF704727F0BEBB654A00216A
:10123000664BC2F8C011C2F8C411C2F8C811C2F896
:10124000CC11C2F8D011C2F8D411C2F8D811C2F82A
:10125000DC11C2F8E01142685B49B3FBF2F290F88E
:101260002D00488192B24CF6CD405043800C8870DE
:1012700000207047062806D2584901EB4011F03093
:10128000C0B2FFF771BA56A1E020FFF76DBA10B5F2
:1012900025F03CF94A4C94F82C00012808BF25F0B1
:1012A00047F994F82F00012808BF25F069F994F850
:1012B0002200012818BF10BD0020BDE810400AF030
:1012C0000BBA10B529F074F93D4890F82C000128AC
:1012D00018BF10BDBDE8104029F0C2B92DE9F0419A
:1012E000384D00260446C5F8E461C5F8E861C5F844
:1012F000EC61C5F8F061C5F8F461C5F8F861C5F8AE
:10130000FC61C5F80062C5F80462C5F80862C5F85A
:101310000C62C5F81062C5F81462C5F818624FF483
:10132000C05105F50870C5F81C6200F0F5FD05F523
:10133000C0572548C7F82862C7F82C62C681A16942
:10134000C5F8E411E169C5F8EC1105F5F271C022A8
:101350000A73A8234B738E734FF0FE0C81F80FC0F5
:101360000A744B748E7481F813C00A714B71184A59
:101370008E7181F807C0D2E90012C7E988120121F5
:10138000C17021890161114A6168B2FBF1F181816B
:101390000020BDE8F0810A4991F82F10012918BFFB
:1013A000704727F041BB10B504464821124800F0B1
:1013B000B3FD054894F830100171002010BD000005
:1013C000E81D002028210020CC0E002040420F0004
:1013D000004E0508084E0508E00E0020284E0508BE
:1013E000756E6B6E6F776E2073797374656D2065A3
:1013F00072726F7200000000583B002070B5A0FBB5
:101400000140B4F1805170F1000024BF002070BD94
:10141000204600F07DFE05001CBF214600F05AFD6D
:10142000284670BD70B516460D46041F002808BF3B
:1014300070BD002E1CBF05F10C00AFF300802B46E1
:101440005868002818BFA04238BF0346F8D319686F
:10145000CA18A24218BF5C6003D122681C4611441E
:10146000196021680A19824218BF606004D142687D
:101470006260006808442060002E1CBF05F10C006B
:10148000AFF3008070BD10B5044600F0B0FD0168F8
:101490002046BDE810400122C4E70B3020F00700D1
:1014A00070472DE9F0410F460546041F00F09FFDEF
:1014B0000668F7B1384615B3FFF7EFFFB8420546A7
:1014C0003CBF0020BDE8F08106F10C00AFF30080C6
:1014D0002268AA4238BF314615D3511B082931D39F
:1014E0006019002240F8041B31462560FFF79AFF7F
:1014F00028E02846FFF7C7FF0020BDE8F081BDE8DF
:10150000F04100F005BE4868002818BFA04238BF6F
:101510000146F8D3131983421BD103681A4495423C
:1015200017D8531B082B0AD34368621953602368EA
:1015300000681844401B106025604A6002E0226089
:101540004068486006F10C00AFF30080201DBDE844
:10155000F08100223146281F00F099FD05000AD0D5
:101560002068211D021F284600F03DFC0022314664
:10157000201DFFF757FF06F10C00AFF3008028464F
:10158000BDE8F08153EA020C00F069802DE9F04BD0
:101590004FF00006002B1FBFB3FA83F503FA05F4E2
:1015A00024FA05F65E4012BF1643B2FA82F502FA3B
:1015B00005F4C5F120051EBF22FA05FC44EA0C041F
:1015C000203556EA044C4FEA144418BF641C4FF00F
:1015D00000084FF00009904271EB030C39D3002949
:1015E00019BFB1FA81F701FA07F6B0FA80F700FAED
:1015F00007F6C7F120071EBF20FA07FC46EA0C06D3
:101600002037B6FBF4FCA7EB0507103F07F01F0BD4
:10161000CBF120060CFA0BFB2CFA06F644BFB346BE
:101620000026202FA4BF5E464FF0000B5BEA060C9D
:1016300008BF4FF0010B19EB0B09ABFB027C48EB29
:101640000608C01B06FB02CC0BFB03CC71EB0C01A4
:10165000C1E70B46024641464846BDE8F08B13B54C
:101660004FF000004FF00001AFF30080BDE81C40D8
:101670007047B2F120030AD5C2F1200301FA02F14A
:1016800020FA03F300FA02F041EA0301704700FA7E
:1016900003F14FF0000070470FB41CB5084B06AAC9
:1016A0007B4469460090059800F0A7FF044600209F
:1016B000694600F0B5FF20461CBC5DF814FB000035
:1016C0007D0F00000FB47CB50C0009AA009001D07A
:1016D0002044401E084B7B4469460190089800F066
:1016E0008CFF05461CB10020694600F099FF284692
:1016F0007CBC5DF814FB0000510F000070B504467F
:1017000085690068C10601D5302600E02026C007A3
:1017100007D070BDD4E9012130469047206A401CB3
:1017200020626D1EF6D570BD70B5044685690078DF
:10173000C00707D170BDD4E9012120209047206A5D
:10174000401C20626D1EF6D570BD70B50C46054676
:10175000012A05D02878800600D5EA69002302E036
:10176000012305E05B1C934202D2E05C0028F9D122
:10177000A869E618C01AA861286A18442862284691
:10178000FFF7BCFF04E0D5E9012114F8010B9047F5
:10179000B442F8D32846FFF7C7FF70BD2DE9F041EA
:1017A0000646002410687529314616A510D0AFF3FF
:1017B0000080002802DA404213A507E031688A075A
:1017C00001D512A502E0490704D511A5012401E0C5
:1017D000AFF3008000210A2206F1240709E0B0FBE4
:1017E000F2FCB0FBF2F302FB1C00303078541846D8
:1017F000491C0028F3D123462A463046BDE8F04173
:1018000000F090BC000000002D0000002B00000044
:1018100020000000F0B40D460188090502D51B4CDC
:101820007C4402E0194C7C440E34002100F1240673
:1018300008E002F00F071209E75D42EA03721B0994
:101840007754491C52EA0307F3D122460478002357
:10185000240704D5702D02D009B102231132F0BC47
:1018600000F060BC70B504460D4621461068AFF329
:101870000080024629462046BDE870400023C9E7A3
:10188000D21D22F00703D3E90023C3E75E3C030027
:101890002DE9F05F894604464FF0000ADFF874B185
:1018A000FB44C0F820A02046E1688847002874D097
:1018B000252806D0D4E901219047206A401C2062E7
:1018C000F1E700265F462046E16888472028054664
:1018D00007DB312D05D2781910F8200C08B106432A
:1018E000F1E7B00701D526F00406C4F81CA00027D4
:1018F000C4F818A02A2D09D0284609F04CFC38B3AA
:1019000004EB8708303DC8F8185019E059F8041B5B
:10191000204604EB87029161E1688847012F054664
:1019200018D1E069002820DA26F020061DE0D8F85A
:10193000180000EB800005EB40003038C8F81800B4
:101940002046E1688847054609F025FC0028EED1CD
:10195000012F0AD02E2D08D12046E16888477F1C30
:101960000546022F46F02006C4DBA069002803DAF2
:10197000404246F00106A061F00701D026F01006B3
:101980006C2D0BD0682D09D04C2D39D06A2D35D057
:10199000742D35D07A2D33D016E038E0E1682F462B
:1019A00020468847B842054609D16C2F26D04FF40F
:1019B0008060E168064320468847054604E06C2FB6
:1019C0001AD04FF4807006430DB3A5F141001928D9
:1019D00002D8203546F400664A462946204626604D
:1019E0004E46FEF77AFC80B101280BD0F61D26F09A
:1019F000070000F1080956E74020E4E78020D8E717
:101A00000020D6E706F104094DE7284652E7206A90
:101A1000BDE8F09F063C03000FB400B58DB010A9DF
:101A2000099000910B904FF0FF300A9000200C902D
:101A3000064878440690064878446A4607900F990D
:101A400009A800F025FE0DB05DF814FB7B0C00002A
:101A5000930C00002DE9FF5F1D464FF0FF3B9146C0
:101A60004FF000085F46D5E90146A96901987F1C3F
:101A70008847296A824688470028F6D1BAF1FF3F95
:101A80000CD0002E24F4C06419DD600614D5BAF120
:101A90002B0F09D0BAF12D0F0ED103E0584604B038
:101AA000BDE8F09F44F48064A96901987F1C8847D1
:101AB000761E8246002E02DDBAF1300F03D0B9F156
:101AC000000F26D032E0A969761E01987F1C44F4ED
:101AD00000748847002E824605DDBAF1780F06D0E3
:101AE000BAF1580F03D0B9F1000F10D01EE0B9F1D0
:101AF000000F02D0B9F1100F18D1A969761E019814
:101B00007F1C24F4007488478246102002E00820DD
:101B100000E00A20814609E0A96908FB0908761E51
:101B200001987F1C44F4007488478246002E05DD2E
:101B30004946504600F097FD0028EDDAE969019822
:101B40008847A00502D46FF00100A8E7E00725D17F
:101B5000600613D5600502D5C8F1000000E04046DC
:101B600029680A1D2A600968220501D5087015E058
:101B7000220701D5088011E008600FE02868011DE8
:101B800029600068210502D580F8008006E0210761
:101B900002D5A0F8008001E0C0F8008038467EE75A
:101BA0002DE9FF5F4FF000089946144646469169BB
:101BB000D2E901A7DDF838B001988847054659EA0F
:101BC0000B0005D009E0A1690198761C88470546FD
:101BD000216A284688470028F5D1681C03D05FEAAF
:101BE000CA7005D015E04FF0FF3004B0BDE8F09F9B
:101BF0002068011D2160D0F800800AE05FEACA7009
:101C000001D108F8015BA169761C01987F1E884705
:101C10000546002F1ADD681C18D0B9F1000F0DD051
:101C2000E81705EBD060421120F01F0059F8221090
:101C30002A1A012090400142E0D107E0BBF1000FD9
:101C4000DCD12846216A88470028D7D0E16901986D
:101C50008847BBF1000F07D1002E05DD5FEACA708F
:101C600002D1002188F80010A068B84203DDBBF162
:101C7000000F03D017B16FF00100B6E73046B4E7AC
:101C800040EA010310B59B070FD1042A0DD310C8F9
:101C900008C9121F9C42F8D020BA19BA884201D94B
:101CA000012010BD4FF0FF3010BD1AB1D30703D093
:101CB000521C07E0002010BD10F8013B11F8014B49
:101CC0001B1B07D110F8013B11F8014B1B1B01D165
:101CD000921EF1D1184610BD032A40F2308010F058
:101CE000030C00F0158011F8013BBCF1020F6244B7
:101CF00098BF11F801CB00F8013B38BF11F8013B48
:101D0000A2F1040298BF00F801CB38BF00F8013BF4
:101D100011F0030300F06780083AC0F0088051F822
:101D2000043B083A51F804CBA0E80810F5E7121D6F
:101D30005CBF51F8043B40F8043BAFF30080D2078E
:101D400024BF11F8013B11F801CB48BF11F8012B5A
:101D500024BF00F8013B00F801CB48BF00F8012B7D
:101D60007047431A28BF9A427FF6B6AF032A104441
:101D7000114440F2268010F0030F1EBF11F8013D00
:101D8000521E00F8013D10F0030F7FF4F6AF11F082
:101D9000030300F06D80083AC0F00B8051F8043D59
:101DA000083A51F804CD40F8043D40F804CDFFF75F
:101DB000F3BF121D5CBF51F8043D40F8043DAFF382
:101DC0000080D20724BF11F8013D11F801CD48BFB2
:101DD00011F8012C24BF00F8013D00F801CD48BFE7
:101DE00000F8012C704710B5203AC0F00B80B1E824
:101DF0001850203AA0E81850B1E81850A0E8185040
:101E0000BFF4F5AF5FEA027C24BFB1E81850A0E848
:101E1000185044BF18C918C0BDE810405FEA827C62
:101E200024BF51F8043B40F8043B08BF7047D20779
:101E300028BF31F8023B48BF11F8012B28BF20F81A
:101E4000023B48BF00F8012B7047431A28BF9A4253
:101E50007FF6C9AF104410F0030F11441EBF11F8F4
:101E6000013D521E00F8013D10F0030F7FF4F6AF64
:101E7000103AC0F00A8010B531E91850103A20E944
:101E80001850BFF4F9AFBDE81040530724BF31E943
:101E9000081020E9081044BF51F8043D40F8043D03
:101EA00012F0030F08BF7047D20728BF31F8023D78
:101EB00048BF11F8012C28BF20F8023D48BF00F8A8
:101EC000012C704702F0FF0343EA032242EA024278
:101ED00000F002B84FF000020429C0F0128010F0A8
:101EE000030C00F01B80CCF1040CBCF1020F18BFF6
:101EF00000F8012BA8BF20F8022BA1EB0C0100F089
:101F00000DB85FEAC17C24BF00F8012B00F8012B5B
:101F100048BF00F8012B70474FF0000200B5134690
:101F200094469646203922BFA0E80C50A0E80C50F9
:101F3000B1F12001BFF4F7AF090728BFA0E80C50AA
:101F400048BF0CC05DF804EB890028BF40F8042BA3
:101F500008BF704748BF20F8022B11F0804F18BF10
:101F600000F8012B704700004FF0013C50F8042BA3
:101F700051F8043B9A4221D1A2EB0C03934313EA9C
:101F8000CC1317D150F8042B51F8043B9A4215D1C9
:101F9000A2EB0C03934313EACC130BD150F8042BA0
:101FA00051F8043B9A4209D1A2EB0C03934313EA84
:101FB000CC13DBD04FF00000704700BFD01A01BA3D
:101FC000B1FA81F101F0180122FA01F0CB40C1F120
:101FD0002001DBB2C0B2C01A2CFA01F3D11A91432E
:101FE00011EAC311E6D1704770477047704710B5CA
:101FF000FEF702F9083010BD704770477047704710
:1020000038B504460A4600206946AFF30080002830
:1020100008BF38BD02460099204600F077FB01203A
:1020200038BD012000F048BEF8B5AFF3008005468A
:1020300000200C46102000BF0646A819A0420DD96A
:10204000324669460020AFF30080070008BF00F069
:1020500033FE0098A04218BF0546C419FFF7C7FF1A
:1020600005600746F01D20F007004619284600F0DD
:1020700044FBB44208BFF8BDA21B31463868BDE836
:10208000F84000F043BB0B3020F0070070472DE90B
:10209000F04117460E460446FFF7F5FFA0420546FD
:1020A00033D9002F1CBF06F10C00AFF3008030467F
:1020B0007468F4B12168A94217D305F1080291426E
:1020C0003CBF6168416007D3626861194A60226859
:1020D000521B0A6041602560002F1CBF06F10C00F6
:1020E000AFF30080201DBDE8F08120466468002C1D
:1020F000E0D129463046FFF783FF0028D7D1002FD3
:102100001CBF06F10C00AFF300800020BDE8F08199
:1021100010B50446FFF76BFF01682046BDE810408C
:102120000122B4E72DE9F0470D4699469246044650
:1021300000F124080168880604D5E06921F0100147
:10214000216000E00120A84201DD471B00E00027DC
:10215000A1697A1902EB0900081AA0612078C0066B
:1021600002D42046FFF7CAFA002608E0D4E901218C
:102170001AF806009047206A401C761C20624E45E3
:10218000F4DB2078C0060AD52046FFF7B7FA06E050
:10219000D4E9012130209047206A401C2062381E7B
:1021A000A7F10107F4DC07E0D4E9012118F80500E4
:1021B0009047206A401C2062281EA5F10105F3DC2F
:1021C0002046FFF7B1FA2078000602D50220BDE8CC
:1021D000F0870120FBE770472DE9FF4F0C461E46B4
:1021E0004FF0FF378BB0D2E90001DDF860800A9034
:1021F0008A46C1F30A5505B93D46002108464FF00D
:102200000000BAF1000F00F4400005DA00EB800096
:102210004FF4400101EA50004FEA9059B9F1010F23
:1022200000DDB9460A9850EA4A000ED044F6105034
:10223000A5F2FF3545432F14B8F1000F1ED07542AB
:10224000291E1EDDC9F100021CE0B8F1010F4FF09C
:10225000000001D0302103E0F24305E02154401C8E
:10226000B042FBDB30460022002121540B99C1F81B
:102270000880C1E900200FB0BDE8F08FBD1B6D1CC8
:10228000DEE74A4600DA694206A800F0A7FC06AB82
:1022900093E8070003AB83E8070050460A9900F073
:1022A0009CFD8DE80700A0F500501F3800900398B2
:1022B000002D09DD42F21F014A46084403A903909C
:1022C000684600F0FBFF08E0A0F500504A461F38C2
:1022D00003A90390684601F005F88DE807000004A3
:1022E000000C03D04FF0FF30410800E01046B8F179
:1022F000000F03D00022009215461EE0751E05D483
:1023000000F023FA303262556D1EF9D5B346012232
:10231000084302D000227F1C04E02078302801D13D
:1023200000227F1E002A099786D01DE0112D07DAB2
:1023300000F00BFA303262556D1C50EA0102F5D103
:10234000084302D00098C8B10EE00021681E05E0E5
:10235000235C625C63542254401E491C8142F7DBBB
:10236000AB46A81B401E0990002004F80B000B98F8
:10237000099AC0F80880C0E9002B7CE711264FF0CD
:10238000000859E72DE9F04F88460446D21D22F097
:10239000070191B0D1E90001CDE90A0108F0BFFEC3
:1023A00002460B98C00F01D02D2007E0206881075E
:1023B00001D52B2002E0202101EAC000032A099068
:1023C00001D0072A05DB03464146204600F00CFAFF
:1023D0000BE12078800601D5E06900E00620B8F125
:1023E000650F814606D0B8F1660F18D0B8F1670FB7
:1023F00070D131E00020B9F1110F009001DB112301
:1024000001E009F101030AAA01A90CA8FFF7E4FE03
:10241000DDE90C70002609F10105834647E0012043
:102420004B4600904FF000470AAA01A90CA8FFF7FD
:10243000D3FEDDE90DB00C995D46002610B909F117
:1024400001000D18B9EB050003D4C0F1FF3609F106
:102450000105A5EB09002BE0B9F1010F01DA4FF0FE
:1024600001090020B9F1110F0090484601DD112348
:1024700000E003460AAA01A90CA8FFF7ADFEDDE9BA
:102480000C704D4600268346207800070AD4AB45E1
:1024900000DA5D4601A8012D04DD411911F8011C87
:1024A000302907D04F4502DA17F1040F04DA012072
:1024B00082460FE06D1EEEE7002F02DCED1B3E446E
:1024C00003E0781CA84200DD7D1CB81B00F1010A66
:1024D0004FF000472078000703D4AA4501DB4FF0F6
:1024E000FF3A0021B7F1004F0DF143088DF843107A
:1024F00024D002202B23002F01DA7F422D230A2132
:10250000021EA0F1010000DC5FB197FBF1FC97FB1C
:10251000F1F201FB1C7C17460CF1300C08F801CDE0
:10252000EEE7A8F1010003702188090501D54521D6
:1025300000E06521A0F1010800F8011C09980FA92D
:10254000A1EB0807FF1D00B10120411901EBEA7062
:10255000A1693844081A401EA0612078C00602D440
:102560002046FFF7CBF8099828B1D4E9012190471C
:10257000206A401C20622078C00622D52046FFF742
:10258000BDF81EE0002E04DBB34502DD01A8805D2E
:1025900000E03020D4E901219047206A401C2062ED
:1025A000761CAAF101005FEA000A0AD100F0A0F847
:1025B000C0680168405CD4E901219047206A401C52
:1025C0002062281EA5F10105DCDC07E0D4E9012129
:1025D00018F8010B9047206A401C2062381EA7F1B2
:1025E0000107F3DC2046FFF79FF8032011B043E614
:1025F00001694A1C02610878704700B58FB0CDE9C7
:1026000001310021059105497944CDE903101146B6
:102610006846FFF73DF90FB000BD0000E5FFFFFF82
:102620000A6802F8010B0A607047D1E900239A4258
:1026300002D2531C0B601070704710B5436913B180
:10264000AFF3008001E0FFF780F8012010BD1278A1
:1026500000F124010A7000224A700122EDE711689E
:102660004FF0FF32E9E73A2800D2303820F020025C
:10267000412A01D3A2F13700884201D34FF0FF3045
:1026800070470000026811441378016018467047D3
:10269000D1600549794451610449794411620021AE
:1026A0001161114600F0E0B8EDFFFFFF37010000B7
:1026B000426842B1016811F8013B23B1521EC0E9E2
:1026C0000012184670470121C160881E7047426899
:1026D0005AB1C368016843B983688B4205D0491E6B
:1026E000521CC0E90012002070474FF0FF307047C5
:1026F00010B5FDF781FD203010BD00210160C0E95B
:1027000001100C3008F04EBD1020704730B4044664
:102710008C464368002B18BF634538BF1846F8D372
:1027200003681844604507D0C81C20F0070000F17A
:10273000040CACEB0100121A2146CCF8002030BC8E
:1027400000220CF10400FEF76DBE30B5B0F10A02B4
:102750004FEA900E71F100034EEA817EB0EB0E005D
:1027600061EB91014FEA101E4EEA017E10EB0E0064
:1027700041EB11114FEA102E4EEA016E10EB0E00E4
:1027800041EB11214FEA104E4EEA014E10EB0E00C4
:1027900041EB1141401841F100014FEAD00040EAFD
:1027A00041704FEAD10110EB80054FEA810444EA01
:1027B000907444EB01046D1944EB0404521BA341D3
:1027C0004FF0000348BF0A3200D530BD401C41F134
:1027D000000130BD10B5044600F09AFA0068005DB3
:1027E00000F0010010BD00002DE9F0411F46044635
:1027F00003260168072A01F4006004DB08B116A56E
:1028000005E016A503E008B115A500E015A521F027
:1028100010002060A069C01EA0610FB1401EA06121
:102820002046FEF76BFF4FB1D4E9012138469047AF
:10283000206A401C2062C01C206206E0206AFAE781
:10284000D4E9012115F8010B9047761EF8D22046F5
:10285000FEF76AFFBDE8F0814E414E006E616E00EA
:10286000494E4600696E66002DE9F34F4FF0000AAD
:102870000C4656468DB001200C9001F10C000B90D7
:1028800062690B9801219047051E2DD0252D2CD073
:10289000216A8847C0B162690B9801219047216A7B
:1028A00088470028F7D16269411E0B98904700E0E5
:1028B000761CA1690D988847216A88470028F7D1BE
:1028C000E1690D988847DBE7A1690D988847A84220
:1028D000074601D1761CD3E7E1690D9888477F1C34
:1028E00002D1BAF1000F6FD06BE162690B9800273B
:1028F0003D46394690472A2804D162690B98012148
:1029000090470125DFF8D08262690B98012190473A
:10291000A0F130010A290AD24745E5DC07EB87011F
:1029200000EB4107303FDFD445F01005ECE7E90646
:1029300001D46FF000476C280AD04C2814D06828C6
:1029400015D06A280DD074281CD07A281AD01DE022
:1029500062690B98012190476C2802D045F004056C
:1029600014E045F002050DE045F020050AE062693B
:102970000B9801219047682802D045F0080505E032
:1029800045F4006562690B9801219047C4E901573D
:1029900065283DD019DC58287AD00CDC452837D082
:1029A00004DC252826D041289ED131E046282FD0AE
:1029B000472899D12CE05B2877D0612828D063285C
:1029C0007CD0642823D15AE0F6E06F2848D008DC98
:1029D00066281DD067281BD0692821D06E2816D103
:1029E00027E0702845D0732868D0752847D078280C
:1029F0000DD14DE0A1690D988847252805463FF483
:102A000069AFE1690D9888476D1C3FF46AAFD8E063
:102A10000D9923466A466FF00100AFF30080C5E0D0
:102A200045F0400023464FF000026060A80736D40E
:102A30003EE0E8077FF447AF2068011D2160006891
:102A4000290501D506701BE7290701D5068017E780
:102A5000A90703D5F117C0E9006111E706600FE788
:102A600045F0400023464FF008026060A80716D4E6
:102A70001EE040F60E0125EA0100606016E045F018
:102A8000400023464FF00A026060A80707D40FE019
:102A900045F040006060A80708D5234610220D9934
:102AA0006FF00100AFF3008080E007E010222346C2
:102AB0000D996FF00100FEF7CDFF77E04FF00009B0
:102AC00063284F46C8464B46CB4602D05B2806D00B
:102AD00038E0E80601D40120A060012732E06269F5
:102AE000D4F80CB00B98012190475E2807D14FF025
:102AF000010949466269D4F80CB00B9890472169E6
:102B000039B900210A4603AB43F82120491C0829A2
:102B1000FADBD8B3216949B308F1010862690B985F
:102B2000012190475D28F4D1B9F1000F09D00020B0
:102B300003A951F82020D24341F82020401C082846
:102B4000F7DB03AB2069002820794FEA40701ED0E4
:102B50005B462246CDF80080CDE901970D9900280B
:102B60006FF0010020DAAFF300801FE0C11703AA65
:102B700000EBD1614B1121F01F0102EB8302411ADE
:102B800013680120884003431360C7E719E00D99DB
:102B9000224600286FF00100009702DAAFF30080B0
:102BA00004E0FEF7FDFF01E0AFF3008000280ADA41
:102BB000401C06D10C9820B14FF0FF300FB0BDE89B
:102BC000F08F5046FAE7E90701D10AF1010A0644FD
:102BD00000200C9054E60000CCCCCC0C2DE9F04742
:102BE000814616468AB0334878440DC88DE80D00FA
:102BF00030487844801C03AC0DC884E80D0041F6D1
:102C00009B300844372190FBF1F290FBF1F5A5F1E0
:102C1000800501FB12041B3C02D56442012000E048
:102C20000020DFF890A080460027FA44AAF1BE0AEF
:102C30000DE0E00709D03246684607EB47010AEB92
:102C4000810100F04FFB8DE8070064107F1C002C11
:102C5000EFD1184F7F44AC3F18E0E80714D007EBE2
:102C600004100DF1180A90E80E008AE80E00C06802
:102C7000F04201D198190890324606A903A800F045
:102C800031FB03AB83E807006D10641C002DE4D119
:102C900032466946B8F1000F03A802D000F00EFBDF
:102CA00001E000F01FFBC9E90001C9F808200AB0E3
:102CB000BDE8F0874C29030010B500F03FF8BDE8EF
:102CC000104000F036B87546FDF796FAAE4605009E
:102CD0006946534620F00700854618B020B5FDF739
:102CE00009FCBDE820404FF000064FF000074FF010
:102CF00000084FF0000B21F00701AC46ACE8C0091A
:102D0000ACE8C009ACE8C009ACE8C0098D46704722
:102D100010B5FFF7EDFC001D10BD00BF5DEC02001B
:102D200010B50446AFF300802046BDE81040FDF723
:102D300000BB002801D000F029B8704710B5012869
:102D400005D0002103A000F028F8012010BD09A142
:102D5000F8E7000053494752544D454D3A204F750E
:102D600074206F662068656170206D656D6F727983
:102D7000000000003A2048656170206D656D6F723B
:102D80007920636F72727570746564000149182050
:102D9000ABBEFEE726000200704770B505460C4644
:102DA0000A2000E06D1C00F011F835B128780028E9
:102DB000F8D102E0641C00F009F814B12078002872
:102DC000F8D1BDE870400A20AFF3008008B569462D
:102DD0008DF800000320ABBE08BD5FEA400C08BFC1
:102DE00091F0000F4FEA8C234FEAC12243EA515180
:102DF0004FEA1C5018BF00F5F0404FEA300018BFF2
:102E000041F000415FEA6C5C00F02980BCF1FF3FBB
:102E100008BF40F080407047130C06BF12044FF00B
:102E2000100C4FF0000C130E04BF12020CF1080C32
:102E3000130F04BF12010CF1040C930F04BF920096
:102E40000CF1020CD30F04BF52000CF1010C11461F
:102E50004FF00002A0F11F00A0EB0C00704711F032
:102E6000004F08BF704731F000413FF4D5AF0B0C65
:102E700006BF09044FF0100C4FF0000C0B0E04BFFE
:102E800009020CF1080C0B0F04BF09010CF1040C32
:102E90008B0F04BF89000CF1020CCB0F04BF49005B
:102EA0000CF1010CCCF12003A0EB0C0022FA03F38F
:102EB00002FA0CF241EA030100F10100704720F030
:102EC0007F4C80EA030023F07F47ACEB070303F558
:102ED0007C5300F0004003F1FF032DE980494FEAE5
:102EE000154B09B44FEA144325EA0B4E24EA034874
:102EF0000FF2042606EB132749083E785FEA3202F8
:102F000003FB0667C7F5000707FB06F64FEA5437D1
:102F10004FEAD64606F1020607FB066CCCF1005CD0
:102F20004FEA1C472CEA074C07FB06F40CFB06F59E
:102F300004EB15464FEA961634BF00204FF00040D0
:102F40004FEAD13706FB07FC4FEA1C4C0CFB0BF792
:102F5000D21B03FB0CF761EB07010CFB0EF7B0EB88
:102F6000074072EB17420CFB08F734BFA2EB074295
:102F7000B2EB074261EB17414FEA0C444FEA91076D
:102F800006FB07FC4FEA1C4C0CFB0BF7B0EBC740F1
:102F900072EB573203FB0CF734BFA2EBC742B2EB24
:102FA000C74261EB57310CFB0EF7B0EBC70072EB79
:102FB00057720CFB08F734BFA2EBC702B2EBC70293
:102FC00061EB5771039F4FEA816141EA921104EB73
:102FD000CC044FEAD1374FEA826206FB07FC42EA93
:102FE00090124FEA80604FEA1C4C0CFB0BF7D21B8F
:102FF00003FB0CF761EB07010CFB0EF7B0EB07408E
:1030000072EB17420CFB08F734BFA2EB0742B2EB9E
:10301000074261EB17414FEA8C554FEA910704EBE9
:103020009C2406FB07FC4FEA1C4C0CFB0BF7B0EB97
:10303000C74072EB573203FB0CF734BFA2EBC74219
:10304000B2EBC74261EB57310CFB0EF7B0EBC70098
:1030500072EB57720CFB08F734BFA2EBC702B2EB5E
:10306000C70261EB577115EB4C254FEA816141EACC
:1030700092114FEA82624FEAD13742EA901206FB80
:1030800007FC44F100044FEA80604FEA1C4C0CFB43
:103090000BF7D21B03FB0CF761EB07010CFB0EF7E0
:1030A000B0EB074072EB17420CFB08F734BFA2EB02
:1030B0000742B2EB074261EB174115EB1C154FEAD3
:1030C000813141EA92414FEA823242EA90424FEA2C
:1030D00080304FEA0C7644F1000448EA03434EEA9C
:1030E0000B484FF0000EB2EB080C71EB030724BF46
:1030F000624639464EEB0E0E4FF0000B001852415F
:1031000049414BEB0B0BB2EB080C71EB03077BF166
:10311000000B24BF624639464EEB0E0E4FF0000BFB
:103120000018524149414BEB0B0BB2EB080C71EB11
:1031300003077BF1000B24BF624639464EEB0E0EAF
:1031400051EA020718BF46F0010616EB0E7655F15C
:10315000000254F1000103D5BDE88901BDE80088F3
:10316000BDE88901BDE80048B619524141EB0101B3
:10317000A3F10103704780807F7E7D7C7B7A797824
:10318000777676757473727171706F6E6E6D6C6C2C
:103190006B6A6A69686867666665646463636261CE
:1031A0006160605F5F5E5E5D5D5C5C5B5B5A5A594F
:1031B00059585857575656555555545453535252BB
:1031C0005251515050504F4F4F4E4E4D4D4D4C4C13
:1031D0004C4B4B4B4A4A4A4949494848484747475C
:1031E0004746464645454544444444434343434299
:1031F000424242414141002B26D4770021D01CB5E8
:103200004FEA370703B44FF010004FF010014FF0B2
:1032100000000FBCBDE810400BF1010BBBF1010F2A
:1032200008BF5FEA170722BF12F1010211F1010185
:103230004FF0004143F1000300F0004043EA00007A
:103240007047F9D35708DAE746EA064613F1400F0C
:103250004FEA16461FDD13F1200FDFBF16430A4663
:10326000002120335B42C8D0C3F1200746EA06465E
:1032700002FA07F74FEA164646EA0706C3F12007A7
:1032800022FA03F201FA07F721FA03F14FF00003E3
:1032900042EA0702B1E746EA020646EA06464FEA74
:1032A000164646EA0106BCBF46EA0646360C4FF013
:1032B00000034FF000024FF000019EE72DE9C048E7
:1032C000934630B491E8380007C831EA400C48BF53
:1032D00034EA430C03D5FFF7F2FDFFF78CFFF0BC97
:1032E000BDE800882DE9C048934630B491E8380025
:1032F00007C810F0804F08BF13F0804F03D100F0D3
:1033000005F8FFF778FFF0BCBDE8008820F07F47A4
:1033100080EA030023F07F4C07EB0C03A3F57C53FA
:1033200000F00040A3F1FE0392F0000F00F0B38024
:1033300095F0000F00F077802DE901494FEA114028
:103340004FEA144621EA004800FB06FC24EA06473F
:1033500008FB06F607FB08F800FB07F718EB064822
:103360004CEB164C4FEA124B18EB07484FEA154648
:103370004CEB174022EA0B4E0BFB06FC25EA0647F6
:103380000EFB06F607FB0EFE0BFB07F71EEB064EC9
:103390004CEB164C4FF000061EEB074E4CEB174B58
:1033A00018EB0B0840F1000018EB0E0B58EB00086F
:1033B00040F100008F1A4FF000013CBFC943661B6B
:1033C00014BFB5EB040C00213CBFC943F61B4FEA08
:1033D00017444EEA8E0E27EA04454FEA1C4704FBC9
:1033E00007622CEA074C05FB07F70CFB05F604FB0C
:1033F0000CFC16EB074642EB174216EB0C4642EB71
:103400001C421BEB060658EB0202414146EA9E06AF
:1034100001D5BDE80189B619524141EB0101A3F183
:103420000103BDE801894FEA14454FEA114724EA38
:10343000054621EA074C05FB07F406FB07F70CFBE2
:1034400006F105FB0CFC11EB074144EB17444FEA76
:10345000124711EB0C4144EB1C4422EA074C05FBDC
:1034600007F206FB07F70CFB06F605FB0CFC16EB58
:10347000074642EB174216EB0C4642EB1C456A1816
:1034800054F1000148BF7047B619524141EB0101A8
:10349000A3F10103704795F0000F37D04FEA1142B6
:1034A0004FEA144721EA024624EA074C02FB07F1DF
:1034B00006FB07F70CFB06F402FB0CFC14EB0744BD
:1034C00041EB17414FEA154714EB0C4441EB1C410B
:1034D00025EA074C02FB07F506FB07F70CFB06F68F
:1034E00002FB0CFC16EB074645EB174516EB0C46AA
:1034F00045EB1C42121951F1000148BF7047B61943
:10350000524141EB0101A3F1010370474FEA144519
:103510004FEA114724EA054621EA074C05FB07F16B
:1035200006FB07F70CFB06F24FF0000605FB0CFC50
:1035300012EB074241EB174112EB0C4251EB1C41DD
:1035400048BF7047921841EB0101A3F10103704796
:1035500000000000C943016070470029816814BF62
:1035600041F0010121F00101816070470849D1F863
:103570000423084B1A40D0E9003C43EA0C03D0E98D
:1035800002C04CEA000018431043C1F8040370471E
:1035900000200140E030FCFF0029816814BF41F4A5
:1035A000807121F48071816070470029816814BFA7
:1035B00041F4007121F40071816070470029816835
:1035C00014BF41F4806121F480618160704702463C
:1035D000002012680A4218BF0120704781B00844D9
:1035E00028300090006801B080B270472DE9F05F8C
:1035F000DFF8FC8000273C46D8F800003D46DFF8A5
:10360000F49010F0040F6FF0040AA9F108062ED010
:10361000C8F800A03849486B002808BF886BD1F86B
:103620003CB0BBF1000F08BFD1F840B00028D8BFB4
:1036300037800CDD1C214046FFF7D0FFB9F90010A0
:10364000401A401000EB640060F30F043080BBF1BF
:10365000000FD8BF77800ADD18214046FFF7BEFF74
:10366000B9F90210401A401000EB64407080D8F89D
:10367000000110F0040F18BFC8F800A1D8F800022C
:1036800010F0040F08BFBDE8F09FC8F800A21B4867
:103690000168002904BF1A4801681A480468002C10
:1036A00004BF19480468DFF864800029D8BFB780D8
:1036B0000CDD1C214046FFF791FFB9F90410401AB8
:1036C000401000EB650161F30F05B180002CDCBFF9
:1036D000F780BDE8F09F18214046FFF77FFFB9F95A
:1036E0000610401A401000EB6540F080BDE8F09FE6
:1036F000002001409C0E00200000014034040140E5
:10370000380401403C0401404004014000220140D3
:1037100010B4426891F804C022F4807222F0407222
:103720000B6842EA0C221A43426082680C4B4C79C7
:103730001A40D1E903C343EA0C03D1F808C04CEAAC
:10374000440C43EA0C031A438260C26A097D22F4E6
:103750007002491EC9B242EA0151C16210BC7047F1
:10376000FDF7FFC030B4072409290DD9C568A1F1C0
:103770000A0C0CEB4C0C04FA0CF425EA040403FAD2
:103780000CF32343C3600AE0056901EB410C04FA22
:103790000CF425EA040403FA0CF3234303611F230A
:1037A000072A0CD2D0F834C0521E02EB820293409A
:1037B0002CEA030391401943416330BC70470D2A42
:1037C0000CD2D0F830C0D21F02EB820293402CEA18
:1037D000030391401943016330BC7047D0F82CC0FB
:1037E0000D3A02EB820293402CEA03039140194305
:1037F000C16230BC7047816841F080418160704790
:1038000005490028D1F8040314BF40F4000020F457
:103810000000C1F80403704700200140018282616A
:10382000C289511A89B24162C16B21F00A01C16398
:10383000704700221146FFF7F1BF00210182426A62
:10384000C1695143026A91FBF2F14269891A8161AF
:10385000C16B21F00A01C1637047002180F8361066
:1038600080F8411080F8401020F82C1F4180018121
:10387000704730B500EE102A039D044680F83710DB
:10388000B8EEC00A00F011F894F8390038B1E06BD6
:1038900020F00400E06320F00100E06330BD2386E7
:1038A0006586E06BF7E70162704790F8391011B157
:1038B0000121016208E0B5EEC00AF1EE10FA01DB69
:1038C000012101E04FF0FF31C1617047002180F814
:1038D0003710017047F6FF72428602860122C0E966
:1038E000071280F83910018241628181C1818162B1
:1038F00041824160816080F836108185C185818672
:1039000080F8411080F84010A0F8421080F838107C
:10391000C16B21F0080141F00701C1637047002825
:1039200026D090F83920002A22D1C26BD3071FD1AC
:1039300092071DD4828D322A03D9012280F83620C5
:1039400001E0521C8285012904D0022907D00329F5
:103950000BD10EE090F8401041F0020103E090F826
:10396000401041F0010180F84010002180F838102B
:10397000704790F8401041F00801F4E790F83C00DF
:1039800040F34000401C704790F83900704790F8B1
:103990003C00C0F3C000704710B50446007804280E
:1039A00004D10DF079FC0DF059FFE8B394F836001E
:1039B000002842D0B4F8420041F28832401C81B263
:1039C0000020A4F84210914203D9A4F8420084F8E0
:1039D000410094F8410094F8402090422CD0D10747
:1039E00001D0C10707D0910701D5810703D5110781
:1039F00007D5000705D494F837000023082100F00C
:103A00008BF894F84000400706D5002294F8370060
:103A10001346092100F080F894F84000C00608D54C
:103A200094F83700002200E008E013460A2100F075
:103A300073F814F8400F6070012010BD012084F865
:103A40003600B7E730B5B0F912408368234483608D
:103A5000456800246D1C456095420AD9002B00DAA8
:103A60005B428B4201DA012400E000240021416026
:103A70008160204630BD70B505460EF097FB2B46A1
:103A8000482204210EF09CFB0346002407E004EBCF
:103A9000C40003EBC000FFF719FF641CE4B2AC42A2
:103AA000F5D3184670BD426AC1695143026A806904
:103AB00091FBF2F1081A7047002814D090F83920D1
:103AC000002A10D10378012B04D0032B14D0042B2F
:103AD00009D111E090F8383003B9818183898B4294
:103AE00002D080F83820704790F838305B1C5BB209
:103AF00080F83830032BF6DB8181C181038AC91A33
:103B000089B2C0E90912428280F83820C16B21F0E5
:103B10000401C1637047000038B50A4CE080002002
:103B2000C4E9022320716071022015F0DBFF2060E0
:103B30000BF0BCFC00231A46042100940BF082FC1D
:103B400038BD00007019002000220282C0E9051271
:103B5000C1894162C16B41F00A01C1637047002114
:103B6000416081607047002819D090F83910002911
:103B700015D1C16BCA0712D1890710D4C18D322962
:103B800003D9012180F8361001E0491CC18510F8E5
:103B9000401F41F0040100F808190021017070472E
:103BA000F0B587B004000FD094F8390000280BD18D
:103BB000E06BC20708D10025A585E585400705D53E
:103BC0002046FFF779FFA56207B0F0BD6582A089A6
:103BD000A181081A02B2B4F9300020B143429342E5
:103BE00059DC904257DBE089081A00B270B1E181DC
:103BF0006082616A00EB400201446162A16AC2EB2B
:103C0000C010C1EBC10101EBC00002E0A06AC0EB33
:103C1000C000C010A06216F0CFFF16F0D5FF064618
:103C20000F4616F0C9FF16F0D7FF024600233046B4
:103C30003946FDF7A7FC1A43C6D1A08E0028C3D091
:103C4000029503950495059594F93700ADF80E009B
:103C5000A08E04908DF80C508DF80D500A21022092
:103C600015F040FF02900BF021FC02A90023009107
:103C70001A4603210BF0E6FBA08E618E884208D91C
:103C800094F8400040F0100084F84000012084F8CF
:103C90003600A58698E7A08E401CA086B6E7826A0B
:103CA000C169006A514391FBF0F07047F0B589B0EB
:103CB000002600960196029603961A481A4D44680B
:103CC000E868A76A10F0100F1CBF30462BF014FCF8
:103CD000384620F050FE012808D1384620F032FF47
:103CE000012084F82E0030462BF006FC284604AA5A
:103CF000002100F0C8F9049800909DF81A008DF892
:103D00000600DDF81B000290DDF81F0003906946F5
:103D1000384620F04EFF616800291CBFA068884724
:103D200009B0F0BD7C3C00200064004000202BF076
:103D3000E3BB00202BF01CBC70B58AB00120002131
:103D4000009101910291039119491A4D8C68E9681B
:103D5000A66A11F0100F18BF2BF0CEFB304620F0F2
:103D60000AFE012807D1304620F0ECFE012084F83D
:103D70002E002BF0C1FB284604AA002100F083F995
:103D8000049800909DF81A008DF80600DDF81B00DD
:103D90000290DDF81F0003906946304620F009FFCD
:103DA000616800291CBFA06888470AB070BD000088
:103DB0007C3C00200068004001202BF09DBB0120CE
:103DC0002BF0D6BB10B4082304224FF0100CB1F531
:103DD000007F40D021DC202902BF036110BC704766
:103DE00010DC012901BF1D49816010BC7047042906
:103DF00002BFC36010BC7047082908BFC0F80CC0E0
:103E000010BC7047402902BFC0F810C010BC7047FA
:103E1000B1F5807F1FD010BC70470024B1F5004F72
:103E200008D00BDCB1F5806F15D0B1F5006F1CBF69
:103E300010BC70478461426010BC7047B1F5803F90
:103E400002BF436010BC7047B1F5003F08BFC0F827
:103E500004C010BC7047426010BC704701010100F3
:103E6000A0F1804110B5B1F5C8414FF0010109D072
:103E7000880606F0E1F8BDE8104000214FF08060B0
:103E800006F0DAB84FF0007006F0D6F8BDE8104042
:103E900000214FF0007006F0CFB8000030B4817AF6
:103EA000354B012202FA01F11A6842F001021A6050
:103EB000DFF8C8C0DCF800208A43CCF80020047B7F
:103EC0002F4AD4B914688C4314604488C58844EAE6
:103ED0000544857AED0005F1804505F5C045C5F836
:103EE00040460488858844EA0544857AED0005F15A
:103EF000804505F5C045C5F84446047B012C18D122
:103F000014680C431460847A0268E40004F180446D
:103F100004F5C0444FEA3242C4F84026847A42682D
:103F2000E40004F1804404F5C0444FEA3242C4F88E
:103F30004426C47A134A002C14680CBF8C430C43EB
:103F400014600489104A14B914688C4314600489FD
:103F5000012C02D114680C431460407B012804D169
:103F6000DCF800000843CCF80000186820F00100DD
:103F7000186030BC70470000006600401C660040BE
:103F80000C6600400466004014660040002A426946
:103F900014BF114322EA0101416170470268002306
:103FA00022F002020260026842F0010202604FF653
:103FB000FF7200BFD0F804C01CF0010F03D1934280
:103FC00018BF5B1CF6D1436813F0010F59D08B79F1
:103FD000012B03680CBF43F0800323F080030360D0
:103FE000CB79012B03680CBF43F0400323F040035F
:103FF00003600B7A012B03680CBF43F0200323F00E
:10400000200303604B7A012B03680CBF43F01003BD
:1040100023F0100303608B7A012B03680CBF43F07D
:10402000080323F008030360CB7A012B03680CBF5D
:1040300043F0040323F0040303608B7891F803C07A
:104040009B0743EA0C6391F804C043EA0C4391F8E0
:1040500005C0098843EA0C53491E1943C161016830
:1040600021F0010101600021436813F0010F1CBF22
:104070009142491CF8D1406810F0010F04BF0120A3
:1040800070470020704700EB0113D3F8B0C11CF05B
:10409000040C82F808C0D3F8B0C107BF4FEA5C5CDB
:1040A000C2F800C04FEADC0CC2F804C0D3F8B0C1BB
:1040B0000CF0020C82F809C0D3F8B4C10CF00F0C5C
:1040C00082F80AC0D3F8B4C14FEA1C2C82F813C09E
:1040D000D3F8B8C182F80BC0D3F8B8C14FEA1C2C92
:1040E00082F80CC0D3F8B8C14FEA1C4C82F80DC05E
:1040F000D3F8B8C14FEA1C6C82F80EC0D3F8BCC12B
:1041000082F80FC0D3F8BCC14FEA1C2C82F810C053
:10411000D3F8BCC14FEA1C4C82F811C0D3F8BC31B3
:104120001B0E937421B1016941F0200101617047B8
:10413000C16841F02001C1607047000009490A6868
:1041400042F001020A600A6822F4877222F478526F
:104150000A600A6842EA00200860086820F001004E
:10416000086070470066004000218171C1710172D2
:1041700041728172C1728170C1700321017102218B
:10418000417101210180704710B4024600209368FC
:1041900013F0806F3FD000BF02EB0012D2F88031E5
:1041A00003F00103C2F880310B7A002B42D0D2F821
:1041B00080C14C684CEA030391F809C04CEAC40C76
:1041C00043EA0C03C2F880318B7A03F00F038B7241
:1041D000D2F8843123F00F03C2F88431D2F884314D
:1041E00091F80AC043EA0C03C2F88431CB7AD1F8C3
:1041F0000CC043EA0C23C2F88831CB7B096943EA3F
:104200000121C2F88C11D2F8801141F00101C2F8ED
:10421000801110BC7047906810F0006F18BF01202B
:10422000BAD1906810F0805F14BF02200420B3D18F
:1042300010BC7047D2F8803191F809C043EA0C03F2
:10424000B1F800C043EA4C53BCE700B5002200F0CF
:1042500007F8C04380B2010241EA102080B200BDDD
:1042600005E000BF30F8023B891E5BBA1A44012901
:10427000F8DC11B1007802EB002290B200EB1240A2
:1042800000EB104080B27047084400EB104080B251
:1042900070470029016814BF41F0010121F00101BC
:1042A000016070472DE9F003016821F00101016010
:1042B0000021016041608160C16001612121416193
:1042C000434A3D244349904202BF8C60BDE8F0035D
:1042D0007047414A4FF47465904202BF8D60BDE85B
:1042E000F00370473D4A4FF47418904202BFC1F882
:1042F0000880BDE8F0037047394A4FF07466904279
:1043000002BF8E60BDE8F0037047364B364A9842D4
:1043100002BFCA60BDE8F0037047DFF8D0C0344B7D
:10432000604502BFCB60BDE8F0037047314FDFF856
:10433000C8C0B84202BFC1F80CC0BDE8F003704766
:10434000DFF8B8904FF03D57484502BFCF60BDE859
:10435000F0037047DFF8A8902A49484502BF0C6077
:10436000BDE8F0037047284CA04202BF0D60BDE8D5
:10437000F0037047254CA04202BFC1F80080BDE8A1
:10438000F0037047224CA04202BF0E60BDE8F0036C
:104390007047204C2049A04202BF0A60BDE8F003EC
:1043A00070471E4A904202BF0B60BDE8F0037047A1
:1043B0001B4A904202BFC1F800C0BDE8F00370473D
:1043C000184A904208BF0F60BDE8F0037047000034
:1043D00010600240006002402860024040600240DD
:1043E00058600240706002403D000020886002403A
:1043F000400F0020A060024000003D20B860024055
:104400001064024008640240286402404064024094
:1044100058640240706402400C64024088640240A8
:10442000A0640240B864024010B402681B4BD1F88B
:104430000CC01A400B6843EA0C03D1E905C44CEAEE
:10444000040C43EA0C03D1F81CC043EA0C03D1F876
:1044500020C043EA0C03D1F824C043EA0C03D1F88E
:1044600028C043EA0C03D1F834C043EA0C03D1F866
:1044700038C043EA0C031A4302604269D1E90B3C9D
:1044800022F0070243EA0C031A4342610A694260C0
:104490004A6882608968C16010BC70473F801CF028
:1044A0002DE9F04F42484FF0000B93B046685F464D
:1044B00049F21A08357C4FF4407A4FF00049706990
:1044C00000EB05100168C1F30D410C1F016811EAF2
:1044D000080F18BF012732D100683AEA000018BF60
:1044E00002272CD13348001988BF032727D844F06E
:1044F00000401FF009FE44F000410090002808BF72
:1045000004271CD00820726900EB0510E31C10582A
:1045100020F003020098001D9C0805D052F8043BCF
:1045200040F8043B641EF9D12348026812B1009898
:10453000001D9047009820F065F84FF0010B70695E
:1045400000EB0510C0F8009077B1022F08BF4FF0C4
:10455000FF343B4619A2402102A80094FDF7B2F8AF
:1045600002A9F02021F056FAF07A6D1C854208BFAE
:1045700000253574706900EB0510006810F0004FDD
:104580009DD0194C6069194D10F0800F06D06561FF
:104590000020A06016A1F02021F03CFA6561BBF17B
:1045A000000F18BF1FF082FD13B0BDE8F08F0000B0
:1045B000B40E002016FAFFFFAC0E00204554485FF1
:1045C00049525148616E646C657228293A206572BF
:1045D000726F7220256420666F72206672616D654D
:1045E0005B25645D0000000000900240C080010077
:1045F0004554485F49525148616E646C6572282980
:104600003A206572726F72203500000010B54FF4C9
:10461000005000F033F8012420B1600300F028F8C6
:10462000124804714FF4805000F028F828B14FF47C
:10463000805000F01DF80D4844714FF4804000F0A8
:104640001DF828B14FF4804000F012F8074884713B
:104650004FF4004000F012F8002808BF10BD4FF4DE
:10466000004000F005F80148C47110BDA40E002000
:104670000149086070470000143C0140034A0146AC
:10468000002012680A4218BF01207047143C014004
:1046900082790168002A35D01F4A136823EA010194
:1046A0001160111D0A6803689A430A60017901F1DB
:1046B000804101F59E310A6803681A430A60174970
:1046C0000A6803689A430A600B1D1A68D0F800C094
:1046D00022EA0C021A604279102A08D002F18042C4
:1046E00002F59E32116800680843106070470A683E
:1046F000D0F800C042EA0C020A601968006808435A
:1047000018607047007900F1804000F59E30026823
:1047100022EA010101607047003C0140083C014071
:104720002DE9F001002201255FF00306D1F800C059
:1047300005FA02F30CEA030C9C4533D107684FEAF3
:10474000420C06FA0CF4A74307600F79D0F80080FA
:1047500007FA0CF747EA080707600F79012F18BF1F
:10476000022F14D18768A74387604F79D0F808805B
:1047700007FA0CF747EA08078760476827EA030348
:10478000436043688F799740BFB23B434360C3683F
:10479000A343C360CB7903FA0CF3D0F80CC043EA0F
:1047A0000C03C360521C102AC0D3BDE8F00170474F
:1047B0004B07DB0E9A40C90800EB8100016A4FF0FD
:1047C0000F0C0CFA03F399430162016A1143016271
:1047D00070470246002012690A4218BF0120704744
:1047E0000246002052690A4218BF012070474183E7
:1047F0007047018370474FF6FF710160002101711E
:1048000041718171C1717047426951404161704786
:10481000002A14BF0183418370470029018814BF17
:1048200041F4806121F4806101807047838A002215
:10483000008B43EA004020F07F4031EA000008BFCF
:10484000012210467047C9438182704700290188C0
:1048500014BF41F0010121F00101018070470029DE
:10486000018814BF41F4807121F480710180704788
:104870000029018814BF41F4007121F40071018006
:10488000704782B00246002000920A0F21F07F415B
:10489000019208BF090C009A14BF1432183200921A
:1048A00012680A4218BF012002B07047818A008B4B
:1048B00041EA004020F07F407047000070B5044698
:1048C000808884B00D4620F03F06684605F0D8FB8E
:1048D00029490298B0FBF1F189B246EA0102A280AF
:1048E000228822F001022280244B2A689A421DD895
:1048F0005200B0FBF2F080B2042838BF0420491CFB
:104900002184A083208840F0010020802088A9888D
:104910006A8920F00A0020F4806011430843208057
:10492000A88929890843208104B070BDEB88A3F5CC
:104930003F4CBCF1FF0C19D002EBC20303EB021297
:10494000B0FBF2F080B240F480400205120D08BFC7
:1049500040F0010040F400404FF4967251434FF490
:104960007A72B1FBF2F1491C2184CAE702EB4202E0
:10497000B0FBF2F080B2E8E740420F00A0860100F1
:10498000002A14BF41F0010101F0FE0101827047CD
:10499000018270472DE9F04F2DED048B8A461546B4
:1049A00004460AEB4A02816993B0C2EB4A164FF4FF
:1049B000C47000EB061201928856039094F93800F7
:1049C00002906FF00100885484F838004FF0000B1B
:1049D00084F83FB04FF4E67195F9000001EB061240
:1049E0004FF4DC71C31E01EB061E091F01EB06111B
:1049F000DFEDFE9A9FEDFE9A4FF4DE7707EB061788
:104A00004FF03C080AEB4A0C00970AEBCA090CEB82
:104A10008A1708EBC908092B2DD2DFE803F0052C13
:104A20001339C6FDFDFCFB00616B01EBC900D5E944
:104A30000312FEF7F3FEE069002100EB870004F0AB
:104A4000FEFB15E0E069D5E9011200EB870004F0F8
:104A5000CFFBA8B195ED020AA06900EB0610B8EEF5
:104A6000C00A02F05CFE616B01EBC900FEF7E1FEDB
:104A7000287884F8480013B0BDEC048BBDE8F08FB3
:104A8000A269019903985054029884F83800F2E71B
:104A9000B5F91830012B04D0581C05D0D5A232210D
:104AA00035E095ED040A01E095ED030AFE2084F857
:104AB0004800A3692878F8EEC08A9854A3690120B9
:104AC0004FF4E27203F80E005846A36902EB061B8E
:104AD00003F80B00A0694758D5E90301081A00EE56
:104AE000100AD7E91E01F8EEC00A081A00EE100AF3
:104AF000B8EEC00A80EE808A07F032FCB0EE480AB9
:104B0000514607F0B6FF30B15346C0A2B4E0684644
:104B1000FCF7D8FDA1E0616B01EBC90018EE101A9B
:104B2000B1F19E4F02DDB0EE690A09E018EE101AED
:104B3000B1F14F4F02D9B0EE490A01E0B0EE480A98
:104B4000FEF7B3FE606B50F8081041F0040240F825
:104B5000082095ED030A4FF4E472A169B8EEC00A8B
:104B600002EB0612C0EE080A97ED1E0AB8EEC00A64
:104B700030EEC00AFDEEC00A10EE900AC8EE880AB8
:104B80008850A169009808444FF4E07101EB0611C8
:104B900030EEC00A80ED000A95ED020AA069B8EE79
:104BA000C00A084480ED000A9FE0FE2084F8480017
:104BB000A36928789854584640F2B912A36902EBC9
:104BC000061B03F80B00A369012003F80E00A0697F
:104BD0004758D5E90310421A00EE102AD7E91E32D1
:104BE000F8EEC00AD21A00EE102AB8EEC00A80EE23
:104BF000808A00EE101AB8EEC00AC0EE080A00EE75
:104C0000100A8F48B8EEC01A81EE080A10EE901A0A
:104C1000814202E0BEE18FE16CE006DD10EE101A89
:104C2000814202DD4FF6FF7608E010EE901A8142D5
:104C30000EDA10EE101A81420ADA002607F090FB15
:104C40003246514607F004FF60B153467DA213E09F
:104C500087A232216846FCF735FD5146684601F0CF
:104C6000E7FE08E707F07CFBB0EE480A514607F084
:104C7000DDFE18B1534688A2462148E7616B01EB7F
:104C8000C90018EE101AB1F19E4F02DDB0EE690AAC
:104C900009E018EE101AB1F14F4F02D9B0EE490AEF
:104CA00001E0B0EE480AFEF700FE606B50F8081015
:104CB00041F0040240F8082095ED030AA26900992A
:104CC000B8EEC00AC0EE080A97ED1E0AB8EEC00A98
:104CD00070EEC00A00EE106AB8EEC00A30EEC00AEC
:104CE000BDEEC00A10EE100A5050A269012002F871
:104CF0000B00C0E694F848108142B2D0C4F830B03E
:104D0000C4F84CB0287884F84800E168A2696FF0D4
:104D10000100097801EB4103C3EB41134FF4C47167
:104D200001EB0313D054E368A2695B7803EB4306FD
:104D3000C6EB431301EB0313D054E368A2699B78DD
:104D400003EB4306C6EB431301EB031150546169B7
:104D5000606B097801EBC10100EBC100FEF769FD52
:104D60006169606B497801EBC10100EBC100FEF79E
:104D700060FD6169606B897801EBC10100EBC100E6
:104D8000FEF757FD68682065A868A065E86860655B
:104D90002169E069097801EB410202EB811100EB26
:104DA000810004F0F7FE2169E069497801EB4102D6
:104DB00002EB811100EB810004F0ECFE2169E06957
:104DC000897801EB410202EB811100EB810004F0D4
:104DD000E1FE2169E069097801EB410202EB8111F2
:104DE00000EB810004F095FE216971E00000004FA6
:104DF000000000CF6572726F722074797065362E74
:104E000063757272656E743D2564000063616C6940
:104E100062363A206572726F7220757064617469CF
:104E20006E67204D61697320636F6E76657273697A
:104E30006F6E20666163746F72206A2564000000E3
:104E400000FF7F4763616C6962373A206572726F59
:104E500072207570646174696E672048616C6C4182
:104E60004443206F6666736574206A256400000001
:104E70006572726F722063616C6962203720636FA4
:104E80006D707574696E6720656E636F64657220FE
:104E9000666163746F72000063616C6962373A2007
:104EA0006572726F72207570646174696E672048F4
:104EB000616C6C41444320636F6E76657273696FF9
:104EC0006E20666163746F72206A256400000000C2
:104ED0004978E06901EB410202EB811100EB8100AE
:104EE00004F017FE2169E069897801EB410202EBC9
:104EF000811100EB810004F00CFE2169E269087861
:104F000000EB400303EB8013342000EB8303D35802
:104F1000E3654B7803EB430505EB831300EB830359
:104F2000D3582366897801EB410303EB811100EB31
:104F30008100105860669EE584F84800C4F84CB0C3
:104F400095ED020AA06900EB0610B8EEC00A02F067
:104F5000E6FBE069002100EB870004F070F9E069EE
:104F600000EB870004F0D5FD1822E16902EB87020F
:104F700068688850616B01EBC900FEF7F0FD616B5A
:104F800001EBC900A96813B0BDEC048BBDE8F04F7C
:104F9000FEF7DABD0AEBCA00616B00EB400001EBE3
:104FA000C0086968D8F81C00C0EBC0324046FEF764
:104FB00035FCD8F86400A968C0EBC03208F148009D
:104FC000FEF72CFCD8F8AC00E968C0EBC03208F161
:104FD0009000FEF723FC204600F068F9E06900210C
:104FE00000EB870004F02BF9E06900EB870004F088
:104FF00090FDE06900EB870004F0CCFD4FF4CE7229
:10500000A16902EB06124FF4F85088504FF4D072A9
:10501000A16902EB0612686988504FF4D672A16943
:1050200002EB0612286988504FF4D271A26901EB95
:1050300006114FF461705050D820A16900EB0610A2
:105040000844DFED210A90ED000A4FF4D47000EB24
:10505000061030EE200ABDEEC00A10EE102A0A50EB
:1050600000EE102AA022A16902EB06120A44F8EE13
:10507000C00A92ED000AF4EEC00AF1EE10FA04DD67
:10508000BDEEC00A10EE102A0A50A1690A5800EEBF
:10509000102A9C2202EB06120A44F8EEC00A92ED96
:1050A000000AF4EEC00AF1EE10FA04D2BDEEC00A16
:1050B00010EE102A0A50287884F848000120C4F81D
:1050C0004CB02063D7E40000000061442DE9F04FAC
:1050D0000DF1240E9EE8F01FC0F83480001D80E81A
:1050E000FE1EBDE8F08F10B5044600F0DFF8204644
:1050F00000F00DF894F83F000028204603D0BDE8EA
:10510000104000F0C7B8BDE8104000F079BC2DE9B0
:10511000F05F044640680026B1460778A06835462F
:105120004FF00A0A90F8008084F840604FF4C47B86
:1051300034E0E168A069495D01EB4102C2EB411135
:1051400000EB011001F02AFE00B101262069E1699F
:10515000405D00EB400202EB801001EB800004F0A8
:105160007BF858B1E168A2690126495D01EB410372
:10517000C3EB41130BEB031102F801A02069E169B5
:10518000405D00EB400202EB801001EB800004F078
:10519000E7FB10B1012084F840006D1CBD42C8DB64
:1051A000002516E06169606B495D01EBC10100EB10
:1051B000C100FEF7F1FB58B1E268A1690126525D1A
:1051C00002EB4203C3EB42120BEB021201F802A006
:1051D0006D1C4545E6DB56B3002523E0E168A06978
:1051E000495D01EB4102C2EB411100EB01100021CE
:1051F00002F053FA2069E169405D00EB400202EBE6
:10520000801001EB800004F0C3FB50B12169E0691C
:10521000495D01EB410202EB811100EB810004F0DA
:105220003EFC6D1CBD42D9DB84F838A02CE094F81C
:10523000400060B3002523E0E168A069495D01EB0F
:105240004102C2EB411100EB0110002102F025FAEE
:105250002069E169405D00EB400202EB801001EB48
:10526000800004F095FB50B12169E069495D01EBD4
:10527000410202EB811100EB810004F010FC6D1C77
:10528000BD42D9DB84F83890204601F028FD304635
:10529000BDE8F09F90F83E10012903D0022903D108
:1052A00000F042BB00F0ACB9704700002DE9F04FB0
:1052B00004462DED028B8DB040684FF0340E05781A
:1052C0009FEDCE8AE36AE3B3002157E0E068A76967
:1052D000465C06EB4600C0EB4612E42000EB021BE6
:1052E00007EB0B0080ED008AE820A76900EB021AAB
:1052F00007EB0A0080ED008A00203CE0226953F8A9
:105300002670D4F818C0125C0CEB0B0907EB82076F
:10531000D4F81C8097ED001A02EB420707EB8217C6
:105320000EEB870C99ED000A58F80CC000EE90CAFD
:10533000F8EEE00A01EE200A89ED000AD4F81880A0
:1053400000E01EE008EB0A0C53F826809CED000AF2
:1053500008EB82024FF04C0892ED001AE26908EB6C
:105360008707401CD25900EE902AF8EEE00A01EEC1
:10537000200A8CED000AA842C0DB491CA942A5DB2B
:1053800035E000204C277646E4224FF0E8092CE077
:10539000E168D4F81CC0095C401C01EB410303EB3D
:1053A000811306EB830807EB83035CF808C001EB6D
:1053B000410800EE10CAC8EB4111D4F818C0B8EE8D
:1053C000C00A02EB0118C44409EB01118CED000A7C
:1053D000D4F81CC05CF80330D4F818C000EE103AC2
:1053E0006144B8EEC00A81ED000AA842D0DBA06A91
:1053F00028B1A06800270DF1180B0678ADE0002653
:1054000059E06069616B875D07EBC70801EBC80075
:10541000FEF7BAFAD8B107EB4700C0EB4710E42219
:10542000A16902EB00120A4492ED000AD82202EBB5
:1054300000121144E82281ED000AA16902EB00127A
:105440000A4492ED000ADC2202EB00102FE0616BAF
:1054500001EBC800FEF727FB00EE100A07EB470040
:10546000C0EB4717D820A169B8EEC00A00EB0710BF
:10547000084480ED000A94F83D0058B1E821A06985
:1054800001EB0711014491ED000ADC2101EB07114A
:1054900008440DE0616B01EBC800FEF700FC00EE74
:1054A000100ADC20A169B8EEC00A00EB071008441E
:1054B000761C80ED000AAE42A3DB0DB0BDEC028B82
:1054C000BDE8F08F6069616B10F8078008EBC809D0
:1054D00001EBC900FEF758FAA0B108EB4802C2EB95
:1054E0004811E422A06902EB0112024492ED000A85
:1054F0006A4602EB880282ED000AE82202EB011103
:10550000084419E0616B01EBC900FEF7CCFA00EE2C
:10551000100A684600EB8800B8EEC00A80ED000A69
:1055200094F83D0058B108EB4802C2EB4812E8205D
:10553000A16900EB0210084490ED000A08E0616BDD
:1055400001EBC900FEF7ABFB00EE100AB8EEC00A93
:105550000BEB88007F1C80ED000AB742B2DB002213
:10556000A76A48E0E068D4F818C0835C03EB430006
:10557000C0EB4311D82000EB011A0CEB0A0080EDC0
:10558000008ADC20D4F818C000EB01190CEB0900EC
:1055900080ED008A00202BE06169D4F8188008EBC8
:1055A0000A0C095C57F823809CED000A08EB81087F
:1055B000401CD8ED000AE84608EB810898ED001A77
:1055C00000EE810A8CED000AD4F8188008EB090C73
:1055D00057F823809CED000A08EB81080BEB810152
:1055E000D8ED000A91ED001A00EE810A8CED000A58
:1055F000B042D1DB521CAA42B4DB5EE700000000DF
:105600002DE9F04F04462DED028B4FF00009406864
:1056100085B04E46057815E0E068A169805D00EB35
:105620004002C2EB401001EB0017384601F088FC45
:1056300094F83B0028B1384602F021F808B14FF049
:105640000109761CAE42E7DB9FEDB68A00274FF0DA
:10565000D40A4FF0E00B86E02069C65D94F83B0069
:1056600078B3226A72B3B0EE480A0020F0EE400A26
:105670001BE0E168095C401C01EB410C52F8213051
:10568000CCEB411103EB86030AEB011C93ED001AEE
:10569000A3690BEB01119C441944DCED001A01EEE7
:1056A000210AD1ED001A41EE210AA842E1DB06EB06
:1056B0004601E06901EB861100EB810004F0B5F8CA
:1056C00043E017E0FFE706EB4601C1EB46110BEBA9
:1056D0000112A0690AEB011102440844E16990ED4E
:1056E000000A06EB460000EB8610D2ED000A01EB43
:1056F0008000E3E7626AEAB10020B0EE480AF823CE
:1057000015E0E16852F826C0095C401C0CEB810CE6
:1057100001EB41089CED001AC8EB4111D4F818C008
:1057200003EB01116144D1ED000A01EE200AA84209
:10573000E7DB0AE006EB4600C0EB4612F820A16961
:1057400000EB0210084490ED000A06EB4601E06908
:10575000BDEEC00A01EB861100EB810010EE101ABD
:1057600004F0B9F97F1CAF42FFF676AFB9F1000F34
:1057700076D000274FF0140A4FF0C00BE94662E0E4
:10578000E068636AC65D2BB309EB8601002081EDFA
:10579000008A1CE02269125C401C02EB420853F8AC
:1057A00022C008EB82180CEB860C0AEB88029CEDF9
:1057B000000AD4F81CC05CF8022000EE902AB8EE73
:1057C000E01AD1ED000A40EE010AC1ED000AA8423C
:1057D000E0DB0FE006EB460000EB8612E1690AEB26
:1057E0008200085800EE100A09EB8600B8EEC00AE5
:1057F00080ED000A06EB4600A169C0EB461801EBFC
:10580000081001F03CFFE8B1A2690BEB081010444E
:1058100090ED000AB5EEC00AF1EE10FA01DD0121AB
:1058200000E0002109EB8600D0ED000AB4EEE00AAA
:10583000F1EE10FA01D2012200E00022914201D0E3
:1058400080ED000A7F1CAF429ADB002629E0206928
:10585000236A815DABB3B0EE480A00204F460FE0EB
:1058600021E0E268125C401C53F822C007EB820280
:105870000CEB810C92ED001ADCED000A00EE810ABF
:10588000A842EEDB01EB4102E06902EB811100EB83
:10589000810000BFBDEEC00A10EE101A04F01BF923
:1058A000761CAE42D3DB94F84100022815D00328C1
:1058B00032D105B02046BDEC028BBDE8F04F00F0C0
:1058C000CBBF01EB410000EB8110E26909EB8101E4
:1058D00002EB800091ED000ADCE700252E467827D8
:1058E00016E0E168A069495D01EB4102C2EB41119C
:1058F00000EB011001F046FE48B12169E069495D05
:1059000001EB410202EB811107EB810146506D1C56
:1059100060680078A842E4DC05B0BDEC028BBDE80D
:10592000F08F0000000000002DE9F04104464068BF
:10593000002506780BE0E168A069495D01EB4102B2
:10594000C2EB411100EB011001F042FC6D1CB542AD
:10595000F1DB0025F82743E02069626A405D3AB335
:105960009FED260A002115E0E36852F820C05B5C39
:10597000491C0CEB830C03EB430EDCED000ACEEB71
:105980004313D4F818C007EB0313634493ED001AD4
:1059900000EE810AB142E7DB00EB4002E169BDEEB7
:1059A000C00A02EB801001EB800010EE101A14E028
:1059B00000EB4002C2EB4012A16907EB0212114456
:1059C00000EB400391ED000AE26903EB8010BDEEAD
:1059D000C00A02EB800010EE101A04F0BFF86D1C34
:1059E000B542B9DB94F84100032804D12046BDE854
:1059F000F04100F031BFBDE8F08100000000000080
:105A00002DE9F0470446406894F848104FF0FF092C
:105A10000678A0684FF000084FF4C47A0778FF2991
:105A200006D0E06C47F2305290420EDA401CE0643F
:105A3000012084F83F0009295AD040DC032945D0D1
:105A4000052947D0082963D14EE00B2784F84890F8
:105A500084F8387084F83F8000252CE0E068A16964
:105A6000405D00EB4002C2EB40120AEB02100F5403
:105A70002169E069495D01EB410202EB811100EB14
:105A80008100002104F027F82169E069495D01EBFC
:105A9000410202EB811100EB810004F000F8216962
:105AA000E069495D01EB410202EB811100EB8100ED
:105AB00004F070F86D1CB542D0DBBDE8F0870A2910
:105AC0001AD00B291CD0FE2922D11DE0204600F05F
:105AD00026F902E0204600F03BF984F83F0010F080
