:020000040000fa
:080000000002040000000000f2
:020000040000fa
:10000800b6310000963100009a3100009e310000a0
:10001800a2310000b6310000b6310000b631000050
:10002800b6310000b6310000b6310000502a000099
:10003800ee060000b6310000b6310000b63100000f
:10004800642b0000b6310000b6310000b631000064
:10005800b6310000b63100008a310000b631000028
:10006800b6310000ba310000b6310000842e00001d
:10007800b6310000b6310000b6310000b6310000dc
:10008800361e0000b6310000b6310000b63100005f
:10009800b6310000b6310000b6310000b6310000bc
:1000a800b6310000b6310000b6310000ea27000082
:1000b800b6310000b6310000b6310000b63100009c
:1000c800b6310000b6310000b6310000b63100008c
:1000d800b6310000b6310000b6310000b63100007c
:1000e800b6310000b6310000b6310000b63100006c
:1000f800b6310000b6310000b6310000b63100005c
:10010800b6310000b6310000a6250000b631000067
:10011800b6310000b6310000b63100008e2c000068
:10012800b6310000b6310000b6310000b63100002b
:10013800b6310000b6310000b6310000b63100001b
:10014800b6310000b6310000b6310000b63100000b
:10015800b6310000b6310000b6310000b6310000fb
:10016800b6310000b6310000b6310000b6310000eb
:10017800b6310000b6310000b6310000b6310000db
:10018800b6310000b6310000b6310000b6310000cb
:10019800b6310000b6310000b6310000b6310000bb
:1001a800b6310000b6310000b6310000b6310000ab
:1001b800b6310000b6310000b6310000b63100009b
:1001c800b6310000b6310000b6310000b63100008b
:1001d800b6310000b6310000b6310000b63100007b
:1001e800b6310000b6310000b6310000b63100006b
:0801f800b6310000b631000031
:020000040000fa
:10020800b6310000a6310000aa310000ae3100006e
:10021800b2310000b6310000b6310000b63100003e
:10022800b6310000b6310000b6310000502a000097
:10023800ee060000b6310000b6310000b63100000d
:10024800642b0000b6310000b6310000b631000062
:10025800b6310000b63100008a310000b631000026
:10026800b6310000ba310000b6310000842e00001b
:10027800b6310000b6310000b6310000b6310000da
:10028800361e0000b6310000b6310000b63100005d
:10029800b6310000b6310000b6310000b6310000ba
:1002a800b6310000b6310000b6310000ea27000080
:1002b800b6310000b6310000b6310000b63100009a
:1002c800b6310000b6310000b6310000b63100008a
:1002d800b6310000b6310000b6310000b63100007a
:1002e800b6310000b6310000b6310000b63100006a
:1002f800b6310000b6310000b6310000b63100005a
:10030800b6310000b6310000a6250000b631000065
:10031800b6310000b6310000b63100008e2c000066
:10032800b6310000b6310000b6310000b631000029
:10033800b6310000b6310000b6310000b631000019
:10034800b6310000b6310000b6310000b631000009
:10035800b6310000b6310000b6310000b6310000f9
:10036800b6310000b6310000b6310000b6310000e9
:10037800b6310000b6310000b6310000b6310000d9
:10038800b6310000b6310000b6310000b6310000c9
:10039800b6310000b6310000b6310000b6310000b9
:1003a800b6310000b6310000b6310000b6310000a9
:1003b800b6310000b6310000b6310000b631000099
:1003c800b6310000b6310000b6310000b631000089
:1003d800b6310000b6310000b6310000b631000079
:1003e800b6310000b6310000b6310000b631000069
:0803f800b6310000b63100002f
:020000040000fa
:100400008fc420000e6d24000e0188000000000043
:10041000000020000000e000020032000001200087
:100420002002880014000700700007000000e000b0
:1004300003003a00802e2100010020000200370056
:100440000000200001002000810f70000100320038
:1004500014000700000020000000e000020032004d
:100460000000020000000000481702000000000029
:100470000040da000000fe004440a90040082000cf
:100480000000e0000300320000002000a00188000e
:100490004440a800000006008a1f78008b1f7800e7
:1004a0000000060091018800800478000000eb0045
:1004b0001a003700e284440032a0b4009905ba0063
:1004c000e284440032a0b4009906ba00e2844400f9
:1004d00032a0b4000006eb00476fde00fd07b2005b
:1004e000636ce10003003a00ebff07000000eb0043
:1004f0000a003700606ce10004003a00005deb0088
:100500008b05e900fdff3e00040037006168e10053
:10051000010032000086eb000b00070019c7ba008b
:100520001905ba000e04e00003003a000a00e000da
:10053000e0ff3a0000000600fe07b2009e018800be
:100540008a047800f5ff3700395dba008b05e900b1
:100550000c003200295dba008b05e900080032006a
:100560000c00e00003003a00e284440032a0b40032
:10057000f5ff370019ddba008b05e900faff3a00f4
:100580008904e800e184440032a0b40000000600c1
:100590009e260400000000000021ef0011088800e2
:1005a00020088800000006000a21ef00710888007a
:1005b00090088800000006001421ef00d108880090
:1005c000f00888001e61a9000000060000088800ed
:1005d000000006005008880000000600a0088800ff
:1005e00000000600c00888000000060000000500aa
:1005f0003200f800023b8800910188000008bb002f
:100600000500fc0051052000313b8800a10a2000b4
:10061000313b880061e7a8000000000000000000f6
:100620003200f900000006000400a10001003700bc
:100630000400a0003200f80091018800110024009d
:10064000013b8800f10f20003208bb000400a70026
:10065000b20078000198bb008301e900faff3a007c
:10066000680151000400a7006801510068005000b3
:100670001208bb00e2ff3700f30f20003200f80041
:100680009101880031002400013b88000208bb0072
:100690000388bb00daff37003200f800003b880017
:1006a000d7ff37003200f8009101880080027800ff
:1006b000620040003549ba00e08048003204e000a2
:1006c0000410a700100032008301e9000e00320080
:1006d0002549ba003204e0000410a7000a003200e5
:1006e0008301e900080032000408a300eeff320095
:1006f00015c9ba003204e0000410a700020032005d
:100700008301e900e8ff3a003200f900000006002a
:10071000889fbe008a9fbe008c1f7800b000070033
:10072000b700330003866c006450e1002e003200f5
:100730006420e100330032006150e1002f003200fc
:100740006120e1003100320085855500eb07b000e3
:1007500009002000080420000500370008044400b8
:1007600089844c000a0031000603430087834b0054
:100770000001530081815b00f8ff33000203be00db
:100780000800a0000804440089844c00f6ff3900ea
:10079000c639dd0083017300010032001300200020
:1007a0008904d1000884d3000998a3000500320011
:1007b0000800a7000300a0008904d1000884d3002a
:1007c0008b05e8008904d1000884d3000001eb0008
:1007d0000281d2004700070001f0a1000cf0a70041
:1007e00001f0a0008f0037006420e100910032008a
:1007f0000801be000200be00f7ff37006120e100e3
:100800008c0032006000b800f3ff370000002000c9
:1008100001f82700f0ff3700839f68000100e00027
:1008200002003d0060001000e08018000300e000be
:1008300002003d0060011100e0811900b4000700d2
:100840004f00e00002003b0060001000e080180054
:100850000000060014002000bd003700f4ff2f0048
:10086000bb0037000001be00480007000470a7006d
:1008700003f0a1006509b100160032000d0035003b
:100880006828e10006003500f0ff2f00f1ff270087
:100890000300e00013003b000100280000000500f9
:1008a00000004000818048008502e900fcff3a001a
:1008b00008003700f88f420002003c008000eb0087
:1008c000000005008100d1000080d3008502e8000f
:1008d000fcff3a000300e00002003b006000100053
:1008e000e0801800000006004f89de0082017800d9
:1008f000b200370081002000618055000b003d00f0
:100900000b00200061fe2f000100e1001d003400fb
:1009100082817100610164008904d1000884d300e0
:100920000000e800faff3a00710020006100640056
:1009300003007000020060000900320061044400fe
:10094000e0844c000988a500050032008b05e80012
:100950006808e10002003a008904d1000884d3004d
:10096000f20f20000258e10005003d00c75ddd00e8
:10097000f907b200898075000800780000000600c1
:100980000bf827008b00780000000500c70ade0086
:10099000f107b200f50fb20008003200e1cf4200cb
:1009a000020032000170a00024000500810f7000d9
:1009b000010032000408050044000500810f7000aa
:1009c00002003a00140005008502e9000000400022
:1009d00081c04800fcff3b000170a000240005001e
:1009e0000004be00e9ff07000003be000405be00ce
:1009f0000200be00e5ff0700844f750000000600fe
:100a00000200be006450e100050036006420e100f1
:100a1000020036000968a30001003a000800be0089
:100a20000160a0004f0678004f05be004f04be00d5
:100a300000000600f0ff2f00f1ff2700f9ff37004c
:100a4000889fbe008a9fbe008c1f7800e4ff0700cd
:100a5000ebff330003866c006450e1002400320099
:100a60006420e100270032006150e10022003200e2
:100a70006120e100210032008b854200eb07b100cc
:100a80000134b800003ab8000804420089844a00e2
:100a9000013ab8000030b8008880400009014a00df
:100aa000040033000000400081804800020149003a
:100ab0008b05e900c909dd008301700001003200e7
:100ac00013002000c814de004814dd004709de00d2
:100ad0001200b200c808de000884700085ff07001d
:100ae00001f0a1000cf0a70001f0a000cdff37003d
:100af0006120e100cfff32000801be000200be000d
:100b0000f7ff37006150e100fcff3a00c9ff3700f2
:100b10006022b800060220000000d0008180d200d0
:100b20000482d2008582d2000000a000020252009e
:100b300083825a00030031000202420083824a008d
:100b40000000a1000603e900f3ff3a0000000600e0
:100b5000889fbe008a9fbe00841f7800a0ff070008
:100b60004f00780011003300f0ff2f00838f6c00de
:100b700006003b00040565000a00a70008003700d6
:100b800009f0a6001000200008003700820f540072
:100b9000838f5c00030039001000200001003e003c
:100ba0000000200009f0a7000000ea004f05be0089
:100bb0004f04be000000e00000000600881f78001f
:100bc000030478000300e00007003d00600010000f
:100bd000e080180060011900e081190002003b006c
:100be00001f02d00030037000400070008f0a70003
:100bf00001f0a0004f04780000000600889fbe00ae
:100c00008a9fbe000082700004027100048271009d
:100c1000260032000004be000200be006011b800d1
:100c20006b092000950220000182cf000a003900e4
:100c30000541b1000082cf00070039000541b10035
:100c40000982cf00040039000541b1000882cf00bd
:100c5000010039000541b100054252001200320086
:100c60000a003b0082817100610164008100d100b3
:100c70000080d3008984d3000884d3008b05e8006a
:100c80000442e800f7ff3a00070037000804440078
:100c900089844c0000004800818048008b05e900f1
:100ca0000442e900f9ff3a0012ff07004f05be00b9
:100cb0004f04be00000006008001780002003700eb
:100cc000b15978000201e9000200e000fcff3a009f
:040cd000000006001a
:020000040000fa
:100cd40000020000060100000403000005000000fb
:100ce400000000004a01000094020000de0300003e
:100cf4002705000070060000b90700000109000084
:100d0400480a00008f0b0000d50c0000190e0000eb
:100d14005d0f00009f100000e01100002013000090
:100d24005e1400009b150000d61600000f1800008a
:100d3400461900007b1a0000af1b0000e01c0000f5
:100d44000e1e00003b1f0000652000008c210000e7
:100d5400b1220000d3230000f3240000ff7f000031
:100d6400fb7f0000ec7f0000d37f0000b07f000019
:100d7400837f00004c7f00000b7f0000c17e0000d9
:100d84006c7e00000e7e0000a57d0000337d000017
:100d9400b87c0000327c0000a37b00000a7b0000ca
:100da400687a0000bc7900000679000047780000ea
:100db4007f770000ad760000d3750000ef7400006b
:100dc400017400000b7300000c7200000471000039
:080dd400f36f0000d96e00006e
:020000040000fa
:100ddc003600f800809fbe00829fbe00849fbe003c
:100dec00869fbe00889fbe008a9fbe008c9fbe005f
:100dfc000400fa00400f20002002880006100700b3
:100e0c0064be200014017800e40142001300780055
:100e1c00615525000193b900cf92de00058a53007d
:100e2c000201ea00000151000193b9004f91de006c
:100e3c000482e800028a53000182b9004f80de0070
:100e4c008089520020c02000104078006140600072
:100e5c008004eb00080032001248e200040032006b
:100e6c008083200009070700800478000200370007
:100e7c004913070080047800290e0700804678008b
:100e8c0020c0200010407800624060000500320055
:100e9c00eb0e07000080fb00a1662800614478007f
:100eac0004003700c8032000110009008804d80092
:100ebc000044e8006bc8bf00884f5000ba003200f5
:100ecc0020c0200010407800704060000d003200ff
:100edc000f1507001248e2000a003a00a608e300ca
:100eec0007003a00a18620009140780088cf50007e
:100efc0004003200e06f24001034a0000100370021
:100f0c003045880020c0200010407800614060000f
:100f1c004400320020c02000104078006240600085
:100f2c0040003200fa140700a408e30007003a005e
:100f3c00a286200012417800884f51000400320034
:100f4c00e06f24001034a000010037002045880019
:100f5c00e14f540010003a006bc8bf00e64f500040
:100f6c000d003a007e80440060438800711620001a
:100f7c00810f50003e03340060eb2f00090040004d
:100f8c006043880060c0b3006ae8b70010c0b300cb
:100f9c006be8b70037003700e64f54000e003a00fc
:100fac006bc8bf00e14f50000b003a007e8054002c
:100fbc006043880035033b00a0142000090040006a
:100fcc006043880010c0b3006ae8b70060c0b3008b
:100fdc006be8b70068003700b386200093417800b7
:100fec0088cf510009003d007e804400604388009a
:100ffc0071162000810f50000a00340060eb2f00a6
:10100c000900400060438800060037007e805400d1
:10101c006043880003003b00a0142000090040003e
:10102c0060438800b486200014427800a586200016
:10103c00844a7800b6862000084b7800e34f5400b1
:10104c002600320005003c00e14f5400090032003c
:10105c00e24f540054003a0013003700e54f54009f
:10106c00380032002a003500e64f54004e003a009a
:10107c004100370060be200090438800808720002c
:10108c00f043880080be20008043880060872000e9
:10109c00e0438800a0be20007043880040872000f9
:1010ac00d04388004000370060be20009043880089
:1010bc0080872000f0438800a0be20008043880079
:1010cc0040872000e043880080be200070438800e9
:1010dc0060872000d04388003300370080be20009a
:1010ec009043880060872000f0438800a0be200059
:1010fc008043880040872000e043880060be2000c9
:10110c007043880080872000d04388002600370079
:10111c0080be20009043880060872000f043880048
:10112c0060be20008043880080872000e043880058
:10113c00a0be20007043880040872000d043880068
:10114c0019003700a0be2000904388004087200083
:10115c00f043880060be2000804388008087200018
:10116c00e043880080be2000704388006087200028
:10117c00d04388000c003700a0be200090438800ac
:10118c0040872000f043880080be20008043880008
:10119c0060872000e043880060be20007043880018
:1011ac0080872000d04388000806fb001000280030
:1011bc000006660004003b000c06e900e0ff2f006f
:1011cc000c0670000c06e80020c0200010407800cf
:1011dc00624060001700320020c0200010407800f0
:1011ec00e14060000000eb00200032006043800012
:1011fc0000805400310b2000810f5000020034009d
:10120c008016b10004003700c1f42f00810f50008c
:10121c0001003d008016b000fe0f400001003d00b3
:10122c0020fe2f00fe0f500006003400e0012000cd
:10123c0004003700c2032000110009008204d8000a
:10124c007e8050000000e00008003d000000ea0035
:10125c0000004000016b2800e104780021672800a1
:10126c00610478000804ea00050037000000400023
:10127c00016b2800e10478002167280061047800e4
:10128c000c04e0002700320093438000824380006e
:10129c00130578001203550009b3b900744380009c
:1012ac009402780008a8b900e0bf9f00f1bf9f002e
:1012bc006fbd9700ffbd9700c15add004f50de0097
:1012cc0000807200d5ff2f000585b900eabf9f0092
:1012dc00fbbf9f00c13ddd004f30de00008075007c
:1012ec0000004500104388001402780009a2b900e0
:1012fc0093017800128151000891b900412bdd0057
:10130c004f20de00000073000002ea00c11bdd006c
:10131c004f10de0000807300000052002043880054
:10132c00200037009343800082438000130578002f
:10133c001203550009b3b9007443800014007800ff
:10134c000885b900c15add004f50de0000807200e4
:10135c006305b900eabf9f00fbbf9f00c13ddd00e4
:10136c004f30de00008075000000450010438800ff
:10137c00140078000980b9009301780012825100a2
:10138c0008a2b900410bdd004f01de000201730021
:10139c00c12bdd004f20de000080730000005100e7
:1013ac00204388001248e200be003a009ac8bf00f1
:1013bc006a405000e14f500090003e000d04e000e8
:1013cc00b800320041608000604080008080500096
:1013dc009ac8bf00eb4f500052003a00d641800033
:1013ec00d4418000e2418000f3418000048240003f
:1013fc004fa5de000202420083024d00068350001e
:10140c00cfb3de004439dd00cc31de008301710046
:10141c004431dd000403410085834900e641880026
:10142c00f741880004418000e2418000f3418000d4
:10143c00cfa2de00820f5200838f5a0005003d00c0
:10144c0002418000cf91de00e2418800f341880028
:10145c000d00370004418000e2418000f341800020
:10146c000402ea00cfa2de00820f5200838f5a00e2
:10147c00050034002008ee0000017800cf91de005a
:10148c00e2418800f3418800a848e20021003200c4
:10149c00e2418000f3418000e00f5100e08f5900e1
:1014ac000e003400c4418000e2418000f341800012
:1014bc00cfa2de00820f5200838f5a0002003d0043
:1014cc003828ec004b003700e2418000f3418000eb
:1014dc00c2418800a868ef0046003700c441800074
:1014ec00e2418000f3418000cfa2de00820f520067
:1014fc00838f5a00020034003828ed003d0037007d
:10150c00e2418000f3418000c2418800a868ef00ee
:10151c0038003700e2418000f3418000c24188006e
:10152c00340037000100e00003003a004060800006
:10153c000000e0002c003200f6448000d041800016
:10154c00008050000683b90004458000d041800023
:10155c00008040000482b900a2418000b3418000a9
:10156c000602420087824a00040341008583490039
:10157c00a6418800b7418800a4418000b541800095
:10158c00b2428000c3428000820f5200838f5a0007
:10159c0005003400ba428000cb428000aa4188008a
:1015ac00bb41880012003700b4428000c542800065
:1015bc00a2418000b341800060021200e0821a0058
:1015cc00820f5200838f5a0009003400b24280000f
:1015dc00c342800060011100e0811900a241880023
:1015ec00b3418800020037003428ef003628ef00a2
:1015fc003828ef00d14188002a0037009ac8bf0074
:10160c00e64f500010003a003428ef003628ef0067
:10161c003b608000cb418800c04180002008e30083
:10162c0003003d002008f8003808f9001d003700c1
:10163c002008ee003808e3001a003d002008ee00f8
:10164c00c04188001700370000c5b3009a48e3007a
:10165c0011003a0022608000018520009140780042
:10166c00cf91de008100fb00e58050000202be003d
:10167c00010378000603e900030033000402420072
:10168c0085824a00fbff3700a4418800b5418800e1
:10169c003828ef00030037003428ef003628ef001d
:1016ac003828ef009ac8bf00eb4f500005003200fd
:1016bc009ac8bf00e64f5000020032001248e20008
:1016cc003d003200c141800010438000008050007a
:1016dc00664280000142800081005000068bb900f8
:1016ec00744280000142800081004000048ab900ed
:1016fc0042418000534180000602420087824a002a
:10170c0004054100858549004a4188005b418800f9
:10171c00004288004241800053418000904280008a
:10172c00a1428000800f5100818f590005003400c8
:10173c0090428000a14280004041880051418800c5
:10174c000f00370092428000a3428000404180008d
:10175c005141800060011100e0811900800f51009f
:10176c00818f59000600340090428000a142800015
:10177c0060001000e0801800404188005141880052
:10178c004241800053418000018520009140780047
:10179c008100fb000202be00010378000603e90091
:1017ac00030033008582d1000482d300fbff370095
:1017bc00840578007f003700104380002008e30088
:1017cc0003003d0010c0b30044e8b700050037002b
:1017dc00114380002008ee00808f500001003d0076
:1017ec0044e8ef004448e2005400320044c8bf0013
:1017fc00e14f50001e003a00014180001043800070
:10180c000080500066428000014280008100500040
:10181c00068bb900744280000142800081004000b8
:10182c00048ab900624180007341800006024200c4
:10183c0087824a0004054100858549006a41880079
:10184c007b4188000042880060418000714180002b
:10185c00e00f5000e08f5800260035002c28ef00d8
:10186c002e28ef004468ef004028ef0021003700dd
:10187c0044c8bf00e14f40001e003a000141800007
:10188c00104380008100ea00008050006642800016
:10189c000142800081005000068bb9007442800028
:1018ac000142800081004000048ab900624180003e
:1018bc00734180000602420087824a000403410003
:1018cc008583490066418800774188000042880082
:1018dc006041800071418000e00f5000e08f5800a3
:1018ec0004003c002c28ef002e28ef004468ef0089
:1018fc004028ef00a2418000b34180006441800089
:10190c007541800001852000914078000401410060
:10191c00858149008100fb000205be0001027800b0
:10192c000402e900030033008b85d1000a85d30043
:10193c00fbff37008a0578001e00370000c5b30096
:10194c009a48e3000e003a00a2418000b3418000a7
:10195c0001852000914078008100fb000203be004d
:10196c00010578000a05e900030033008783d100e4
:10197c000683d300fbff3700860578000d00370087
:10198c00a2418000b3418000218a20009140780060
:10199c008100fb000202be00010378000603e9008f
:1019ac00030033008582d1000482d300fbff370093
:1019bc00840578006408ee006642800011428000c5
:1019cc0081005000068bb9007442800011428000e7
:1019dc0081004000048ab90082418000934180005c
:1019ec000602420087824a000403410085834900b5
:1019fc00864188009741880010428800824180000f
:101a0c009341800090428000a1428000800f5100e1
:101a1c00818f59000500340090428000a142800063
:101a2c0080418800914188000f003700924280006d
:101a3c00a342800080418000914180006001110030
:101a4c00e0811900800f5100818f5900060034008d
:101a5c0090428000a142800060001000e0801800dd
:101a6c008041880091418800824180009341800030
:101a7c0001852000914078008100fb000202be002d
:101a8c00010378000603e900030033008582d100ce
:101a9c000482d300fbff37000405780020032000ec
:101aac0012032000060037000000e90004003a0091
:101abc0060c420001074a00000110700060037005d
:101acc00c201e20004003d00110e800001f0a100f3
:101adc00828f5000f4ff36009c08e20006003400b0
:101aec009c28ed009c08e20003003a0050c4200042
:101afc001014a000f11007004f5bde000b03430035
:101b0c000683d1004f50de000a0540000a85d10043
:101b1c0009b1b90008d2b900c12bdd004f20de009d
:101b2c0000807300d4ff2f000482b900c11ddd00ba
:101b3c004f10de00008075000002420008b3b900af
:101b4c0009d0b900c10add004f01de00028172002c
:101b5c00413ddd004f30de0000007500000041000b
:101b6c000c04e000010032000000ea00f1438000a8
:101b7c0080085200d1438000800840000402ea0033
:101b8c00e143800080085200a2438000b1438000f2
:101b9c00c0438000fe08070020c0200010407800e1
:101bac006440600027003a006808ec00404388005d
:101bbc00f30f5000230034006828ef00124380001c
:101bcc00104380000281b900e0408000f1408000a9
:101bdc00c4408000d5408000000151008181590033
:101bec00c61ddd004a10de0000807500ca98de00bc
:101bfc000001420081814a00c2408800d340880025
:101c0c00c0408000d1408000e00f5000e08f5800b1
:101c1c0002003d001828ef001a28ef00c240800097
:101c2c00d3408000a0408000b1408000800f510064
:101c3c00818f59000300340060c420001014a000f0
:101c4c009e1007008480a9000080fa004f06be0099
:101c5c004f05be004f04be004f03be004f02be0036
:101c6c004f01be004f00be003600f90000400600d8
:101c7c00b386200093417800a4862000034a7800a4
:101c8c00b5862000884a7800fafc3700b786200019
:101c9c0097437800aa862000074d7800bb86200069
:081cac00884d780034fd37007b
:020000040000fa
:101cb400e6874700889fbe008a9fbe008c9fbe00b7
:101cc4008e1f7800104278008049eb00e94f5200e3
:101cd40009003a008002eb00e2cf500034023a00df
:101ce400b048e2003202320010409000ea100700cf
:101cf400150020002e023700e74f52000b003a0077
:101d04008002eb00e1cf500029023a0070c0b3001a
:101d1400004978009ac8bf001041980020c0b30061
:101d240080497800150020002102370035c3b30034
:101d3400854f52000c003a008002eb00e1cf5000c6
:101d44001b023a0030c3b30000497800118b200015
:101d5400914078001141980020c0b3008049780078
:101d6400150020001202370025c3b300854f52002e
:101d740039003a008002eb00e2cf50000c023a0036
:101d84009a48e2000500320001cbb300a28920008a
:101d940012417800814f510005023a001040900032
:101da400b1e8b70058110700b1c8bf00ba0c07006a
:101db4000002eb0083042000a2b8200000002500ec
:101dc4001100200036fa0700220424000000250038
:101dd4001100200005fa0700a8b82000b1c8bf0010
:101de4000080fb008000eb00008cbe000a04200091
:101df4000805450010c0b300004d78000a00e80053
:101e04000048eb00c0aa2c00605e88000204200099
:101e1400880078000080eb00601007008000eb0071
:101e2400705e8800815e8800030420000801780049
:101e34000000250011002000faf907000304200027
:101e44000a0178000004250011002000f5f90700bc
:101e540015002000d601370085c4b300854f520019
:101e640026003a008002eb00b048e200d0013200c4
:101e7400e5cf50000c003a00a0409000c808dd00f7
:101e8400104090000080fb00810070004f08de00cd
:101e9400010040000080d10002e22400770f070017
:101ea40015002000c20137008002eb00e8cf50008b
:101eb400bf013a00704190004811dd00e0409000fd
:101ec4008180fb0002817000d0419000c819dd00c0
:101ed400c04090008180fb0083807000b04190007e
:101ee400c819dd00204090000080fb000300700052
:101ef400620f070015002000ad01370075c7b3005d
:101f0400854f520039003a008002eb00e6cf5000c2
:101f1400a7013600b048e200a501320090419000cc
:101f24008381fb0022c0200012427800034978001c
:101f34000201e800924178000049eb00a0419000c2
:101f44008381fb00304290004822dd00426f240070
:101f540003097200c04190008381fb00504290004d
:101f64004822dd000281e80003097200604290000b
:101f74000482fb000402d100e60141008449780098
:101f84008081eb00928f110008003a0022c02000eb
:101f94001254a00013c0b300d26f24000349780088
:101fa400670151000009eb0002003700d26f2400e2
:101fb4000049eb0042022000e8cf500002003a0042
:101fc400704190000281fb00d2378a0020c02000bb
:101fd4001040780061406000150020007401320058
:101fe40020c020001044a10071013700b5c5b30022
:101ff400854f520020003a008002eb00e3cf5000ee
:102004006b013a0020429000904090000500780057
:10201400e1cf500004003a0064c0b2000480fb0029
:102024000000e9004f00de00b0e8b70080c0b30054
:1020340080497800b1c5b300014978001041980087
:1020440060c0b3002041980031c0b3003141980012
:10205400a1c0b3004141980011c0b30051419800a0
:1020640060419800b0c8bf0070419800b0c8bf007c
:10207400150020004e01370055c6b300854f5200ad
:1020840068003a008002eb00b048e20048013200e8
:10209400e8cf50000e003a0070419000c04190001b
:1020a400c819dd00b04090008180fb00838070007f
:1020b400a0419000c819dd00104090000080fb0092
:1020c40003007000c90e0700150020003801370016
:1020d4008002eb00e6cf500035013a0090409000ba
:1020e400e1cf5000040032008002eb00e2cf500048
:1020f4002f013a000500370010019000a001900064
:10210400f24588000346880004003700100190005f
:10211400a0019000d2458800e3458800f045800086
:1021240001468000f0b79f0081bf9f00dc4580001e
:10213400ed4580000001be000c00be00c6f907009a
:102144000000e00003003c007fb497008fbc9700c0
:10215400010037000c04be000200200003f8230035
:102164000800be00baf907000000e0000c003500ca
:102174001e002000110020000e08dd00cf80de00cc
:10218400d8f907000005be000001be000800be002b
:10219400aff907000000e0001d003d000300370018
:1021a4000a0020000bf823000007eb00f0c0b30086
:1021b4000e47500002002000037024000c00be00f3
:1021c4001efa07000a01be0050f90700a4f907002f
:1021d4000004be0002002000037024007fb09700ba
:1021e4008fb8970015fa07000a01be0047f90700e7
:1021f4009bf907000002be000e41780088007800b9
:1022040004007800790e070015002000e80037006c
:102214000e07e800f00f5700d6ff3a008002eb00eb
:10222400e300370095c6b300854f520068003a00ba
:102234008002eb00b048e200dd003200e8cf50003d
:102244000e003a0070419000c0419000c819dd00b2
:10225400b04090008180fb0083807000a04190001a
:10226400c819dd00104090000080fb0003007000de
:10227400700e070015002000cd0037008002eb002f
:10228400e6cf5000ca003a0090409000e1cf5000e1
:10229400040032008002eb00e2cf5000c4003a0098
:1022a4000500370010019000a0019000b24588009d
:1022b400c34588000400370010019000a00190007d
:1022c40092458800a3458800b0458000c145800040
:1022d400f0b79f0081bf9f009c458000ad45800002
:1022e4000001be000c00be005bf907000000e00026
:1022f40003003c007fb597008fbd970001003700b5
:102304000c05be000200200003f823000a00be00f2
:102314004ff907000000e0000c0035001e0020000b
:10232400110020000e08dd00cf80de006df90700eb
:102334000004be000001be000a00be0044f907000c
:102344000000e0001d003d000300370008002000ed
:1023540009f823000007eb00f0c0b3000e4750005b
:1023640002002000037024000c00be00b3f9070033
:102374000801be00e5f8070039f907000005be00b2
:1023840002002000037024007fb097008fb89700ec
:10239400aaf907000801be00dcf8070030f90700bd
:1023a4000002be000e4178008a0078000400780024
:1023b400200e0700150020007d0037000e07e800fe
:1023c400f00f5700d6ff3a008002eb007800370088
:1023d400f74f520018003a008002eb00e5cf50009e
:1023e40073003a00b048e20071003200a189200075
:1023f40091407800eac05000e1cf50006c003e00ec
:10240400204190004811dd00904090008180fb0045
:1024140080c02000010871009000780015002000a1
:1024240001002800908f100061003a00100028007d
:10243400406088005e00370025c7b300854f520016
:102444001e003a008002eb00e3cf500058003a002f
:10245400b048e2005600320001c5b300a289200052
:1024640012417800814f510051003a002041900000
:102474004811dd00904090008180fb0040c02000a6
:102484000108710001402600908f10000400340000
:102494000100780020608800150020004400370007
:1024a400216080001500200000c02900808f5000aa
:1024b4003f003d00206088003d003700d5c6b300d2
:1024c400854f52001e003a008002eb00e5cf500019
:1024d40037003a00b048e20035003200a1892000fc
:1024e40091407800e6cf500031003a00204190003e
:1024f4004811dd00904090008180fb0060c0200006
:1025040001087100100078002008e30004003d0079
:102514000341800033608800150020002400370048
:10252400316080002008ee0015002000808f5000ec
:102534001f003d002008ee00306088001c003700ba
:10254400e0c6b300804f520011003a008002eb0055
:10255400e1cf500016003a0050c0b3008049780023
:10256400e0c6b300004978000200780061c0200092
:102574001168780091409000114098000040eb00f1
:1025840040419800304198001500200008003700b1
:102594008002eb0000c7b300804f520004003a00f1
:1025a40051c0b2008182fb008502e900cf2ade001f
:1025b400050078004f0778004f06be004f05be00a7
:0c25c4004f04be006f00b10000000600d4
:020000040000fa
:1025d000d20b0000380000000000000000080000de
:1025e0009a000000000000009a0800001600000099
:1025f00002000000b0b2ff00ff0c000010000a0053
:1026000000ff7f00ff7f010000ff7f00c4ff3c0050
:1026100000000000e046000008000000000000008c
:102620000209000002000000000000000a0c000087
:102630003200000002000000000000000000000066
:102640000002000002010200ff0202000200ff007f
:102650000202010002ff0100000202000202020069
:102660000202000001ff020001020200ff0002005e
:102670000202ff0002010200000000000a0b00003d
:102680008000000000000000d20800000e000000e2
:1026900000000000440c00000400000000000000e6
:1026a000040900000200000000000000ee08000025
:1026b0000800000000000000060900000200000001
:1026c0000200000001000000e00800000e00000011
:1026d000000000008a0b000048000000020000001b
:1026e00001000000000000000000000000000000e9
:1026f00000000000000000000000000000000000da
:1027000000000000000000000000000000000000c9
:1027100000000000000000000000000000000000b9
:1027200000000000000000000000000000000000a9
:102730000000000000000000000000000000000099
:10274000b008000012000000000000003c0c000077
:10275000080000000000000008090000020000005e
:10276000000000000a090000000200000200000052
:1027700000002100104220006330840040a550007a
:10278000c660e7007008810029914a00a16bb10082
:102790008cc1ad00d1cee100eff13100121002008a
:1027a0007332520022b552009442f70072d6620092
:1027b00039931800837bb3005aa3bd00d39cc30098
:1027c000fff3de00e3622400433420000401140020
:1027d000e664c70074a4440085546a00a54bb500a4
:1027e0002885090095eee500cff5ac00c58dd50034
:1027f00053367200261116003006d70076f66600b2
:102800009556b400465bb7007aa719009738870041
:10281000dff7fe00e79dd700bcc7c40048e55800bd
:102820008668a70078400800611802002823380055
:10283000ccc9ed00d98ee900aff94800896999004b
:102840000aa92b00b9f55a00d44ab7007a966a0053
:10285000711a50000a333a00122afd00dbdccb006b
:10286000bffb9e00eb799b00588b3b00bb1aab0073
:10287000a66c87007ce44c00c55c22002c033c0065
:10288000600c41001caeed008ffdec00cdcddd00f5
:102890002aad0b00bd688d00499d97007eb66e0085
:1028a000d55ef4004e133e00322e51001e700e0015
:1028b0009fffbe00efdddf00fccf1b00bf3aaf0083
:1028c000599f78008f889100a981ca00b1eba100bf
:1028d0000cd12d00c14ef1006fe1800010a100006d
:1028e000c230e300200450002540460070676000bd
:1028f000b983980093fba300dab33d00c31cd30057
:102900007fe35e00f3b102009012f30022d23200a6
:1029100035421400527762005672ea00b5cba5002a
:10292000a8958900856ef5004fe52c00d50dc500f2
:10293000e234c30024a014008104660074476400dc
:102940002454050044dba700fab7990087b8970024
:102950005fe77e00f71dc7003cd7d30026f23600a4
:102960009106b0001657660076761500463456007c
:102970004cd96d00c90ef9002fe9c80099e989000a
:102980008ab9ab00a944580065480600782768005a
:10299000c018e10008823800a3287d00cb5cdb0072
:1029a0003feb1e00fbf98b00d89bbb00ab9abb0032
:1029b000754a54005a376a00167af1000ad01a0094
:1029c000b32a92003a2efd000fed6c00dd4dcd00d4
:1029d000aabd8b00ade89d00c98d26007c076c0068
:1029e000645c45004ca23c00832ce0001cc10c0040
:1029f0001fef3e00ff5dcf007cdf9b00afbabf0042
:102a0000d98ff8009f176e00367e55004e745e0019
:102a1000932eb2003ed10e00f01e0000e8460000ea
:102a20000c00000000000000c208000010000000c0
:102a300000000000004700008000000000000000cf
:102a4000804700008000000000000000f446000005
:102a50000a0000000200000000005a000000000010
:102a60000000000000000000fe4600000200000020
:102a700000000000f6080000080000000000000050
:102a8000fe0800000400000002000000ff7fff00bd
:082a9000ff000000000000003f
:020000040000fa
:102a9800889fbe000004780020c020001040780005
:102aa800e24060000000eb00f5003a001248e20046
:102ab800f3003200210f800001f0a7008100ea0036
:102ac80000022000808f50000200340010c0b300c4
:102ad8008ce8b700c03782006300b900cf04de007d
:102ae800008044008084d10012c8bf00e24f50002b
:102af80012003c00fb48e200100032008c48e20063
:102b080005003a008e28ef00000ceb00e06f24006f
:102b18001034a0001268ef000040eb00d16f2400d1
:102b28001104e0000100320030c0b30012e8b70021
:102b3800e06f24001044a100f80d070012c8bf0080
:102b4800e14f50001c003a00204180007144800091
:102b58004f01de00000041000080d100810f5000cd
:102b6800030034008100e800714488001200370037
:102b780080448000808f54000a0034002144800083
:102b88008100e80021448800820c2000828f5000d8
:102b9800090034008428ef000000e8008044880021
:102ba8000500370080f82f0070458800ac28ef003a
:102bb80020c0b30012e8b70012c8bf00e24f5000af
:102bc80016003a00804480008904ea00808f54008f
:102bd8000a003d00114480008100e800114488008b
:102be800820c2000828f50000c0034008228ef00f5
:102bf8000000e90080448800080037008e28ef00b4
:102c0800000ceb00e06f24001024a00060c420003a
:102c18001044a000aa0c07001268ef0012c8bf00f9
:102c2800e34f50000f003a009008f800aa08f90096
:102c3800704480002408e300030034000000e8002a
:102c480070448800070037008008ec0000448800c2
:102c580001712200810f50000200340040c0b3000f
:102c680012e8b70012c8bf00e44f500012003a0043
:102c780050458000ae08b400804488008608ec0007
:102c88003044880001532700810f50000a003600a5
:102c9800b2478000c1378200200f80000182b9004e
:102ca80011000900422ad800504488008628ef0005
:102cb80050c0b30012e8b70012c8bf00e54f50007b
:102cc80062003a0050458000ac08b4008044880097
:102cd8008608ec003044880001a62e00810f5000c1
:102ce8005a0036008e28ef00b4478000c2378200b1
:102cf800200f80000281b900110009004419d80092
:102d080000017800424488005344800003005100c9
:102d1800310b2000810f5000030034008016b100f1
:102d2800810f5000fdff3c00c1f42f00810f5000bf
:102d380003003d008016b000810f5000fdff3500f4
:102d48000002780004f0a7000402ea00a1052000b0
:102d5800810f52002b003400cf00de0000804000bd
:102d68008080d1008380400070162000808f500042
:102d7800030034008116b100808f5000fdff3c0035
:102d88000100e00002003d008116b000feff3300a4
:102d9800f34288000243880052458000a205b00033
:102da80070458000ac08b400cf01de00008041000f
:102db8000080d10000014100606f2400010851002b
:102dc80071162000908f10000400340082e92f0053
:102dd80010084100908f1000fcff3c00b0378200c3
:102de8000000e00005003d00606f2400811620000f
:102df800108840001000e000fcff35001268ef006a
:102e080012003700ac08e20007003200ac28ef00df
:102e180080f82f00704588008628ef0040c0b30076
:102e280012e8b700090037008e28ef00000ceb000d
:102e3800e06f24001044a1001054a00060c42000da
:102e48001044a0001e0c07001268ef0072448000b6
:102e5800020c78008044800071162000810f500019
:102e6800030034008016b100810f5000fdff3c00c4
:102e78000000e00002003d008016b000feff3300b5
:082e88004f04be00000006002b
:020000040000fa
:102e90000400fa00889fbe008a9fbe005b090700fd
:102ea000290a0700ba0b0700a00020003040880064
:102eb000f30407008660a9009660a800bb0c070019
:102ec000c00c07009460a800c0bd200003000900ea
:102ed0000058eb00e06f24000048eb000001eb001d
:102ee0008200780002007800650b0700530c070091
:102ef000700a07000000e000020032000428ef0022
:102f0000faff370004a8ef009c0c0700b10a070085
:102f1000e000200001002000a0bf9f00b1bf9f0083
:102f20000002eb00430020006c81570000002500e8
:102f300011002000dbf507009760a8004ff0970014
:102f4000820b070020c02000904078008040eb00fa
:102f5000014878000000e80010417800014878003e
:102f60000000e900b048e200feff320010417800a6
:102f7000e140610003003a0010417800e240610046
:102f8000f8ff32002008e200f6ff32009242800093
:102f9000a3428000e00f5100e08f5900f1ff3200a2
:102fa00020c02000104078006140600004003a001a
:102fb00020c0200010407800704060000a003200fd
:102fc00020c020001081fb004311de006141610040
:102fd000c06f240090407800a03782008180fb0001
:102fe00019070700020037008b40a9009b40a90089
:102ff0001268ef00e06f24001044a10020c0200000
:1030000010407800624060000b00320020c02000b9
:103010001024a100c06f24001081fb006611b900cc
:10302000cf91de000000200011002000b8f607005c
:10303000aa0c07000d00370020c0200010407800c7
:103040006440600001003200aa0c070020c020008c
:1030500010407800614060000400320010c0b300ee
:1030600012e8b700e06f24001044a000228a20007c
:103070001241780001458000f0448000ee0a07000c
:10308000680c07009a68ef000080200061092000aa
:10309000310098008080eb00210098000b020700af
:1030a0000005eb0048c42000eb6f2400010a070074
:1030b0000000e000090032006648e2000100320032
:1030c000200c070000cab3009ae8b70006a8ef007a
:1030d000e0012000204088000d003700c262ab00f4
:1030e0000b0032001804a0006648e2000100320024
:1030f000140c07009a68ef0000802000610920008e
:10310000310098008080eb0021009800e7ff370035
:103110001804a1009a48e2000600320000cab30079
:103120009a48e300030032006a0c0700fd0b070019
:10313000630a0700304180008a0f5000dbff320035
:103140003a418000b98920009944780000cab30050
:103150009a48e3000e003a00e9cf5400d3ff3a004a
:10316000060c07000a0b0700804deb009a68ef0081
:103170000080200061092000310098008080eb0071
:1031800021009800803e2000e0448800c7ff3700ff
:103190009a48e20012003a00e6cf540007003200dd
:1031a000eacf540005003200ebcf54000300320098
:1031b00000c5b30080cf5400bcff3a00094178003d
:1031c000a1892000824878000628ef0004a8ef00bb
:1031d000803e2000e0448800c20b0700b3ff3700a8
:1031e0009ac8bf00e64f5000090032009ac8bf00dd
:1031f000ea4f5000060032009ac8bf00eb4f500063
:103200000300320000c5b3009a48e300a7ff3a006c
:103210000904e00002003200e9cf540008003a003f
:10322000c80b07009a68ef000080200061092000a9
:10323000310098008080eb00210098009bff370050
:10324000e6cf540007003200eacf540005003200f8
:10325000ebcf54000300320000c5b30080cf540010
:1032600092ff3a00db090700803e2000e04488001e
:1032700089407800a0892000014878008bff370042
:020000040000fa
:103280000003be003064ab00070032003164ab00c5
:10329000050032003264ab00030032000080eb0016
:1032a0003364ab00df003a003064ab0038003a0012
:1032b00003027800824078000601be0000702400fe
:1032c0003d040700608c20000008eb001000900017
:1032d000e20f50000d003c0051468000e28f50008c
:1032e0000a003c0062468000e20f510007003c00eb
:1032f000638c20000000e800900198008100e80045
:10330000a10198000201e800b2019800608c200041
:1033100010417800e3406100e3806000c2ff2f00ad
:1033200084218000840161008381700083218800f2
:10333000a0419000e3816100c819dd00f1cf2f00aa
:10334000852180000582600004827100842188004c
:10335000c0419000e381610094218000040161007c
:10336000028171009221880060409000630060003b
:103370004800dd009521800085806000810070009c
:10338000912188003064a8000000eb00a500370000
:103390003164ab0036003a000302780082407800c6
:1033a0000601be000071240003040700c828ef00d6
:1033b00030468000e20f50000c003c005146800077
:1033c000e28f500009003c0062468000e20f51008d
:1033d00006003c00638c20008009e8008100e800c2
:1033e000a10198000201e800b2019800608c200061
:1033f00010417800e3406100e3806000c2ff2f00cd
:103400008421800084016100838170008321880011
:10341000a0419000e3816100c819dd00f1cf2f00c9
:10342000852180000582600004827100842188006b
:10343000c0419000e381610094218000040161009b
:10344000028171009221880060409000630060005a
:103450004800dd00952180008580600081007000bb
:10346000912188003164a8000000eb006d00370056
:103470003264ab0036003a000302780082407800e4
:103480000601be0000722400cb030700ca28ef002b
:1034900030468000e20f50000c003c0041468000a6
:1034a000e28f500009003c0062468000e20f5100ac
:1034b00006003c00638c20008009e8008100e800e1
:1034c000910198000201e800b2019800608c200090
:1034d00010417800e3406100e3806000c2ff2f00ec
:1034e0008421800084016100838170008321880031
:1034f000a0419000e3816100c819dd00f1cf2f00e9
:10350000852180000582600004827100842188008a
:10351000c0419000e38161009421800004016100ba
:103520000281710092218800604090006300600079
:103530004800dd00952180008580600081007000da
:10354000912188003264a8000000eb0035003700ac
:1035500003027800824078000601be000073240058
:1035600095030700cc28ef0030468000e20f5000a2
:103570000c003c0041468000e28f500009003c00f6
:1035800052468000e20f510006003c00638c200090
:103590008009e8008100e800910198000201e8003c
:1035a000a2019800608c200010417800e340610087
:1035b000e3806000c2ff2f0084218000840161004d
:1035c0008381700083218800a0419000e381610025
:1035d000c819dd00f1cf2f00852180000582600031
:1035e0000482710084218800c0419000e381610061
:1035f0009421800004016100028171009221880001
:1036000060409000630060004800dd00952180006c
:103610008580600081007000912188003364a800db
:083620000000eb0000000600b1
:020000040000fa
:103628000600fa00889fbe008a9fbe008620a90077
:103638000602a8000602ab0004003a007c0037002e
:103648000000e90002003a003d003700f01f2300a7
:103658000602ab00faff3a00750037000000e900e7
:1036680002003a0038003700f01f23000802ab00c0
:10367800faff3a008620ab000400320072003700df
:103688000000e90002003a0031003700f01f230073
:103698008620ab00faff32006b003700f00f2000e5
:1036a80090bf9f00a0bf9f00f08157008000eb00f3
:1036b800f21f23008620a9000662a8000662ab005c
:1036c80004003a00640037000000e90002003a00f4
:1036d80021003700020078000662ab00faff3a00ca
:1036e8005d0037000000e90002003a001c003700c6
:1036f800020078000682ab00faff3a006800370043
:103708009fbd9700c85ddd002fb897008b0570003e
:103718008620a9000642a8000642ab0004003a0031
:103728003e0037000000e90002003a000e003700b2
:10373800f01f23000642ab00faff3a0037003700bb
:103748000bff2f00090037001bff2f000700370071
:103758002bff2f00050037003bff2f000300370029
:103768004bff2f00010037005bff2f0007e2a90085
:10377800c902a90000fe2f00c826b600cf02a80083
:103788000004eb0019002800eaff2f00090064007c
:1037980003003b000000e900000075000000e8009d
:1037a800610060004800dd00511680000180a10022
:1037b80081007000511688000019200001002000c7
:1037c800cd0907000804e800f30f5400efff3a00a2
:1037d80007e2a8000019200001002000c609070020
:1037e8008620a90000fe2f000622b6000642a80087
:1037f8000642ab0004003a002d0037000000e90043
:1038080002003a0004003700f01f23000642ab0014
:10381800faff3a0026003700ebee2e000b00780086
:103828004f05be004f04be000080fa0000000600ed
:103838008620a900100d2000101088000802ab0097
:1038480089ff3a008bff37008085eb000802e20011
:10385800afff350091ff37008620a90000108000d7
:10386800802978008620a900010078000010a200b5
:1038780000f0a7000000ea000000e9004f00de00a9
:103888004500dd00341080000450a10004027000df
:10389800341088000682a8000682ab0094ff3a0024
:1038a8008100e800e38f500082ff3a0094ff370060
:1038b80000192000010020008f09070052010700ad
:0438c800d6ff3700f0
:020000040000fa
:1038cc00889fbe008a9fbe008c9fbe008e1f780012
:1038dc0010438000f80f2000c9c32000884c600002
:1038ec004800de000905e800004d780060408000cb
:1038fc008985e800884d60004800de00638644003e
:10390c00004e78004040800051408000e486440026
:10391c00884e60004800de0065874400004f780048
:10392c0042408000534080006681440008c9610019
:10393c004818de000202e800004a780008c9bf00ff
:10394c000080fb004400dd000080a000cf80de0082
:10395c008901780082c0b30046fe0700a5892000cb
:10396c0095427800854c7800e06f2400104d78006b
:10397c00a2418000b3418000018520009140780075
:10398c008100fb00e58050000202be0001037800bc
:10399c000603e900030033008582d1000482d300c2
:1039ac00fbff3700884d62004820de00004e780097
:1039bc0040c42000904e78000000e800104f7800c2
:1039cc000000e800e6804400904878000000e80021
:1039dc000101e8001049780008c9bf000080fb0015
:1039ec004400dd003010b300cf80de008901780088
:1039fc0082c0b3001ffe070020c0200004c2b30029
:103a0c001040620023003200fd48e2002100320029
:103a1c00d1428000080078008901780080c96000dc
:103a2c00c808de000a01780001497800e1428000f4
:103a3c000b01780000c96000c808de000c0178009a
:103a4c0001497800f14280000d01780000c9600046
:103a5c00c808de000e01780001497800014380009f
:103a6c000201e80000c96000c808de000200e8009e
:103a7c0001487800fd68ef0008c9bf000080fb001a
:103a8c004400dd009010b300cf80de0082c0b30094
:103a9c00f8fd07004f0778004f06be004f05be002b
:083aac004f04be0000000600fb
:020000040000fa
:103ab400e6874700889fbe008a9fbe008c9fbe0099
:103ac4008e1f78000000eb00a05e8800c05e8800b6
:103ad40021e3a8006055b8006044b80000077800ee
:103ae4000dfe2f008c3e20008032200010886600de
:103af4002003a9002023a800400620000100200084
:103b0400fe0807002023a9000000eb000300370093
:103b14000000e8008c0f5000460032002003ab0088
:103b2400fbff32000118800081bf9f004119800013
:103b3400018066000000a000401988002003a9004d
:103b44002023a8004006200001002000eb08070005
:103b54002023a9000c007800020037000000e900cf
:103b6400360032002003ab00fcff32000018800056
:103b7400f0b79f0041198000018066000010a0008a
:103b8400401988002003a9002023a8004006200033
:103b940001002000d90807002023a9000000eb0041
:103ba400030037000000e8008c0f500025003200ad
:103bb4002003ab00fbff32000018800000188000d7
:103bc4005709070071072000810f50001f003600bd
:103bd4000fb89700cf80de000804400089844800b5
:103be4007fb09700cf80de000a0540008b85480037
:103bf4000e07e800800c2000800f5700baff3a003f
:103c0400820c2000030020000800be0001f307001e
:103c1400a05e8800820c2000030020000a00be0081
:103c2400fcf20700c05e880021e3a9000000eb005d
:103c3400070037000080eb00050037000080eb0030
:103c4400030037000080eb0001003700e0ff2f0085
:103c54004f0778004f06be004f05be004f04be005c
:083c64006f00b1000000060032
:020000040000fa
:103c6c003600f800809fbe00829fbe00849fbe007d
:103c7c00869fbe00889fbe008a9fbe008c9fbe00a0
:103c8c008e1f7800ea8747008700a9001c002000df
:103c9c007ec420004a208000fa03b2001d002000e0
:103cac008a6edd00012180000d806000460032002c
:103cbc004455dd000078240000054500ca459000fd
:103ccc00ef856500e88f5500020034001e44a0000b
:103cdc008b0020009a40780061c060001f00320009
:103cec005a4490000884fb004244de000884fb0028
:103cfc008004eb0009f0a0002a4090000080fb003b
:103d0c003a4190006f0161004811dd000201700022
:103d1c008001eb004618dd00ca10de008100700047
:103d2c004610dd0000047400818474009a80fb004e
:103d3c00c208de001a4090007f0060004600dd00e3
:103d4c00008070008000eb00c200dd00000020004d
:103d5c000004740081847400070037001a80fb0093
:103d6c004200de001a4490007f0464004644dd00eb
:103d7c00080470008004eb00e60045000b0178009d
:103d8c0068805700c9f307008d86ea000d21880072
:103d9c005a4090000018a300020032001e24a0001c
:103dac0005003700e88157000b4178000800be0081
:103dbc0024468000040001000c06e800e60f5600c3
:103dcc00b4ff3a0004003700e50f560002003a0039
:103ddc0050c420001004a000af00b1004f077800c1
:103dec004f06be004f05be004f04be004f03be0081
:103dfc004f02be004f01be004f00be003600f9005e
:043e0c00004006006c
:020000040000fa
:103e10008620a9000602a8000602ab0004003a00b2
:103e2000510037000000e90002003a00400037006e
:103e3000f01f23000602ab00faff3a004a003700e9
:103e40000000e90002003a003b003700f01f2300a9
:103e50000802ab00faff3a008620ab0004003200f3
:103e6000470037000000e90002003a003400370044
:103e7000f01f23008620ab00faff3200400037001d
:103e80008620a900b0012000101088000802ab00b5
:103e900004003a00060037000000e90002003a0082
:103ea00029003700f01f23000802ab00faff3a0098
:103eb0008620ab0004003200340037000000e90027
:103ec00002003a0022003700f01f23008620ab00da
:103ed000faff32002d0037000000e90003003a002d
:103ee0001d003700f01f230002002800431080004f
:103ef00083006100f8ff32008620a9000642a80076
:103f000010c0b3000642ab0004003a0015003700b1
:103f10000000e90002003a0011003700f01f230002
:103f20000642ab00faff3a0010c0b3000d003700a4
:103f30000040eb000b0037000040eb0009003700a9
:103f40000040eb00070037000040eb0005003700a1
:103f50000040eb00030037000040eb000100370099
:103f60000040eb00000006008620a900000d2000a4
:103f7000101088000802ab00b4ff3a00b6ff37000b
:103f80000802e200beff3d00dbff37008620a900eb
:0c3f90000802e200d3ff3d00d7ff37001d
:020000040000fa
:103f9c00889fbe000004780081037800834780006e
:103fac00888f51000b003d0003bab90011000900c5
:103fbc00482ad80080037800834780000392b90018
:103fcc0011000900482ad800000178000304780089
:103fdc000e0037000302ea00840f54000b003d0072
:103fec000802ea0003bbb90011000900443bd800e9
:103ffc0080037800884780000891b90011000900ff
:10400c004419d800000178000804ea0083478000b6
:10401c00838f53000b00340003c2b9001100090058
:10402c00472ad80000047800834780000392b90027
:10403c0011000900472ad80000017800830378009a
:10404c000e0037000302ea00848f53000b003d0082
:10405c000702ea0003c4b90011000900444cd8005f
:10406c0000047800874780000791b900110009000f
:10407c004419d800000178008703ea0083478000c8
:10408c00830f51000b00340003c2b900110009006a
:10409c00422ad800000478008347800003bab90094
:1040ac0011000900422ad80080037800030178002f
:1040bc000e0037000302ea00840f51000b003d0094
:1040cc000202ea0003c1b900110009004419d8002a
:1040dc00000478008247800002bbb900110009007f
:1040ec00443bd800800378000201ea00934780002b
:1040fc0003004400b00e880083804300c10e88008a
:10410c0003014100d20e88004f04be0000000600df
:020000040000fa
:10411c00889fbe008a9fbe000204be008081eb0017
:10412c0072468000ef0f51004e003e00faff2f0048
:10413c00fbff2900098365008003eb00c032dd0022
:10414c00040020006143b8000602720087827200ee
:10415c00018165008001eb00c014dd000800200027
:10416c006101b80002047400838474008a0f520049
:10417c008b8f5a002f003200068d200016437800da
:10418c008680fb004240a9001200340042378200b6
:10419c0053378200840f5100858f5900270032005d
:1041ac00806e24000005eb00040037005001be00b7
:1041bc00840f5100858f5900040032000a05e80075
:1041cc00810f5500f9ff350002003700e10f450063
:1041dc001b003a00e3ff2f00e34f53002100320095
:1041ec00c208dd00806e2400010040000488be007f
:1041fc000643e800008d2000064878000685fb0089
:10420c00cf28de00f6ff2100050363008003eb00de
:10421c00c031dd00020020006123b80006017100ee
:10422c00878171004f4ade000a00780021040700e4
:10423c00030037003a002000010037000005eb00b6
:10424c00704680008000e80071468800cf48de0090
:10425c008a027800f40020000801be002403070045
:10426c008001eb00030078004f05be004f04be0038
:04427c000000060038
:020000040000fa
:10428000a420ef00f2ff280021058000010061005a
:1042900000c0a00020058800a620ef0081ff2f00ad
:1042a00033058000038060006000b30030058800a3
:1042b000a820ef00f68f2f0045058000050263005f
:1042c000035020008481710043058800f3f82f001b
:1042d00040058000008261000405b30044058800a9
:1042e00045058000058260005400b3004405880045
:1042f000aa20ef00500580000002630004a0a00087
:104300005405880054058000848161000306b300d1
:1043100053058800ac20ef0003002700030078005d
:10432000ac20b700ae20ef00b020ef008505800084
:10433000058260000420a0008405880080058000bc
:104340000002610004e0a00084058800b220ef00b4
:10435000b420ef00440b2000140a6300a505800080
:104360000501610002e0a000a2058800b620ef0070
:10437000b0058000808060005100b300b105880066
:10438000ba20ef00c020ef000106800001006300aa
:104390000030b30000068800c220ef000300780060
:1043a000c220b700c420ef00c620ef00c820ef00f5
:0843b00081e0a90000000600f5
:020000040000fa
:1043b800881f7800e00f5100e08f590023003d006e
:1043c800f5c3b3008543610025002000853bdd006f
:1043d80050439000634363000743730056409800be
:1043e800c61bde004a1cdd004613de00060374000f
:1043f800f8ff200006036400264098004833de00da
:104408003044900007cfb3008743640006c37300ad
:10441800364098004219de00f67f20000201630052
:1044280082017800f303b200851add004611de0030
:104438001043900003ceb3008341630002c17100b2
:104448001240980063c8720017003700f57f2000fb
:104458000281620082027800f503b2002300200086
:104468008329dd004611de001043900005ceb3001d
:104478008542630002c172001240980050419000ca
:1044880063416100524098000041eb0022409800cf
:10449800b042900002cfb30002c1620032409800df
:1044a800c2cfb30002c86100504190000214a100bd
:1044b80052409800efc16000c042900002cfb300a4
:1044c80002c162000341710042409800660040004a
:1044d8000181fb0084007800f5f107004f047800a3
:0444e80000000600ca
:020000040000fa
:1044ec00889fbe007800200009f02300ee68ef00e2
:1044fc00d421ef00a047800065004000cf80de0093
:10450c007c060700f208f800da01f900da01f8007d
:10451c00d801f900d801f800d601f900c1e1a800d2
:10452c008be0a9009be0a800880e880010002000fa
:10453c00a00e8800ee48e20029003a00a047800057
:10454c00a00fb000cf80de006a060700ee48e20044
:10455c0023003a0050002000a00e8800ee48e20034
:10456c001f003a00a0478000a00fb000cf80de00f3
:10457c0060060700ee48e20019003a0050012000e6
:10458c00a00e8800ee48e20015003a00a04780001b
:10459c00a00fb000cf80de0056060700ee48e20008
:1045ac000f003a00d421ef00ee48e2000c003a0074
:1045bc00a047800065004000cf80de004d0607005c
:1045cc00ee48e20006003a00a90e8800ee48e20030
:1045dc0003003a000669ef0010c0b3000800370072
:1045ec000669ef00ef48e20004003200803e200034
:1045fc00010020003f060700bcff37000040eb0025
:08460c004f04be00000006008f
:020000040000fa
:10461400004aeb008001eb00ef4f500040003a00ed
:10462400803e2000e0448800b1c8bf000080fb0049
:10463400000240000281fb00820f520038003c005f
:104644000000e90000004000614178000281fb00a5
:104654000080400090409000c808dd008100710097
:104664009ac8bf00e64f50001400320005003e0017
:104674000004e00027003200e24f500026003a0018
:1046840008003700ea4f500023003900eb4f500078
:104694000400360002c5b300824f50001e003a00e9
:1046a4001200370000002800808f500001003a00fb
:1046b4001100280041608800170037000041800085
:1046c400810f500002003d000141800005003700c9
:1046d4002008ee00808f500002003d002008ee000c
:1046e40080007800316088000b00370000c029008a
:1046f400808f500001003d008000780000402600bb
:10470400808f500001003400800078002160880010
:1047140001003700ae0407006bfc07001300200003
:0847240003007800000006000c
:020000040000fa
:10472c0020c02000104078006140600004003a0076
:10473c0020c0200010407800704060003100320032
:10474c0006030700b1448000b04488001248e20020
:10475c00050032000828ef000a28ef000c28ef00b3
:10476c000040eb0032003700424080005340800094
:10477c00010050004f82de000200400083004a001e
:10478c004040880051408800c14480008100e8000e
:10479c00c14488000040eb0082022000828f500050
:1047ac0023003a009828ef006240800044408000cb
:1047bc005540800090448000a144800000005200cd
:1047cc0081805a000201e800cf91de000000410018
:1047dc00818049004f09de0000004100e080480064
:1047ec008180d1000080d300604088004040800070
:1047fc005140800090448800a144880010c0b30050
:10480c000b00370020c0200010407800e240600010
:10481c000040eb00060032009e0607004040880076
:10482c005140880062030700604088000040eb00a4
:04483c000000060072
:020000040000fa
:10484000881f78008a9fbe000004a8008082fb00b9
:10485000058342000603430007442000070343008a
:104860008683e8000104e0000800320063846100f0
:1048700068044400421dde000b002000c550dd002e
:10488000010b4400820b7800030037004511dd0066
:10489000020b7800800beb008241200001422000d7
:1048a000e34f50000f003600e44150002142200049
:1048b000e3cf51000b003600e8415000a241200038
:1048c00041422000e3cf5100060036006c4050000a
:1048d00061422000e34f5000020036000001eb006f
:1048e00082007800638062004200dd00f300200057
:1048f0000018dd008081ea009181610080887100ec
:10490000e24f520009003e00678062000000400054
:10491000310020008008dd008180ea009280600084
:104920000482fb000020dd000089700010002000e0
:104930000500dd001424b7000004a9004f05be00e7
:084940004f047800000006009e
:020000040000fa
:10494800404780005147800061004000e0804800f7
:104958004047880051478800204780003147800041
:1049680061014000e0814800224788003347880001
:10497800304080000000e00003003200e10f4000fa
:1049880006003a000300370010002000104088009d
:10499800100037000228ef000e003700304080007a
:1049a8008000eb00800f5100818f5900090035000d
:1049b800e428ef00e628ef00008020009000900037
:1049c80001f0a7008100ea008100e900cf08de00bd
:1049d80011009800204080000000e0000300320031
:1049e800e10f400006003a000300370010002000e5
:1049f80000408800120037000028ef001000370040
:104a0800224080008001eb00404780005147800031
:104a1800800f5100818f590009003c00e828ef0001
:104a2800ea28ef00008020009000780001f0a7003d
:104a38008100ea008100e900cf08de000108780063
:044a48000000060064
:020000040000fa
:104a4c005216800051168000501680004900de007e
:104a5c00614060000201d10064016100c708de0002
:104a6c00e28060008140710080c070000200320062
:104a7c00e7cf500006003a00d868ef0040c4200091
:104a8c001044a0000d0507008040eb002a00370001
:104a9c00d8c8bf00814f50002600320072c0b3004e
:104aac000440bc008181fb0003004100a2c0200037
:104abc0062407800e24f500006003a00d868ef00e0
:104acc0040c420001064a000fc0407008040eb00f0
:104adc0019003700e14f500009003a00924680005f
:104aec00cf91de00a4468000b54680000402410050
:104afc0085824900a4468800b54688000a00370024
:104b0c00e14f400008003a0092468000cf91de0051
:104b1c00a4468000b54680000201520083815a00f1
:104b2c00a2468800b3468800858d2000814a780013
:104b3c00010037008040780001407800000006003a
:020000040000fa
:104b4c00809fbe00829fbe00210f8000fb48e200c8
:104b5c0019003200c24780000200ea00808f50002a
:104b6c0002003500828f50001300340002007800e0
:104b7c00f608b500808f5000050035000200780063
:104b8c00f608b40080017800838f50000a003400ce
:104b9c00f608ee0002005000808f50000400350033
:104bac00b047800000015100828f50000200340099
:104bbc00e06f24001004a000b0378200d0428800bf
:104bcc00e401f8005c08f90010c0b300fde8b70080
:104bdc000080eb00e161ab00010032000000eb0053
:104bec00200f880010c0b300fbe8b700fc48e200bf
:104bfc0007003a00000f80004b00de0061006000ef
:104c0c000009e30002003a00e06f24001034a00019
:104c1c00000f80004b00de0061006000004888003f
:104c2c00e401f800fe08f900fc68ef008b40a900d5
:0c4c3c004f01be004f00be00004006000b
:020000040000fa
:104c4800889fbe000104780082417800a18f20006f
:104c580083487800fb68ef00fc68ef00f18f2f00b5
:104c6800021e200012896000e1e1a900e1a1a9006b
:104c78000000e00004003d00e0e1a8000000ea00b8
:104c8800b047880002003700e0e1a900b04788007b
:104c9800b1478000d03782000088b90002e12000c7
:104ca80003002000daee0700c047880080162000c5
:104cb80000c4b900c8378a00e0c1a900e301a80010
:104cc800e2e1a800f0f82f00e201b6000050a000d1
:104cd800100f880000602000e221b7008b40a90077
:104ce800e421ef00fa48e20009003200e6a1ef00f3
:104cf800e041a900f18f2f00030f8000838060003e
:104d080001007000000f88009b40a80007003700d2
:104d1800b14780008100e900310f8800e041a80018
:104d280000702000e021b7009b40a9004f04be009e
:044d38000000060071
:020000040000fa
:104d3c000a00fa00889fbe008a9fbe000004be00d5
:104d4c0082407800030078000041eb00e2f79f00fe
:104d5c000a702000080565008005eb004859dd004d
:104d6c004855de000a057100c85dde00e14f5500b4
:104d7c000800320003003900e74f550011003a00db
:104d8c000c003700ea81570072815700c6f3070008
:104d9c000d003700ef4264006a825700f281570021
:104dac0001417800800078000540780016fe07006d
:104dbc0005003700ea815700728157001e02070078
:104dcc00010037000000eb000000e0000e00320094
:104ddc00eff097000104e0000b003200670565005e
:104dec004855dd00b1c8bf000080fb004400dd0069
:104dfc000a057000080fb2004440de000000750088
:104e0c0072815700fe0407004f05be004f04be0020
:084e1c000080fa00000006000e
:020000040000fa
:104e240010018000801f780020018000801f78001e
:104e340030018000801f780000378200d40bb50059
:104e440080027800945e80001301c0000400cd004d
:104e5400345f880010378200d80bb5000003780057
:104e6400d75e80001301c6000400cd00545f8800a3
:104e74004f007800300188004f007800200188003e
:104e84004f00780010018800000006001001800027
:104e9400801f780020018000801f7800300180008e
:104ea400801f780000378200d40bb50080027800a0
:104eb400945e80001301c0000400cd00345f8800bc
:104ec40010378200d80bb50080027800b45e8000f1
:104ed4001301c0000400cd00445f88004f00780037
:104ee400300188004f007800200188004f007800ce
:084ef400100188000000060017
:020000040000fa
:104efc00889fbe008a9fbe008c9fbe000004a80045
:104f0c00000340000603430007442000070443004d
:104f1c00c283de0087834300064220008683430061
:104f2c004383de000603430089412000090343004c
:104f3c00e18f500007003a00e3806100e8804000f8
:104f4c00429ede004566dd000c8c40001204980089
:104f5c00050037004511dd00020c7800f27f2000bf
:104f6c000300200013049800630160004211dd006f
:104f7c00f10020008208dd008180ea00978060004b
:104f8c000222dd00848b7000e7006000818040000d
:104f9c00320020000111dd000281ea0016016100df
:104fac008128dd00010b7100110020000008dd00dc
:104fbc001424b7000004a9004f06be004f05be0024
:084fcc004f04be0000000600c6
:020000040000fa
:104fd4003600f800809fbe00829fbe00849fbe0002
:104fe400869fbe00881f78008860a9000004a8007e
:104ff4000ba4ab0002003200100020001046880011
:105004000004eb000b84ab000500320050c4200008
:105014001024a0000080e8001004a0001800200064
:105024000b64ab000400320050c420001034a00014
:105034000080e8001014a0000b04ab00050032004f
:1050440070c420001034a0000080e9001044a000c7
:105054001054a000f0002000502088000004a90093
:1050640010468000e10f500001003a00950307004c
:105074000800e00001003200920307004f047800aa
:105084004f03be004f02be004f01be004f00be00e2
:085094003600f900004006009f
:020000040000fa
:10509c00881f7800004478000043eb000882fb0076
:1050ac008002eb0086407800f2ff20000300200015
:1050bc0006407800a50207000043eb00f400200036
:1050cc000500200011c0b300f2ff200003002000f7
:1050dc00064078009d0207000884fb000070200049
:1050ec00080270000043eb00cfa2de0021c0b30029
:1050fc00f2ff200003002000064078009302070016
:10510c000043eb00f47020000500200031c0b30018
:10511c00f2ff200003002000064078008b020700fd
:10512c000043eb00f41020000500200041c0b30048
:10513c00f2ff2000030020000640780083020700e5
:08514c004f047800000006008a
:020000040000fa
:10515400f08f2f000004b6000080a000002088001b
:10516400020e2000010220000320800003006100e1
:10517400810f5000fcff3a00f08f2f000024b6008e
:10518400010e20000220800002806000fdff3a0032
:1051940030e4a80031e4a80032e4a80033e4a80015
:1051a40034e4a90035e4a90036e4a90037e4a900f1
:1051b400c1ff2f000343200093896000f0cf2f002c
:1051c4003024b60022432000128960003224b60045
:1051d40000fe2f000604b6000020a0003020880046
:1051e400f0ff21000604b60000e0a0003020880093
:1051f4000ca4a8009860a8009700a80074030700f6
:08520400800307000000060012
:020000040000fa
:10520c002023ef002223ef002423ef002143a900e9
:10521c0040c0b30024e3b700f0cf2f002203b60048
:10522c000090a000101988002063a8002043a8005b
:10523c00f0f12f002003b6000006b300001988001f
:10524c00003020002023b70030fc2f002223b600b2
:10525c003223ef002343a9002823ef007d004000f8
:10526c002803b6003000b300401988002603a900bb
:10527c008023ef00f0fc2f008003b6000050a0004c
:10528c00001c8800c0ff2f008023b60081c3a9003a
:10529c0000302000401c880030002000501c88008a
:1052ac00d0002000101c8800006e2000201c8800fc
:0452bc0000000600e8
:020000040000fa
:1052c000889fbe008a9fbe000004a8000000400026
:1052d000000040000543200005004000e10f52009f
:1052e00011003a006114b800638361006135b800b1
:1052f000429bde00f27f2000060361008003eb008a
:10530000e18f500004003a00680545004533dd0098
:1053100006084500020037004533dd000a08430057
:10532000180098000c003700f47f20000201620092
:105330008001eb00e18f500003003a004511dd00d1
:1053400068084100020037004511dd0002087800be
:105350008000eb00110098000004a9004f05be007a
:085360004f04be00000006002e
:020000040000fa
:10536800881f7800280f8000fc48e2000a003a00f5
:10537800f14780008100540001f0a7008100ea0095
:1053880000022000808f500003003400f847880096
:1053980010c0b300fce8b700fa48e2001100320080
:1053a800fb48e2000f003200c1478000f608ee001b
:1053b80001005000800f54000500350001007800fe
:1053c800f608b40080007800810f5400050034000e
:1053d800e06f24001024a00060c420001044a00046
:1053e800b7020700b24780006140b900c002dd0083
:1053f8000400200011000900422ad8004f04780058
:04540800000006009a
:020000040000fa
:10540c0001002700103a800080806000000023001b
:10541c00808f50001e003200e0012000303a8800de
:10542c00f0f32f004427b60000fe2f004427b600ef
:10543c00a1092000320020008007200033742000d6
:10544c0080497800814978008249780071052000f4
:10545c001200200060042000237420008049780092
:10546c00814978008249780002002700010023005e
:10547c00133a800003006100810f5000fcff3a00da
:10548c0001022000123a800002806000fdff320011
:04549c000000060006
:020000040000fa
:1054a0003600f800809fbe00829fbe00849fbe0031
:1054b000869fbe005602070023fd070093010700e8
:1054c00020c02000104078006440600011003200cd
:1054d000e008ec0000478800f30f50000d00340096
:1054e000e028ef0050f80700704088000e08e20046
:1054f00002003d001028ec0006003700c0d8200054
:105500000e08e3000300340060c420001014a00063
:105510006d0207008460a9004f03be004f02be0069
:105520004f01be004f00be003600f90000400600eb
:020000040000fa
:1055300012438000104380000281b900e0408000e7
:10554000f1408000c4408000d5408000000151003f
:1055500081815900461bdd004a10de000000730007
:10556000ca98de000001420081814a00c2408800e2
:10557000d3408800c0408000d1408000e00f500040
:10558000e08f580002003d001828ef001a28ef00b5
:10559000c2408000d3408000a0408000b140800025
:1055a000800f5100818f59000300340060c4200037
:0c55b0001014a0004402070000000600d8
:020000040000fa
:1055bc00dc08ec00e046880081022000810f5000de
:1055cc001b003a00dc28ef00f0468000a246800069
:1055dc00b3468000c200dd00a4b020008100420070
:1055ec008288be000000e800f10128000100600084
:1055fc0004003b000000e90001fe2f000080700059
:10560c000000e800f04688004200dd00a1b0200058
:10561c000080400030025100a08259000401be00fd
:10562c00cb1add004510de0000807200d0468800e9
:08563c00d046800000000600ca
:020000040000fa
:10564400104278008049eb00e14f420010003a001c
:105654000000eb00e1cf500019003a0050c0b30045
:105664008049780000c9eb0080c0b3001041980065
:1056740060c0b3002041980030c0b30030419800ae
:10568400a0c0b30040419800100020000c00370077
:105694000404e00003003a000000fe0010002000b3
:1056a4000700370010002000ec4f520004003200c5
:1056b400d4c0b2000480fb000000e9004f00de000b
:0456c40000000600dc
:020000040000fa
:1056c8003600f800809fbe00829fbe00849fbe0007
:1056d800869fbe003428ef003628ef006228ef00ce
:1056e8006428ef0020c0200010407800644060006b
:1056f80006003a00e208ec0010478800f30f50005b
:1057080002003400e228ef0087ff070020c02000d5
:10571800104078006240600001003200c9fc0700b8
:1057280000fc07008500a9004f03be004f02be0021
:105738004f01be004f00be003600f90000400600d1
:020000040000fa
:10574800889fbe008a1f7800c422ef000084eb0007
:1057580008168800cc22ef0048168800e1020700ee
:10576800103a80000060a1006a042000790520003a
:10577800217420008a487800894878008048780099
:10578800681988004c020700a9020700ba0207003e
:105798004a010700103a80000060a0002174200030
:1057a8008a48780089487800804878006020ef00af
:1057b8006220ef004f0578004f04be00000006008d
:020000040000fa
:1057c800889fbe008a9fbe00a80007008004eb00e7
:1057d8000afa20000b002000087122000a00be000f
:1057e800c50107008904e800888f5400fbff3a00d0
:1057f8002940800068c42000acf80700e10f400091
:1058080004003a0060c420001004a0000428ef003f
:10581800ffff3700e20f400003003a001804a00021
:105828000428ef00f4ff3700294088004f05be0028
:085838004f04be000000060051
:020000040000fa
:10584000889fbe000004be000200780098478800d0
:10585000a94788000502070041020700d421ef0094
:10586000c1e1a900ef68ef0010c0b30006e9b7007e
:105870000804e900280e880070072000400e880008
:10588000690e8800ce21ef00d021ef00200020001b
:10589000000e8800c621ef00c7e1a8000000280024
:1058a000c621b600f00f2f00ca21b6004f04be007b
:0458b00000000600ee
:020000040000fa
:1058b40040c420001080fb0051c420009180fb00f4
:1058c400c808dd000101700060c420009080fb0066
:1058d4000000e8001080fb004800dd00008070003c
:1058e400020278000400a1008000eb00c001dd008a
:1058f400020020006120b800000171008181710064
:1059040010002000e00f5100e08f590001003a0020
:0859140020488000000006009d
:020000040000fa
:10591c003600f800809fbe00829fbe00849fbe00b0
:10592c00869fbe00d421ef00c1e1a90010c0b300d6
:10593c00eee8b7000649e20003003200efe8b700da
:10594c000669ef0004003700ef68ef0040c4200048
:10595c001034a000590107008be0a9004f03be00d2
