:020000040000fa
:080000000002040000000000f2
:020000040000fa
:10000800f2340000d2340000d6340000da340000a4
:10001800de340000f2340000f2340000f234000054
:10002800f2340000f2340000f2340000e42800004a
:10003800be060000f2340000f2340000f234000082
:10004800cc2d0000f2340000f2340000f23400003d
:10005800f2340000f2340000c6340000f23400002c
:10006800f2340000f6340000f2340000743200006c
:10007800f2340000f2340000f2340000f2340000e0
:1000880056210000f2340000f2340000f23400007f
:10009800f2340000f2340000f2340000f2340000c0
:1000a800f2340000f2340000f2340000182b000093
:1000b800f2340000f2340000f2340000f2340000a0
:1000c800f2340000f2340000f2340000f234000090
:1000d800f2340000f2340000f2340000f234000080
:1000e800f2340000f2340000f2340000f234000070
:1000f800f2340000f2340000f2340000f234000060
:10010800f2340000f234000064330000f2340000de
:10011800f2340000f2340000f2340000422f0000f4
:10012800f2340000f2340000f2340000f23400002f
:10013800f2340000f2340000f2340000f23400001f
:10014800f2340000f2340000f2340000f23400000f
:10015800f2340000f2340000f2340000f2340000ff
:10016800f2340000f2340000f2340000f2340000ef
:10017800f2340000f2340000f2340000f2340000df
:10018800f2340000f2340000f2340000f2340000cf
:10019800f2340000f2340000f2340000f2340000bf
:1001a800f2340000f2340000f2340000f2340000af
:1001b800f2340000f2340000f2340000f23400009f
:1001c800f2340000f2340000f2340000f23400008f
:1001d800f2340000f2340000f2340000f23400007f
:1001e800f2340000f2340000f2340000f23400006f
:0801f800f2340000f2340000b3
:020000040000fa
:10020800f2340000e2340000e6340000ea34000072
:10021800ee340000f2340000f2340000f234000042
:10022800f2340000f2340000f2340000e428000048
:10023800be060000f2340000f2340000f234000080
:10024800cc2d0000f2340000f2340000f23400003b
:10025800f2340000f2340000c6340000f23400002a
:10026800f2340000f6340000f2340000743200006a
:10027800f2340000f2340000f2340000f2340000de
:1002880056210000f2340000f2340000f23400007d
:10029800f2340000f2340000f2340000f2340000be
:1002a800f2340000f2340000f2340000182b000091
:1002b800f2340000f2340000f2340000f23400009e
:1002c800f2340000f2340000f2340000f23400008e
:1002d800f2340000f2340000f2340000f23400007e
:1002e800f2340000f2340000f2340000f23400006e
:1002f800f2340000f2340000f2340000f23400005e
:10030800f2340000f234000064330000f2340000dc
:10031800f2340000f2340000f2340000422f0000f2
:10032800f2340000f2340000f2340000f23400002d
:10033800f2340000f2340000f2340000f23400001d
:10034800f2340000f2340000f2340000f23400000d
:10035800f2340000f2340000f2340000f2340000fd
:10036800f2340000f2340000f2340000f2340000ed
:10037800f2340000f2340000f2340000f2340000dd
:10038800f2340000f2340000f2340000f2340000cd
:10039800f2340000f2340000f2340000f2340000bd
:1003a800f2340000f2340000f2340000f2340000ad
:1003b800f2340000f2340000f2340000f23400009d
:1003c800f2340000f2340000f2340000f23400008d
:1003d800f2340000f2340000f2340000f23400007d
:1003e800f2340000f2340000f2340000f23400006d
:0803f800f2340000f2340000b1
:020000040000fa
:100400002fc720000e6d24000e01880000000000a0
:10041000000020000000e000020032000001200087
:10042000200288000c000700203421000100200079
:1004300011000700000020000000e0000200320070
:1004400000000200000000007e1502000000000015
:100450000040da000000fe004440a90040082000ef
:100460000000e0000300320000002000a00188002e
:100470004440a80000000600910188008000780038
:100480000000eb0015003700e280400032a0b4000d
:100490009101ba00e280400032a0b4009102ba009b
:1004a000e280400032a0b4000002eb00472bde00e7
:1004b000f507b200602ce10004003a000059eb009f
:1004c0008301e900fdff3e00040037006128e100e0
:1004d000010032000082eb00040007001101ba00a5
:1004e0000200e000e8ff3a00000006003159ba00bf
:1004f0008301e9000c0032002159ba008301e900b0
:10050000080032000400e00003003a00e2804000ee
:1005100032a0b400f5ff370011d9ba008301e90019
:10052000faff3a008100e800e180400032a0b40008
:100530000000060060290400000000000021ef0018
:100540001108880020088800000006000a21ef003a
:100550007108880090088800000006001421ef0050
:10056000d1088800f00888001e61a900000006007c
:1005700000088800000006005008880000000600ff
:10058000a008880000000600c008880000000600df
:100590003200f800023b8800910188000008bb008f
:1005a0000500fc0051052000313b8800a10a200015
:1005b000313b880061e7a800000000000000000057
:1005c0003200f900000006000400a100010037001d
:1005d0000400a0003200f8009101880011002400fe
:1005e000013b8800f10f20003208bb000400a70087
:1005f000b20078000198bb008301e900faff3a00dd
:10060000680151000400a700680151006800500013
:100610001208bb00e2ff3700f30f20003200f800a1
:100620009101880031002400013b88000208bb00d2
:100630000388bb00daff37003200f800003b880077
:10064000d7ff37003200f80091018800800278005f
:1006500062004000e08048003549ba003204e00002
:100660000410a700100032008301e9000e003200e0
:100670002549ba003204e0000410a7000a00320045
:100680008301e900080032000408a300eeff3200f5
:1006900015c9ba003204e0000410a70002003200bd
:1006a0008301e900e8ff3a003200f900000006008b
:1006b000889fbe008a9fbe008c1f7800b000070094
:1006c000b700330003866c006450e1002e00320056
:1006d0006420e100330032006150e1002f0032005d
:1006e0006120e1003100320085855500eb07b00044
:1006f0000900200008042000050037000804440019
:1007000089844c000a0031000603430087834b00b4
:100710000001530081815b00f8ff33000203be003b
:100720000800a0000804440089844c00f6ff39004a
:10073000c639dd0083017300010032001300200080
:100740008904d1000884d3000998a3000500320071
:100750000800a7000300a0008904d1000884d3008a
:100760008b05e8008904d1000884d3000001eb0068
:100770000281d2004700070001f0a1000cf0a700a1
:1007800001f0a0008f0037006420e10091003200ea
:100790000801be000200be00f7ff37006120e10043
:1007a0008c0032006000b800f3ff3700000020002a
:1007b00001f82700f0ff3700839f68000100e00088
:1007c00002003d0060001000e08018000300e0001f
:1007d00002003d0060011100e0811900b400070033
:1007e0004f00e00002003b0060001000e0801800b5
:1007f0000000060014002000bd003700f4ff2f00a9
:10080000bb0037000001be00480007000470a700cd
:1008100003f0a1006509b100160032000d0035009b
:100820006828e10006003500f0ff2f00f1ff2700e7
:100830000300e00013003b00010028000000050059
:1008400000004000818048008502e900fcff3a007a
:1008500008003700f88f420002003c008000eb00e7
:10086000000005008100d1000080d3008502e8006f
:10087000fcff3a000300e00002003b0060001000b3
:10088000e0801800000006004f89de008201780039
:10089000b200370081002000618055000b003d0050
:1008a0000b00200061fe2f000100e1001d0034005c
:1008b00082817100610164008904d1000884d30041
:1008c0000000e800faff3a007100200061006400b7
:1008d000030070000200600009003200610444005f
:1008e000e0844c000988a500050032008b05e80073
:1008f0006808e10002003a008904d1000884d300ae
:10090000f20f20000258e10005003d00c75ddd0048
:10091000f907b20089807500080078000000060021
:100920000bf827008b00780000000500c70ade00e6
:10093000f107b200f50fb20008003200e1cf42002b
:10094000020032000170a00024000500810f700039
:10095000010032000408050044000500810f70000a
:1009600002003a00140005008502e9000000400082
:1009700081c04800fcff3b000170a000240005007e
:100980000004be00e9ff07000003be000405be002e
:100990000200be00e5ff0700844f7500000006005e
:1009a0000200be006450e100050036006420e10052
:1009b000020036000968a30001003a000800be00ea
:1009c0000160a0004f0678004f05be004f04be0036
:1009d00000000600f0ff2f00f1ff2700f9ff3700ad
:1009e000889fbe008a9fbe008c1f7800e4ff07002e
:1009f000ebff330003866c006450e10024003200fa
:100a00006420e100270032006150e1002200320042
:100a10006120e100210032008b854200eb07b1002c
:100a20000134b800003ab8000804420089844a0042
:100a3000013ab8000030b8008880400009014a003f
:100a4000040033000000400081804800020149009a
:100a50008b05e900c909dd00830170000100320047
:100a600013002000c814de004814dd004709de0032
:100a70001200b200c808de000884700085ff07007d
:100a800001f0a1000cf0a70001f0a000cdff37009d
:100a90006120e100cfff32000801be000200be006d
:100aa000f7ff37006150e100fcff3a00c9ff370053
:100ab0006022b800060220000000d0008180d20031
:100ac0000482d2008582d2000000a00002025200ff
:100ad00083825a00030031000202420083824a00ee
:100ae0000000a1000603e900f3ff3a000000060041
:100af000889fbe008a9fbe00841f7800a0ff070069
:100b00004f00780011003300f0ff2f00838f6c003e
:100b100006003b00040565000a00a7000800370036
:100b200009f0a6001000200008003700820f5400d2
:100b3000838f5c00030039001000200001003e009c
:100b40000000200009f0a7000000ea004f05be00e9
:100b50004f04be000000e00000000600881f78007f
:100b6000030478000300e00007003d00600010006f
:100b7000e080180060011900e081190002003b00cc
:100b800001f02d00030037000400070008f0a70063
:100b900001f0a0004f04780000000600889fbe000e
:100ba0008a9fbe00008270000402710004827100fe
:100bb000260032000004be000200be006011b80032
:100bc0006b092000950220000182cf000a00390045
:100bd0000541b1000082cf00070039000541b10096
:100be0000982cf00040039000541b1000882cf001e
:100bf000010039000541b1000542520012003200e7
:100c00000a003b0082817100610164008100d10013
:100c10000080d3008984d3000884d3008b05e800ca
:100c20000442e800f7ff3a000700370008044400d8
:100c300089844c0000004800818048008b05e90051
:100c40000442e900f9ff3a0012ff07004f05be0019
:100c50004f04be00000006000002780002003700ca
:100c6000315a78000201e900e00f5100fcff3a0020
:040c7000000006007a
:020000040000fa
:100c7400000600000201000004050000030000005b
:100c8400000000004a01000094020000de0300009e
:100c94002705000070060000b907000001090000e4
:100ca400480a00008f0b0000d50c0000190e00004c
:100cb4005d0f00009f100000e011000020130000f1
:100cc4005e1400009b150000d61600000f180000eb
:100cd400461900007b1a0000af1b0000e01c000056
:100ce4000e1e00003b1f0000652000008c21000048
:100cf400b1220000d3230000f3240000ff7f000092
:100d0400fb7f0000ec7f0000d37f0000b07f000079
:100d1400837f00004c7f00000b7f0000c17e000039
:100d24006c7e00000e7e0000a57d0000337d000077
:100d3400b87c0000327c0000a37b00000a7b00002a
:100d4400687a0000bc79000006790000477800004a
:100d54007f770000ad760000d3750000ef740000cb
:100d6400017400000b7300000c7200000471000099
:080d7400f36f0000d96e0000ce
:020000040000fa
:100d7c003600f800809fbe00829fbe00849fbe009c
:100d8c00869fbe00889fbe008a9fbe008c9fbe00bf
:100d9c00440f20002402880081110700f6538000c4
:100dac000653880015548000155388003400200029
:100dbc00110009000403d800f05388000603ea0070
:100dcc0005035300110009000403d80000548800e7
:100ddc00110009008402d80010548800a4a9200036
:100dec0014427800614262008004eb000b00320078
:100dfc0044a1200014427800e04f5200040032005d
:100e0c00a0a320004d0807008004780003003700e1
:100e1c002815070080047800295388004c0f070020
:100e2c0000457800a4a920001442780062426200b8
:100e3c00050032001c1007000082fb00a56328008f
:100e4c0065447a0004003700c80320001100090033
:100e5c008804d8000044e800b4aa200014427800aa
:100e6c00884f5200c1003200a4a92000144278001f
:100e7c00704262000f003200c316070044a120002c
:100e8c0014427800e04f52000a003a00446080009f
:100e9c00800f520006003a00a4aa200014427800e9
:100eac00884f5200030032005c6ca8000100370030
:100ebc0040608800a4a920001442780061426200be
:100ecc0049003200a4a9200014427800624262005a
:100edc0045003200ac16070034608000800f5200d1
:100eec0006003a00a4aa200014427800884f520051
:100efc00030032005c6ca8000100370030608800f1
:100f0c00e14f540013003a00b4aa200014427800b8
:100f1c00e64f52000f003a007e8244006455880070
:100f2c0075162000850f52005003340064eb2f001f
:100f3c00090242006455880061c0b300a0aa2000d9
:100f4c000148780013c0b300b2aa2000034978000e
:100f5c0039003700e64f540010003a00b4aa2000c4
:100f6c0014427800e14f52000c003a007e8254008b
:100f7c006455880044033b00a4142000090242007d
:100f8c006455880016c0b300a5aa2000864a7800d4
:100f9c0060c0b300abeab70068003700b4aa200009
:100fac0014427800844f5400090034007e824400bf
:100fbc006455880075162000850f52000a00340015
:100fcc0064eb2f00090242006455880006003700cc
:100fdc007e8254006455880003003b00a41420005a
:100fec000902420064558800b1aa200091407800a3
:100ffc00a2aa200001497800b3aa200088497800f1
:10100c000802fb00cfa2de0061025200e0825a000f
:10101c00e50f5200e08f5a0054003e0004600100be
:10102c0005003700110037001d003700290037007c
:10103c003500370041003700e4a7200094558800a4
:10104c0084ab2000f455880004a820008455880047
:10105c0064ab2000e455880024a820007455880057
:10106c0044ab2000d455880040003700e4a7200092
:10107c009455880084ab2000f455880024a82000e7
:10108c008455880044ab2000e455880004a8200057
:10109c007455880064ab2000d455880033003700a9
:1010ac0004a820009455880064ab2000f4558800f7
:1010bc0024a820008455880044ab2000e455880007
:1010cc00e4a720007455880084ab2000d455880018
:1010dc002600370004a820009455880064ab20003b
:1010ec00f4558800e4a720008455880084ab2000c8
:1010fc00e455880024a820007455880044ab2000d7
:10110c00d45588001900370024a820009455880075
:10111c0044ab2000f4558800e4a7200084558800d7
:10112c0084ab2000e455880004a820007455880086
:10113c0064ab2000d45588000c00370024a8200094
:10114c009455880044ab2000f455880004a8200076
:10115c008455880064ab2000e4558800e4a7200087
:10116c007455880084ab2000d45588000804fb001b
:10117c0024002000110009000404d80081457800e7
:10118c00a4a92000144278006242620017003200c9
:10119c00a5a9200095427800e1c262000002eb0094
:1011ac00200032006455800004825400350b20006e
:1011bc00850f5200020034008416b1000400370081
:1011cc00c5f42f00850f520001003d008416b000bd
:1011dc00fe0f420001003d0024fe2f00fe0f5200c6
:1011ec0006003400e401200004003700c403200092
:1011fc00110009008404d8007e825000e00f5200d8
:10120c0008003d000402ea000402420005682800c0
:10121c00e5047a002564280065047a000804ea00d5
:10122c00050037000402420005682800e5047a0036
:10123c002564280065047a00e0cf550025003200b3
:10124c0095558000845580001503780014005300d8
:10125c000980b90076558000160178000891b90014
:10126c00cf9ede00c11bdd004f16de000c86730026
:10127c00d3ff2f0003e1b900c10bdd004f00de00ee
:10128c0000807300cf88de00800341001755880072
:10129c001603780009b3b900950278001482520045
:1012ac0008a2b9004138dd004f33de0006037000a0
:1012bc00cfbbde000603ea00c128dd004f22de00b2
:1012cc0004827000cfaade0004025300245588006b
:1012dc002200370095558000845580001501780058
:1012ec00140051000980b900765580001601780071
:1012fc000891b900c11bdd004f11de0002817300a3
:10130c00cf99de006311b900c10bdd004f00de0088
:10131c0000807300cf88de008003410017558800e1
:10132c001603780009b3b9009502780014825200b4
:10133c0008a2b9004138dd004f33de00060370000f
:10134c00cfbbde00c128dd004f22de00048270001e
:10135c00cfaade00040253002455880044a12000cb
:10136c0014427800e04f5200c0003a00c4bf200085
:10137c00144278006a425200e14f52008b003e004a
:10138c00e04f5500b90032000555800064508000d4
:10139c0004825200c5bf200095427800ebcf52006a
:1013ac0054003a00e2518000e051800000004200fd
:1013bc00cf80de00f651800007528000060040000e
:1013cc008780480002015200cf91de00441bdd00f3
:1013dc00cc13de00870373004413dd0000014300cf
:1013ec0081814b00f251880003528800105180001b
:1013fc00f651800007528000cf80de00860f50002f
:10140c00878f580005003d0016518000cfb3de00d9
:10141c00f6518800075288000d00370010518000eb
:10142c00f6518000075280000000ea00cf80de00f9
:10143c00860f5000878f580005003400220aee00fa
:10144c0000037800cfb3de00f65188000752880005
:10145c00a5c0200095427800e0cf52002100320058
:10146c00f651800007528000e00f5300e08f5b00c4
:10147c000e003400d0518000f651800007528000dd
:10148c00cf80de00860f5000878f580002003d0091
:10149c003a2aec0043003700f651800007528000d6
:1014ac00d65188000a6cef003e003700d051800006
:1014bc00f651800007528000cf80de00860f50006e
:1014cc00878f5800020034003a2aed0035003700af
:1014dc00f651800007528000d65188000a6cef004c
:1014ec0030003700f651800007528000d65188003a
:1014fc002c00370000608000e25180000201520095
:10150c000091b90015608000e0518000000042009d
:10151c000580b900b6518000c75180000200400020
:10152c00838048000001430081814b00b251880048
:10153c00c3518800b0518000c1518000c652800058
:10154c00d7528000860f5000878f5800050034005a
:10155c00c6528000d7528000b6518800c75188000f
:10156c000f003700c0528000d1528000b65180006d
:10157c00c751800060001000e0801800860f5000fa
:10158c00878f580006003400c6528000d752800066
:10159c0060031300e0831b00b6518800c75188001c
:1015ac003a2aef00e451880030003700c4bf200015
:1015bc0014427800e64f520013003a00362aef002e
:1015cc00382aef009e0af8003a0af900d55180003b
:1015dc0014518000848f520003003400220af8005a
:1015ec003a0af9002100370015518000d4518000cf
:1015fc008502ea00848f52001c003400220aee009f
:10160c00d051880019003700c5bf200095427800e2
:10161c0004c5b30084cf520011003a00e654800098
:10162c0025a5200095427800cfb3de008502fb0093
:10163c00e58252000600be00050178000201e900b7
:10164c00030033000000400081804800fbff37009e
:10165c00b0518800c15188003a2aef0003003700ce
:10166c00362aef00382aef003a2aef00c4bf2000d8
:10167c0014427800eb4f520008003200c4bf200027
:10168c0014427800e64f52000400320044a12000be
:10169c0014427800e04f52003d003200d5518000da
:1016ac001455800004825200725280001552800042
:1016bc008502520002a9b9008052800015528000a8
:1016cc008502420000a8b900565180006751800085
:1016dc0002004000838048000001430081814b00e0
:1016ec005251880063518800145288005651800072
:1016fc0067518000a4528000b5528000840f5300c3
:10170c00858f5b0005003400a4528000b552800028
:10171c0054518800655188000f003700a652800094
:10172c00b752800054518000655180006003130053
:10173c00e0831b00840f5300858f5b000600340090
:10174c00a4528000b552800060021200e0821a00a0
:10175c0054518800655188005651800067518000b3
:10176c0025a52000954278008502fb000600be00ee
:10177c00050178000201e900030033008180d100eb
:10178c000080d300fbff3700000578008500370090
:10179c001555800014518000848f520003003400d2
:1017ac0014002000345288000500370014558000c6
:1017bc00220aee00800f520001003d0046aaef0005
:1017cc0034528000e00f5200560032003452800038
:1017dc00e10f52001f003a00155180001455800093
:1017ec00048252007052800012528000020152009a
:1017fc000091b90085528000105280000000420018
:10180c000580b900765180008751800002004000ad
:10181c00838048000001430081814b007251880095
:10182c0083518800145288007451800085518000c7
:10183c00e00f5200e08f5a00280035002e2aef00ee
:10184c00302aef000002eb0034528800145288005a
:10185c002200370034528000e10f42001f003a0092
:10186c0015518000145580008502ea000482520054
:10187c007052800012528000020152000091b90097
:10188c008552800010528000000042000580b90093
:10189c007651800087518000020040008380480010
:1018ac000001430081814b007251880083518800f4
:1018bc00145288007451800085518000e00f520052
:1018cc00e08f5a0005003c002e2aef00302aef0072
:1018dc000002eb003452880014528800b65180008c
:1018ec00c7518000705180008151800025a52000d7
:1018fc00954278000003430081834b008502fb0076
:10190c000600be00050178000201e9000300330067
:10191c008180d1000080d300fbff370000057800e8
:10192c0020003700c5bf20009542780004c5b300e5
:10193c0084cf52000e003a00b6518000c75180008f
:10194c0025a52000954278008502fb000600be000c
:10195c00050178000201e900030033008180d10009
:10196c000080d300fbff3700000578000d00370026
:10197c00b6518000c751800045c0200095427800c8
:10198c008502fb000600be00050178000201e9009b
:10199c00030033008180d1000080d300fbff3700af
:1019ac0000057800a40aee007652800022528000d6
:1019bc00020150000691b90084528000265280002a
:1019cc000603400004b3b90094518000a551800077
:1019dc000203430083834b000601420087814a00c7
:1019ec0092518800a35188002052880096518000a3
:1019fc00a7518000a4528000b5528000840f530080
:101a0c00858f5b0005003400a4528000b552800025
:101a1c0094518800a55188000f003700a652800011
:101a2c00b752800094518000a551800060031300d0
:101a3c00e0831b00840f5300858f5b00060034008d
:101a4c00a4528000b552800060021200e0821a009d
:101a5c0094518800a55188009c518000ad518000a4
:101a6c0024a52000144278000402fb000402e900c3
:101a7c00030033008d86d1000c86d300fbff3700aa
:101a8c0024032000f7ff2700160320000500370071
:101a9c000402e90003003a006ceca8007f12070076
:101aac0007003700150e8000e08f520004003d0047
:101abc00100e800080826300868f5200f4ff360087
:101acc00f45f8000e00f520006003400fe2bed00a6
:101adc00f45f8000e00f520002003a006b2ca8006b
:101aec006e1207004a5388002400200011000900e0
:101afc000405d80000057800110009000406d80080
:101b0c0009d2b9000881b900c118dd004f11de00ff
:101b1c0002817000cf99de00d7ff2f000793b90028
:101b2c004129dd004f22de0004027100cfaade0045
:101b3c008402430008d3b9000980b900c109dd0053
:101b4c004f00de0000807100cf88de00cfbcde00cd
:101b5c00413add004f34de000804720008044000f6
:101b6c00e0cf5500010032000804ea00f455800073
:101b7c00088a5200d4558000080a44008502ea0005
:101b8c00e4558000088a5200a2558000b1558000af
:101b9c00c05580008f0a0700a4a9200014427800c9
:101bac006442620027003a00445580000402e800b9
:101bbc0044558800f30f520022003400a82aef008d
:101bcc00105580001455800000a0b900f65080001c
:101bdc0007518000d4508000e5508000060350006f
:101bec00878358004638dd004a33de000603700058
:101bfc00cabbde000601420087814a00d250880031
:101c0c00e3508800d4508000e5508000e00f520073
:101c1c00e08f5a0002003d001a2aef001c2aef0048
:101c2c00d6508000e7508000b4508000c550800032
:101c3c00840f5300858f5b00020034006c2ca800cd
:101c4c00161207008480a9004f06be004f05be0087
:101c5c004f04be004f03be004f02be004f01be003a
:101c6c004f00be003600f90000400600b3aa200069
:101c7c0093417800a4aa2000034a7800b5aa20005a
:101c8c00884a7800ecfc3700b7aa2000974378000c
:101c9c00a0aa200007487800b1aa20008848780044
:041cac0026fd3700da
:020000040000fa
:101cb000e6874700889fbe008a9fbe008c9fbe00bb
:101cc0008e1f7800104278008049eb00e94f5200e7
:101cd0000b003a008002eb00e2cf500062023a00b3
:101ce00024c1200014427800e04f52005e0232000e
:101cf0001040900093120700150020005a02370090
:101d0000e74f52000b003a008002eb00e1cf500099
:101d100055023a0004497800c1bf20009140780084
:101d20001141980024c0b3008449780015002000b8
:101d30004d02370035c3b300854f52000c003a0006
:101d40008002eb00e1cf500047023a0034c3b300f9
:101d50000449780034c120001442780014419800ee
:101d600024c0b30084497800150020003e023700eb
:101d700025c3b300854f52003a003a008002eb00c1
:101d8000e2cf500038023a00c4bf2000144278006d
:101d9000e04f520005003200c6bf20001643780015
:101da00004cbb300844f53002f023a001040900040
:101db00013ecb700f312070013ccbf00b40e0700fa
:101dc0000002eb008304200062b620000000250022
:101dd000110020001bfa0700220424000000250047
:101de00011002000eaf9070034c1200014427800f5
:101df0000482fb0005002000345b8800455b8800fe
:101e000016c0b30065ba2000864a7800a76bef00c1
:101e1000c4aa2c00445d88000204200061b62000a2
:101e20000080eb00cf1107006102b800545d88000c
:101e3000655d88000304200062b6200000002500d4
:101e400011002000e0f907000304200062ba20001e
:101e50000004250011002000dbf907001500200018
:101e60000102370085c4b300854f52002b003a00b1
:101e700024c12000144278008002eb00e04f5200a1
:101e8000f9013200e5cf50000d003a00a04090006b
:101e9000c808dd00104290000482fb00810272003d
:101ea00024002000110009008402d80002e224006e
:101eb000850078000f10070015002000ea013700a8
:101ec0008002eb00e8cf5000e7013a00b0429000fa
:101ed000c82add00204290000482fb000502720047
:101ee000d0409000c808dd00c04290008582fb0011
:101ef00081807200704190004811dd00e042900046
:101f00008582fb0002817200825088000400780004
:101f1000f80f070015002000d301370095c7b30064
:101f2000854f52000f003a0024c12000144278006f
:101f30008002eb00e04f5200cb013200e3cf5000b3
:101f4000c9013a00a0429000c82add00104290006a
:101f50000482fb00050072007612070015002000c5
:101f6000c101370075c7b300854f52003b003a00ee
:101f70008002eb00e6cf5000bb01360024c12000f8
:101f800014427800e04f5200b70132001042900036
:101f90000482fb00a5a92000954278000443780044
:101fa000a5a92000864a7800b4a920001442780030
:101fb0009b6aef00204290000482fb00b042900038
:101fc000c82add00850272006562880040429000e8
:101fd0000482fb00d0429000c82add008502720016
:101fe00075628800604290000482fb000402d10008
:101ff0000443780045c52000864a7800746280005a
:10200000e10f420006003a009acaa80016c0b300c9
:1020100055c52000864a78004e2cef00020037009c
:102020009acaa900556cef0044022000e8cf500086
:1020300002003a00704290000482fb009462880023
:10204000a4a920001442780061426200150020001b
:10205000850132009a8aa90083013700b5c5b30013
:10206000854f520024003a008002eb00e3cf50007d
:102070007d013a0020439000904290000002eb0066
:10208000e1cf520004003a0066c0b2000682fb00b5
:102090000402e9004f22de008442780021c12000c2
:1020a0008548780084c0b30084497800b5c5b30082
:1020b000054978001441980034c0b30024419800c9
:1020c0003441980094c1b3004441980014c0b30057
:1020d0005441980064c0b3006441980026c12000b8
:1020e000164378007641980024c1200014427800fd
:1020f000150020005c01370055c6b300854f520023
:102100006a003a0024c12000144278008002eb00eb
:10211000e04f520054013200e8cf50000e003a0068
:1021200070419000c0409000c808dd00304290002f
:102130000482fb0081007200a0429000c82add00ea
:10214000104290000482fb00050072006f1007002f
:1021500015002000440137008002eb00e6cf50005c
:1021600041013a0010429000e14f52000400320059
:102170008002eb00e24f52003b013a0005003700bd
:1021800010029000a0029000046188001561880090
:102190000400370010029000a0029000e460880064
:1021a000f56088000461800015618000f4b79f002d
:1021b00085bf9f00ec608000fd6080000401be00d0
:1021c0000c00be008df90700e00f500003003c003a
:1021d0007fb597008fbd9700010037000c05be004a
:1021e0000200200003f823000a00be0081f9070066
:1021f000e00f50000c0035001e00200015002000ec
:102200000e28dd00cf80de009ff907000004be002d
:102210000001be000a00be0076f90700e00f500082
:102220001d003d00030037000800200009f82300ce
:102230000007eb00f4c0b3000e475200020020007c
:10224000037024000c00be00e5f907000801be0081
:1022500017f907006bf907000005be000200200017
:10226000037024007fb097008fb89700dcf9070057
:102270000801be000ef9070062f907000002be0067
:102280000e4178008a007800040078001f100700d3
:1022900015002000f40037000e07e800f00f57008b
:1022a000d6ff3a008002eb00ef00370095c6b3007e
:1022b000854f52006a003a0024c120001442780081
:1022c0008002eb00e04f5200e7003200e8cf500000
:1022d0000e003a0070419000c0409000c808dd0038
:1022e000304290000482fb0081007200a042900006
:1022f000c82add00104290000482fb000500720035
:102300001410070015002000d70037008002eb00f2
:10231000e6cf5000d4003a0010429000e14f520046
:10232000040032008002eb00e24f5200ce003a007f
:102330000500370010029000a0029000c4608800e1
:10234000d56088000400370010029000a0029000c1
:10235000a4608800b5608800c4608000d5608000fb
:10236000f4b79f0085bf9f00ac608000bd60800017
:102370000401be000c00be0020f90700e00f500071
:1023800003003c007fb597008fbd97000100370028
:102390000c05be000200200003f823000a00be0066
:1023a00014f90700e00f50000c0035001e0020005b
:1023b000150020000e28dd00cf80de0032f9070076
:1023c0000004be000001be000a00be0009f90700bb
:1023d000e00f50001d003d00030037000800200002
:1023e00009f823000007eb00f4c0b3000e475200c9
:1023f00002002000037024000c00be0078f90700e2
:102400000801be00aaf80700fef807000005be009c
:1024100002002000037024007fb097008fb897005f
:102420006ff907000801be00a1f80700f5f80700e2
:102430000002be000e4178008a0078000400780097
:10244000c40f070015002000870037000e07e800c2
:10245000f00f5700d6ff3a008002eb0082003700f1
:10246000f74f52001b003a008002eb00e5cf50000e
:102470007d003a0024c1200014427800e04f520051
:1024800079003200c4bf2000144278006a42520032
:10249000e14f520074003e00a0429000c82add00c7
:1024a000104290000482fb0005027200045588006f
:1024b0000455800006558000150020000400280007
:1024c000840f530068003a000402e80004558800b5
:1024d0006500370025c7b300854f520020003a0041
:1024e0008002eb00e3cf50005f003a0024c12000df
:1024f00014427800e04f52005b003200c6bf20005b
:102500001643780004c5b300844f530056003a00c8
:10251000a0429000c82add00104290000482fb0017
:1025200005027200e4548800e5548000044026004f
:10253000848f520003003400e4548800150020000a
:1025400049003700e65480001500200004c029002f
:10255000840f530044003d00e454880042003700db
:10256000d5c6b300854f520021003a008002eb002f
:10257000e5cf50003c003a0024c12000144278000e
:10258000e04f520038003200c4bf200014427800ef
:10259000e64f520034003a00a0429000c82add0005
:1025a000104290000482fb0005027200f45488007f
:1025b000f554800014518000848f520004003400d0
:1025c000220af8009e0af9001500200026003700b4
:1025d000f4548000220aee0015002000800f520003
:1025e00021003d00220aee00f05488001e00370052
:1025f000e5c6b300854f520013003a008002eb009d
:10260000e1cf500018003a0054c0b300844978006c
:10261000e4c6b3000449780002027800e6a920006d
:1026200016437800066a7800f1a9200091407800ee
:10263000114298000042eb00444198003441980058
:1026400015002000080037008002eb0006c7b30029
:10265000864f520004003a0051c0b2008182fb0054
:102660008502e900cf2ade00050078004f077800d8
:102670004f06be004f05be004f04be006f00b10004
:042680000000060050
:020000040000fa
:10268400000a0000d800000000000000fc0b00005d
:102694001600000002000000b0b2ff00ff0c0000b2
:1026a40010000a0000ff7f00ff7f010000ff7f0091
:1026b400c4ff3c0000000000e046000008000000e9
:1026c400000000006e0c000002000000000000008a
:1026d400ae0b000032000000020000000000000009
:1026e400000000000002000002010200ff020200dc
:1026f4000200ff000202010002ff010000020200ca
:10270400020202000202000001ff020001020200b4
:10271400ff0002000202ff000201020000000000ac
:10272400d80a00008e00000000000000680c0000c1
:102734000600000000000000600c0000080000001b
:1027440000000000700c0000020000000200000005
:1027540001000000340c00000e0000000000000026
:10276400120c00001200000000000000660b0000c4
:10277400480000000200000001000000000000000a
:102784000000000000000000000000000000000045
:102794000000000000000000000000000000000035
:1027a4000000000000000000000000000000000025
:1027b4000000000000000000000000000000000015
:1027c4000000000000000000000000000000000005
:1027d4000000000000000000240c000010000000b5
:1027e40000000000000800000002000002000000d9
:1027f40000002100104220006330840040a55000f6
:10280400c660e7007008810029914a00a16bb100fd
:102814008cc1ad00d1cee100eff131001210020005
:102824007332520022b552009442f70072d662000d
:1028340039931800837bb3005aa3bd00d39cc30013
:10284400fff3de00e362240043342000040114009b
:10285400e664c70074a4440085546a00a54bb5001f
:102864002885090095eee500cff5ac00c58dd500af
:1028740053367200261116003006d70076f666002d
:102884009556b400465bb7007aa7190097388700bd
:10289400dff7fe00e79dd700bcc7c40048e5580039
:1028a4008668a700784008006118020028233800d1
:1028b400ccc9ed00d98ee900aff9480089699900c7
:1028c4000aa92b00b9f55a00d44ab7007a966a00cf
:1028d400711a50000a333a00122afd00dbdccb00e7
:1028e400bffb9e00eb799b00588b3b00bb1aab00ef
:1028f400a66c87007ce44c00c55c22002c033c00e1
:10290400600c41001caeed008ffdec00cdcddd0070
:102914002aad0b00bd688d00499d97007eb66e0000
:10292400d55ef4004e133e00322e51001e700e0090
:102934009fffbe00efdddf00fccf1b00bf3aaf00fe
:10294400599f78008f889100a981ca00b1eba1003a
:102954000cd12d00c14ef1006fe1800010a10000e8
:10296400c230e30020045000254046007067600038
:10297400b983980093fba300dab33d00c31cd300d2
:102984007fe35e00f3b102009012f30022d2320022
:1029940035421400527762005672ea00b5cba500a6
:1029a400a8958900856ef5004fe52c00d50dc5006e
:1029b400e234c30024a01400810466007447640058
:1029c4002454050044dba700fab7990087b89700a0
:1029d4005fe77e00f71dc7003cd7d30026f2360020
:1029e4009106b000165766007676150046345600f8
:1029f4004cd96d00c90ef9002fe9c80099e9890086
:102a04008ab9ab00a94458006548060078276800d5
:102a1400c018e10008823800a3287d00cb5cdb00ed
:102a24003feb1e00fbf98b00d89bbb00ab9abb00ad
:102a3400754a54005a376a00167af1000ad01a000f
:102a4400b32a92003a2efd000fed6c00dd4dcd004f
:102a5400aabd8b00ade89d00c98d26007c076c00e3
:102a6400645c45004ca23c00832ce0001cc10c00bb
:102a74001fef3e00ff5dcf007cdf9b00afbabf00bd
:102a8400d98ff8009f176e00367e55004e745e0095
:102a9400932eb2003ed10e00f01e0000e00b0000a9
:102aa4001c0000000000000000470000800000003f
:102ab40000000000804700008000000000000000cb
:102ac400420c00000a000000000000004c0c000052
:102ad4000a0000000200000000005a00000000008c
:102ae4000000000000000000560c00000a00000076
:082af4000000000000000000da
:020000040000fa
:102afc000400fa00889fbe008a9fbe00b80b070036
:102b0c00440c07009d0d0700a400200034508800e1
:102b1c00100707008660a9009660a800360f070012
:102b2c003b0f07009460a80040a720000300090099
:102b3c000058eb005c6cef000001eb006000b8008b
:102b4c00e90c0700c70e0700af0c0700e00f5000a0
:102b5c0002003200042aef00faff370004aaef004b
:102b6c00490f0700700d0700e4002000050020004d
:102b7c00a4bf9f00b5bf9f000002eb0043002000e4
:102b8c006c8157000000250011002000aaf60700f8
:102b9c009760a8004ff097000e0e0700a4a9200024
:102bac00144278000042eb00a5a92000844a78006a
:102bbc00b5a920009542780084427800b0a9200085
:102bcc000548780024c1200014427800e04f5200e0
:102bdc00fcff3200a4a9200014427800614262007c
:102bec0004003a00a4a9200014427800624262005a
:102bfc00f4ff320014518000e00f5200f1ff32005c
:102c0c00a4528000b5528000e00f5200e08f5a00b1
:102c1c00ecff3200a4a9200014427800614262004b
:102c2c0004003a00a4a9200014427800704262000b
:102c3c000a003200a2a92000124178004311de00e4
:102c4c006101610041c52000914078006062800004
:102c5c008180fb004e080700020037008b40a90062
:102c6c009b40a900146aef005c8ca900a4a9200069
:102c7c0014427800624262000b0032009a4aa900aa
:102c8c0040c520001040780062c0b3000440bc0076
:102c9c00cf91de00000020001100200081f707001a
:102cac00290f070011003700a4a920001442780056
:102cbc006442620003003200290f07007050880044
:102ccc000200370084c72e0074508800a4a920008d
:102cdc0014427800614262000400320016c0b30056
:102cec0045a12000864a78005c8ca80042c02000d8
:102cfc00124178001160800000608000920d070086
:102d0c00e60e0700fc6bef0004a020006509200014
:102d1c00350298008082eb00250298006d030700b5
:102d2c000005eb0009cab3006b092000360c070044
:102d3c00e00f50000b00320064aa2000144278000f
:102d4c00e04f5200010032009d0e0700c0bf200072
:102d5c000948780006aaef00e401200024508800fe
:102d6c000e003700c262ab000c0032006a0ca800e7
:102d7c0064aa200014427800e04f52000100320097
:102d8c008f0e0700fc6bef0004a020003b029800a4
:102d9c008082eb0025029800e4ff37006a0ca90042
:102dac00c4bf200014427800e04f520007003200ec
:102dbc00c4bf200014427800894f52000300320037
:102dcc00df0e0700760e0700710d070044518000de
:102ddc00840f5500d5ff32004a518000d8bf200027
:102dec0018447800c4bf200014427800894f520068
:102dfc0011003a00e94f5400ccff3a00a20e070034
:102e0c00de0c07000042eb00c5c52000844a7800a8
:102e1c0084427800c0bf20000548780004a0200040
:102e2c003b0298008082eb0025029800843e200033
:102e3c00f45f8800bdff3700c4bf20001442780047
:102e4c00e04f520011003a00e64f540007003200e8
:102e5c00ea4f540005003200eb4f540003003200df
:102e6c0004c5b300844f5400b0ff3a00084078000a
:102e7c00fcebb700062aef0004aaef00843e20000a
:102e8c00f45f8800350e0700a8ff3700c4bf200090
:102e9c0014427800e64f52000d003200c4bf2000ef
:102eac0014427800ea4f520009003200c4bf2000df
:102ebc0014427800eb4f520005003200c5bf2000d1
:102ecc009542780004c5b30084cf520097ff3a00b6
:102edc00e04f540002003200e94f540007003a0062
:102eec00370e0700fc6bef0004a020003b0298009b
:102efc008082eb00250298008cff3700e64f5400cf
:102f0c0007003200ea4f540005003200eb4f54002a
:102f1c000300320004c5b300844f540083ff3a0011
:102f2c00810c0700843e2000f45f88008842780002
:0c2f3c00c4bf2000054a78007cff37006d
:020000040000fa
:102f4800889fbe0080047800a4a92000144278005d
:102f5800624262000000eb0000013a0044a1200038
:102f680014427800e04f5200fc0032008662800074
:102f78006333b90024002000110009000403d800bd
:102f88000004780044a1200014427800e24f520067
:102f98000f003c00b4c5200014427800e04f5200f6
:102fa8000b00320055c52000954278000042eb0026
:102fb80084cf52000100320034c0b300844278004c
:102fc80041a12000854878005c8ca900710e07009b
:102fd80044a1200014427800e14f52001c003a003e
:102fe8003551800066568000240020001100090039
:102ff8008402d800860f5000030034000603e8005e
:10300800665688001200370074568000840f5400fa
:103018000a003400255680008502e80025568800fd
:10302800860c2000868f520009003400c42aef0065
:103038000402e800745688000500370084f82f0061
:10304800846088000e2cef0020c0b30014eab7009b
:1030580044a1200014427800e24f520017003a00c1
:10306800745680000804ea00840f54000a003d00ea
:10307800155680008502e80015568800860c200049
:10308800868f52000d003400c22aef000402e900c6
:1030980074568800090037000004eb006856880061
:1030a800880c78005c4ca8006c8ca800fc0c07000d
:1030b8000842780041a120008448780044a12000fb
:1030c80014427800e34f520012003a00ce0af8008a
:1030d8000c0cf9006456800035518000850f5200b1
:1030e80003003d000402e800645688000900370028
:1030f800045680000402e800045688000571220086
:10310800850f52000300340046c0b30045a12000db
:10311800864a780044a1200014427800e44f520007
:1031280014003a0060608000100cb40070568800eb
:10313800345680000402e8003456880005532700fe
:10314800850f52000b003600b46280008062800058
:10315800250f800000abb90011000900443bd800de
:1031680050568800c62aef0056c0b30045a120007b
:10317800864a780044a1200014427800e54f5200a6
:1031880069003a00606080000e0cb4007056880038
:10319800345680000402e8003456880005a62e0044
:1031a800850f520060003600cc2aef00b462800020
:1031b80080628000250f800000a9b9001100090075
:1031c8004419d800000178004256880056568000fd
:1031d80006025100350b2000850f52000300340011
:1031e8008416b100850f5200fdff3c00c5f42f0086
:1031f800850f520003003d008416b000850f520071
:10320800fdff35008403780007f0a7008703ea0074
:10321800a5052000858f53002e00340025002000ce
:10322800110009000502d8000002780006024200d9
:1032380075162000850f5200030034008416b10073
:10324800850f5200fdff3c00e00f520002003d00d8
:103258008416b000feff3300e6528800f252880060
:1032680065608000a505b000806080000e0cb40089
:1032780026002000110009000600d80080824200c4
:1032880004825200746288007562800074162000ff
:10329800848f52000500340080e92f004e2cb400c2
:1032a80075628000848f5200fbff3c0074628000ce
:1032b800e00f520005003d00801620004e2cb4009f
:1032c80074628000e00f5200fbff3500146aef00c3
:1032d8001500370074608000e00f520009003200ca
:1032e8000002eb007460880085f82f008560880074
:1032f8003456880045c0b30041a1200085487800b5
:10330800090037000004eb0068568800880c780034
:103318005c8ca9005caca8006c8ca800600c070051
:103328000840780014eab70061568000810c7800e4
:103338007056800074162000840f5000030034007b
:103348008016b100840f5000fdff3c00e00f5000d4
:1033580002003d008016b000feff33004f04be009f
:04336800000006005b
:020000040000fa
:10336c000003be003064ab000b0032000480200070
:10337c008021800000026200070032003264ab0042
:10338c0005003200048020009121800001026200bf
:10339c000080eb00e1003a003064ab0038003a00ea
:1033ac0003027800824078000601be000070240001
:1033bc009a05070044be2000000aeb00140290009e
:1033cc00e20f52000d003c00455f8000e28f52007e
:1033dc000a003c00565f8000e20f530007003c00df
:1033ec0047be20000402e800940398008502e80020
:1033fc00a50398000603e800b603980044be20001d
:10340c0014437800e3426300e3826200c6ff2f009e
:10341c0080218000800363008783720087218800ed
:10342c00a4439000e3836300c83bdd00f5cf2f007d
:10343c00812180000180620000807300802188005f
:10344c00c4439000e3836300902180000003630079
:10345c000683730096218800644290006302620028
:10346c004822dd0091218000818262008502720079
:10347c00952188003064a8000000eb00a7003700fd
:10348c0004802000852180000502620036003a008d
:10349c0003027800824078000601be00007124000f
:1034ac005e050700e62bef00245f8000e20f520060
:1034bc000c003c00455f8000e28f520009003c008c
:1034cc00565f8000e20f530006003c0047be200010
:1034dc00840be8008502e800a50398000603e800c9
:1034ec00b603980044be200014437800e342630006
:1034fc00e3826200c6ff2f008021800080036300fe
:10350c008783720087218800a4439000e3836300c3
:10351c00c83bdd00f5cf2f008121800001806200c7
:10352c000080730080218800c4439000e383630013
:10353c0090218000000363000683730096218800ad
:10354c0064429000630262004822dd0091218000f9
:10355c008182620085027200952188003164a80086
:10356c000000eb006d0037003264ab0036003a000f
:10357c0003027800824078000601be00007224002d
:10358c0026050700e82bef00245f8000e20f5200b5
:10359c000c003c00355f8000e28f520009003c00bb
:1035ac00565f8000e20f530006003c0047be20002f
:1035bc00840be8008502e800950398000603e800f8
:1035cc00b603980044be200014437800e342630025
:1035dc00e3826200c6ff2f0080218000800363001d
:1035ec008783720087218800a4439000e3836300e3
:1035fc00c83bdd00f5cf2f008121800001806200e7
:10360c000080730080218800c4439000e383630032
:10361c0090218000000363000683730096218800cc
:10362c0064429000630262004822dd009121800018
:10363c008182620085027200952188003264a800a4
:10364c000000eb0035003700030278008240780060
:10365c000601be0000732400f0040700ea2bef0003
:10366c00245f8000e20f52000c003c00355f8000ac
:10367c00e28f520009003c00465f8000e20f5300cd
:10368c0006003c0047be2000840be8008502e800e1
:10369c00950398000603e800a603980044be20009a
:1036ac0014437800e3426300e3826200c6ff2f00fc
:1036bc00802180008003630087837200872188004b
:1036cc00a4439000e3836300c83bdd00f5cf2f00db
:1036dc0081218000018062000080730080218800bd
:1036ec00c4439000e38363009021800000036300d7
:1036fc000683730096218800644290006302620086
:10370c004822dd00912180008182620085027200d6
:10371c00952188003364a8000000eb00000006002f
:020000040000fa
:10372c000600fa00889fbe008a1f7800442cef0028
:10373c0084c72e000408780006a2a9000602a8007f
:10374c0004402600146288000602ab00de003a003a
:10375c00950037000402e900030032000602ab00ba
:10376c00fcff3a00900037001462880074ff2f00b1
:10377c0024628800560037000402e900030032007e
:10378c000802ab00fcff3a008d0037001462880081
:10379c0064ff2f00246288004d0037000602e90008
:1037ac00060032000403780041108000818263001f
:1037bc00faff3a0014628800870037001462880010
:1037cc0054ff2f002462880041003700f40f2000c2
:1037dc00a4bf9f00b4bf9f00ee8157008000eb0098
:1037ec0002402600f73f2600f8fd2f000662a800d5
:1037fc0000000000126288000822ab00a600320014
:10380c007b0037000602e900040032000403780054
:10381c000822ab00fbff32007400370014628800f2
:10382c0034ff2f0024628800290037000602e900cb
:10383c0005003200040378000682ab00fbff3a005f
:10384c00146288007b0037001462880024ff2f006c
:10385c00246288001e003700afba9700c82add002a
:10386c003fba970004887200f4ff2700900f1200f3
:10387c0007003a0084c72e0004087800e4fe2f00ed
:10388c002462880002003700f4fe2f0024628800b6
:10389c000662a9000642a8000440260014628800b3
:1038ac000642ab0074003a00670037000602e900dc
:1038bc0004003200040378000642ab00fbff3a0020
:1038cc00600037001462880014ff2f002462880007
:1038dc00482cec0007e2a900c902a90004fe2f0045
:1038ec00856c2000950a6200cf02a8000004eb0052
:1038fc0029002000faef2f00110009000904d8005c
:10390c00618260004822dd00561680008602650048
:10391c008502720055168800001920000100200055
:10392c001b0b07000804e800f30f5400f2ff3a00e9
:10393c0007e2a8000019200001002000140b07006a
:10394c0004fe2f0061202000910862000642a800ae
:10395c0004402600146288000642ab0042003a0084
:10396c003c0037000602e900040032000403780032
:10397c000642ab00fbff3a003500370014628800aa
:10398c0004ff2f002462880016c0b30065c4200019
:10399c00864a7800206280004f0578004f04be00f4
:1039ac000080fa0000000600340d2000141088007e
:1039bc0004402600146288000802ab003f003a0065
:1039cc00044026001462880004002400411080008a
:1039dc000102620034003a00040028004510800007
:1039ec000502620079ff3200a7ff370014628800dd
:1039fc000610800086297800010278000410a200cd
:103a0c0004f0a7000402ea000402e9004f22de00e1
:103a1c004522dd00361080008602640085027200ab
:103a2c00351088000682a800126288000682ab005e
:103a3c0015003a008100e800e38f50006bff3a005c
:103a4c0085ff37001462880020628000d2ff3700a7
:103a5c00146288000019200001002000cc0a070025
:103a6c0020628000ccff3700f43f260014628800ef
:103a7c0004037800beff3700f43f26001462880070
:103a8c00040378008cff3700176288000702780067
:103a9c000703780068ff3700176288000702780078
:103aac00070378005aff3700f43f260014628800a1
:103abc0004037800070024003bff3700f43f260086
:103acc00146288002eff3700f43f26001462880031
:043adc0022ff37008e
:020000040000fa
:103ae000881f780014558000c0c220000448780068
:103af0004822de0084427800d2c2200005497800c6
:103b000064508000e6c22000044b78004822de00aa
:103b100084407800f0c220000148780044508000c2
:103b20005550800002c32000044978004823de007d
:103b30000640780031ecb70021c3200085487800aa
:103b4000482ade000443780035c32000864a780006
:103b500024ccbf000080fb004400dd000080a000fa
:103b6000cf80de00c3c2200082c0b300fffd07008b
:103b7000a4a92000144278000444b20036003200a8
:103b800024ccbf000080fb00440620000482b90062
:103b9000451f2000848242005461800018c0b30099
:103ba000ea0f5200040034006a835200860f52006c
:103bb00001003d000044eb000402e800546188006d
:103bc000848f520058003c002a2cef007462800061
:103bd000c7c22000844b78004822de00844278006f
:103be000d2c2200005497800240f8000e6c22000e0
:103bf000044b78004822de0004417800f1c2200026
:103c000082487800e452800005c32000844a78008e
:103c10004822de008440780017c32000814b7800e2
:103c2000f452800022c32000044978004822de00bc
:103c30008443780036c32000074b78004400dd0041
:103c40009010b300cf80de00c3c2200082c0b3005a
:103c5000c6fd070034003700a4a9200014427800f4
:103c60000442b2003200320024ccbf000080fb00ce
:103c7000440620000482b900451f200084824200cf
:103c80004461800018c0b300ea0f52000400340001
:103c90006a835200860f520001003d000044eb0091
:103ca0000402e80044618800848f52001e003c003a
:103cb000282cef0024628000e1c2200084487800b4
:103cc0004822de0004437800f5c22000864a7800ce
:103cd00064c42000144278000402fb0007c32000e3
:103ce000844b78004822de008442780012c3200012
:103cf000054978004462800026c32000044b780008
:103d00004822de000441780031c320008248780058
:103d10004400dd009010b300cf80de00c3c220005d
:103d200082c0b30091fd0700e04f540053003a00f9
:103d3000a4a9200014427800644262001d003200f1
:103d400004002800351080000502620019003200ce
:103d500024ccbf000080fb00346180000402e80036
:103d6000346188000003e8004506200005b3b9006f
:103d7000860f52000f003500262cef007450800093
:103d8000e6c22000044b78004822de00044178009f
:103d9000f1c22000824878004400dd00c010b3006a
:103da000cf80de00c3c2200042c0b3006ffd070019
:103db00032003700c4bf200014427800c5c2200082
:103dc000844a7800c6c5200016437800d7c2200078
:103dd000864b7800b6518000c751800025a5200091
:103de000954278008502fb00e58252000600be0085
:103df000050178000201e900030033008180d10051
:103e00000080d300fbff37002eecb7004802de0035
:103e100084407800f0c2200001487800a2c620004b
:103e20001241780004c32000024a7800b5c6200081
:103e30009542780016c32000054b7800c7c62000c5
:103e40009743780020c3200007487800d1c620009f
:103e50009140780032c320000149780024ccbf0093
:103e60000080fb004400dd003010b300cf80de0096
:103e7000c3c2200082c0b3003cfd07004f0478009d
:043e80000000060038
:020000040000fa
:103e8400442cef0006a2a9000602a8000440260064
:103e9400146288000602ab0093003a004e0037001b
:103ea4000402e900030032000602ab00fcff3a0002
:103eb400490037001462880044acef004400370026
:103ec4000402e900030032000802ab00fcff3a00e0
:103ed4004700370014628800e4ff2f002462880042
:103ee4003b0037000402e900040032004710800060
:103ef40087026300fbff3a00430037001462880026
:103f0400d4ff2f0024628800310037000402e90046
:103f1400040032004710800087026300fbff3a0070
:103f24003f00370014628800c4ff2f002462880019
:103f3400270037000402e900030032000802ab0046
:103f4400fcff3a003c00370014628800b4ff2f00e5
:103f5400246288001e0037000402e90004003200d5
:103f64004710800087026300fbff3a0038003700e7
:103f740014628800a4ff2f00246288001400370014
:103f84000402e90004003200471080008702630045
:103f9400fbff3a00340037001462880094ff2f00be
:103fa400246288000a0037000602e9000500320096
:103fb400040378000642ab00fbff3a001462880059
:103fc400030037001462880084ff2f0024628800f5
:103fd4002062800000000600240d200014108800d8
:103fe40004402600146288000802ab003b003a003b
:103ff4000440260014628800040024004510800058
:104004000502620031003a00044026001462880070
:1040140004002800471080000702620027003a00cd
:1040240094012000141088000440260014628800c3
:104034000802ab001e003a00044026001462880007
:1040440004002400451080000502620014003a00b8
:1040540004402600146288000400280047108000f1
:10406400070262000a003a000662a9000642a8009c
:1040740004402600146288000642ab00d4ff3200dc
:10408400f43f26001462880004037800c9ff370057
:10409400f43f26001462880006002800baff3700a7
:1040a400f43f26001462880006002400acff3700a9
:1040b400f43f260014628800a0ff3700f43f260076
:1040c400146288000600280092ff3700f43f26009f
:1040d400146288000600240084ff3700f43f2600a1
:1040e4001462880078ff3700f43f260014628800c9
:0440f4006dff370025
:020000040000fa
:1040f800e6874700889fbe008a9fbe008c9fbe004f
:104108008e1f78000007eb006e5388008e538800de
:1041180021e3a8006044b8000805be000dfe2f008a
:104128008c3e200084322000148a66002003a900f7
:104138002023a800400620000100200015090700e0
:104148002023a9000002eb00030037000402e80066
:104158008c0f5200460032002003ab00fbff3200f8
:104168000518800085bf9f004619800006826600fa
:104178000400a000441988002003a9002023a800f7
:104188004006200001002000020907002023a900a2
:104198000c027800020037000402e9003600320001
:1041a8002003ab00fcff320004188000f4b79f0026
:1041b80045198000058266000410a0004419880093
:1041c8002003a9002023a8004006200001002000a9
:1041d800f00807002023a9000002eb0003003700c5
:1041e8000402e8008c0f5200250032002003ab00c7
:1041f800fbff3200041880000018800069090700de
:1042080074072000840f50001f0036000fbb970072
:104218006132b9000a0542008b854a007fb39700d6
:104228006132b9000804420089844a000e07e80098
:10423800840c2000840f5700baff3a00820c20003b
:10424800030020000a00be0059f1070060538800ef
:10425800820c2000030020000800be0054f1070073
:104268008053880021e3a9000000eb000700370015
:104278000080eb00050037000080eb0003003700ea
:104288000080eb0001003700e0ff2f004f077800a7
:104298004f06be004f05be004f04be006f00b100c0
:0442a800000006000c
:020000040000fa
:1042ac003600f800809fbe00829fbe00849fbe0037
:1042bc00869fbe00889fbe008a9fbe008c9fbe005a
:1042cc008e1f7800ea8747008700a9001c00200099
:1042dc000e7824004a208000fa03b2001d00200052
:1042ec008a6edd00052180000d8262004a003200da
:1042fc004455dd000e054500ca459000ef8565006c
:10430c00e88f5500020034006d8ca8008b00200053
:10431c009a42780061c26200230032005a44900035
:10432c000884fb004244de000884fb0009002000e6
:10433c000400200005002800040474008584740027
:10434c002a4290000482fb003a4390006f03630002
:10435c004833dd000603720007002000463add00fa
:10436c00ca32de00850272004632dd00040474009d
:10437c00858474001a4278008482fb00c22ade0015
:10438c001a4290007f0262004622dd000482720015
:10439c0005002000c222dd0004002000040474008b
:1043ac0085847400080037009a4278000582fb006f
:1043bc004222de001a4490007f0464004644dd0073
:1043cc000804720009002000e60045000b0178008b
:1043dc00688057001df207008d86ea000d218800c9
:1043ec005a42900062426200020032006d4ca800fa
:1043fc0005003700e88157000b4178000800be002b
:10440c00145f8000040001000c06e800e60f560063
:10441c00b0ff3a0003003700e50f560001003a00e8
:10442c006b0ca800af00b1004f0778004f06be0020
:10443c004f05be004f04be004f03be004f02be002e
:10444c004f01be004f00be003600f90000400600d0
:020000040000fa
:10445c00889fbe000044eb0009f0230004c6200036
:10446c00084a7800d421ef003063800065004000da
:10447c00cf80de0046080700640cf800da01f90072
:10448c00da01f800d801f900d801f800d601f900da
:10449c00c1e1a8008be0a9009be0a80074002000fb
:1044ac00840e880014002000a40e880004c620008e
:1044bc0014427800e04f520039003a00306380001b
:1044cc00a00fb000cf80de003108070004c620002a
:1044dc0014427800e04f520031003a0054002000a2
:1044ec00a40e880004c6200014427800e04f52004d
:1044fc002b003a0030638000a00fb000cf80de00ac
:10450c002308070004c6200014427800e04f520034
:10451c0023003a0054012000a40e880004c6200099
:10452c0014427800e04f52001d003a0030638000c6
:10453c00a00fb000cf80de001508070004c62000d5
:10454c0014427800e04f520015003a00d421ef00dd
:10455c0004c6200014427800e04f520010003a00cc
:10456c003063800065004000cf80de000808070043
:10457c0004c6200014427800e04f520008003a00b4
:10458c00a90e880004c6200014427800e04f5200a7
:10459c0003003a00706cef0010c0b3000b00370042
:1045ac0004c72000084a780014c620001442780082
:1045bc00e04f520004003200803e20000100200039
:1045cc00f3070700a5ff37000040eb004f04be00c7
:0445dc0000000600d5
:020000040000fa
:1045e000889fbe0000047800810378001463800077
:1045f000880f52000b003d0004bab90011000900f9
:10460000482ad80080037800146380000491b90020
:10461000110009004819d80000017800040478004e
:104620000e0037008402ea00850f54000b003d00a5
:104630008802ea0004bbb90011000900453bd8001c
:1046400080037800146380000491b9001100090010
:104650004519d800000178000404ea0014638000c2
:10466000848f53000b00340004c2b900110009000c
:10467000472ad80000047800146380000491b90030
:10468000110009004719d800000178008403780060
:104690000e0037008402ea00858f53000b003d00b6
:1046a0008702ea0004c4b90011000900454cd80093
:1046b00000047800146380000491b900110009001f
:1046c0004519d800000178008403ea0014638000d3
:1046d000840f51000b00340004c2b900110009001e
:1046e000422ad800000478001463800004bbb9009b
:1046f00011000900423bd8008003780004017800d3
:104700000e0037008402ea00850f51000b003d00c7
:104710000201ea0004c2b90011000900422ad800cf
:10472000000478001463800004bbb9001100090084
:10473000423bd800800378000401ea002463800033
:1047400004004400b00e880084804300c10e88003d
:1047500004014100d20e88004f04be000000060094
:020000040000fa
:104760000002eb00240588002505800005c0a0009c
:1047700005d0a10005e0a1002505880034058800ca
:10478000350580000500a1006500b30035058800ef
:1047900044058800450580000580a0000590a10023
:1047a00005a0a00045058800450580000540a00043
:1047b0000550a1000560a000450588004505800062
:1047c0000500a0000510a1000520a00045058800f7
:1047d00054058800f5cf2f005605800086826200c0
:1047e00005a0a00055058800550580000540a100e2
:1047f0000506b3005505880064058800650580003e
:1048000005c0a00005d0a00005e0a0006505880057
:104810007405880084058800c5ff2f008605800088
:10482000868262000520a00085058800f5ff2c0027
:10483000860580008682620005e0a000850588006c
:1048400094058800a4058800f58f2f00460b2000f2
:10485000168b6200f5ff2c00a605800086826200a0
:1048600005e0a000a5058800b4058800b505800016
:104870000500a0000510a1000520a000b5058800d6
:10488000d405880004068800050680000530b300c2
:1048900005a0a10005068800140688001506800002
:1048a00005c0a00005d0a00005e0a0001506880006
:1048b00024068800340688004406880081e0a900a8
:0448c00000000600ee
:020000040000fa
:1048c400889fbe008a9fbe008c9fbe000082eb00c2
:1048d400655f8000ef8f52004d003e00faff2f000d
:1048e400fbff29000383650007002000c036dd00bc
:1048f4000c0020006113b800060676008786760057
:104904000182650005002000c024dd0008002000ad
:104914006102b80004047400858474008a0f560090
:104924008b8f5e002e003200eecbbf008082fb0036
:104934004240a90012003400865f8000975f800027
:1049440004bf20000005eb008c0f53008d8f5b002b
:1049540005003a00240037005403be008c0f5300b6
:104964008d8f5b00040032000a05e800850f5500b6
:10497400f9ff350002003700e10f45001b003a0043
:10498400e4ff2f00e34f500021003200c22add0073
:1049940004bf2000050242000c8abe000045e80066
:1049a400e4be20000a4a78000a85fb00cf68de00d6
:1049b400f4ff21000d02620005002000c021dd008b
:1049c400020020006162b800040171008581710059
:1049d4004f4ade000a007800da03070003003700bc
:1049e4003a002000010037000005eb00605f800002
:1049f4000002e800645f8800cf48de008a02780085
:104a0400f40020000801be00d30207000002eb00fe
:104a1400040078004f06be004f05be004f04be00e0
:044a24000000060088
:020000040000fa
:104a2800881f7800e00f5100e08f590023003d00f7
:104a3800f5c3b3008543610025002000853bdd00f8
:104a48005043900063436300074373005640980047
:104a5800c61bde004a1cdd004613de000603740098
:104a6800f8ff200006036400264098004833de0063
:104a78003044900007cfb3008743640006c3730037
:104a8800364098004219de00f67f200002016300dc
:104a980002037800f603b2008532dd004611de001d
:104aa8009043900006ceb30006c363000241730032
:104ab8001240980063c8720017003700f57f200085
:104ac8000281620002037800f603b200250020008c
:104ad8000533dd004611de009043900005ceb3009b
:104ae80085c2630002c1720012409800d042900053
:104af800e3c26200554098008042eb0025409800d0
:104b0800b043900005cfb30085c2630035409800dc
:104b1800c5cfb30005486300d04290000510a1003e
:104b2800554098006fc36000c043900005cfb300a4
:104b380085c2630086c27200454098006600400046
:104b48000181fb008400780041f007004f047800e1
:044b58000000060053
:020000040000fa
:104b5c00a4a92000144278006142620004003a00cb
:104b6c00a4a9200014427800704262003300320085
:104b7c0014030700a5568000a056880044a120000d
:104b8c0014427800e04f520005003200082aef0072
:104b9c000a2aef000000eb00605088003300370059
:104bac00465080005750800005005000cf80de003a
:104bbc000002430081824b0044508800555088000d
:104bcc00b45680000402e800b45688000040eb00a4
:104bdc0085022000850f520024003a00d62aef00ef
:104bec0066508000405080005150800084568000f8
:104bfc009556800004025000858258000603e80098
:104c0c00cfb3de000402430085824b004f2bde0045
:104c1c0006024200e0824a008582d1000482d30061
:104c2c0064508800445080005550800084568800a1
:104c3c009556880010c0b3000c003700a4a92000c2
:104c4c0014427800624262000040eb00804f520038
:104c5c00060032002b070700405088005150880096
:104c6c002e040700605088000040eb000000060096
:020000040000fa
:104c7c0080427800004aeb000000eb00efcf5200be
:104c8c0042003a00843e2000f45f880034c12000ca
:104c9c00144278000482fb00840242000281fb0073
:104cac00828f520039003c008402e9008582420068
:104cbc0061c37a000683fb0085804000114290009e
:104ccc004822dd0004027300c5bf20009542780025
:104cdc00e6cf52001400320005003e00e0cf520037
:104cec0027003200e2cf520026003a0008003700bd
:104cfc00eacf520023003900ebcf520004003600fb
:104d0c0006c5b30086cf52001e003a0012003700d1
:104d1c0005002800850f520001003a0014002800fd
:104d2c00045588001700370015518000850f52007c
:104d3c00020034001451800005003700220aee00f6
:104d4c00800f520002003d00220aee0000027800a3
:104d5c00f45488000b00370005c02900850f520061
:104d6c0001003d000502780005402600850f520029
:104d7c000100340005027800e4548800010037007b
:104d8c00e904070053fb0700100020000000060098
:020000040000fa
:104d9c00889fbe000104780082427800a4c52000e0
:104dac00054a7800f48f2f00051e2000950a62003a
:104dbc00e1e1a900e1a1a900e00f500004003d00d1
:104dcc00e0e1a8000000ea00b062880002003700b1
:104ddc00e0e1a900b0628800b462800090628000bb
:104dec00cf80de00cfa2de00048bb90000a9b90091
:104dfc00060341000400b8008100430002e12000da
:104e0c000300200069ee0700c062880084162000b1
:104e1c0004c4b90088628800e0c1a900e301a800bd
:104e2c00e2e1a800140f80000440a1000450a0008f
:104e3c000460a100140f8800140f80000490a000df
:104e4c0004a0a000140f8800e421ef008b40a900ff
:104e5c00e041a800b46280000402e900340f88002d
:104e6c00a4c5200014427800e04f52000700320025
:104e7c00040f80000480a1000490a00004a0a000f6
:104e8c00040f88009b40a80005003700040f800029
:104e9c000430b30004a0a000040f88009b40a900bc
:084eac004f04be0000000600e7
:020000040000fa
:104eb400881f78005816800055168000541680000c
:104ec4004922de00614262000804d10064046400e7
:104ed400c72ade00e28262000544740004447400c0
:104ee40002003200e74f540006003a000044eb0091
:104ef400e4ad2000084a78006a8ca8006905070020
:104f04002a003700decabf00884f50002600320056
:104f140072c0b3000440bc000882fb0004004100de
:104f2400e4ba200064427800e24f520006003a00de
:104f34000044eb00e6ad2000084b78006acca800e2
:104f44005805070019003700e14f520009003a00e4
:104f5400c4568000cfa2de00d6568000e7568000fb
:104f64000603420087834a00d6568800e756880025
:104f74000a003700e14f420008003a00c45680009e
:104f8400cfa2de00d6568000e7568000040253000c
:104f940085825b00d4568800e5568800e7ad200082
:104fa400884b7800010037000044780008407800fe
:084fb4004f0478000000060024
:020000040000fa
:104fbc00881f78008a9fbe000004a8008082fb0036
:104fcc000583420006034300074420000703430007
:104fdc008683e800e0cf5000080032006384610053
:104fec0068044400421dde000b002000c550dd00ab
:104ffc00010b4400820b7800030037004511dd00e3
:10500c00020b7800800beb00874120000642200049
:10501c00e34f50000f003600e440500026422000c1
:10502c00e3cf50000b003600e8405000a7412000b1
:10503c0046422000e3cf5000060036006c40500082
:10504c0066422000e34f5000020036008003eb0064
:10505c0007037800638062004200dd00f10020004d
:10506c000008dd008080ea0096806000008b7000f4
:10507c00e24f520009003e006783620006034300c2
:10508c00300020000600dd000080ea001700600000
:10509c000482fb000623dd00860b7000100020004c
:1050ac000500dd001424b7000004a9004f05be0064
:0850bc004f047800000006001b
:020000040000fa
:1050c400e4618000f561800061024200e0824a00f0
:1050d400e4618800f5618800c4618000d5618000c6
:1050e40061034200e0834a00c6618800d7618800fa
:1050f40034508000e00f520003003200e10f420000
:1051040006003a0003003700140020001450880001
:1051140010003700022aef000e00370034508000e0
:1051240005002000840f5300858f5b0009003500c3
:10513400382cef003a2cef0004a0200094029000d9
:1051440005f0a7008502ea008502e900cf2ade0007
:105154001502980024508000e00f52000300320032
:10516400e10f420006003a0003003700140020005b
:105174000450880012003700002aef0010003700a6
:105184002650800007002000e4618000f561800063
:10519400840f5300858f5b0009003c003c2cef001a
:1051a4003e2cef0004a020009402780005f0a70034
:1051b4008502ea008502e900cf2ade00050a7800ac
:0451c40000000600e1
:020000040000fa
:1051c8003600f800809fbe00829fbe00849fbe000c
:1051d800869fbe0012040700b8ff0700750307008a
:1051e800a4a9200014427800644262002b00320017
:1051f80004002800351080000502620027003200f4
:10520800a46180000402e800a4618800f50c200075
:10521800850f520021003400342cef00e0a020005c
:1052280040f90700e00f50001c003a00755080005c
:1052380084508000848f52000400340015c0b300ed
:10524800a6c42000054b78000a003700875080006c
:1052580085508000765080008400200011000900ed
:105268008402d80000825300860f520001003400e7
:105278004a6cef00a4c4200014427800e04f5200aa
:1052880006003200b4c62000144278000444b2007c
:1052980002003a006bcca800810407008460a900d2
:1052a8004f03be004f02be004f01be004f00be00bc
:0852b8003600f9000040060079
:020000040000fa
:1052c0000a00fa00889fbe008a9fbe000004be004c
:1052d00082407800030078000042eb00e4f79f0072
:1052e0000a702000080565000b002000485add0008
:1052f0004855de000a057200c85dde00e14f55002a
:105300000800320003003900e74f550011003a0051
:105310000c003700ea8157007281570064f20700e1
:105320000d003700ef4264006a825700f281570097
:105330000141780080007800054078004ffe0700aa
:1053400005003700ea8157007281570056020700b6
:10535000010037000000eb00e00f50000f003200aa
:10536000eff09700e0cf50000c00320067056500b9
:105370004855dd0034c12000144278000482fb004f
:105380004422dd000a057200080fb2004440de002e
:105390000000750072815700380507004f05be00f8
:0c53a0004f04be000080fa000000060070
:020000040000fa
:1053ac0010018000801f780020018000801f780091
:1053bc0030018000801f7800003782006c0ab50035
:1053cc0080027800545380001301c0000400cd000b
:1053dc00f453880010378200700ab500000378007f
:1053ec00975380001301c6000400cd0014548800ac
:1053fc004f007800300188004f00780020018800b1
:10540c004f00780010018800000006001001800099
:10541c00801f780020018000801f78003001800000
:10542c00801f7800003782006c0ab500800278007b
:10543c00545380001301c0000400cd00f4538800c5
:10544c0010378200700ab500800278007453800017
:10545c001301c0000400cd00045488004f007800f4
:10546c00300188004f007800200188004f00780040
:08547c00100188000000060089
:020000040000fa
:10548400042080000480a0000490a10004a0a100d6
:1054940004208800060e200005022000072080005a
:1054a40007026300850f5200fcff3a00f48f2f00bf
:1054b40005402000950a6200050e200006208000a9
:1054c40006826200fdff3a0030e4a80031e4a8003f
:1054d40032e4a80033e4a80034e4a90035e4a900c8
:1054e40036e4a90037e4a900c4ff2f0007432000d5
:1054f400970b6200f4cf2f0005432000950a620049
:10550400c4ff2f0026432000160b6200f4cf2f00a7
:1055140027432000970b620004fe2f0035208000f3
:10552400050262000420a00034208800342080009a
:1055340004d0a10004e0a00004f0a10034208800fd
:105544000ca4a8009860a8009700a8002d040700e8
:08555400390407000000060005
:020000040000fa
:10555c00889fbe008a9fbe000004a8000003400084
:10556c00060343000744200007044300c283de0007
:10557c008783430006422000868343004383de007a
:10558c00060343008941200009034300e18f5000ca
:10559c0008003a00e3846100e8844400429dde0088
:1055ac00cfd5de00c550dd00018c440012049800fc
:1055bc00050037004511dd00020c7800f27f200059
:1055cc000300200013049800e3006000c208dd0013
:1055dc00f20020000111dd000281ea0017016100d8
:1055ec000122dd00840b710067026000040242009e
:1055fc0037002000843bdd008783ea00968363003c
:10560c00042add00048b7300140020000020dd0050
:10561c001424b7000004a9004f05be004f04be00bf
:04562c000000060074
:020000040000fa
:105630003600f800809fbe00829fbe00849fbe009f
:10564000869fbe00881f78008860a9000004a8001b
:105650000400220055208000050262000200320092
:1056600014002000045f8800040021005520800001
:10567000050262000004eb00880f520003003200b4
:105680006b4ca8006d0ca8001800200004802000be
:105690005520800005026200020032006b6ca800f9
:1056a0006d2ca80004102000552080000502620027
:1056b000030032006d6ca8006b8ca8006baca800d6
:1056c000f4002000542088000004a900045f80003a
:1056d000e10f520001003a0073030700e00f54008d
:1056e00001003200700307004f0478004f03be0032
:1056f0004f02be004f01be004f00be003600f90051
:04570000004006005f
:020000040000fa
:105704000002eb0004198800141988002419880089
:105714002143a90047c0b30046322000074b78005c
:10572400151980000580a1000590a00015198800b6
:105734002063a8002043a800051980000506b300d3
:105744000570a10005198800051980000530b30013
:105754000519880035fc2f0026322000168b6200c4
:10576400941988002343a90044198800fd8242004b
:1057740047198000878262003500b300451988000c
:105784002603a900041c8800041c80000440a10016
:105794000450a000041c8800c4ff2f00053820001a
:1057a400950a620081c3a90004302000441c8800cb
:1057b40034002000541c8800d4002000141c8800ed
:0c57c400046e2000241c88000000060079
:020000040000fa
:1057d000240f8000a5c5200095427800e0cf52003c
:1057e00024003200b5c5200095427800e0cf520079
:1057f0002000320005002100010f8000818262003c
:105800000a003200f5628000c6628000868f520076
:1058100017003400b762800006835300868f520061
:1058200013003d005c0ca80011003700f00f42008f
:1058300004003500b5628000f0824200850f5200fe
:105840000b0034005c4ca800e00f520002003d0049
:10585000b562800005024200b5628000850f5200eb
:1058600002003500b562800005025200240f880056
:10587000f4628800b56280006120b900c003dd00d9
:105880000600200011000900453bd800000006007a
:020000040000fa
:10589000881f7800004478000043eb000882fb007a
:1058a0000500200086407800f2ff20000300200061
:1058b000064078006f0207000043eb00f400200070
:1058c0000500200011c0b300f2ff200003002000fb
:1058d00006407800670207000884fb00047020007f
:1058e000080272000043eb00cfa2de0021c0b3002b
:1058f000f2ff200003002000064078005d02070050
:105900000043eb00f47020000500200031c0b3001c
:10591000f2ff200003002000064078005502070037
:105920000043eb00f41020000500200041c0b3004c
:10593000f2ff200003002000064078004d0207001f
:085940004f047800000006008e
:020000040000fa
:10594800889fbe000004a80000004000000040003e
:105958000543200005004000e10f520012003a0004
:105968006112b800638361006134b8004299de00b7
:10597800cf91de00f67f20000201630003002000c3
:10598800e18f500004003a00680444004511dd002e
:1059980002084400020037004511dd0008084100f4
:1059a800140098000c003700f47f20000201620008
:1059b80003002000e18f500003003a004511dd008c
