:020000040802F0
:10000000E8860010910502085B510208353F02089E
:1000100043510208173F0208675102080000000020
:100020000000000000000000000000004904020879
:100030002F3F0208000000000105020865050208C4
:10004000AB050208AB050208AB050208AB050208C8
:10005000AB050208AB050208AB050208AB050208B8
:10006000AB050208AB050208AB050208AB050208A8
:10007000AB050208AB050208AB050208AB05020898
:10008000AB050208AB050208BD0E050851110508B5
:1000900045110508AB0502084B110508AB05020820
:1000A000BD240508AB05020809250508AB050208B3
:1000B000AB050208AB050208AB050208AB05020858
:1000C000AB050208AB050208AB0502084D20050888
:1000D00053200508AB050208AB050208AB05020872
:1000E000951A050861510208AB050208AB05020824
:1000F000AB05020881250508AB050208AB0502081F
:10010000AB050208AB050208AB050208592005083B
:10011000AB050208AB05020831250508592505087D
:10012000AB050208AB050208AB050208AB050208E7
:10013000AB0502082D190508AB0502086311050877
:1001400057110508AB0502085D110508AB0502084B
:10015000AB050208AB050208AB050208AB050208B7
:10016000AB050208AB050208AB050208AB050208A7
:10017000AB050208AB050208AB050208AB05020897
:10018000AB050208AB05020800F002F800F018F910
:1001900014A696E8000CB244B344DA4501D100F04D
:1001A0000FF9BAE80F000FA696E83000A5EB04059A
:1001B00004EB0607AAEB0704A7F101074FEA1515A0
:1001C0004FEA3414A4F10104AC4201D300F0F8F872
:1001D00013F0010F18BFFB1A43F0010300F001F800
:1001E000DBE7184774B30400A4B30400704710B5EC
:1001F000002003F0AFF803F041F810BD13F03ABF50
:100200000202036FE9B7672D000002080000060034
:1002100000000020C0FF01000000000000000000FE
:1002200007614D4334303076330000000000000099
:1002300001000100010000004558540000000000CA
:100240004E6F7620313720323032352031343A311A
:10025000323A3536000000000000000000000000C7
:10026000000000000000000000000000000000008E
:10027000000000000000000000000000000000007E
:100280000A444FF0000C10F8013B13F0070408BFBC
:1002900010F8014B1D1108BF10F8015B641E05D05A
:1002A00010F8016B641E01F8016BF9D113F0080F0F
:1002B0001EBF10F8014BAD1C0C1B09D16D1E58BFA1
:1002C00001F801CBFAD505E014F8016B01F8016BD8
:1002D0006D1EF9D59142D6D370470000002300244B
:1002E00000250026103A28BF78C1FBD8520728BF46
:1002F00030C148BF0B6070476E2902F0308470290E
:1003000001F06183662900F010A5652900F00DA5B4
:10031000672900F00AA5612900F009A503681B0AF6
:1003200028BF41F08001692901F09482642901F01D
:100330009182752901F08E826F2902F0E584782977
:1003400001F02D83E92901F0C182E42901F0BE8288
:10035000F52901F0BB82EF2902F0E284F82901F0CF
:100360002C830368DB0928BF41F08001632902F078
:100370001083732902F01583E32903F0DF81F32949
:1003800003F0E481002070471FB540F078FC9DE841
:10039000030001F032FF02F08BFB0400002000217B
:1003A00040F0D2F8401C60600020002140F0B6F818
:1003B000E06003F001F802F0E9FE01F0EBFE1FBD82
:1003C00003F00FF81146FFF7DFFF2AF01BFC03F0E4
:1003D000E5FA03B4FFF70BFF03BC02F05BFB000080
:1003E00080F309887047EFF309807047684680F30F
:1003F000098804480078C00714BF0220032080F356
:1004000014887047F8030010DFF818C0EFF3058375
:100410001B0618BF6047EFF31483DB0708BF604774
:1004200000DF7047EDA70508DFF818C0EFF305837C
:100430001B0618BF6047EFF31483DB0708BF604754
:1004400000DF704765A80508EFF30980816911F89E
:10045000021CE1BB90E80F1010B5E047BDE810406A
:10046000EFF3098C8CE80700214B93E806009142DA
:1004700008BF704741B91EF0100F16D11D4908681A
:1004800020F00100086010E01EF0100F06BF2CEDF8
:10049000108A0120002081F838002CE9F00FC1F803
:1004A0003CC00CB43BF0C6FE0CBC1A60D2F83CC099
:1004B000BCE8F00F92F8380000280EBF6FF0020E73
:1004C0006FF0120EBCEC108A8CF30988704710B5DF
:1004D000094A1268914209D8084C54F8214090E822
:1004E0000F10A047EFF3098C8CE80F0010BD00003F
:1004F0006C03001034EF00E0DC0D0508DC0D05088E
:1005000010B53BF091FDBDE81040154B93E8060097
:10051000914208BF7047EFF3098C1EF0100F06BF21
:100520002CED108A0120002081F838002CE9F00F12
:10053000C1F83CC00CB43BF07DFE0CBC1A60D2F894
:100540003CC0BCE8F00F92F8380000280EBF6FF0F6
:10055000020E6FF0120EBCEC108A8CF30988704703
:100560006C03001010B53BF089FECCE710B538F0F5
:10057000F9FE3BF083FEC6E70048704700300000FC
:100580000048704700FC0100401EFDD1704700008C
:100590000948804709480047FEE7FEE7FEE7FEE717
:1005A000FEE7FEE7FEE7FEE7FEE7FEE70448054953
:1005B000054A064B704700006923050889010208B7
:1005C00000000020E886001000FC0120E856001022
:1005D000F7B514466E46002914BF0125002588484A
:1005E0000078E8B100F07AFA2946304632F0ACFCE7
:1005F000C5B2012C0DD183480099834CC0F8261058
:10060000014620684022001D01F030FC206800F007
:1006100040FE00F06DFA012D02BF002003B0F0BDD6
:100620004FF0FF3003B0F0BD38B56C4600900029A4
:1006300014BF012500257248007860B100F04EFA21
:100640002946204632F080FCC4B200F051FA012C59
:1006500004BF002038BD4FF0FF3038BD2DE9F3470F
:1006600067480D46E94600784FF0FF37F0B1674E16
:100670003088D8B100F032FA30880024002888BFD2
:10068000DFF88C810FD900BFC4EBC40008EB400039
:10069000042249460A3001F09EFB60B1601CC4B2DE
:1006A00030888442F0D300F023FA11E002B04FF01A
:1006B000FF30BDE8F087C4EBC40008EB4000041D28
:1006C00000F016FA00271DB120682860A088A880D5
:1006D00002B03846BDE8F0872DE9F1434848E846C6
:1006E0004FF0FF360078E8B1484D2888D0B100F0CF
:1006F000F5F928880024002888BF454F0FD900BF8E
:10070000C4EBC40007EB4000042241460A3001F06C
:1007100062FB58B1601CC4B228888442F0D300F058
:10072000E7F919E04FF0FF30BDE8F883C4EBC400EF
:1007300007EB4000041D00F0DBF906223549204696
:1007400001F049FB58B106223349204601F043FB32
:10075000002818BF002602D03046BDE8F8834FF0CD
:10076000FF36F9E7002070470020704710B5254C90
:10077000FF21204632F026FA28484FF4C1634FF09B
:10078000080C0169C4F80610828A6281A3814FF4C3
:100790008073E381A4F810C04FF0060C84F812C0F7
:1007A0004FF0040C84F813C0A382C4F816106283BF
:1007B0008069E06104F1200032F0F7F90020C4F80C
:1007C0002600C4F82A00C4F82E00C4F83200C4F889
:1007D00036000D4AC4F83A00E08704F14001116088
:1007E0002A220A80488010BD90F82010202984BF5A
:1007F0004FF0FF30704710B500F0F5FC002010BD41
:100800000802001010210010000200103E0300102A
:1008100078240010320D0608380D060898210010C3
:10082000B84A126F02B11047FEE770B50C46B8B176
:100830000546FFF797FF0646284600F091FC064460
:10084000284600F029FA0644284600F06CFA0644CF
:10085000284600F067FC3044002C18BF206070BDB3
:10086000E120A84AA8A1126F12B19047002070BDE4
:10087000FEE710B5A34C606F002808BF10BD80478D
:100880000028AB49086018BF10BDE020226FA9A165
:1008900012B1BDE810401047FEE770B5A44D416F9E
:1008A00081B1816F974C00291FBFC16F0029D0F81B
:1008B000800000280DD0606F002818D08047286085
:1008C00080B114E000218167C167C0F88010296001
:1008D0000DE0226FE320A7A11AB190474FF0FF303F
:1008E00070BDFEE7226FE02092A112B19047002078
:1008F00070BDFEE710B5D821824801F0DFFB8C49BE
:100900000020086010BD2DE9F0417E4C88460500AE
:1009100007D02A6F2267287850B1E420A0A132B115
:100920002EE0226FE120ABA1002A29D1FEE7FEE7ED
:10093000B1480078012804D02846FFF755FF20B1C0
:100940001AE0E020ADA1DAB9FEE7D8216D4801F048
:10095000B5FB774F002628463E6000F01FFC58B9D3
:10096000284600F09FF938B9284600F0E2F918B996
:10097000284600F0DDFB40B1AA49226FE3205AB1BE
:1009800090474FF0FF30BDE8F08141462846FFF721
:10099000EBFE002875D100E0FEE72846FFF7E2FEF7
:1009A00020F0030080444146284600F0DBFB00288D
:1009B00067D1284600F0D4FB20F003008044414674
:1009C000284600F06BF900285BD1284600F064F956
:1009D00020F0030080444146284600F0A6F9002894
:1009E0004FD1284600F09FF920F0030000EB0801EA
:1009F000284600F099FB002843D1284600F092FBDE
:100A0000D82229463F4801F0B8FA3E4D2846FFF764
:100A1000ADFE002835D1686F60B1A96F00291FBFF6
:100A2000E96F0029D5F88010002909D08047386087
:100A300068B111E0AE67EE67C5F880603E600BE01C
:100A4000226FE3204BA10AB190471AE0FEE7226F24
:100A5000E02038A12AB19047284600F085FB80B9F4
:100A600000E0FEE7284600F01BF950B9284600F0E8
:100A70005EF930B9284600F059FB002808BFBDE8F0
:100A8000F0814FF0FF30BDE8F08170B504000D46F5
:100A900016D0FFF767FE0646204600F061FB0644CD
:100AA000204600F0F9F80644204600F03CF90644E0
:100AB000204600F037FB3044002D18BF286070BD81
:100AC000E120104A10A1126F12B19047002070BDB2
:100AD000FEE718E7002070470020704714480068C0
:100AE000002808BF7047074AD2F88010926F10475D
:100AF0000F480068002808BF70470249C96F0847BF
:100B000000687047982100106970616C5F626173C2
:100B1000655F6D656D6F72795F67657473697A651E
:100B20002829206E65656473206120636667000074
:100B3000040200106970616C5F626173655F6869CF
:100B4000645F7468726561647361666574795F6916
:100B50006E697428293A2063616E6E6F7420616C2F
:100B60006C6F6361746520746865206D7574657859
:100B7000000000006970616C5F626173655F696E9F
:100B8000697469616C6973652829206E6565647391
:100B9000206F73616C2066756E6374696F6E73008D
:100BA0006970616C5F626173655F696E69746961C8
:100BB0006C69736528293A20756E737570706F7251
:100BC000746564207463702F697020737461636B43
:100BD000000000006970616C5F626173655F696E3F
:100BE000697469616C69736528293A206D6973734A
:100BF000696E672063666700080200106970616CA7
:100C00005F626173655F696E697469616C69736560
:100C100028293A20616C726561647920737461726D
:100C200074656400F416060831B524486C460078F3
:100C300038B1234890F82C0018B19DF80000EF2837
:100C400002D04FF0FF3038BDFFF748FF204636F0A6
:100C500099FE002814BF00244FF0FF34FFF748FF2F
:100C6000204638BD31B515486C46007888B1144827
:100C700090F82C0068B1FFF731FF204636F0AAFE4D
:100C800000280CBF4FF0FF340024FFF731FF20464F
:100C900038BD4FF0FF3038BD00207047002070474E
:100CA0000020704790F82D10062984BF4FF0FF30C8
:100CB000704710B500F019FB002010BD08020010AD
:100CC00098210010224810B5406848B121480178A9
:100CD00001290CD00121017037F030F9002010BD3E
:100CE0001DA1E120FFF79CFD4FF0FF3010BD24A1B6
:100CF000E020FFF795FD4FF0FF3010BD10B5FFF776
:100D0000EDFE37F037FBBDE81040FFF7F1BE10B540
:100D1000FFF7E4FE3FF0DEFABDE81040FFF7E8BE63
:100D20000B48406870470020704700207047002043
:100D300070470189B1F5C05F84BF4FF0FF30704745
:100D400010B50021034A117000F027FB002010BDF0
:100D500098210010080200106970616C5F7379734C
:100D60005F737461727428293A206D697373696EB8
:100D70006720636F6E66696775726174696F6E0074
:100D80006970616C5F7379735F7374617274282921
:100D90003A2063616E6E6F742073746172742061A7
:100DA0006761696E0000000008B1062801D90020C3
:100DB0007047F0B515460A46E64900EB400085B09D
:100DC00001EBC000A0F1180450F8080C0A9F1E4661
:100DD00098B11046FFF794FE0346E06820B19842B0
:100DE00004BF2089A84208D10396ADF80870009589
:100DF000D4E904C002AA2146E04705B00020F0BDB6
:100E00004107090EC0F3C00241EA0211C0F300120B
:100E100010B541EAC201C0F3401041EA8004CE4857
:100E20000078002808BF10BDFFF758FECB4A01210B
:100E300020463FF073FAC0B1C64900EB400201EB17
:100E4000C20404F8180C002024F8160C44F8140C02
:100E500024F8100C44F80C0C44F8080C44F8040C6A
:100E6000FFF746FEA4F1180010BDFFF741FE002079
:100E700010BD70B504001CBF2078002821D0FFF7FA
:100E80002DFE6088002518B120783FF029FA658092
:100E900020783FF0A5FA06462078AE4900EB4000E6
:100EA00001EBC00000F8185C257065806560258145
:100EB000E56025616561FFF71BFE002E1CBF002069
:100EC00070BD4FF0FF3070BD70B515460E46040082
:100ED0001DBF20780028002D4FF0FF3008BF70BDE7
:100EE000FFF7FCFD608820B120783FF0F9F9002081
:100EF00060809849002000BF00EB400201EBC20275
:100F00005288AA4210D0401CC0B20628F4D32078E0
:100F100029463FF027FA10F0FF0F05D06580666084
:100F2000FFF7E6FD002070BDFFF7E2FD4FF0FF3058
:100F300070BD2DE9F04790460F46040019BF207898
:100F400000284FF0FF30BDE8F087FFF7C7FD60884D
:100F500050BB207800264546002818BF002D2DD014
:100F6000FFF7BCFD60884FF0000920B120783FF00A
:100F7000B7F9A4F802907749002000BF00EB4002C7
:100F800001EBC2025288AA4216D0401CC0B2062809
:100F9000F4D3207829463FF0E5F910F0FF0F0BD08D
:100FA00065806660FFF7A4FDA4F80880E760FFF79E
:100FB0009FFD0020BDE8F087FFF79AFDFFF798FD41
:100FC0004FF0FF30BDE8F08710B5040019BF20785E
:100FD00000284FF0FF3010BDFFF780FD002020817A
:100FE000E060FFF785FD002010BD2DE9FF4182B0D4
:100FF00098460C46050004AF1CBF2878002828D06E
:101000006888002818BF002C23D0606800281CBF07
:10101000208800281DD0FFF761FD20883FF076F979
:1010200006001BD02288616800F020FF2088009015
:1010300028783346424639463FF0EAF900280CBF8B
:101040004FF0FF340024FFF753FD06B02046BDE803
:10105000F08106B04FF0FF30BDE8F081FFF748FDAA
:1010600006B04FF0FF30BDE8F0812DE9F04383B0CA
:101070000C4605001CBF688800283CD0E8680028A2
:101080001CBF2889002836D0FFF728FDE8680190AA
:101090002878B5F808900DF104084FF0FF360028C5
:1010A0001CBF6888002820D0002C1FBF6068002863
:1010B0002088002819D0FFF711FD20883FF026F97D
:1010C000070010D02288616800F0D0FE20880090D0
:1010D00028783B464A4641463FF09AF900280CBF23
:1010E0004FF0FF360026FFF703FDFFF701FD03B0C9
:1010F0003046BDE8F08303B04FF0FF30BDE8F08329
:10110000002812BF00294FF0FF30704770B5164617
:101110000D460446FFF7E2FCC4E90456FFF7E8FC7D
:10112000002070BD002070470020704700207047ED
:1011300010B5044690F83000062884BF4FF0FF3009
:1011400010BD9021034800F0B9FF204600F08AF955
:10115000002010BD7022001008020010A90D020826
:10116000002070470020704710B5D0F88C1000297F
:101170001CBFD0F89010002908D0D0F89410002996
:101180001FBFD0F898000028002010BD06A14FF026
:10119000E100FFF745FB4FF0FF3010BD10B500F048
:1011A00095F8002010BD00006970616C5F6574687F
:1011B0005F6869645F696E697428293A206D697394
:1011C00073696E67206574682066756E6374696FF5
:1011D0006E730000A94890F82200012818BF7047DC
:1011E000002031F0D3BF10B504464FF4E071A4489D
:1011F00000F064FFA34894F82010C180A249626AFD
:10120000B2FBF1F2028194F821200270A26AB2FBD3
:10121000F1F14170002010BD9848D0F89C000028E2
:1012200008BF7047004700291CBF0020704732F0FC
:101230000BB810B5954A84B09069D2E90812CDE98F
:1012400002128E4A0090907A8DF80000904801902A
:10125000904890F803C0818883784FEA0C6441EA93
:101260001C214FEA134C44EA034341EA0C0490F872
:1012700001C0007843EA0C2344EA1C611843CDE91D
:101280000201D2F88C10684688477E49487104B044
:1012900010BD7A49D1F89810084710B5774CD4F8AA
:1012A00090008047D4F88800002808BF10BDBDE832
:1012B0001040004710B5714CD4F88400002818BFC6
:1012C0008047D4F89400BDE8104000476D4902699A
:1012D0004A61808A088300207047684991F82C1081
:1012E000012918BF704739F08FB9654A0021664B54
:1012F000C2F8C011C2F8C411C2F8C811C2F8CC11AA
:10130000C2F8D011C2F8D411C2F8D811C2F8DC1159
:10131000C2F8E01142685B49B3FBF2F290F82D008D
:10132000488192B24CF6CD405043800C887000202A
:101330007047062806D2584901EB4011F030C0B280
:10134000FFF76EBA55A1E020FFF76ABA10B536F084
:1013500025FE4A4C94F82C00012808BF36F030FED8
:1013600094F82F00012808BF36F052FE94F82200AE
:10137000012818BF10BD0020BDE8104031F006BFA5
:1013800010B53AF0FFFF3D4890F82C00012818BF37
:1013900010BDBDE810403BF04DB82DE9F041384D8F
:1013A00000260446C5F8E461C5F8E861C5F8EC61BB
:1013B000C5F8F061C5F8F461C5F8F861C5F8FC61DD
:1013C000C5F80062C5F80462C5F80862C5F80C6289
:1013D000C5F81062C5F81462C5F818624FF4C05120
:1013E00005F50870C5F81C6200F068FE05F5C057E9
:1013F000C022C7F82862C7F82C62A169C5F8E411B9
:10140000E169C5F8EC1105F5F271A8230A734B7375
:101410008E734FF0FE0C81F80FC00A744B748E74FB
:1014200081F813C00A714B71184A8E7181F807C098
:10143000D2E90012C7E9881212480121124AC1708C
:10144000218901616168B2FBF1F18181C6810020CF
:10145000BDE8F081094991F82F10012918BF7047A4
:1014600039F012B910B504464821124800F026FEA2
:10147000044894F830100171002010BD982100102C
:10148000782400103803001040420F00900F060827
:10149000980F06084C030010B80F0608756E6B6EA7
:1014A0006F776E2073797374656D206572726F72D9
:1014B00000000000A83E00100048704718410010CE
:1014C00070B5A0FB01400021D4F1FF3271EB0000A8
:1014D0003CBF002070BD204600F007FF05001CBF88
:1014E000214600F0C9FD284670BD70B516460D4670
:1014F000041F002808BF70BD002E1CBF05F10800A6
:10150000AFF300802B465868002818BFA04238BFB0
:101510000346F8D31968CA18A24218BF5C6003D109
:1015200022681C461144196021680A19824218BFBA
:10153000606004D142686260006808442060002E48
:101540001CBF05F10800AFF3008070BD10B5044664
:1015500000F036FE01682046BDE810400122C4E7D5
:101560000844401E491E884370470821001DF7E7C4
:101570002DE9F0410F468046041F00F021FE066869
:1015800007B3B8F1000F384622D0FFF7EEFFB8429C
:1015900005463CBF0020BDE8F08106F10800AFF32E
:1015A00000802268AA4238BF314615D3511B082952
:1015B00031D36019002240F8041B31462560FFF743
:1015C00094FF28E04046FFF7C1FF0020BDE8F0810E
:1015D000BDE8F04100F089BE4868002818BFA0426D
:1015E00038BF0146F8D3131983421BD103681A444C
:1015F000954217D8531B082B0AD3436862195360CE
:10160000236800681844401B106025604A6002E0AF
:1016100022604068486006F10800AFF30080201D9A
:10162000BDE8F08100223146384600F01DFE05007D
:101630000AD041462068021F284600F09EFC002286
:101640003146201DFFF751FF06F10800AFF300807F
:101650002846BDE8F08153EA020C00F069802DE9CC
:10166000F04B4FF00006002B1FBFB3FA83F503FACF
:1016700005F424FA05F65E4012BF1643B2FA82F56D
:1016800002FA05F4C5F120051EBF22FA05FC44EA62
:101690000C04203556EA044C4FEA144418BF641C6D
:1016A0004FF000084FF00009904271EB030C39D362
:1016B000002919BFB1FA81F701FA07F6B0FA80F7ED
:1016C00000FA07F6C7F120071EBF20FA07FC46EA1A
:1016D0000C062037B6FBF4FCA7EB0507103F07F01C
:1016E0001F0BCBF120062CFA06F60CFA0BFB44BFBD
:1016F000B3460026202FA4BF5E464FF0000B5BEAE6
:10170000060C08BF4FF0010B19EB0B0948EB06085C
:10171000ABFB027C06FB02CC0BFB03CCC01B71EBCA
:101720000C01C1E70B46024641464846BDE8F08B36
:1017300013B5084318BF4FF0FF300146AFF30080E8
:10174000BDE81C40704700000FB41CB5084B06AA4A
:101750007B4469460090059801F0F1F804460020AA
:10176000694601F0FFF820461CBC5DF814FB000040
:10177000111200000FB41CB50C0007AA009007D08E
:101780004142A14202D32044401E01E04FF0FF300D
:10179000074B7B4469460190069801F0D0F8002180
:1017A000002C01D0009A11701CBC5DF814FB0000E5
:1017B000D911000070B5044685690068C10601D5DD
:1017C000302600E02026C00707D070BDD4E90121F3
:1017D00030469047206A401C20626D1EF6D570BDD1
:1017E00070B5044685690078C00707D170BDD4E99B
:1017F000012120209047206A401C20626D1EF6D5F2
:1018000070BD70B50C460546012A05D028788006C3
:1018100000D5EA69002302E0012305E05B1C934246
:1018200002D2E05C0028F9D1A869E618C01AA861C4
:10183000286A184428622846FFF7BCFF04E0D5E96F
:10184000012114F8010B9047B442F8D32846FFF762
:10185000C7FF70BD2DE9F0410646002410687529C8
:10186000314616A510D001F068F9002802DA40428E
:1018700013A507E031688A0701D512A502E04907E0
:1018800004D511A5012401E001F060F900210A222C
:1018900006F1240709E0B0FBF2FCB0FBF2F302FB17
:1018A0001C00303078541846491C0028F3D12346D8
:1018B0002A463046BDE8F04100F0D5BD00000000EA
:1018C0002D0000002B000000200000002DE9F04159
:1018D0008046D21D22F007020025D2E90002F52938
:1018E00015A614D0011E72F1000106DA0023D0EB18
:1018F000030063EB020211A608E0D8F800108B0782
:1019000001D50FA602E0490701D50EA60125114613
:10191000002408F1240704E000F05BFD30323A5562
:10192000641C50EA0102F7D12B463246214640465C
:10193000BDE8F04100F097BD000000002D00000060
:101940002B00000020000000F0B40D4601880905BE
:1019500002D5214C7C4402E01F4C7C440E34002113
:1019600000F1240608E002F00F071209E75D42EAE1
:1019700003721B097754491C52EA0307F3D102781A
:101980000023120704D5702D06D009B102231134AB
:101990002246F0BC00F067BD01231034F8E770B5B3
:1019A00004460D462146106801F0D0F8024629464B
:1019B0002046BDE870400023C6E7D21D22F0070391
:1019C000D3E90023C0E70368126843F020030360F3
:1019D0000823C3610023B7E792FC03002DE9F05F01
:1019E000894604464FF0000ADFF874B1FB44C0F8A2
:1019F00020A02046E1688847002874D0252806D01A
:101A0000D4E901219047206A401C2062F1E70026BA
:101A10005F462046E16888472028054607DB312DD0
:101A200005D2781910F8200C08B10643F1E7B00789
:101A300001D526F00406C4F81CA00027C4F818A09D
:101A40002A2D09D0284631F001F938B304EB870874
:101A5000303DC8F8185019E059F8041B204604EB33
:101A600087029161E1688847012F054618D1E06936
:101A7000002820DA26F020061DE0D8F8180000EB38
:101A8000800005EB40003038C8F818002046E168B7
:101A90008847054631F0DAF80028EED1012F0AD048
:101AA0002E2D08D12046E16888477F1C0546022F6D
:101AB00046F02006C4DBA069002803DA404246F065
:101AC0000106A061F00701D026F010066C2D0BD0A6
:101AD000682D09D04C2D39D06A2D35D0742D35D0D4
:101AE0007A2D33D016E038E0E1682F46204688474B
:101AF000B842054609D16C2F26D04FF48060E168CA
:101B0000064320468847054604E06C2F1AD04FF460
:101B1000807006430DB3A5F14100192802D8203585
:101B200046F400664A462946204626604E46FEF7A1
:101B3000E3FB80B101280BD0F61D26F0070000F171
:101B4000080956E74020E4E78020D8E70020D6E7E0
:101B500006F104094DE7284652E7206ABDE8F09FE8
:101B600022FC03000FB400B58DB010A909900091BC
:101B70000B904FF0FF300A9000200C9006487844FC
:101B80000690064878446A4607900F9909A800F025
:101B900021FF0DB05DF814FB730E00008B0E0000EA
:101BA0002DE9FF5F1D464FF0FF3B91464FF00008C7
:101BB0005F46D5E90146A96901987F1C8847296AD3
:101BC000824688470028F6D1BAF1FF3F0CD0002E9C
:101BD00024F4C06419DD600614D5BAF12B0F09D0C6
:101BE000BAF12D0F0ED103E0584604B0BDE8F09FC6
:101BF00044F48064A96901987F1C8847761E824658
:101C0000002E02DDBAF1300F03D0B9F1000F26D05B
:101C100032E0A969761E01987F1C44F4007488475D
:101C2000002E824605DDBAF1780F06D0BAF1580FC2
:101C300003D0B9F1000F10D01EE0B9F1000F02D0AF
:101C4000B9F1100F18D1A969761E01987F1C24F4F0
:101C5000007488478246102002E0082000E00A2035
:101C6000814609E0A96908FB0908761E01987F1CD6
:101C700044F4007488478246002E05DD49465046EC
:101C800000F093FE0028EDDAE96901988847A00585
:101C900002D46FF00100A8E7E00725D1600613D554
:101CA000600502D5C8F1000000E0404629680A1D21
:101CB0002A600968220501D5087015E0220701D5C0
:101CC000088011E008600FE02868011D29600068A5
:101CD000210502D580F8008006E0210702D5A0F892
:101CE000008001E0C0F8008038467EE72DE9FF5F04
:101CF0004FF000089946144646469169D2E901A77B
:101D0000DDF838B001988847054659EA0B0005D040
:101D100009E0A1690198761C88470546216A284692
:101D200088470028F5D1681C03D05FEACA7005D047
:101D300015E04FF0FF3004B0BDE8F09F2068011DB2
:101D40002160D0F800800AE05FEACA7001D108F88B
:101D5000015BA169761C01987F1E88470546002F0C
:101D60001ADD681C18D0B9F1000F0DD0E81705EB8B
:101D7000D060421120F01F0059F822102A1A0120C9
:101D800090400142E0D107E0BBF1000FDCD12846D2
:101D9000216A88470028D7D0E16901988847BBF1BC
:101DA000000F07D1002E05DD5FEACA7002D10021C5
:101DB00088F80010A068B84203DDBBF1000F03D023
:101DC00017B16FF00100B6E73046B4E70B460146A5
:101DD000184600F03BBE40EA010310B59B070FD147
:101DE000042A0DD310C808C9121F9C42F8D020BA8B
:101DF00019BA884201D9012010BD4FF0FF3010BD43
:101E00001AB1D30703D0521C07E0002010BD10F810
:101E1000013B11F8014B1B1B07D110F8013B11F8D6
:101E2000014B1B1B01D1921EF1D1184610BD10B5FC
:101E3000431C02E010F8011B71B18107FAD14FF089
:101E4000013202C88C1A8C4314EAC211F9D0C01AAC
:101E50000A0603D0C01E10BDC01A10BD0A0401D06E
:101E6000801E10BD0902FCD0401E10BD032A40F2A6
:101E7000308010F0030C00F0158011F8013BBCF12C
:101E8000020F624498BF11F801CB00F8013B38BF44
:101E900011F8013BA2F1040298BF00F801CB38BF52
:101EA00000F8013B11F0030300F06780083AC0F02E
:101EB000088051F8043B083A51F804CBA0E8081018
:101EC000F5E7121D5CBF51F8043B40F8043BAFF34B
:101ED0000080D20724BF11F8013B11F801CB48BFA5
:101EE00011F8012B24BF00F8013B00F801CB48BFDB
:101EF00000F8012B7047431A28BF9A427FF6B6AF0D
:101F000010441144032A40F2268010F0030F1EBF34
:101F100011F8013D521E00F8013D10F0030F7FF44F
:101F2000F6AF11F0030300F06D80083AC0F00B80AB
:101F300051F8043D083A51F804CD40F8043D40F80A
:101F400004CDFFF7F3BF121D5CBF51F8043D40F80C
:101F5000043DAFF30080D20724BF11F8013D11F812
:101F600001CD48BF11F8012C24BF00F8013D00F855
:101F700001CD48BF00F8012C704710B5203AC0F0E1
:101F80000B80B1E81850A0E81850B1E81850A0E84C
:101F90001850203ABFF4F5AF5FEA027C24BFB1E8E5
:101FA0001850A0E8185044BF18C918C0BDE8104028
:101FB0005FEA827C24BF51F8043B40F8043B08BF31
:101FC0007047D20728BF31F8023B48BF11F8012BF8
:101FD00028BF20F8023B48BF00F8012B7047431A86
:101FE00028BF9A427FF6C9AF1044114410F0030F86
:101FF0001EBF11F8013D521E00F8013D10F0030F05
:102000007FF4F6AF103AC0F00A8010B531E91850ED
:1020100020E91850103ABFF4F9AFBDE8104053075B
:1020200024BF31E9081020E9081044BF51F8043DED
:1020300040F8043D12F0030F08BF7047D20728BFD5
:1020400031F8023D48BF11F8012C28BF20F8023DAD
:1020500048BF00F8012C704702F0FF0343EA032257
:1020600042EA024200F00AB802F0FF0343EA032208
:1020700042EA024200F024B84FF000020429C0F006
:10208000128010F0030C00F01B80CCF1040CBCF1AA
:10209000020F18BF00F8012BA8BF20F8022BA1EBFC
:1020A0000C0100F00DB85FEAC17C24BF00F8012BE1
:1020B00000F8012B48BF00F8012B70474FF00002D9
:1020C00000B5134694469646203922BFA0E80C502E
:1020D000A0E80C50B1F12001BFF4F7AF090728BF09
:1020E000A0E80C5048BF0CC05DF804EB890028BF85
:1020F00040F8042B08BF704748BF20F8022B11F0AE
:10210000804F18BF00F8012B70470000000000004E
:1021100030B44FF0013C50F8042B51F8043BCCFA9A
:1021200052F4D51A20D1FCB950F8042B51F8043BD5
:10213000CCFA52F4D51A17D1B4B950F8042B51F88F
:10214000043BCCFA52F4D51A0ED16CB950F8042BDA
:1021500051F8043BCCFA52F4D51A05D1002CDAD050
:1021600030BC4FF00000704729BAB1FA81F111F08C
:102170001801D1F120008440F2D1CA40CB4012F0C6
:10218000FF0213F0FF0330BCD01A7047704770474E
:102190007047000008487CB57844009007487844B0
:1021A000009C0546019004E02046016808448047F1
:1021B000241DAC42F8D17CBD18950400169504008E
:1021C00010B5FFF779F9083010BD704770477047B8
:1021D000704738B504460A4600206946AFF30080D0
:1021E000002808BF38BD02460099204600F07AFC5E
:1021F000012038BD012001F0ECB8F8B5AFF3008044
:10220000054600200C460C2000BF0646A819A04237
:102210000DD9324669460020AFF30080070008BFA1
:1022200001F0D7F80098A04218BF0546C419FFF77F
:10223000C7FF05600746F01D20F007004619284635
:1022400000F040FCB44208BFF8BDA21B314638681C
:10225000BDE8F84000F046BC0844401E491E8843D3
:1022600070470821001DF7E72DE9F04117460E469B
:102270000446FFF7F6FFA042054633D9002F1CBFE6
:1022800006F10800AFF3008030467468F4B12168AD
:10229000A94217D305F1080291423CBF6168416031
:1022A00007D3626861194A602268521B0A60416064
:1022B0002560002F1CBF06F10800AFF30080201D31
:1022C000BDE8F08120466468002CE0D12946304604
:1022D000FFF77FFF0028D7D1002F1CBF06F10800B1
:1022E000AFF300800020BDE8F08110B50446FFF791
:1022F00067FF01682046BDE810400122B4E70844AA
:10230000401E491E884370470821001DF7E72DE94C
:10231000F04791460C468046FFF752FF0668604240
:1023200034EA000001D1042C02D20520BDE8F08778
:10233000601E40F007074846FFF7E6FF48450546A0
:102340009CBF0620BDE8F08706F10800AFF30080CF
:1023500074683046002C2FD02368211D494207EABB
:102360000102934224D9991A8D4221D84AB12146BB
:1023700014440B689B1A23604B6863600A604160D9
:102380000846226805F108018A4205D36119521BEB
:102390000A602560416008466168416006F10800F6
:1023A000AFF30080241D0020C8F80040BDE8F0878E
:1023B00020466468002CCFD129463046FFF709FF3C
:1023C0000028C5D106F10800AFF300800620BDE863
:1023D000F08730B5B0F10A0271F100034FEA900EB8
:1023E0004EEA817EB0EB0E0061EB91014FEA101EC8
:1023F0004EEA017E10EB0E0041EB11114FEA102E58
:102400004EEA016E10EB0E0041EB11214FEA104E27
:102410004EEA014E10EB0E0041EB1141401841F124
:1024200000014FEAD00040EA41704FEAD1014FEA83
:10243000810444EA907410EB800544EB01046D19AB
:1024400044EB0404521BA3414FF0000348BF0A327F
:1024500000D530BD401C41F1000130BD0B460146A6
:10246000184601F017BD2DE9F0470D4699469246F2
:10247000044600F124080168880604D5E06921F0CB
:102480001001216000E00120A84201DD471B00E0AF
:102490000027A1697A1902EB0900081AA0612078C7
:1024A000C00602D42046FFF785F9002608E0D4E9EB
:1024B00001211AF806009047206A401C761C206211
:1024C0004E45F4DB2078C0060AD52046FFF772F9A6
:1024D00006E0D4E9012130209047206A401C2062A8
:1024E000381EA7F10107F4DC07E0D4E9012118F850
:1024F00005009047206A401C2062281EA5F10105B6
:10250000F3DC2046FFF76CF92078000602D50220A4
:10251000BDE8F0870120FBE72DE9FF4F0C461E4682
:102520004FF0FF378BB0D2E90001DDF860800A90F0
:102530008A46C1F30A5505B93D46002108464FF0C9
:102540000000BAF1000F00F4400005DA00EB800053
:102550004FF4400101EA50004FEA9059B9F1010FE0
:1025600000DDB9460A9850EA4A000ED044F61050F1
:10257000A5F2FF3545432F14B8F1000F1ED0754268
:10258000291E1EDDC9F100021CE0B8F1010F4FF059
:10259000000001D0302103E0F24305E02154401C4B
:1025A000B042FBDB30460022002121540B99C1F8D8
:1025B0000880C1E900200FB0BDE8F08FBD1B6D1C85
:1025C000DEE74A4600DA694206A800F06DFD06AB78
:1025D00093E8070003AB83E8070050460A992EF002
:1025E00035F88DE80700A0F500501F3800900398DB
:1025F000002D0ADD42F21F014A460844002303A9C8
:10260000039068462EF09EFA09E0A0F500504A4675
:102610001F38002303A9039068462EF0A8FA8DE81E
:1026200007000004000C03D04FF0FF30410800E029
:102630001046B8F1000F03D00022009215461EE0AC
:10264000751E05D4FFF7C5FE303262556D1EF9D5F3
:10265000B3460122084302D000227F1C04E0207808
:10266000302801D100227F1E002A099784D01DE066
:10267000112D07DAFFF7ADFE303262556D1C50EABE
:102680000102F5D1084302D00098C8B10EE0002144
:10269000681E05E0235C625C63542254401E491CA2
:1026A0008142F7DBAB46A81B401E0990002004F8CE
:1026B0000B000B98099AC0F80880C0E9002B7AE754
:1026C00011264FF0000857E72DE9F04F88460446E1
:1026D000D21D22F0070191B0D1E90001CDE90A0134
:1026E00030F078FA02460B98C00F01D02D2007E099
:1026F0002068810701D52B2002E0202101EAC000DB
:10270000032A099001D0072A05DB034641462046EB
:1027100000F03AFA0BE12078800601D5E06900E08C
:102720000620B8F1650F814606D0B8F1660F18D0C3
:10273000B8F1670F70D131E00020B9F1110F0090AE
:1027400001DB112301E009F101030AAA01A90CA888
:10275000FFF7E2FEDDE90C70002609F10105834672
:1027600047E001204B4600904FF000470AAA01A91C
:102770000CA8FFF7D1FEDDE90DB00C995D460026EF
:1027800010B909F101000D18B9EB050003D4C0F12F
:10279000FF3609F10105A5EB09002BE0B9F1010FA6
:1027A00001DA4FF001090020B9F1110F00904846FD
:1027B00001DD112300E003460AAA01A90CA8FFF7D6
:1027C000ABFEDDE90C704D460026834620780007FD
:1027D0000AD4AB4500DA5D4601A8012D04DD41199C
:1027E00011F8011C302907D04F4502DA17F1040F08
:1027F00004DA012082460FE06D1EEEE7002F02DCB6
:10280000ED1B3E4403E0781CA84200DD7D1CB81B94
:1028100000F1010A4FF000472078000703D4AA45D1
:1028200001DB4FF0FF3A0021B7F1004F0DF14308F3
:102830008DF8431024D002202B23002F01DA7F4291
:102840002D230A21021EA0F1010000DC5FB197FBDD
:10285000F1FC97FBF1F201FB1C7C17460CF1300CEC
:1028600008F801CDEEE7A8F1010003702188090501
:1028700001D5452100E06521A0F1010800F8011C07
:1028800009980FA9A1EB0807FF1D00B1012041190C
:1028900001EBEA70A1693844081A401EA061207853
:1028A000C00602D42046FEF785FF099828B1D4E976
:1028B00001219047206A401C20622078C00622D562
:1028C0002046FEF777FF1EE0002E04DBB34502DD55
:1028D00001A8805D00E03020D4E901219047206A02
:1028E000401C2062761CAAF101005FEA000A0AD1AE
:1028F00000F0DEF8C0680168405CD4E9012190472F
:10290000206A401C2062281EA5F10105DCDC07E0DE
:10291000D4E9012118F8010B9047206A401C20627D
:10292000381EA7F10107F3DC2046FEF759FF03200C
:1029300011B041E601694A1C02610878704700B590
:102940008FB0CDE901310021059105497944CDE9E8
:10295000031011466846FFF741F80FB000BD0000B4
:10296000E5FFFFFF0A6802F8010B0A607047D1E932
:1029700000239A4202D2531C0B601070704710B5AE
:10298000436913B1AFF3008001E0FEF73AFF012085
:1029900010BD127800F124010A7000224A70012251
:1029A000EDE711684FF0FF32E9E73A2800D23038FE
:1029B00020F02002412A01D3A2F13700884201D33E
:1029C0004FF0FF3070470000026811441378016037
:1029D00018467047D16005497944516104497944EA
:1029E000116200211161114600F0A4B9EDFFFFFF53
:1029F00047010000426842B1016811F8013B23B170
:102A0000521EC0E90012184670470121C160881E9D
:102A1000704742685AB1C368016843B983688B4202
:102A200005D0491E521CC0E90012002070474FF02B
:102A3000FF30704710B5002000F0C4FCFDF7D7FB55
:102A4000BDE81040012000F025B800002DE9F0415C
:102A5000074615460E461020FFF747FC040013D02A
:102A60006760C4E902650948AFF3008000F025F80B
:102A70000168216006490460002008600348AFF344
:102A800000800020BDE8F0810120FBE7FC0400107D
:102A9000F804001001491820ABBEFEE72600020032
:102AA00010B500F005F8001D10BD00BF9DDA030051
:102AB00010B5FEF701FD203010BD10B5FEF7FCFC8F
:102AC000383010BD002140F8041B40F8041B11F001
:102AD000DCBA0C207047801A0844401E491E884307
:102AE0001044704770B5144605468C464368002B69
:102AF00018BF634538BF1846F8D3026810446045D4
:102B000008D06646604604220821FFF7E4FF811BD7
:102B10008446641A2946CCF80040BDE87040002283
:102B20000CF10400FEF7E1BC10B50446FFF7B8FF56
:102B30000068005D00F0010010BD09684A0501D57C
:102B400040B27047C905FCD500B2704709684A0514
:102B500001D5C0B27047C905FCD580B27047116875
:102B60000268006A530501D508700AE0D30501D553
:102B7000088006E0130603D5C217C1E9000200E091
:102B800008600120704700002DE9F0411F4604460F
:102B900003260168072A01F4006004DB08B116A5CA
:102BA00005E016A503E008B115A500E015A521F084
:102BB00010002060A069C01EA0610FB1401EA0617E
:102BC0002046FEF7F7FD4FB1D4E901213846904782
:102BD000206A401C2062C01C206206E0206AFAE7DE
:102BE000D4E9012115F8010B9047761EF8D2204652
:102BF000FEF7F6FDBDE8F0814E414E006E616E00BD
:102C0000494E4600696E66002DE9FF5F15468A460B
:102C10000446DFF8AC80F8440027D8E900103E46AF
:102C2000CDE9001010E03AF816106A4602A800F04C
:102C300091FE411C07D02178890603D5E269391835
:102C400091420DD80744761C2078800602D5E069B1
:102C5000B84205DDAE42E6DB3AF816000028E2D1C4
:102C6000A069C01BA0612046FEF7A4FDD8E90010B2
:102C7000CDE90010002017E03AF818106A4602A8C3
:102C800000F068FEB0F1FF3F81460BD000250DF14A
:102C9000080B05E0D4E901211BF8050090476D1CE5
:102CA0004D45F7D308F10100B0428046E4DB206ACD
:102CB000384420622046FEF793FDBDE8FF9F0000E8
:102CC0000AEA030030B4002100F1240408E002F015
:102CD0000705D208303542EA4372DB086554491CC7
:102CE00052EA0305F3D10468002310A2250708D592
:102CF00004F020040C4304D0C46901230CA2641E18
:102D0000C46130BCFFF7AFBB10B504462146106864
:102D1000FFF71CFF02462046BDE810400023D1E724
:102D2000D21D22F00701D1E90023CBE7000000000B
:102D3000300000002DE9F34F4FF0000A0C465646D4
:102D40008DB001200C9001F10C000B9062690B9882
:102D500001219047051E2DD0252D2CD0216A8847B2
:102D6000C0B162690B9801219047216A8847002809
:102D7000F7D16269411E0B98904700E0761CA1696B
:102D80000D988847216A88470028F7D1E1690D9896
:102D90008847DBE7A1690D988847A842074601D11B
:102DA000761CD3E7E1690D9888477F1C02D1BAF100
:102DB000000F6FD06BE162690B9800273D463946E2
:102DC00090472A2804D162690B9801219047012578
:102DD000DFF8D08262690B9801219047A0F13001A1
:102DE0000A290AD24745E5DC07EB870100EB4107DA
:102DF000303FDFD445F01005ECE7E90601D46FF071
:102E000000476C280AD04C2814D0682815D06A28AE
:102E10000DD074281CD07A281AD01DE062690B9856
:102E2000012190476C2802D045F0040514E045F0DC
:102E300002050DE045F020050AE062690B980121CA
:102E40009047682802D045F0080505E045F4006584
:102E500062690B9801219047C4E9015765283DD06C
:102E600019DC58287AD00CDC452837D004DC25281A
:102E700026D041289ED131E046282FD0472899D12D
:102E80002CE05B2877D0612828D063287CD0642888
:102E900023D15AE0F6E06F2848D008DC66281DD020
:102EA00067281BD0692821D06E2816D127E070280A
:102EB00045D0732868D0752847D078280DD14DE0CB
:102EC000A1690D988847252805463FF469AFE16957
:102ED0000D9888476D1C3FF46AAFD8E00D992346E2
:102EE0006A466FF00100AFF30080C5E045F0400096
:102EF00023464FF000026060A80736D43EE0E807A2
:102F00007FF447AF2068011D21600068290501D5C5
:102F100006701BE7290701D5068017E7A90703D527
:102F2000F117C0E9006111E706600FE745F04000C6
:102F300023464FF008026060A80716D41EE040F652
:102F40000E0125EA0100606016E045F040002346CE
:102F50004FF00A026060A80707D40FE045F0400078
:102F60006060A80708D5234610220D996FF0010074
:102F7000AFF3008080E007E0102223460D996FF048
:102F80000100FEF70DFE77E04FF0000963284F4681
:102F9000C8464B46CB4602D05B2806D038E0E80650
:102FA00001D40120A060012732E06269D4F80CB09E
:102FB0000B98012190475E2807D14FF0010949463F
:102FC0006269D4F80CB00B989047216939B9002197
:102FD0000A4603AB43F82120491C0829FADBD8B381
:102FE000216949B308F1010862690B9801219047F2
:102FF0005D28F4D1B9F1000F09D0002003A951F8E0
:103000002020D24341F82020401C0828F7DB03ABE6
:103010002069002820794FEA40701ED05B46224686
:10302000CDF80080CDE901970D9900286FF00100DF
:1030300020DAAFF300801FE0C11703AA00EBD161D3
:103040004B1121F01F0102EB8302411A136801208A
:10305000884003431360C7E719E00D992246002812
:103060006FF00100009702DAAFF3008004E0FEF792
:103070003DFE01E0AFF3008000280ADA401C06D1D3
:103080000C9820B14FF0FF300FB0BDE8F08F5046E4
:10309000FAE7E90701D10AF1010A064400200C9081
:1030A00054E60000CCCCCC0C2DE9F0478146164606
:1030B0008AB0354878440DC88DE80D003248784410
:1030C000801C03AC0DC884E80D0041F69B30084419
:1030D000372190FBF1F290FBF1F5A5F1800501FBA2
:1030E00012041B3C02D56442012000E00020DFF8FE
:1030F00098A080460027FA44AAF1BE0A0EE0E00735
:103100000AD03246684607EB470101230AEB8101EA
:103110002DF02DFD8DE8070064107F1C002CEED1F2
:10312000194F7F44AE3F19E0E80715D007EB0410B4
:103130000DF1180A90E80E008AE80E00C068F0420F
:1031400001D1981908903246012306A903A82DF051
:103150000EFD03AB83E807006D10641C002DE3D166
:103160004FF0010332466946B8F1000F03A802D0C0
:103170002DF0E8FC01E02DF0FAFCC9E90001C9F8E6
:1031800008200AB0BDE8F087F0E5030010B56548F7
:103190005421FEF793FF64485421FEF78FFF6348E4
:1031A0005421FEF78BFF62485E49624A624B016020
:1031B0005D4810605D4A1A60431C0B65511C016537
:1031C0000120106557484C3010F05FFF56484C30D6
:1031D00010F05BFF55484C3010F057FF574810F087
:1031E00054FF58484F4A56A1784400F067FB20B975
:1031F000544878440A3800F0F7FB54484A4A52A130
:10320000784400F05BFB20B9504878440A3800F05D
:10321000EBFB4F48454A4CA1784400F04FFB20B9E6
:103220004B4878440A3800F0DFFB40233D48DC007F
:103230000021224600F0B4FA20B1424878445438C4
:1032400000F0D2FB384822464023002100F0A8FAC3
:1032500020B13E487844543800F0C6FB334822463B
:103260001023002100F09CFA002806D0384878444A
:10327000BDE81040563800F0B7BB10BD2B482DE913
:10328000F041006D2D4E20F001043046AFF3008078
:10329000244D4C352846AFF30080224800F05AFAFE
:1032A0002846AFF300802846AFF300801E4D4C3512
:1032B0002846AFF300801C4800F04CFA2846AFF3D4
:1032C00000802846AFF30080184D4C352846AFF3F8
:1032D0000080164800F03EFA2846AFF300802846EA
:1032E000AFF3008014E0206D20F0010504F14C00E4
:1032F0000746AFF30080204600F02CFA3846AFF3C3
:1033000000803846AFF300802046FEF71FF92C46B8
:10331000002CE8D13046AFF300800848AFF30080BE
:10332000BDE8F08178410010CC410010204200102F
:10333000EC040010F0040010F4040010000500106C
:1033400072000000D4E4030077000000C0E4030032
:10335000ACE403002DE9F84306461548AFF30080BE
:10336000FFF7ABFB134F8146E8464D4616E026B10A
:10337000E068B04201D0254610E0206828600C4883
:10338000C7F80080AFF30080D4E9010188470848FE
:10339000AFF300803968414500D04D462C68002CC1
:1033A000E5D1002038600248AFF30080BDE8F88323
:1033B000FC040010F8040010014810F066BE000084
:1033C000FC04001010B500F0F7FABDE8104000F062
:1033D000EEBA10B500F010FBBDE8104000F0E7BAFF
:1033E00070477546FEF768F8AE46050069465346D5
:1033F00020F00700854618B020B5FDF7D7F8BDE8E6
:1034000020404FF000064FF000074FF000084FF04B
:10341000000BAC46ACE8C009ACE8C009ACE8C00998
:10342000ACE8C00921F007018D4670472DE9F04F47
:1034300004460D46D21D22F0070089B0D0E900975E
:10344000484639462FF0C6FB0246F80F01D02D231F
:1034500007E02068810701D52B2302E0202101EA43
:10346000C0038DF820300BB1012000E00020032ABA
:10347000824601D0072A04DB29462046FFF784FB59
:103480003FE12078800601D40D2500E0E569C7F30F
:103490000A560D2D49DA00214FEA175B08464FF016
:1034A0000000002F00F4400007DA00EB80004FF42A
:1034B000400100EBD07001EA60008115012901DDB7
:1034C0004FF0FF3100224FEA850CBCF1180F06D3F4
:1034D0001346ACF118004FF08052C24003E04FF4A5
:1034E000801323FA0CF30CF10C0CBCF1200F04D365
:1034F000ACF1200C09FA0CF001E007FA0CF00029FD
:103500004FF0004801DD18B90FE00ED140450CD353
:1035100019EB02095F4121B9404502D19F4329EAD5
:103520000209BBEB175F00D0761C2088000502D58E
:103530007B48784402E07A487844193808AA302356
:1035400002F80A30037C0AF10101002E0AF1020A96
:1035500053546A4602DC4FF0300101E04FF0310174
:103560004FF001088DF8001002D0A6F2FF3603E0FC
:1035700059EA470100D06B4E002D02DC2178090783
:1035800004D54FF002082E218DF80110C446002109
:103590000BE0C7F303433F01C35C491C6D1E02F8F7
:1035A0000830052908F1010801DA002DF1DC0021BD
:1035B0000CE000EB1973491C1B786D1E082902F8FA
:1035C00008304FEA091908F1010801DA002DF0DC92
:1035D00021688B0602D516E0A8F10108E04505DD5B
:1035E00002EB080313F8013C302BF5D0B8F1000FC3
:1035F00009DD02EB080313F8013C2E2B03D1090768
:1036000001D4A8F10108002D05DD3E2102F80810C3
:103610006D1E08F10108407C002E02F8080008F138
:10362000010804DA2D20764202F8080002E02B207F
:1036300002F808000A214FF47A70864208F1010866
:103640000BDB96FBF0F3303302F8083096FBF0F317
:1036500008F1010800FB136601E0642E0CDB642016
:1036600096FBF0F3303302F8083096FBF0F308F1E4
:10367000010800FB136601E00A2E06DB96FBF1F061
:10368000303002F8080008F1010896FBF1F001FB68
:103690001060303002F80800A16908F1010808EB59
:1036A000050202EB0A00081AA0612078C00602D4C5
:1036B0002046FEF77FF8216A08AE01EB0A0020627F
:1036C00004E0D4E9012116F8010B9047BAF1010A90
:1036D000F7D22078C00602D52046FEF76BF86E467A
:1036E00009E016F8010B3E280FD0D4E901219047DC
:1036F000206A401C2062B8F10108F2D22046FEF791
:103700006FF809B00320BDE8F08F206A28442062DA
:1037100003E0D4E90121302090476D1EEBD3F8E798
:10372000A9E1030002FCFFFF10B5436913B1AFF339
:10373000008001E0FFF768FA012010BD128800F157
:10374000240182840022C2840122EDE711684FF037
:10375000FF32E9E72DE9F04704464FF0FF38002635
:10376000C568D4E90497A80718D0204600F01AFBD2
:10377000384610F08CFC002800DA4646280502D5B1
:103780004846FDF7E3FE4C212046FEF797FC206DEE
:1037900020F0010020653046BDE8F0874046FBE799
:1037A0002DE9F04704461E4690460D46C7684C304A
:1037B0008146AFF30080B80714D0780212D4404697
:1037C000B8F5807F09D0B0F5007F06D0B8F5806FDE
:1037D00008D1012604F1240506E0701E6FF07F4138
:1037E000884201D3012409E02561E6616560E06853
:1037F00020F4706040EA0800E06000244846AFF31F
:1038000000802046BDE8F0872DE9F047164688463F
:10381000070010D006F14C008146AFF3008030461F
:10382000FFF798FF18F8010B61280DD0722805D01A
:10383000772841D105E00020BDE8F087012500246C
:1038400005E00225042402E0082448F2020518F8E5
:10385000010B2B2806D0622809D018F8010C742817
:103860000AD00BE045F0030544F00204EFE745F011
:10387000040544F00104EAE744F010043846214608
:1038800010F00CFC411C17D00021316171604FF425
:103890000071F560F1617061200704D530460222A5
:1038A000002100F0C3F9306D40F00100306548465A
:1038B000AFF300803046BFE70026F8E72DE9F0417E
:1038C00015460E460746214C2046AFF300802A4697
:1038D00031463846FFF798FF05462046AFF3008093
:1038E0002846BDE8F0812DE9F0410E468046174D8F
:1038F0002846AFF30080164C206DC10704D0410864
:1039000004D020F00104F7E7224612E05420FEF72D
:10391000ECFC070017D0206D47F00101084354214B
:1039200020653846FEF7CAFB07F14C0010F0ADFBEE
:103930003A4631464046FFF767FF04462846AFF354
:1039400000802046CDE70024F8E7000000050010C5
:10395000784100102DE9F04116460C460546FFF768
:103960009FF8036893F80101012807D0FF2C12D8B3
:10397000185D80B101202C70BDE8F081D3F80701FB
:103980003246214603F20713C7182846BC46BDE855
:10399000F041002360474FF0FF30EDE710B50446DB
:1039A000AFF300802046BDE81040FCF712BD0028B0
:1039B00001D0FFF76FB8704710B5002102A000F0EA
:1039C00035FA012010BD0000534947414252543A94
:1039D0002041626E6F726D616C207465726D696EEC
:1039E0006174696F6E00000010B500F039FABDE82F
:1039F0001040FFF7DCBF000010B5012805D0002102
:103A000003A000F013FA012010BD09A1F8E700009F
:103A100053494752544D454D3A204F7574206F66B7
:103A20002068656170206D656D6F7279000000001F
:103A30003A2048656170206D656D6F727920636F03
:103A400072727570746564002DE9F05F0546174663
:103A50000C46C86820F4201040F48000C86080063E
:103A600002D5084600F0C1F9E06841F282014FF04A
:103A7000FF3A0140022903D0204600F053F9B9E093
:103A800000F42041B1F5004F0FD1C00306D56168A5
:103A9000E06A884200D80846606006E02069E0627B
:103AA0006060606910F0F5FAA061A0680022EEB2D3
:103AB00000280DDAE1688B050AD4C043A06041F408
:103AC00090302260E0606068411C61600670AAE08E
:103AD000E0689146226040F40050E060206978BBC5
:103AE000606910F0D9FA04F124054FF00108A8B17B
:103AF000A08910F4407F08D0E069FEF7F6FB206152
:103B000018B1E06840F4006017E0C4F81C8025613B
:103B1000E06820F4407040F480600EE0E069FEF759
:103B2000E4FB00282061F0D0E06840F4006010F46D
:103B3000407FE06002D140F48070E0602069606006
:103B4000E06825696FF0010BC1051ED56168E06A68
:103B5000884200D80846411B04D02246284600F07F
:103B6000EBF8E8BB1FB1E562C4E9015959E0681CF4
:103B7000E0626060E069401EA060E06840F4803070
:103B8000E06030462E70BDE8F09F17B100F480323F
:103B90000AE06068411C61600670E0680A2E40F42B
:103BA0008030E06006D00022E16A6068814203D97B
:103BB0000B4602E00122F7E70346B4F80CC05B1B9A
:103BC0005FEA4C5C04D4D4F81CC09C4500DD02B311
:103BD000814200D80146002BA1EB0008E56200E01D
:103BE00008E0C4E9015907DD22461946284600F0DD
:103BF000A3F808B15046C6E7B8F1000F09D0A16993
:103C0000E5626560A1EB0800A061E06840F010008B
:103C1000E06047B16168A069E562491B08446560DE
:103C2000A0615846AFE73046ADE700002DE9F0410E
:103C3000044616460D464769007B80072ED038465D
:103C400010F02AFA50BB3EB3012E02D0022E25D12D
:103C500004E0204600F03EF905441DE0384610F02F
:103C600018FAE168002841F01001E16005DA204609
:103C700000F058F80120BDE8F081C9030BD5626857
:103C8000E16A914200D81146A26911442269891A59
:103C9000814200DD08460544002D01DA0220EAE7F2
:103CA000E16A6068E268814206D29103E06203D56E
:103CB00022F4003141F01002A6690027AE4213DC65
:103CC000E16A814201D90B4600E0034603EB060C92
:103CD0002369ACEB030CAC4506DD814201D98C466F
:103CE00000E084469C4505D1A760276042F0200093
:103CF000A5620DE0AD1BE669AE1B8142A66000D94E
:103D00000846C01A281A20605819606022F0200066
:103D100003490840E060002084F84870ABE70000E9
:103D2000BFCFD7FFC16821F4001141F08001C1600D
:103D300000218160016070472DE9F74F15460C4660
:103D40004FF0FF3B3848D768D2F814A0074209D09B
:103D50005046A96910F0A4F9002819DB3248C04385
:103D60000740EF604FF000496FF000484C4501D329
:103D7000464600E0264600993B465046324610F043
:103D800092F9A96920F00042B21A1144A96128B140
:103D90002846FFF7C7FF5846BDE8FE8FA41BE5D1B4
:103DA0000020F9E770B504460569C06A6168884279
:103DB00000D80846E16821F42011E160C90312D55A
:103DC000A84208D02246411B2846FFF7B5FF10B194
:103DD0004FF0FF3070BD0020E562C4E90150E0689B
:103DE00020F48030E060002070BD10B50446C0684B
:103DF00020F02000E060A16AA06988420DD0204632
:103E0000FFF7D0FFE06820F4405040F01000E06081
:103E1000A06AA0612069E062606044F24001E0684D
:103E20008843E06010BD00001000020070B5054638
:103E30000C460A2000E06D1C10F037F935B12878E7
:103E40000028F8D102E0641C10F02FF914B120789A
:103E50000028F8D1BDE870400A2010F026B9000013
:103E600010B5014602A0FFF7E1FF012010BD0000E0
:103E700053494752545245443A2052656469726529
:103E800063743A2063616E2774206F70656E3A2008
:103E9000000000002DE9F04114460D46074601F1EF
:103EA0004C063046AFF30080094B7B44224629463E
:103EB0003846FEF744FD0446287B000601D54FF046
:103EC000FF343046AFF300802046BDE8F0810000AB
:103ED00033F4020010B50146C268900703D0900683
:103EE00007D5886A0AE0FCF789F901210160881E7C
:103EF00010BD8B69486818440B69C01A91F84830A6
:103F00001BB191F84910401A10BD1103FCD50028CF
:103F1000FADD401E10BD04207146084202D0EFF3C6
:103F2000098001E0EFF30880816901F0FAB80A2006
:103F300026F037BE04207146084202D0EFF3098014
:103F400001E0EFF30880816901F0EFB810B545F2A8
:103F5000E062C1F2000213688C4693F84E10D3E978
:103F6000092E0029014609D0187B98244843135C88
:103F700013FB04E393F85F3013B110BD187B484383
:103F8000105C982210FB02E06246BDE8104002F08F
:103F900045BB00002DE9F04F9FB0044645F2E060BC
:103FA0002178C1F20000D0F800B0481E0E288BF82E
:103FB0004D102DD80C94DFE800F01F2B30082B2B70
:103FC0002B2B2B2B082B2B39120004F10C0012F099
:103FD000B6FC0E90A07B00210D9124212FE004F16E
:103FE0000C0012F0ACFC0E9012F0AAFC24220B92F2
:103FF000012201210D9224E004F10C0012F09FFC3B
:1040000000210E90A07B0D9124210B91012118E03D
:10401000FF208BF84D0000F005BC201D12F08FFC36
:104020000E90A07900210D911C2108E004F11C00E4
:1040300012F085FC0E90A07F00210D9134210B9190
:1040400002219BF84D208BF80100FF2A8BF800001D
:104050008BF802008BF84C1000F0E483002800F08D
:10406000058100254FF0010A4FF4B47700244FF08A
:1040700000094FF0000800BF5FFA88F60E9831463D
:1040800012F05BFC817801F0E001202902D10121CE
:1040900006E000BF017901F0E001202918D10321D9
:1040A000415C01390C2913D8DFE801F007121E4CDE
:1040B00012125527353E077A7100DBF834104C2375
:1040C00008FB031208FB03F301F803A073E000BF31
:1040D000DBF834104C2308FB031208FB03F382F8CF
:1040E0003DA001F803A068E0DBF834104C2308FB86
:1040F000031208FB03F303275AE0DBF83410002215
:10410000214400BF8B1801F802A04C32E42A83F846
:104110003D50F7D151E0DBF834104C2308FB03127B
:1041200008FB03F3092743E0DBF83410002249447D
:104130008B1801F802A04C32B2F5987F83F83D50FD
:10414000F6D13AE0DBF834104C2308FB031208FBED
:1041500003F304272CE0DBF8341098224FEA480CD4
:1041600008FB021308FB02F70CF101024FF04C0CA4
:1041700083F83D5002FB0C1302FB0CF201F807A080
:104180004FF4B47701F802A083F83D5015E0DBF856
:1041900034104C2308FB031208FB03F30D2707E040
:1041A000DBF834104C2308FB031208FB03F30C2745
:1041B000CF544FF4B47782F83D509BF84C20DBF895
:1041C0002C10931E08FB0711B3FA83F3012A4FEA60
:1041D000531318BF5A00012A4A7013D0022A40F024
:1041E00021830A7802F0F80202320A70DBF82C1000
:1041F00008FB07F28B5C007803F00F0343EA001022
:104200001BE000BF0D9B027823B10A7016E000BFCF
:10421000000000000B7802F0010203F0F8031A44DA
:104220000A70DBF82C1008FB07F200788B5C00F0BA
:104230001E0003F00F0343EAC000885412F000FE92
:10424000314612F01BFEDBF830104FF42E7208FBE3
:10425000021108F10108C1F84C029BF8010009F5B0
:104260009879804504F1E404FFF406AFDDE90B1012
:1042700000EB010945F2E060C1F20000D0F80080D7
:104280000020002119F80020CBB29A4288BF1346C3
:10429000FF2A00F1010018BF19460428F2D1D8F80E
:1042A0004840481C09F1C405002688F8020000BFF8
:1042B000002700BFE85912F0BBF954F82600384433
:1042C0000437182F80ED000AF4D10136042E05F1D1
:1042D0001805EDD1D8F83C0009F1440108F0D2FCF2
:1042E000D8F8380009F18405294608F0CBFCD8F845
:1042F0004000294608F0C6FCCDF83480D8E91018F3
:104300000DF13C0A00225346002700BF51F8270058
:1043100058F82760002500BF445972515C5104359C
:10432000102DF9D10137042F03F11003EED1002035
:104330004FF07E5158F80020115004301028F9D168
:104340001FED4D1A0AF1100C0026BFEE000A51466F
:10435000D64600BF4FF0FF327346B0EE412A3746D3
:1043600093ED003A103323EE033AB4EE423AF1EE05
:1043700010FAC4BFB0EE432A3A460137042FEFD1FA
:10438000501C00F0B68058F82640B2420FD058F8C2
:1043900022000AEB02120023D558CF58CD50D75037
:1043A000C558E758E550C7500433102BF4D10AEB39
:1043B000061000EB860090ED002A624680EE022A8D
:1043C000334600BF01330AEB031000EB860090ED8B
:1043D000003A58F8237022EE033A0025481990ED70
:1043E000004A501990ED005A23EE044A34EE054A73
:1043F00080ED004A601990ED004A781990ED005A5E
:1044000023EE044A043534EE054A102D80ED004AAF
:10441000E4D1032B02F11002D4D101360EF1140EB7
:104420001031032E0CF1100C94D10AF1200C0AF17A
:1044300030024FF0030E00BF0AEB0E1000EB8E00AF
:1044400090ED001A58F82E6080EE011A614673460E
:104450001F46013B0AEB031000EB8E0090ED002A93
:1044600058F8235021EE022A002000BF141894EDC2
:10447000003A0C1894ED004A22EE033A33EE043A67
:1044800084ED003A341894ED003A2C1894ED004A6B
:1044900022EE033A043033EE043A102884ED003A59
:1044A000E4D1012FA1F11001D2DCBEF1010EACF17B
:1044B000100CA2F11002BFD80021B7EE000A00BF15
:1044C0000AEB011000EB810090ED001A58F8210072
:1044D00080EE011A002200BF831893ED002A0432F7
:1044E00021EE022A102A83ED002AF5D10131042998
:1044F000E6D145F2E068C1F20008D8F80050DDE9E5
:104500000DA7002019F80010FF2903D02A6A1154C2
:10451000EA69115401300428F4D16878E8B1002424
:10452000002600BFE1B2384612F007FA407822F0C8
:10453000F1FF012898BF012019F80420F1B250FAC8
:1045400086F000BF6B6A01365A54F1B28842F9D83E
:10455000697801348C420646E4D3384600210024B1
:1045600012F0EBF9407822F0D5FF012898BF012026
:104570006978AA782873484328704AB1002000BFA0
:10458000A9680C54A97801308842F9D328780C46E0
:10459000000610D0002000BF696AAA68095CAB69F8
:1045A000575C53F821307E1C5654D8552978013079
:1045B0008842F1D3AC784FF0000044B1002100BF35
:1045C0006A685054AA7801319142F9D3104669784B
:1045D00081B10020296A6A68095C6B69575C53F8ED
:1045E00021307E1C5654D855697801308842F1D369
:1045F000A87800E0002140B1002000216A685054F2
:10460000AA7801319142F9D3697879B1002000BFCD
:10461000E9696A68095C2B69575C53F821307E1C94
:104620005654D855697801308842F1D39AF802007F
:10463000A8B309F104040025002600BFA078DAF829
:104640002810C0F3011248198263A1788909C16357
:10465000617801F0030141636178C1F38101016474
:104660006178C1F301114164617889098164A1789D
:1046700001F00301C164A178C1F3810101652178D2
:10468000C1F3400180F85E10211D04F08FFE9AF8FE
:10469000020001369835864204F11004CED3D8F8D2
:1046A000009099F80280B8F1000F56D0D9F828E0B0
:1046B00000234FF0980C4FF42E75012403FB0CE1FE
:1046C00091F8621001292FD0032917D0022941D176
:1046D000D9F80470F95C00293CD0D9F81000D9F859
:1046E000306050F823200021505C013110FB056040
:1046F00080F82642F85C8142F6D32BE0D9F80470AA
:10470000F85C38B3D9F81000D9F8306050F823209D
:10471000002100BF505C013110FB056080F826428B
:10472000F85C8142F6D315E0D9F80470F95C89B1E0
:10473000D9F81010D9F8306051F82320002100BFBB
:10474000505C013110FB056080F82642F85C814224
:10475000F6D300BF01334345B0D1DBF848700120E8
:104760000021B7EE000A00BF57F82120002602EB17
:10477000810300BFB14205D193ED001AB4EE401A97
:1047800004E000BF92ED001AB5EE401AF1EE10FA07
:1047900006F1010618BF0020082E02F10402E9D13B
:1047A00001310429E0D1002818BF00279BF802003E
:1047B0000B97B8B3DDF82C9000250026DBE90A0141
:1047C000DBE904380D91DBF8381000EB050EDBF85F
:1047D00018000C91DBF83C1058F8268050F82600A1
:1047E000DBE90C7A0E91DBE9104CDBE9011253F89E
:1047F0002630CDE900800D980297CDE9030A0C9888
:104800000E9F31443244CDE905047046CDE908C914
:10481000079701F016FB9BF802000136864205F16E
:104820009805CBD31FB0BDE8F08F00002DE9F04F05
:1048300083B045F2E066C1F2000637680446386B83
:104840004FF42E7804FB08000D4604F0B9FD3068E3
:104850002946006B04FB080004F04AFC3068294636
:10486000006B04FB080004F043FC30684FF4B4769E
:10487000C06A05F1500104FB060004F043FCF86A2D
:1048800095F8C61004FB060003F026FBF86A05F154
:10489000A40C04FB060095ED270AD5ED280A9CE838
:1048A0000E10D5F8B460CDE900C603F07DFF386B7B
:1048B0005FFA84F904FB080049462A4600F0C6FF67
:1048C000387B90B34FF04C0A002604FB0AFB4FF0F4
:1048D000000800BF97F84D10042908D1796B604398
:1048E00000FB0A10304405F0EFFDB8B9387B796B56
:1048F000D5F898200BFB001095ED320A304449465C
:1049000001F0A0FB45F2E060C1F20000006895ED07
:10491000330A406B04FB0A0005F0CDFD387B08F13B
:104920000108804506F14C06D4D303B0BDE8F08FF2
:1049300045F2E062C1F2000212684FF42E73126B6E
:1049400000FB032003F0ACBA45F2E063C1F20003C0
:104950001B6800EE101AD3F830C04FF42E7300FB22
:1049600003C001EE102AB8EEC00AF8EEC10A01F049
:104970000FBBF0B581B045F2E066C1F200063268C7
:104980000446106B4FF42E7704FB07000D4604F02D
:1049900017FD30682946006B04FB070001B0BDE835
:1049A000F04004F0A5BB0A4645F2E061C1F2000107
:1049B00009684FF4B473C96A00FB0313C1B2184607
:1049C00001F008B845F2E062C1F2000212684FF44B
:1049D000B473D26A00FB032003F0DEBD10B582B0D1
:1049E00045F2E062C1F2000212684FF4B473D26A79
:1049F00091EC020A00FB0320D1E902C2D1E9043E96
:104A00008C696146CDE900E403F0CEFE02B010BD32
:104A100045F2E061C1F2000109684FF4B472C96A5D
:104A200000FB021004F0FCBC45F2E062C1F200029F
:104A300012684FF4B473D26A00FB032003F0CABFBC
:104A400000F07EB870B545F2E064C1F2000422685F
:104A5000907858B100250026906A284400F0C6FDE1
:104A600022680136907898358642F5D3D06A51781D
:104A700092F84C20BDE8704001F0AEB845F2E0621B
:104A8000C1F2000213680246186B4FF42E7302FB4A
:104A900003000B4611461A4601F0EDB945F2E060FD
:104AA000C1F20000006890F84E00704745F2E062E5
:104AB000C1F2000212684FF4B473D26A00FB032003
:104AC00001F0FEB9F0B581B045F2E067C1F2000730
:104AD00016463A680446106B4FF42E7204FB02002F
:104AE0000D4603F09FF940B138684FF4B471C06AC5
:104AF00004FB0100294603F0F2F946B138684FF48F
:104B0000B471C06A04FB0100D0F89400286101B0C0
:104B1000F0BD000070B545F2E064C1F20004206809
:104B2000817861B100250026806A0D21284405F0B6
:104B3000D1FC20680136817898358E42F4D370BD5F
:104B4000F0B581B02DED048B45F2E060C1F20000BC
:104B50000468002C00F07F8060789FED419A012569
:104B60000026B7EE008A4FF42E77A070257300BFA1
:104B7000606800228555E0698655606A865520691F
:104B800050F826000670206CA16B50F8260051F8F2
:104B9000261000BF9642B0EE490A02F1010208BF9A
:104BA000B0EE480AA0EC010AA1EC010A042AF1D1F6
:104BB000A06C002150F826008E42B0EE490A01F1A7
:104BC000010108BFB0EE480AA0EC010A0829F3D1A0
:104BD000206B06FB070000F016FBA0688555A06956
:104BE00050F8260006700136042EC1D100254FF47E
:104BF000B47600BF206A00224555606950F8250050
:104C00000570606CE16B50F8250051F8251000BF6D
:104C10009542B0EE490A02F1010208BFB0EE480A1F
:104C2000A0EC010AA1EC010A042AF1D1E06A05FB1B
:104C3000060000F088FB0135042DDBD1002500BF04
:104C4000606B284401F0DAF84C35B5F5187FF7D1E0
:104C5000FF2084F84D00BDEC048B01B0F0BD00BF17
:104C600000000000F0B581B045F2E065C1F200053A
:104C70002A68137B8BB10C46516B58434C2200FBC6
:104C800002100026214600F14C0701F07AFC28684A
:104C90000136007B86423846F4D301B0F0BD45F2C0
:104CA000E062C1F2000212684FF4B473D26A00FBF2
:104CB000032004F0AFBB45F2E062C1F200021268CB
:104CC0004FF4B473D26A00FB032005F081BD45F2B6
:104CD000E062C1F2000212684FF4B473D26A00FBC2
:104CE000032005F0A4BF45F2E062C1F200021268A1
:104CF0004FF4B473D26A00FB032003F07FBE45F289
:104D0000E062C1F2000212684FF4B473D26A00FB91
:104D1000032004F0F7B945F2E061C1F2000109682F
:104D20004FF4B472C96A00FB021003F047BD0000E3
:104D3000F0B581B045F2E067C1F200073C680E466D
:104D400005465CB915F012FF04215022012315F02D
:104D500017FF04460028386000F0DF80042026702A
:104D60006570A57000F03CFDA06215F0FFFE042107
:104D70000122042315F004FF606015F0F7FE042102
:104D80000122042315F0FCFEA06015F0EFFE0421C3
:104D90000422042315F0F4FE206115F0E7FE04213F
:104DA0000422042315F0ECFE606115F0DFFE0421FF
:104DB0000422042315F0E4FEA06115F0D7FE0421BF
:104DC0000122042315F0DCFEE06115F0CFFE042182
:104DD0000122042315F0D4FE206215F0C7FE042141
:104DE0000122082315F0CCFE6062042007F014FFB6
:104DF0002063042007F028FFE062082000F07CFF19
:104E0000606315F0B3FE04210422042315F0B8FEFC
:104E1000A06315F0ABFE04210422042315F0B0FEBC
:104E2000206415F0A3FE04210422042315F0A8FE3B
:104E3000E06315F09BFE04210422042315F0A0FE7C
:104E4000606415F093FE04210422042315F098FEFB
:104E50000025A06415F08AFE04210122042315F028
:104E60008FFE216941F8250015F080FE04210422FF
:104E7000042315F085FEA16B41F8250015F076FEA0
:104E800004210422042315F07BFE216C41F8250047
:104E900015F06CFE04210422082315F071FEA16CAC
:104EA00041F825000135042DD4D1002515F05EFE12
:104EB00004210122042315F063FE616941F82500F5
:104EC00015F054FE04210422042315F059FEE16B71
:104ED00041F8250015F04AFE04210422042315F0B0
:104EE0004FFE616C41F825000135042DDED100250F
:104EF00015F03CFE04210122082315F041FEA169B2
:104F000041F825000135042DF2D1002084F84E002F
:104F1000FFF716FE204601B0F0BD0024FAE745F287
:104F2000E062C1F200021268D369926A185C9823A9
:104F300010FB032005F0CEBA45F2E062C1F2000298
:104F40001268D369926A185C982310FB032005F05D
:104F500099BE45F2E061C1F2000109684FF42E727A
:104F6000096B00FB021001F057B945F2E061C1F294
:104F7000000109684FF42E72096B00FB021001F06A
:104F800060B945F2E061C1F2000109684FF42E7288
:104F9000096B00FB021001F082B945F2E061C1F239
:104FA000000109684FF42E72096B00FB021001F03A
:104FB000A5B945F2E061C1F2000109684FF42E7213
:104FC000096B00FB021001F0AEB945F2E061C1F2DD
:104FD000000109684FF42E72096B00FB021001F00A
:104FE000B7B945F2E061C1F20001096881F84E00ED
:104FF000704745F2E061C1F2000109684FF42E727A
:10500000096B00FB021000F094B9000070B545F286
:10501000E064C1F2000421680A7B7AB1496B504315
:105020004C2200FB0210002500F14C0601F0DAFAD8
:1050300020680135007B85423046F5D370BD000005
:10504000F0B581B045F2E066C1F200063268137B2C
:105050008BB10C46516B58434C2200FB02150027C4
:1050600034F82710284601F011F830680137007B2A
:105070004C358742F4D301B0F0BD45F2E061C1F296
:10508000000109684FF42E72096B00FB021005F055
:105090009DBE45F2E061C1F2000109684FF42E7235
:1050A000096B10FB021004F026B845F2E062C1F271
:1050B000000212684FF4B473D26A00FB032004F0BC
:1050C000B2B945F2E062C1F2000212684FF4B47363
:1050D000D26A00FB032005F0CEBE45F2E062C1F2C9
:1050E000000212684FF4B473D26A00FB032003F08D
:1050F000A1BA45F2E062C1F2000212684FF4B47343
:10510000D26A10FB032003F07FBC45F2E062C1F2DB
:10511000000212684FF4B473D26A00FB032005F05A
:10512000A1BD0146082025F054BD0146062025F00A
:1051300050BD0146072025F04CBD0146092025F051
:1051400048BD04207146084202D0EFF3098001E017
:10515000EFF308808169FFF7ECBF052025F021BD42
:105160000B2025F01EBD04207146084202D0EFF34B
:10517000098001E0EFF308808169FFF7DEBF70B5B9
:1051800044F28824C1F2000420464FF4A871FCF7D1
:1051900095FF40F2FF10C0F2023020644FF6FF701E
:1051A0000125A4F8610004F17000902184F85450A6
:1051B000FCF784FF002604F5967084F8286184F8D3
:1051C000296184F82A610DF042FD4FF47A70C4F829
:1051D00038014FF4C8704FF42F716423C4E95001B3
:1051E0004FF6D97040F2000284F83061A4F83251D1
:1051F000C0F60200C0F602022146C4F84831BDE8FC
:105200007040FCF7E3BD2DE9F0474FF0000A04467B
:10521000C0F8C4A0EC30122104F5807504F5B27812
:10522000FCF74CFF28466021FCF748FF404600F0A1
:1052300057FD04F5B879484600F052FD04F5BE76F6
:10524000304600F04DFD04F5C477384600F048FDC7
:1052500004F5CA75284600F043FD4046642105F078
:1052600035FC4846642105F031FC3046642105F0E8
:105270002DFC3846642105F029FC2846642105F000
:1052800025FC404600F0B2FD304600F0AFFD484638
:1052900000F0ACFD384600F0A9FD284600F0A6FD60
:1052A00004F5D07000210022002300F021FE201D13
:1052B00007F0ACFC04F1640007F0A8FC0B2004F537
:1052C0000675A4F808022846A4F824A284F80AA2C5
:1052D00000F006FD04F50376304600F001FD284697
:1052E00041F2883105F0F2FB304641F2883105F099
:1052F000EDFB284600F07AFD304600F077FD04F122
:10530000CC00202184F844A284F846A2A4F848A244
:1053100004F5137584F826A284F8C8A0FCF7CEFE25
:1053200028462421FCF7CAFEFF2084F86C02BDE861
:10533000F08790ED4A0A00F5D070BDEEC00A10EE7D
:10534000101A00F0F4BDB0B54FF4B4710446FCF788
:10535000B5FE4FF07E50606040F20110A4F8F800F6
:105360004BF2B000A4F81401002504F58C7084F809
:10537000FC50C4E94055C4E9425500F0B1FC04F5C5
:105380009E7000F0ADFC04F592701421FCF796FEBF
:105390000020C4F2C8204DF20A7147F2A40204F5BD
:1053A000A873C3F62341C3F67D7227C384F8605106
:1053B000C4F86451B0BD0000B0B52DED0A8B0D46A8
:1053C00091F82410012202FA01F100EE101AB8EE51
:1053D000C00AB7EE008A88EE009A95ED000A95EDB6
:1053E000033AA96995ED011A95ED022A0446016078
:1053F000142120EE09AA29EE030A80ED01AA80ED0E
:10540000040A143029EE02BA29EE01CAFCF756FE4E
:1054100095ED070A95ED081A29EE000A84ED0D0AAC
:1054200029EE010A84ED0E0A9FED200AB2EE041A5D
:105430002BEE000A2AEE011A31EE001A80EE011A54
:1054400028699FED192A6969A06200202CEE022AC2
:10545000B5EE400A9FED163AC4E9141084ED032A14
:10546000F1EE10FA4FF00001B5EE40AA38EE412AF5
:10547000A06584F85C0084ED020A18BF0121F1EEFA
:1054800010FA18BF012020EE020AB0EE432A0840AD
:105490001CBFB0EE412AB0EE403A84ED0B2A84EDF9
:1054A0000C3ABDEC0A8BB0BD6F12033A00007A448F
:1054B0000000000090ED081A90ED033A90ED094AC3
:1054C00030EE015A23EE055A90ED0A3A90ED012A8A
:1054D00035EE044AB4EE434A20EE022AF1EE10FA09
:1054E00080ED094A06DCB1EE433AB4EE434AF1EEF0
:1054F00010FA03DAB0EE434A80ED093A32EE042A9C
:1055000090ED074A90ED0B5A90ED0C6A30EE411A7F
:1055100025EE044A26EE011A90ED003A31EE041A07
:1055200032EE014A90ED142A80ED071A34EE031A88
:10553000B4EE421AF1EE10FA80ED080A02DDB0EE88
:10554000421A08E0B1EE420AB4EE401AF1EE10FA47
:10555000B8BFB0EE401A90F85C10B0EE410A0139C5
:1055600003292ED8DFE801F0021D0B1490ED160A76
:1055700090ED152A9FED193A9FED194A19E090ED2B
:10558000160A90ED152A9FED113A9FED114A10E091
:1055900090ED160A90ED152A9FED123A9FED124AF2
:1055A00007E090ED160A90ED152A9FED0A3A9FED5F
:1055B0000A4A31EE000A20EE030A22EE042A32EEF5
:1055C000000A80ED150A80ED161A70471F4C243B27
:1055D00068B77E3F75B2613B9B3C7E3F72FA183CD8
:1055E0002C387B3F8F90CD3A6F327F3F2DE9F047CB
:1055F000044602F099FC204603F012FE94F85F0086
:1056000020B12046BDE8F04702F0B4B994F8681024
:10561000FF2904D1002084F85F00BDE8F087D4F8AA
:105620000080E26E98F800A047F230539A4218DAF0
:10563000606890F80080501CE066C81E01220B28AC
:1056400084F85F2000F26D80DFE800F00706860630
:10565000067E82768A7A8E72DCE7204605F0C4FCEC
:1056600085E0FE2921D1BAF1000F53D0A16862690B
:1056700000234FF42E7E4FF4B47C5546CE5C16FBCF
:105680000E2696F86C72062F0CD106F51475E66896
:10569000A769F65C686916FB0C76F063A86930644C
:1056A00098F800500133AB42E8D3FF2084F868003B
:1056B0004FF00B080020BAF1000F84F85A8084F8EC
:1056C0005F0025D000274FF42E794FF4B47600BF49
:1056D000D4E90201D4E90523C05D10FB092080F85C
:1056E0000882C85D002110FB063000F0E4FEE0688F
:1056F000A169C05D10FB061000F057FBE068A169CE
:10570000C05D10FB061000F01BFF0137BA45DFD16A
:10571000BDE8F087FF2084F868000B2084F85A0069
:1057200078E7FE297FF476AF204606F051FE1EE0B2
:10573000204606F0A1F91AE0204605F0F9FF16E030
:10574000204606F061F912E0204605F08BFC0EE0E1
:10575000204605F0B7FD0AE0204605F061FC06E0B2
:10576000204606F091F802E0204606F069F900288C
:1057700084F85F0008BFBDE8F087B8F1000F0ED0D5
:1057800000274C262069E169C05D10FB061003F07C
:1057900040FD00283FF43EAF0137B845F2D1FF206D
:1057A00084F86800204602F0BFFB0020BAF1000F29
:1057B00084F85A000DD0A16862694FF42E7300BFBF
:1057C00011F8017BBAF1010A17FB032787F80802D9
:1057D000F6D120460121BDE8F04704F07BBE000071
:1057E0002DE9F04F81B0054615F0C0F9042198224B
:1057F0002B46982615F0C4F904461DB305FB06FB9D
:1058000000264FF00B084FF001094FF0FF0A002768
:10581000E51905F114002021E651C5E90166EE60A5
:10582000FCF74CFC05F134002021C5F85A80FCF748
:1058300045FC9837BB45A5F85E90A5F8616085F8F2
:1058400068A0E5D1204601B0BDE8F08F2DE9F04712
:10585000044690F8FD001546217050B19FED561A90
:105860009FED563A9FED562ADFED560A9FED560AF8
:1058700013E095ED1F1A95ED1E0A95ED202A95ED82
:10588000213AF8EEC10A95ED251AB8EEC00AB8EE35
:10589000C22AB8EEC33AB8EEC11A04F1EC0080ECAB
:1058A000030A49F2806084ED400AC4ED410A84EDA8
:1058B000422A84ED433AC4F6183095ED222AC4F802
:1058C000F800D5F89000B7EE003AD5F88C10DFED6F
:1058D000401A83EE023AC4F85401B5EE402A04F5AA
:1058E000D070C4F85C1184ED562A9FED384AF1EE71
:1058F00010FA08BFB0EE443A84ED583A03F0ADFD1B
:10590000B5F8BC1004F5BE79484605F0DFF8B5F8E7
:10591000BE1004F5CA78404605F0D8F8B5F8C010B6
:1059200004F5C47A504605F0D1F8B5F8C21004F574
:10593000B877384605F0CAF8B5F8C41004F5B27661
:10594000304605F0C3F8484600F050FA384600F0FB
:105950004DFA504600F04AFA404600F047FA304609
:1059600000F044FA002095F8D410C4F86001D5F88E
:10597000D000C4F8C40084F8C810D9B1D5F8E0103C
:10598000D5E93602C4F8D410C4E93302D5F8EC10D6
:10599000D5E93902C4F8E010C4E93602D5E93C0182
:1059A000C4F8E40004F51C70C4F8E810BDE8F04742
:1059B00009F0B1BDBDE8F087000080465575D846B6
:1059C0005575D8C65555D5465555D5C60000000065
:1059D0008096184B70B588B081700446106D4FF0FA
:1059E000FF31606092F865001546C0F340002074F6
:1059F000506DB0F1FF3FC8BF0121616592ED1A0AF9
:105A000092ED051A84ED160AB2F87200BDEEC11AC5
:105A10006082506FE063906F2064906D84ED1B1A7C
:105A2000E065B2F960006278A067B5F97010022AEB
:105A300088B200F0B980012A40F0C98000B2B0F508
:105A4000FA4FA8BF4FF4FA40A061A5F870000020FB
:105A500084F8480195F86500C0F3800084F8480197
:105A600095F86510CA0704D0023084F8480195F80B
:105A700065100A0704D5083084F8480195F86510C8
:105A80008A0705D540F0040084F8480195F86510B0
:105A9000CA0604D5103084F8480195F86510490607
:105AA00044BF203084F84801686DB2EE041AA4F8AF
:105AB0004901B5F8620020EE010AA4F84B0195F8FF
:105AC0006400BDEEC00A84F84D0110EE100A84F89F
:105AD0004E012046294607F029FF05F128012046FE
