:020000040802F0
:10000000E8810010FD04020849420208DD2F0208C1
:1000100031420208BF2F02085542020800000000CA
:10002000000000000000000000000000B50302080E
:10003000D72F0208000000006D040208D104020856
:100040001705020817050208170502081705020818
:100050001705020817050208170502081705020808
:1000600017050208170502081705020817050208F8
:1000700017050208170502081705020817050208E8
:10008000170502081705020819DC0408E7DE040852
:1000900061DE040817050208E1DE040817050208FE
:1000A000B9F004081705020805F10408170502084D
:1000B00017050208170502081705020817050208A8
:1000C00017050208170502081705020851ED040874
:1000D00057ED04081705020817050208170502085E
:1000E000EDE704084F420208170502081705020849
:1000F000170502087DF10408170502081705020814
:100100001705020817050208170502085DED040827
:1001100017050208170502082DF1040855F1040817
:100120001705020817050208170502081705020837
:100130001705020881E604081705020873DF0408A2
:10014000EDDE0408170502086DDF04081705020834
:100150001705020817050208170502081705020807
:1001600017050208170502081705020817050208F7
:1001700017050208170502081705020817050208E7
:10018000170502081705020800F002F800F02DF824
:100190000AA090E8000C82448344AAF10107DA45E2
:1001A00001D100F022F8AFF2090EBAE80F0013F007
:1001B000010F18BFFB1A43F001031847846C0400B9
:1001C000B46C04000023002400250026103A28BF48
:1001D00078C1FBD8520728BF30C148BF0B607047B9
:1001E00010B5002002F030FE10BD02F072FE114684
:1001F00000F08FF827F09FFD02F090FE70477047E7
:1002000002020346E857FB9D0000020800000600BA
:1002100000000020C0FF01000000000000000000FE
:1002200007614D433230307633000000000000009B
:1002300001000100010000004558540000000000CA
:100240004D617920323720323032342031353A3422
:10025000393A3331000000000000000000000000C7
:10026000000000000000000000000000000000008E
:10027000000000000000000000000000000000007E
:100280000A444FF0000C10F8013B13F0070408BFBC
:1002900010F8014B1D1108BF10F8015B641E05D05A
:1002A00010F8016B641E01F8016BF9D113F0080F0F
:1002B0001EBF10F8014BAD1C0C1B09D16D1E58BFA1
:1002C00001F801CBFAD505E014F8016B01F8016BD8
:1002D0006D1EF9D59142D6D3704766293CF0BD8595
:1002E00003681B0A28BF41F08001642901F066827F
:1002F000752901F06382782901F00283E42901F075
:100300009982F82901F00A83732902F07A82002089
:1003100070471FB53CF04BFD9DE8030001F00BFF5B
:1003200002F0E0FA0400002000213CF0A7F9401C94
:100330006060002000213CF08BF9E0601FBD03B439
:10034000FFF74EFF03BC01F0D5FE000080F30988E3
:100350007047EFF309807047684680F309880448C6
:100360000078C00714BF0220032080F31488704770
:10037000F8030010DFF818C0EFF305831B0618BF61
:100380006047EFF31483DB0708BF604700DF704767
:1003900089940508DFF818C0EFF305831B0618BF22
:1003A0006047EFF31483DB0708BF604700DF704747
:1003B00001950508EFF30980816911F8021CE1BB82
:1003C00090E80F1010B5E047BDE81040EFF3098C3E
:1003D0008CE80700214B93E80600914208BF704764
:1003E00041B91EF0100F16D11D49086820F0010018
:1003F000086010E01EF0100F06BF2CED108A0120DF
:10040000002081F838002CE9F00FC1F83CC00CB492
:100410003AF0F8FC0CBC1A60D2F83CC0BCE8F00F13
:1004200092F8380000280EBF6FF0020E6FF0120E27
:10043000BCEC108A8CF30988704710B5094A126821
:10044000914209D8084C54F8214090E80F10A04779
:10045000EFF3098C8CE80F0010BD00006C03001056
:1004600034EF00E07CDB04087CDB040810B53AF0D4
:10047000C3FBBDE81040154B93E80600914208BF4E
:100480007047EFF3098C1EF0100F06BF2CED108A99
:100490000120002081F838002CE9F00FC1F83CC0A1
:1004A0000CB43AF0AFFC0CBC1A60D2F83CC0BCE80B
:1004B000F00F92F8380000280EBF6FF0020E6FF0B8
:1004C000120EBCEC108A8CF3098870476C03001084
:1004D00010B53AF0BBFCCCE710B537F0D3FD3AF0DD
:1004E000B5FCC6E700487047003000000048704780
:1004F00000FC0100401EFDD1704700000948804704
:1005000009480047FEE7FEE7FEE7FEE7FEE7FEE7F5
:10051000FEE7FEE7FEE7FEE704480549054A064B0D
:100520007047000051F00408890102080000002013
:10053000E881001000FC0120E8510010F7B51446D6
:100540006E46002914BF0125002588480078E8B1CF
:1005500000F07AFA294630462FF00AFBC5B2012C8A
:100560000DD183480099834CC0F8261001462068BD
:100570004022001D01F02DFC206800F040FE00F03C
:100580006DFA012D02BF002003B0F0BD4FF0FF3027
:1005900003B0F0BD38B56C460090002914BF0125AA
:1005A00000257248007860B100F04EFA29462046D6
:1005B0002FF0DEFAC4B200F051FA012C04BF002083
:1005C00038BD4FF0FF3038BD2DE9F34767480D4681
:1005D000E94600784FF0FF37F0B1674E3088D8B168
:1005E00000F032FA30880024002888BFDFF88C81C0
:1005F0000FD900BFC4EBC40008EB400004224946F9
:100600000A3001F09BFB60B1601CC4B230888442A8
:10061000F0D300F023FA11E002B04FF0FF30BDE854
:10062000F087C4EBC40008EB4000041D00F016FA8C
:1006300000271DB120682860A088A88002B0384635
:10064000BDE8F0872DE9F1434848E8464FF0FF3612
:100650000078E8B1484D2888D0B100F0F5F9288835
:100660000024002888BF454F0FD900BFC4EBC40049
:1006700007EB4000042241460A3001F05FFB58B10D
:10068000601CC4B228888442F0D300F0E7F919E076
:100690004FF0FF30BDE8F883C4EBC40007EB400027
:1006A000041D00F0DBF906223549204601F046FB27
:1006B00058B106223349204601F040FB002818BFFC
:1006C000002602D03046BDE8F8834FF0FF36F9E748
:1006D000002070470020704710B5254CFF212046B0
:1006E0002FF085F828484FF4C1634FF0080C0169DA
:1006F000C4F80610828A6281A3814FF48073E3817B
:10070000A4F810C04FF0060C84F812C04FF0040C8F
:1007100084F813C0A382C4F8161062838069E06174
:1007200004F120002FF05FF80020C4F82600C4F880
:100730002A00C4F82E00C4F83200C4F836000D4A6E
:10074000C4F83A00E08704F1400111602A220A80CF
:10075000488010BD90F82010202984BF4FF0FF3052
:10076000704710B500F0F5FC002010BD0802001025
:10077000C81E0010000200103E03001030220010BE
:100780005ECE050864CE0508501F0010B84A126FEF
:1007900002B11047FEE770B50C46B8B10546FFF749
:1007A00097FF0646284600F091FC0644284600F0D4
:1007B00029FA0644284600F06CFA0644284600F060
:1007C00067FC3044002C18BF206070BDE120A84AAF
:1007D000A8A1126F12B19047002070BDFEE710B5BE
:1007E000A34C606F002808BF10BD80470028AB49AC
:1007F000086018BF10BDE020226FA9A112B1BDE8AA
:1008000010401047FEE770B5A44D416F81B1816F74
:10081000974C00291FBFC16F0029D0F88000002825
:100820000DD0606F002818D08047286080B114E098
:1008300000218167C167C0F8801029600DE0226F38
:10084000E320A7A11AB190474FF0FF3070BDFEE73B
:10085000226FE02092A112B19047002070BDFEE708
:1008600010B5D821824801F0DCFB8C4900200860DB
:1008700010BD2DE9F0417E4C8846050007D02A6F57
:100880002267287850B1E420A0A132B12EE0226F77
:10089000E120ABA1002A29D1FEE7FEE7B1480078AC
:1008A000012804D02846FFF755FF20B11AE0E020C8
:1008B000ADA1DAB9FEE7D8216D4801F0B2FB774F60
:1008C000002628463E6000F01FFC58B9284600F07C
:1008D0009FF938B9284600F0E2F918B9284600F027
:1008E000DDFB40B1AA49226FE3205AB190474FF097
:1008F000FF30BDE8F08141462846FFF7EBFE0028B7
:1009000075D100E0FEE72846FFF7E2FE20F0030085
:1009100080444146284600F0DBFB002867D128468A
:1009200000F0D4FB20F0030080444146284600F04C
:100930006BF900285BD1284600F064F920F0030031
:1009400080444146284600F0A6F900284FD12846A9
:1009500000F09FF920F0030000EB0801284600F0AA
:1009600099FB002843D1284600F092FBD822294663
:100970003F4801F0B5FA3E4D2846FFF7ADFE00288E
:1009800035D1686F60B1A96F00291FBFE96F0029D9
:10099000D5F88010002909D08047386068B111E08F
:1009A000AE67EE67C5F880603E600BE0226FE32023
:1009B0004BA10AB190471AE0FEE7226FE02038A170
:1009C0002AB19047284600F085FB80B900E0FEE799
:1009D000284600F01BF950B9284600F05EF930B9FE
:1009E000284600F059FB002808BFBDE8F0814FF011
:1009F000FF30BDE8F08170B504000D4616D0FFF75A
:100A000067FE0646204600F061FB0644204600F0E3
:100A1000F9F80644204600F03CF90644204600F070
:100A200037FB3044002D18BF286070BDE120104A0C
:100A300010A1126F12B19047002070BDFEE718E7B9
:100A4000002070470020704714480068002808BF45
:100A50007047074AD2F88010926F10470F4800681D
:100A6000002808BF70470249C96F084700687047EF
:100A7000501F00106970616C5F626173655F6D6526
:100A80006D6F72795F67657473697A652829206E66
:100A900065656473206120636667000004020010CE
:100AA0006970616C5F626173655F6869645F7468D7
:100AB000726561647361666574795F696E697428D3
:100AC000293A2063616E6E6F7420616C6C6F636194
:100AD000746520746865206D757465780000000089
:100AE0006970616C5F626173655F696E6974696189
:100AF0006C6973652829206E65656473206F736166
:100B00006C2066756E6374696F6E73006970616CDA
:100B10005F626173655F696E697469616C69736551
:100B200028293A20756E737570706F727465642031
:100B30007463702F697020737461636B0000000030
:100B40006970616C5F626173655F696E6974696128
:100B50006C69736528293A206D697373696E672023
:100B600063666700080200106970616C5F62617300
:100B7000655F696E697469616C69736528293A20DB
:100B8000616C72656164792073746172746564006C
:100B9000B8D7050831B524486C46007838B12348E9
:100BA00090F82C0018B19DF80000EF2802D04FF00B
:100BB000FF3038BDFFF748FF204635F01DFE002806
:100BC00014BF00244FF0FF34FFF748FF204638BD24
:100BD00031B515486C46007888B1144890F82C005F
:100BE00068B1FFF731FF204635F02EFE00280CBF1C
:100BF0004FF0FF340024FFF731FF204638BD4FF09F
:100C0000FF3038BD0020704700207047002070473B
:100C100090F82D10062984BF4FF0FF30704710B5B3
:100C200000F019FB002010BD08020010501F00103A
:100C3000224810B5406848B12148017801290CD0FC
:100C40000121017036F0B4F8002010BD1DA1E12093
:100C5000FFF79CFD4FF0FF3010BD24A1E020FFF70F
:100C600095FD4FF0FF3010BD10B5FFF7EDFE36F0EB
:100C7000BBFABDE81040FFF7F1BE10B5FFF7E4FE88
:100C80003BF0C2FBBDE81040FFF7E8BE0B484068F0
:100C9000704700207047002070470020704701898E
:100CA000B1F5C05F84BF4FF0FF30704710B5002131
:100CB000034A117000F027FB002010BD501F0010E8
:100CC000080200106970616C5F7379735F737461FF
:100CD000727428293A206D697373696E6720636F97
:100CE0006E66696775726174696F6E006970616CB8
:100CF0005F7379735F737461727428293A2063613A
:100D00006E6E6F7420737461727420616761696EB6
:100D10000000000008B1062801D900207047F0B596
:100D200015460A46E64900EB400085B001EBC000DD
:100D3000A0F1180450F8080C0A9F1E4698B11046FE
:100D4000FFF794FE0346E06820B1984204BF208973
:100D5000A84208D10396ADF808700095D4E904C004
:100D600002AA2146E04705B00020F0BD4107090E68
:100D7000C0F3C00241EA0211C0F3001210B541EA0B
:100D8000C201C0F3401041EA8004CE480078002838
:100D900008BF10BDFFF758FECB4A012120463BF0AB
:100DA00057FBC0B1C64900EB400201EBC20404F896
:100DB000180C002024F8160C44F8140C24F8100C1D
:100DC00044F80C0C44F8080C44F8040CFFF746FEF9
:100DD000A4F1180010BDFFF741FE002010BD70B552
:100DE00004001CBF2078002821D0FFF72DFE60886A
:100DF000002518B120783BF00DFB658020783BF092
:100E000089FB06462078AE4900EB400001EBC000AC
:100E100000F8185C2570658065602581E5602561B6
:100E20006561FFF71BFE002E1CBF002070BD4FF058
:100E3000FF3070BD70B515460E4604001DBF20780A
:100E40000028002D4FF0FF3008BF70BDFFF7FCFDFC
:100E5000608820B120783BF0DDFA0020608098495E
:100E6000002000BF00EB400201EBC2025288AA4200
:100E700010D0401CC0B20628F4D3207829463BF09D
:100E80000BFB10F0FF0F05D065806660FFF7E6FDF5
:100E9000002070BDFFF7E2FD4FF0FF3070BD2DE97F
:100EA000F04790460F46040019BF207800284FF005
:100EB000FF30BDE8F087FFF7C7FD608850BB2078A2
:100EC00000264546002818BF002D2DD0FFF7BCFD99
:100ED00060884FF0000920B120783BF09BFAA4F81D
:100EE00002907749002000BF00EB400201EBC202F4
:100EF0005288AA4216D0401CC0B20628F4D32078EB
:100F000029463BF0C9FA10F0FF0F0BD065806660F0
:100F1000FFF7A4FDA4F80880E760FFF79FFD00201D
:100F2000BDE8F087FFF79AFDFFF798FD4FF0FF301F
:100F3000BDE8F08710B5040019BF207800284FF0F5
:100F4000FF3010BDFFF780FD00202081E060FFF73B
:100F500085FD002010BD2DE9FF4182B098460C466A
:100F6000050004AF1CBF2878002828D06888002816
:100F700018BF002C23D0606800281CBF20880028E0
:100F80001DD0FFF761FD20883BF05AFA06001BD008
:100F90002288616800F01DFF208800902878334681
:100FA000424639463BF0CEFA00280CBF4FF0FF34E2
:100FB0000024FFF753FD06B02046BDE8F08106B0DF
:100FC0004FF0FF30BDE8F081FFF748FD06B04FF06D
:100FD000FF30BDE8F0812DE9F04383B00C460500F9
:100FE0001CBF688800283CD0E86800281CBF2889FE
:100FF000002836D0FFF728FDE86801902878B5F87A
:1010000008900DF104084FF0FF3600281CBF6888D7
:10101000002820D0002C1FBF6068002820880028EE
:1010200019D0FFF711FD20883BF00AFA070010D015
:101030002288616800F0CDFE2088009028783B4629
:101040004A4641463BF07EFA00280CBF4FF0FF367F
:101050000026FFF703FDFFF701FD03B03046BDE8B2
:10106000F08303B04FF0FF30BDE8F083002812BFDB
:1010700000294FF0FF30704770B516460D46044604
:10108000FFF7E2FCC4E90456FFF7E8FC002070BD5E
:1010900000207047002070470020704710B50446BC
:1010A00090F83000062884BF4FF0FF3010BD90212B
:1010B000034800F0B6FF204600F08AF9002010BD7A
:1010C0002820001008020010150D020800207047AB
:1010D0000020704710B5D0F88C1000291CBFD0F844
:1010E0009010002908D0D0F8941000291FBFD0F824
:1010F00098000028002010BD06A14FF0E100FFF786
:1011000045FB4FF0FF3010BD10B500F095F8002002
:1011100010BD00006970616C5F6574685F68696428
:101120005F696E697428293A206D697373696E6707
:10113000206574682066756E6374696F6E73000055
:10114000A94890F82200012818BF704700202EF00F
:1011500031BE10B504464FF4E071A44800F061FFC1
:10116000A34894F82010C180A249626AB2FBF1F250
:10117000028194F821200270A26AB2FBF1F1417061
:10118000002010BD9848D0F89C00002808BF704788
:10119000004700291CBF002070472EF069BE10B523
:1011A000954A84B09069D2E90812CDE902128E4ABC
:1011B0000090907A8DF8000090480190904890F847
:1011C00003C0818883784FEA0C6441EA1C214FEA0E
:1011D000134C44EA034341EA0C0490F801C0007840
:1011E00043EA0C2344EA1C611843CDE90201D2F81A
:1011F0008C10684688477E49487104B010BD7A4912
:10120000D1F89810084710B5774CD4F89000804773
:10121000D4F88800002808BF10BDBDE81040004782
:1012200010B5714CD4F88400002818BF8047D4F85A
:101230009400BDE8104000476D4902694A61808A08
:10124000088300207047684991F82C10012918BFC5
:10125000704738F027B8654A0021664BC2F8C011C4
:10126000C2F8C411C2F8C811C2F8CC11C2F8D0112A
:10127000C2F8D411C2F8D811C2F8DC11C2F8E011DA
:1012800042685B49B3FBF2F290F82D00488192B2BC
:101290004CF6CD405043800C8870002070470628E3
:1012A00006D2584901EB4011F030C0B2FFF76EBAD8
:1012B00055A1E020FFF76ABA10B535F0A9FD4A4CF8
:1012C00094F82C00012808BF35F0B4FD94F82F00E5
:1012D000012808BF35F0D6FD94F82200012818BF78
:1012E00010BD0020BDE810402EF064BD10B539F0EF
:1012F00029FE3D4890F82C00012818BF10BDBDE81C
:10130000104039F077BE2DE9F041384D00260446F3
:10131000C5F8E461C5F8E861C5F8EC61C5F8F061AD
:10132000C5F8F461C5F8F861C5F8FC61C5F800625C
:10133000C5F80462C5F80862C5F80C62C5F8106209
:10134000C5F81462C5F818624FF4C05105F508706D
:10135000C5F81C6200F065FE05F5C057C022C7F84D
:101360002862C7F82C62A169C5F8E411E169C5F8E3
:10137000EC1105F5F271A8230A734B738E734FF0CD
:10138000FE0C81F80FC00A744B748E7481F813C080
:101390000A714B71184A8E7181F807C0D2E90012A8
:1013A000C7E9881212480121124AC17021890161DE
:1013B0006168B2FBF1F18181C6810020BDE8F08156
:1013C000094991F82F10012918BF704737F0AABFBB
:1013D00010B504464821124800F023FE044894F852
:1013E00030100171002010BD501F0010302200107D
:1013F0003803001040420F0090D0050898D005082F
:101400004C030010B8D00508756E6B6E6F776E20B8
:1014100073797374656D206572726F7200000000DD
:10142000603C001000487047D03E001070B5A0FB33
:101430000140B4F1805170F1000024BF002070BD64
:10144000204600F0F0FE05001CBF214600F0C7FD5D
:10145000284670BD70B516460D46041F002808BF0B
:1014600070BD002E1CBF05F10C00AFF300802B46B1
:101470005868002818BFA04238BF0346F8D319683F
:10148000CA18A24218BF5C6003D122681C461144EE
:10149000196021680A19824218BF606004D142684D
:1014A0006260006808442060002E1CBF05F10C003B
:1014B000AFF3008070BD10B5044600F021FE016856
:1014C0002046BDE810400122C4E70844401E491EE2
:1014D000884370470821001DF7E72DE9F0410F46CA
:1014E0008046041F00F00CFE066807B3B8F1000F39
:1014F000384622D0FFF7EEFFB84205463CBF002039
:10150000BDE8F08106F10C00AFF300802268AA422A
:1015100038BF314615D3511B082931D36019002239
:1015200040F8041B31462560FFF794FF28E0404651
:10153000FFF7C1FF0020BDE8F081BDE8F04100F0F9
:1015400072BE4868002818BFA04238BF0146F8D3D1
:10155000131983421BD103681A44954217D8531BB1
:10156000082B0AD343686219536023680068184443
:10157000401B106025604A6002E0226040684860BD
:1015800006F10C00AFF30080201DBDE8F0810022C1
:101590003146384600F006FE05000AD04146206874
:1015A000021F284600F09CFC00223146201DFFF758
:1015B00051FF06F10C00AFF300802846BDE8F08132
:1015C00053EA020C00F069802DE9F04B4FF0000661
:1015D000002B1FBFB3FA83F503FA05F424FA05F6CE
:1015E0005E4012BF1643B2FA82F502FA05F4C5F165
:1015F00020051EBF22FA05FC44EA0C04203556EAF9
:10160000044C4FEA144418BF641C4FF000084FF01C
:101610000009904271EB030C39D3002919BFB1FACC
:1016200081F701FA07F6B0FA80F700FA07F6C7F17A
:1016300020071EBF20FA07FC46EA0C062037B6FB3F
:10164000F4FCA7EB0507103F07F01F0BCBF12006BA
:101650002CFA06F60CFA0BFB44BFB3460026202FEB
:10166000A4BF5E464FF0000B5BEA060C08BF4FF0CC
:10167000010B19EB0B0948EB0608ABFB027C06FBE0
:1016800002CC0BFB03CCC01B71EB0C01C1E70B467A
:10169000024641464846BDE8F08B13B5084318BFE3
:1016A0004FF0FF300146AFF30080BDE81C407047AB
:1016B0000FB41CB5084B06AA7B44694600900598F8
:1016C00001F06DF804460020694601F07BF82046E1
:1016D0001CBC5DF814FB0000091100000FB41CB520
:1016E0000C0007AA009007D04142A14202D3204437
:1016F000401E01E04FF0FF30074B7B4469460190EC
:10170000069801F04CF80021002C01D0009A1170CD
:101710001CBC5DF814FB0000D110000070B504463D
:1017200085690068C10601D5302600E02026C00783
:1017300007D070BDD4E9012130469047206A401C93
:1017400020626D1EF6D570BD70B5044685690078BF
:10175000C00707D170BDD4E9012120209047206A3D
:10176000401C20626D1EF6D570BD70B50C46054656
:10177000012A05D02878800600D5EA69002302E016
:10178000012305E05B1C934202D2E05C0028F9D102
:10179000A869E618C01AA861286A18442862284671
:1017A000FFF7BCFF04E0D5E9012114F8010B9047D5
:1017B000B442F8D32846FFF7C7FF70BD2DE9F041CA
:1017C0000646002410687529314616A510D0AFF3DF
:1017D0000080002802DA404213A507E031688A073A
:1017E00001D512A502E0490704D511A5012401E0A5
:1017F000AFF3008000210A2206F1240709E0B0FBC4
:10180000F2FCB0FBF2F302FB1C00303078541846B7
:10181000491C0028F3D123462A463046BDE8F04152
:1018200000F050BD000000002D0000002B00000063
:10183000200000002DE9F0418046D21D22F0070271
:101840000025D2E90002F52915A614D0011E72F177
:10185000000106DA0023D0EB030063EB020211A6BD
:1018600008E0D8F800108B0701D50FA602E0490761
:1018700001D50EA601251146002408F1240704E035
:1018800000F0DBFC30323A55641C50EA0102F7D11B
:101890002B46324621464046BDE8F04100F012BDDD
:1018A000000000002D0000002B00000020000000C0
:1018B000F0B40D460188090502D51B4C7C4402E0BA
:1018C000194C7C440E34002100F1240608E002F09B
:1018D0000F071209E75D42EA03721B097754491C9E
:1018E00052EA0307F3D1224604780023240704D5E3
:1018F000702D02D009B102231132F0BC00F0E2BC1D
:1019000070B504460D4621461068AFF300800246CC
:1019100029462046BDE870400023C9E7D21D22F0C9
:101920000703D3E90023C3E72ABE03002DE9F05FD4
:10193000894604464FF0000ADFF874B1FB44C0F852
:1019400020A02046E1688847002874D0252806D0CA
:10195000D4E901219047206A401C2062F1E700266B
:101960005F462046E16888472028054607DB312D81
:1019700005D2781910F8200C08B10643F1E7B0073A
:1019800001D526F00406C4F81CA00027C4F818A04E
:101990002A2D09D028462DF06EFF38B304EB8708B6
:1019A000303DC8F8185019E059F8041B204604EBE4
:1019B00087029161E1688847012F054618D1E069E7
:1019C000002820DA26F020061DE0D8F8180000EBE9
:1019D000800005EB40003038C8F818002046E16868
:1019E000884705462DF047FF0028EED1012F0AD089
:1019F0002E2D08D12046E16888477F1C0546022F1E
:101A000046F02006C4DBA069002803DA404246F015
:101A10000106A061F00701D026F010066C2D0BD056
:101A2000682D09D04C2D39D06A2D35D0742D35D084
:101A30007A2D33D016E038E0E1682F4620468847FB
:101A4000B842054609D16C2F26D04FF48060E1687A
:101A5000064320468847054604E06C2F1AD04FF411
:101A6000807006430DB3A5F14100192802D8203536
:101A700046F400664A462946204626604E46FEF752
:101A80002CFC80B101280BD0F61D26F0070000F1D8
:101A9000080956E74020E4E78020D8E70020D6E791
:101AA00006F104094DE7284652E7206ABDE8F09F99
:101AB000D2BD03000FB400B58DB010A909900091FC
:101AC0000B904FF0FF300A9000200C9006487844AD
:101AD0000690064878446A4607900F9909A800F0D6
:101AE000A9FE0DB05DF814FB830D00009B0D0000F6
:101AF0002DE9FF5F1D464FF0FF3B91464FF0000878
:101B00005F46D5E90146A96901987F1C8847296A83
:101B1000824688470028F6D1BAF1FF3F0CD0002E4C
:101B200024F4C06419DD600614D5BAF12B0F09D076
:101B3000BAF12D0F0ED103E0584604B0BDE8F09F76
:101B400044F48064A96901987F1C8847761E824608
:101B5000002E02DDBAF1300F03D0B9F1000F26D00C
:101B600032E0A969761E01987F1C44F4007488470E
:101B7000002E824605DDBAF1780F06D0BAF1580F73
:101B800003D0B9F1000F10D01EE0B9F1000F02D060
:101B9000B9F1100F18D1A969761E01987F1C24F4A1
:101BA000007488478246102002E0082000E00A20E6
:101BB000814609E0A96908FB0908761E01987F1C87
:101BC00044F4007488478246002E05DD494650469D
:101BD00000F01BFE0028EDDAE96901988847A005AE
:101BE00002D46FF00100A8E7E00725D1600613D505
:101BF000600502D5C8F1000000E0404629680A1DD2
:101C00002A600968220501D5087015E0220701D570
:101C1000088011E008600FE02868011D2960006855
:101C2000210502D580F8008006E0210702D5A0F842
:101C3000008001E0C0F8008038467EE72DE9FF5FB4
:101C40004FF000089946144646469169D2E901A72B
:101C5000DDF838B001988847054659EA0B0005D0F1
:101C600009E0A1690198761C88470546216A284643
:101C700088470028F5D1681C03D05FEACA7005D0F8
:101C800015E04FF0FF3004B0BDE8F09F2068011D63
:101C90002160D0F800800AE05FEACA7001D108F83C
:101CA000015BA169761C01987F1E88470546002FBD
:101CB0001ADD681C18D0B9F1000F0DD0E81705EB3C
:101CC000D060421120F01F0059F822102A1A01207A
:101CD00090400142E0D107E0BBF1000FDCD1284683
:101CE000216A88470028D7D0E16901988847BBF16D
:101CF000000F07D1002E05DD5FEACA7002D1002176
:101D000088F80010A068B84203DDBBF1000F03D0D3
:101D100017B16FF00100B6E73046B4E710B5002008
:101D200000F0CFFDFEF75CFABDE81040012000F0A6
:101D3000E1B90B460146184600F0ACBD40EA01038C
:101D400010B59B070FD1042A0DD310C808C9121F64
:101D50009C42F8D020BA19BA884201D9012010BD9E
:101D60004FF0FF3010BD1AB1D30703D0521C07E06B
:101D7000002010BD10F8013B11F8014B1B1B07D1CF
:101D800010F8013B11F8014B1B1B01D1921EF1D140
:101D9000184610BD10B5431C02E010F8011B71B1CC
:101DA0008107FAD14FF0013202C88C1A8C4314EA31
:101DB000C211F9D0C01A0A0603D0C01E10BDC01A45
:101DC00010BD0A0401D0801E10BD0902FCD0401EC7
:101DD00010BD032A40F2308010F0030C00F0158093
:101DE00011F8013BBCF1020F624498BF11F801CB1E
:101DF00000F8013B38BF11F8013BA2F1040298BF83
:101E000000F801CB38BF00F8013B11F0030300F0EC
:101E10006780083AC0F0088051F8043B083A51F84E
:101E200004CBA0E80810F5E7121D5CBF51F8043B95
:101E300040F8043BAFF30080D20724BF11F8013B08
:101E400011F801CB48BF11F8012B24BF00F8013B6A
:101E500000F801CB48BF00F8012B7047431A28BF98
:101E60009A427FF6B6AF10441144032A40F226800E
:101E700010F0030F1EBF11F8013D521E00F8013D86
:101E800010F0030F7FF4F6AF11F0030300F06D8044
:101E9000083AC0F00B8051F8043D083A51F804CDDF
:101EA00040F8043D40F804CDFFF7F3BF121D5CBFBE
:101EB00051F8043D40F8043DAFF30080D20724BF41
:101EC00011F8013D11F801CD48BF11F8012C24BFD4
:101ED00000F8013D00F801CD48BF00F8012C704723
:101EE00010B5203AC0F00B80B1E81850A0E81850A7
:101EF000B1E81850A0E81850203ABFF4F5AF5FEAF7
:101F0000027C24BFB1E81850A0E8185044BF18C99B
:101F100018C0BDE810405FEA827C24BF51F8043B42
:101F200040F8043B08BF7047D20728BF31F8023B96
:101F300048BF11F8012B28BF20F8023B48BF00F82A
:101F4000012B7047431A28BF9A427FF6C9AF10444D
:101F5000114410F0030F1EBF11F8013D521E00F88E
:101F6000013D10F0030F7FF4F6AF103AC0F00A8085
:101F700010B531E9185020E91850103ABFF4F9AF04
:101F8000BDE81040530724BF31E9081020E90810CC
:101F900044BF51F8043D40F8043D12F0030F08BF60
:101FA0007047D20728BF31F8023D48BF11F8012C15
:101FB00028BF20F8023D48BF00F8012C704702F00E
:101FC000FF0343EA032242EA024200F00AB802F0A9
:101FD000FF0343EA032242EA024200F024B84FF032
:101FE00000020429C0F0128010F0030C00F01B80E6
:101FF000CCF1040CBCF1020F18BF00F8012BA8BFF4
:1020000020F8022BA1EB0C0100F00DB85FEAC17CB7
:1020100024BF00F8012B00F8012B48BF00F8012B6A
:1020200070474FF0000200B513469446964620399B
:1020300022BFA0E80C50A0E80C50B1F12001BFF481
:10204000F7AF090728BFA0E80C5048BF0CC05DF8E7
:1020500004EB890028BF40F8042B08BF704748BF35
:1020600020F8022B11F0804F18BF00F8012B7047A9
:1020700030B44FF0013C50F8042B51F8043BCCFA3B
:1020800052F4D51A20D1FCB950F8042B51F8043B76
:10209000CCFA52F4D51A17D1B4B950F8042B51F830
:1020A000043BCCFA52F4D51A0ED16CB950F8042B7B
:1020B00051F8043BCCFA52F4D51A05D1002CDAD0F1
:1020C00030BC4FF00000704729BAB1FA81F111F02D
:1020D0001801D1F120008440F2D1CA40CB4012F067
:1020E000FF0213F0FF0330BCD01A704770477047EF
:1020F0007047000001491820ABBEFEE72600020031
:1021000010B5FFF78FF9083010BD7047704738B52C
:1021100004460A4600206946AFF30080002808BF45
:1021200038BD02460099204600F0F6FB012038BD7C
:10213000012000F0C7BEF8B5AFF3008005460020CF
:102140000C46102000BF0646A819A0420DD9324601
:1021500069460020AFF30080070008BF00F0B2FE20
:102160000098A04218BF0546C419FFF7C9FF0560D3
:102170000746F01D20F007004619284600F0BCFB7A
:10218000B44208BFF8BDA21B31463868BDE8F8402C
:1021900000F0C2BB0844401E491E88437047082116
:1021A000001DF7E72DE9F04117460E460446FFF7FC
:1021B000F6FFA042054633D9002F1CBF06F10C00E4
:1021C000AFF3008030467468F4B12168A94217D398
:1021D00005F1080291423CBF6168416007D3626823
:1021E00061194A602268521B0A6041602560002F15
:1021F0001CBF06F10C00AFF30080201DBDE8F0818C
:1022000020466468002CE0D129463046FFF77FFF66
:102210000028D7D1002F1CBF06F10C00AFF30080BF
:102220000020BDE8F08110B50446FFF769FF0168A2
:102230002046BDE810400122B4E730B5B0F10A02F3
:1022400071F100034FEA900E4EEA817EB0EB0E0072
:1022500061EB91014FEA101E4EEA017E10EB0E0079
:1022600041EB11114FEA102E4EEA016E10EB0E00F9
:1022700041EB11214FEA104E4EEA014E10EB0E00D9
:1022800041EB1141401841F100014FEAD00040EA12
:1022900041704FEAD1014FEA810444EA907410EB97
:1022A000800544EB01046D1944EB0404521BA34167
:1022B0004FF0000348BF0A3200D530BD401C41F149
:1022C000000130BD2DE9F0470D469946924604467F
:1022D00000F124080168880604D5E06921F01001A6
:1022E000216000E00120A84201DD471B00E000273B
:1022F000A1697A1902EB0900081AA0612078C006CA
:1023000002D42046FFF70AFA002608E0D4E90121AA
:102310001AF806009047206A401C761C20624E4541
:10232000F4DB2078C0060AD52046FFF7F7F906E06F
:10233000D4E9012130209047206A401C2062381ED9
:10234000A7F10107F4DC07E0D4E9012118F8050042
:102350009047206A401C2062281EA5F10105F3DC8D
:102360002046FFF7F1F92078000602D50220BDE8EB
:10237000F0870120FBE72DE9FF4F0C461E464FF08A
:10238000FF378BB0D2E90001DDF860800A908A4601
:10239000C1F30A5505B93D46002108464FF000003B
:1023A000BAF1000F00F4400005DA00EB80004FF4B2
:1023B000400101EA50004FEA9059B9F1010F00DDE8
:1023C000B9460A9850EA4A000ED044F61050A5F2D9
:1023D000FF3545432F14B8F1000F1ED07542291E5A
:1023E0001EDDC9F100021CE0B8F1010F4FF0000042
:1023F00001D0302103E0F24305E02154401CB042FB
:10240000FBDB30460022002121540B99C1F80880E3
:10241000C1E900200FB0BDE8F08FBD1B6D1CDEE7E9
:102420004A4600DA694206A800F09CFC06AB93E835
:10243000070003AB83E8070050460A992AF0D6FF4D
:102440008DE80700A0F500501F3800900398002D7C
:102450000ADD42F21F014A460844002303A9039003
:1024600068462BF03FFA09E0A0F500504A461F38B5
:10247000002303A9039068462BF049FA8DE8070072
:102480000004000C03D04FF0FF30410800E010467C
:10249000B8F1000F03D00022009215461EE0751E11
:1024A00005D4FFF7CAFE303262556D1EF9D5B3462A
:1024B0000122084302D000227F1C04E0207830284B
:1024C00001D100227F1E002A099784D01DE0112D22
:1024D00007DAFFF7B2FE303262556D1C50EA010296
:1024E000F5D1084302D00098C8B10EE00021681E63
:1024F00005E0235C625C63542254401E491C814207
:10250000F7DBAB46A81B401E0990002004F80B0027
:102510000B98099AC0F80880C0E9002B7AE71126C9
:102520004FF0000857E72DE9F04F88460446D21DCA
:1025300022F0070191B0D1E90001CDE90A012DF0A7
:102540005EF902460B98C00F01D02D2007E02068ED
:10255000810701D52B2002E0202101EAC000032AD7
:10256000099001D0072A05DB03464146204600F0CA
:10257000FFF90BE12078800601D5E06900E0062034
:10258000B8F1650F814606D0B8F1660F18D0B8F1E2
:10259000670F70D131E00020B9F1110F009001DB1D
:1025A000112301E009F101030AAA01A90CA8FFF710
:1025B000E2FEDDE90C70002609F10105834647E0E3
:1025C00001204B4600904FF000470AAA01A90CA831
:1025D000FFF7D1FEDDE90DB00C995D46002610B97C
:1025E00009F101000D18B9EB050003D4C0F1FF3665
:1025F00009F10105A5EB09002BE0B9F1010F01DAA2
:102600004FF001090020B9F1110F0090484601DD9B
:10261000112300E003460AAA01A90CA8FFF7ABFEAC
:10262000DDE90C704D4600268346207800070AD469
:10263000AB4500DA5D4601A8012D04DD411911F812
:10264000011C302907D04F4502DA17F1040F04DAD4
:10265000012082460FE06D1EEEE7002F02DCED1B2D
:102660003E4403E0781CA84200DD7D1CB81B00F14D
:10267000010A4FF000472078000703D4AA4501DB88
:102680004FF0FF3A0021B7F1004F0DF143088DF8EC
:10269000431024D002202B23002F01DA7F422D2368
:1026A0000A21021EA0F1010000DC5FB197FBF1FCE2
:1026B00097FBF1F201FB1C7C17460CF1300C08F87B
:1026C00001CDEEE7A8F1010003702188090501D5CD
:1026D000452100E06521A0F1010800F8011C0998DE
:1026E0000FA9A1EB0807FF1D00B10120411901EB63
:1026F000EA70A1693844081A401EA0612078C0061B
:1027000002D42046FFF70AF8099828B1D4E901213C
:102710009047206A401C20622078C00622D52046BF
:10272000FEF7FCFF1EE0002E04DBB34502DD01A82E
:10273000805D00E03020D4E901219047206A401CF0
:102740002062761CAAF101005FEA000A0AD100F0BB
:10275000C9F8C0680168405CD4E901219047206A4B
:10276000401C2062281EA5F10105DCDC07E0D4E94D
:10277000012118F8010B9047206A401C2062381E86
:10278000A7F10107F3DC2046FEF7DEFF032011B0BE
:1027900041E6000001694A1C02610878704700B5F3
:1027A0008FB0CDE901310021059105497944CDE98A
:1027B000031011466846FFF7B9F80FB000BD0000DE
:1027C000E5FFFFFF0A6802F8010B0A607047D1E9D4
:1027D00000239A4202D2531C0B601070704710B550
:1027E000436913B1AFF3008001E0FEF7BEFF0120A3
:1027F00010BD127800F124010A7000224A700122F3
:10280000EDE711684FF0FF32E9E73A2800D230389F
:1028100020F02002412A01D3A2F13700884201D3DF
:102820004FF0FF30704700000268114413780160D8
:1028300018467047D160054979445161044979448B
:10284000116200211161114600F0D2B8EDFFFFFFC7
:102850001B010000426842B1016811F8013B23B13D
:10286000521EC0E90012184670470121C160881E3F
:10287000704742685AB1C368016843B983688B42A4
:1028800005D0491E521CC0E90012002070474FF0CD
:10289000FF3070472DE9F041074615460E461020DF
:1028A000FFF7C1FC04000AD06760C4E9026500F0CC
:1028B0001EF80168216004600020BDE8F08101205D
:1028C000FBE710B500F0E6FABDE8104000F0DDBA15
:1028D0007047000010B500F005F8001D10BD00BFE6
:1028E0009D9D030010B5FEF79DFD203010BD10B575
:1028F000FEF798FD383010BD00210160C0E90110DD
:102900000C300FF02ABA10207047801A0844401E7D
:10291000491E88431044704770B5144605468C46DE
:102920004368002B18BF634538BF1846F8D30268C8
:102930001044604508D06646604604220821FFF72F
:10294000E4FF811B8446641A2946CCF80040BDE8A8
:10295000704000220CF10400FEF77CBD10B5044667
:10296000FFF7B8FF0068005D00F0010010BD000037
:102970002DE9F0411F46044603260168072A01F4A9
:10298000006004DB08B116A505E016A503E008B158
:1029900015A500E015A521F010002060A069C01E5B
:1029A000A0610FB1401EA0612046FEF7B7FE4FB1F7
:1029B000D4E9012138469047206A401C2062C01C9F
:1029C000206206E0206AFAE7D4E9012115F8010B3C
:1029D0009047761EF8D22046FEF7B6FEBDE8F0819D
:1029E0004E414E006E616E00494E4600696E6600B3
:1029F0002DE9F34F4FF0000A0C4656468DB00120EA
:102A00000C9001F10C000B9062690B98012190472A
:102A1000051E2DD0252D2CD0216A8847C0B16269B2
:102A20000B9801219047216A88470028F7D16269F5
:102A3000411E0B98904700E0761CA1690D988847CD
:102A4000216A88470028F7D1E1690D988847DBE7BC
:102A5000A1690D988847A842074601D1761CD3E7A3
:102A6000E1690D9888477F1C02D1BAF1000F6FD041
:102A70006BE162690B9800273D46394690472A284A
:102A800004D162690B98012190470125DFF8D082BB
:102A900062690B9801219047A0F130010A290AD2FE
:102AA0004745E5DC07EB870100EB4107303FDFD40A
:102AB00045F01005ECE7E90601D46FF000476C28FB
:102AC0000AD04C2814D0682815D06A280DD0742854
:102AD0001CD07A281AD01DE062690B98012190471A
:102AE0006C2802D045F0040514E045F002050DE025
:102AF00045F020050AE062690B980121904768289B
:102B000002D045F0080505E045F4006562690B98C0
:102B100001219047C4E9015765283DD019DC5828A8
:102B20007AD00CDC452837D004DC252826D0412873
:102B30009ED131E046282FD0472899D12CE05B2840
:102B400077D0612828D063287CD0642823D15AE02C
:102B5000F6E06F2848D008DC66281DD067281BD017
:102B6000692821D06E2816D127E0702845D0732817
:102B700068D0752847D078280DD14DE0A1690D980F
:102B80008847252805463FF469AFE1690D988847D5
:102B90006D1C3FF46AAFD8E00D9923466A466FF08A
:102BA0000100AFF30080C5E045F0400023464FF040
:102BB00000026060A80736D43EE0E8077FF447AF24
:102BC0002068011D21600068290501D506701BE7FA
:102BD000290701D5068017E7A90703D5F117C0E932
:102BE000006111E706600FE745F0400023464FF013
:102BF00008026060A80716D41EE040F60E0125EA20
:102C00000100606016E045F0400023464FF00A02E4
:102C10006060A80707D40FE045F040006060A80797
:102C200008D5234610220D996FF00100AFF3008004
:102C300080E007E0102223460D996FF00100FEF7B7
:102C400057FF77E04FF0000963284F46C8464B46D0
:102C5000CB4602D05B2806D038E0E80601D401203C
:102C6000A060012732E06269D4F80CB00B98012112
:102C700090475E2807D14FF0010949466269D4F8B0
:102C80000CB00B989047216939B900210A4603AB73
:102C900043F82120491C0829FADBD8B3216949B33C
:102CA00008F1010862690B98012190475D28F4D171
:102CB000B9F1000F09D0002003A951F82020D24318
:102CC00041F82020401C0828F7DB03AB20690028CE
:102CD00020794FEA40701ED05B462246CDF8008036
:102CE000CDE901970D9900286FF0010020DAAFF3CC
:102CF00000801FE0C11703AA00EBD1614B1121F046
:102D00001F0102EB8302411A13680120884003432C
:102D10001360C7E719E00D99224600286FF0010003
:102D2000009702DAAFF3008004E0FEF787FF01E0CE
:102D3000AFF3008000280ADA401C06D10C9820B1BD
:102D40004FF0FF300FB0BDE8F08F5046FAE7E907CB
:102D500001D10AF1010A064400200C9054E600005B
:102D6000CCCCCC0C2DE9F047814616468AB03548CC
:102D700078440DC88DE80D0032487844801C03ACBF
:102D80000DC884E80D0041F69B300844372190FBC4
:102D9000F1F290FBF1F5A5F1800501FB12041B3C5B
:102DA00002D56442012000E00020DFF898A08046B0
:102DB0000027FA44AAF1BE0A0EE0E0070AD0324624
:102DC000684607EB470101230AEB81012AF09FFDCA
:102DD0008DE8070064107F1C002CEED1194F7F4452
:102DE000AE3F19E0E80715D007EB04100DF1180A03
:102DF00090E80E008AE80E00C068F04201D19819F0
:102E000008903246012306A903A82AF080FD03ABEF
:102E100083E807006D10641C002DE3D14FF001031F
:102E200032466946B8F1000F03A802D02AF05AFDD5
:102E300001E02AF06CFDC9E90001C9F808200AB0D8
:102E4000BDE8F0872CAA03002DE9F0410646FFF704
:102E50004EFD8046454613E016B1E068B0420ED103
:102E600020682860D4E90101D8F80070884720461E
:102E7000FEF721FBD8F80000B842EBD100E0254670
:102E80002C68002CE8D1BDE8F081002801D0FFF7C4
:102E900031B9704710B5002102A000F048F80120B8
:102EA00010BD0000534947414252543A2041626EDE
:102EB0006F726D616C207465726D696E6174696F9B
:102EC0006E00000010B500F04BF8BDE81040FFF7B1
:102ED000DCBF7546FEF7A6FAAE46050069465346C6
:102EE00020F00700854618B020B5FDF715FBBDE8BA
:102EF00020404FF000064FF000074FF000084FF061
:102F0000000BAC46ACE8C009ACE8C009ACE8C009AD
:102F1000ACE8C00921F007018D46704710B50446A2
:102F2000AFF300802046BDE81040FDF708BA70B549
:102F300005460C460A2000E06D1C00F039F835B15A
:102F400028780028F8D102E0641C00F031F814B1B0
:102F500020780028F8D1BDE870400A2000F028B899
:102F600010B5012805D0002103A0FFF7E0FF0120E4
:102F700010BD09A1F8E7000053494752544D454D93
:102F80003A204F7574206F662068656170206D650A
:102F90006D6F7279000000003A2048656170206D05
:102FA000656D6F727920636F7272757074656400FD
:102FB00008B569468DF800000320ABBE08BD0420AB
:102FC0007146084202D0EFF3098001E0EFF3088078
:102FD000816901F01DB90A2024F07CBE04207146ED
:102FE000084202D0EFF3098001E0EFF30880816925
:102FF00001F012B98C4645F2E011C1F200010B68F4
:1030000001461A7C58689B6A4A439A5C9C2312FBCF
:103010000300624602F036BA2DE9F04F9DB0054636
:1030200045F2E0102978C1F200000768481E0E281A
:1030300087F850102AD8DFE810F01A0029002E0077
:103040000F002900290029002900290029000F006C
:10305000290029003C00310405F10C0011F0BFFAF1
:10306000A97B044679703970B970022009E005F136
:103070000C0011F0B4FAA97B044601207970397074
:10308000B97005F1240887F8490020E0FF2087F88F
:10309000500000F01EBC281D11F0A1FAA9790446C9
:1030A000022079703970B97087F8490005F11C0861
:1030B0000DE005F11C0011F092FAA97F04460220F0
:1030C00079703970B97087F8490005F1340800202B
:1030D0000A9097F85000FF2800F0FB8300290B941A
:1030E0000C9700F0EF80002401264FF000094FF00C
:1030F000000B4FF0000A00BF5FFA8AF50B982946D3
:1031000011F06BFA817801F0E001202902D1411C15
:1031100006E000BF017901F0E001202918D1C11CAF
:10312000097801390C2913D8DFE801F007121C24B3
:1031300012122C434E5607636B00F96C4C230AFBAA
:1031400003120AFB03F3CE5482F83D4063E000BF54
:10315000F96C4C230AFB03120AFB03F382F83D606F
:10316000CE5458E0F96C4C230AFB031C0AFB03F312
:1031700003224DE0F96C4C230AFB031C0AFB03F30A
:10318000042245E0F96C98274FEA4A020AFB07132C
:1031900001324FF04C0C0AFB07F783F83D4002FB6D
:1031A0000C13CE550C9F02FB0CF28E5483F83D405D
:1031B00031E0F96C002249448B188E544C32E42AD9
:1031C00083F83D40F8D126E0F96C4C230AFB031C40
:1031D0000AFB03F309221BE0F96C0022594400BFEB
:1031E0008B188E544C32B2F5987F83F83D40F7D15E
:1031F00011E0F96C4C230AFB031C0AFB03F30C22BD
:1032000006E0F96C4C230AFB031C0AFB03F30D22B6
:10321000CA548CF83D4097F8491001291CD0022966
:1032200040F05083F96A0AEB8A0201EB82139201A3
:103230008F5C02265E7007F0F8030C9F02338B54FC
:10324000F96A00788B5C012603F00F0343EA001053
:10325000885421E000000000FA6A0AEB8A0102EBC0
:10326000811256700A9C037814B1137013E000BFEA
:10327000177803F0010307F0F8073B440C9F137025
:10328000FA6A89010078535C00F01E0003F00F0316
:1032900043EAC0005054002411F01EFC294611F0EE
:1032A00039FC396B4FF41C720AFB02110AF1010A56
:1032B000C1F8040278780BF5987B824509F1E4099E
:1032C000FFF41AAF45F2E010C1F20000D0F8009010
:1032D0000020002118F80020CBB29A420B4688BF8C
:1032E0001346FF2A00F1010018BF19460428F1D146
:1032F000D9F84440481C08F1C405002689F80200AA
:10330000002700BFE85910F0E7FF54F826003844C2
:103310000437182F80ED000AF4D10136042E05F190
:103320001805EDD1D9F8380008F1440108F05CF82F
:10333000D9F8340008F18405294608F055F8D9F881
:103340003C00294608F050F8D9E90F2B0DF1340A5A
:1033500000235146002700BF52F827005BF8276082
:10336000002500BF445973514C510435102DF9D13B
:103370000137042F01F11001EED100204FF07E51F2
:103380005BF80020115004301028F9D11FED4F1ABE
:103390000AF1100C00250126BFEE000A5346D6465E
:1033A0004FF0FF327146B0EE412A2C4691ED003AC3
:1033B000103123EE033AB4EE423AF1EE10FAC4BFF4
:1033C000B0EE432A22460134042CEFD1501C59D0D0
:1033D0005BF82560AA4210D05BF822000AEB0211CC
:1033E000002200BF8C589F589C508F508458B7586B
:1033F000B45087500432102AF4D10AEB051000EBC8
:10340000850090ED002A624680EE022A2C4600BF1D
:1034100001340AEB041000EB850090ED003A5BF8F4
:10342000241022EE033A0027D81990ED004AD01953
:1034300090ED005A23EE044A34EE054A80ED004A2E
:10344000F01990ED004AC81990ED005A23EE044A95
:10345000043734EE054A102F80ED004AE4D1032CE6
:1034600002F11002D4D1022D05F101054FF0000642
:1034700038BF01260EF1140E10330CF1100C032D81
:103480008ED101E0F00762D10AF1200C0AF130037D
:103490004FF0030E0AEB0E1000EB8E0090ED001AB9
:1034A0005BF82E5080EE011A624676463446013EA5
:1034B0000AEB061000EB8E0090ED002A5BF8261058
:1034C00021EE022A002000BF1F1897ED003A1718BE
:1034D00097ED004A22EE033A33EE043A87ED003AC4
:1034E0002F1897ED003A0F1897ED004A22EE033A95
:1034F000043033EE043A102887ED003AE4D1012C71
:10350000A2F11002D2DCBEF1010EACF1100CA3F15D
:103510001003BFD80022B7EE000A00BF0AEB02106A
:1035200000EB820090ED001A5BF8220080EE011A99
:10353000002100BF431893ED002A043121EE022A36
:10354000102983ED002AF5D10132042AE6D145F293
:10355000E01AC1F2000ADAF800500B9F002000BF09
:1035600018F80010FF2903D06A6A11542A6A11540E
:1035700001300428F4D16878E8B10024002600BFA7
:10358000E1B2384611F029F8407821F00DF9002811
:1035900008BF0120F1B250FA86F000BF18F80420ED
:1035A000AB6A01365A54F1B28842F7D869780134CF
:1035B0008C420646E4D338460021002411F00DF871
:1035C000407821F0F1F8002808BF01206978AA7836
:1035D0002874484328704AB1002000BFE9680C54A1
:1035E000A97801308842F9D328780C46000610D01B
:1035F000002000BFA96AEA68095CEB69575C53F8D0
:1036000021307E1C5654D855297801308842F1D398
:10361000AC784FF0000044B1002100BFAA685054BC
:10362000AA7801319142F9D31046697881B100201E
:10363000696AAA68095CAB69575C53F821307E1C43
:103640005654D855697801308842F1D3A87800E003
:10365000002140B100200021AA685054AA7801310D
:103660009142F9D3697879B1002000BF296AAA682C
:10367000095C6B69575C53F821307E1C5654D85551
:10368000697801308842F1D399F80200A8B308F1B3
:1036900004040025002600BFA078D9F80410C0F368
:1036A000011248198263A1788909C163617801F028
:1036B000030141636178C1F3810101646178C1F361
:1036C00001114164617889098164A17801F00301E5
:1036D000C164A178C1F3810101652178C1F3400182
:1036E00080F86210211D04F0A7FC99F80200013651
:1036F0001034864205F19C05CED3DAF800900C9880
:1037000099F80280B8F1000F58D0D9F804E00023EE
:103710004FF09C0C4FF41C75012400BF03FB0CE11F
:1037200091F86510032919D002292DD0012941D122
:10373000D9F80860F15C00293CD0D9F81410D9F808
:10374000307051F823200021505C013110FB0570CE
:1037500080F8E141F05C8142F6D32BE0D9F80860B3
:10376000F05C38B3D9F81400D9F8307050F8232041
:10377000002100BF505C013110FB057080F8E14171
:10378000F05C8142F6D315E0D9F80860F05C88B1AE
:10379000D9F81400D9F8307050F82320002100BF68
:1037A000505C013110FB057080F8E141F05C814212
:1037B000F6D300BF01330C984345AFD1D0F8448015
:1037C00001200021B7EE000A58F82120002702EB63
:1037D000810300BFB94205D193ED001AB4EE401A3F
:1037E00004E000BF92ED001AB5EE401AF1EE10FAB7
:1037F00007F1010718BF0020082F02F10402E9D1E8
:1038000001310429E0D1002818BF4FF000080C9FB7
:10381000B87800285DD078680025002628440B90F1
:103820000C98D7E902127B6987690C9857F82670C3
:10383000C46988190A900C9854F826E0D0F82CC076
:103840000C984146046B0C9853F82630D0F834900D
:103850000C983244D0F838A00C98D0F83CB00C98B2
:10386000D0F840800C98C06CCDF820808846099133
:10387000CDE903C0DDE90A1000970C9FCDE901E412
:10388000CDE9059BCDF81CA001F074FA78680136EB
:103890004655B9789C358E42C0D31AE005F10C002C
:1038A00010F09DFE044610F09BFE014678703870C3
:1038B000B8700122012005F124080A9087F84920F8
:1038C000FFF707BCF86A0AEB8A0100EB81100021C0
:1038D00041701DB0BDE8F08F2DE9F04F83B045F287
:1038E000E016C1F2000637680446386B4FF41C78C6
:1038F00004FB08000D46043000F038FD306829460E
:10390000006B04FB0800643000F030FD306829468D
:10391000006B04FB0800643000F028FD306804EB05
:103920008406C06A05F1500100EB8610943000F067
:103930001DFDF86A95F8BE1000EB861003F05CF9E7
:10394000F86A05F1A40E95ED270AD5ED280A9EE840
:103950000E5000EB8610CDE900CE03F0BBFD386BB6
:103960005FFA84F904FB080049462A4600F04CFF40
:10397000387C90B34FF04C0A002604FB0AFB4FF052
:10398000000800BF97F85010042908D1F96C604373
:1039900000FB0A10304405F032FAB8B9387CF96CF3
:1039A000D5F898200BFB001095ED300A30444946BD
:1039B00001F0D8FA45F2E010C1F20000006895ED80
:1039C000310AC06C04FB0A0005F010FA387C08F1DB
:1039D0000108804506F14C06D4D303B0BDE8F08F52
:1039E00045F2E012C1F2000212684FF41C73126B30
:1039F00000FB032003F0E4B845F2E013C1F200033A
:103A00001B6800EE101AD3F830C04FF41C7300FB93
:103A100003C001EE102AB8EEC00AF8EEC10A01F0A8
:103A20004BBAF0B581B045F2E016C1F2000632683B
:103A30000446106B4FF41C7704FB07000D4604305E
:103A400000F094FC30682946006B04FB07006430EA
:103A500001B0BDE8F04000F089BC0A4645F2E01133
:103A6000C1F20001096800EB8003C96A01EB83130E
:103A7000C1B2184600F064BF45F2E012C1F2000284
:103A8000126800EB8000D26A02EB801003F024BCC5
:103A9000B0B582B045F2E012C1F20002126801F145
:103AA0001005D2F82CE0D1E902C200EB800091ECC5
:103AB000020A38CD0EEB801061460094019503F0A8
:103AC00009FD02B0B0BD45F2E011C1F20001096884
:103AD00000EB8000C96A01EB801004F0E3BA45F204
:103AE000E012C1F20002126800EB8000D26A02EB21
:103AF000801003F0F5BD00F091B8000070B545F2FC
:103B0000E014C1F200042268907858B10025002624
:103B10005068284400F048FD2268013690789C35B2
:103B20008642F5D3D06A517892F84920BDE87040BA
:103B300000F0F0BFF0B581B045F2E016C1F200062A
:103B400032680546106B4FF41C7205FB02000C46F0
:103B50002946224601F027F93068017C91B1C06CFA
:103B600069434C2201FB02004434002500F14C075C
:103B700002F096FD316844F82500087C0135854245
:103B80003846F3D301B0F0BD45F2E012C1F20002B5
:103B9000126800EB8000D26A02EB801001F025B9B8
:103BA000F0B581B045F2E017C1F2000716463A6859
:103BB0000446106B4FF41C7204FB02000D4602F029
:103BC000CDFF40B1386804EB8401C06A00EB81107E
:103BD000294603F014F846B1386804EB8401C06A42
:103BE00000EB8110D0F89000286101B0F0BD00001A
:103BF00070B545F2E014C1F200042068817861B12B
:103C00000025002640680D21284405F0FFF82068B3
:103C1000013681789C358E42F4D370BDF0B581B009
:103C20002DED048B45F2E010C1F200000468002C79
:103C300000F07F8060789FED419A01250026B7EE65
:103C4000008A4FF41C77A070257400BFA068002282
:103C50008555206A8655A06A8655606950F8260009
:103C60000670E06B616B50F8260051F8261000BF1B
:103C70009642B0EE490A02F1010208BFB0EE480ACE
:103C8000A0EC010AA1EC010A042AF1D1606C002128
:103C900050F826008E42B0EE490A01F1010108BF3A
:103CA000B0EE480AA0EC010A0829F3D1206B06FB0C
:103CB000070000F0DBFAE0688555E06950F826005F
:103CC00006700136042EC1D1002500BF606A0022B3
:103CD0004555A06950F825000570206CA16B50F87F
:103CE000250051F8251000BF9542B0EE490A02F1B7
:103CF000010208BFB0EE480AA0EC010AA1EC010ADB
:103D0000042AF1D1E06A05EB850100EB811000F097
:103D100006FB0135042DD9D1002500BFE06C2844F5
:103D200001F006F84C35B5F5187FF7D1FF2084F87F
:103D30005000BDEC048B01B0F0BD00BF00000000DE
:103D4000F0B581B045F2E015C1F200052A68137C98
:103D50008BB10C46D16C58434C2200FB021000265C
:103D6000214600F14C0701F049FB28680136007C30
:103D700086423846F4D301B0F0BD45F2E012C1F2FC
:103D80000002126800EB8000D26A02EB801004F09F
:103D900083B945F2E012C1F20002126800EB800024
:103DA000D26A02EB801005F08DB945F2E012C1F243
:103DB0000002126800EB8000D26A02EB801005F06E
:103DC0007CBB45F2E012C1F20002126800EB8000F9
:103DD000D26A02EB801003F097BC45F2E012C1F208
:103DE0000002126800EB8000D26A02EB801094306F
:103DF00000F0BCBA45F2E011C1F20001096800EB25
:103E00008000C96A01EB801003F06FBBF0B581B090
:103E100045F2E017C1F200073C680E4605465CB962
:103E200014F0CAFC04215422012314F0CFFC0446F0
:103E30000028386000F0DC80042026706570A570D2
:103E400000F0AAFC606014F0B7FC042101220423F6
:103E500014F0BCFCA06014F0AFFC04210122042388
:103E600014F0B4FCE06014F0A7FC04210422042345
:103E700014F0ACFC606114F09FFC042104220423C4
:103E800014F0A4FCA06114F097FC04210422042384
:103E900014F09CFCE06114F08FFC04210122042347
:103EA00014F094FC206214F087FC04210122042306
:103EB00014F08CFC606214F07FFC042101220823C2
:103EC00014F084FCA062042007F058FA2063042058
:103ED00007F06CFAE062082000F0ACFEE06414F039
:103EE0006BFC04210422042314F070FC606314F0C2
:103EF00063FC04210422042314F068FCE06314F042
:103F00005BFC04210422042314F060FCA06314F081
:103F100053FC04210422042314F058FC206414F000
:103F20004BFC04210422042314F050FC002560649F
:103F300014F042FC04210122042314F047FC6169BF
:103F400041F8250014F038FC04210422042314F065
:103F50003DFC616B41F8250014F02EFC0421042285
:103F6000042314F033FCE16B41F8250014F024FC29
:103F700004210422082314F029FC616C41F8250077
:103F80000135042DD4D1002514F016FC04210122A2
:103F9000042314F01BFCA16941F8250014F00CFC6B
:103FA00004210422042314F011FCA16B41F8250024
:103FB00014F002FC04210422042314F007FC216CF9
:103FC00041F825000135042DDED1002514F0F4FB65
:103FD00004210122082314F0F9FBE16941F82500CE
:103FE0000135042DF2D1FFF719FE204601B0F0BDD6
:103FF0000024FAE745F2E012C1F200021268136AE7
:104000005268185C9C2310FB032004F0FFBE45F2AD
:10401000E012C1F200021268136A5268185C9C2315
:1040200010FB032005F072BA45F2E011C1F2000165
:1040300009684FF41C72096B00FB021001F07AB89A
:1040400045F2E011C1F2000109684FF41C72096BDE
:1040500000FB021001F077B845F2E011C1F2000157
:1040600009684FF41C72096B00FB021001F099B84B
:1040700045F2E011C1F2000109684FF41C72096BAE
:1040800000FB021001F0BAB845F2E011C1F20001E4
:1040900009684FF41C72096B00FB021001F0B7B8FD
:1040A00045F2E011C1F2000109684FF41C72096B7E
:1040B00000FB021001F0B4B845F2E011C1F20001BA
:1040C00009684FF41C72096B00FB021000F01DB967
:1040D00070B545F2E014C1F2000421680A7C7AB19F
:1040E000C96C50434C2200FB0210002500F14C0625
:1040F00001F0ADF920680135007C85423046F5D3EA
:1041000070BD00002DE9F04381B045F2E017C1F227
:1041100000073A688046107CD26C00FB08F34C26FE
:1041200003FB062968B10D4600244E4635F82410DD
:10413000304600F03BFF38680134007C4C36844246
:10414000F4D309F1980002F0ABFA00EE100A3868D7
:104150004FF41C71006BB8EEC00A18FB010001B0EF
:10416000BDE8F04303F022BE45F2E011C1F20001C8
:1041700009684FF41C72096B00FB021005F054BA79
:1041800045F2E011C1F2000109684FF41C72096B9D
:1041900010FB021003F00ABE45F2E012C1F2000269
:1041A000126800EB8000D26A02EB801003F07DBF42
:1041B00045F2E012C1F20002126800EB8000D26A00
:1041C00002EB801005F08ABA45F2E012C1F200025B
:1041D000126800EB8000D26A02EB801003F0C0B8D6
:1041E00045F2E012C1F20002126800EB8000D26AD0
:1041F00002EB801003F08EBA45F2E012C1F2000229
:10420000126800EB8000D26A02EB801005F06EB9F4
:104210000146082023F076BD0146062023F072BD3A
:104220000146072023F06EBD0146092023F06ABD38
:1042300004207146084202D0EFF3098001E0EFF359
:1042400008808169FFF7ECBF052023F043BD0B20F8
:1042500023F040BD04207146084202D0EFF30980EC
:1042600001E0EFF308808169FFF7DEBFF0B581B0B0
:1042700000270446C0F8C470EC30122104F58076A3
:1042800004F5B275FDF7CDFE30466021FDF7C9FE9D
:10429000284600F0C9FC04F5B676304600F0C4FCB0
:1042A0002846642105F078F83046322105F074F88C
:1042B000284600F03AFD304600F037FD04F5BA70AC
:1042C00000210022002300F0A8FD201D07F050F877
:1042D00004F1640007F04CF80B2084F8DC0104F1D1
:1042E000CC00202104F5007584F8C870FDF799FE14
:1042F0002846282184F8E171C4F8DD71FDF791FEAC
:10430000FF2084F8240201B0F0BD90ED4A0A00F5C8
:10431000BA70BDEEC00A10EE101A00F09DBD10B5C7
:104320004FF4A0710446FDF77CFE4FF07E506060B4
:1043300040F20110A4F8F4004BF2B000A4F80C0114
:10434000002084F8F800C4F80401A4F8FC0004F587
:10435000887000F069FC04F5987000F065FC04F5C5
:104360008C701421FDF75DFE10BD0000B0B52DED81
:104370000A8B0D4691F82410012202FA01F100EE99
:10438000101AB8EEC00AB7EE008A88EE009AA96942
:104390000446016095ED000A95ED033A95ED011A8A
:1043A00095ED022A142120EE09AA29EE030A80EDD8
:1043B00001AA80ED040A143029EE02BA29EE01CADE
:1043C000FDF72FFE28699FED252AA06295ED070ACB
:1043D00095ED081A29EE000A84ED0D0A29EE010A6E
:1043E00084ED0E0A9FED1E0AB2EE041A2BEE000AAF
:1043F0002AEE011A31EE001A80EE011A69690020D6
:104400002CEE022AB5EE400A9FED163AC4E91410CC
:1044100084ED032AF1EE10FA4FF00001B5EE40AA48
:10442000A06584F85C0084ED020A38EE412A18BFCA
:104430000121F1EE10FA18BF012020EE020AB0EEC1
:10444000432A08401CBFB0EE412AB0EE403A84ED4A
:104450000B2A84ED0C3ABDEC0A8BB0BD6F12033A07
:1044600000007A440000000090ED081A90ED033A35
:1044700090ED094A31EE005A23EE055A90ED0A3AC2
:1044800090ED012A35EE044AB4EE434A22EE002AAA
:10449000F1EE10FA80ED094A06DCB1EE433AB4EED3
:1044A000434AF1EE10FA03DAB0EE434A80ED093ADE
:1044B00032EE042A90ED074A90ED0B5A90ED0C6A0B
:1044C00030EE411A25EE044A26EE011A90ED003A2C
:1044D00031EE041A32EE014A90ED142A80ED071AEB
:1044E00034EE031AB4EE421AF1EE10FA80ED080A27
:1044F00002DDB0EE421A08E0B1EE420AB4EE401A14
:10450000F1EE10FAB8BFB0EE401A90F85C10042932
:1045100004D8DFE801F00308111A2300B0EE410AC5
:1045200080ED151A2CE090ED160A90ED152A9FEDFE
:104530001C3A9FED1C4A19E090ED160A90ED152AE1
:104540009FED153A9FED154A10E090ED160A90ED9B
:10455000152A9FED0F3A9FED0F4A07E090ED160ADE
:1045600090ED152A9FED083A9FED084A31EE000ABA
:1045700020EE030A22EE042A32EE000A80ED150A2C
:1045800080ED161A704700BF8F90CD3A6F327F3F93
:104590001F4C243B68B77E3F75B2613B9B3C7E3F1E
:1045A00072FA183C2C387B3F2DE9F041044602F0AA
:1045B0004BFB204603F078FC94F8630020B12046C2
:1045C000BDE8F04102F092B894F86C10FF2904D1D4
:1045D000002084F86300BDE8F081D4F804E0226F85
:1045E0009EF8006047F230539A4218DAA06890F8BB
:1045F0000080501C2067C81E01220B2884F863200D
:1046000000F27080DFE800F00706750606797D810C
:1046100085898D91DCE7204605F002F988E0FE29C6
:1046200022D1002E57D0D4F80C80A26900234FF479
:104630001C7C354618F8037017FB0C2797F82402EA
:1046400006280ED12069E569C05CD7F81C1200EB82
:10465000800005EB8010C163D7F8201201649EF83A
:1046600000500133AB42E5D3FF2084F86C004FF0DB
:104670000B080020002E84F85E8084F8630000F0B0
:10468000898000274FF41C75E068A169C05D22692C
:1046900010FB051080F8DC81D05DE16900EB800043
:1046A00001EB8010002100F046FE2069E169C05D49
:1046B00000EB800001EB801000F016FB2069E1693F
:1046C000C05D00EB800001EB801000F079FE013747
:1046D000BE42D9D15EE0FF2084F86C000B2084F844
:1046E0005E0075E7FE297FF473AF204606F0CAFA34
:1046F0001EE0204605F0B0F81AE0204605F0D0F89C
:1047000016E0204605F00EFA12E0204605F05CFCAB
:104710000EE0204605F0FAFC0AE0204605F0B6FD62
:1047200006E0204605F0CEFD02E0204605F0E6FD5D
:1047300084F8630070B3B8F1000F0ED000274C2549
:104740006069A16DC05D10FB051003F0A6FB002899
:104750003FF43EAF0137B845F2D1FF2084F86C003A
:10476000204602F071FA002084F85E0066B1E1682C
:10477000A2694FF41C7300BF11F8017B013E17FBC7
:10478000032787F8DC01F7D120460121BDE8F0417D
:1047900004F03CBBBDE8F0812DE9F04F81B0054647
:1047A00014F00AF804219C222B469C2614F00EF8E3
:1047B000044625B305FB06FB00264FF00B084FF01F
:1047C00001194FF0FF0A0027E51905F118001C2117
:1047D000AE65C5E90166C5E90366FDF722FC05F192
:1047E00034002021A5F85E80FDF71BFC9C37BB45FB
:1047F000C5F8609085F8656085F86CA0E4D1204626
:1048000001B0BDE8F08F000070B5044690F8FD00DF
:104810001546217050B19FED431A9FED433A9FED2D
:10482000432ADFED430A9FED430A13E095ED1F1A7B
:1048300095ED1E0A95ED202A95ED213AF8EEC10A74
:1048400095ED251AB8EEC00AB8EEC22AB8EEC33A02
:10485000B8EEC11A04F1EC0084ED400AC4ED410A3F
:1048600084ED422A84ED433A80EC030A95ED222A36
:1048700049F28060C4F61830C4F8F80084ED562A76
:10488000D5F88C00B7EE003AC4F85C01D5F890007A
:10489000DFED2A1A83EE023AC4F85401B5EE402A3D
:1048A00004F5BA709FED244AF1EE10FA08BFB0EE9D
:1048B000443A84ED583A03F012FCB5F8BC1004F504
:1048C000B676304604F068FD304600F02EFA00203F
:1048D000C4F86001D5F8C800C4F8C40095F8CC004D
:1048E00084F8C800E8B1D5F8D810D5E93402C4F886
:1048F000D410C4E93302D5F8E410D5E93702C4F87E
:10490000E010C4E93602D5F8E800C4F8E400D5F8B0
:10491000EC1004F50A70C4F8E810BDE8704008F027
:1049200034BF70BD000080465575D8465575D8C651
:104930005555D5465555D5C6000000008096184BF4
:10494000B0B588B081700446106D4FF0FF316060E3
:1049500092F865001546C0F340002074506DB0F128
:10496000FF3FC8BF0121616592ED1A0A92ED051A59
:1049700084ED160AB2F86E00BDEEC11A6082106FA7
:10498000E063506F2064906D84ED1B1AE065B2F90E
:1049900060006278A067B5F96C00022A81B200F06D
:1049A000A380012A40F0B38008B2B0F5FA4FA8BF47
:1049B0004FF4FA40A061A5F86C00002084F838019B
:1049C00095F86500C0F3800084F8380195F865100B
:1049D000CA0704D0023084F8380195F865100A0738
:1049E00004D5083084F8380195F865108A0705D594
:1049F00040F0040084F8380195F86510CA0604D523
:104A0000103084F8380195F86510490644BF20300D
:104A100084F83801686DB2EE041AA4F83901B5F8CB
:104A2000620020EE010AA4F83B0195F86400BDEE97
:104A3000C00A84F83D0110EE100A84F83E012046B9
:104A4000294607F0BBF905F12801204607F042FA94
:104A50002078B5F86E20030300F007013FFA83F3D6
:104A600043EA01210844069006A8ADF81C200BF08B
:104A70006AFD2078EA6DB5F86030050300F00701A3
:104A80003FFA85F545EA01210844CDE9030203A870
:104A9000ADF814300BF043FD2078D4F8382105032D
:104AA00000F007013FFA85F545EA01210844D4F8F2
:104AB0003C318DE80D0068460BF0F5FC04F5987567
:104AC0002846322104F068FC284600F02EF904F54F
:104AD00088752846322104F05FFC002084F80D011F
:104AE000284600F022F913E008B2B0F5526FA8BFD3
:104AF0004FF45260A061A5F86C00207800210009F5
:104B000084F80C1108B0BDE8B0402CF05DBDA06188
:104B100008B0B0BDF0B589B00C46012A074613D0E5
:104B2000022A4CD1002C4AD007F19005296815F8CB
:104B3000900C45F8741C000909B22DF06BF8013C8B
:104B400005F5A075F2D13AE06E4630462421FDF716
:104B500068FA002040F20771002200BFB318B1507C
:104B60000832202A5860F9D1042C4FF0000028BFE9
:104B70000424ADF82000FCB107F19000002F14BF11
:104B800010F8901C07219DF82020032A10D80B0351
:104B90003FFA83F301F0070543EA05231944531C48
:104BA00005688DF8203006EBC20346F832105D60D0
:104BB000013C00F5A070E1D168460BF0EBFB09B0B9
:104BC000F0BDB0B504464078012803D194F8042123
:104BD000D2071DD1013902291AD84FF6F872C0F256
:104BE000FF0202EAC10140F65022C0F2060202288A
:104BF00022FA01F50ED001280AD1E9B2204607F0C9
:104C000036F804F5887084F80D5100F08EF809E04C
:104C10000020B0BD2DF0C4F8207800092CF06CFD08
:104C200084F80C510120B0BD0021C0E9001170478B
:104C30001FF0F8BC70B5044613F0BEFD04214C22F1
:104C400023464C2513F0C2FD5CB304FB05F10022A2
:104C50004FF0010C6FF0802E4FF07E53002400BF08
:104C6000051995F8406000F804C006F0F0064C34D1
:104C70000736A142A5F83B2085F83D2085F83A206B
:104C80002A87C5E90122C5E90322C5E90723C5E949
:104C90000922C5E90B22C5F834E06A6485F8406052
:104CA000DED170BDB0B5D0E90B3ED0E902C5A3EBB3
:104CB0000E0403630CF1010305EB040E93428360C1
:104CC000C0F80CE00DD9BEF1000F48BFCEF1000EC8
:104CD00000228E454FF00001B8BF0121C0E9022239
:104CE00000E000210846B0BDB0B504464078022877
:104CF0000FD0012818BFB0BD20460021002506F0C6
:104D0000B6FF04F5887084F80D51BDE8B04000F09E
:104D10000CB8207800092CF057FC94F80C01A0285E
:104D20001CBF002084F80C01B0BD416801607047D1
:104D3000012202706FF08022426390F8402000212F
:104D40004FF07E53A0F83B1080F83D1080F83A10E9
:104D50000187C0E90111C0E90311C0E90713C0E9E7
:104D60000911C0E90B11416402F0F001073180F82C
:104D7000401070472DE9F04FDDE90D7ADDE911ECC7
:104D8000DDE90F98DDE90B5B8765071DDDE9094665
:104D90005EC7C0E9065BC0E908A8C0E90A9EC0F882
:104DA00030C0BDE8F08FB0B50446B0F8DC01154660
:104DB000908404F5BA7001F049FC94ED4A0A94ED30
:104DC0004B1A94ED4C2ABDEEC00ABDEEC11ABDEEE1
:104DD000C22A85F8260085ED000A85ED011A85EDC9
:104DE000022AD4F83401E860B0BD10B50C46D0F802
:104DF0001CC0826A416F436B4FF0000E84E80C4088
:104E0000A181A4F810C005F0D5FD28B14EF2D02044
:104E1000C0F605000068606110BD80B500EE101A94
:104E200001EE102A02EE103AB8EEC00AB8EEC11A2E
:104E3000B8EEC22A002200F1300180ED050A80EDB3
:104E4000061A80ED072AC0E9082280F828200846C3
:104E50001421FDF7E6F880BD10B590ED000A90ED45
:104E6000011A02EE101AB4EE410AF1EE10FAB8EE91
:104E7000C22A0ED0B4EE420AF1EE10FA0BDCB4EE08
:104E8000421AB0EE420AF1EE10FAB8BFB0EE410A93
:104E900001E0B0EE420A00F1180180ED040A80ED55
:104EA000050A00F1300408461121FDF7BAF8204642
:104EB0001421FDF7B6F810BD014690F8FD009FEDF6
:104EC0000B1A9FED0B2A002804BFB0EE401AB0EE7B
:104ED000602A81ED3B1A9FED071A01F5BA70F0EEDA
:104EE000411A81ED3C2A03F0FAB800BF5555D5C6EA
:104EF0005555D5460000000010B5044640780228FC
:104F000011D0012816D12046092106F0B0FE00205C
:104F100084F80D0104F58870FFF707FF04F5987019
:104F2000FFF703FF06E0207800092CF04DFB00207E
:104F300084F80C01002084F8F800C4E94000C4F8AB
:104F4000FA00A4F82C01A4F8F60010BD90F80C119A
:104F50000120062918BF0A2900D17047502918BF1F
:104F60000020704710B5044690F83D0084F83B10CF
:104F700048B10121E16194F840104FF07E50206269
:104F800021F004000DE04FF0FF30B2F1FF3FC8BF49
:104F90000120E061204684ED090A04F0E7FB94F863
:104FA000400000F0FE0084F8400010BD70B586B0EF
:104FB000002800F0BD80044690F83D00002840F035
:104FC000B78094F84000C20740F0B2800022430747
:104FD000226313D4B4F934006282A289A18190B310
:104FE0008A1A434212B29342D8BF82422BDD204636
:104FF00050F82C1F8289013282812AE022780D2A02
:1050000000F29480012303FA02F243F602631A428B
:1050100073D094F83C20002A00F08280A3898B4250
:1050200040F08180013253B2032B84F83C207DDBB9
:10503000228AA181E181891A89B2A162002161825B
:1050400084F83C1067E0E28920468A4204D150F897
:105050002C1FC1EBC10112E050F82C3F8A1A20F836
:105060001E1C50F8041C20F81A2C01FA82F140F89A
:10507000041CC3EBC3014FF47A7313FB0211C91074
:1050800001601DF08FFF1DF096FF05460E461DF0D6
:1050900089FF1DF097FF0246284631460023FCF7A2
:1050A0008FFA52EA030043D1208F002840D094F9B0
:1050B0003B100025ADF80E10CDE9040502200A21B1
:1050C000ADF80C501CF069FE02900FF060FF02AECC
:1050D00003210022002300960FF036FF208FE18E7F
:1050E000884208D994F8440040F0100084F8440045
:1050F000012084F83A0025871AE012F0180F15D025
:10510000228AA181E181891A89B20022C4E90A12A6
:10511000628284F83C2000F0FB0084F8400005E047
:105120000120A18100E0002084F83C000020E06222
:1051300006B070BD90F8DC11062912BF002080ED8A
:10514000450A0120704780B590F8DC1109291CBF81
:10515000002080BDB0EE401A90ED3B0A90ED3C2A55
:10516000B4EE420AF1EE10FA0ED0B4EE410AF1EEBE
:1051700010FA0BDCB4EE412AB0EE410AF1EE10FA5F
:10518000B8BFB0EE420A01E0B0EE410A002180ED66
:10519000460AC0F81C1100F5BA7002F083FB01202A
:1051A00080BD80B590F8DC210021082A24D8012395
:1051B00003FA02F212F4C17F1ED090ED3B1A90ED7B
:1051C0003C2AB4EE421AF1EE10FA0ED0B4EE401AB8
:1051D000F1EE10FA0BDCB4EE402AB0EE401AF1EE1C
:1051E00010FAB8BFB0EE421A01E0B0EE401AB0EECD
:1051F000410A06F08AF90121084680BD90F8DC11C9
:10520000502912BF002080ED450A0120704790F818
:10521000DC11032912BF002080ED490A01207047EC
:1052200010B52DED048B044600F5B670B0EE608A23
:10523000B0EE409AFFF779FD94F8DC1100200E29BA
:1052400041D8012202FA01F144F2841211423AD00B
:1052500094ED3D0AB4EE490AF1EE10FA02DAB0EE2E
:10526000409A08E0B1EE400AB4EE490AF1EE10FAB5
:10527000C8BFB0EE409A94ED3E0AB4EE480AF1EE93
:1052800010FA02DAB0EE408A08E0B1EE400AB4EE5D
:10529000480AF1EE10FAC8BFB0EE408AB5EE408A77
:1052A000F1EE10FA04F5BA7084ED479A84ED488A5D
:1052B00002D102F027FF05E0B0EE490AF0EE480AFD
:1052C00002F01CFB0120BDEC048B10BD80B590F8F2
:1052D000F61009B1012080BD4178022906D00129CC
:1052E00007D190F8040100F0010003E02CF098FAD7
:1052F00000E00020002818BF012080BDD0E90F3257
:1053000093420AD0D0F828C0B1F1FF3FD8BF9C45E6
:105310000CDB0129A8BF944508DCC26E53428A42C7
:10532000A8BF0A468B42C8BF1A4600E000220267A7
:10533000C0F890207047D0E90F3293420AD0D0F8DD
:1053400028C0B1F1FF3FD8BF9C450CDB0129A8BFA5
:10535000944508DC826953428A42A8BF0A468B42C0
:10536000C8BF1A4600E000220262C0F890207047D1
:10537000D0E90F3293420AD0D0F828C0B1F1FF3FF4
:10538000D8BF9C4515DB0129A8BF944511DC00EE70
:10539000101A90ED011AB8EEC00A9FED082A21EE0E
:1053A000000A80EE020A0166BDEEC00A10EE101A75
:1053B00001E000210166C0F89010704700007A44B7
:1053C00080B584B041780122012980F8F52010D100
:1053D0000078020300F007013FFA82F242EA01215D
:1053E0000844009000208DF80400029068460BF0FD
:1053F00082F804B080BD80F85C10704710B190F85E
:105400003D2002B1704790F840209207FAD1028EF9
:10541000332A39BF01320286012280F83A2003295B
:1054200006D80122DFE801F00C060702082202E09C
:105430000F2905D0022290F84410114380F844103F
:10544000002180F83C10704790F83D00704710B183
:1054500090F83D1001B1704790F840108907FAD1DB
:10546000418E332939BF01314186012180F83A103C
:1054700090F8441041F0040180F84410002180F8B5
:105480003C1070472DE9F04F81B02DED048BAAB090
:10549000044680690D464FF41C71164615FB010148
:1054A000FE2291F8DCB194F85EA081F8DC210021A5
:1054B00084F85E2084F8631031784AB2D31E0B2B37
:1054C00000F25684DFE813F09A005404A100BE00F5
:1054D000CA000C000C0040017A01ED014C0281026F
:1054E00094F86C30934200F04384002284F86C10EE
:1054F000E168626522670F784FF41C7517FB05079A
:10550000FE236269D4F858C087F8DC314F7817FB66
:10551000050787F8DC31897811FB050080F8DC315C
:1055200010784C2510FB05C003F054FC6069A16D98
:10553000407810FB051003F04DFC6069A16D807888
:1055400010FB051003F046FC706821696067B068C5
:10555000E067F068A0670878E16900EB800001EB84
:105560008010FFF72DFF2069E169407800EB800093
:1055700001EB8010FFF724FF2069E169807800EBE0
:10558000800001EB8010FFF71BFF2069E1690078C4
:1055900000EB800001EB80100121FFF712FB206976
:1055A000E169407800EB800001EB80100121FFF7FA
:1055B00008FB2069E169807800EB800001EB801036
:1055C0000121FFF7FEFA2069E269017801EB810110
:1055D00002EB8111896CC4F88010417801EB8101E4
:1055E00002EB8111896CC4F88410807800EB800094
:1055F00002EB8010806CC4F88800B9E3A06D4C23E6
:10560000D6E9031215FB030098E100202067E0694A
:1056100005EB8501331D00EB81100ECBD21A05F08E
:1056200091F9A169002800F04F824FF41C7015FB1E
:10563000001002F00BFDA06D4C2115FB010003F0E2
:10564000C9FBBEE1328B4FF6FF739A4200F08082B5
:10565000012A40F0F38206F110027BE24FF41C793C
:105660000022FE2315FB0900226784F86C3080F8C5
:10567000241280F80922A0694FF0010815FB0900E7
:1056800080F80882A069D6E9031215FB0900D0F85A
:105690000472501A00EE100AD7E91E02B8EEC00AD2
:1056A000121A01EE102AB8EEC11A80EE018A00EE3D
:1056B000101AB8EEC00A01EE100AB8EEC11A80EE58
:1056C000080A30EE410ABDEEC09A0AF092FD0E21A2
:1056D0008DF810508DF811108DED168A8DED179AFA
:1056E000016816AA4B6A04A99847A06D4FF04C0AAE
:1056F00015FB0A00B0EE480A03F0BEFEA06D15FBD4
:105700000A0090F8401041F0040180F8401096ED36
:10571000030A97ED1E1AB8EEC00A80EE080AB8EE2A
:10572000C11AA06915FB090030EE410AB8EEC91A8A
:1057300030EE410ABDEEC00A80ED830AA06915FB78
:10574000090080F8098213E384F86C1000212167B6
:105750004FF41C7115FB010002F078FCE06905EBC9
:10576000850700EB8710002103F052FDE06901215D
:1057700000EB8710FFF725FAE1697068A26D01EB75
:1057800087114C27486215FB0720FFF75DFE0028B4
:1057900000F09F81A06D15FB070003F01BFBB068B4
:1057A000C4F890007068C4F88C0042F6E060C4F859
:1057B00094004FF47A70C4F89800D9E2A06DE42107
:1057C00015FB0107F8697168C0EBC032384603F079
:1057D0008FFEBA6EB16807F14C00C2EBC23203F023
:1057E00087FED7F8B420F16807F19800C2EBC23207
:1057F00003F07EFE204601F027FAE06905EB8507FD
:1058000000EB8710002103F003FDE069012100EBAC
:105810008710FFF7D6F9E06900EB8710FFF7D0FD9E
:10582000A0694FF41C7115FB01004FF4F851C0F84A
:10583000EC11716990ED4A1A9FEDC42AC0F8F0117D
:1058400031EE021A316990ED3C0ABDEEC12AB8EE84
:10585000C21AC0F8FC114FF46171B4EE410AC0F8ED
:10586000F41100F5FC71F1EE10FA80ED7E2ABEBF56
:10587000BDEEC00A81ED000AB8EEC01A90ED3B0AF9
:10588000B4EE410AF1EE10FAC4BFBDEEC00A81EDDC
:10589000000A307884F86C000120606500202067E1
:1058A00066E20FF019F929460FF041F9D6E9012116
:1058B000002A00D5524200EE102A90ED311AB8EEBF
:1058C000C00A21EE000ABDEEC00A10EE102A48F20E
:1058D0000003D0F89800CFF6FF73B2F5004FB8BFC1
:1058E0004FF4004300280FF2E450C8BF043090ED9D
:1058F000000A03EB020880EE010A41F6C4120DF122
:105900005809C0F606022B46CDF80080BDEEC00A4D
:1059100010EE100A0F18484650210197FBF7DEFEE3
:1059200000234846294600220093019303F012FD0C
:10593000A06D4C2115FB010041463A4603F0D8FD0D
:10594000E06905EB850500EB8510002103F060FCA4
:10595000E069B4F9401000EB8510FFF732F930E050
:10596000A06D4FF4987115FB0107F8697168C0EBE1
:10597000C032384603F0BCFDBA6EB16807F14C0086
:10598000C2EBC23203F0B4FDD7F8B420F16807F1DE
:105990009800C2EBC23203F0ABFDD7F800213169A9
:1059A00007F1E400C2EBC23203F0A2FD204601F091
:1059B0004BF9E06905EB850100EB8110002103F054
:1059C00027FC307884F86C00D2E196ED020A4FF49F
:1059D0001C77B8EEC00A15FB070080ED830AA069AA
:1059E000B16915FB0700C0F810124FF000090E2036
:1059F000C4F8709084F86C00A069317815FB07003A
:105A000080F82412012180F80812A0690DF15808CD
:105A100015FB070080F8099240464621FCF701FB80
:105A2000A06915FB0700D0F80C0237F01FF941EC14
:105A3000100B70680FF204420290404646218DED33
:105A4000000BFBF74BFE404629460022CDF80090A4
:105A5000CDF8049003F07EFC14F05CFE14F0A1FE7F
:105A6000002855D00DF1580840464621FCF7D9FAD8
:105A70007068B76900900FF2E832404646212B4625
:105A80000197FBF72BFE404629460022CDF80090F7
:105A9000CDF8049003F05EFCD6E9047838461EF099
:105AA00095FE814600F0FE000E2840F0DA8016AC2C
:105AB00020464621FCF7B5FA41F6FD12C0F6060273
:105AC000204646214B46C1E04FF41C7015FB0010E8
:105AD00025E1B068A16DC4F890007068C4F88C002E
